{
	"schemaVersion": "2.0.0",
	"contractName": "DigiOptionsMarkets",
	"compilerOutput": {
		"abi": [
			{
				"inputs": [],
				"stateMutability": "nonpayable",
				"type": "constructor"
			},
			{
				"anonymous": false,
				"inputs": [
					{
						"indexed": true,
						"internalType": "address",
						"name": "addr",
						"type": "address"
					},
					{
						"indexed": false,
						"internalType": "uint256",
						"name": "datetime",
						"type": "uint256"
					},
					{
						"indexed": false,
						"internalType": "int256",
						"name": "amount",
						"type": "int256"
					}
				],
				"name": "LiquidityAddWithdraw",
				"type": "event"
			},
			{
				"anonymous": false,
				"inputs": [
					{
						"indexed": false,
						"internalType": "bytes32",
						"name": "marketKey",
						"type": "bytes32"
					},
					{
						"indexed": true,
						"internalType": "uint48",
						"name": "expirationDatetimeFilter",
						"type": "uint48"
					},
					{
						"indexed": false,
						"internalType": "uint40",
						"name": "expirationDatetime",
						"type": "uint40"
					},
					{
						"indexed": true,
						"internalType": "uint8",
						"name": "marketInterval",
						"type": "uint8"
					},
					{
						"indexed": true,
						"internalType": "uint8",
						"name": "marketCategory",
						"type": "uint8"
					},
					{
						"indexed": false,
						"internalType": "string",
						"name": "underlyingString",
						"type": "string"
					}
				],
				"name": "MarketCreate",
				"type": "event"
			},
			{
				"anonymous": false,
				"inputs": [
					{
						"indexed": false,
						"internalType": "bytes32",
						"name": "marketHash",
						"type": "bytes32"
					}
				],
				"name": "MarketSettlement",
				"type": "event"
			},
			{
				"anonymous": false,
				"inputs": [
					{
						"indexed": true,
						"internalType": "uint256",
						"name": "buyer",
						"type": "uint256"
					},
					{
						"indexed": true,
						"internalType": "uint256",
						"name": "seller",
						"type": "uint256"
					},
					{
						"indexed": true,
						"internalType": "bytes32",
						"name": "marketHash",
						"type": "bytes32"
					},
					{
						"indexed": false,
						"internalType": "uint256",
						"name": "datetime",
						"type": "uint256"
					},
					{
						"indexed": false,
						"internalType": "uint16",
						"name": "optionID",
						"type": "uint16"
					},
					{
						"indexed": false,
						"internalType": "uint256",
						"name": "pricePerOption",
						"type": "uint256"
					},
					{
						"indexed": false,
						"internalType": "uint256",
						"name": "size",
						"type": "uint256"
					},
					{
						"indexed": false,
						"internalType": "bytes32",
						"name": "offerHash",
						"type": "bytes32"
					}
				],
				"name": "PositionChange",
				"type": "event"
			},
			{
				"inputs": [
					{
						"internalType": "uint40",
						"name": "expirationDatetime",
						"type": "uint40"
					}
				],
				"name": "calcMarketInterval",
				"outputs": [
					{
						"internalType": "uint8",
						"name": "interval",
						"type": "uint8"
					}
				],
				"stateMutability": "view",
				"type": "function"
			},
			{
				"inputs": [
					{
						"components": [
							{
								"internalType": "string",
								"name": "underlyingString",
								"type": "string"
							},
							{
								"internalType": "uint40",
								"name": "expirationDatetime",
								"type": "uint40"
							},
							{
								"internalType": "uint24",
								"name": "objectionPeriod",
								"type": "uint24"
							},
							{
								"internalType": "uint8",
								"name": "config",
								"type": "uint8"
							},
							{
								"internalType": "uint8",
								"name": "marketCategory",
								"type": "uint8"
							},
							{
								"internalType": "uint8",
								"name": "baseUnitExp",
								"type": "uint8"
							},
							{
								"internalType": "int8",
								"name": "ndigit",
								"type": "int8"
							},
							{
								"internalType": "address",
								"name": "signerAddr",
								"type": "address"
							},
							{
								"internalType": "uint8",
								"name": "marketInterval",
								"type": "uint8"
							},
							{
								"internalType": "uint8",
								"name": "transactionFee0",
								"type": "uint8"
							},
							{
								"internalType": "uint8",
								"name": "transactionFee1",
								"type": "uint8"
							},
							{
								"internalType": "uint8",
								"name": "transactionFeeSigner",
								"type": "uint8"
							},
							{
								"internalType": "address",
								"name": "feeTaker0",
								"type": "address"
							},
							{
								"internalType": "address",
								"name": "feeTaker1",
								"type": "address"
							},
							{
								"internalType": "int128[]",
								"name": "strikes",
								"type": "int128[]"
							}
						],
						"internalType": "struct DigiOptionsLib.MarketBaseData",
						"name": "marketBaseData",
						"type": "tuple"
					},
					{
						"internalType": "bool",
						"name": "testMarket",
						"type": "bool"
					},
					{
						"components": [
							{
								"internalType": "uint8",
								"name": "v",
								"type": "uint8"
							},
							{
								"internalType": "bytes32",
								"name": "r",
								"type": "bytes32"
							},
							{
								"internalType": "bytes32",
								"name": "s",
								"type": "bytes32"
							}
						],
						"internalType": "struct FactsignerVerify.Signature",
						"name": "signature",
						"type": "tuple"
					}
				],
				"name": "createMarket",
				"outputs": [
					{
						"internalType": "bytes32",
						"name": "marketHash",
						"type": "bytes32"
					}
				],
				"stateMutability": "nonpayable",
				"type": "function"
			},
			{
				"inputs": [
					{
						"internalType": "bytes32",
						"name": "marketHash",
						"type": "bytes32"
					},
					{
						"internalType": "address[]",
						"name": "users",
						"type": "address[]"
					},
					{
						"internalType": "bytes32[]",
						"name": "offerHash",
						"type": "bytes32[]"
					}
				],
				"name": "freeLiquidity",
				"outputs": [],
				"stateMutability": "nonpayable",
				"type": "function"
			},
			{
				"inputs": [],
				"name": "getContractInfo",
				"outputs": [
					{
						"internalType": "uint256[]",
						"name": "contractInfoValues",
						"type": "uint256[]"
					}
				],
				"stateMutability": "nonpayable",
				"type": "function"
			},
			{
				"inputs": [
					{
						"internalType": "bytes32",
						"name": "marketHash",
						"type": "bytes32"
					}
				],
				"name": "getLiquidityAndPositions",
				"outputs": [
					{
						"internalType": "uint256",
						"name": "liquidity",
						"type": "uint256"
					},
					{
						"components": [
							{
								"internalType": "int128",
								"name": "value",
								"type": "int128"
							},
							{
								"internalType": "uint8",
								"name": "rangeState",
								"type": "uint8"
							}
						],
						"internalType": "struct DigiOptionsMarkets.Position[]",
						"name": "positions",
						"type": "tuple[]"
					},
					{
						"internalType": "enum DigiOptionsLib.UserState",
						"name": "userState",
						"type": "uint8"
					}
				],
				"stateMutability": "view",
				"type": "function"
			},
			{
				"inputs": [
					{
						"internalType": "bytes32",
						"name": "marketHash",
						"type": "bytes32"
					}
				],
				"name": "getMarketBaseDataByMarketHash",
				"outputs": [
					{
						"components": [
							{
								"internalType": "string",
								"name": "underlyingString",
								"type": "string"
							},
							{
								"internalType": "uint40",
								"name": "expirationDatetime",
								"type": "uint40"
							},
							{
								"internalType": "uint24",
								"name": "objectionPeriod",
								"type": "uint24"
							},
							{
								"internalType": "uint8",
								"name": "config",
								"type": "uint8"
							},
							{
								"internalType": "uint8",
								"name": "marketCategory",
								"type": "uint8"
							},
							{
								"internalType": "uint8",
								"name": "baseUnitExp",
								"type": "uint8"
							},
							{
								"internalType": "int8",
								"name": "ndigit",
								"type": "int8"
							},
							{
								"internalType": "address",
								"name": "signerAddr",
								"type": "address"
							},
							{
								"internalType": "uint8",
								"name": "marketInterval",
								"type": "uint8"
							},
							{
								"internalType": "uint8",
								"name": "transactionFee0",
								"type": "uint8"
							},
							{
								"internalType": "uint8",
								"name": "transactionFee1",
								"type": "uint8"
							},
							{
								"internalType": "uint8",
								"name": "transactionFeeSigner",
								"type": "uint8"
							},
							{
								"internalType": "address",
								"name": "feeTaker0",
								"type": "address"
							},
							{
								"internalType": "address",
								"name": "feeTaker1",
								"type": "address"
							},
							{
								"internalType": "int128[]",
								"name": "strikes",
								"type": "int128[]"
							}
						],
						"internalType": "struct DigiOptionsLib.MarketBaseData",
						"name": "marketBaseData",
						"type": "tuple"
					}
				],
				"stateMutability": "view",
				"type": "function"
			},
			{
				"inputs": [
					{
						"internalType": "address",
						"name": "addr",
						"type": "address"
					},
					{
						"internalType": "bytes32",
						"name": "marketHash",
						"type": "bytes32"
					}
				],
				"name": "getMarketDataByMarketHash",
				"outputs": [
					{
						"components": [
							{
								"components": [
									{
										"internalType": "string",
										"name": "underlyingString",
										"type": "string"
									},
									{
										"internalType": "uint40",
										"name": "expirationDatetime",
										"type": "uint40"
									},
									{
										"internalType": "uint24",
										"name": "objectionPeriod",
										"type": "uint24"
									},
									{
										"internalType": "uint8",
										"name": "config",
										"type": "uint8"
									},
									{
										"internalType": "uint8",
										"name": "marketCategory",
										"type": "uint8"
									},
									{
										"internalType": "uint8",
										"name": "baseUnitExp",
										"type": "uint8"
									},
									{
										"internalType": "int8",
										"name": "ndigit",
										"type": "int8"
									},
									{
										"internalType": "address",
										"name": "signerAddr",
										"type": "address"
									},
									{
										"internalType": "uint8",
										"name": "marketInterval",
										"type": "uint8"
									},
									{
										"internalType": "uint8",
										"name": "transactionFee0",
										"type": "uint8"
									},
									{
										"internalType": "uint8",
										"name": "transactionFee1",
										"type": "uint8"
									},
									{
										"internalType": "uint8",
										"name": "transactionFeeSigner",
										"type": "uint8"
									},
									{
										"internalType": "address",
										"name": "feeTaker0",
										"type": "address"
									},
									{
										"internalType": "address",
										"name": "feeTaker1",
										"type": "address"
									},
									{
										"internalType": "int128[]",
										"name": "strikes",
										"type": "int128[]"
									}
								],
								"internalType": "struct DigiOptionsLib.MarketBaseData",
								"name": "marketBaseData",
								"type": "tuple"
							},
							{
								"components": [
									{
										"internalType": "uint128",
										"name": "fee",
										"type": "uint128"
									},
									{
										"internalType": "uint16",
										"name": "winningOptionID",
										"type": "uint16"
									},
									{
										"internalType": "bool",
										"name": "settled",
										"type": "bool"
									}
								],
								"internalType": "struct DigiOptionsLib.MarketState",
								"name": "marketState",
								"type": "tuple"
							},
							{
								"internalType": "bytes32",
								"name": "marketHash",
								"type": "bytes32"
							},
							{
								"internalType": "enum DigiOptionsLib.UserState",
								"name": "userState",
								"type": "uint8"
							},
							{
								"internalType": "bool",
								"name": "testMarket",
								"type": "bool"
							}
						],
						"internalType": "struct DigiOptionsLib.MarketData",
						"name": "marketData",
						"type": "tuple"
					}
				],
				"stateMutability": "view",
				"type": "function"
			},
			{
				"inputs": [
					{
						"internalType": "address",
						"name": "addr",
						"type": "address"
					},
					{
						"internalType": "bytes32[]",
						"name": "marketKeys",
						"type": "bytes32[]"
					}
				],
				"name": "getMarketDataListByMarketKeys",
				"outputs": [
					{
						"components": [
							{
								"components": [
									{
										"internalType": "string",
										"name": "underlyingString",
										"type": "string"
									},
									{
										"internalType": "uint40",
										"name": "expirationDatetime",
										"type": "uint40"
									},
									{
										"internalType": "uint24",
										"name": "objectionPeriod",
										"type": "uint24"
									},
									{
										"internalType": "uint8",
										"name": "config",
										"type": "uint8"
									},
									{
										"internalType": "uint8",
										"name": "marketCategory",
										"type": "uint8"
									},
									{
										"internalType": "uint8",
										"name": "baseUnitExp",
										"type": "uint8"
									},
									{
										"internalType": "int8",
										"name": "ndigit",
										"type": "int8"
									},
									{
										"internalType": "address",
										"name": "signerAddr",
										"type": "address"
									},
									{
										"internalType": "uint8",
										"name": "marketInterval",
										"type": "uint8"
									},
									{
										"internalType": "uint8",
										"name": "transactionFee0",
										"type": "uint8"
									},
									{
										"internalType": "uint8",
										"name": "transactionFee1",
										"type": "uint8"
									},
									{
										"internalType": "uint8",
										"name": "transactionFeeSigner",
										"type": "uint8"
									},
									{
										"internalType": "address",
										"name": "feeTaker0",
										"type": "address"
									},
									{
										"internalType": "address",
										"name": "feeTaker1",
										"type": "address"
									},
									{
										"internalType": "int128[]",
										"name": "strikes",
										"type": "int128[]"
									}
								],
								"internalType": "struct DigiOptionsLib.MarketBaseData",
								"name": "marketBaseData",
								"type": "tuple"
							},
							{
								"components": [
									{
										"internalType": "uint128",
										"name": "fee",
										"type": "uint128"
									},
									{
										"internalType": "uint16",
										"name": "winningOptionID",
										"type": "uint16"
									},
									{
										"internalType": "bool",
										"name": "settled",
										"type": "bool"
									}
								],
								"internalType": "struct DigiOptionsLib.MarketState",
								"name": "marketState",
								"type": "tuple"
							},
							{
								"internalType": "bytes32",
								"name": "marketHash",
								"type": "bytes32"
							},
							{
								"internalType": "enum DigiOptionsLib.UserState",
								"name": "userState",
								"type": "uint8"
							},
							{
								"internalType": "bool",
								"name": "testMarket",
								"type": "bool"
							}
						],
						"internalType": "struct DigiOptionsLib.MarketData[]",
						"name": "marketDataList",
						"type": "tuple[]"
					}
				],
				"stateMutability": "view",
				"type": "function"
			},
			{
				"inputs": [],
				"name": "liquidityAdd",
				"outputs": [],
				"stateMutability": "payable",
				"type": "function"
			},
			{
				"inputs": [],
				"name": "liquidityGet",
				"outputs": [
					{
						"internalType": "uint256",
						"name": "liquidity",
						"type": "uint256"
					}
				],
				"stateMutability": "view",
				"type": "function"
			},
			{
				"inputs": [
					{
						"internalType": "uint256",
						"name": "amount",
						"type": "uint256"
					}
				],
				"name": "liquidityWithdraw",
				"outputs": [],
				"stateMutability": "nonpayable",
				"type": "function"
			},
			{
				"inputs": [
					{
						"components": [
							{
								"components": [
									{
										"internalType": "bytes32",
										"name": "marketHash",
										"type": "bytes32"
									},
									{
										"internalType": "uint16",
										"name": "optionID",
										"type": "uint16"
									},
									{
										"internalType": "bool",
										"name": "buy",
										"type": "bool"
									},
									{
										"internalType": "uint256",
										"name": "pricePerOption",
										"type": "uint256"
									},
									{
										"internalType": "uint256",
										"name": "size",
										"type": "uint256"
									},
									{
										"internalType": "uint256",
										"name": "offerID",
										"type": "uint256"
									},
									{
										"internalType": "uint256",
										"name": "blockExpires",
										"type": "uint256"
									},
									{
										"internalType": "address",
										"name": "offerOwner",
										"type": "address"
									}
								],
								"internalType": "struct DigiOptionsMarkets.OrderOffer",
								"name": "orderOffer",
								"type": "tuple"
							},
							{
								"components": [
									{
										"internalType": "uint8",
										"name": "v",
										"type": "uint8"
									},
									{
										"internalType": "bytes32",
										"name": "r",
										"type": "bytes32"
									},
									{
										"internalType": "bytes32",
										"name": "s",
										"type": "bytes32"
									}
								],
								"internalType": "struct DigiOptionsLib.Signature",
								"name": "signature",
								"type": "tuple"
							}
						],
						"internalType": "struct DigiOptionsMarkets.OrderOfferSigned[]",
						"name": "orderOfferSignedList",
						"type": "tuple[]"
					},
					{
						"internalType": "uint256",
						"name": "sizeAcceptMax",
						"type": "uint256"
					}
				],
				"name": "orderExecute",
				"outputs": [],
				"stateMutability": "nonpayable",
				"type": "function"
			},
			{
				"inputs": [
					{
						"components": [
							{
								"components": [
									{
										"internalType": "bytes32",
										"name": "marketHash",
										"type": "bytes32"
									},
									{
										"internalType": "uint16",
										"name": "optionID",
										"type": "uint16"
									},
									{
										"internalType": "bool",
										"name": "buy",
										"type": "bool"
									},
									{
										"internalType": "uint256",
										"name": "pricePerOption",
										"type": "uint256"
									},
									{
										"internalType": "uint256",
										"name": "size",
										"type": "uint256"
									},
									{
										"internalType": "uint256",
										"name": "offerID",
										"type": "uint256"
									},
									{
										"internalType": "uint256",
										"name": "blockExpires",
										"type": "uint256"
									},
									{
										"internalType": "address",
										"name": "offerOwner",
										"type": "address"
									}
								],
								"internalType": "struct DigiOptionsMarkets.OrderOffer",
								"name": "orderOffer",
								"type": "tuple"
							},
							{
								"components": [
									{
										"internalType": "uint8",
										"name": "v",
										"type": "uint8"
									},
									{
										"internalType": "bytes32",
										"name": "r",
										"type": "bytes32"
									},
									{
										"internalType": "bytes32",
										"name": "s",
										"type": "bytes32"
									}
								],
								"internalType": "struct DigiOptionsLib.Signature",
								"name": "signature",
								"type": "tuple"
							}
						],
						"internalType": "struct DigiOptionsMarkets.OrderOfferSigned",
						"name": "orderOfferSigned",
						"type": "tuple"
					},
					{
						"internalType": "uint256",
						"name": "sizeAccept",
						"type": "uint256"
					}
				],
				"name": "orderExecuteTest",
				"outputs": [
					{
						"internalType": "uint256",
						"name": "sizeAcceptPossible",
						"type": "uint256"
					},
					{
						"internalType": "bytes32",
						"name": "offerHash",
						"type": "bytes32"
					},
					{
						"internalType": "int256",
						"name": "liquidityOfferOwner",
						"type": "int256"
					},
					{
						"internalType": "int256",
						"name": "liquidityOfferTaker",
						"type": "int256"
					},
					{
						"internalType": "uint256",
						"name": "transactionFeeAmount",
						"type": "uint256"
					}
				],
				"stateMutability": "view",
				"type": "function"
			},
			{
				"inputs": [
					{
						"internalType": "bytes32",
						"name": "marketHash",
						"type": "bytes32"
					},
					{
						"components": [
							{
								"internalType": "uint8",
								"name": "v",
								"type": "uint8"
							},
							{
								"internalType": "bytes32",
								"name": "r",
								"type": "bytes32"
							},
							{
								"internalType": "bytes32",
								"name": "s",
								"type": "bytes32"
							}
						],
						"internalType": "struct FactsignerVerify.Signature",
						"name": "signature",
						"type": "tuple"
					},
					{
						"internalType": "int256",
						"name": "value",
						"type": "int256"
					},
					{
						"internalType": "address[]",
						"name": "users",
						"type": "address[]"
					},
					{
						"internalType": "bytes32[]",
						"name": "offerHash",
						"type": "bytes32[]"
					}
				],
				"name": "settlement",
				"outputs": [],
				"stateMutability": "nonpayable",
				"type": "function"
			}
		],
		"evm": {
			"bytecode": {
				"linkReferences": {},
				"object": "0x608060405234801561001057600080fd5b50436001554260005561477f806100286000396000f3fe6080604052600436106100dd5760003560e01c80636f1dc3391161007f578063a1aa12b211610059578063a1aa12b214610253578063c70be14614610273578063d245a559146102a0578063ee1f69eb146102c0576100dd565b80636f1dc339146102145780637cc1f86714610229578063997402f21461024b576100dd565b806320185aa2116100bb57806320185aa214610169578063248a2954146101895780632556d8d0146101ba57806352d02688146101e7576100dd565b806305090e1a146100e2578063095200ce1461010457806319018bdb1461013a575b600080fd5b3480156100ee57600080fd5b506101026100fd3660046138a6565b6102ed565b005b34801561011057600080fd5b5061012461011f366004613b76565b61061b565b604051610131919061469e565b60405180910390f35b34801561014657600080fd5b5061015a61015536600461388e565b61062c565b604051610131939291906145d5565b34801561017557600080fd5b5061010261018436600461388e565b61098a565b34801561019557600080fd5b506101a96101a4366004613b4a565b610a88565b604051610131959493929190614646565b3480156101c657600080fd5b506101da6101d5366004613996565b610cfb565b60405161013191906142c8565b3480156101f357600080fd5b50610207610202366004613724565b6112bb565b6040516101319190614206565b34801561022057600080fd5b506101da61135f565b34801561023557600080fd5b5061023e611373565b6040516101319190614284565b61010261148e565b34801561025f57600080fd5b5061010261026e366004613910565b611505565b34801561027f57600080fd5b5061029361028e3660046137bc565b611be8565b60405161013191906145c2565b3480156102ac57600080fd5b506101026102bb3660046137e6565b611ef3565b3480156102cc57600080fd5b506102e06102db36600461388e565b611f37565b60405161013191906145af565b60008381526004602052604090206103036130c9565b506040805160608101825282546fffffffffffffffffffffffffffffffff81168252700100000000000000000000000000000000810461ffff1660208301819052720100000000000000000000000000000000000090910460ff16151592820183905290916001146103aa576040517f08c379a00000000000000000000000000000000000000000000000000000000081526004016103a190614328565b60405180910390fd5b6000805b86518210156106115760008783815181106103c557fe5b602002602001015190506002808111156103db57fe5b6103e5828861219e565b60028111156103f057fe5b14610605576103ff86826122c7565b73ffffffffffffffffffffffffffffffffffffffff82166000908152600688016020908152604080832061ffff89168452909152812054919350600f91820b90910b90610452828563ffffffff61235916565b73ffffffffffffffffffffffffffffffffffffffff8416600090815260068a016020908152604080832061ffff8b168452909152902080547fffffffffffffffffffffffffffffff00ffffffffffffffffffffffffffffffff16700200000000000000000000000000000000179055905061050e6104dc6104d783633b9aca006123b9565b612492565b73ffffffffffffffffffffffffffffffffffffffff85166000908152600360205260409020549063ffffffff6124a216565b73ffffffffffffffffffffffffffffffffffffffff841660009081526003602052604081209190915582126105a0578a8373ffffffffffffffffffffffffffffffffffffffff1660007f7881338eb26bc3f4eb2d539721ba87c61744a77ccef589c34a5ad54af21fadf2428a6009600a0a886000604051610593959493929190614677565b60405180910390a4610602565b8a60008473ffffffffffffffffffffffffffffffffffffffff167f7881338eb26bc3f4eb2d539721ba87c61744a77ccef589c34a5ad54af21fadf2428a6009600a0a8860000360006040516105f9959493929190614677565b60405180910390a45b50505b506001909101906103ae565b5050505050505050565b6000610626826124e1565b92915050565b600081815260046020526040812060609082906106476130e9565b81600101604051806101e0016040529081600082018054600181600116156101000203166002900480601f0160208091040260200160405190810160405280929190818152602001828054600181600116156101000203166002900480156106f05780601f106106c5576101008083540402835291602001916106f0565b820191906000526020600020905b8154815290600101906020018083116106d357829003601f168201915b5050509183525050600182015464ffffffffff811660208084019190915262ffffff6501000000000083041660408085019190915260ff6801000000000000000084048116606086015269010000000000000000008404811660808601526a01000000000000000000008404811660a08601526b0100000000000000000000008404600090810b810b900b60c086015273ffffffffffffffffffffffffffffffffffffffff6c01000000000000000000000000909404841660e0860152600286015480821661010080880191909152810482166101208701526201000081048216610140870152630100000081049091166101608601526401000000009004831661018085015260038501549092166101a08401526004840180548351818402810184019094528084526101c090940193909183018282801561087857602002820191906000526020600020906000905b82829054906101000a9004600f0b600f0b81526020019060100190602082600f010492830192600103820291508084116108415790505b5050505050815250509050806101c001515160010167ffffffffffffffff811180156108a357600080fd5b506040519080825280602002602001820160405280156108dd57816020015b6108ca613167565b8152602001906001900390816108c25790505b50935060005b816101c0015151811161095d573360009081526006840160209081526040808320848452825291829020825180840190935254600f81810b810b900b8352700100000000000000000000000000000000900460ff1690820152855186908390811061094a57fe5b60209081029190910101526001016108e3565b503360008181526003602052604090205490859061097b908561219e565b94509450945050509193909250565b336000908152600360205260409020548111156109d3576040517f08c379a00000000000000000000000000000000000000000000000000000000081526004016103a19061451b565b336000908152600360205260409020546109f3908263ffffffff6125a216565b33600081815260036020526040808220939093559151909183156108fc02918491818181858888f19350505050158015610a31573d6000803e3d6000fd5b503373ffffffffffffffffffffffffffffffffffffffff167f6e2eec282b5765f3a053054d83d425d0e03e1003bb2740d41c1fce6d4a0d74f74283600003604051610a7d929190614669565b60405180910390a250565b6000806000806000610a9861317e565b5086518051600090815260046020908152604091829020835182850151848601516060870151608088015160a089015160c08a015160e08b015199519799610ae299309901613ebb565b6040516020818303038152906040528051906020012095508160e0015173ffffffffffffffffffffffffffffffffffffffff16610b23878b602001516125e4565b73ffffffffffffffffffffffffffffffffffffffff1614610b475760009750610b9b565b60808201516000878152600783016020526040902054610b6d908a63ffffffff6124a216565b1115610b9b5760008681526007820160205260409020546080830151610b989163ffffffff6125a216565b97505b6000610bb483606001518a6126cc90919063ffffffff16565b6003830154909150610c1890610bfa9060ff63010000008204811691610bee9161010082048116916201000090041663ffffffff6124a216565b9063ffffffff6124a216565b610c0c8361271063ffffffff61272016565b9063ffffffff6126cc16565b9350610c30828460400151858660e001518d86612762565b9550610c5d610c3e8561285a565b610c518486604001511587338f88612762565b9063ffffffff61235916565b6005830154602085015191965061ffff90911611801590610c8257508260c001514311155b8015610ca2575060c0830151610c9f43600c63ffffffff6124a216565b10155b8015610cc8575060e083015173ffffffffffffffffffffffffffffffffffffffff163314155b8015610cd5575060008612155b8015610ce2575060008512155b610ceb57600098505b5087965050509295509295909350565b6000836020015164ffffffffff1660001415610d1357fe5b6000610d1e85612885565b90508460e0015173ffffffffffffffffffffffffffffffffffffffff16610d45828561295c565b73ffffffffffffffffffffffffffffffffffffffff1614610d92576040517f08c379a00000000000000000000000000000000000000000000000000000000081526004016103a19061435f565b610d9b856129a7565b60008181526004602052604090206002015490925064ffffffffff16159050610dc3576112b4565b8360a0015160ff16601214610dd457fe5b6040846080015160ff1610610de557fe5b606084015160009060011615610eeb576000856101c001515111610e0557fe5b617ffd856101c001515110610e1657fe5b5060015b846101c0015151811015610e7257846101c001518181518110610e3957fe5b6020026020010151600f0b856101c001516001830381518110610e5857fe5b6020026020010151600f0b12610e6a57fe5b600101610e1a565b8460c0015160000b8560a0015160ff1660010b1215610e8d57fe5b5060005b846101c0015151811015610ee6578460c0015160000b8560a0015160ff1603600a0a856101c001518281518110610ec457fe5b6020026020010151600f0b81610ed657fe5b0715610ede57fe5b600101610e91565b610f0d565b6001856101c001515111610efb57fe5b617ffd856101c00151511115610f0d57fe5b6020856080015160ff1610610f1e57fe5b6000856080015160080260ff1686610100015160ff166001901b901b9050806002541660001415610f525760028054821790555b6000610f6187602001516124e1565b606088015190915060041615610f8a578060ff1687610100015160ff1614610f8557fe5b610f9a565b61010087015160ff1615610f9a57fe5b6000848152600460209081526040909120885180518a93600190930192610fc59284929101906131c2565b5060208201518160010160006101000a81548164ffffffffff021916908364ffffffffff16021790555060408201518160010160056101000a81548162ffffff021916908362ffffff16021790555060608201518160010160086101000a81548160ff021916908360ff16021790555060808201518160010160096101000a81548160ff021916908360ff16021790555060a082015181600101600a6101000a81548160ff021916908360ff16021790555060c082015181600101600b6101000a81548160ff021916908360000b60ff16021790555060e082015181600101600c6101000a81548173ffffffffffffffffffffffffffffffffffffffff021916908373ffffffffffffffffffffffffffffffffffffffff1602179055506101008201518160020160006101000a81548160ff021916908360ff1602179055506101208201518160020160016101000a81548160ff021916908360ff1602179055506101408201518160020160026101000a81548160ff021916908360ff1602179055506101608201518160020160036101000a81548160ff021916908360ff1602179055506101808201518160020160046101000a81548173ffffffffffffffffffffffffffffffffffffffff021916908373ffffffffffffffffffffffffffffffffffffffff1602179055506101a08201518160030160006101000a81548173ffffffffffffffffffffffffffffffffffffffff021916908373ffffffffffffffffffffffffffffffffffffffff1602179055506101c082015181600401908051906020019061121792919061323c565b50905050866080015160ff1687610100015160ff168260ff16600861123e8560ff16612a7e565b65ffffffffffff168b6020015164ffffffffff168161125957fe5b0465ffffffffffff16901b0165ffffffffffff167f13d334f612c6e3d949b7da4336e52487cdf7e8b324884e285aaca45027505860878b602001518c600001516040516112a8939291906142d1565b60405180910390a45050505b9392505050565b60608167ffffffffffffffff811180156112d457600080fd5b5060405190808252806020026020018201604052801561130e57816020015b6112fb61330e565b8152602001906001900390816112f35790505b50905060005b82811015611357576113388585858481811061132c57fe5b90506020020135611be8565b82828151811061134457fe5b6020908102919091010152600101611314565b509392505050565b336000908152600360205260409020545b90565b604080516009808252610140820190925260609182919060208201610120803683370190505090506001816000815181106113aa57fe5b60209081029190910101526000816001815181106113c457fe5b602090810291909101015262340000816002815181106113e057fe5b602090810291909101015230816003815181106113f957fe5b60209081029190910101526001548160048151811061141457fe5b60209081029190910101526000548160058151811061142f57fe5b6020908102919091010152600c8160068151811061144957fe5b602090810291909101015260098160078151811061146357fe5b60209081029190910101526002548160088151811061147e57fe5b6020908102919091010152905090565b341561150357336000908152600360205260409020546114b4903463ffffffff6124a216565b33600081815260036020526040908190209290925590517f6e2eec282b5765f3a053054d83d425d0e03e1003bb2740d41c1fce6d4a0d74f7906114fa9042903490614669565b60405180910390a25b565b60008581526004602090815260409182902060028082015484516001808501805461010092811615929092027fffffffffffffffffffffffffffffffffffffffffffffffffffffffffffffffff0190911693909304601f810186900490950281016102009081019096526101e0810185815293956c0100000000000000000000000090920473ffffffffffffffffffffffffffffffffffffffff16946117c794611796949293849284918401828280156116005780601f106115d557610100808354040283529160200191611600565b820191906000526020600020905b8154815290600101906020018083116115e357829003601f168201915b5050509183525050600182015464ffffffffff811660208084019190915262ffffff6501000000000083041660408085019190915260ff6801000000000000000084048116606086015269010000000000000000008404811660808601526a01000000000000000000008404811660a08601526b0100000000000000000000008404600090810b810b900b60c086015273ffffffffffffffffffffffffffffffffffffffff6c01000000000000000000000000909404841660e0860152600286015480821661010080880191909152810482166101208701526201000081048216610140870152630100000081049091166101608601526401000000009004831661018085015260038501549092166101a08401526004840180548351818402810184019094528084526101c090940193909183018282801561178857602002820191906000526020600020906000905b82829054906101000a9004600f0b600f0b81526020019060100190602082600f010492830192600103820291508084116117515790505b505050505081525050612885565b8660006040516020016117ab93929190613f4f565b604051602081830303815290604052805190602001208761295c565b73ffffffffffffffffffffffffffffffffffffffff1614611814576040517f08c379a00000000000000000000000000000000000000000000000000000000081526004016103a19061435f565b80547201000000000000000000000000000000000000900460ff161561183a5750611be1565b600080600160028401546801000000000000000090041660ff16156118c1575050600581015460005b60058301548110156118bc576005830180548290811061187f57fe5b90600052602060002090600291828204019190066010029054906101000a9004600f0b600f0b8612156118b4578091506118bc565b600101611863565b611921565b5060009050805b600583015481101561192157600583018054829081106118e457fe5b90600052602060002090600291828204019190066010029054906101000a9004600f0b600f0b86141561191957809150611921565b6001016118c8565b825472010000000000000000000000000000000000007fffffffffffffffffffffffffffff0000ffffffffffffffffffffffffffffffff90911670010000000000000000000000000000000061ffff851602177fffffffffffffffffffffffffff00ffffffffffffffffffffffffffffffffffff1617835560038301546000906119c99060ff63010000008204811691610bee916101008204811691620100009004166124a2565b845490915060009082906fffffffffffffffffffffffffffffffff16816119ec57fe5b60038701549190049150611a4790611a0d908390610100900460ff166126cc565b600387810154640100000000900473ffffffffffffffffffffffffffffffffffffffff1660009081526020919091526040902054906124a2565b60038681018054640100000000900473ffffffffffffffffffffffffffffffffffffffff16600090815260209290925260409091209190915554611acf90611a9990839062010000900460ff166126cc565b600487015473ffffffffffffffffffffffffffffffffffffffff166000908152600360205260409020549063ffffffff6124a216565b600486015473ffffffffffffffffffffffffffffffffffffffff16600090815260036020819052604090912091909155850154611b5b90611b1b9083906301000000900460ff166126cc565b60028701546c01000000000000000000000000900473ffffffffffffffffffffffffffffffffffffffff16600090815260036020526040902054906124a2565b60028601546c01000000000000000000000000900473ffffffffffffffffffffffffffffffffffffffff166000908152600360205260409081902091909155517fbc368577aa675ea916e9069e5c84c091ab02483dcc1a83cda5f0124b39b0f2e990611bc8908c906142c8565b60405180910390a1611bdb8a88886102ed565b50505050505b5050505050565b611bf061330e565b6000828152600460205260409020611c066130e9565b81600101604051806101e0016040529081600082018054600181600116156101000203166002900480601f016020809104026020016040519081016040528092919081815260200182805460018160011615610100020316600290048015611caf5780601f10611c8457610100808354040283529160200191611caf565b820191906000526020600020905b815481529060010190602001808311611c9257829003601f168201915b5050509183525050600182015464ffffffffff811660208084019190915262ffffff6501000000000083041660408085019190915260ff6801000000000000000084048116606086015269010000000000000000008404811660808601526a01000000000000000000008404811660a08601526b0100000000000000000000008404600090810b810b900b60c086015273ffffffffffffffffffffffffffffffffffffffff6c01000000000000000000000000909404841660e0860152600286015480821661010080880191909152810482166101208701526201000081048216610140870152630100000081049091166101608601526401000000009004831661018085015260038501549092166101a08401526004840180548351818402810184019094528084526101c0909401939091830182828015611e3757602002820191906000526020600020906000905b82829054906101000a9004600f0b600f0b81526020019060100190602082600f01049283019260010382029150808411611e005790505b5050505050815250509050611e4a6130c9565b50604080516060808201835284546fffffffffffffffffffffffffffffffff81168352700100000000000000000000000000000000810461ffff16602080850191909152720100000000000000000000000000000000000090910460ff16151583850152835160a0810185528581529081018390529283018790529091908101611ed4888661219e565b6002811115611edf57fe5b815260006020909101529695505050505050565b611efb613349565b60005b8351811015611f3157838181518110611f1357fe5b60200260200101519150611f278284612aac565b9250600101611efe565b50505050565b611f3f6130e9565b600082815260046020908152604091829020825160018083018054600292811615610100027fffffffffffffffffffffffffffffffffffffffffffffffffffffffffffffffff011691909104601f810185900490940282016102009081019095526101e082018481529294919390928492909184918401828280156120055780601f10611fda57610100808354040283529160200191612005565b820191906000526020600020905b815481529060010190602001808311611fe857829003601f168201915b5050509183525050600182015464ffffffffff811660208084019190915262ffffff6501000000000083041660408085019190915260ff6801000000000000000084048116606086015269010000000000000000008404811660808601526a01000000000000000000008404811660a08601526b0100000000000000000000008404600090810b810b900b60c086015273ffffffffffffffffffffffffffffffffffffffff6c01000000000000000000000000909404841660e0860152600286015480821661010080880191909152810482166101208701526201000081048216610140870152630100000081049091166101608601526401000000009004831661018085015260038501549092166101a08401526004840180548351818402810184019094528084526101c090940193909183018282801561218d57602002820191906000526020600020906000905b82829054906101000a9004600f0b600f0b81526020019060100190602082600f010492830192600103820291508084116121565790505b505050505081525050915050919050565b73ffffffffffffffffffffffffffffffffffffffff82166000908152600682016020526040812082547201000000000000000000000000000000000000900460ff1615612270576121ed613167565b5082547001000000000000000000000000000000009081900461ffff1660009081526020838152604091829020825180840190935254600f81810b810b900b83529290920460ff16918101829052906002148061225e5750602081015160ff16600114801561225e57508051600f0b155b1561226e57600292505050610626565b505b60005b600584015481116122bc57600081815260208390526040902054700100000000000000000000000000000000900460ff16156122b457600192505050610626565b600101612273565b506000949350505050565b600582015473ffffffffffffffffffffffffffffffffffffffff82166000908152600684016020526040812090917f7fffffffffffffffffffffffffffffffffffffffffffffffffffffffffffffff9183805b83811161234d57600081815260208490526040902054600f90810b900b915084821215612345578194505b60010161231a565b50929695505050505050565b600081830381831280159061236e5750838113155b80612383575060008312801561238357508381135b6112b4576040517f08c379a00000000000000000000000000000000000000000000000000000000081526004016103a190614552565b6000826123c857506000610626565b827fffffffffffffffffffffffffffffffffffffffffffffffffffffffffffffffff14801561241657507f800000000000000000000000000000000000000000000000000000000000000082145b1561244d576040517f08c379a00000000000000000000000000000000000000000000000000000000081526004016103a1906144be565b8282028284828161245a57fe5b05146112b4576040517f08c379a00000000000000000000000000000000000000000000000000000000081526004016103a1906144be565b60008082121561249e57fe5b5090565b6000828201838110156112b4576040517f08c379a00000000000000000000000000000000000000000000000000000000081526004016103a1906143cd565b600080806124fc64ffffffffff85164263ffffffff6125a216565b90506303c26700811061253b576040517f08c379a00000000000000000000000000000000000000000000000000000000081526004016103a190614396565b623b53808111156125505760015b915061259b565b620a8c00811115612562576003612549565b6201fa40811115612574576004612549565b611c20811115612585576005612549565b610384811115612596576006612549565b600791505b5092915050565b60006112b483836040518060400160405280601e81526020017f536166654d6174683a207375627472616374696f6e206f766572666c6f770000815250612ee0565b6000806040518060400160405280601c81526020017f19457468657265756d205369676e6564204d6573736167653a0a3332000000008152508460405160200161262f929190614158565b60405160208183030381529060405280519060200120905060006001828560000151866020015187604001516040516000815260200160405260405161267894939291906142f7565b6020604051602081039080840390855afa15801561269a573d6000803e3d6000fd5b50506040517fffffffffffffffffffffffffffffffffffffffffffffffffffffffffffffffe001519695505050505050565b6000826126db57506000610626565b828202828482816126e857fe5b04146112b4576040517f08c379a00000000000000000000000000000000000000000000000000000000081526004016103a190614461565b60006112b483836040518060400160405280601a81526020017f536166654d6174683a206469766973696f6e206279207a65726f000000000000815250612f26565b73ffffffffffffffffffffffffffffffffffffffff831660009081526003602052604081205481906127939061285a565b90506000876127d8576127b56127a88561285a565b839063ffffffff612f7716565b91506127d16127c38661285a565b60009063ffffffff61235916565b90506127ff565b6127f16127e48561285a565b839063ffffffff61235916565b91506127fc8561285a565b90505b6000806128128b898b6020015186612fd7565b909250905061284b61283e633b9aca00612832848663ffffffff61235916565b9063ffffffff6123b916565b859063ffffffff612f7716565b9b9a5050505050505050505050565b60007f8000000000000000000000000000000000000000000000000000000000000000821061249e57fe5b60006060826000015160405160200161289e91906141ea565b6040516020818303038152906040528051906020012083602001518460400151856060015186608001518760a001518860c001516040516020016128e89796959493929190613f8a565b604080518083037fffffffffffffffffffffffffffffffffffffffffffffffffffffffffffffffe0018152919052606084015190915060011661294e576101c083015160405161293c918391602001614131565b60405160208183030381529060405290505b805160209091012092915050565b6000806040518060400160405280601e81526020017f19466163747369676e6572205369676e6564204d6573736167653a0a333200008152508460405160200161262f929190614158565b6000606082600001516040516020016129c091906141ea565b6040516020818303038152906040528051906020012083602001518460400151856060015186608001518760a001518860c001518961010001518a61018001518b6101a001518c60e00151604051602001612a259b9a9998979695949392919061403d565b604080517fffffffffffffffffffffffffffffffffffffffffffffffffffffffffffffffe0818403018152908290526101208501516101408601516101608701516101c088015193955061293c9486949060200161417a565b600060606040518060600160405280602a8152602001614720602a9139600184016006020151915050919050565b6000612ab661317e565b5082518051600090815260046020526040808220908301518291908290819015612ae757505060e084015133612af1565b505060e084015133905b6000806000612b008c8c610a88565b929b509299509450909250905086612b23578a9950505050505050505050610626565b612b2c83612492565b60e08a015173ffffffffffffffffffffffffffffffffffffffff16600090815260036020526040902055612b5f82612492565b336000908152600360205260409020558554612b9c90612b97906fffffffffffffffffffffffffffffffff168363ffffffff6124a216565b61309e565b86547fffffffffffffffffffffffffffffffff00000000000000000000000000000000166fffffffffffffffffffffffffffffffff91909116178655612be0613167565b5073ffffffffffffffffffffffffffffffffffffffff8516600090815260068701602090815260408083208c83015161ffff16845280835292819020815180830190925254600f90810b810b810b808352600193830193909352909291612c5891612c5391900b8b63ffffffff612f7716565b6130bb565b600f90810b810b835260208c8101805161ffff9081166000908152948352604080862087518154988601517fffffffffffffffffffffffffffffffff000000000000000000000000000000009099166fffffffffffffffffffffffffffffffff91880b91909116177fffffffffffffffffffffffffffffff00ffffffffffffffffffffffffffffffff1670010000000000000000000000000000000060ff998a1681029190911790915573ffffffffffffffffffffffffffffffffffffffff8c16875260068e018552818720935190921686528284529485902085518087019096525480850b850b850b808752919004909516918401919091529192612d6491612c5391900b8b612359565b600f90810b810b8352600160208085019182528d81015161ffff166000908152938152604080852095518654935160ff16700100000000000000000000000000000000027fffffffffffffffffffffffffffffff00ffffffffffffffffffffffffffffffff9190950b6fffffffffffffffffffffffffffffffff167fffffffffffffffffffffffffffffffff000000000000000000000000000000009094169390931792909216929092179093558a82526007890190522054612e2d908863ffffffff6124a216565b8660070160008a81526020019081526020016000208190555088600001518473ffffffffffffffffffffffffffffffffffffffff168673ffffffffffffffffffffffffffffffffffffffff167f7881338eb26bc3f4eb2d539721ba87c61744a77ccef589c34a5ad54af21fadf2428d602001518e606001518d8f604051612eb8959493929190614677565b60405180910390a4612ed08b8863ffffffff6125a216565b9c9b505050505050505050505050565b60008184841115612f1e576040517f08c379a00000000000000000000000000000000000000000000000000000000081526004016103a19190614315565b505050900390565b60008183612f61576040517f08c379a00000000000000000000000000000000000000000000000000000000081526004016103a19190614315565b506000838581612f6d57fe5b0495945050505050565b6000828201818312801590612f8c5750838112155b80612fa15750600083128015612fa157508381125b6112b4576040517f08c379a00000000000000000000000000000000000000000000000000000000081526004016103a190614404565b600584015473ffffffffffffffffffffffffffffffffffffffff841660009081526006860160205260408120909182917f7fffffffffffffffffffffffffffffffffffffffffffffffffffffffffffffff91829184805b83811161308c57600081815260208490526040902054600f90810b900b915085821215613059578195505b8961ffff1681141561307857613075828a63ffffffff612f7716565b91505b84821215613084578194505b60010161302e565b50939a92995091975050505050505050565b600081826fffffffffffffffffffffffffffffffff161461249e57fe5b60008182600f0b1461249e57fe5b604080516060810182526000808252602082018190529181019190915290565b604080516101e08101825260608082526000602083018190529282018390528082018390526080820183905260a0820183905260c0820183905260e08201839052610100820183905261012082018390526101408201839052610160820183905261018082018390526101a08201929092526101c081019190915290565b604080518082019091526000808252602082015290565b6040805161010081018252600080825260208201819052918101829052606081018290526080810182905260a0810182905260c0810182905260e081019190915290565b828054600181600116156101000203166002900490600052602060002090601f016020900481019282601f1061320357805160ff1916838001178555613230565b82800160010185558215613230579182015b82811115613230578251825591602001919060010190613215565b5061249e92915061336e565b828054828255906000526020600020906001016002900481019282156133025791602002820160005b838211156132c457835183826101000a8154816fffffffffffffffffffffffffffffffff0219169083600f0b6fffffffffffffffffffffffffffffffff1602179055509260200192601001602081600f01049283019260010302613265565b80156133005782816101000a8154906fffffffffffffffffffffffffffffffff0219169055601001602081600f010492830192600103026132c4565b505b5061249e929150613388565b6040518060a001604052806133216130e9565b815260200161332e6130c9565b81526000602082018190526040820181905260609091015290565b604051806040016040528061335c61317e565b81526020016133696130c9565b905290565b61137091905b8082111561249e5760008155600101613374565b61137091905b8082111561249e5780547fffffffffffffffffffffffffffffffff0000000000000000000000000000000016815560010161338e565b803573ffffffffffffffffffffffffffffffffffffffff8116811461062657600080fd5b600082601f8301126133f8578081fd5b813561340b613406826146d3565b6146ac565b81815291506020808301908481018184028601820187101561342c57600080fd5b60005b848110156134535761344188836133c4565b8452928201929082019060010161342f565b505050505092915050565b600082601f83011261346e578081fd5b813561347c613406826146d3565b81815291506020808301908481018184028601820187101561349d57600080fd5b60005b84811015613453578135845292820192908201906001016134a0565b600082601f8301126134cc578081fd5b81356134da613406826146d3565b8181529150602080830190848101818402860182018710156134fb57600080fd5b6000805b8581101561352957823580600f0b8114613517578283fd5b855293830193918301916001016134ff565b50505050505092915050565b8035801515811461062657600080fd5b8035600081900b811461062657600080fd5b600082601f830112613567578081fd5b813567ffffffffffffffff81111561357d578182fd5b6135ae60207fffffffffffffffffffffffffffffffffffffffffffffffffffffffffffffffe0601f840116016146ac565b91508082528360208285010111156135c557600080fd5b8060208401602084013760009082016020015292915050565b60008183036101608112156135f1578182fd5b6135fb60406146ac565b91506101008082121561360d57600080fd5b613616816146ac565b91508335825261362985602086016136d9565b602083015261363b8560408601613535565b6040830152606084013560608301526080840135608083015260a084013560a083015260c084013560c08301526136758560e086016133c4565b60e083015281835261368985828601613696565b6020840152505092915050565b6000606082840312156136a7578081fd5b6136b160606146ac565b90506136bd8383613713565b8152602082013560208201526040820135604082015292915050565b803561ffff8116811461062657600080fd5b803562ffffff8116811461062657600080fd5b803564ffffffffff8116811461062657600080fd5b803560ff8116811461062657600080fd5b600080600060408486031215613738578283fd5b833573ffffffffffffffffffffffffffffffffffffffff8116811461375b578384fd5b9250602084013567ffffffffffffffff80821115613777578384fd5b81860187601f820112613788578485fd5b8035925081831115613798578485fd5b87602080850283010111156137ab578485fd5b949760209095019650909450505050565b600080604083850312156137ce578182fd5b6137d884846133c4565b946020939093013593505050565b600080604083850312156137f8578182fd5b823567ffffffffffffffff81111561380e578283fd5b80840185601f82011261381f578384fd5b8035915061382f613406836146d3565b80838252602080830192508084016101608a838289028801011115613852578889fd5b8895505b8686101561387e576138688b836135de565b8552600195909501949382019390810190613856565b5091999701359750505050505050565b60006020828403121561389f578081fd5b5035919050565b6000806000606084860312156138ba578081fd5b83359250602084013567ffffffffffffffff808211156138d8578283fd5b6138e4878388016133e8565b935060408601359150808211156138f9578283fd5b506139068682870161345e565b9150509250925092565b600080600080600060e08688031215613927578283fd5b853594506139388760208801613696565b93506080860135925060a086013567ffffffffffffffff8082111561395b578283fd5b61396789838a016133e8565b935060c088013591508082111561397c578283fd5b506139898882890161345e565b9150509295509295909350565b600080600060a084860312156139aa578081fd5b833567ffffffffffffffff808211156139c1578283fd5b6101e09186018088038313156139d5578384fd5b6139de836146ac565b81359350828411156139ee578485fd5b6139fa89858401613557565b8152613a0989602084016136fe565b6020820152613a1b89604084016136eb565b6040820152613a2d8960608401613713565b6060820152613a3f8960808401613713565b6080820152613a518960a08401613713565b60a0820152613a638960c08401613545565b60c0820152613a758960e084016133c4565b60e08201526101009350613a8b89858401613713565b848201526101209350613aa089858401613713565b848201526101409350613ab589858401613713565b848201526101609350613aca89858401613713565b848201526101809350613adf898584016133c4565b848201526101a09350613af4898584016133c4565b848201526101c093508382013583811115613b0d578586fd5b613b198a8285016134bc565b858301525080965050505050613b328560208601613535565b9150613b418560408601613696565b90509250925092565b6000806101808385031215613b5d578182fd5b613b6784846135de565b94610160939093013593505050565b600060208284031215613b87578081fd5b813564ffffffffff811681146112b4578182fd5b73ffffffffffffffffffffffffffffffffffffffff169052565b60601b7fffffffffffffffffffffffffffffffffffffffff000000000000000000000000169052565b6000815180845260208085019450808401835b83811015613c10578151600f0b87529582019590820190600101613bf1565b509495945050505050565b80516000906020808401838315613c10578151600f0b87529582019590820190600101613bf1565b60000b9052565b60000b60f81b9052565b60008151808452613c6c8160208601602086016146f3565b601f017fffffffffffffffffffffffffffffffffffffffffffffffffffffffffffffffe0169290920160200192915050565b60006101e08251818552613cb482860182613c54565b60208501519250613cc86020870184613e80565b60408501519250613cdc6040870184613e77565b60608501519250613cf06060870184613e8b565b60808501519250613d046080870184613e8b565b60a08501519250613d1860a0870184613e8b565b60c08501519250613d2c60c0870184613c43565b60e08501519250613d4060e0870184613b9b565b6101009250828501519150613d5783870183613e8b565b6101209250828501519150613d6e83870183613e8b565b6101409250828501519150613d8583870183613e8b565b6101609250828501519150613d9c83870183613e8b565b6101809250828501519150613db383870183613b9b565b6101a09250828501519150613dca83870183613b9b565b6101c0925082850151915085810383870152613de68183613bde565b9695505050505050565b6000815160e08452613e0560e0850182613c9e565b602084015191506fffffffffffffffffffffffffffffffff825116602086015261ffff6020830151166040860152604082015115156060860152604084015160808601526060840151915060038210613e5a57fe5b8160a08601526080840151151560c0860152809250505092915050565b62ffffff169052565b64ffffffffff169052565b60ff169052565b60f81b7fff00000000000000000000000000000000000000000000000000000000000000169052565b6060998a1b7fffffffffffffffffffffffffffffffffffffffff0000000000000000000000009081168252601482019990995260f09790971b7fffff00000000000000000000000000000000000000000000000000000000000016603488015294151560f81b6036870152603786019390935260578501919091526077840152609783015290921b1660b782015260cb0190565b928352602083019190915260f01b7fffff00000000000000000000000000000000000000000000000000000000000016604082015260420190565b96875260d89590951b7fffffffffff00000000000000000000000000000000000000000000000000000016602087015260e89390931b7fffffff000000000000000000000000000000000000000000000000000000000016602586015260f891821b7fff00000000000000000000000000000000000000000000000000000000000000908116602887015290821b8116602986015291811b909116602a84015260009190910b901b602b820152602c0190565b60008c82527fffffffffff0000000000000000000000000000000000000000000000000000008c60d81b1660208301527fffffff00000000000000000000000000000000000000000000000000000000008b60e81b1660258301527fff00000000000000000000000000000000000000000000000000000000000000808b60f81b166028840152808a60f81b166029840152506140dd602a830189613e92565b6140ea602b830188613c4a565b6140f7602c830187613e92565b614104602d830186613bb5565b6141116041830185613bb5565b61411e6055830184613bb5565b506069019b9a5050505050505050505050565b600083516141438184602088016146f3565b61414f81840185613c1b565b95945050505050565b6000835161416a8184602088016146f3565b9190910191825250602001919050565b6000865161418c818460208b016146f3565b8083017fff000000000000000000000000000000000000000000000000000000000000009150818860f81b168152818760f81b166001820152818660f81b1660028201526141dd6003820186613c1b565b9998505050505050505050565b600082516141fc8184602087016146f3565b9190910192915050565b6000602080830181845280855180835260408601915060408482028701019250838701855b82811015614277577fffffffffffffffffffffffffffffffffffffffffffffffffffffffffffffffc0888603018452614265858351613df0565b9450928501929085019060010161422b565b5092979650505050505050565b6020808252825182820181905260009190848201906040850190845b818110156142bc578351835292840192918401916001016142a0565b50909695505050505050565b90815260200190565b600084825264ffffffffff841660208301526060604083015261414f6060830184613c54565b93845260ff9290921660208401526040830152606082015260800190565b6000602082526112b46020830184613c54565b60208082526017908201527f4d61726b6574206e6f742079657420736574746c65642e000000000000000000604082015260600190565b60208082526012908201527f5369676e617475726520696e76616c69642e0000000000000000000000000000604082015260600190565b60208082526015908201527f746f6f2066617220696e20746865206675747572650000000000000000000000604082015260600190565b6020808252601b908201527f536166654d6174683a206164646974696f6e206f766572666c6f770000000000604082015260600190565b60208082526021908201527f5369676e6564536166654d6174683a206164646974696f6e206f766572666c6f60408201527f7700000000000000000000000000000000000000000000000000000000000000606082015260800190565b60208082526021908201527f536166654d6174683a206d756c7469706c69636174696f6e206f766572666c6f60408201527f7700000000000000000000000000000000000000000000000000000000000000606082015260800190565b60208082526027908201527f5369676e6564536166654d6174683a206d756c7469706c69636174696f6e206f60408201527f766572666c6f7700000000000000000000000000000000000000000000000000606082015260800190565b60208082526015908201527f4e6f7420656e6f756768206c69717569646974792e0000000000000000000000604082015260600190565b60208082526024908201527f5369676e6564536166654d6174683a207375627472616374696f6e206f76657260408201527f666c6f7700000000000000000000000000000000000000000000000000000000606082015260800190565b6000602082526112b46020830184613c9e565b6000602082526112b46020830184613df0565b60006060820185835260206060818501528186518084526080860191508288019350845b818110156146265784518051600f0b845284015160ff1684840152938301936040909201916001016145f9565b50508093505050506003831061463857fe5b826040830152949350505050565b948552602085019390935260408401919091526060830152608082015260a00190565b918252602082015260400190565b94855261ffff93909316602085015260408401919091526060830152608082015260a00190565b60ff91909116815260200190565b60405181810167ffffffffffffffff811182821017156146cb57600080fd5b604052919050565b600067ffffffffffffffff8211156146e9578081fd5b5060209081020190565b60005b8381101561470e5781810151838201526020016146f6565b83811115611f31575050600091015256fe000000000000000000fa7d000000003b53800000000a8c0000000001fa40000000001c20000000000000a264697066735822122074d4ff7ab59b69940527acdc032f6b8c523b4919c694751d3f4d6fbfb39bf50b64736f6c63430006050033",
				"opcodes": "PUSH1 0x80 PUSH1 0x40 MSTORE CALLVALUE DUP1 ISZERO PUSH2 0x10 JUMPI PUSH1 0x0 DUP1 REVERT JUMPDEST POP NUMBER PUSH1 0x1 SSTORE TIMESTAMP PUSH1 0x0 SSTORE PUSH2 0x477F DUP1 PUSH2 0x28 PUSH1 0x0 CODECOPY PUSH1 0x0 RETURN INVALID PUSH1 0x80 PUSH1 0x40 MSTORE PUSH1 0x4 CALLDATASIZE LT PUSH2 0xDD JUMPI PUSH1 0x0 CALLDATALOAD PUSH1 0xE0 SHR DUP1 PUSH4 0x6F1DC339 GT PUSH2 0x7F JUMPI DUP1 PUSH4 0xA1AA12B2 GT PUSH2 0x59 JUMPI DUP1 PUSH4 0xA1AA12B2 EQ PUSH2 0x253 JUMPI DUP1 PUSH4 0xC70BE146 EQ PUSH2 0x273 JUMPI DUP1 PUSH4 0xD245A559 EQ PUSH2 0x2A0 JUMPI DUP1 PUSH4 0xEE1F69EB EQ PUSH2 0x2C0 JUMPI PUSH2 0xDD JUMP JUMPDEST DUP1 PUSH4 0x6F1DC339 EQ PUSH2 0x214 JUMPI DUP1 PUSH4 0x7CC1F867 EQ PUSH2 0x229 JUMPI DUP1 PUSH4 0x997402F2 EQ PUSH2 0x24B JUMPI PUSH2 0xDD JUMP JUMPDEST DUP1 PUSH4 0x20185AA2 GT PUSH2 0xBB JUMPI DUP1 PUSH4 0x20185AA2 EQ PUSH2 0x169 JUMPI DUP1 PUSH4 0x248A2954 EQ PUSH2 0x189 JUMPI DUP1 PUSH4 0x2556D8D0 EQ PUSH2 0x1BA JUMPI DUP1 PUSH4 0x52D02688 EQ PUSH2 0x1E7 JUMPI PUSH2 0xDD JUMP JUMPDEST DUP1 PUSH4 0x5090E1A EQ PUSH2 0xE2 JUMPI DUP1 PUSH4 0x95200CE EQ PUSH2 0x104 JUMPI DUP1 PUSH4 0x19018BDB EQ PUSH2 0x13A JUMPI JUMPDEST PUSH1 0x0 DUP1 REVERT JUMPDEST CALLVALUE DUP1 ISZERO PUSH2 0xEE JUMPI PUSH1 0x0 DUP1 REVERT JUMPDEST POP PUSH2 0x102 PUSH2 0xFD CALLDATASIZE PUSH1 0x4 PUSH2 0x38A6 JUMP JUMPDEST PUSH2 0x2ED JUMP JUMPDEST STOP JUMPDEST CALLVALUE DUP1 ISZERO PUSH2 0x110 JUMPI PUSH1 0x0 DUP1 REVERT JUMPDEST POP PUSH2 0x124 PUSH2 0x11F CALLDATASIZE PUSH1 0x4 PUSH2 0x3B76 JUMP JUMPDEST PUSH2 0x61B JUMP JUMPDEST PUSH1 0x40 MLOAD PUSH2 0x131 SWAP2 SWAP1 PUSH2 0x469E JUMP JUMPDEST PUSH1 0x40 MLOAD DUP1 SWAP2 SUB SWAP1 RETURN JUMPDEST CALLVALUE DUP1 ISZERO PUSH2 0x146 JUMPI PUSH1 0x0 DUP1 REVERT JUMPDEST POP PUSH2 0x15A PUSH2 0x155 CALLDATASIZE PUSH1 0x4 PUSH2 0x388E JUMP JUMPDEST PUSH2 0x62C JUMP JUMPDEST PUSH1 0x40 MLOAD PUSH2 0x131 SWAP4 SWAP3 SWAP2 SWAP1 PUSH2 0x45D5 JUMP JUMPDEST CALLVALUE DUP1 ISZERO PUSH2 0x175 JUMPI PUSH1 0x0 DUP1 REVERT JUMPDEST POP PUSH2 0x102 PUSH2 0x184 CALLDATASIZE PUSH1 0x4 PUSH2 0x388E JUMP JUMPDEST PUSH2 0x98A JUMP JUMPDEST CALLVALUE DUP1 ISZERO PUSH2 0x195 JUMPI PUSH1 0x0 DUP1 REVERT JUMPDEST POP PUSH2 0x1A9 PUSH2 0x1A4 CALLDATASIZE PUSH1 0x4 PUSH2 0x3B4A JUMP JUMPDEST PUSH2 0xA88 JUMP JUMPDEST PUSH1 0x40 MLOAD PUSH2 0x131 SWAP6 SWAP5 SWAP4 SWAP3 SWAP2 SWAP1 PUSH2 0x4646 JUMP JUMPDEST CALLVALUE DUP1 ISZERO PUSH2 0x1C6 JUMPI PUSH1 0x0 DUP1 REVERT JUMPDEST POP PUSH2 0x1DA PUSH2 0x1D5 CALLDATASIZE PUSH1 0x4 PUSH2 0x3996 JUMP JUMPDEST PUSH2 0xCFB JUMP JUMPDEST PUSH1 0x40 MLOAD PUSH2 0x131 SWAP2 SWAP1 PUSH2 0x42C8 JUMP JUMPDEST CALLVALUE DUP1 ISZERO PUSH2 0x1F3 JUMPI PUSH1 0x0 DUP1 REVERT JUMPDEST POP PUSH2 0x207 PUSH2 0x202 CALLDATASIZE PUSH1 0x4 PUSH2 0x3724 JUMP JUMPDEST PUSH2 0x12BB JUMP JUMPDEST PUSH1 0x40 MLOAD PUSH2 0x131 SWAP2 SWAP1 PUSH2 0x4206 JUMP JUMPDEST CALLVALUE DUP1 ISZERO PUSH2 0x220 JUMPI PUSH1 0x0 DUP1 REVERT JUMPDEST POP PUSH2 0x1DA PUSH2 0x135F JUMP JUMPDEST CALLVALUE DUP1 ISZERO PUSH2 0x235 JUMPI PUSH1 0x0 DUP1 REVERT JUMPDEST POP PUSH2 0x23E PUSH2 0x1373 JUMP JUMPDEST PUSH1 0x40 MLOAD PUSH2 0x131 SWAP2 SWAP1 PUSH2 0x4284 JUMP JUMPDEST PUSH2 0x102 PUSH2 0x148E JUMP JUMPDEST CALLVALUE DUP1 ISZERO PUSH2 0x25F JUMPI PUSH1 0x0 DUP1 REVERT JUMPDEST POP PUSH2 0x102 PUSH2 0x26E CALLDATASIZE PUSH1 0x4 PUSH2 0x3910 JUMP JUMPDEST PUSH2 0x1505 JUMP JUMPDEST CALLVALUE DUP1 ISZERO PUSH2 0x27F JUMPI PUSH1 0x0 DUP1 REVERT JUMPDEST POP PUSH2 0x293 PUSH2 0x28E CALLDATASIZE PUSH1 0x4 PUSH2 0x37BC JUMP JUMPDEST PUSH2 0x1BE8 JUMP JUMPDEST PUSH1 0x40 MLOAD PUSH2 0x131 SWAP2 SWAP1 PUSH2 0x45C2 JUMP JUMPDEST CALLVALUE DUP1 ISZERO PUSH2 0x2AC JUMPI PUSH1 0x0 DUP1 REVERT JUMPDEST POP PUSH2 0x102 PUSH2 0x2BB CALLDATASIZE PUSH1 0x4 PUSH2 0x37E6 JUMP JUMPDEST PUSH2 0x1EF3 JUMP JUMPDEST CALLVALUE DUP1 ISZERO PUSH2 0x2CC JUMPI PUSH1 0x0 DUP1 REVERT JUMPDEST POP PUSH2 0x2E0 PUSH2 0x2DB CALLDATASIZE PUSH1 0x4 PUSH2 0x388E JUMP JUMPDEST PUSH2 0x1F37 JUMP JUMPDEST PUSH1 0x40 MLOAD PUSH2 0x131 SWAP2 SWAP1 PUSH2 0x45AF JUMP JUMPDEST PUSH1 0x0 DUP4 DUP2 MSTORE PUSH1 0x4 PUSH1 0x20 MSTORE PUSH1 0x40 SWAP1 KECCAK256 PUSH2 0x303 PUSH2 0x30C9 JUMP JUMPDEST POP PUSH1 0x40 DUP1 MLOAD PUSH1 0x60 DUP2 ADD DUP3 MSTORE DUP3 SLOAD PUSH16 0xFFFFFFFFFFFFFFFFFFFFFFFFFFFFFFFF DUP2 AND DUP3 MSTORE PUSH17 0x100000000000000000000000000000000 DUP2 DIV PUSH2 0xFFFF AND PUSH1 0x20 DUP4 ADD DUP2 SWAP1 MSTORE PUSH19 0x1000000000000000000000000000000000000 SWAP1 SWAP2 DIV PUSH1 0xFF AND ISZERO ISZERO SWAP3 DUP3 ADD DUP4 SWAP1 MSTORE SWAP1 SWAP2 PUSH1 0x1 EQ PUSH2 0x3AA JUMPI PUSH1 0x40 MLOAD PUSH32 0x8C379A000000000000000000000000000000000000000000000000000000000 DUP2 MSTORE PUSH1 0x4 ADD PUSH2 0x3A1 SWAP1 PUSH2 0x4328 JUMP JUMPDEST PUSH1 0x40 MLOAD DUP1 SWAP2 SUB SWAP1 REVERT JUMPDEST PUSH1 0x0 DUP1 JUMPDEST DUP7 MLOAD DUP3 LT ISZERO PUSH2 0x611 JUMPI PUSH1 0x0 DUP8 DUP4 DUP2 MLOAD DUP2 LT PUSH2 0x3C5 JUMPI INVALID JUMPDEST PUSH1 0x20 MUL PUSH1 0x20 ADD ADD MLOAD SWAP1 POP PUSH1 0x2 DUP1 DUP2 GT ISZERO PUSH2 0x3DB JUMPI INVALID JUMPDEST PUSH2 0x3E5 DUP3 DUP9 PUSH2 0x219E JUMP JUMPDEST PUSH1 0x2 DUP2 GT ISZERO PUSH2 0x3F0 JUMPI INVALID JUMPDEST EQ PUSH2 0x605 JUMPI PUSH2 0x3FF DUP7 DUP3 PUSH2 0x22C7 JUMP JUMPDEST PUSH20 0xFFFFFFFFFFFFFFFFFFFFFFFFFFFFFFFFFFFFFFFF DUP3 AND PUSH1 0x0 SWAP1 DUP2 MSTORE PUSH1 0x6 DUP9 ADD PUSH1 0x20 SWAP1 DUP2 MSTORE PUSH1 0x40 DUP1 DUP4 KECCAK256 PUSH2 0xFFFF DUP10 AND DUP5 MSTORE SWAP1 SWAP2 MSTORE DUP2 KECCAK256 SLOAD SWAP2 SWAP4 POP PUSH1 0xF SWAP2 DUP3 SIGNEXTEND SWAP1 SWAP2 SIGNEXTEND SWAP1 PUSH2 0x452 DUP3 DUP6 PUSH4 0xFFFFFFFF PUSH2 0x2359 AND JUMP JUMPDEST PUSH20 0xFFFFFFFFFFFFFFFFFFFFFFFFFFFFFFFFFFFFFFFF DUP5 AND PUSH1 0x0 SWAP1 DUP2 MSTORE PUSH1 0x6 DUP11 ADD PUSH1 0x20 SWAP1 DUP2 MSTORE PUSH1 0x40 DUP1 DUP4 KECCAK256 PUSH2 0xFFFF DUP12 AND DUP5 MSTORE SWAP1 SWAP2 MSTORE SWAP1 KECCAK256 DUP1 SLOAD PUSH32 0xFFFFFFFFFFFFFFFFFFFFFFFFFFFFFF00FFFFFFFFFFFFFFFFFFFFFFFFFFFFFFFF AND PUSH17 0x200000000000000000000000000000000 OR SWAP1 SSTORE SWAP1 POP PUSH2 0x50E PUSH2 0x4DC PUSH2 0x4D7 DUP4 PUSH4 0x3B9ACA00 PUSH2 0x23B9 JUMP JUMPDEST PUSH2 0x2492 JUMP JUMPDEST PUSH20 0xFFFFFFFFFFFFFFFFFFFFFFFFFFFFFFFFFFFFFFFF DUP6 AND PUSH1 0x0 SWAP1 DUP2 MSTORE PUSH1 0x3 PUSH1 0x20 MSTORE PUSH1 0x40 SWAP1 KECCAK256 SLOAD SWAP1 PUSH4 0xFFFFFFFF PUSH2 0x24A2 AND JUMP JUMPDEST PUSH20 0xFFFFFFFFFFFFFFFFFFFFFFFFFFFFFFFFFFFFFFFF DUP5 AND PUSH1 0x0 SWAP1 DUP2 MSTORE PUSH1 0x3 PUSH1 0x20 MSTORE PUSH1 0x40 DUP2 KECCAK256 SWAP2 SWAP1 SWAP2 SSTORE DUP3 SLT PUSH2 0x5A0 JUMPI DUP11 DUP4 PUSH20 0xFFFFFFFFFFFFFFFFFFFFFFFFFFFFFFFFFFFFFFFF AND PUSH1 0x0 PUSH32 0x7881338EB26BC3F4EB2D539721BA87C61744A77CCEF589C34A5AD54AF21FADF2 TIMESTAMP DUP11 PUSH1 0x9 PUSH1 0xA EXP DUP9 PUSH1 0x0 PUSH1 0x40 MLOAD PUSH2 0x593 SWAP6 SWAP5 SWAP4 SWAP3 SWAP2 SWAP1 PUSH2 0x4677 JUMP JUMPDEST PUSH1 0x40 MLOAD DUP1 SWAP2 SUB SWAP1 LOG4 PUSH2 0x602 JUMP JUMPDEST DUP11 PUSH1 0x0 DUP5 PUSH20 0xFFFFFFFFFFFFFFFFFFFFFFFFFFFFFFFFFFFFFFFF AND PUSH32 0x7881338EB26BC3F4EB2D539721BA87C61744A77CCEF589C34A5AD54AF21FADF2 TIMESTAMP DUP11 PUSH1 0x9 PUSH1 0xA EXP DUP9 PUSH1 0x0 SUB PUSH1 0x0 PUSH1 0x40 MLOAD PUSH2 0x5F9 SWAP6 SWAP5 SWAP4 SWAP3 SWAP2 SWAP1 PUSH2 0x4677 JUMP JUMPDEST PUSH1 0x40 MLOAD DUP1 SWAP2 SUB SWAP1 LOG4 JUMPDEST POP POP JUMPDEST POP PUSH1 0x1 SWAP1 SWAP2 ADD SWAP1 PUSH2 0x3AE JUMP JUMPDEST POP POP POP POP POP POP POP POP JUMP JUMPDEST PUSH1 0x0 PUSH2 0x626 DUP3 PUSH2 0x24E1 JUMP JUMPDEST SWAP3 SWAP2 POP POP JUMP JUMPDEST PUSH1 0x0 DUP2 DUP2 MSTORE PUSH1 0x4 PUSH1 0x20 MSTORE PUSH1 0x40 DUP2 KECCAK256 PUSH1 0x60 SWAP1 DUP3 SWAP1 PUSH2 0x647 PUSH2 0x30E9 JUMP JUMPDEST DUP2 PUSH1 0x1 ADD PUSH1 0x40 MLOAD DUP1 PUSH2 0x1E0 ADD PUSH1 0x40 MSTORE SWAP1 DUP2 PUSH1 0x0 DUP3 ADD DUP1 SLOAD PUSH1 0x1 DUP2 PUSH1 0x1 AND ISZERO PUSH2 0x100 MUL SUB AND PUSH1 0x2 SWAP1 DIV DUP1 PUSH1 0x1F ADD PUSH1 0x20 DUP1 SWAP2 DIV MUL PUSH1 0x20 ADD PUSH1 0x40 MLOAD SWAP1 DUP2 ADD PUSH1 0x40 MSTORE DUP1 SWAP3 SWAP2 SWAP1 DUP2 DUP2 MSTORE PUSH1 0x20 ADD DUP3 DUP1 SLOAD PUSH1 0x1 DUP2 PUSH1 0x1 AND ISZERO PUSH2 0x100 MUL SUB AND PUSH1 0x2 SWAP1 DIV DUP1 ISZERO PUSH2 0x6F0 JUMPI DUP1 PUSH1 0x1F LT PUSH2 0x6C5 JUMPI PUSH2 0x100 DUP1 DUP4 SLOAD DIV MUL DUP4 MSTORE SWAP2 PUSH1 0x20 ADD SWAP2 PUSH2 0x6F0 JUMP JUMPDEST DUP3 ADD SWAP2 SWAP1 PUSH1 0x0 MSTORE PUSH1 0x20 PUSH1 0x0 KECCAK256 SWAP1 JUMPDEST DUP2 SLOAD DUP2 MSTORE SWAP1 PUSH1 0x1 ADD SWAP1 PUSH1 0x20 ADD DUP1 DUP4 GT PUSH2 0x6D3 JUMPI DUP3 SWAP1 SUB PUSH1 0x1F AND DUP3 ADD SWAP2 JUMPDEST POP POP POP SWAP2 DUP4 MSTORE POP POP PUSH1 0x1 DUP3 ADD SLOAD PUSH5 0xFFFFFFFFFF DUP2 AND PUSH1 0x20 DUP1 DUP5 ADD SWAP2 SWAP1 SWAP2 MSTORE PUSH3 0xFFFFFF PUSH6 0x10000000000 DUP4 DIV AND PUSH1 0x40 DUP1 DUP6 ADD SWAP2 SWAP1 SWAP2 MSTORE PUSH1 0xFF PUSH9 0x10000000000000000 DUP5 DIV DUP2 AND PUSH1 0x60 DUP7 ADD MSTORE PUSH10 0x1000000000000000000 DUP5 DIV DUP2 AND PUSH1 0x80 DUP7 ADD MSTORE PUSH11 0x100000000000000000000 DUP5 DIV DUP2 AND PUSH1 0xA0 DUP7 ADD MSTORE PUSH12 0x10000000000000000000000 DUP5 DIV PUSH1 0x0 SWAP1 DUP2 SIGNEXTEND DUP2 SIGNEXTEND SWAP1 SIGNEXTEND PUSH1 0xC0 DUP7 ADD MSTORE PUSH20 0xFFFFFFFFFFFFFFFFFFFFFFFFFFFFFFFFFFFFFFFF PUSH13 0x1000000000000000000000000 SWAP1 SWAP5 DIV DUP5 AND PUSH1 0xE0 DUP7 ADD MSTORE PUSH1 0x2 DUP7 ADD SLOAD DUP1 DUP3 AND PUSH2 0x100 DUP1 DUP9 ADD SWAP2 SWAP1 SWAP2 MSTORE DUP2 DIV DUP3 AND PUSH2 0x120 DUP8 ADD MSTORE PUSH3 0x10000 DUP2 DIV DUP3 AND PUSH2 0x140 DUP8 ADD MSTORE PUSH4 0x1000000 DUP2 DIV SWAP1 SWAP2 AND PUSH2 0x160 DUP7 ADD MSTORE PUSH5 0x100000000 SWAP1 DIV DUP4 AND PUSH2 0x180 DUP6 ADD MSTORE PUSH1 0x3 DUP6 ADD SLOAD SWAP1 SWAP3 AND PUSH2 0x1A0 DUP5 ADD MSTORE PUSH1 0x4 DUP5 ADD DUP1 SLOAD DUP4 MLOAD DUP2 DUP5 MUL DUP2 ADD DUP5 ADD SWAP1 SWAP5 MSTORE DUP1 DUP5 MSTORE PUSH2 0x1C0 SWAP1 SWAP5 ADD SWAP4 SWAP1 SWAP2 DUP4 ADD DUP3 DUP3 DUP1 ISZERO PUSH2 0x878 JUMPI PUSH1 0x20 MUL DUP3 ADD SWAP2 SWAP1 PUSH1 0x0 MSTORE PUSH1 0x20 PUSH1 0x0 KECCAK256 SWAP1 PUSH1 0x0 SWAP1 JUMPDEST DUP3 DUP3 SWAP1 SLOAD SWAP1 PUSH2 0x100 EXP SWAP1 DIV PUSH1 0xF SIGNEXTEND PUSH1 0xF SIGNEXTEND DUP2 MSTORE PUSH1 0x20 ADD SWAP1 PUSH1 0x10 ADD SWAP1 PUSH1 0x20 DUP3 PUSH1 0xF ADD DIV SWAP3 DUP4 ADD SWAP3 PUSH1 0x1 SUB DUP3 MUL SWAP2 POP DUP1 DUP5 GT PUSH2 0x841 JUMPI SWAP1 POP JUMPDEST POP POP POP POP POP DUP2 MSTORE POP POP SWAP1 POP DUP1 PUSH2 0x1C0 ADD MLOAD MLOAD PUSH1 0x1 ADD PUSH8 0xFFFFFFFFFFFFFFFF DUP2 GT DUP1 ISZERO PUSH2 0x8A3 JUMPI PUSH1 0x0 DUP1 REVERT JUMPDEST POP PUSH1 0x40 MLOAD SWAP1 DUP1 DUP3 MSTORE DUP1 PUSH1 0x20 MUL PUSH1 0x20 ADD DUP3 ADD PUSH1 0x40 MSTORE DUP1 ISZERO PUSH2 0x8DD JUMPI DUP2 PUSH1 0x20 ADD JUMPDEST PUSH2 0x8CA PUSH2 0x3167 JUMP JUMPDEST DUP2 MSTORE PUSH1 0x20 ADD SWAP1 PUSH1 0x1 SWAP1 SUB SWAP1 DUP2 PUSH2 0x8C2 JUMPI SWAP1 POP JUMPDEST POP SWAP4 POP PUSH1 0x0 JUMPDEST DUP2 PUSH2 0x1C0 ADD MLOAD MLOAD DUP2 GT PUSH2 0x95D JUMPI CALLER PUSH1 0x0 SWAP1 DUP2 MSTORE PUSH1 0x6 DUP5 ADD PUSH1 0x20 SWAP1 DUP2 MSTORE PUSH1 0x40 DUP1 DUP4 KECCAK256 DUP5 DUP5 MSTORE DUP3 MSTORE SWAP2 DUP3 SWAP1 KECCAK256 DUP3 MLOAD DUP1 DUP5 ADD SWAP1 SWAP4 MSTORE SLOAD PUSH1 0xF DUP2 DUP2 SIGNEXTEND DUP2 SIGNEXTEND SWAP1 SIGNEXTEND DUP4 MSTORE PUSH17 0x100000000000000000000000000000000 SWAP1 DIV PUSH1 0xFF AND SWAP1 DUP3 ADD MSTORE DUP6 MLOAD DUP7 SWAP1 DUP4 SWAP1 DUP2 LT PUSH2 0x94A JUMPI INVALID JUMPDEST PUSH1 0x20 SWAP1 DUP2 MUL SWAP2 SWAP1 SWAP2 ADD ADD MSTORE PUSH1 0x1 ADD PUSH2 0x8E3 JUMP JUMPDEST POP CALLER PUSH1 0x0 DUP2 DUP2 MSTORE PUSH1 0x3 PUSH1 0x20 MSTORE PUSH1 0x40 SWAP1 KECCAK256 SLOAD SWAP1 DUP6 SWAP1 PUSH2 0x97B SWAP1 DUP6 PUSH2 0x219E JUMP JUMPDEST SWAP5 POP SWAP5 POP SWAP5 POP POP POP SWAP2 SWAP4 SWAP1 SWAP3 POP JUMP JUMPDEST CALLER PUSH1 0x0 SWAP1 DUP2 MSTORE PUSH1 0x3 PUSH1 0x20 MSTORE PUSH1 0x40 SWAP1 KECCAK256 SLOAD DUP2 GT ISZERO PUSH2 0x9D3 JUMPI PUSH1 0x40 MLOAD PUSH32 0x8C379A000000000000000000000000000000000000000000000000000000000 DUP2 MSTORE PUSH1 0x4 ADD PUSH2 0x3A1 SWAP1 PUSH2 0x451B JUMP JUMPDEST CALLER PUSH1 0x0 SWAP1 DUP2 MSTORE PUSH1 0x3 PUSH1 0x20 MSTORE PUSH1 0x40 SWAP1 KECCAK256 SLOAD PUSH2 0x9F3 SWAP1 DUP3 PUSH4 0xFFFFFFFF PUSH2 0x25A2 AND JUMP JUMPDEST CALLER PUSH1 0x0 DUP2 DUP2 MSTORE PUSH1 0x3 PUSH1 0x20 MSTORE PUSH1 0x40 DUP1 DUP3 KECCAK256 SWAP4 SWAP1 SWAP4 SSTORE SWAP2 MLOAD SWAP1 SWAP2 DUP4 ISZERO PUSH2 0x8FC MUL SWAP2 DUP5 SWAP2 DUP2 DUP2 DUP2 DUP6 DUP9 DUP9 CALL SWAP4 POP POP POP POP ISZERO DUP1 ISZERO PUSH2 0xA31 JUMPI RETURNDATASIZE PUSH1 0x0 DUP1 RETURNDATACOPY RETURNDATASIZE PUSH1 0x0 REVERT JUMPDEST POP CALLER PUSH20 0xFFFFFFFFFFFFFFFFFFFFFFFFFFFFFFFFFFFFFFFF AND PUSH32 0x6E2EEC282B5765F3A053054D83D425D0E03E1003BB2740D41C1FCE6D4A0D74F7 TIMESTAMP DUP4 PUSH1 0x0 SUB PUSH1 0x40 MLOAD PUSH2 0xA7D SWAP3 SWAP2 SWAP1 PUSH2 0x4669 JUMP JUMPDEST PUSH1 0x40 MLOAD DUP1 SWAP2 SUB SWAP1 LOG2 POP JUMP JUMPDEST PUSH1 0x0 DUP1 PUSH1 0x0 DUP1 PUSH1 0x0 PUSH2 0xA98 PUSH2 0x317E JUMP JUMPDEST POP DUP7 MLOAD DUP1 MLOAD PUSH1 0x0 SWAP1 DUP2 MSTORE PUSH1 0x4 PUSH1 0x20 SWAP1 DUP2 MSTORE PUSH1 0x40 SWAP2 DUP3 SWAP1 KECCAK256 DUP4 MLOAD DUP3 DUP6 ADD MLOAD DUP5 DUP7 ADD MLOAD PUSH1 0x60 DUP8 ADD MLOAD PUSH1 0x80 DUP9 ADD MLOAD PUSH1 0xA0 DUP10 ADD MLOAD PUSH1 0xC0 DUP11 ADD MLOAD PUSH1 0xE0 DUP12 ADD MLOAD SWAP10 MLOAD SWAP8 SWAP10 PUSH2 0xAE2 SWAP10 ADDRESS SWAP10 ADD PUSH2 0x3EBB JUMP JUMPDEST PUSH1 0x40 MLOAD PUSH1 0x20 DUP2 DUP4 SUB SUB DUP2 MSTORE SWAP1 PUSH1 0x40 MSTORE DUP1 MLOAD SWAP1 PUSH1 0x20 ADD KECCAK256 SWAP6 POP DUP2 PUSH1 0xE0 ADD MLOAD PUSH20 0xFFFFFFFFFFFFFFFFFFFFFFFFFFFFFFFFFFFFFFFF AND PUSH2 0xB23 DUP8 DUP12 PUSH1 0x20 ADD MLOAD PUSH2 0x25E4 JUMP JUMPDEST PUSH20 0xFFFFFFFFFFFFFFFFFFFFFFFFFFFFFFFFFFFFFFFF AND EQ PUSH2 0xB47 JUMPI PUSH1 0x0 SWAP8 POP PUSH2 0xB9B JUMP JUMPDEST PUSH1 0x80 DUP3 ADD MLOAD PUSH1 0x0 DUP8 DUP2 MSTORE PUSH1 0x7 DUP4 ADD PUSH1 0x20 MSTORE PUSH1 0x40 SWAP1 KECCAK256 SLOAD PUSH2 0xB6D SWAP1 DUP11 PUSH4 0xFFFFFFFF PUSH2 0x24A2 AND JUMP JUMPDEST GT ISZERO PUSH2 0xB9B JUMPI PUSH1 0x0 DUP7 DUP2 MSTORE PUSH1 0x7 DUP3 ADD PUSH1 0x20 MSTORE PUSH1 0x40 SWAP1 KECCAK256 SLOAD PUSH1 0x80 DUP4 ADD MLOAD PUSH2 0xB98 SWAP2 PUSH4 0xFFFFFFFF PUSH2 0x25A2 AND JUMP JUMPDEST SWAP8 POP JUMPDEST PUSH1 0x0 PUSH2 0xBB4 DUP4 PUSH1 0x60 ADD MLOAD DUP11 PUSH2 0x26CC SWAP1 SWAP2 SWAP1 PUSH4 0xFFFFFFFF AND JUMP JUMPDEST PUSH1 0x3 DUP4 ADD SLOAD SWAP1 SWAP2 POP PUSH2 0xC18 SWAP1 PUSH2 0xBFA SWAP1 PUSH1 0xFF PUSH4 0x1000000 DUP3 DIV DUP2 AND SWAP2 PUSH2 0xBEE SWAP2 PUSH2 0x100 DUP3 DIV DUP2 AND SWAP2 PUSH3 0x10000 SWAP1 DIV AND PUSH4 0xFFFFFFFF PUSH2 0x24A2 AND JUMP JUMPDEST SWAP1 PUSH4 0xFFFFFFFF PUSH2 0x24A2 AND JUMP JUMPDEST PUSH2 0xC0C DUP4 PUSH2 0x2710 PUSH4 0xFFFFFFFF PUSH2 0x2720 AND JUMP JUMPDEST SWAP1 PUSH4 0xFFFFFFFF PUSH2 0x26CC AND JUMP JUMPDEST SWAP4 POP PUSH2 0xC30 DUP3 DUP5 PUSH1 0x40 ADD MLOAD DUP6 DUP7 PUSH1 0xE0 ADD MLOAD DUP14 DUP7 PUSH2 0x2762 JUMP JUMPDEST SWAP6 POP PUSH2 0xC5D PUSH2 0xC3E DUP6 PUSH2 0x285A JUMP JUMPDEST PUSH2 0xC51 DUP5 DUP7 PUSH1 0x40 ADD MLOAD ISZERO DUP8 CALLER DUP16 DUP9 PUSH2 0x2762 JUMP JUMPDEST SWAP1 PUSH4 0xFFFFFFFF PUSH2 0x2359 AND JUMP JUMPDEST PUSH1 0x5 DUP4 ADD SLOAD PUSH1 0x20 DUP6 ADD MLOAD SWAP2 SWAP7 POP PUSH2 0xFFFF SWAP1 SWAP2 AND GT DUP1 ISZERO SWAP1 PUSH2 0xC82 JUMPI POP DUP3 PUSH1 0xC0 ADD MLOAD NUMBER GT ISZERO JUMPDEST DUP1 ISZERO PUSH2 0xCA2 JUMPI POP PUSH1 0xC0 DUP4 ADD MLOAD PUSH2 0xC9F NUMBER PUSH1 0xC PUSH4 0xFFFFFFFF PUSH2 0x24A2 AND JUMP JUMPDEST LT ISZERO JUMPDEST DUP1 ISZERO PUSH2 0xCC8 JUMPI POP PUSH1 0xE0 DUP4 ADD MLOAD PUSH20 0xFFFFFFFFFFFFFFFFFFFFFFFFFFFFFFFFFFFFFFFF AND CALLER EQ ISZERO JUMPDEST DUP1 ISZERO PUSH2 0xCD5 JUMPI POP PUSH1 0x0 DUP7 SLT ISZERO JUMPDEST DUP1 ISZERO PUSH2 0xCE2 JUMPI POP PUSH1 0x0 DUP6 SLT ISZERO JUMPDEST PUSH2 0xCEB JUMPI PUSH1 0x0 SWAP9 POP JUMPDEST POP DUP8 SWAP7 POP POP POP SWAP3 SWAP6 POP SWAP3 SWAP6 SWAP1 SWAP4 POP JUMP JUMPDEST PUSH1 0x0 DUP4 PUSH1 0x20 ADD MLOAD PUSH5 0xFFFFFFFFFF AND PUSH1 0x0 EQ ISZERO PUSH2 0xD13 JUMPI INVALID JUMPDEST PUSH1 0x0 PUSH2 0xD1E DUP6 PUSH2 0x2885 JUMP JUMPDEST SWAP1 POP DUP5 PUSH1 0xE0 ADD MLOAD PUSH20 0xFFFFFFFFFFFFFFFFFFFFFFFFFFFFFFFFFFFFFFFF AND PUSH2 0xD45 DUP3 DUP6 PUSH2 0x295C JUMP JUMPDEST PUSH20 0xFFFFFFFFFFFFFFFFFFFFFFFFFFFFFFFFFFFFFFFF AND EQ PUSH2 0xD92 JUMPI PUSH1 0x40 MLOAD PUSH32 0x8C379A000000000000000000000000000000000000000000000000000000000 DUP2 MSTORE PUSH1 0x4 ADD PUSH2 0x3A1 SWAP1 PUSH2 0x435F JUMP JUMPDEST PUSH2 0xD9B DUP6 PUSH2 0x29A7 JUMP JUMPDEST PUSH1 0x0 DUP2 DUP2 MSTORE PUSH1 0x4 PUSH1 0x20 MSTORE PUSH1 0x40 SWAP1 KECCAK256 PUSH1 0x2 ADD SLOAD SWAP1 SWAP3 POP PUSH5 0xFFFFFFFFFF AND ISZERO SWAP1 POP PUSH2 0xDC3 JUMPI PUSH2 0x12B4 JUMP JUMPDEST DUP4 PUSH1 0xA0 ADD MLOAD PUSH1 0xFF AND PUSH1 0x12 EQ PUSH2 0xDD4 JUMPI INVALID JUMPDEST PUSH1 0x40 DUP5 PUSH1 0x80 ADD MLOAD PUSH1 0xFF AND LT PUSH2 0xDE5 JUMPI INVALID JUMPDEST PUSH1 0x60 DUP5 ADD MLOAD PUSH1 0x0 SWAP1 PUSH1 0x1 AND ISZERO PUSH2 0xEEB JUMPI PUSH1 0x0 DUP6 PUSH2 0x1C0 ADD MLOAD MLOAD GT PUSH2 0xE05 JUMPI INVALID JUMPDEST PUSH2 0x7FFD DUP6 PUSH2 0x1C0 ADD MLOAD MLOAD LT PUSH2 0xE16 JUMPI INVALID JUMPDEST POP PUSH1 0x1 JUMPDEST DUP5 PUSH2 0x1C0 ADD MLOAD MLOAD DUP2 LT ISZERO PUSH2 0xE72 JUMPI DUP5 PUSH2 0x1C0 ADD MLOAD DUP2 DUP2 MLOAD DUP2 LT PUSH2 0xE39 JUMPI INVALID JUMPDEST PUSH1 0x20 MUL PUSH1 0x20 ADD ADD MLOAD PUSH1 0xF SIGNEXTEND DUP6 PUSH2 0x1C0 ADD MLOAD PUSH1 0x1 DUP4 SUB DUP2 MLOAD DUP2 LT PUSH2 0xE58 JUMPI INVALID JUMPDEST PUSH1 0x20 MUL PUSH1 0x20 ADD ADD MLOAD PUSH1 0xF SIGNEXTEND SLT PUSH2 0xE6A JUMPI INVALID JUMPDEST PUSH1 0x1 ADD PUSH2 0xE1A JUMP JUMPDEST DUP5 PUSH1 0xC0 ADD MLOAD PUSH1 0x0 SIGNEXTEND DUP6 PUSH1 0xA0 ADD MLOAD PUSH1 0xFF AND PUSH1 0x1 SIGNEXTEND SLT ISZERO PUSH2 0xE8D JUMPI INVALID JUMPDEST POP PUSH1 0x0 JUMPDEST DUP5 PUSH2 0x1C0 ADD MLOAD MLOAD DUP2 LT ISZERO PUSH2 0xEE6 JUMPI DUP5 PUSH1 0xC0 ADD MLOAD PUSH1 0x0 SIGNEXTEND DUP6 PUSH1 0xA0 ADD MLOAD PUSH1 0xFF AND SUB PUSH1 0xA EXP DUP6 PUSH2 0x1C0 ADD MLOAD DUP3 DUP2 MLOAD DUP2 LT PUSH2 0xEC4 JUMPI INVALID JUMPDEST PUSH1 0x20 MUL PUSH1 0x20 ADD ADD MLOAD PUSH1 0xF SIGNEXTEND DUP2 PUSH2 0xED6 JUMPI INVALID JUMPDEST SMOD ISZERO PUSH2 0xEDE JUMPI INVALID JUMPDEST PUSH1 0x1 ADD PUSH2 0xE91 JUMP JUMPDEST PUSH2 0xF0D JUMP JUMPDEST PUSH1 0x1 DUP6 PUSH2 0x1C0 ADD MLOAD MLOAD GT PUSH2 0xEFB JUMPI INVALID JUMPDEST PUSH2 0x7FFD DUP6 PUSH2 0x1C0 ADD MLOAD MLOAD GT ISZERO PUSH2 0xF0D JUMPI INVALID JUMPDEST PUSH1 0x20 DUP6 PUSH1 0x80 ADD MLOAD PUSH1 0xFF AND LT PUSH2 0xF1E JUMPI INVALID JUMPDEST PUSH1 0x0 DUP6 PUSH1 0x80 ADD MLOAD PUSH1 0x8 MUL PUSH1 0xFF AND DUP7 PUSH2 0x100 ADD MLOAD PUSH1 0xFF AND PUSH1 0x1 SWAP1 SHL SWAP1 SHL SWAP1 POP DUP1 PUSH1 0x2 SLOAD AND PUSH1 0x0 EQ ISZERO PUSH2 0xF52 JUMPI PUSH1 0x2 DUP1 SLOAD DUP3 OR SWAP1 SSTORE JUMPDEST PUSH1 0x0 PUSH2 0xF61 DUP8 PUSH1 0x20 ADD MLOAD PUSH2 0x24E1 JUMP JUMPDEST PUSH1 0x60 DUP9 ADD MLOAD SWAP1 SWAP2 POP PUSH1 0x4 AND ISZERO PUSH2 0xF8A JUMPI DUP1 PUSH1 0xFF AND DUP8 PUSH2 0x100 ADD MLOAD PUSH1 0xFF AND EQ PUSH2 0xF85 JUMPI INVALID JUMPDEST PUSH2 0xF9A JUMP JUMPDEST PUSH2 0x100 DUP8 ADD MLOAD PUSH1 0xFF AND ISZERO PUSH2 0xF9A JUMPI INVALID JUMPDEST PUSH1 0x0 DUP5 DUP2 MSTORE PUSH1 0x4 PUSH1 0x20 SWAP1 DUP2 MSTORE PUSH1 0x40 SWAP1 SWAP2 KECCAK256 DUP9 MLOAD DUP1 MLOAD DUP11 SWAP4 PUSH1 0x1 SWAP1 SWAP4 ADD SWAP3 PUSH2 0xFC5 SWAP3 DUP5 SWAP3 SWAP2 ADD SWAP1 PUSH2 0x31C2 JUMP JUMPDEST POP PUSH1 0x20 DUP3 ADD MLOAD DUP2 PUSH1 0x1 ADD PUSH1 0x0 PUSH2 0x100 EXP DUP2 SLOAD DUP2 PUSH5 0xFFFFFFFFFF MUL NOT AND SWAP1 DUP4 PUSH5 0xFFFFFFFFFF AND MUL OR SWAP1 SSTORE POP PUSH1 0x40 DUP3 ADD MLOAD DUP2 PUSH1 0x1 ADD PUSH1 0x5 PUSH2 0x100 EXP DUP2 SLOAD DUP2 PUSH3 0xFFFFFF MUL NOT AND SWAP1 DUP4 PUSH3 0xFFFFFF AND MUL OR SWAP1 SSTORE POP PUSH1 0x60 DUP3 ADD MLOAD DUP2 PUSH1 0x1 ADD PUSH1 0x8 PUSH2 0x100 EXP DUP2 SLOAD DUP2 PUSH1 0xFF MUL NOT AND SWAP1 DUP4 PUSH1 0xFF AND MUL OR SWAP1 SSTORE POP PUSH1 0x80 DUP3 ADD MLOAD DUP2 PUSH1 0x1 ADD PUSH1 0x9 PUSH2 0x100 EXP DUP2 SLOAD DUP2 PUSH1 0xFF MUL NOT AND SWAP1 DUP4 PUSH1 0xFF AND MUL OR SWAP1 SSTORE POP PUSH1 0xA0 DUP3 ADD MLOAD DUP2 PUSH1 0x1 ADD PUSH1 0xA PUSH2 0x100 EXP DUP2 SLOAD DUP2 PUSH1 0xFF MUL NOT AND SWAP1 DUP4 PUSH1 0xFF AND MUL OR SWAP1 SSTORE POP PUSH1 0xC0 DUP3 ADD MLOAD DUP2 PUSH1 0x1 ADD PUSH1 0xB PUSH2 0x100 EXP DUP2 SLOAD DUP2 PUSH1 0xFF MUL NOT AND SWAP1 DUP4 PUSH1 0x0 SIGNEXTEND PUSH1 0xFF AND MUL OR SWAP1 SSTORE POP PUSH1 0xE0 DUP3 ADD MLOAD DUP2 PUSH1 0x1 ADD PUSH1 0xC PUSH2 0x100 EXP DUP2 SLOAD DUP2 PUSH20 0xFFFFFFFFFFFFFFFFFFFFFFFFFFFFFFFFFFFFFFFF MUL NOT AND SWAP1 DUP4 PUSH20 0xFFFFFFFFFFFFFFFFFFFFFFFFFFFFFFFFFFFFFFFF AND MUL OR SWAP1 SSTORE POP PUSH2 0x100 DUP3 ADD MLOAD DUP2 PUSH1 0x2 ADD PUSH1 0x0 PUSH2 0x100 EXP DUP2 SLOAD DUP2 PUSH1 0xFF MUL NOT AND SWAP1 DUP4 PUSH1 0xFF AND MUL OR SWAP1 SSTORE POP PUSH2 0x120 DUP3 ADD MLOAD DUP2 PUSH1 0x2 ADD PUSH1 0x1 PUSH2 0x100 EXP DUP2 SLOAD DUP2 PUSH1 0xFF MUL NOT AND SWAP1 DUP4 PUSH1 0xFF AND MUL OR SWAP1 SSTORE POP PUSH2 0x140 DUP3 ADD MLOAD DUP2 PUSH1 0x2 ADD PUSH1 0x2 PUSH2 0x100 EXP DUP2 SLOAD DUP2 PUSH1 0xFF MUL NOT AND SWAP1 DUP4 PUSH1 0xFF AND MUL OR SWAP1 SSTORE POP PUSH2 0x160 DUP3 ADD MLOAD DUP2 PUSH1 0x2 ADD PUSH1 0x3 PUSH2 0x100 EXP DUP2 SLOAD DUP2 PUSH1 0xFF MUL NOT AND SWAP1 DUP4 PUSH1 0xFF AND MUL OR SWAP1 SSTORE POP PUSH2 0x180 DUP3 ADD MLOAD DUP2 PUSH1 0x2 ADD PUSH1 0x4 PUSH2 0x100 EXP DUP2 SLOAD DUP2 PUSH20 0xFFFFFFFFFFFFFFFFFFFFFFFFFFFFFFFFFFFFFFFF MUL NOT AND SWAP1 DUP4 PUSH20 0xFFFFFFFFFFFFFFFFFFFFFFFFFFFFFFFFFFFFFFFF AND MUL OR SWAP1 SSTORE POP PUSH2 0x1A0 DUP3 ADD MLOAD DUP2 PUSH1 0x3 ADD PUSH1 0x0 PUSH2 0x100 EXP DUP2 SLOAD DUP2 PUSH20 0xFFFFFFFFFFFFFFFFFFFFFFFFFFFFFFFFFFFFFFFF MUL NOT AND SWAP1 DUP4 PUSH20 0xFFFFFFFFFFFFFFFFFFFFFFFFFFFFFFFFFFFFFFFF AND MUL OR SWAP1 SSTORE POP PUSH2 0x1C0 DUP3 ADD MLOAD DUP2 PUSH1 0x4 ADD SWAP1 DUP1 MLOAD SWAP1 PUSH1 0x20 ADD SWAP1 PUSH2 0x1217 SWAP3 SWAP2 SWAP1 PUSH2 0x323C JUMP JUMPDEST POP SWAP1 POP POP DUP7 PUSH1 0x80 ADD MLOAD PUSH1 0xFF AND DUP8 PUSH2 0x100 ADD MLOAD PUSH1 0xFF AND DUP3 PUSH1 0xFF AND PUSH1 0x8 PUSH2 0x123E DUP6 PUSH1 0xFF AND PUSH2 0x2A7E JUMP JUMPDEST PUSH6 0xFFFFFFFFFFFF AND DUP12 PUSH1 0x20 ADD MLOAD PUSH5 0xFFFFFFFFFF AND DUP2 PUSH2 0x1259 JUMPI INVALID JUMPDEST DIV PUSH6 0xFFFFFFFFFFFF AND SWAP1 SHL ADD PUSH6 0xFFFFFFFFFFFF AND PUSH32 0x13D334F612C6E3D949B7DA4336E52487CDF7E8B324884E285AACA45027505860 DUP8 DUP12 PUSH1 0x20 ADD MLOAD DUP13 PUSH1 0x0 ADD MLOAD PUSH1 0x40 MLOAD PUSH2 0x12A8 SWAP4 SWAP3 SWAP2 SWAP1 PUSH2 0x42D1 JUMP JUMPDEST PUSH1 0x40 MLOAD DUP1 SWAP2 SUB SWAP1 LOG4 POP POP POP JUMPDEST SWAP4 SWAP3 POP POP POP JUMP JUMPDEST PUSH1 0x60 DUP2 PUSH8 0xFFFFFFFFFFFFFFFF DUP2 GT DUP1 ISZERO PUSH2 0x12D4 JUMPI PUSH1 0x0 DUP1 REVERT JUMPDEST POP PUSH1 0x40 MLOAD SWAP1 DUP1 DUP3 MSTORE DUP1 PUSH1 0x20 MUL PUSH1 0x20 ADD DUP3 ADD PUSH1 0x40 MSTORE DUP1 ISZERO PUSH2 0x130E JUMPI DUP2 PUSH1 0x20 ADD JUMPDEST PUSH2 0x12FB PUSH2 0x330E JUMP JUMPDEST DUP2 MSTORE PUSH1 0x20 ADD SWAP1 PUSH1 0x1 SWAP1 SUB SWAP1 DUP2 PUSH2 0x12F3 JUMPI SWAP1 POP JUMPDEST POP SWAP1 POP PUSH1 0x0 JUMPDEST DUP3 DUP2 LT ISZERO PUSH2 0x1357 JUMPI PUSH2 0x1338 DUP6 DUP6 DUP6 DUP5 DUP2 DUP2 LT PUSH2 0x132C JUMPI INVALID JUMPDEST SWAP1 POP PUSH1 0x20 MUL ADD CALLDATALOAD PUSH2 0x1BE8 JUMP JUMPDEST DUP3 DUP3 DUP2 MLOAD DUP2 LT PUSH2 0x1344 JUMPI INVALID JUMPDEST PUSH1 0x20 SWAP1 DUP2 MUL SWAP2 SWAP1 SWAP2 ADD ADD MSTORE PUSH1 0x1 ADD PUSH2 0x1314 JUMP JUMPDEST POP SWAP4 SWAP3 POP POP POP JUMP JUMPDEST CALLER PUSH1 0x0 SWAP1 DUP2 MSTORE PUSH1 0x3 PUSH1 0x20 MSTORE PUSH1 0x40 SWAP1 KECCAK256 SLOAD JUMPDEST SWAP1 JUMP JUMPDEST PUSH1 0x40 DUP1 MLOAD PUSH1 0x9 DUP1 DUP3 MSTORE PUSH2 0x140 DUP3 ADD SWAP1 SWAP3 MSTORE PUSH1 0x60 SWAP2 DUP3 SWAP2 SWAP1 PUSH1 0x20 DUP3 ADD PUSH2 0x120 DUP1 CALLDATASIZE DUP4 CALLDATACOPY ADD SWAP1 POP POP SWAP1 POP PUSH1 0x1 DUP2 PUSH1 0x0 DUP2 MLOAD DUP2 LT PUSH2 0x13AA JUMPI INVALID JUMPDEST PUSH1 0x20 SWAP1 DUP2 MUL SWAP2 SWAP1 SWAP2 ADD ADD MSTORE PUSH1 0x0 DUP2 PUSH1 0x1 DUP2 MLOAD DUP2 LT PUSH2 0x13C4 JUMPI INVALID JUMPDEST PUSH1 0x20 SWAP1 DUP2 MUL SWAP2 SWAP1 SWAP2 ADD ADD MSTORE PUSH3 0x340000 DUP2 PUSH1 0x2 DUP2 MLOAD DUP2 LT PUSH2 0x13E0 JUMPI INVALID JUMPDEST PUSH1 0x20 SWAP1 DUP2 MUL SWAP2 SWAP1 SWAP2 ADD ADD MSTORE ADDRESS DUP2 PUSH1 0x3 DUP2 MLOAD DUP2 LT PUSH2 0x13F9 JUMPI INVALID JUMPDEST PUSH1 0x20 SWAP1 DUP2 MUL SWAP2 SWAP1 SWAP2 ADD ADD MSTORE PUSH1 0x1 SLOAD DUP2 PUSH1 0x4 DUP2 MLOAD DUP2 LT PUSH2 0x1414 JUMPI INVALID JUMPDEST PUSH1 0x20 SWAP1 DUP2 MUL SWAP2 SWAP1 SWAP2 ADD ADD MSTORE PUSH1 0x0 SLOAD DUP2 PUSH1 0x5 DUP2 MLOAD DUP2 LT PUSH2 0x142F JUMPI INVALID JUMPDEST PUSH1 0x20 SWAP1 DUP2 MUL SWAP2 SWAP1 SWAP2 ADD ADD MSTORE PUSH1 0xC DUP2 PUSH1 0x6 DUP2 MLOAD DUP2 LT PUSH2 0x1449 JUMPI INVALID JUMPDEST PUSH1 0x20 SWAP1 DUP2 MUL SWAP2 SWAP1 SWAP2 ADD ADD MSTORE PUSH1 0x9 DUP2 PUSH1 0x7 DUP2 MLOAD DUP2 LT PUSH2 0x1463 JUMPI INVALID JUMPDEST PUSH1 0x20 SWAP1 DUP2 MUL SWAP2 SWAP1 SWAP2 ADD ADD MSTORE PUSH1 0x2 SLOAD DUP2 PUSH1 0x8 DUP2 MLOAD DUP2 LT PUSH2 0x147E JUMPI INVALID JUMPDEST PUSH1 0x20 SWAP1 DUP2 MUL SWAP2 SWAP1 SWAP2 ADD ADD MSTORE SWAP1 POP SWAP1 JUMP JUMPDEST CALLVALUE ISZERO PUSH2 0x1503 JUMPI CALLER PUSH1 0x0 SWAP1 DUP2 MSTORE PUSH1 0x3 PUSH1 0x20 MSTORE PUSH1 0x40 SWAP1 KECCAK256 SLOAD PUSH2 0x14B4 SWAP1 CALLVALUE PUSH4 0xFFFFFFFF PUSH2 0x24A2 AND JUMP JUMPDEST CALLER PUSH1 0x0 DUP2 DUP2 MSTORE PUSH1 0x3 PUSH1 0x20 MSTORE PUSH1 0x40 SWAP1 DUP2 SWAP1 KECCAK256 SWAP3 SWAP1 SWAP3 SSTORE SWAP1 MLOAD PUSH32 0x6E2EEC282B5765F3A053054D83D425D0E03E1003BB2740D41C1FCE6D4A0D74F7 SWAP1 PUSH2 0x14FA SWAP1 TIMESTAMP SWAP1 CALLVALUE SWAP1 PUSH2 0x4669 JUMP JUMPDEST PUSH1 0x40 MLOAD DUP1 SWAP2 SUB SWAP1 LOG2 JUMPDEST JUMP JUMPDEST PUSH1 0x0 DUP6 DUP2 MSTORE PUSH1 0x4 PUSH1 0x20 SWAP1 DUP2 MSTORE PUSH1 0x40 SWAP2 DUP3 SWAP1 KECCAK256 PUSH1 0x2 DUP1 DUP3 ADD SLOAD DUP5 MLOAD PUSH1 0x1 DUP1 DUP6 ADD DUP1 SLOAD PUSH2 0x100 SWAP3 DUP2 AND ISZERO SWAP3 SWAP1 SWAP3 MUL PUSH32 0xFFFFFFFFFFFFFFFFFFFFFFFFFFFFFFFFFFFFFFFFFFFFFFFFFFFFFFFFFFFFFFFF ADD SWAP1 SWAP2 AND SWAP4 SWAP1 SWAP4 DIV PUSH1 0x1F DUP2 ADD DUP7 SWAP1 DIV SWAP1 SWAP6 MUL DUP2 ADD PUSH2 0x200 SWAP1 DUP2 ADD SWAP1 SWAP7 MSTORE PUSH2 0x1E0 DUP2 ADD DUP6 DUP2 MSTORE SWAP4 SWAP6 PUSH13 0x1000000000000000000000000 SWAP1 SWAP3 DIV PUSH20 0xFFFFFFFFFFFFFFFFFFFFFFFFFFFFFFFFFFFFFFFF AND SWAP5 PUSH2 0x17C7 SWAP5 PUSH2 0x1796 SWAP5 SWAP3 SWAP4 DUP5 SWAP3 DUP5 SWAP2 DUP5 ADD DUP3 DUP3 DUP1 ISZERO PUSH2 0x1600 JUMPI DUP1 PUSH1 0x1F LT PUSH2 0x15D5 JUMPI PUSH2 0x100 DUP1 DUP4 SLOAD DIV MUL DUP4 MSTORE SWAP2 PUSH1 0x20 ADD SWAP2 PUSH2 0x1600 JUMP JUMPDEST DUP3 ADD SWAP2 SWAP1 PUSH1 0x0 MSTORE PUSH1 0x20 PUSH1 0x0 KECCAK256 SWAP1 JUMPDEST DUP2 SLOAD DUP2 MSTORE SWAP1 PUSH1 0x1 ADD SWAP1 PUSH1 0x20 ADD DUP1 DUP4 GT PUSH2 0x15E3 JUMPI DUP3 SWAP1 SUB PUSH1 0x1F AND DUP3 ADD SWAP2 JUMPDEST POP POP POP SWAP2 DUP4 MSTORE POP POP PUSH1 0x1 DUP3 ADD SLOAD PUSH5 0xFFFFFFFFFF DUP2 AND PUSH1 0x20 DUP1 DUP5 ADD SWAP2 SWAP1 SWAP2 MSTORE PUSH3 0xFFFFFF PUSH6 0x10000000000 DUP4 DIV AND PUSH1 0x40 DUP1 DUP6 ADD SWAP2 SWAP1 SWAP2 MSTORE PUSH1 0xFF PUSH9 0x10000000000000000 DUP5 DIV DUP2 AND PUSH1 0x60 DUP7 ADD MSTORE PUSH10 0x1000000000000000000 DUP5 DIV DUP2 AND PUSH1 0x80 DUP7 ADD MSTORE PUSH11 0x100000000000000000000 DUP5 DIV DUP2 AND PUSH1 0xA0 DUP7 ADD MSTORE PUSH12 0x10000000000000000000000 DUP5 DIV PUSH1 0x0 SWAP1 DUP2 SIGNEXTEND DUP2 SIGNEXTEND SWAP1 SIGNEXTEND PUSH1 0xC0 DUP7 ADD MSTORE PUSH20 0xFFFFFFFFFFFFFFFFFFFFFFFFFFFFFFFFFFFFFFFF PUSH13 0x1000000000000000000000000 SWAP1 SWAP5 DIV DUP5 AND PUSH1 0xE0 DUP7 ADD MSTORE PUSH1 0x2 DUP7 ADD SLOAD DUP1 DUP3 AND PUSH2 0x100 DUP1 DUP9 ADD SWAP2 SWAP1 SWAP2 MSTORE DUP2 DIV DUP3 AND PUSH2 0x120 DUP8 ADD MSTORE PUSH3 0x10000 DUP2 DIV DUP3 AND PUSH2 0x140 DUP8 ADD MSTORE PUSH4 0x1000000 DUP2 DIV SWAP1 SWAP2 AND PUSH2 0x160 DUP7 ADD MSTORE PUSH5 0x100000000 SWAP1 DIV DUP4 AND PUSH2 0x180 DUP6 ADD MSTORE PUSH1 0x3 DUP6 ADD SLOAD SWAP1 SWAP3 AND PUSH2 0x1A0 DUP5 ADD MSTORE PUSH1 0x4 DUP5 ADD DUP1 SLOAD DUP4 MLOAD DUP2 DUP5 MUL DUP2 ADD DUP5 ADD SWAP1 SWAP5 MSTORE DUP1 DUP5 MSTORE PUSH2 0x1C0 SWAP1 SWAP5 ADD SWAP4 SWAP1 SWAP2 DUP4 ADD DUP3 DUP3 DUP1 ISZERO PUSH2 0x1788 JUMPI PUSH1 0x20 MUL DUP3 ADD SWAP2 SWAP1 PUSH1 0x0 MSTORE PUSH1 0x20 PUSH1 0x0 KECCAK256 SWAP1 PUSH1 0x0 SWAP1 JUMPDEST DUP3 DUP3 SWAP1 SLOAD SWAP1 PUSH2 0x100 EXP SWAP1 DIV PUSH1 0xF SIGNEXTEND PUSH1 0xF SIGNEXTEND DUP2 MSTORE PUSH1 0x20 ADD SWAP1 PUSH1 0x10 ADD SWAP1 PUSH1 0x20 DUP3 PUSH1 0xF ADD DIV SWAP3 DUP4 ADD SWAP3 PUSH1 0x1 SUB DUP3 MUL SWAP2 POP DUP1 DUP5 GT PUSH2 0x1751 JUMPI SWAP1 POP JUMPDEST POP POP POP POP POP DUP2 MSTORE POP POP PUSH2 0x2885 JUMP JUMPDEST DUP7 PUSH1 0x0 PUSH1 0x40 MLOAD PUSH1 0x20 ADD PUSH2 0x17AB SWAP4 SWAP3 SWAP2 SWAP1 PUSH2 0x3F4F JUMP JUMPDEST PUSH1 0x40 MLOAD PUSH1 0x20 DUP2 DUP4 SUB SUB DUP2 MSTORE SWAP1 PUSH1 0x40 MSTORE DUP1 MLOAD SWAP1 PUSH1 0x20 ADD KECCAK256 DUP8 PUSH2 0x295C JUMP JUMPDEST PUSH20 0xFFFFFFFFFFFFFFFFFFFFFFFFFFFFFFFFFFFFFFFF AND EQ PUSH2 0x1814 JUMPI PUSH1 0x40 MLOAD PUSH32 0x8C379A000000000000000000000000000000000000000000000000000000000 DUP2 MSTORE PUSH1 0x4 ADD PUSH2 0x3A1 SWAP1 PUSH2 0x435F JUMP JUMPDEST DUP1 SLOAD PUSH19 0x1000000000000000000000000000000000000 SWAP1 DIV PUSH1 0xFF AND ISZERO PUSH2 0x183A JUMPI POP PUSH2 0x1BE1 JUMP JUMPDEST PUSH1 0x0 DUP1 PUSH1 0x1 PUSH1 0x2 DUP5 ADD SLOAD PUSH9 0x10000000000000000 SWAP1 DIV AND PUSH1 0xFF AND ISZERO PUSH2 0x18C1 JUMPI POP POP PUSH1 0x5 DUP2 ADD SLOAD PUSH1 0x0 JUMPDEST PUSH1 0x5 DUP4 ADD SLOAD DUP2 LT ISZERO PUSH2 0x18BC JUMPI PUSH1 0x5 DUP4 ADD DUP1 SLOAD DUP3 SWAP1 DUP2 LT PUSH2 0x187F JUMPI INVALID JUMPDEST SWAP1 PUSH1 0x0 MSTORE PUSH1 0x20 PUSH1 0x0 KECCAK256 SWAP1 PUSH1 0x2 SWAP2 DUP3 DUP3 DIV ADD SWAP2 SWAP1 MOD PUSH1 0x10 MUL SWAP1 SLOAD SWAP1 PUSH2 0x100 EXP SWAP1 DIV PUSH1 0xF SIGNEXTEND PUSH1 0xF SIGNEXTEND DUP7 SLT ISZERO PUSH2 0x18B4 JUMPI DUP1 SWAP2 POP PUSH2 0x18BC JUMP JUMPDEST PUSH1 0x1 ADD PUSH2 0x1863 JUMP JUMPDEST PUSH2 0x1921 JUMP JUMPDEST POP PUSH1 0x0 SWAP1 POP DUP1 JUMPDEST PUSH1 0x5 DUP4 ADD SLOAD DUP2 LT ISZERO PUSH2 0x1921 JUMPI PUSH1 0x5 DUP4 ADD DUP1 SLOAD DUP3 SWAP1 DUP2 LT PUSH2 0x18E4 JUMPI INVALID JUMPDEST SWAP1 PUSH1 0x0 MSTORE PUSH1 0x20 PUSH1 0x0 KECCAK256 SWAP1 PUSH1 0x2 SWAP2 DUP3 DUP3 DIV ADD SWAP2 SWAP1 MOD PUSH1 0x10 MUL SWAP1 SLOAD SWAP1 PUSH2 0x100 EXP SWAP1 DIV PUSH1 0xF SIGNEXTEND PUSH1 0xF SIGNEXTEND DUP7 EQ ISZERO PUSH2 0x1919 JUMPI DUP1 SWAP2 POP PUSH2 0x1921 JUMP JUMPDEST PUSH1 0x1 ADD PUSH2 0x18C8 JUMP JUMPDEST DUP3 SLOAD PUSH19 0x1000000000000000000000000000000000000 PUSH32 0xFFFFFFFFFFFFFFFFFFFFFFFFFFFF0000FFFFFFFFFFFFFFFFFFFFFFFFFFFFFFFF SWAP1 SWAP2 AND PUSH17 0x100000000000000000000000000000000 PUSH2 0xFFFF DUP6 AND MUL OR PUSH32 0xFFFFFFFFFFFFFFFFFFFFFFFFFF00FFFFFFFFFFFFFFFFFFFFFFFFFFFFFFFFFFFF AND OR DUP4 SSTORE PUSH1 0x3 DUP4 ADD SLOAD PUSH1 0x0 SWAP1 PUSH2 0x19C9 SWAP1 PUSH1 0xFF PUSH4 0x1000000 DUP3 DIV DUP2 AND SWAP2 PUSH2 0xBEE SWAP2 PUSH2 0x100 DUP3 DIV DUP2 AND SWAP2 PUSH3 0x10000 SWAP1 DIV AND PUSH2 0x24A2 JUMP JUMPDEST DUP5 SLOAD SWAP1 SWAP2 POP PUSH1 0x0 SWAP1 DUP3 SWAP1 PUSH16 0xFFFFFFFFFFFFFFFFFFFFFFFFFFFFFFFF AND DUP2 PUSH2 0x19EC JUMPI INVALID JUMPDEST PUSH1 0x3 DUP8 ADD SLOAD SWAP2 SWAP1 DIV SWAP2 POP PUSH2 0x1A47 SWAP1 PUSH2 0x1A0D SWAP1 DUP4 SWAP1 PUSH2 0x100 SWAP1 DIV PUSH1 0xFF AND PUSH2 0x26CC JUMP JUMPDEST PUSH1 0x3 DUP8 DUP2 ADD SLOAD PUSH5 0x100000000 SWAP1 DIV PUSH20 0xFFFFFFFFFFFFFFFFFFFFFFFFFFFFFFFFFFFFFFFF AND PUSH1 0x0 SWAP1 DUP2 MSTORE PUSH1 0x20 SWAP2 SWAP1 SWAP2 MSTORE PUSH1 0x40 SWAP1 KECCAK256 SLOAD SWAP1 PUSH2 0x24A2 JUMP JUMPDEST PUSH1 0x3 DUP7 DUP2 ADD DUP1 SLOAD PUSH5 0x100000000 SWAP1 DIV PUSH20 0xFFFFFFFFFFFFFFFFFFFFFFFFFFFFFFFFFFFFFFFF AND PUSH1 0x0 SWAP1 DUP2 MSTORE PUSH1 0x20 SWAP3 SWAP1 SWAP3 MSTORE PUSH1 0x40 SWAP1 SWAP2 KECCAK256 SWAP2 SWAP1 SWAP2 SSTORE SLOAD PUSH2 0x1ACF SWAP1 PUSH2 0x1A99 SWAP1 DUP4 SWAP1 PUSH3 0x10000 SWAP1 DIV PUSH1 0xFF AND PUSH2 0x26CC JUMP JUMPDEST PUSH1 0x4 DUP8 ADD SLOAD PUSH20 0xFFFFFFFFFFFFFFFFFFFFFFFFFFFFFFFFFFFFFFFF AND PUSH1 0x0 SWAP1 DUP2 MSTORE PUSH1 0x3 PUSH1 0x20 MSTORE PUSH1 0x40 SWAP1 KECCAK256 SLOAD SWAP1 PUSH4 0xFFFFFFFF PUSH2 0x24A2 AND JUMP JUMPDEST PUSH1 0x4 DUP7 ADD SLOAD PUSH20 0xFFFFFFFFFFFFFFFFFFFFFFFFFFFFFFFFFFFFFFFF AND PUSH1 0x0 SWAP1 DUP2 MSTORE PUSH1 0x3 PUSH1 0x20 DUP2 SWAP1 MSTORE PUSH1 0x40 SWAP1 SWAP2 KECCAK256 SWAP2 SWAP1 SWAP2 SSTORE DUP6 ADD SLOAD PUSH2 0x1B5B SWAP1 PUSH2 0x1B1B SWAP1 DUP4 SWAP1 PUSH4 0x1000000 SWAP1 DIV PUSH1 0xFF AND PUSH2 0x26CC JUMP JUMPDEST PUSH1 0x2 DUP8 ADD SLOAD PUSH13 0x1000000000000000000000000 SWAP1 DIV PUSH20 0xFFFFFFFFFFFFFFFFFFFFFFFFFFFFFFFFFFFFFFFF AND PUSH1 0x0 SWAP1 DUP2 MSTORE PUSH1 0x3 PUSH1 0x20 MSTORE PUSH1 0x40 SWAP1 KECCAK256 SLOAD SWAP1 PUSH2 0x24A2 JUMP JUMPDEST PUSH1 0x2 DUP7 ADD SLOAD PUSH13 0x1000000000000000000000000 SWAP1 DIV PUSH20 0xFFFFFFFFFFFFFFFFFFFFFFFFFFFFFFFFFFFFFFFF AND PUSH1 0x0 SWAP1 DUP2 MSTORE PUSH1 0x3 PUSH1 0x20 MSTORE PUSH1 0x40 SWAP1 DUP2 SWAP1 KECCAK256 SWAP2 SWAP1 SWAP2 SSTORE MLOAD PUSH32 0xBC368577AA675EA916E9069E5C84C091AB02483DCC1A83CDA5F0124B39B0F2E9 SWAP1 PUSH2 0x1BC8 SWAP1 DUP13 SWAP1 PUSH2 0x42C8 JUMP JUMPDEST PUSH1 0x40 MLOAD DUP1 SWAP2 SUB SWAP1 LOG1 PUSH2 0x1BDB DUP11 DUP9 DUP9 PUSH2 0x2ED JUMP JUMPDEST POP POP POP POP POP JUMPDEST POP POP POP POP POP JUMP JUMPDEST PUSH2 0x1BF0 PUSH2 0x330E JUMP JUMPDEST PUSH1 0x0 DUP3 DUP2 MSTORE PUSH1 0x4 PUSH1 0x20 MSTORE PUSH1 0x40 SWAP1 KECCAK256 PUSH2 0x1C06 PUSH2 0x30E9 JUMP JUMPDEST DUP2 PUSH1 0x1 ADD PUSH1 0x40 MLOAD DUP1 PUSH2 0x1E0 ADD PUSH1 0x40 MSTORE SWAP1 DUP2 PUSH1 0x0 DUP3 ADD DUP1 SLOAD PUSH1 0x1 DUP2 PUSH1 0x1 AND ISZERO PUSH2 0x100 MUL SUB AND PUSH1 0x2 SWAP1 DIV DUP1 PUSH1 0x1F ADD PUSH1 0x20 DUP1 SWAP2 DIV MUL PUSH1 0x20 ADD PUSH1 0x40 MLOAD SWAP1 DUP2 ADD PUSH1 0x40 MSTORE DUP1 SWAP3 SWAP2 SWAP1 DUP2 DUP2 MSTORE PUSH1 0x20 ADD DUP3 DUP1 SLOAD PUSH1 0x1 DUP2 PUSH1 0x1 AND ISZERO PUSH2 0x100 MUL SUB AND PUSH1 0x2 SWAP1 DIV DUP1 ISZERO PUSH2 0x1CAF JUMPI DUP1 PUSH1 0x1F LT PUSH2 0x1C84 JUMPI PUSH2 0x100 DUP1 DUP4 SLOAD DIV MUL DUP4 MSTORE SWAP2 PUSH1 0x20 ADD SWAP2 PUSH2 0x1CAF JUMP JUMPDEST DUP3 ADD SWAP2 SWAP1 PUSH1 0x0 MSTORE PUSH1 0x20 PUSH1 0x0 KECCAK256 SWAP1 JUMPDEST DUP2 SLOAD DUP2 MSTORE SWAP1 PUSH1 0x1 ADD SWAP1 PUSH1 0x20 ADD DUP1 DUP4 GT PUSH2 0x1C92 JUMPI DUP3 SWAP1 SUB PUSH1 0x1F AND DUP3 ADD SWAP2 JUMPDEST POP POP POP SWAP2 DUP4 MSTORE POP POP PUSH1 0x1 DUP3 ADD SLOAD PUSH5 0xFFFFFFFFFF DUP2 AND PUSH1 0x20 DUP1 DUP5 ADD SWAP2 SWAP1 SWAP2 MSTORE PUSH3 0xFFFFFF PUSH6 0x10000000000 DUP4 DIV AND PUSH1 0x40 DUP1 DUP6 ADD SWAP2 SWAP1 SWAP2 MSTORE PUSH1 0xFF PUSH9 0x10000000000000000 DUP5 DIV DUP2 AND PUSH1 0x60 DUP7 ADD MSTORE PUSH10 0x1000000000000000000 DUP5 DIV DUP2 AND PUSH1 0x80 DUP7 ADD MSTORE PUSH11 0x100000000000000000000 DUP5 DIV DUP2 AND PUSH1 0xA0 DUP7 ADD MSTORE PUSH12 0x10000000000000000000000 DUP5 DIV PUSH1 0x0 SWAP1 DUP2 SIGNEXTEND DUP2 SIGNEXTEND SWAP1 SIGNEXTEND PUSH1 0xC0 DUP7 ADD MSTORE PUSH20 0xFFFFFFFFFFFFFFFFFFFFFFFFFFFFFFFFFFFFFFFF PUSH13 0x1000000000000000000000000 SWAP1 SWAP5 DIV DUP5 AND PUSH1 0xE0 DUP7 ADD MSTORE PUSH1 0x2 DUP7 ADD SLOAD DUP1 DUP3 AND PUSH2 0x100 DUP1 DUP9 ADD SWAP2 SWAP1 SWAP2 MSTORE DUP2 DIV DUP3 AND PUSH2 0x120 DUP8 ADD MSTORE PUSH3 0x10000 DUP2 DIV DUP3 AND PUSH2 0x140 DUP8 ADD MSTORE PUSH4 0x1000000 DUP2 DIV SWAP1 SWAP2 AND PUSH2 0x160 DUP7 ADD MSTORE PUSH5 0x100000000 SWAP1 DIV DUP4 AND PUSH2 0x180 DUP6 ADD MSTORE PUSH1 0x3 DUP6 ADD SLOAD SWAP1 SWAP3 AND PUSH2 0x1A0 DUP5 ADD MSTORE PUSH1 0x4 DUP5 ADD DUP1 SLOAD DUP4 MLOAD DUP2 DUP5 MUL DUP2 ADD DUP5 ADD SWAP1 SWAP5 MSTORE DUP1 DUP5 MSTORE PUSH2 0x1C0 SWAP1 SWAP5 ADD SWAP4 SWAP1 SWAP2 DUP4 ADD DUP3 DUP3 DUP1 ISZERO PUSH2 0x1E37 JUMPI PUSH1 0x20 MUL DUP3 ADD SWAP2 SWAP1 PUSH1 0x0 MSTORE PUSH1 0x20 PUSH1 0x0 KECCAK256 SWAP1 PUSH1 0x0 SWAP1 JUMPDEST DUP3 DUP3 SWAP1 SLOAD SWAP1 PUSH2 0x100 EXP SWAP1 DIV PUSH1 0xF SIGNEXTEND PUSH1 0xF SIGNEXTEND DUP2 MSTORE PUSH1 0x20 ADD SWAP1 PUSH1 0x10 ADD SWAP1 PUSH1 0x20 DUP3 PUSH1 0xF ADD DIV SWAP3 DUP4 ADD SWAP3 PUSH1 0x1 SUB DUP3 MUL SWAP2 POP DUP1 DUP5 GT PUSH2 0x1E00 JUMPI SWAP1 POP JUMPDEST POP POP POP POP POP DUP2 MSTORE POP POP SWAP1 POP PUSH2 0x1E4A PUSH2 0x30C9 JUMP JUMPDEST POP PUSH1 0x40 DUP1 MLOAD PUSH1 0x60 DUP1 DUP3 ADD DUP4 MSTORE DUP5 SLOAD PUSH16 0xFFFFFFFFFFFFFFFFFFFFFFFFFFFFFFFF DUP2 AND DUP4 MSTORE PUSH17 0x100000000000000000000000000000000 DUP2 DIV PUSH2 0xFFFF AND PUSH1 0x20 DUP1 DUP6 ADD SWAP2 SWAP1 SWAP2 MSTORE PUSH19 0x1000000000000000000000000000000000000 SWAP1 SWAP2 DIV PUSH1 0xFF AND ISZERO ISZERO DUP4 DUP6 ADD MSTORE DUP4 MLOAD PUSH1 0xA0 DUP2 ADD DUP6 MSTORE DUP6 DUP2 MSTORE SWAP1 DUP2 ADD DUP4 SWAP1 MSTORE SWAP3 DUP4 ADD DUP8 SWAP1 MSTORE SWAP1 SWAP2 SWAP1 DUP2 ADD PUSH2 0x1ED4 DUP9 DUP7 PUSH2 0x219E JUMP JUMPDEST PUSH1 0x2 DUP2 GT ISZERO PUSH2 0x1EDF JUMPI INVALID JUMPDEST DUP2 MSTORE PUSH1 0x0 PUSH1 0x20 SWAP1 SWAP2 ADD MSTORE SWAP7 SWAP6 POP POP POP POP POP POP JUMP JUMPDEST PUSH2 0x1EFB PUSH2 0x3349 JUMP JUMPDEST PUSH1 0x0 JUMPDEST DUP4 MLOAD DUP2 LT ISZERO PUSH2 0x1F31 JUMPI DUP4 DUP2 DUP2 MLOAD DUP2 LT PUSH2 0x1F13 JUMPI INVALID JUMPDEST PUSH1 0x20 MUL PUSH1 0x20 ADD ADD MLOAD SWAP2 POP PUSH2 0x1F27 DUP3 DUP5 PUSH2 0x2AAC JUMP JUMPDEST SWAP3 POP PUSH1 0x1 ADD PUSH2 0x1EFE JUMP JUMPDEST POP POP POP POP JUMP JUMPDEST PUSH2 0x1F3F PUSH2 0x30E9 JUMP JUMPDEST PUSH1 0x0 DUP3 DUP2 MSTORE PUSH1 0x4 PUSH1 0x20 SWAP1 DUP2 MSTORE PUSH1 0x40 SWAP2 DUP3 SWAP1 KECCAK256 DUP3 MLOAD PUSH1 0x1 DUP1 DUP4 ADD DUP1 SLOAD PUSH1 0x2 SWAP3 DUP2 AND ISZERO PUSH2 0x100 MUL PUSH32 0xFFFFFFFFFFFFFFFFFFFFFFFFFFFFFFFFFFFFFFFFFFFFFFFFFFFFFFFFFFFFFFFF ADD AND SWAP2 SWAP1 SWAP2 DIV PUSH1 0x1F DUP2 ADD DUP6 SWAP1 DIV SWAP1 SWAP5 MUL DUP3 ADD PUSH2 0x200 SWAP1 DUP2 ADD SWAP1 SWAP6 MSTORE PUSH2 0x1E0 DUP3 ADD DUP5 DUP2 MSTORE SWAP3 SWAP5 SWAP2 SWAP4 SWAP1 SWAP3 DUP5 SWAP3 SWAP1 SWAP2 DUP5 SWAP2 DUP5 ADD DUP3 DUP3 DUP1 ISZERO PUSH2 0x2005 JUMPI DUP1 PUSH1 0x1F LT PUSH2 0x1FDA JUMPI PUSH2 0x100 DUP1 DUP4 SLOAD DIV MUL DUP4 MSTORE SWAP2 PUSH1 0x20 ADD SWAP2 PUSH2 0x2005 JUMP JUMPDEST DUP3 ADD SWAP2 SWAP1 PUSH1 0x0 MSTORE PUSH1 0x20 PUSH1 0x0 KECCAK256 SWAP1 JUMPDEST DUP2 SLOAD DUP2 MSTORE SWAP1 PUSH1 0x1 ADD SWAP1 PUSH1 0x20 ADD DUP1 DUP4 GT PUSH2 0x1FE8 JUMPI DUP3 SWAP1 SUB PUSH1 0x1F AND DUP3 ADD SWAP2 JUMPDEST POP POP POP SWAP2 DUP4 MSTORE POP POP PUSH1 0x1 DUP3 ADD SLOAD PUSH5 0xFFFFFFFFFF DUP2 AND PUSH1 0x20 DUP1 DUP5 ADD SWAP2 SWAP1 SWAP2 MSTORE PUSH3 0xFFFFFF PUSH6 0x10000000000 DUP4 DIV AND PUSH1 0x40 DUP1 DUP6 ADD SWAP2 SWAP1 SWAP2 MSTORE PUSH1 0xFF PUSH9 0x10000000000000000 DUP5 DIV DUP2 AND PUSH1 0x60 DUP7 ADD MSTORE PUSH10 0x1000000000000000000 DUP5 DIV DUP2 AND PUSH1 0x80 DUP7 ADD MSTORE PUSH11 0x100000000000000000000 DUP5 DIV DUP2 AND PUSH1 0xA0 DUP7 ADD MSTORE PUSH12 0x10000000000000000000000 DUP5 DIV PUSH1 0x0 SWAP1 DUP2 SIGNEXTEND DUP2 SIGNEXTEND SWAP1 SIGNEXTEND PUSH1 0xC0 DUP7 ADD MSTORE PUSH20 0xFFFFFFFFFFFFFFFFFFFFFFFFFFFFFFFFFFFFFFFF PUSH13 0x1000000000000000000000000 SWAP1 SWAP5 DIV DUP5 AND PUSH1 0xE0 DUP7 ADD MSTORE PUSH1 0x2 DUP7 ADD SLOAD DUP1 DUP3 AND PUSH2 0x100 DUP1 DUP9 ADD SWAP2 SWAP1 SWAP2 MSTORE DUP2 DIV DUP3 AND PUSH2 0x120 DUP8 ADD MSTORE PUSH3 0x10000 DUP2 DIV DUP3 AND PUSH2 0x140 DUP8 ADD MSTORE PUSH4 0x1000000 DUP2 DIV SWAP1 SWAP2 AND PUSH2 0x160 DUP7 ADD MSTORE PUSH5 0x100000000 SWAP1 DIV DUP4 AND PUSH2 0x180 DUP6 ADD MSTORE PUSH1 0x3 DUP6 ADD SLOAD SWAP1 SWAP3 AND PUSH2 0x1A0 DUP5 ADD MSTORE PUSH1 0x4 DUP5 ADD DUP1 SLOAD DUP4 MLOAD DUP2 DUP5 MUL DUP2 ADD DUP5 ADD SWAP1 SWAP5 MSTORE DUP1 DUP5 MSTORE PUSH2 0x1C0 SWAP1 SWAP5 ADD SWAP4 SWAP1 SWAP2 DUP4 ADD DUP3 DUP3 DUP1 ISZERO PUSH2 0x218D JUMPI PUSH1 0x20 MUL DUP3 ADD SWAP2 SWAP1 PUSH1 0x0 MSTORE PUSH1 0x20 PUSH1 0x0 KECCAK256 SWAP1 PUSH1 0x0 SWAP1 JUMPDEST DUP3 DUP3 SWAP1 SLOAD SWAP1 PUSH2 0x100 EXP SWAP1 DIV PUSH1 0xF SIGNEXTEND PUSH1 0xF SIGNEXTEND DUP2 MSTORE PUSH1 0x20 ADD SWAP1 PUSH1 0x10 ADD SWAP1 PUSH1 0x20 DUP3 PUSH1 0xF ADD DIV SWAP3 DUP4 ADD SWAP3 PUSH1 0x1 SUB DUP3 MUL SWAP2 POP DUP1 DUP5 GT PUSH2 0x2156 JUMPI SWAP1 POP JUMPDEST POP POP POP POP POP DUP2 MSTORE POP POP SWAP2 POP POP SWAP2 SWAP1 POP JUMP JUMPDEST PUSH20 0xFFFFFFFFFFFFFFFFFFFFFFFFFFFFFFFFFFFFFFFF DUP3 AND PUSH1 0x0 SWAP1 DUP2 MSTORE PUSH1 0x6 DUP3 ADD PUSH1 0x20 MSTORE PUSH1 0x40 DUP2 KECCAK256 DUP3 SLOAD PUSH19 0x1000000000000000000000000000000000000 SWAP1 DIV PUSH1 0xFF AND ISZERO PUSH2 0x2270 JUMPI PUSH2 0x21ED PUSH2 0x3167 JUMP JUMPDEST POP DUP3 SLOAD PUSH17 0x100000000000000000000000000000000 SWAP1 DUP2 SWAP1 DIV PUSH2 0xFFFF AND PUSH1 0x0 SWAP1 DUP2 MSTORE PUSH1 0x20 DUP4 DUP2 MSTORE PUSH1 0x40 SWAP2 DUP3 SWAP1 KECCAK256 DUP3 MLOAD DUP1 DUP5 ADD SWAP1 SWAP4 MSTORE SLOAD PUSH1 0xF DUP2 DUP2 SIGNEXTEND DUP2 SIGNEXTEND SWAP1 SIGNEXTEND DUP4 MSTORE SWAP3 SWAP1 SWAP3 DIV PUSH1 0xFF AND SWAP2 DUP2 ADD DUP3 SWAP1 MSTORE SWAP1 PUSH1 0x2 EQ DUP1 PUSH2 0x225E JUMPI POP PUSH1 0x20 DUP2 ADD MLOAD PUSH1 0xFF AND PUSH1 0x1 EQ DUP1 ISZERO PUSH2 0x225E JUMPI POP DUP1 MLOAD PUSH1 0xF SIGNEXTEND ISZERO JUMPDEST ISZERO PUSH2 0x226E JUMPI PUSH1 0x2 SWAP3 POP POP POP PUSH2 0x626 JUMP JUMPDEST POP JUMPDEST PUSH1 0x0 JUMPDEST PUSH1 0x5 DUP5 ADD SLOAD DUP2 GT PUSH2 0x22BC JUMPI PUSH1 0x0 DUP2 DUP2 MSTORE PUSH1 0x20 DUP4 SWAP1 MSTORE PUSH1 0x40 SWAP1 KECCAK256 SLOAD PUSH17 0x100000000000000000000000000000000 SWAP1 DIV PUSH1 0xFF AND ISZERO PUSH2 0x22B4 JUMPI PUSH1 0x1 SWAP3 POP POP POP PUSH2 0x626 JUMP JUMPDEST PUSH1 0x1 ADD PUSH2 0x2273 JUMP JUMPDEST POP PUSH1 0x0 SWAP5 SWAP4 POP POP POP POP JUMP JUMPDEST PUSH1 0x5 DUP3 ADD SLOAD PUSH20 0xFFFFFFFFFFFFFFFFFFFFFFFFFFFFFFFFFFFFFFFF DUP3 AND PUSH1 0x0 SWAP1 DUP2 MSTORE PUSH1 0x6 DUP5 ADD PUSH1 0x20 MSTORE PUSH1 0x40 DUP2 KECCAK256 SWAP1 SWAP2 PUSH32 0x7FFFFFFFFFFFFFFFFFFFFFFFFFFFFFFFFFFFFFFFFFFFFFFFFFFFFFFFFFFFFFFF SWAP2 DUP4 DUP1 JUMPDEST DUP4 DUP2 GT PUSH2 0x234D JUMPI PUSH1 0x0 DUP2 DUP2 MSTORE PUSH1 0x20 DUP5 SWAP1 MSTORE PUSH1 0x40 SWAP1 KECCAK256 SLOAD PUSH1 0xF SWAP1 DUP2 SIGNEXTEND SWAP1 SIGNEXTEND SWAP2 POP DUP5 DUP3 SLT ISZERO PUSH2 0x2345 JUMPI DUP2 SWAP5 POP JUMPDEST PUSH1 0x1 ADD PUSH2 0x231A JUMP JUMPDEST POP SWAP3 SWAP7 SWAP6 POP POP POP POP POP POP JUMP JUMPDEST PUSH1 0x0 DUP2 DUP4 SUB DUP2 DUP4 SLT DUP1 ISZERO SWAP1 PUSH2 0x236E JUMPI POP DUP4 DUP2 SGT ISZERO JUMPDEST DUP1 PUSH2 0x2383 JUMPI POP PUSH1 0x0 DUP4 SLT DUP1 ISZERO PUSH2 0x2383 JUMPI POP DUP4 DUP2 SGT JUMPDEST PUSH2 0x12B4 JUMPI PUSH1 0x40 MLOAD PUSH32 0x8C379A000000000000000000000000000000000000000000000000000000000 DUP2 MSTORE PUSH1 0x4 ADD PUSH2 0x3A1 SWAP1 PUSH2 0x4552 JUMP JUMPDEST PUSH1 0x0 DUP3 PUSH2 0x23C8 JUMPI POP PUSH1 0x0 PUSH2 0x626 JUMP JUMPDEST DUP3 PUSH32 0xFFFFFFFFFFFFFFFFFFFFFFFFFFFFFFFFFFFFFFFFFFFFFFFFFFFFFFFFFFFFFFFF EQ DUP1 ISZERO PUSH2 0x2416 JUMPI POP PUSH32 0x8000000000000000000000000000000000000000000000000000000000000000 DUP3 EQ JUMPDEST ISZERO PUSH2 0x244D JUMPI PUSH1 0x40 MLOAD PUSH32 0x8C379A000000000000000000000000000000000000000000000000000000000 DUP2 MSTORE PUSH1 0x4 ADD PUSH2 0x3A1 SWAP1 PUSH2 0x44BE JUMP JUMPDEST DUP3 DUP3 MUL DUP3 DUP5 DUP3 DUP2 PUSH2 0x245A JUMPI INVALID JUMPDEST SDIV EQ PUSH2 0x12B4 JUMPI PUSH1 0x40 MLOAD PUSH32 0x8C379A000000000000000000000000000000000000000000000000000000000 DUP2 MSTORE PUSH1 0x4 ADD PUSH2 0x3A1 SWAP1 PUSH2 0x44BE JUMP JUMPDEST PUSH1 0x0 DUP1 DUP3 SLT ISZERO PUSH2 0x249E JUMPI INVALID JUMPDEST POP SWAP1 JUMP JUMPDEST PUSH1 0x0 DUP3 DUP3 ADD DUP4 DUP2 LT ISZERO PUSH2 0x12B4 JUMPI PUSH1 0x40 MLOAD PUSH32 0x8C379A000000000000000000000000000000000000000000000000000000000 DUP2 MSTORE PUSH1 0x4 ADD PUSH2 0x3A1 SWAP1 PUSH2 0x43CD JUMP JUMPDEST PUSH1 0x0 DUP1 DUP1 PUSH2 0x24FC PUSH5 0xFFFFFFFFFF DUP6 AND TIMESTAMP PUSH4 0xFFFFFFFF PUSH2 0x25A2 AND JUMP JUMPDEST SWAP1 POP PUSH4 0x3C26700 DUP2 LT PUSH2 0x253B JUMPI PUSH1 0x40 MLOAD PUSH32 0x8C379A000000000000000000000000000000000000000000000000000000000 DUP2 MSTORE PUSH1 0x4 ADD PUSH2 0x3A1 SWAP1 PUSH2 0x4396 JUMP JUMPDEST PUSH3 0x3B5380 DUP2 GT ISZERO PUSH2 0x2550 JUMPI PUSH1 0x1 JUMPDEST SWAP2 POP PUSH2 0x259B JUMP JUMPDEST PUSH3 0xA8C00 DUP2 GT ISZERO PUSH2 0x2562 JUMPI PUSH1 0x3 PUSH2 0x2549 JUMP JUMPDEST PUSH3 0x1FA40 DUP2 GT ISZERO PUSH2 0x2574 JUMPI PUSH1 0x4 PUSH2 0x2549 JUMP JUMPDEST PUSH2 0x1C20 DUP2 GT ISZERO PUSH2 0x2585 JUMPI PUSH1 0x5 PUSH2 0x2549 JUMP JUMPDEST PUSH2 0x384 DUP2 GT ISZERO PUSH2 0x2596 JUMPI PUSH1 0x6 PUSH2 0x2549 JUMP JUMPDEST PUSH1 0x7 SWAP2 POP JUMPDEST POP SWAP3 SWAP2 POP POP JUMP JUMPDEST PUSH1 0x0 PUSH2 0x12B4 DUP4 DUP4 PUSH1 0x40 MLOAD DUP1 PUSH1 0x40 ADD PUSH1 0x40 MSTORE DUP1 PUSH1 0x1E DUP2 MSTORE PUSH1 0x20 ADD PUSH32 0x536166654D6174683A207375627472616374696F6E206F766572666C6F770000 DUP2 MSTORE POP PUSH2 0x2EE0 JUMP JUMPDEST PUSH1 0x0 DUP1 PUSH1 0x40 MLOAD DUP1 PUSH1 0x40 ADD PUSH1 0x40 MSTORE DUP1 PUSH1 0x1C DUP2 MSTORE PUSH1 0x20 ADD PUSH32 0x19457468657265756D205369676E6564204D6573736167653A0A333200000000 DUP2 MSTORE POP DUP5 PUSH1 0x40 MLOAD PUSH1 0x20 ADD PUSH2 0x262F SWAP3 SWAP2 SWAP1 PUSH2 0x4158 JUMP JUMPDEST PUSH1 0x40 MLOAD PUSH1 0x20 DUP2 DUP4 SUB SUB DUP2 MSTORE SWAP1 PUSH1 0x40 MSTORE DUP1 MLOAD SWAP1 PUSH1 0x20 ADD KECCAK256 SWAP1 POP PUSH1 0x0 PUSH1 0x1 DUP3 DUP6 PUSH1 0x0 ADD MLOAD DUP7 PUSH1 0x20 ADD MLOAD DUP8 PUSH1 0x40 ADD MLOAD PUSH1 0x40 MLOAD PUSH1 0x0 DUP2 MSTORE PUSH1 0x20 ADD PUSH1 0x40 MSTORE PUSH1 0x40 MLOAD PUSH2 0x2678 SWAP5 SWAP4 SWAP3 SWAP2 SWAP1 PUSH2 0x42F7 JUMP JUMPDEST PUSH1 0x20 PUSH1 0x40 MLOAD PUSH1 0x20 DUP2 SUB SWAP1 DUP1 DUP5 SUB SWAP1 DUP6 GAS STATICCALL ISZERO DUP1 ISZERO PUSH2 0x269A JUMPI RETURNDATASIZE PUSH1 0x0 DUP1 RETURNDATACOPY RETURNDATASIZE PUSH1 0x0 REVERT JUMPDEST POP POP PUSH1 0x40 MLOAD PUSH32 0xFFFFFFFFFFFFFFFFFFFFFFFFFFFFFFFFFFFFFFFFFFFFFFFFFFFFFFFFFFFFFFE0 ADD MLOAD SWAP7 SWAP6 POP POP POP POP POP POP JUMP JUMPDEST PUSH1 0x0 DUP3 PUSH2 0x26DB JUMPI POP PUSH1 0x0 PUSH2 0x626 JUMP JUMPDEST DUP3 DUP3 MUL DUP3 DUP5 DUP3 DUP2 PUSH2 0x26E8 JUMPI INVALID JUMPDEST DIV EQ PUSH2 0x12B4 JUMPI PUSH1 0x40 MLOAD PUSH32 0x8C379A000000000000000000000000000000000000000000000000000000000 DUP2 MSTORE PUSH1 0x4 ADD PUSH2 0x3A1 SWAP1 PUSH2 0x4461 JUMP JUMPDEST PUSH1 0x0 PUSH2 0x12B4 DUP4 DUP4 PUSH1 0x40 MLOAD DUP1 PUSH1 0x40 ADD PUSH1 0x40 MSTORE DUP1 PUSH1 0x1A DUP2 MSTORE PUSH1 0x20 ADD PUSH32 0x536166654D6174683A206469766973696F6E206279207A65726F000000000000 DUP2 MSTORE POP PUSH2 0x2F26 JUMP JUMPDEST PUSH20 0xFFFFFFFFFFFFFFFFFFFFFFFFFFFFFFFFFFFFFFFF DUP4 AND PUSH1 0x0 SWAP1 DUP2 MSTORE PUSH1 0x3 PUSH1 0x20 MSTORE PUSH1 0x40 DUP2 KECCAK256 SLOAD DUP2 SWAP1 PUSH2 0x2793 SWAP1 PUSH2 0x285A JUMP JUMPDEST SWAP1 POP PUSH1 0x0 DUP8 PUSH2 0x27D8 JUMPI PUSH2 0x27B5 PUSH2 0x27A8 DUP6 PUSH2 0x285A JUMP JUMPDEST DUP4 SWAP1 PUSH4 0xFFFFFFFF PUSH2 0x2F77 AND JUMP JUMPDEST SWAP2 POP PUSH2 0x27D1 PUSH2 0x27C3 DUP7 PUSH2 0x285A JUMP JUMPDEST PUSH1 0x0 SWAP1 PUSH4 0xFFFFFFFF PUSH2 0x2359 AND JUMP JUMPDEST SWAP1 POP PUSH2 0x27FF JUMP JUMPDEST PUSH2 0x27F1 PUSH2 0x27E4 DUP6 PUSH2 0x285A JUMP JUMPDEST DUP4 SWAP1 PUSH4 0xFFFFFFFF PUSH2 0x2359 AND JUMP JUMPDEST SWAP2 POP PUSH2 0x27FC DUP6 PUSH2 0x285A JUMP JUMPDEST SWAP1 POP JUMPDEST PUSH1 0x0 DUP1 PUSH2 0x2812 DUP12 DUP10 DUP12 PUSH1 0x20 ADD MLOAD DUP7 PUSH2 0x2FD7 JUMP JUMPDEST SWAP1 SWAP3 POP SWAP1 POP PUSH2 0x284B PUSH2 0x283E PUSH4 0x3B9ACA00 PUSH2 0x2832 DUP5 DUP7 PUSH4 0xFFFFFFFF PUSH2 0x2359 AND JUMP JUMPDEST SWAP1 PUSH4 0xFFFFFFFF PUSH2 0x23B9 AND JUMP JUMPDEST DUP6 SWAP1 PUSH4 0xFFFFFFFF PUSH2 0x2F77 AND JUMP JUMPDEST SWAP12 SWAP11 POP POP POP POP POP POP POP POP POP POP POP JUMP JUMPDEST PUSH1 0x0 PUSH32 0x8000000000000000000000000000000000000000000000000000000000000000 DUP3 LT PUSH2 0x249E JUMPI INVALID JUMPDEST PUSH1 0x0 PUSH1 0x60 DUP3 PUSH1 0x0 ADD MLOAD PUSH1 0x40 MLOAD PUSH1 0x20 ADD PUSH2 0x289E SWAP2 SWAP1 PUSH2 0x41EA JUMP JUMPDEST PUSH1 0x40 MLOAD PUSH1 0x20 DUP2 DUP4 SUB SUB DUP2 MSTORE SWAP1 PUSH1 0x40 MSTORE DUP1 MLOAD SWAP1 PUSH1 0x20 ADD KECCAK256 DUP4 PUSH1 0x20 ADD MLOAD DUP5 PUSH1 0x40 ADD MLOAD DUP6 PUSH1 0x60 ADD MLOAD DUP7 PUSH1 0x80 ADD MLOAD DUP8 PUSH1 0xA0 ADD MLOAD DUP9 PUSH1 0xC0 ADD MLOAD PUSH1 0x40 MLOAD PUSH1 0x20 ADD PUSH2 0x28E8 SWAP8 SWAP7 SWAP6 SWAP5 SWAP4 SWAP3 SWAP2 SWAP1 PUSH2 0x3F8A JUMP JUMPDEST PUSH1 0x40 DUP1 MLOAD DUP1 DUP4 SUB PUSH32 0xFFFFFFFFFFFFFFFFFFFFFFFFFFFFFFFFFFFFFFFFFFFFFFFFFFFFFFFFFFFFFFE0 ADD DUP2 MSTORE SWAP2 SWAP1 MSTORE PUSH1 0x60 DUP5 ADD MLOAD SWAP1 SWAP2 POP PUSH1 0x1 AND PUSH2 0x294E JUMPI PUSH2 0x1C0 DUP4 ADD MLOAD PUSH1 0x40 MLOAD PUSH2 0x293C SWAP2 DUP4 SWAP2 PUSH1 0x20 ADD PUSH2 0x4131 JUMP JUMPDEST PUSH1 0x40 MLOAD PUSH1 0x20 DUP2 DUP4 SUB SUB DUP2 MSTORE SWAP1 PUSH1 0x40 MSTORE SWAP1 POP JUMPDEST DUP1 MLOAD PUSH1 0x20 SWAP1 SWAP2 ADD KECCAK256 SWAP3 SWAP2 POP POP JUMP JUMPDEST PUSH1 0x0 DUP1 PUSH1 0x40 MLOAD DUP1 PUSH1 0x40 ADD PUSH1 0x40 MSTORE DUP1 PUSH1 0x1E DUP2 MSTORE PUSH1 0x20 ADD PUSH32 0x19466163747369676E6572205369676E6564204D6573736167653A0A33320000 DUP2 MSTORE POP DUP5 PUSH1 0x40 MLOAD PUSH1 0x20 ADD PUSH2 0x262F SWAP3 SWAP2 SWAP1 PUSH2 0x4158 JUMP JUMPDEST PUSH1 0x0 PUSH1 0x60 DUP3 PUSH1 0x0 ADD MLOAD PUSH1 0x40 MLOAD PUSH1 0x20 ADD PUSH2 0x29C0 SWAP2 SWAP1 PUSH2 0x41EA JUMP JUMPDEST PUSH1 0x40 MLOAD PUSH1 0x20 DUP2 DUP4 SUB SUB DUP2 MSTORE SWAP1 PUSH1 0x40 MSTORE DUP1 MLOAD SWAP1 PUSH1 0x20 ADD KECCAK256 DUP4 PUSH1 0x20 ADD MLOAD DUP5 PUSH1 0x40 ADD MLOAD DUP6 PUSH1 0x60 ADD MLOAD DUP7 PUSH1 0x80 ADD MLOAD DUP8 PUSH1 0xA0 ADD MLOAD DUP9 PUSH1 0xC0 ADD MLOAD DUP10 PUSH2 0x100 ADD MLOAD DUP11 PUSH2 0x180 ADD MLOAD DUP12 PUSH2 0x1A0 ADD MLOAD DUP13 PUSH1 0xE0 ADD MLOAD PUSH1 0x40 MLOAD PUSH1 0x20 ADD PUSH2 0x2A25 SWAP12 SWAP11 SWAP10 SWAP9 SWAP8 SWAP7 SWAP6 SWAP5 SWAP4 SWAP3 SWAP2 SWAP1 PUSH2 0x403D JUMP JUMPDEST PUSH1 0x40 DUP1 MLOAD PUSH32 0xFFFFFFFFFFFFFFFFFFFFFFFFFFFFFFFFFFFFFFFFFFFFFFFFFFFFFFFFFFFFFFE0 DUP2 DUP5 SUB ADD DUP2 MSTORE SWAP1 DUP3 SWAP1 MSTORE PUSH2 0x120 DUP6 ADD MLOAD PUSH2 0x140 DUP7 ADD MLOAD PUSH2 0x160 DUP8 ADD MLOAD PUSH2 0x1C0 DUP9 ADD MLOAD SWAP4 SWAP6 POP PUSH2 0x293C SWAP5 DUP7 SWAP5 SWAP1 PUSH1 0x20 ADD PUSH2 0x417A JUMP JUMPDEST PUSH1 0x0 PUSH1 0x60 PUSH1 0x40 MLOAD DUP1 PUSH1 0x60 ADD PUSH1 0x40 MSTORE DUP1 PUSH1 0x2A DUP2 MSTORE PUSH1 0x20 ADD PUSH2 0x4720 PUSH1 0x2A SWAP2 CODECOPY PUSH1 0x1 DUP5 ADD PUSH1 0x6 MUL ADD MLOAD SWAP2 POP POP SWAP2 SWAP1 POP JUMP JUMPDEST PUSH1 0x0 PUSH2 0x2AB6 PUSH2 0x317E JUMP JUMPDEST POP DUP3 MLOAD DUP1 MLOAD PUSH1 0x0 SWAP1 DUP2 MSTORE PUSH1 0x4 PUSH1 0x20 MSTORE PUSH1 0x40 DUP1 DUP3 KECCAK256 SWAP1 DUP4 ADD MLOAD DUP3 SWAP2 SWAP1 DUP3 SWAP1 DUP2 SWAP1 ISZERO PUSH2 0x2AE7 JUMPI POP POP PUSH1 0xE0 DUP5 ADD MLOAD CALLER PUSH2 0x2AF1 JUMP JUMPDEST POP POP PUSH1 0xE0 DUP5 ADD MLOAD CALLER SWAP1 JUMPDEST PUSH1 0x0 DUP1 PUSH1 0x0 PUSH2 0x2B00 DUP13 DUP13 PUSH2 0xA88 JUMP JUMPDEST SWAP3 SWAP12 POP SWAP3 SWAP10 POP SWAP5 POP SWAP1 SWAP3 POP SWAP1 POP DUP7 PUSH2 0x2B23 JUMPI DUP11 SWAP10 POP POP POP POP POP POP POP POP POP POP PUSH2 0x626 JUMP JUMPDEST PUSH2 0x2B2C DUP4 PUSH2 0x2492 JUMP JUMPDEST PUSH1 0xE0 DUP11 ADD MLOAD PUSH20 0xFFFFFFFFFFFFFFFFFFFFFFFFFFFFFFFFFFFFFFFF AND PUSH1 0x0 SWAP1 DUP2 MSTORE PUSH1 0x3 PUSH1 0x20 MSTORE PUSH1 0x40 SWAP1 KECCAK256 SSTORE PUSH2 0x2B5F DUP3 PUSH2 0x2492 JUMP JUMPDEST CALLER PUSH1 0x0 SWAP1 DUP2 MSTORE PUSH1 0x3 PUSH1 0x20 MSTORE PUSH1 0x40 SWAP1 KECCAK256 SSTORE DUP6 SLOAD PUSH2 0x2B9C SWAP1 PUSH2 0x2B97 SWAP1 PUSH16 0xFFFFFFFFFFFFFFFFFFFFFFFFFFFFFFFF AND DUP4 PUSH4 0xFFFFFFFF PUSH2 0x24A2 AND JUMP JUMPDEST PUSH2 0x309E JUMP JUMPDEST DUP7 SLOAD PUSH32 0xFFFFFFFFFFFFFFFFFFFFFFFFFFFFFFFF00000000000000000000000000000000 AND PUSH16 0xFFFFFFFFFFFFFFFFFFFFFFFFFFFFFFFF SWAP2 SWAP1 SWAP2 AND OR DUP7 SSTORE PUSH2 0x2BE0 PUSH2 0x3167 JUMP JUMPDEST POP PUSH20 0xFFFFFFFFFFFFFFFFFFFFFFFFFFFFFFFFFFFFFFFF DUP6 AND PUSH1 0x0 SWAP1 DUP2 MSTORE PUSH1 0x6 DUP8 ADD PUSH1 0x20 SWAP1 DUP2 MSTORE PUSH1 0x40 DUP1 DUP4 KECCAK256 DUP13 DUP4 ADD MLOAD PUSH2 0xFFFF AND DUP5 MSTORE DUP1 DUP4 MSTORE SWAP3 DUP2 SWAP1 KECCAK256 DUP2 MLOAD DUP1 DUP4 ADD SWAP1 SWAP3 MSTORE SLOAD PUSH1 0xF SWAP1 DUP2 SIGNEXTEND DUP2 SIGNEXTEND DUP2 SIGNEXTEND DUP1 DUP4 MSTORE PUSH1 0x1 SWAP4 DUP4 ADD SWAP4 SWAP1 SWAP4 MSTORE SWAP1 SWAP3 SWAP2 PUSH2 0x2C58 SWAP2 PUSH2 0x2C53 SWAP2 SWAP1 SIGNEXTEND DUP12 PUSH4 0xFFFFFFFF PUSH2 0x2F77 AND JUMP JUMPDEST PUSH2 0x30BB JUMP JUMPDEST PUSH1 0xF SWAP1 DUP2 SIGNEXTEND DUP2 SIGNEXTEND DUP4 MSTORE PUSH1 0x20 DUP13 DUP2 ADD DUP1 MLOAD PUSH2 0xFFFF SWAP1 DUP2 AND PUSH1 0x0 SWAP1 DUP2 MSTORE SWAP5 DUP4 MSTORE PUSH1 0x40 DUP1 DUP7 KECCAK256 DUP8 MLOAD DUP2 SLOAD SWAP9 DUP7 ADD MLOAD PUSH32 0xFFFFFFFFFFFFFFFFFFFFFFFFFFFFFFFF00000000000000000000000000000000 SWAP1 SWAP10 AND PUSH16 0xFFFFFFFFFFFFFFFFFFFFFFFFFFFFFFFF SWAP2 DUP9 SIGNEXTEND SWAP2 SWAP1 SWAP2 AND OR PUSH32 0xFFFFFFFFFFFFFFFFFFFFFFFFFFFFFF00FFFFFFFFFFFFFFFFFFFFFFFFFFFFFFFF AND PUSH17 0x100000000000000000000000000000000 PUSH1 0xFF SWAP10 DUP11 AND DUP2 MUL SWAP2 SWAP1 SWAP2 OR SWAP1 SWAP2 SSTORE PUSH20 0xFFFFFFFFFFFFFFFFFFFFFFFFFFFFFFFFFFFFFFFF DUP13 AND DUP8 MSTORE PUSH1 0x6 DUP15 ADD DUP6 MSTORE DUP2 DUP8 KECCAK256 SWAP4 MLOAD SWAP1 SWAP3 AND DUP7 MSTORE DUP3 DUP5 MSTORE SWAP5 DUP6 SWAP1 KECCAK256 DUP6 MLOAD DUP1 DUP8 ADD SWAP1 SWAP7 MSTORE SLOAD DUP1 DUP6 SIGNEXTEND DUP6 SIGNEXTEND DUP6 SIGNEXTEND DUP1 DUP8 MSTORE SWAP2 SWAP1 DIV SWAP1 SWAP6 AND SWAP2 DUP5 ADD SWAP2 SWAP1 SWAP2 MSTORE SWAP2 SWAP3 PUSH2 0x2D64 SWAP2 PUSH2 0x2C53 SWAP2 SWAP1 SIGNEXTEND DUP12 PUSH2 0x2359 JUMP JUMPDEST PUSH1 0xF SWAP1 DUP2 SIGNEXTEND DUP2 SIGNEXTEND DUP4 MSTORE PUSH1 0x1 PUSH1 0x20 DUP1 DUP6 ADD SWAP2 DUP3 MSTORE DUP14 DUP2 ADD MLOAD PUSH2 0xFFFF AND PUSH1 0x0 SWAP1 DUP2 MSTORE SWAP4 DUP2 MSTORE PUSH1 0x40 DUP1 DUP6 KECCAK256 SWAP6 MLOAD DUP7 SLOAD SWAP4 MLOAD PUSH1 0xFF AND PUSH17 0x100000000000000000000000000000000 MUL PUSH32 0xFFFFFFFFFFFFFFFFFFFFFFFFFFFFFF00FFFFFFFFFFFFFFFFFFFFFFFFFFFFFFFF SWAP2 SWAP1 SWAP6 SIGNEXTEND PUSH16 0xFFFFFFFFFFFFFFFFFFFFFFFFFFFFFFFF AND PUSH32 0xFFFFFFFFFFFFFFFFFFFFFFFFFFFFFFFF00000000000000000000000000000000 SWAP1 SWAP5 AND SWAP4 SWAP1 SWAP4 OR SWAP3 SWAP1 SWAP3 AND SWAP3 SWAP1 SWAP3 OR SWAP1 SWAP4 SSTORE DUP11 DUP3 MSTORE PUSH1 0x7 DUP10 ADD SWAP1 MSTORE KECCAK256 SLOAD PUSH2 0x2E2D SWAP1 DUP9 PUSH4 0xFFFFFFFF PUSH2 0x24A2 AND JUMP JUMPDEST DUP7 PUSH1 0x7 ADD PUSH1 0x0 DUP11 DUP2 MSTORE PUSH1 0x20 ADD SWAP1 DUP2 MSTORE PUSH1 0x20 ADD PUSH1 0x0 KECCAK256 DUP2 SWAP1 SSTORE POP DUP9 PUSH1 0x0 ADD MLOAD DUP5 PUSH20 0xFFFFFFFFFFFFFFFFFFFFFFFFFFFFFFFFFFFFFFFF AND DUP7 PUSH20 0xFFFFFFFFFFFFFFFFFFFFFFFFFFFFFFFFFFFFFFFF AND PUSH32 0x7881338EB26BC3F4EB2D539721BA87C61744A77CCEF589C34A5AD54AF21FADF2 TIMESTAMP DUP14 PUSH1 0x20 ADD MLOAD DUP15 PUSH1 0x60 ADD MLOAD DUP14 DUP16 PUSH1 0x40 MLOAD PUSH2 0x2EB8 SWAP6 SWAP5 SWAP4 SWAP3 SWAP2 SWAP1 PUSH2 0x4677 JUMP JUMPDEST PUSH1 0x40 MLOAD DUP1 SWAP2 SUB SWAP1 LOG4 PUSH2 0x2ED0 DUP12 DUP9 PUSH4 0xFFFFFFFF PUSH2 0x25A2 AND JUMP JUMPDEST SWAP13 SWAP12 POP POP POP POP POP POP POP POP POP POP POP POP JUMP JUMPDEST PUSH1 0x0 DUP2 DUP5 DUP5 GT ISZERO PUSH2 0x2F1E JUMPI PUSH1 0x40 MLOAD PUSH32 0x8C379A000000000000000000000000000000000000000000000000000000000 DUP2 MSTORE PUSH1 0x4 ADD PUSH2 0x3A1 SWAP2 SWAP1 PUSH2 0x4315 JUMP JUMPDEST POP POP POP SWAP1 SUB SWAP1 JUMP JUMPDEST PUSH1 0x0 DUP2 DUP4 PUSH2 0x2F61 JUMPI PUSH1 0x40 MLOAD PUSH32 0x8C379A000000000000000000000000000000000000000000000000000000000 DUP2 MSTORE PUSH1 0x4 ADD PUSH2 0x3A1 SWAP2 SWAP1 PUSH2 0x4315 JUMP JUMPDEST POP PUSH1 0x0 DUP4 DUP6 DUP2 PUSH2 0x2F6D JUMPI INVALID JUMPDEST DIV SWAP6 SWAP5 POP POP POP POP POP JUMP JUMPDEST PUSH1 0x0 DUP3 DUP3 ADD DUP2 DUP4 SLT DUP1 ISZERO SWAP1 PUSH2 0x2F8C JUMPI POP DUP4 DUP2 SLT ISZERO JUMPDEST DUP1 PUSH2 0x2FA1 JUMPI POP PUSH1 0x0 DUP4 SLT DUP1 ISZERO PUSH2 0x2FA1 JUMPI POP DUP4 DUP2 SLT JUMPDEST PUSH2 0x12B4 JUMPI PUSH1 0x40 MLOAD PUSH32 0x8C379A000000000000000000000000000000000000000000000000000000000 DUP2 MSTORE PUSH1 0x4 ADD PUSH2 0x3A1 SWAP1 PUSH2 0x4404 JUMP JUMPDEST PUSH1 0x5 DUP5 ADD SLOAD PUSH20 0xFFFFFFFFFFFFFFFFFFFFFFFFFFFFFFFFFFFFFFFF DUP5 AND PUSH1 0x0 SWAP1 DUP2 MSTORE PUSH1 0x6 DUP7 ADD PUSH1 0x20 MSTORE PUSH1 0x40 DUP2 KECCAK256 SWAP1 SWAP2 DUP3 SWAP2 PUSH32 0x7FFFFFFFFFFFFFFFFFFFFFFFFFFFFFFFFFFFFFFFFFFFFFFFFFFFFFFFFFFFFFFF SWAP2 DUP3 SWAP2 DUP5 DUP1 JUMPDEST DUP4 DUP2 GT PUSH2 0x308C JUMPI PUSH1 0x0 DUP2 DUP2 MSTORE PUSH1 0x20 DUP5 SWAP1 MSTORE PUSH1 0x40 SWAP1 KECCAK256 SLOAD PUSH1 0xF SWAP1 DUP2 SIGNEXTEND SWAP1 SIGNEXTEND SWAP2 POP DUP6 DUP3 SLT ISZERO PUSH2 0x3059 JUMPI DUP2 SWAP6 POP JUMPDEST DUP10 PUSH2 0xFFFF AND DUP2 EQ ISZERO PUSH2 0x3078 JUMPI PUSH2 0x3075 DUP3 DUP11 PUSH4 0xFFFFFFFF PUSH2 0x2F77 AND JUMP JUMPDEST SWAP2 POP JUMPDEST DUP5 DUP3 SLT ISZERO PUSH2 0x3084 JUMPI DUP2 SWAP5 POP JUMPDEST PUSH1 0x1 ADD PUSH2 0x302E JUMP JUMPDEST POP SWAP4 SWAP11 SWAP3 SWAP10 POP SWAP2 SWAP8 POP POP POP POP POP POP POP POP JUMP JUMPDEST PUSH1 0x0 DUP2 DUP3 PUSH16 0xFFFFFFFFFFFFFFFFFFFFFFFFFFFFFFFF AND EQ PUSH2 0x249E JUMPI INVALID JUMPDEST PUSH1 0x0 DUP2 DUP3 PUSH1 0xF SIGNEXTEND EQ PUSH2 0x249E JUMPI INVALID JUMPDEST PUSH1 0x40 DUP1 MLOAD PUSH1 0x60 DUP2 ADD DUP3 MSTORE PUSH1 0x0 DUP1 DUP3 MSTORE PUSH1 0x20 DUP3 ADD DUP2 SWAP1 MSTORE SWAP2 DUP2 ADD SWAP2 SWAP1 SWAP2 MSTORE SWAP1 JUMP JUMPDEST PUSH1 0x40 DUP1 MLOAD PUSH2 0x1E0 DUP2 ADD DUP3 MSTORE PUSH1 0x60 DUP1 DUP3 MSTORE PUSH1 0x0 PUSH1 0x20 DUP4 ADD DUP2 SWAP1 MSTORE SWAP3 DUP3 ADD DUP4 SWAP1 MSTORE DUP1 DUP3 ADD DUP4 SWAP1 MSTORE PUSH1 0x80 DUP3 ADD DUP4 SWAP1 MSTORE PUSH1 0xA0 DUP3 ADD DUP4 SWAP1 MSTORE PUSH1 0xC0 DUP3 ADD DUP4 SWAP1 MSTORE PUSH1 0xE0 DUP3 ADD DUP4 SWAP1 MSTORE PUSH2 0x100 DUP3 ADD DUP4 SWAP1 MSTORE PUSH2 0x120 DUP3 ADD DUP4 SWAP1 MSTORE PUSH2 0x140 DUP3 ADD DUP4 SWAP1 MSTORE PUSH2 0x160 DUP3 ADD DUP4 SWAP1 MSTORE PUSH2 0x180 DUP3 ADD DUP4 SWAP1 MSTORE PUSH2 0x1A0 DUP3 ADD SWAP3 SWAP1 SWAP3 MSTORE PUSH2 0x1C0 DUP2 ADD SWAP2 SWAP1 SWAP2 MSTORE SWAP1 JUMP JUMPDEST PUSH1 0x40 DUP1 MLOAD DUP1 DUP3 ADD SWAP1 SWAP2 MSTORE PUSH1 0x0 DUP1 DUP3 MSTORE PUSH1 0x20 DUP3 ADD MSTORE SWAP1 JUMP JUMPDEST PUSH1 0x40 DUP1 MLOAD PUSH2 0x100 DUP2 ADD DUP3 MSTORE PUSH1 0x0 DUP1 DUP3 MSTORE PUSH1 0x20 DUP3 ADD DUP2 SWAP1 MSTORE SWAP2 DUP2 ADD DUP3 SWAP1 MSTORE PUSH1 0x60 DUP2 ADD DUP3 SWAP1 MSTORE PUSH1 0x80 DUP2 ADD DUP3 SWAP1 MSTORE PUSH1 0xA0 DUP2 ADD DUP3 SWAP1 MSTORE PUSH1 0xC0 DUP2 ADD DUP3 SWAP1 MSTORE PUSH1 0xE0 DUP2 ADD SWAP2 SWAP1 SWAP2 MSTORE SWAP1 JUMP JUMPDEST DUP3 DUP1 SLOAD PUSH1 0x1 DUP2 PUSH1 0x1 AND ISZERO PUSH2 0x100 MUL SUB AND PUSH1 0x2 SWAP1 DIV SWAP1 PUSH1 0x0 MSTORE PUSH1 0x20 PUSH1 0x0 KECCAK256 SWAP1 PUSH1 0x1F ADD PUSH1 0x20 SWAP1 DIV DUP2 ADD SWAP3 DUP3 PUSH1 0x1F LT PUSH2 0x3203 JUMPI DUP1 MLOAD PUSH1 0xFF NOT AND DUP4 DUP1 ADD OR DUP6 SSTORE PUSH2 0x3230 JUMP JUMPDEST DUP3 DUP1 ADD PUSH1 0x1 ADD DUP6 SSTORE DUP3 ISZERO PUSH2 0x3230 JUMPI SWAP2 DUP3 ADD JUMPDEST DUP3 DUP2 GT ISZERO PUSH2 0x3230 JUMPI DUP3 MLOAD DUP3 SSTORE SWAP2 PUSH1 0x20 ADD SWAP2 SWAP1 PUSH1 0x1 ADD SWAP1 PUSH2 0x3215 JUMP JUMPDEST POP PUSH2 0x249E SWAP3 SWAP2 POP PUSH2 0x336E JUMP JUMPDEST DUP3 DUP1 SLOAD DUP3 DUP3 SSTORE SWAP1 PUSH1 0x0 MSTORE PUSH1 0x20 PUSH1 0x0 KECCAK256 SWAP1 PUSH1 0x1 ADD PUSH1 0x2 SWAP1 DIV DUP2 ADD SWAP3 DUP3 ISZERO PUSH2 0x3302 JUMPI SWAP2 PUSH1 0x20 MUL DUP3 ADD PUSH1 0x0 JUMPDEST DUP4 DUP3 GT ISZERO PUSH2 0x32C4 JUMPI DUP4 MLOAD DUP4 DUP3 PUSH2 0x100 EXP DUP2 SLOAD DUP2 PUSH16 0xFFFFFFFFFFFFFFFFFFFFFFFFFFFFFFFF MUL NOT AND SWAP1 DUP4 PUSH1 0xF SIGNEXTEND PUSH16 0xFFFFFFFFFFFFFFFFFFFFFFFFFFFFFFFF AND MUL OR SWAP1 SSTORE POP SWAP3 PUSH1 0x20 ADD SWAP3 PUSH1 0x10 ADD PUSH1 0x20 DUP2 PUSH1 0xF ADD DIV SWAP3 DUP4 ADD SWAP3 PUSH1 0x1 SUB MUL PUSH2 0x3265 JUMP JUMPDEST DUP1 ISZERO PUSH2 0x3300 JUMPI DUP3 DUP2 PUSH2 0x100 EXP DUP2 SLOAD SWAP1 PUSH16 0xFFFFFFFFFFFFFFFFFFFFFFFFFFFFFFFF MUL NOT AND SWAP1 SSTORE PUSH1 0x10 ADD PUSH1 0x20 DUP2 PUSH1 0xF ADD DIV SWAP3 DUP4 ADD SWAP3 PUSH1 0x1 SUB MUL PUSH2 0x32C4 JUMP JUMPDEST POP JUMPDEST POP PUSH2 0x249E SWAP3 SWAP2 POP PUSH2 0x3388 JUMP JUMPDEST PUSH1 0x40 MLOAD DUP1 PUSH1 0xA0 ADD PUSH1 0x40 MSTORE DUP1 PUSH2 0x3321 PUSH2 0x30E9 JUMP JUMPDEST DUP2 MSTORE PUSH1 0x20 ADD PUSH2 0x332E PUSH2 0x30C9 JUMP JUMPDEST DUP2 MSTORE PUSH1 0x0 PUSH1 0x20 DUP3 ADD DUP2 SWAP1 MSTORE PUSH1 0x40 DUP3 ADD DUP2 SWAP1 MSTORE PUSH1 0x60 SWAP1 SWAP2 ADD MSTORE SWAP1 JUMP JUMPDEST PUSH1 0x40 MLOAD DUP1 PUSH1 0x40 ADD PUSH1 0x40 MSTORE DUP1 PUSH2 0x335C PUSH2 0x317E JUMP JUMPDEST DUP2 MSTORE PUSH1 0x20 ADD PUSH2 0x3369 PUSH2 0x30C9 JUMP JUMPDEST SWAP1 MSTORE SWAP1 JUMP JUMPDEST PUSH2 0x1370 SWAP2 SWAP1 JUMPDEST DUP1 DUP3 GT ISZERO PUSH2 0x249E JUMPI PUSH1 0x0 DUP2 SSTORE PUSH1 0x1 ADD PUSH2 0x3374 JUMP JUMPDEST PUSH2 0x1370 SWAP2 SWAP1 JUMPDEST DUP1 DUP3 GT ISZERO PUSH2 0x249E JUMPI DUP1 SLOAD PUSH32 0xFFFFFFFFFFFFFFFFFFFFFFFFFFFFFFFF00000000000000000000000000000000 AND DUP2 SSTORE PUSH1 0x1 ADD PUSH2 0x338E JUMP JUMPDEST DUP1 CALLDATALOAD PUSH20 0xFFFFFFFFFFFFFFFFFFFFFFFFFFFFFFFFFFFFFFFF DUP2 AND DUP2 EQ PUSH2 0x626 JUMPI PUSH1 0x0 DUP1 REVERT JUMPDEST PUSH1 0x0 DUP3 PUSH1 0x1F DUP4 ADD SLT PUSH2 0x33F8 JUMPI DUP1 DUP2 REVERT JUMPDEST DUP2 CALLDATALOAD PUSH2 0x340B PUSH2 0x3406 DUP3 PUSH2 0x46D3 JUMP JUMPDEST PUSH2 0x46AC JUMP JUMPDEST DUP2 DUP2 MSTORE SWAP2 POP PUSH1 0x20 DUP1 DUP4 ADD SWAP1 DUP5 DUP2 ADD DUP2 DUP5 MUL DUP7 ADD DUP3 ADD DUP8 LT ISZERO PUSH2 0x342C JUMPI PUSH1 0x0 DUP1 REVERT JUMPDEST PUSH1 0x0 JUMPDEST DUP5 DUP2 LT ISZERO PUSH2 0x3453 JUMPI PUSH2 0x3441 DUP9 DUP4 PUSH2 0x33C4 JUMP JUMPDEST DUP5 MSTORE SWAP3 DUP3 ADD SWAP3 SWAP1 DUP3 ADD SWAP1 PUSH1 0x1 ADD PUSH2 0x342F JUMP JUMPDEST POP POP POP POP POP SWAP3 SWAP2 POP POP JUMP JUMPDEST PUSH1 0x0 DUP3 PUSH1 0x1F DUP4 ADD SLT PUSH2 0x346E JUMPI DUP1 DUP2 REVERT JUMPDEST DUP2 CALLDATALOAD PUSH2 0x347C PUSH2 0x3406 DUP3 PUSH2 0x46D3 JUMP JUMPDEST DUP2 DUP2 MSTORE SWAP2 POP PUSH1 0x20 DUP1 DUP4 ADD SWAP1 DUP5 DUP2 ADD DUP2 DUP5 MUL DUP7 ADD DUP3 ADD DUP8 LT ISZERO PUSH2 0x349D JUMPI PUSH1 0x0 DUP1 REVERT JUMPDEST PUSH1 0x0 JUMPDEST DUP5 DUP2 LT ISZERO PUSH2 0x3453 JUMPI DUP2 CALLDATALOAD DUP5 MSTORE SWAP3 DUP3 ADD SWAP3 SWAP1 DUP3 ADD SWAP1 PUSH1 0x1 ADD PUSH2 0x34A0 JUMP JUMPDEST PUSH1 0x0 DUP3 PUSH1 0x1F DUP4 ADD SLT PUSH2 0x34CC JUMPI DUP1 DUP2 REVERT JUMPDEST DUP2 CALLDATALOAD PUSH2 0x34DA PUSH2 0x3406 DUP3 PUSH2 0x46D3 JUMP JUMPDEST DUP2 DUP2 MSTORE SWAP2 POP PUSH1 0x20 DUP1 DUP4 ADD SWAP1 DUP5 DUP2 ADD DUP2 DUP5 MUL DUP7 ADD DUP3 ADD DUP8 LT ISZERO PUSH2 0x34FB JUMPI PUSH1 0x0 DUP1 REVERT JUMPDEST PUSH1 0x0 DUP1 JUMPDEST DUP6 DUP2 LT ISZERO PUSH2 0x3529 JUMPI DUP3 CALLDATALOAD DUP1 PUSH1 0xF SIGNEXTEND DUP2 EQ PUSH2 0x3517 JUMPI DUP3 DUP4 REVERT JUMPDEST DUP6 MSTORE SWAP4 DUP4 ADD SWAP4 SWAP2 DUP4 ADD SWAP2 PUSH1 0x1 ADD PUSH2 0x34FF JUMP JUMPDEST POP POP POP POP POP POP SWAP3 SWAP2 POP POP JUMP JUMPDEST DUP1 CALLDATALOAD DUP1 ISZERO ISZERO DUP2 EQ PUSH2 0x626 JUMPI PUSH1 0x0 DUP1 REVERT JUMPDEST DUP1 CALLDATALOAD PUSH1 0x0 DUP2 SWAP1 SIGNEXTEND DUP2 EQ PUSH2 0x626 JUMPI PUSH1 0x0 DUP1 REVERT JUMPDEST PUSH1 0x0 DUP3 PUSH1 0x1F DUP4 ADD SLT PUSH2 0x3567 JUMPI DUP1 DUP2 REVERT JUMPDEST DUP2 CALLDATALOAD PUSH8 0xFFFFFFFFFFFFFFFF DUP2 GT ISZERO PUSH2 0x357D JUMPI DUP2 DUP3 REVERT JUMPDEST PUSH2 0x35AE PUSH1 0x20 PUSH32 0xFFFFFFFFFFFFFFFFFFFFFFFFFFFFFFFFFFFFFFFFFFFFFFFFFFFFFFFFFFFFFFE0 PUSH1 0x1F DUP5 ADD AND ADD PUSH2 0x46AC JUMP JUMPDEST SWAP2 POP DUP1 DUP3 MSTORE DUP4 PUSH1 0x20 DUP3 DUP6 ADD ADD GT ISZERO PUSH2 0x35C5 JUMPI PUSH1 0x0 DUP1 REVERT JUMPDEST DUP1 PUSH1 0x20 DUP5 ADD PUSH1 0x20 DUP5 ADD CALLDATACOPY PUSH1 0x0 SWAP1 DUP3 ADD PUSH1 0x20 ADD MSTORE SWAP3 SWAP2 POP POP JUMP JUMPDEST PUSH1 0x0 DUP2 DUP4 SUB PUSH2 0x160 DUP2 SLT ISZERO PUSH2 0x35F1 JUMPI DUP2 DUP3 REVERT JUMPDEST PUSH2 0x35FB PUSH1 0x40 PUSH2 0x46AC JUMP JUMPDEST SWAP2 POP PUSH2 0x100 DUP1 DUP3 SLT ISZERO PUSH2 0x360D JUMPI PUSH1 0x0 DUP1 REVERT JUMPDEST PUSH2 0x3616 DUP2 PUSH2 0x46AC JUMP JUMPDEST SWAP2 POP DUP4 CALLDATALOAD DUP3 MSTORE PUSH2 0x3629 DUP6 PUSH1 0x20 DUP7 ADD PUSH2 0x36D9 JUMP JUMPDEST PUSH1 0x20 DUP4 ADD MSTORE PUSH2 0x363B DUP6 PUSH1 0x40 DUP7 ADD PUSH2 0x3535 JUMP JUMPDEST PUSH1 0x40 DUP4 ADD MSTORE PUSH1 0x60 DUP5 ADD CALLDATALOAD PUSH1 0x60 DUP4 ADD MSTORE PUSH1 0x80 DUP5 ADD CALLDATALOAD PUSH1 0x80 DUP4 ADD MSTORE PUSH1 0xA0 DUP5 ADD CALLDATALOAD PUSH1 0xA0 DUP4 ADD MSTORE PUSH1 0xC0 DUP5 ADD CALLDATALOAD PUSH1 0xC0 DUP4 ADD MSTORE PUSH2 0x3675 DUP6 PUSH1 0xE0 DUP7 ADD PUSH2 0x33C4 JUMP JUMPDEST PUSH1 0xE0 DUP4 ADD MSTORE DUP2 DUP4 MSTORE PUSH2 0x3689 DUP6 DUP3 DUP7 ADD PUSH2 0x3696 JUMP JUMPDEST PUSH1 0x20 DUP5 ADD MSTORE POP POP SWAP3 SWAP2 POP POP JUMP JUMPDEST PUSH1 0x0 PUSH1 0x60 DUP3 DUP5 SUB SLT ISZERO PUSH2 0x36A7 JUMPI DUP1 DUP2 REVERT JUMPDEST PUSH2 0x36B1 PUSH1 0x60 PUSH2 0x46AC JUMP JUMPDEST SWAP1 POP PUSH2 0x36BD DUP4 DUP4 PUSH2 0x3713 JUMP JUMPDEST DUP2 MSTORE PUSH1 0x20 DUP3 ADD CALLDATALOAD PUSH1 0x20 DUP3 ADD MSTORE PUSH1 0x40 DUP3 ADD CALLDATALOAD PUSH1 0x40 DUP3 ADD MSTORE SWAP3 SWAP2 POP POP JUMP JUMPDEST DUP1 CALLDATALOAD PUSH2 0xFFFF DUP2 AND DUP2 EQ PUSH2 0x626 JUMPI PUSH1 0x0 DUP1 REVERT JUMPDEST DUP1 CALLDATALOAD PUSH3 0xFFFFFF DUP2 AND DUP2 EQ PUSH2 0x626 JUMPI PUSH1 0x0 DUP1 REVERT JUMPDEST DUP1 CALLDATALOAD PUSH5 0xFFFFFFFFFF DUP2 AND DUP2 EQ PUSH2 0x626 JUMPI PUSH1 0x0 DUP1 REVERT JUMPDEST DUP1 CALLDATALOAD PUSH1 0xFF DUP2 AND DUP2 EQ PUSH2 0x626 JUMPI PUSH1 0x0 DUP1 REVERT JUMPDEST PUSH1 0x0 DUP1 PUSH1 0x0 PUSH1 0x40 DUP5 DUP7 SUB SLT ISZERO PUSH2 0x3738 JUMPI DUP3 DUP4 REVERT JUMPDEST DUP4 CALLDATALOAD PUSH20 0xFFFFFFFFFFFFFFFFFFFFFFFFFFFFFFFFFFFFFFFF DUP2 AND DUP2 EQ PUSH2 0x375B JUMPI DUP4 DUP5 REVERT JUMPDEST SWAP3 POP PUSH1 0x20 DUP5 ADD CALLDATALOAD PUSH8 0xFFFFFFFFFFFFFFFF DUP1 DUP3 GT ISZERO PUSH2 0x3777 JUMPI DUP4 DUP5 REVERT JUMPDEST DUP2 DUP7 ADD DUP8 PUSH1 0x1F DUP3 ADD SLT PUSH2 0x3788 JUMPI DUP5 DUP6 REVERT JUMPDEST DUP1 CALLDATALOAD SWAP3 POP DUP2 DUP4 GT ISZERO PUSH2 0x3798 JUMPI DUP5 DUP6 REVERT JUMPDEST DUP8 PUSH1 0x20 DUP1 DUP6 MUL DUP4 ADD ADD GT ISZERO PUSH2 0x37AB JUMPI DUP5 DUP6 REVERT JUMPDEST SWAP5 SWAP8 PUSH1 0x20 SWAP1 SWAP6 ADD SWAP7 POP SWAP1 SWAP5 POP POP POP POP JUMP JUMPDEST PUSH1 0x0 DUP1 PUSH1 0x40 DUP4 DUP6 SUB SLT ISZERO PUSH2 0x37CE JUMPI DUP2 DUP3 REVERT JUMPDEST PUSH2 0x37D8 DUP5 DUP5 PUSH2 0x33C4 JUMP JUMPDEST SWAP5 PUSH1 0x20 SWAP4 SWAP1 SWAP4 ADD CALLDATALOAD SWAP4 POP POP POP JUMP JUMPDEST PUSH1 0x0 DUP1 PUSH1 0x40 DUP4 DUP6 SUB SLT ISZERO PUSH2 0x37F8 JUMPI DUP2 DUP3 REVERT JUMPDEST DUP3 CALLDATALOAD PUSH8 0xFFFFFFFFFFFFFFFF DUP2 GT ISZERO PUSH2 0x380E JUMPI DUP3 DUP4 REVERT JUMPDEST DUP1 DUP5 ADD DUP6 PUSH1 0x1F DUP3 ADD SLT PUSH2 0x381F JUMPI DUP4 DUP5 REVERT JUMPDEST DUP1 CALLDATALOAD SWAP2 POP PUSH2 0x382F PUSH2 0x3406 DUP4 PUSH2 0x46D3 JUMP JUMPDEST DUP1 DUP4 DUP3 MSTORE PUSH1 0x20 DUP1 DUP4 ADD SWAP3 POP DUP1 DUP5 ADD PUSH2 0x160 DUP11 DUP4 DUP3 DUP10 MUL DUP9 ADD ADD GT ISZERO PUSH2 0x3852 JUMPI DUP9 DUP10 REVERT JUMPDEST DUP9 SWAP6 POP JUMPDEST DUP7 DUP7 LT ISZERO PUSH2 0x387E JUMPI PUSH2 0x3868 DUP12 DUP4 PUSH2 0x35DE JUMP JUMPDEST DUP6 MSTORE PUSH1 0x1 SWAP6 SWAP1 SWAP6 ADD SWAP5 SWAP4 DUP3 ADD SWAP4 SWAP1 DUP2 ADD SWAP1 PUSH2 0x3856 JUMP JUMPDEST POP SWAP2 SWAP10 SWAP8 ADD CALLDATALOAD SWAP8 POP POP POP POP POP POP POP JUMP JUMPDEST PUSH1 0x0 PUSH1 0x20 DUP3 DUP5 SUB SLT ISZERO PUSH2 0x389F JUMPI DUP1 DUP2 REVERT JUMPDEST POP CALLDATALOAD SWAP2 SWAP1 POP JUMP JUMPDEST PUSH1 0x0 DUP1 PUSH1 0x0 PUSH1 0x60 DUP5 DUP7 SUB SLT ISZERO PUSH2 0x38BA JUMPI DUP1 DUP2 REVERT JUMPDEST DUP4 CALLDATALOAD SWAP3 POP PUSH1 0x20 DUP5 ADD CALLDATALOAD PUSH8 0xFFFFFFFFFFFFFFFF DUP1 DUP3 GT ISZERO PUSH2 0x38D8 JUMPI DUP3 DUP4 REVERT JUMPDEST PUSH2 0x38E4 DUP8 DUP4 DUP9 ADD PUSH2 0x33E8 JUMP JUMPDEST SWAP4 POP PUSH1 0x40 DUP7 ADD CALLDATALOAD SWAP2 POP DUP1 DUP3 GT ISZERO PUSH2 0x38F9 JUMPI DUP3 DUP4 REVERT JUMPDEST POP PUSH2 0x3906 DUP7 DUP3 DUP8 ADD PUSH2 0x345E JUMP JUMPDEST SWAP2 POP POP SWAP3 POP SWAP3 POP SWAP3 JUMP JUMPDEST PUSH1 0x0 DUP1 PUSH1 0x0 DUP1 PUSH1 0x0 PUSH1 0xE0 DUP7 DUP9 SUB SLT ISZERO PUSH2 0x3927 JUMPI DUP3 DUP4 REVERT JUMPDEST DUP6 CALLDATALOAD SWAP5 POP PUSH2 0x3938 DUP8 PUSH1 0x20 DUP9 ADD PUSH2 0x3696 JUMP JUMPDEST SWAP4 POP PUSH1 0x80 DUP7 ADD CALLDATALOAD SWAP3 POP PUSH1 0xA0 DUP7 ADD CALLDATALOAD PUSH8 0xFFFFFFFFFFFFFFFF DUP1 DUP3 GT ISZERO PUSH2 0x395B JUMPI DUP3 DUP4 REVERT JUMPDEST PUSH2 0x3967 DUP10 DUP4 DUP11 ADD PUSH2 0x33E8 JUMP JUMPDEST SWAP4 POP PUSH1 0xC0 DUP9 ADD CALLDATALOAD SWAP2 POP DUP1 DUP3 GT ISZERO PUSH2 0x397C JUMPI DUP3 DUP4 REVERT JUMPDEST POP PUSH2 0x3989 DUP9 DUP3 DUP10 ADD PUSH2 0x345E JUMP JUMPDEST SWAP2 POP POP SWAP3 SWAP6 POP SWAP3 SWAP6 SWAP1 SWAP4 POP JUMP JUMPDEST PUSH1 0x0 DUP1 PUSH1 0x0 PUSH1 0xA0 DUP5 DUP7 SUB SLT ISZERO PUSH2 0x39AA JUMPI DUP1 DUP2 REVERT JUMPDEST DUP4 CALLDATALOAD PUSH8 0xFFFFFFFFFFFFFFFF DUP1 DUP3 GT ISZERO PUSH2 0x39C1 JUMPI DUP3 DUP4 REVERT JUMPDEST PUSH2 0x1E0 SWAP2 DUP7 ADD DUP1 DUP9 SUB DUP4 SGT ISZERO PUSH2 0x39D5 JUMPI DUP4 DUP5 REVERT JUMPDEST PUSH2 0x39DE DUP4 PUSH2 0x46AC JUMP JUMPDEST DUP2 CALLDATALOAD SWAP4 POP DUP3 DUP5 GT ISZERO PUSH2 0x39EE JUMPI DUP5 DUP6 REVERT JUMPDEST PUSH2 0x39FA DUP10 DUP6 DUP5 ADD PUSH2 0x3557 JUMP JUMPDEST DUP2 MSTORE PUSH2 0x3A09 DUP10 PUSH1 0x20 DUP5 ADD PUSH2 0x36FE JUMP JUMPDEST PUSH1 0x20 DUP3 ADD MSTORE PUSH2 0x3A1B DUP10 PUSH1 0x40 DUP5 ADD PUSH2 0x36EB JUMP JUMPDEST PUSH1 0x40 DUP3 ADD MSTORE PUSH2 0x3A2D DUP10 PUSH1 0x60 DUP5 ADD PUSH2 0x3713 JUMP JUMPDEST PUSH1 0x60 DUP3 ADD MSTORE PUSH2 0x3A3F DUP10 PUSH1 0x80 DUP5 ADD PUSH2 0x3713 JUMP JUMPDEST PUSH1 0x80 DUP3 ADD MSTORE PUSH2 0x3A51 DUP10 PUSH1 0xA0 DUP5 ADD PUSH2 0x3713 JUMP JUMPDEST PUSH1 0xA0 DUP3 ADD MSTORE PUSH2 0x3A63 DUP10 PUSH1 0xC0 DUP5 ADD PUSH2 0x3545 JUMP JUMPDEST PUSH1 0xC0 DUP3 ADD MSTORE PUSH2 0x3A75 DUP10 PUSH1 0xE0 DUP5 ADD PUSH2 0x33C4 JUMP JUMPDEST PUSH1 0xE0 DUP3 ADD MSTORE PUSH2 0x100 SWAP4 POP PUSH2 0x3A8B DUP10 DUP6 DUP5 ADD PUSH2 0x3713 JUMP JUMPDEST DUP5 DUP3 ADD MSTORE PUSH2 0x120 SWAP4 POP PUSH2 0x3AA0 DUP10 DUP6 DUP5 ADD PUSH2 0x3713 JUMP JUMPDEST DUP5 DUP3 ADD MSTORE PUSH2 0x140 SWAP4 POP PUSH2 0x3AB5 DUP10 DUP6 DUP5 ADD PUSH2 0x3713 JUMP JUMPDEST DUP5 DUP3 ADD MSTORE PUSH2 0x160 SWAP4 POP PUSH2 0x3ACA DUP10 DUP6 DUP5 ADD PUSH2 0x3713 JUMP JUMPDEST DUP5 DUP3 ADD MSTORE PUSH2 0x180 SWAP4 POP PUSH2 0x3ADF DUP10 DUP6 DUP5 ADD PUSH2 0x33C4 JUMP JUMPDEST DUP5 DUP3 ADD MSTORE PUSH2 0x1A0 SWAP4 POP PUSH2 0x3AF4 DUP10 DUP6 DUP5 ADD PUSH2 0x33C4 JUMP JUMPDEST DUP5 DUP3 ADD MSTORE PUSH2 0x1C0 SWAP4 POP DUP4 DUP3 ADD CALLDATALOAD DUP4 DUP2 GT ISZERO PUSH2 0x3B0D JUMPI DUP6 DUP7 REVERT JUMPDEST PUSH2 0x3B19 DUP11 DUP3 DUP6 ADD PUSH2 0x34BC JUMP JUMPDEST DUP6 DUP4 ADD MSTORE POP DUP1 SWAP7 POP POP POP POP POP PUSH2 0x3B32 DUP6 PUSH1 0x20 DUP7 ADD PUSH2 0x3535 JUMP JUMPDEST SWAP2 POP PUSH2 0x3B41 DUP6 PUSH1 0x40 DUP7 ADD PUSH2 0x3696 JUMP JUMPDEST SWAP1 POP SWAP3 POP SWAP3 POP SWAP3 JUMP JUMPDEST PUSH1 0x0 DUP1 PUSH2 0x180 DUP4 DUP6 SUB SLT ISZERO PUSH2 0x3B5D JUMPI DUP2 DUP3 REVERT JUMPDEST PUSH2 0x3B67 DUP5 DUP5 PUSH2 0x35DE JUMP JUMPDEST SWAP5 PUSH2 0x160 SWAP4 SWAP1 SWAP4 ADD CALLDATALOAD SWAP4 POP POP POP JUMP JUMPDEST PUSH1 0x0 PUSH1 0x20 DUP3 DUP5 SUB SLT ISZERO PUSH2 0x3B87 JUMPI DUP1 DUP2 REVERT JUMPDEST DUP2 CALLDATALOAD PUSH5 0xFFFFFFFFFF DUP2 AND DUP2 EQ PUSH2 0x12B4 JUMPI DUP2 DUP3 REVERT JUMPDEST PUSH20 0xFFFFFFFFFFFFFFFFFFFFFFFFFFFFFFFFFFFFFFFF AND SWAP1 MSTORE JUMP JUMPDEST PUSH1 0x60 SHL PUSH32 0xFFFFFFFFFFFFFFFFFFFFFFFFFFFFFFFFFFFFFFFF000000000000000000000000 AND SWAP1 MSTORE JUMP JUMPDEST PUSH1 0x0 DUP2 MLOAD DUP1 DUP5 MSTORE PUSH1 0x20 DUP1 DUP6 ADD SWAP5 POP DUP1 DUP5 ADD DUP4 JUMPDEST DUP4 DUP2 LT ISZERO PUSH2 0x3C10 JUMPI DUP2 MLOAD PUSH1 0xF SIGNEXTEND DUP8 MSTORE SWAP6 DUP3 ADD SWAP6 SWAP1 DUP3 ADD SWAP1 PUSH1 0x1 ADD PUSH2 0x3BF1 JUMP JUMPDEST POP SWAP5 SWAP6 SWAP5 POP POP POP POP POP JUMP JUMPDEST DUP1 MLOAD PUSH1 0x0 SWAP1 PUSH1 0x20 DUP1 DUP5 ADD DUP4 DUP4 ISZERO PUSH2 0x3C10 JUMPI DUP2 MLOAD PUSH1 0xF SIGNEXTEND DUP8 MSTORE SWAP6 DUP3 ADD SWAP6 SWAP1 DUP3 ADD SWAP1 PUSH1 0x1 ADD PUSH2 0x3BF1 JUMP JUMPDEST PUSH1 0x0 SIGNEXTEND SWAP1 MSTORE JUMP JUMPDEST PUSH1 0x0 SIGNEXTEND PUSH1 0xF8 SHL SWAP1 MSTORE JUMP JUMPDEST PUSH1 0x0 DUP2 MLOAD DUP1 DUP5 MSTORE PUSH2 0x3C6C DUP2 PUSH1 0x20 DUP7 ADD PUSH1 0x20 DUP7 ADD PUSH2 0x46F3 JUMP JUMPDEST PUSH1 0x1F ADD PUSH32 0xFFFFFFFFFFFFFFFFFFFFFFFFFFFFFFFFFFFFFFFFFFFFFFFFFFFFFFFFFFFFFFE0 AND SWAP3 SWAP1 SWAP3 ADD PUSH1 0x20 ADD SWAP3 SWAP2 POP POP JUMP JUMPDEST PUSH1 0x0 PUSH2 0x1E0 DUP3 MLOAD DUP2 DUP6 MSTORE PUSH2 0x3CB4 DUP3 DUP7 ADD DUP3 PUSH2 0x3C54 JUMP JUMPDEST PUSH1 0x20 DUP6 ADD MLOAD SWAP3 POP PUSH2 0x3CC8 PUSH1 0x20 DUP8 ADD DUP5 PUSH2 0x3E80 JUMP JUMPDEST PUSH1 0x40 DUP6 ADD MLOAD SWAP3 POP PUSH2 0x3CDC PUSH1 0x40 DUP8 ADD DUP5 PUSH2 0x3E77 JUMP JUMPDEST PUSH1 0x60 DUP6 ADD MLOAD SWAP3 POP PUSH2 0x3CF0 PUSH1 0x60 DUP8 ADD DUP5 PUSH2 0x3E8B JUMP JUMPDEST PUSH1 0x80 DUP6 ADD MLOAD SWAP3 POP PUSH2 0x3D04 PUSH1 0x80 DUP8 ADD DUP5 PUSH2 0x3E8B JUMP JUMPDEST PUSH1 0xA0 DUP6 ADD MLOAD SWAP3 POP PUSH2 0x3D18 PUSH1 0xA0 DUP8 ADD DUP5 PUSH2 0x3E8B JUMP JUMPDEST PUSH1 0xC0 DUP6 ADD MLOAD SWAP3 POP PUSH2 0x3D2C PUSH1 0xC0 DUP8 ADD DUP5 PUSH2 0x3C43 JUMP JUMPDEST PUSH1 0xE0 DUP6 ADD MLOAD SWAP3 POP PUSH2 0x3D40 PUSH1 0xE0 DUP8 ADD DUP5 PUSH2 0x3B9B JUMP JUMPDEST PUSH2 0x100 SWAP3 POP DUP3 DUP6 ADD MLOAD SWAP2 POP PUSH2 0x3D57 DUP4 DUP8 ADD DUP4 PUSH2 0x3E8B JUMP JUMPDEST PUSH2 0x120 SWAP3 POP DUP3 DUP6 ADD MLOAD SWAP2 POP PUSH2 0x3D6E DUP4 DUP8 ADD DUP4 PUSH2 0x3E8B JUMP JUMPDEST PUSH2 0x140 SWAP3 POP DUP3 DUP6 ADD MLOAD SWAP2 POP PUSH2 0x3D85 DUP4 DUP8 ADD DUP4 PUSH2 0x3E8B JUMP JUMPDEST PUSH2 0x160 SWAP3 POP DUP3 DUP6 ADD MLOAD SWAP2 POP PUSH2 0x3D9C DUP4 DUP8 ADD DUP4 PUSH2 0x3E8B JUMP JUMPDEST PUSH2 0x180 SWAP3 POP DUP3 DUP6 ADD MLOAD SWAP2 POP PUSH2 0x3DB3 DUP4 DUP8 ADD DUP4 PUSH2 0x3B9B JUMP JUMPDEST PUSH2 0x1A0 SWAP3 POP DUP3 DUP6 ADD MLOAD SWAP2 POP PUSH2 0x3DCA DUP4 DUP8 ADD DUP4 PUSH2 0x3B9B JUMP JUMPDEST PUSH2 0x1C0 SWAP3 POP DUP3 DUP6 ADD MLOAD SWAP2 POP DUP6 DUP2 SUB DUP4 DUP8 ADD MSTORE PUSH2 0x3DE6 DUP2 DUP4 PUSH2 0x3BDE JUMP JUMPDEST SWAP7 SWAP6 POP POP POP POP POP POP JUMP JUMPDEST PUSH1 0x0 DUP2 MLOAD PUSH1 0xE0 DUP5 MSTORE PUSH2 0x3E05 PUSH1 0xE0 DUP6 ADD DUP3 PUSH2 0x3C9E JUMP JUMPDEST PUSH1 0x20 DUP5 ADD MLOAD SWAP2 POP PUSH16 0xFFFFFFFFFFFFFFFFFFFFFFFFFFFFFFFF DUP3 MLOAD AND PUSH1 0x20 DUP7 ADD MSTORE PUSH2 0xFFFF PUSH1 0x20 DUP4 ADD MLOAD AND PUSH1 0x40 DUP7 ADD MSTORE PUSH1 0x40 DUP3 ADD MLOAD ISZERO ISZERO PUSH1 0x60 DUP7 ADD MSTORE PUSH1 0x40 DUP5 ADD MLOAD PUSH1 0x80 DUP7 ADD MSTORE PUSH1 0x60 DUP5 ADD MLOAD SWAP2 POP PUSH1 0x3 DUP3 LT PUSH2 0x3E5A JUMPI INVALID JUMPDEST DUP2 PUSH1 0xA0 DUP7 ADD MSTORE PUSH1 0x80 DUP5 ADD MLOAD ISZERO ISZERO PUSH1 0xC0 DUP7 ADD MSTORE DUP1 SWAP3 POP POP POP SWAP3 SWAP2 POP POP JUMP JUMPDEST PUSH3 0xFFFFFF AND SWAP1 MSTORE JUMP JUMPDEST PUSH5 0xFFFFFFFFFF AND SWAP1 MSTORE JUMP JUMPDEST PUSH1 0xFF AND SWAP1 MSTORE JUMP JUMPDEST PUSH1 0xF8 SHL PUSH32 0xFF00000000000000000000000000000000000000000000000000000000000000 AND SWAP1 MSTORE JUMP JUMPDEST PUSH1 0x60 SWAP10 DUP11 SHL PUSH32 0xFFFFFFFFFFFFFFFFFFFFFFFFFFFFFFFFFFFFFFFF000000000000000000000000 SWAP1 DUP2 AND DUP3 MSTORE PUSH1 0x14 DUP3 ADD SWAP10 SWAP1 SWAP10 MSTORE PUSH1 0xF0 SWAP8 SWAP1 SWAP8 SHL PUSH32 0xFFFF000000000000000000000000000000000000000000000000000000000000 AND PUSH1 0x34 DUP9 ADD MSTORE SWAP5 ISZERO ISZERO PUSH1 0xF8 SHL PUSH1 0x36 DUP8 ADD MSTORE PUSH1 0x37 DUP7 ADD SWAP4 SWAP1 SWAP4 MSTORE PUSH1 0x57 DUP6 ADD SWAP2 SWAP1 SWAP2 MSTORE PUSH1 0x77 DUP5 ADD MSTORE PUSH1 0x97 DUP4 ADD MSTORE SWAP1 SWAP3 SHL AND PUSH1 0xB7 DUP3 ADD MSTORE PUSH1 0xCB ADD SWAP1 JUMP JUMPDEST SWAP3 DUP4 MSTORE PUSH1 0x20 DUP4 ADD SWAP2 SWAP1 SWAP2 MSTORE PUSH1 0xF0 SHL PUSH32 0xFFFF000000000000000000000000000000000000000000000000000000000000 AND PUSH1 0x40 DUP3 ADD MSTORE PUSH1 0x42 ADD SWAP1 JUMP JUMPDEST SWAP7 DUP8 MSTORE PUSH1 0xD8 SWAP6 SWAP1 SWAP6 SHL PUSH32 0xFFFFFFFFFF000000000000000000000000000000000000000000000000000000 AND PUSH1 0x20 DUP8 ADD MSTORE PUSH1 0xE8 SWAP4 SWAP1 SWAP4 SHL PUSH32 0xFFFFFF0000000000000000000000000000000000000000000000000000000000 AND PUSH1 0x25 DUP7 ADD MSTORE PUSH1 0xF8 SWAP2 DUP3 SHL PUSH32 0xFF00000000000000000000000000000000000000000000000000000000000000 SWAP1 DUP2 AND PUSH1 0x28 DUP8 ADD MSTORE SWAP1 DUP3 SHL DUP2 AND PUSH1 0x29 DUP7 ADD MSTORE SWAP2 DUP2 SHL SWAP1 SWAP2 AND PUSH1 0x2A DUP5 ADD MSTORE PUSH1 0x0 SWAP2 SWAP1 SWAP2 SIGNEXTEND SWAP1 SHL PUSH1 0x2B DUP3 ADD MSTORE PUSH1 0x2C ADD SWAP1 JUMP JUMPDEST PUSH1 0x0 DUP13 DUP3 MSTORE PUSH32 0xFFFFFFFFFF000000000000000000000000000000000000000000000000000000 DUP13 PUSH1 0xD8 SHL AND PUSH1 0x20 DUP4 ADD MSTORE PUSH32 0xFFFFFF0000000000000000000000000000000000000000000000000000000000 DUP12 PUSH1 0xE8 SHL AND PUSH1 0x25 DUP4 ADD MSTORE PUSH32 0xFF00000000000000000000000000000000000000000000000000000000000000 DUP1 DUP12 PUSH1 0xF8 SHL AND PUSH1 0x28 DUP5 ADD MSTORE DUP1 DUP11 PUSH1 0xF8 SHL AND PUSH1 0x29 DUP5 ADD MSTORE POP PUSH2 0x40DD PUSH1 0x2A DUP4 ADD DUP10 PUSH2 0x3E92 JUMP JUMPDEST PUSH2 0x40EA PUSH1 0x2B DUP4 ADD DUP9 PUSH2 0x3C4A JUMP JUMPDEST PUSH2 0x40F7 PUSH1 0x2C DUP4 ADD DUP8 PUSH2 0x3E92 JUMP JUMPDEST PUSH2 0x4104 PUSH1 0x2D DUP4 ADD DUP7 PUSH2 0x3BB5 JUMP JUMPDEST PUSH2 0x4111 PUSH1 0x41 DUP4 ADD DUP6 PUSH2 0x3BB5 JUMP JUMPDEST PUSH2 0x411E PUSH1 0x55 DUP4 ADD DUP5 PUSH2 0x3BB5 JUMP JUMPDEST POP PUSH1 0x69 ADD SWAP12 SWAP11 POP POP POP POP POP POP POP POP POP POP POP JUMP JUMPDEST PUSH1 0x0 DUP4 MLOAD PUSH2 0x4143 DUP2 DUP5 PUSH1 0x20 DUP9 ADD PUSH2 0x46F3 JUMP JUMPDEST PUSH2 0x414F DUP2 DUP5 ADD DUP6 PUSH2 0x3C1B JUMP JUMPDEST SWAP6 SWAP5 POP POP POP POP POP JUMP JUMPDEST PUSH1 0x0 DUP4 MLOAD PUSH2 0x416A DUP2 DUP5 PUSH1 0x20 DUP9 ADD PUSH2 0x46F3 JUMP JUMPDEST SWAP2 SWAP1 SWAP2 ADD SWAP2 DUP3 MSTORE POP PUSH1 0x20 ADD SWAP2 SWAP1 POP JUMP JUMPDEST PUSH1 0x0 DUP7 MLOAD PUSH2 0x418C DUP2 DUP5 PUSH1 0x20 DUP12 ADD PUSH2 0x46F3 JUMP JUMPDEST DUP1 DUP4 ADD PUSH32 0xFF00000000000000000000000000000000000000000000000000000000000000 SWAP2 POP DUP2 DUP9 PUSH1 0xF8 SHL AND DUP2 MSTORE DUP2 DUP8 PUSH1 0xF8 SHL AND PUSH1 0x1 DUP3 ADD MSTORE DUP2 DUP7 PUSH1 0xF8 SHL AND PUSH1 0x2 DUP3 ADD MSTORE PUSH2 0x41DD PUSH1 0x3 DUP3 ADD DUP7 PUSH2 0x3C1B JUMP JUMPDEST SWAP10 SWAP9 POP POP POP POP POP POP POP POP POP JUMP JUMPDEST PUSH1 0x0 DUP3 MLOAD PUSH2 0x41FC DUP2 DUP5 PUSH1 0x20 DUP8 ADD PUSH2 0x46F3 JUMP JUMPDEST SWAP2 SWAP1 SWAP2 ADD SWAP3 SWAP2 POP POP JUMP JUMPDEST PUSH1 0x0 PUSH1 0x20 DUP1 DUP4 ADD DUP2 DUP5 MSTORE DUP1 DUP6 MLOAD DUP1 DUP4 MSTORE PUSH1 0x40 DUP7 ADD SWAP2 POP PUSH1 0x40 DUP5 DUP3 MUL DUP8 ADD ADD SWAP3 POP DUP4 DUP8 ADD DUP6 JUMPDEST DUP3 DUP2 LT ISZERO PUSH2 0x4277 JUMPI PUSH32 0xFFFFFFFFFFFFFFFFFFFFFFFFFFFFFFFFFFFFFFFFFFFFFFFFFFFFFFFFFFFFFFC0 DUP9 DUP7 SUB ADD DUP5 MSTORE PUSH2 0x4265 DUP6 DUP4 MLOAD PUSH2 0x3DF0 JUMP JUMPDEST SWAP5 POP SWAP3 DUP6 ADD SWAP3 SWAP1 DUP6 ADD SWAP1 PUSH1 0x1 ADD PUSH2 0x422B JUMP JUMPDEST POP SWAP3 SWAP8 SWAP7 POP POP POP POP POP POP POP JUMP JUMPDEST PUSH1 0x20 DUP1 DUP3 MSTORE DUP3 MLOAD DUP3 DUP3 ADD DUP2 SWAP1 MSTORE PUSH1 0x0 SWAP2 SWAP1 DUP5 DUP3 ADD SWAP1 PUSH1 0x40 DUP6 ADD SWAP1 DUP5 JUMPDEST DUP2 DUP2 LT ISZERO PUSH2 0x42BC JUMPI DUP4 MLOAD DUP4 MSTORE SWAP3 DUP5 ADD SWAP3 SWAP2 DUP5 ADD SWAP2 PUSH1 0x1 ADD PUSH2 0x42A0 JUMP JUMPDEST POP SWAP1 SWAP7 SWAP6 POP POP POP POP POP POP JUMP JUMPDEST SWAP1 DUP2 MSTORE PUSH1 0x20 ADD SWAP1 JUMP JUMPDEST PUSH1 0x0 DUP5 DUP3 MSTORE PUSH5 0xFFFFFFFFFF DUP5 AND PUSH1 0x20 DUP4 ADD MSTORE PUSH1 0x60 PUSH1 0x40 DUP4 ADD MSTORE PUSH2 0x414F PUSH1 0x60 DUP4 ADD DUP5 PUSH2 0x3C54 JUMP JUMPDEST SWAP4 DUP5 MSTORE PUSH1 0xFF SWAP3 SWAP1 SWAP3 AND PUSH1 0x20 DUP5 ADD MSTORE PUSH1 0x40 DUP4 ADD MSTORE PUSH1 0x60 DUP3 ADD MSTORE PUSH1 0x80 ADD SWAP1 JUMP JUMPDEST PUSH1 0x0 PUSH1 0x20 DUP3 MSTORE PUSH2 0x12B4 PUSH1 0x20 DUP4 ADD DUP5 PUSH2 0x3C54 JUMP JUMPDEST PUSH1 0x20 DUP1 DUP3 MSTORE PUSH1 0x17 SWAP1 DUP3 ADD MSTORE PUSH32 0x4D61726B6574206E6F742079657420736574746C65642E000000000000000000 PUSH1 0x40 DUP3 ADD MSTORE PUSH1 0x60 ADD SWAP1 JUMP JUMPDEST PUSH1 0x20 DUP1 DUP3 MSTORE PUSH1 0x12 SWAP1 DUP3 ADD MSTORE PUSH32 0x5369676E617475726520696E76616C69642E0000000000000000000000000000 PUSH1 0x40 DUP3 ADD MSTORE PUSH1 0x60 ADD SWAP1 JUMP JUMPDEST PUSH1 0x20 DUP1 DUP3 MSTORE PUSH1 0x15 SWAP1 DUP3 ADD MSTORE PUSH32 0x746F6F2066617220696E20746865206675747572650000000000000000000000 PUSH1 0x40 DUP3 ADD MSTORE PUSH1 0x60 ADD SWAP1 JUMP JUMPDEST PUSH1 0x20 DUP1 DUP3 MSTORE PUSH1 0x1B SWAP1 DUP3 ADD MSTORE PUSH32 0x536166654D6174683A206164646974696F6E206F766572666C6F770000000000 PUSH1 0x40 DUP3 ADD MSTORE PUSH1 0x60 ADD SWAP1 JUMP JUMPDEST PUSH1 0x20 DUP1 DUP3 MSTORE PUSH1 0x21 SWAP1 DUP3 ADD MSTORE PUSH32 0x5369676E6564536166654D6174683A206164646974696F6E206F766572666C6F PUSH1 0x40 DUP3 ADD MSTORE PUSH32 0x7700000000000000000000000000000000000000000000000000000000000000 PUSH1 0x60 DUP3 ADD MSTORE PUSH1 0x80 ADD SWAP1 JUMP JUMPDEST PUSH1 0x20 DUP1 DUP3 MSTORE PUSH1 0x21 SWAP1 DUP3 ADD MSTORE PUSH32 0x536166654D6174683A206D756C7469706C69636174696F6E206F766572666C6F PUSH1 0x40 DUP3 ADD MSTORE PUSH32 0x7700000000000000000000000000000000000000000000000000000000000000 PUSH1 0x60 DUP3 ADD MSTORE PUSH1 0x80 ADD SWAP1 JUMP JUMPDEST PUSH1 0x20 DUP1 DUP3 MSTORE PUSH1 0x27 SWAP1 DUP3 ADD MSTORE PUSH32 0x5369676E6564536166654D6174683A206D756C7469706C69636174696F6E206F PUSH1 0x40 DUP3 ADD MSTORE PUSH32 0x766572666C6F7700000000000000000000000000000000000000000000000000 PUSH1 0x60 DUP3 ADD MSTORE PUSH1 0x80 ADD SWAP1 JUMP JUMPDEST PUSH1 0x20 DUP1 DUP3 MSTORE PUSH1 0x15 SWAP1 DUP3 ADD MSTORE PUSH32 0x4E6F7420656E6F756768206C69717569646974792E0000000000000000000000 PUSH1 0x40 DUP3 ADD MSTORE PUSH1 0x60 ADD SWAP1 JUMP JUMPDEST PUSH1 0x20 DUP1 DUP3 MSTORE PUSH1 0x24 SWAP1 DUP3 ADD MSTORE PUSH32 0x5369676E6564536166654D6174683A207375627472616374696F6E206F766572 PUSH1 0x40 DUP3 ADD MSTORE PUSH32 0x666C6F7700000000000000000000000000000000000000000000000000000000 PUSH1 0x60 DUP3 ADD MSTORE PUSH1 0x80 ADD SWAP1 JUMP JUMPDEST PUSH1 0x0 PUSH1 0x20 DUP3 MSTORE PUSH2 0x12B4 PUSH1 0x20 DUP4 ADD DUP5 PUSH2 0x3C9E JUMP JUMPDEST PUSH1 0x0 PUSH1 0x20 DUP3 MSTORE PUSH2 0x12B4 PUSH1 0x20 DUP4 ADD DUP5 PUSH2 0x3DF0 JUMP JUMPDEST PUSH1 0x0 PUSH1 0x60 DUP3 ADD DUP6 DUP4 MSTORE PUSH1 0x20 PUSH1 0x60 DUP2 DUP6 ADD MSTORE DUP2 DUP7 MLOAD DUP1 DUP5 MSTORE PUSH1 0x80 DUP7 ADD SWAP2 POP DUP3 DUP9 ADD SWAP4 POP DUP5 JUMPDEST DUP2 DUP2 LT ISZERO PUSH2 0x4626 JUMPI DUP5 MLOAD DUP1 MLOAD PUSH1 0xF SIGNEXTEND DUP5 MSTORE DUP5 ADD MLOAD PUSH1 0xFF AND DUP5 DUP5 ADD MSTORE SWAP4 DUP4 ADD SWAP4 PUSH1 0x40 SWAP1 SWAP3 ADD SWAP2 PUSH1 0x1 ADD PUSH2 0x45F9 JUMP JUMPDEST POP POP DUP1 SWAP4 POP POP POP POP PUSH1 0x3 DUP4 LT PUSH2 0x4638 JUMPI INVALID JUMPDEST DUP3 PUSH1 0x40 DUP4 ADD MSTORE SWAP5 SWAP4 POP POP POP POP JUMP JUMPDEST SWAP5 DUP6 MSTORE PUSH1 0x20 DUP6 ADD SWAP4 SWAP1 SWAP4 MSTORE PUSH1 0x40 DUP5 ADD SWAP2 SWAP1 SWAP2 MSTORE PUSH1 0x60 DUP4 ADD MSTORE PUSH1 0x80 DUP3 ADD MSTORE PUSH1 0xA0 ADD SWAP1 JUMP JUMPDEST SWAP2 DUP3 MSTORE PUSH1 0x20 DUP3 ADD MSTORE PUSH1 0x40 ADD SWAP1 JUMP JUMPDEST SWAP5 DUP6 MSTORE PUSH2 0xFFFF SWAP4 SWAP1 SWAP4 AND PUSH1 0x20 DUP6 ADD MSTORE PUSH1 0x40 DUP5 ADD SWAP2 SWAP1 SWAP2 MSTORE PUSH1 0x60 DUP4 ADD MSTORE PUSH1 0x80 DUP3 ADD MSTORE PUSH1 0xA0 ADD SWAP1 JUMP JUMPDEST PUSH1 0xFF SWAP2 SWAP1 SWAP2 AND DUP2 MSTORE PUSH1 0x20 ADD SWAP1 JUMP JUMPDEST PUSH1 0x40 MLOAD DUP2 DUP2 ADD PUSH8 0xFFFFFFFFFFFFFFFF DUP2 GT DUP3 DUP3 LT OR ISZERO PUSH2 0x46CB JUMPI PUSH1 0x0 DUP1 REVERT JUMPDEST PUSH1 0x40 MSTORE SWAP2 SWAP1 POP JUMP JUMPDEST PUSH1 0x0 PUSH8 0xFFFFFFFFFFFFFFFF DUP3 GT ISZERO PUSH2 0x46E9 JUMPI DUP1 DUP2 REVERT JUMPDEST POP PUSH1 0x20 SWAP1 DUP2 MUL ADD SWAP1 JUMP JUMPDEST PUSH1 0x0 JUMPDEST DUP4 DUP2 LT ISZERO PUSH2 0x470E JUMPI DUP2 DUP2 ADD MLOAD DUP4 DUP3 ADD MSTORE PUSH1 0x20 ADD PUSH2 0x46F6 JUMP JUMPDEST DUP4 DUP2 GT ISZERO PUSH2 0x1F31 JUMPI POP POP PUSH1 0x0 SWAP2 ADD MSTORE JUMP INVALID STOP STOP STOP STOP STOP STOP STOP STOP STOP STATICCALL PUSH30 0x3B53800000000A8C0000000001FA40000000001C200000000000 STOP LOG2 PUSH5 0x6970667358 0x22 SLT KECCAK256 PUSH21 0xD4FF7AB59B69940527ACDC032F6B8C523B4919C694 PUSH22 0x1D3F4D6FBFB39BF50B64736F6C634300060500330000 "
			}
		}
	},
	"sourceTreeHashHex": "0xe3ba2e5b9d8daa7354ec07d59c4cb3efbd9c22d7f0fd0b6a3df251a78f135ce9",
	"compiler": {
		"name": "solc",
		"version": "soljson-v0.6.5+commit.f956cc89.js",
		"settings": {
			"optimizer": {
				"enabled": true,
				"runs": 20000,
				"details": {
					"yul": true,
					"deduplicate": true,
					"cse": true,
					"constantOptimizer": true
				}
			},
			"outputSelection": {
				"*": {
					"*": [
						"abi",
						"evm.bytecode.object",
						"evm.bytecode.sourceMap",
						"evm.deployedBytecode.object",
						"evm.deployedBytecode.sourceMap"
					]
				}
			},
			"remappings": [
				"factsigner=/home/ulf/github/digioptions-contracts.js/node_modules/factsigner"
			]
		}
	},
	"chains": {}
}