{
	"schemaVersion": "2.0.0",
	"contractName": "DigiOptionsMarketLister",
	"compilerOutput": {
		"abi": [
			{
				"inputs": [
					{
						"internalType": "contract DigiOptionsMarkets",
						"name": "addr",
						"type": "address"
					}
				],
				"stateMutability": "nonpayable",
				"type": "constructor"
			},
			{
				"anonymous": false,
				"inputs": [
					{
						"indexed": false,
						"internalType": "bytes32",
						"name": "marketKey",
						"type": "bytes32"
					},
					{
						"indexed": true,
						"internalType": "uint48",
						"name": "expirationDatetimeFilter",
						"type": "uint48"
					},
					{
						"indexed": false,
						"internalType": "uint40",
						"name": "expirationDatetime",
						"type": "uint40"
					},
					{
						"indexed": true,
						"internalType": "uint8",
						"name": "marketInterval",
						"type": "uint8"
					},
					{
						"indexed": true,
						"internalType": "uint8",
						"name": "marketCategory",
						"type": "uint8"
					},
					{
						"indexed": false,
						"internalType": "uint16",
						"name": "openDelaySeconds",
						"type": "uint16"
					},
					{
						"indexed": false,
						"internalType": "string",
						"name": "underlyingString",
						"type": "string"
					}
				],
				"name": "MarketCreateLister",
				"type": "event"
			},
			{
				"inputs": [
					{
						"internalType": "uint40",
						"name": "expirationDatetime",
						"type": "uint40"
					}
				],
				"name": "calcMarketInterval",
				"outputs": [
					{
						"internalType": "uint8",
						"name": "interval",
						"type": "uint8"
					}
				],
				"stateMutability": "view",
				"type": "function"
			},
			{
				"inputs": [
					{
						"components": [
							{
								"internalType": "string",
								"name": "underlyingString",
								"type": "string"
							},
							{
								"internalType": "uint40",
								"name": "expirationDatetime",
								"type": "uint40"
							},
							{
								"internalType": "uint24",
								"name": "objectionPeriod",
								"type": "uint24"
							},
							{
								"internalType": "uint8",
								"name": "config",
								"type": "uint8"
							},
							{
								"internalType": "uint8",
								"name": "marketCategory",
								"type": "uint8"
							},
							{
								"internalType": "uint8",
								"name": "baseUnitExp",
								"type": "uint8"
							},
							{
								"internalType": "int8",
								"name": "ndigit",
								"type": "int8"
							},
							{
								"internalType": "address",
								"name": "signerAddr",
								"type": "address"
							},
							{
								"internalType": "uint8",
								"name": "marketInterval",
								"type": "uint8"
							},
							{
								"internalType": "uint32",
								"name": "transactionFee0",
								"type": "uint32"
							},
							{
								"internalType": "address",
								"name": "feeTaker0",
								"type": "address"
							},
							{
								"internalType": "uint32",
								"name": "transactionFee1",
								"type": "uint32"
							},
							{
								"internalType": "uint32",
								"name": "transactionFeeSigner",
								"type": "uint32"
							},
							{
								"internalType": "address",
								"name": "feeTaker1",
								"type": "address"
							},
							{
								"internalType": "int128[]",
								"name": "strikes",
								"type": "int128[]"
							}
						],
						"internalType": "struct DigiOptionsLib.MarketBaseData",
						"name": "marketBaseData",
						"type": "tuple"
					},
					{
						"internalType": "bool",
						"name": "testMarket",
						"type": "bool"
					},
					{
						"components": [
							{
								"internalType": "uint8",
								"name": "v",
								"type": "uint8"
							},
							{
								"internalType": "bytes32",
								"name": "r",
								"type": "bytes32"
							},
							{
								"internalType": "bytes32",
								"name": "s",
								"type": "bytes32"
							}
						],
						"internalType": "struct FactsignerVerify.Signature",
						"name": "signature",
						"type": "tuple"
					}
				],
				"name": "createMarket",
				"outputs": [
					{
						"internalType": "bytes32",
						"name": "marketHash",
						"type": "bytes32"
					}
				],
				"stateMutability": "nonpayable",
				"type": "function"
			},
			{
				"inputs": [],
				"name": "getContractInfo",
				"outputs": [
					{
						"internalType": "uint256[]",
						"name": "contractInfoValues",
						"type": "uint256[]"
					}
				],
				"stateMutability": "nonpayable",
				"type": "function"
			},
			{
				"inputs": [
					{
						"internalType": "address",
						"name": "addr",
						"type": "address"
					},
					{
						"internalType": "bytes32",
						"name": "marketHash",
						"type": "bytes32"
					}
				],
				"name": "getMarketDataByMarketHash",
				"outputs": [
					{
						"components": [
							{
								"components": [
									{
										"internalType": "string",
										"name": "underlyingString",
										"type": "string"
									},
									{
										"internalType": "uint40",
										"name": "expirationDatetime",
										"type": "uint40"
									},
									{
										"internalType": "uint24",
										"name": "objectionPeriod",
										"type": "uint24"
									},
									{
										"internalType": "uint8",
										"name": "config",
										"type": "uint8"
									},
									{
										"internalType": "uint8",
										"name": "marketCategory",
										"type": "uint8"
									},
									{
										"internalType": "uint8",
										"name": "baseUnitExp",
										"type": "uint8"
									},
									{
										"internalType": "int8",
										"name": "ndigit",
										"type": "int8"
									},
									{
										"internalType": "address",
										"name": "signerAddr",
										"type": "address"
									},
									{
										"internalType": "uint8",
										"name": "marketInterval",
										"type": "uint8"
									},
									{
										"internalType": "uint32",
										"name": "transactionFee0",
										"type": "uint32"
									},
									{
										"internalType": "address",
										"name": "feeTaker0",
										"type": "address"
									},
									{
										"internalType": "uint32",
										"name": "transactionFee1",
										"type": "uint32"
									},
									{
										"internalType": "uint32",
										"name": "transactionFeeSigner",
										"type": "uint32"
									},
									{
										"internalType": "address",
										"name": "feeTaker1",
										"type": "address"
									},
									{
										"internalType": "int128[]",
										"name": "strikes",
										"type": "int128[]"
									}
								],
								"internalType": "struct DigiOptionsLib.MarketBaseData",
								"name": "marketBaseData",
								"type": "tuple"
							},
							{
								"components": [
									{
										"internalType": "uint128",
										"name": "fee",
										"type": "uint128"
									},
									{
										"internalType": "uint16",
										"name": "winningOptionID",
										"type": "uint16"
									},
									{
										"internalType": "bool",
										"name": "settled",
										"type": "bool"
									}
								],
								"internalType": "struct DigiOptionsLib.MarketState",
								"name": "marketState",
								"type": "tuple"
							},
							{
								"internalType": "bytes32",
								"name": "marketHash",
								"type": "bytes32"
							},
							{
								"internalType": "enum DigiOptionsLib.UserState",
								"name": "userState",
								"type": "uint8"
							},
							{
								"internalType": "bool",
								"name": "testMarket",
								"type": "bool"
							}
						],
						"internalType": "struct DigiOptionsLib.MarketData",
						"name": "marketData",
						"type": "tuple"
					}
				],
				"stateMutability": "view",
				"type": "function"
			},
			{
				"inputs": [
					{
						"internalType": "address",
						"name": "addr",
						"type": "address"
					},
					{
						"internalType": "bytes32[]",
						"name": "marketKeys",
						"type": "bytes32[]"
					}
				],
				"name": "getMarketDataListByMarketKeys",
				"outputs": [
					{
						"components": [
							{
								"components": [
									{
										"internalType": "string",
										"name": "underlyingString",
										"type": "string"
									},
									{
										"internalType": "uint40",
										"name": "expirationDatetime",
										"type": "uint40"
									},
									{
										"internalType": "uint24",
										"name": "objectionPeriod",
										"type": "uint24"
									},
									{
										"internalType": "uint8",
										"name": "config",
										"type": "uint8"
									},
									{
										"internalType": "uint8",
										"name": "marketCategory",
										"type": "uint8"
									},
									{
										"internalType": "uint8",
										"name": "baseUnitExp",
										"type": "uint8"
									},
									{
										"internalType": "int8",
										"name": "ndigit",
										"type": "int8"
									},
									{
										"internalType": "address",
										"name": "signerAddr",
										"type": "address"
									},
									{
										"internalType": "uint8",
										"name": "marketInterval",
										"type": "uint8"
									},
									{
										"internalType": "uint32",
										"name": "transactionFee0",
										"type": "uint32"
									},
									{
										"internalType": "address",
										"name": "feeTaker0",
										"type": "address"
									},
									{
										"internalType": "uint32",
										"name": "transactionFee1",
										"type": "uint32"
									},
									{
										"internalType": "uint32",
										"name": "transactionFeeSigner",
										"type": "uint32"
									},
									{
										"internalType": "address",
										"name": "feeTaker1",
										"type": "address"
									},
									{
										"internalType": "int128[]",
										"name": "strikes",
										"type": "int128[]"
									}
								],
								"internalType": "struct DigiOptionsLib.MarketBaseData",
								"name": "marketBaseData",
								"type": "tuple"
							},
							{
								"components": [
									{
										"internalType": "uint128",
										"name": "fee",
										"type": "uint128"
									},
									{
										"internalType": "uint16",
										"name": "winningOptionID",
										"type": "uint16"
									},
									{
										"internalType": "bool",
										"name": "settled",
										"type": "bool"
									}
								],
								"internalType": "struct DigiOptionsLib.MarketState",
								"name": "marketState",
								"type": "tuple"
							},
							{
								"internalType": "bytes32",
								"name": "marketHash",
								"type": "bytes32"
							},
							{
								"internalType": "enum DigiOptionsLib.UserState",
								"name": "userState",
								"type": "uint8"
							},
							{
								"internalType": "bool",
								"name": "testMarket",
								"type": "bool"
							}
						],
						"internalType": "struct DigiOptionsLib.MarketData[]",
						"name": "marketDataList",
						"type": "tuple[]"
					}
				],
				"stateMutability": "view",
				"type": "function"
			},
			{
				"inputs": [],
				"name": "getMarketListerInfo",
				"outputs": [
					{
						"internalType": "uint256[]",
						"name": "listerValues",
						"type": "uint256[]"
					},
					{
						"components": [
							{
								"internalType": "address",
								"name": "addr",
								"type": "address"
							},
							{
								"internalType": "uint256",
								"name": "value",
								"type": "uint256"
							}
						],
						"internalType": "struct DigiOptionsMarketLister.SignerData[]",
						"name": "signerDataList",
						"type": "tuple[]"
					}
				],
				"stateMutability": "view",
				"type": "function"
			},
			{
				"inputs": [
					{
						"internalType": "bytes32",
						"name": "marketHash",
						"type": "bytes32"
					},
					{
						"internalType": "bool",
						"name": "testMarket",
						"type": "bool"
					}
				],
				"name": "registerMarket",
				"outputs": [],
				"stateMutability": "nonpayable",
				"type": "function"
			},
			{
				"inputs": [
					{
						"components": [
							{
								"internalType": "string",
								"name": "underlyingString",
								"type": "string"
							},
							{
								"internalType": "uint40",
								"name": "expirationDatetime",
								"type": "uint40"
							},
							{
								"internalType": "uint24",
								"name": "objectionPeriod",
								"type": "uint24"
							},
							{
								"internalType": "uint8",
								"name": "config",
								"type": "uint8"
							},
							{
								"internalType": "uint8",
								"name": "marketCategory",
								"type": "uint8"
							},
							{
								"internalType": "uint8",
								"name": "baseUnitExp",
								"type": "uint8"
							},
							{
								"internalType": "int8",
								"name": "ndigit",
								"type": "int8"
							},
							{
								"internalType": "address",
								"name": "signerAddr",
								"type": "address"
							},
							{
								"internalType": "uint8",
								"name": "marketInterval",
								"type": "uint8"
							},
							{
								"internalType": "uint32",
								"name": "transactionFee0",
								"type": "uint32"
							},
							{
								"internalType": "address",
								"name": "feeTaker0",
								"type": "address"
							},
							{
								"internalType": "uint32",
								"name": "transactionFee1",
								"type": "uint32"
							},
							{
								"internalType": "uint32",
								"name": "transactionFeeSigner",
								"type": "uint32"
							},
							{
								"internalType": "address",
								"name": "feeTaker1",
								"type": "address"
							},
							{
								"internalType": "int128[]",
								"name": "strikes",
								"type": "int128[]"
							}
						],
						"internalType": "struct DigiOptionsLib.MarketBaseData",
						"name": "marketBaseData",
						"type": "tuple"
					}
				],
				"name": "registerMarketTest",
				"outputs": [
					{
						"internalType": "bool",
						"name": "registerPossible",
						"type": "bool"
					}
				],
				"stateMutability": "view",
				"type": "function"
			},
			{
				"inputs": [
					{
						"internalType": "address",
						"name": "addr",
						"type": "address"
					},
					{
						"internalType": "uint256",
						"name": "value",
						"type": "uint256"
					}
				],
				"name": "setSigner",
				"outputs": [],
				"stateMutability": "nonpayable",
				"type": "function"
			},
			{
				"inputs": [
					{
						"internalType": "bytes32",
						"name": "marketHash",
						"type": "bytes32"
					},
					{
						"internalType": "bool",
						"name": "testMarket",
						"type": "bool"
					}
				],
				"name": "setTestMarket",
				"outputs": [],
				"stateMutability": "nonpayable",
				"type": "function"
			}
		],
		"evm": {
			"bytecode": {
				"linkReferences": {},
				"object": "0x608060405260006006553480156200001657600080fd5b50604051620025d5380380620025d5833981016040819052620000399162000071565b60018054336001600160a01b03199182161790915543600055600280549091166001600160a01b0392909216919091179055620000a1565b60006020828403121562000083578081fd5b81516001600160a01b03811681146200009a578182fd5b9392505050565b61252480620000b16000396000f3fe608060405234801561001057600080fd5b50600436106100be5760003560e01c80637cc1f86711610076578063c70be1461161005b578063c70be14614610172578063e8d261c914610192578063ed1d26d7146101b2576100be565b80637cc1f8671461014a5780638677e7b91461015f576100be565b806352d02688116100a757806352d026881461010257806365e47b8c14610122578063711c2b9414610137576100be565b8063095200ce146100c35780630f8f8244146100ec575b600080fd5b6100d66100d1366004611c50565b6101d2565b6040516100e3919061236b565b60405180910390f35b6100f4610281565b6040516100e3929190612134565b61011561011036600461189c565b61042e565b6040516100e391906120a3565b61013561013036600461191c565b6104d1565b005b6101356101453660046119f2565b61067d565b61015261070c565b6040516100e39190612121565b61013561016d3660046119f2565b610877565b61018561018036600461191c565b6109ae565b6040516100e39190612346565b6101a56101a0366004611a8f565b610aa0565b6040516100e391906121b5565b6101c56101c0366004611a21565b610ba1565b6040516100e391906121aa565b6002546040517f095200ce00000000000000000000000000000000000000000000000000000000815260009173ffffffffffffffffffffffffffffffffffffffff169063095200ce90610229908590600401612359565b60206040518083038186803b15801561024157600080fd5b505afa158015610255573d6000803e3d6000fd5b505050506040513d601f19601f820116820180604052506102799190810190611c6c565b90505b919050565b60408051600480825260a082019092526060918291906020820160808036833701905050915062320000826000815181106102b857fe5b60209081029190910101526001805473ffffffffffffffffffffffffffffffffffffffff16908390815181106102ea57fe5b6020908102919091010152662386f26fc100008260028151811061030a57fe5b60209081029190910101526102588260038151811061032557fe5b602002602001018181525050600060065490508060405190808252806020026020018201604052801561037257816020015b61035f611297565b8152602001906001900390816103575790505b5060045490925073ffffffffffffffffffffffffffffffffffffffff1660005b828110156104275760408051808201825273ffffffffffffffffffffffffffffffffffffffff8416808252600090815260056020908152929020549181019190915284518590839081106103e257fe5b60209081029190910181019190915273ffffffffffffffffffffffffffffffffffffffff92831660009081526005909152604090206001908101549092169101610392565b5050509091565b60408051828152602080840282010190915260609082801561046a57816020015b6104576112ae565b81526020019060019003908161044f5790505b50905060005b828110156104c9576104aa856007600087878681811061048c57fe5b905060200201358152602001908152602001600020600001546109ae565b8282815181106104b657fe5b6020908102919091010152600101610470565b509392505050565b60015473ffffffffffffffffffffffffffffffffffffffff16331461052b576040517f08c379a000000000000000000000000000000000000000000000000000000000815260040161052290612201565b60405180910390fd5b73ffffffffffffffffffffffffffffffffffffffff821660009081526005602052604090206001015474010000000000000000000000000000000000000000900460ff16156105a15773ffffffffffffffffffffffffffffffffffffffff82166000908152600560205260409020819055610679565b600480546040805160608101825284815273ffffffffffffffffffffffffffffffffffffffff92831660208083019182526001838501818152898716600081815260059094529590922093518455915192820180549151151574010000000000000000000000000000000000000000027fffffffffffffffffffffff00ffffffffffffffffffffffffffffffffffffffff949096167fffffffffffffffffffffffff00000000000000000000000000000000000000009283161793909316949094179091558354909216179091556006805490910190555b5050565b60015473ffffffffffffffffffffffffffffffffffffffff1633146106ce576040517f08c379a000000000000000000000000000000000000000000000000000000000815260040161052290612201565b60009182526008602052604090912080547fffffffffffffffffffffffffffffffffffffffffffffffffffffffffffffff0016911515919091179055565b606080600260009054906101000a900473ffffffffffffffffffffffffffffffffffffffff1673ffffffffffffffffffffffffffffffffffffffff16637cc1f8676040518163ffffffff1660e01b8152600401600060405180830381600087803b15801561077957600080fd5b505af115801561078d573d6000803e3d6000fd5b505050506040513d6000823e601f3d9081017fffffffffffffffffffffffffffffffffffffffffffffffffffffffffffffffe01682016040526107d39190810190611947565b90506002816000815181106107e457fe5b6020908102919091010152623200008160018151811061080057fe5b602090810291909101015260025473ffffffffffffffffffffffffffffffffffffffff168160038151811061083157fe5b60209081029190910101526000548160048151811061084c57fe5b60209081029190910101526003548160088151811061086757fe5b6020908102919091010152905090565b61087f6112e9565b6002546040517fee1f69eb00000000000000000000000000000000000000000000000000000000815273ffffffffffffffffffffffffffffffffffffffff9091169063ee1f69eb906108d59086906004016121b5565b60006040518083038186803b1580156108ed57600080fd5b505afa158015610901573d6000803e3d6000fd5b505050506040513d6000823e601f3d9081017fffffffffffffffffffffffffffffffffffffffffffffffffffffffffffffffe01682016040526109479190810190611a5c565b9050806020015164ffffffffff166000141561095f57fe5b61096881610ba1565b61099e576040517f08c379a0000000000000000000000000000000000000000000000000000000008152600401610522906122cc565b6109a9818484610c96565b505050565b6109b66112ae565b6002546040517fc70be14600000000000000000000000000000000000000000000000000000000815273ffffffffffffffffffffffffffffffffffffffff9091169063c70be14690610a0e908690869060040161207d565b60006040518083038186803b158015610a2657600080fd5b505afa158015610a3a573d6000803e3d6000fd5b505050506040513d6000823e601f3d9081017fffffffffffffffffffffffffffffffffffffffffffffffffffffffffffffffe0168201604052610a809190810190611b40565b6000928352600860205260409092205460ff161515608083015250919050565b6000610aab84610ba1565b610ae1576040517f08c379a0000000000000000000000000000000000000000000000000000000008152600401610522906122cc565b6002546040517fe8d261c900000000000000000000000000000000000000000000000000000000815273ffffffffffffffffffffffffffffffffffffffff9091169063e8d261c990610b3b90879087908790600401612303565b602060405180830381600087803b158015610b5557600080fd5b505af1158015610b69573d6000803e3d6000fd5b505050506040513d601f19601f82011682018060405250610b8d91908101906119da565b9050610b9a848285610c96565b9392505050565b60e081015173ffffffffffffffffffffffffffffffffffffffff16600090815260056020526040812054158015610bf0575060015473ffffffffffffffffffffffffffffffffffffffff163314155b15610bfd5750600061027c565b662386f26fc1000067ffffffffffffffff16610c5383610180015163ffffffff16610c4785610160015163ffffffff1686610120015163ffffffff16610fff90919063ffffffff16565b9063ffffffff610fff16565b11158015610c81575060015461014083015173ffffffffffffffffffffffffffffffffffffffff9081169116145b15610c8e5750600161027c565b506000919050565b6000610ca184611047565b6000818152600760205260409020600101549091506d0100000000000000000000000000900461ffff16610f2b576040805160808101825284815261012086015163ffffffff16602080830191825264ffffffffff428116848601908152610258606086019081526000888152600790945295909220935184559151600193840180549251955161ffff166d0100000000000000000000000000027fffffffffffffffffffffffffffffffffff0000ffffffffffffffffffffffffff9690941668010000000000000000027fffffffffffffffffffffffffffffffffffffff0000000000ffffffffffffffff67ffffffffffffffff939093167fffffffffffffffffffffffffffffffffffffffffffffffff00000000000000009094169390931791909116919091179390931617909155543373ffffffffffffffffffffffffffffffffffffffff9091161415610e2b57600083815260086020526040902080547fffffffffffffffffffffffffffffffffffffffffffffffffffffffffffffff00168315151790555b6000846080015160080260ff1685610100015160ff166001901b901b9050806003541660001415610e5f5760038054821790555b606085015160009060041615610e7b5750610100850151610e8b565b610e888660200151611125565b90505b856080015160ff1686610100015160ff168260ff166008610eae8560ff166111e6565b65ffffffffffff168a6020015164ffffffffff1681610ec957fe5b0465ffffffffffff16901b0165ffffffffffff167fc1b504e22197c95fe2a6e166fd15fcda59f27ac6bbc947bc2a1c87d31e7efcf9868a602001516102588c60000151604051610f1c94939291906121be565b60405180910390a45050610ff9565b60008181526007602052604090206001015461012085015167ffffffffffffffff90911663ffffffff909116118015610fa557506000818152600760205260409020600101546d0100000000000000000000000000810461ffff166801000000000000000090910464ffffffffff90811691909101164211155b15610ff9576000818152600760205260409020838155610120850151600190910180547fffffffffffffffffffffffffffffffffffffffffffffffff00000000000000001663ffffffff9092169190911790555b50505050565b60008282018381101561103e576040517f08c379a000000000000000000000000000000000000000000000000000000000815260040161052290612295565b90505b92915050565b6000606082600001516040516020016110609190612061565b6040516020818303038152906040528051906020012083602001518460400151856060015186608001518760a001518860c001518961010001516040516020016110b1989796959493929190611f5d565b604080518083037fffffffffffffffffffffffffffffffffffffffffffffffffffffffffffffffe00181529190526060840151909150600116611117576101c0830151604051611105918391602001612018565b60405160208183030381529060405290505b805160209091012092915050565b6000808061114064ffffffffff85164263ffffffff61121416565b90506303c26700811061117f576040517f08c379a00000000000000000000000000000000000000000000000000000000081526004016105229061225e565b623b53808111156111945760015b91506111df565b620a8c008111156111a657600361118d565b6201fa408111156111b857600461118d565b611c208111156111c957600561118d565b6103848111156111da57600661118d565b600791505b5092915050565b600060606040518060600160405280602a81526020016124c5602a9139600184016006020151915050919050565b600061103e83836040518060400160405280601e81526020017f536166654d6174683a207375627472616374696f6e206f766572666c6f7700008152506000818484111561128f576040517f08c379a000000000000000000000000000000000000000000000000000000000815260040161052291906121ee565b505050900390565b604080518082019091526000808252602082015290565b6040518060a001604052806112c16112e9565b81526020016112ce611367565b81526000602082018190526040820181905260609091015290565b604080516101e08101825260608082526000602083018190529282018390528082018390526080820183905260a0820183905260c0820183905260e08201839052610100820183905261012082018390526101408201839052610160820183905261018082018390526101a08201929092526101c081019190915290565b604080516060810182526000808252602082018190529181019190915290565b80356110418161242e565b80516110418161242e565b600082601f8301126113ad578081fd5b81356113c06113bb826123a0565b612379565b8181529150602080830190848101818402860182018710156113e157600080fd5b60005b848110156114095781356113f781612461565b845292820192908201906001016113e4565b505050505092915050565b600082601f830112611424578081fd5b81516114326113bb826123a0565b81815291506020808301908481018184028601820187101561145357600080fd5b60005b8481101561140957815161146981612461565b84529282019290820190600101611456565b805161104181612453565b80516003811061104157600080fd5b803561104181612470565b805161104181612470565b600082601f8301126114bb578081fd5b81356114c96113bb826123c0565b91508082528360208285010111156114e057600080fd5b8060208401602084013760009082016020015292915050565b600082601f830112611509578081fd5b81516115176113bb826123c0565b915080825283602082850101111561152e57600080fd5b6111df816020840160208601612402565b60006101e0808385031215611552578182fd5b61155b81612379565b915050815167ffffffffffffffff8082111561157657600080fd5b611582858386016114f9565b8352611591856020860161187b565b60208401526115a3856040860161184f565b60408401526115b58560608601611891565b60608401526115c78560808601611891565b60808401526115d98560a08601611891565b60a08401526115eb8560c086016114a0565b60c08401526115fd8560e08601611392565b60e0840152610100915061161385838601611891565b82840152610120915061162885838601611865565b82840152610140915061163d85838601611392565b82840152610160915061165285838601611865565b82840152610180915061166785838601611865565b828401526101a0915061167c85838601611392565b828401526101c09150818401518181111561169657600080fd5b6116a286828701611414565b8385015250505092915050565b60006101e08083850312156116c2578182fd5b6116cb81612379565b915050813567ffffffffffffffff808211156116e657600080fd5b6116f2858386016114ab565b83526117018560208601611870565b60208401526117138560408601611844565b60408401526117258560608601611886565b60608401526117378560808601611886565b60808401526117498560a08601611886565b60a084015261175b8560c08601611495565b60c084015261176d8560e08601611387565b60e0840152610100915061178385838601611886565b8284015261012091506117988583860161185a565b8284015261014091506117ad85838601611387565b8284015261016091506117c28583860161185a565b8284015261018091506117d78583860161185a565b828401526101a091506117ec85838601611387565b828401526101c09150818401358181111561180657600080fd5b6116a28682870161139d565b80516fffffffffffffffffffffffffffffffff8116811461104157600080fd5b805161ffff8116811461104157600080fd5b80356110418161247f565b80516110418161247f565b803561104181612490565b805161104181612490565b8035611041816124a2565b8051611041816124a2565b8035611041816124b5565b8051611041816124b5565b6000806000604084860312156118b0578283fd5b83356118bb8161242e565b9250602084013567ffffffffffffffff808211156118d7578384fd5b81860187601f8201126118e8578485fd5b80359250818311156118f8578485fd5b876020808502830101111561190b578485fd5b949760209095019650909450505050565b6000806040838503121561192e578182fd5b82356119398161242e565b946020939093013593505050565b60006020808385031215611959578182fd5b825167ffffffffffffffff81111561196f578283fd5b80840185601f820112611980578384fd5b805191506119906113bb836123a0565b82815283810190828501858502840186018910156119ac578687fd5b8693505b848410156119ce5780518352600193909301929185019185016119b0565b50979650505050505050565b6000602082840312156119eb578081fd5b5051919050565b60008060408385031215611a04578182fd5b823591506020830135611a1681612453565b809150509250929050565b600060208284031215611a32578081fd5b813567ffffffffffffffff811115611a48578182fd5b611a54848285016116af565b949350505050565b600060208284031215611a6d578081fd5b815167ffffffffffffffff811115611a83578182fd5b611a548482850161153f565b600080600083850360a0811215611aa4578182fd5b843567ffffffffffffffff811115611aba578283fd5b611ac6878288016116af565b9450506020850135611ad781612453565b925060607fffffffffffffffffffffffffffffffffffffffffffffffffffffffffffffffc082011215611b08578182fd5b50611b136060612379565b6040850135611b21816124b5565b8152606085013560208201526080909401356040850152509093909250565b600060208284031215611b51578081fd5b815167ffffffffffffffff80821115611b68578283fd5b818401808603925060e0831215611b7d578384fd5b611b8760a0612379565b815183811115611b95578586fd5b611ba18882850161153f565b82525060607fffffffffffffffffffffffffffffffffffffffffffffffffffffffffffffffe085011215611bd3578485fd5b611bdd6060612379565b9350611bec8760208401611812565b8452611bfb8760408401611832565b6020850152611c0d876060840161147b565b604085015283602082015260808201516040820152611c2f8760a08401611486565b6060820152611c418760c0840161147b565b60808201529695505050505050565b600060208284031215611c61578081fd5b813561103e816124a2565b600060208284031215611c7d578081fd5b815161103e816124b5565b73ffffffffffffffffffffffffffffffffffffffff169052565b6000815180845260208085019450808401835b83811015611cd4578151600f0b87529582019590820190600101611cb5565b509495945050505050565b6000815180845260208085019450808401835b83811015611cd457815187529582019590820190600101611cf2565b60000b9052565b60008151808452611d2d816020860160208601612402565b601f017fffffffffffffffffffffffffffffffffffffffffffffffffffffffffffffffe0169290920160200192915050565b60006101e08251818552611d7582860182611d15565b60208501519250611d896020870184611f4b565b60408501519250611d9d6040870184611f38565b60608501519250611db16060870184611f56565b60808501519250611dc56080870184611f56565b60a08501519250611dd960a0870184611f56565b60c08501519250611ded60c0870184611d0e565b60e08501519250611e0160e0870184611c88565b6101009250828501519150611e1883870183611f56565b6101209250828501519150611e2f83870183611f41565b6101409250828501519150611e4683870183611c88565b6101609250828501519150611e5d83870183611f41565b6101809250828501519150611e7483870183611f41565b6101a09250828501519150611e8b83870183611c88565b6101c0925082850151915085810383870152611ea78183611ca2565b9695505050505050565b6000815160e08452611ec660e0850182611d5f565b602084015191506fffffffffffffffffffffffffffffffff825116602086015261ffff6020830151166040860152604082015115156060860152604084015160808601526060840151915060038210611f1b57fe5b8160a08601526080840151151560c0860152809250505092915050565b62ffffff169052565b63ffffffff169052565b64ffffffffff169052565b60ff169052565b97885260d89690961b7fffffffffff00000000000000000000000000000000000000000000000000000016602088015260e89490941b7fffffff000000000000000000000000000000000000000000000000000000000016602587015260f892831b7fff00000000000000000000000000000000000000000000000000000000000000908116602888015291831b82166029870152821b8116602a86015260009290920b811b602b8501529190911b16602c820152602d0190565b60008351602061202b8285838901612402565b8451918401818601845b84811015612054578151600f0b83529183019190830190600101612035565b5090979650505050505050565b60008251612073818460208701612402565b9190910192915050565b73ffffffffffffffffffffffffffffffffffffffff929092168252602082015260400190565b6000602080830181845280855180835260408601915060408482028701019250838701855b82811015612114577fffffffffffffffffffffffffffffffffffffffffffffffffffffffffffffffc0888603018452612102858351611eb1565b945092850192908501906001016120c8565b5092979650505050505050565b60006020825261103e6020830184611cdf565b6000604080835261214781840186611cdf565b838103602085810191909152855180835286820192820190855b8181101561219c578451805173ffffffffffffffffffffffffffffffffffffffff168452840151848401529383019391850191600101612161565b509098975050505050505050565b901515815260200190565b90815260200190565b600085825264ffffffffff8516602083015261ffff8416604083015260806060830152611ea76080830184611d15565b60006020825261103e6020830184611d15565b60208082526022908201527f4f6e6c79206f776e65722063616e2063616c6c20746869732066756e6374696f60408201527f6e2e000000000000000000000000000000000000000000000000000000000000606082015260800190565b60208082526015908201527f746f6f2066617220696e20746865206675747572650000000000000000000000604082015260600190565b6020808252601b908201527f536166654d6174683a206164646974696f6e206f766572666c6f770000000000604082015260600190565b60208082526015908201527f7265676973746572206e6f7420706f737369626c650000000000000000000000604082015260600190565b600060a0825261231660a0830186611d5f565b9050831515602083015260ff83511660408301526020830151606083015260408301516080830152949350505050565b60006020825261103e6020830184611eb1565b64ffffffffff91909116815260200190565b60ff91909116815260200190565b60405181810167ffffffffffffffff8111828210171561239857600080fd5b604052919050565b600067ffffffffffffffff8211156123b6578081fd5b5060209081020190565b600067ffffffffffffffff8211156123d6578081fd5b50601f017fffffffffffffffffffffffffffffffffffffffffffffffffffffffffffffffe01660200190565b60005b8381101561241d578181015183820152602001612405565b83811115610ff95750506000910152565b73ffffffffffffffffffffffffffffffffffffffff8116811461245057600080fd5b50565b801515811461245057600080fd5b80600f0b811461245057600080fd5b8060000b811461245057600080fd5b62ffffff8116811461245057600080fd5b63ffffffff8116811461245057600080fd5b64ffffffffff8116811461245057600080fd5b60ff8116811461245057600080fdfe000000000000000000fa7d000000003b53800000000a8c0000000001fa40000000001c20000000000000a2646970667358221220a19a1a10ef28809692b4d3b626dfb2c0834ef82b3bbfcb071d96067eb15ea97564736f6c63430006030033",
				"opcodes": "PUSH1 0x80 PUSH1 0x40 MSTORE PUSH1 0x0 PUSH1 0x6 SSTORE CALLVALUE DUP1 ISZERO PUSH3 0x16 JUMPI PUSH1 0x0 DUP1 REVERT JUMPDEST POP PUSH1 0x40 MLOAD PUSH3 0x25D5 CODESIZE SUB DUP1 PUSH3 0x25D5 DUP4 CODECOPY DUP2 ADD PUSH1 0x40 DUP2 SWAP1 MSTORE PUSH3 0x39 SWAP2 PUSH3 0x71 JUMP JUMPDEST PUSH1 0x1 DUP1 SLOAD CALLER PUSH1 0x1 PUSH1 0x1 PUSH1 0xA0 SHL SUB NOT SWAP2 DUP3 AND OR SWAP1 SWAP2 SSTORE NUMBER PUSH1 0x0 SSTORE PUSH1 0x2 DUP1 SLOAD SWAP1 SWAP2 AND PUSH1 0x1 PUSH1 0x1 PUSH1 0xA0 SHL SUB SWAP3 SWAP1 SWAP3 AND SWAP2 SWAP1 SWAP2 OR SWAP1 SSTORE PUSH3 0xA1 JUMP JUMPDEST PUSH1 0x0 PUSH1 0x20 DUP3 DUP5 SUB SLT ISZERO PUSH3 0x83 JUMPI DUP1 DUP2 REVERT JUMPDEST DUP2 MLOAD PUSH1 0x1 PUSH1 0x1 PUSH1 0xA0 SHL SUB DUP2 AND DUP2 EQ PUSH3 0x9A JUMPI DUP2 DUP3 REVERT JUMPDEST SWAP4 SWAP3 POP POP POP JUMP JUMPDEST PUSH2 0x2524 DUP1 PUSH3 0xB1 PUSH1 0x0 CODECOPY PUSH1 0x0 RETURN INVALID PUSH1 0x80 PUSH1 0x40 MSTORE CALLVALUE DUP1 ISZERO PUSH2 0x10 JUMPI PUSH1 0x0 DUP1 REVERT JUMPDEST POP PUSH1 0x4 CALLDATASIZE LT PUSH2 0xBE JUMPI PUSH1 0x0 CALLDATALOAD PUSH1 0xE0 SHR DUP1 PUSH4 0x7CC1F867 GT PUSH2 0x76 JUMPI DUP1 PUSH4 0xC70BE146 GT PUSH2 0x5B JUMPI DUP1 PUSH4 0xC70BE146 EQ PUSH2 0x172 JUMPI DUP1 PUSH4 0xE8D261C9 EQ PUSH2 0x192 JUMPI DUP1 PUSH4 0xED1D26D7 EQ PUSH2 0x1B2 JUMPI PUSH2 0xBE JUMP JUMPDEST DUP1 PUSH4 0x7CC1F867 EQ PUSH2 0x14A JUMPI DUP1 PUSH4 0x8677E7B9 EQ PUSH2 0x15F JUMPI PUSH2 0xBE JUMP JUMPDEST DUP1 PUSH4 0x52D02688 GT PUSH2 0xA7 JUMPI DUP1 PUSH4 0x52D02688 EQ PUSH2 0x102 JUMPI DUP1 PUSH4 0x65E47B8C EQ PUSH2 0x122 JUMPI DUP1 PUSH4 0x711C2B94 EQ PUSH2 0x137 JUMPI PUSH2 0xBE JUMP JUMPDEST DUP1 PUSH4 0x95200CE EQ PUSH2 0xC3 JUMPI DUP1 PUSH4 0xF8F8244 EQ PUSH2 0xEC JUMPI JUMPDEST PUSH1 0x0 DUP1 REVERT JUMPDEST PUSH2 0xD6 PUSH2 0xD1 CALLDATASIZE PUSH1 0x4 PUSH2 0x1C50 JUMP JUMPDEST PUSH2 0x1D2 JUMP JUMPDEST PUSH1 0x40 MLOAD PUSH2 0xE3 SWAP2 SWAP1 PUSH2 0x236B JUMP JUMPDEST PUSH1 0x40 MLOAD DUP1 SWAP2 SUB SWAP1 RETURN JUMPDEST PUSH2 0xF4 PUSH2 0x281 JUMP JUMPDEST PUSH1 0x40 MLOAD PUSH2 0xE3 SWAP3 SWAP2 SWAP1 PUSH2 0x2134 JUMP JUMPDEST PUSH2 0x115 PUSH2 0x110 CALLDATASIZE PUSH1 0x4 PUSH2 0x189C JUMP JUMPDEST PUSH2 0x42E JUMP JUMPDEST PUSH1 0x40 MLOAD PUSH2 0xE3 SWAP2 SWAP1 PUSH2 0x20A3 JUMP JUMPDEST PUSH2 0x135 PUSH2 0x130 CALLDATASIZE PUSH1 0x4 PUSH2 0x191C JUMP JUMPDEST PUSH2 0x4D1 JUMP JUMPDEST STOP JUMPDEST PUSH2 0x135 PUSH2 0x145 CALLDATASIZE PUSH1 0x4 PUSH2 0x19F2 JUMP JUMPDEST PUSH2 0x67D JUMP JUMPDEST PUSH2 0x152 PUSH2 0x70C JUMP JUMPDEST PUSH1 0x40 MLOAD PUSH2 0xE3 SWAP2 SWAP1 PUSH2 0x2121 JUMP JUMPDEST PUSH2 0x135 PUSH2 0x16D CALLDATASIZE PUSH1 0x4 PUSH2 0x19F2 JUMP JUMPDEST PUSH2 0x877 JUMP JUMPDEST PUSH2 0x185 PUSH2 0x180 CALLDATASIZE PUSH1 0x4 PUSH2 0x191C JUMP JUMPDEST PUSH2 0x9AE JUMP JUMPDEST PUSH1 0x40 MLOAD PUSH2 0xE3 SWAP2 SWAP1 PUSH2 0x2346 JUMP JUMPDEST PUSH2 0x1A5 PUSH2 0x1A0 CALLDATASIZE PUSH1 0x4 PUSH2 0x1A8F JUMP JUMPDEST PUSH2 0xAA0 JUMP JUMPDEST PUSH1 0x40 MLOAD PUSH2 0xE3 SWAP2 SWAP1 PUSH2 0x21B5 JUMP JUMPDEST PUSH2 0x1C5 PUSH2 0x1C0 CALLDATASIZE PUSH1 0x4 PUSH2 0x1A21 JUMP JUMPDEST PUSH2 0xBA1 JUMP JUMPDEST PUSH1 0x40 MLOAD PUSH2 0xE3 SWAP2 SWAP1 PUSH2 0x21AA JUMP JUMPDEST PUSH1 0x2 SLOAD PUSH1 0x40 MLOAD PUSH32 0x95200CE00000000000000000000000000000000000000000000000000000000 DUP2 MSTORE PUSH1 0x0 SWAP2 PUSH20 0xFFFFFFFFFFFFFFFFFFFFFFFFFFFFFFFFFFFFFFFF AND SWAP1 PUSH4 0x95200CE SWAP1 PUSH2 0x229 SWAP1 DUP6 SWAP1 PUSH1 0x4 ADD PUSH2 0x2359 JUMP JUMPDEST PUSH1 0x20 PUSH1 0x40 MLOAD DUP1 DUP4 SUB DUP2 DUP7 DUP1 EXTCODESIZE ISZERO DUP1 ISZERO PUSH2 0x241 JUMPI PUSH1 0x0 DUP1 REVERT JUMPDEST POP GAS STATICCALL ISZERO DUP1 ISZERO PUSH2 0x255 JUMPI RETURNDATASIZE PUSH1 0x0 DUP1 RETURNDATACOPY RETURNDATASIZE PUSH1 0x0 REVERT JUMPDEST POP POP POP POP PUSH1 0x40 MLOAD RETURNDATASIZE PUSH1 0x1F NOT PUSH1 0x1F DUP3 ADD AND DUP3 ADD DUP1 PUSH1 0x40 MSTORE POP PUSH2 0x279 SWAP2 SWAP1 DUP2 ADD SWAP1 PUSH2 0x1C6C JUMP JUMPDEST SWAP1 POP JUMPDEST SWAP2 SWAP1 POP JUMP JUMPDEST PUSH1 0x40 DUP1 MLOAD PUSH1 0x4 DUP1 DUP3 MSTORE PUSH1 0xA0 DUP3 ADD SWAP1 SWAP3 MSTORE PUSH1 0x60 SWAP2 DUP3 SWAP2 SWAP1 PUSH1 0x20 DUP3 ADD PUSH1 0x80 DUP1 CALLDATASIZE DUP4 CALLDATACOPY ADD SWAP1 POP POP SWAP2 POP PUSH3 0x320000 DUP3 PUSH1 0x0 DUP2 MLOAD DUP2 LT PUSH2 0x2B8 JUMPI INVALID JUMPDEST PUSH1 0x20 SWAP1 DUP2 MUL SWAP2 SWAP1 SWAP2 ADD ADD MSTORE PUSH1 0x1 DUP1 SLOAD PUSH20 0xFFFFFFFFFFFFFFFFFFFFFFFFFFFFFFFFFFFFFFFF AND SWAP1 DUP4 SWAP1 DUP2 MLOAD DUP2 LT PUSH2 0x2EA JUMPI INVALID JUMPDEST PUSH1 0x20 SWAP1 DUP2 MUL SWAP2 SWAP1 SWAP2 ADD ADD MSTORE PUSH7 0x2386F26FC10000 DUP3 PUSH1 0x2 DUP2 MLOAD DUP2 LT PUSH2 0x30A JUMPI INVALID JUMPDEST PUSH1 0x20 SWAP1 DUP2 MUL SWAP2 SWAP1 SWAP2 ADD ADD MSTORE PUSH2 0x258 DUP3 PUSH1 0x3 DUP2 MLOAD DUP2 LT PUSH2 0x325 JUMPI INVALID JUMPDEST PUSH1 0x20 MUL PUSH1 0x20 ADD ADD DUP2 DUP2 MSTORE POP POP PUSH1 0x0 PUSH1 0x6 SLOAD SWAP1 POP DUP1 PUSH1 0x40 MLOAD SWAP1 DUP1 DUP3 MSTORE DUP1 PUSH1 0x20 MUL PUSH1 0x20 ADD DUP3 ADD PUSH1 0x40 MSTORE DUP1 ISZERO PUSH2 0x372 JUMPI DUP2 PUSH1 0x20 ADD JUMPDEST PUSH2 0x35F PUSH2 0x1297 JUMP JUMPDEST DUP2 MSTORE PUSH1 0x20 ADD SWAP1 PUSH1 0x1 SWAP1 SUB SWAP1 DUP2 PUSH2 0x357 JUMPI SWAP1 POP JUMPDEST POP PUSH1 0x4 SLOAD SWAP1 SWAP3 POP PUSH20 0xFFFFFFFFFFFFFFFFFFFFFFFFFFFFFFFFFFFFFFFF AND PUSH1 0x0 JUMPDEST DUP3 DUP2 LT ISZERO PUSH2 0x427 JUMPI PUSH1 0x40 DUP1 MLOAD DUP1 DUP3 ADD DUP3 MSTORE PUSH20 0xFFFFFFFFFFFFFFFFFFFFFFFFFFFFFFFFFFFFFFFF DUP5 AND DUP1 DUP3 MSTORE PUSH1 0x0 SWAP1 DUP2 MSTORE PUSH1 0x5 PUSH1 0x20 SWAP1 DUP2 MSTORE SWAP3 SWAP1 KECCAK256 SLOAD SWAP2 DUP2 ADD SWAP2 SWAP1 SWAP2 MSTORE DUP5 MLOAD DUP6 SWAP1 DUP4 SWAP1 DUP2 LT PUSH2 0x3E2 JUMPI INVALID JUMPDEST PUSH1 0x20 SWAP1 DUP2 MUL SWAP2 SWAP1 SWAP2 ADD DUP2 ADD SWAP2 SWAP1 SWAP2 MSTORE PUSH20 0xFFFFFFFFFFFFFFFFFFFFFFFFFFFFFFFFFFFFFFFF SWAP3 DUP4 AND PUSH1 0x0 SWAP1 DUP2 MSTORE PUSH1 0x5 SWAP1 SWAP2 MSTORE PUSH1 0x40 SWAP1 KECCAK256 PUSH1 0x1 SWAP1 DUP2 ADD SLOAD SWAP1 SWAP3 AND SWAP2 ADD PUSH2 0x392 JUMP JUMPDEST POP POP POP SWAP1 SWAP2 JUMP JUMPDEST PUSH1 0x40 DUP1 MLOAD DUP3 DUP2 MSTORE PUSH1 0x20 DUP1 DUP5 MUL DUP3 ADD ADD SWAP1 SWAP2 MSTORE PUSH1 0x60 SWAP1 DUP3 DUP1 ISZERO PUSH2 0x46A JUMPI DUP2 PUSH1 0x20 ADD JUMPDEST PUSH2 0x457 PUSH2 0x12AE JUMP JUMPDEST DUP2 MSTORE PUSH1 0x20 ADD SWAP1 PUSH1 0x1 SWAP1 SUB SWAP1 DUP2 PUSH2 0x44F JUMPI SWAP1 POP JUMPDEST POP SWAP1 POP PUSH1 0x0 JUMPDEST DUP3 DUP2 LT ISZERO PUSH2 0x4C9 JUMPI PUSH2 0x4AA DUP6 PUSH1 0x7 PUSH1 0x0 DUP8 DUP8 DUP7 DUP2 DUP2 LT PUSH2 0x48C JUMPI INVALID JUMPDEST SWAP1 POP PUSH1 0x20 MUL ADD CALLDATALOAD DUP2 MSTORE PUSH1 0x20 ADD SWAP1 DUP2 MSTORE PUSH1 0x20 ADD PUSH1 0x0 KECCAK256 PUSH1 0x0 ADD SLOAD PUSH2 0x9AE JUMP JUMPDEST DUP3 DUP3 DUP2 MLOAD DUP2 LT PUSH2 0x4B6 JUMPI INVALID JUMPDEST PUSH1 0x20 SWAP1 DUP2 MUL SWAP2 SWAP1 SWAP2 ADD ADD MSTORE PUSH1 0x1 ADD PUSH2 0x470 JUMP JUMPDEST POP SWAP4 SWAP3 POP POP POP JUMP JUMPDEST PUSH1 0x1 SLOAD PUSH20 0xFFFFFFFFFFFFFFFFFFFFFFFFFFFFFFFFFFFFFFFF AND CALLER EQ PUSH2 0x52B JUMPI PUSH1 0x40 MLOAD PUSH32 0x8C379A000000000000000000000000000000000000000000000000000000000 DUP2 MSTORE PUSH1 0x4 ADD PUSH2 0x522 SWAP1 PUSH2 0x2201 JUMP JUMPDEST PUSH1 0x40 MLOAD DUP1 SWAP2 SUB SWAP1 REVERT JUMPDEST PUSH20 0xFFFFFFFFFFFFFFFFFFFFFFFFFFFFFFFFFFFFFFFF DUP3 AND PUSH1 0x0 SWAP1 DUP2 MSTORE PUSH1 0x5 PUSH1 0x20 MSTORE PUSH1 0x40 SWAP1 KECCAK256 PUSH1 0x1 ADD SLOAD PUSH21 0x10000000000000000000000000000000000000000 SWAP1 DIV PUSH1 0xFF AND ISZERO PUSH2 0x5A1 JUMPI PUSH20 0xFFFFFFFFFFFFFFFFFFFFFFFFFFFFFFFFFFFFFFFF DUP3 AND PUSH1 0x0 SWAP1 DUP2 MSTORE PUSH1 0x5 PUSH1 0x20 MSTORE PUSH1 0x40 SWAP1 KECCAK256 DUP2 SWAP1 SSTORE PUSH2 0x679 JUMP JUMPDEST PUSH1 0x4 DUP1 SLOAD PUSH1 0x40 DUP1 MLOAD PUSH1 0x60 DUP2 ADD DUP3 MSTORE DUP5 DUP2 MSTORE PUSH20 0xFFFFFFFFFFFFFFFFFFFFFFFFFFFFFFFFFFFFFFFF SWAP3 DUP4 AND PUSH1 0x20 DUP1 DUP4 ADD SWAP2 DUP3 MSTORE PUSH1 0x1 DUP4 DUP6 ADD DUP2 DUP2 MSTORE DUP10 DUP8 AND PUSH1 0x0 DUP2 DUP2 MSTORE PUSH1 0x5 SWAP1 SWAP5 MSTORE SWAP6 SWAP1 SWAP3 KECCAK256 SWAP4 MLOAD DUP5 SSTORE SWAP2 MLOAD SWAP3 DUP3 ADD DUP1 SLOAD SWAP2 MLOAD ISZERO ISZERO PUSH21 0x10000000000000000000000000000000000000000 MUL PUSH32 0xFFFFFFFFFFFFFFFFFFFFFF00FFFFFFFFFFFFFFFFFFFFFFFFFFFFFFFFFFFFFFFF SWAP5 SWAP1 SWAP7 AND PUSH32 0xFFFFFFFFFFFFFFFFFFFFFFFF0000000000000000000000000000000000000000 SWAP3 DUP4 AND OR SWAP4 SWAP1 SWAP4 AND SWAP5 SWAP1 SWAP5 OR SWAP1 SWAP2 SSTORE DUP4 SLOAD SWAP1 SWAP3 AND OR SWAP1 SWAP2 SSTORE PUSH1 0x6 DUP1 SLOAD SWAP1 SWAP2 ADD SWAP1 SSTORE JUMPDEST POP POP JUMP JUMPDEST PUSH1 0x1 SLOAD PUSH20 0xFFFFFFFFFFFFFFFFFFFFFFFFFFFFFFFFFFFFFFFF AND CALLER EQ PUSH2 0x6CE JUMPI PUSH1 0x40 MLOAD PUSH32 0x8C379A000000000000000000000000000000000000000000000000000000000 DUP2 MSTORE PUSH1 0x4 ADD PUSH2 0x522 SWAP1 PUSH2 0x2201 JUMP JUMPDEST PUSH1 0x0 SWAP2 DUP3 MSTORE PUSH1 0x8 PUSH1 0x20 MSTORE PUSH1 0x40 SWAP1 SWAP2 KECCAK256 DUP1 SLOAD PUSH32 0xFFFFFFFFFFFFFFFFFFFFFFFFFFFFFFFFFFFFFFFFFFFFFFFFFFFFFFFFFFFFFF00 AND SWAP2 ISZERO ISZERO SWAP2 SWAP1 SWAP2 OR SWAP1 SSTORE JUMP JUMPDEST PUSH1 0x60 DUP1 PUSH1 0x2 PUSH1 0x0 SWAP1 SLOAD SWAP1 PUSH2 0x100 EXP SWAP1 DIV PUSH20 0xFFFFFFFFFFFFFFFFFFFFFFFFFFFFFFFFFFFFFFFF AND PUSH20 0xFFFFFFFFFFFFFFFFFFFFFFFFFFFFFFFFFFFFFFFF AND PUSH4 0x7CC1F867 PUSH1 0x40 MLOAD DUP2 PUSH4 0xFFFFFFFF AND PUSH1 0xE0 SHL DUP2 MSTORE PUSH1 0x4 ADD PUSH1 0x0 PUSH1 0x40 MLOAD DUP1 DUP4 SUB DUP2 PUSH1 0x0 DUP8 DUP1 EXTCODESIZE ISZERO DUP1 ISZERO PUSH2 0x779 JUMPI PUSH1 0x0 DUP1 REVERT JUMPDEST POP GAS CALL ISZERO DUP1 ISZERO PUSH2 0x78D JUMPI RETURNDATASIZE PUSH1 0x0 DUP1 RETURNDATACOPY RETURNDATASIZE PUSH1 0x0 REVERT JUMPDEST POP POP POP POP PUSH1 0x40 MLOAD RETURNDATASIZE PUSH1 0x0 DUP3 RETURNDATACOPY PUSH1 0x1F RETURNDATASIZE SWAP1 DUP2 ADD PUSH32 0xFFFFFFFFFFFFFFFFFFFFFFFFFFFFFFFFFFFFFFFFFFFFFFFFFFFFFFFFFFFFFFE0 AND DUP3 ADD PUSH1 0x40 MSTORE PUSH2 0x7D3 SWAP2 SWAP1 DUP2 ADD SWAP1 PUSH2 0x1947 JUMP JUMPDEST SWAP1 POP PUSH1 0x2 DUP2 PUSH1 0x0 DUP2 MLOAD DUP2 LT PUSH2 0x7E4 JUMPI INVALID JUMPDEST PUSH1 0x20 SWAP1 DUP2 MUL SWAP2 SWAP1 SWAP2 ADD ADD MSTORE PUSH3 0x320000 DUP2 PUSH1 0x1 DUP2 MLOAD DUP2 LT PUSH2 0x800 JUMPI INVALID JUMPDEST PUSH1 0x20 SWAP1 DUP2 MUL SWAP2 SWAP1 SWAP2 ADD ADD MSTORE PUSH1 0x2 SLOAD PUSH20 0xFFFFFFFFFFFFFFFFFFFFFFFFFFFFFFFFFFFFFFFF AND DUP2 PUSH1 0x3 DUP2 MLOAD DUP2 LT PUSH2 0x831 JUMPI INVALID JUMPDEST PUSH1 0x20 SWAP1 DUP2 MUL SWAP2 SWAP1 SWAP2 ADD ADD MSTORE PUSH1 0x0 SLOAD DUP2 PUSH1 0x4 DUP2 MLOAD DUP2 LT PUSH2 0x84C JUMPI INVALID JUMPDEST PUSH1 0x20 SWAP1 DUP2 MUL SWAP2 SWAP1 SWAP2 ADD ADD MSTORE PUSH1 0x3 SLOAD DUP2 PUSH1 0x8 DUP2 MLOAD DUP2 LT PUSH2 0x867 JUMPI INVALID JUMPDEST PUSH1 0x20 SWAP1 DUP2 MUL SWAP2 SWAP1 SWAP2 ADD ADD MSTORE SWAP1 POP SWAP1 JUMP JUMPDEST PUSH2 0x87F PUSH2 0x12E9 JUMP JUMPDEST PUSH1 0x2 SLOAD PUSH1 0x40 MLOAD PUSH32 0xEE1F69EB00000000000000000000000000000000000000000000000000000000 DUP2 MSTORE PUSH20 0xFFFFFFFFFFFFFFFFFFFFFFFFFFFFFFFFFFFFFFFF SWAP1 SWAP2 AND SWAP1 PUSH4 0xEE1F69EB SWAP1 PUSH2 0x8D5 SWAP1 DUP7 SWAP1 PUSH1 0x4 ADD PUSH2 0x21B5 JUMP JUMPDEST PUSH1 0x0 PUSH1 0x40 MLOAD DUP1 DUP4 SUB DUP2 DUP7 DUP1 EXTCODESIZE ISZERO DUP1 ISZERO PUSH2 0x8ED JUMPI PUSH1 0x0 DUP1 REVERT JUMPDEST POP GAS STATICCALL ISZERO DUP1 ISZERO PUSH2 0x901 JUMPI RETURNDATASIZE PUSH1 0x0 DUP1 RETURNDATACOPY RETURNDATASIZE PUSH1 0x0 REVERT JUMPDEST POP POP POP POP PUSH1 0x40 MLOAD RETURNDATASIZE PUSH1 0x0 DUP3 RETURNDATACOPY PUSH1 0x1F RETURNDATASIZE SWAP1 DUP2 ADD PUSH32 0xFFFFFFFFFFFFFFFFFFFFFFFFFFFFFFFFFFFFFFFFFFFFFFFFFFFFFFFFFFFFFFE0 AND DUP3 ADD PUSH1 0x40 MSTORE PUSH2 0x947 SWAP2 SWAP1 DUP2 ADD SWAP1 PUSH2 0x1A5C JUMP JUMPDEST SWAP1 POP DUP1 PUSH1 0x20 ADD MLOAD PUSH5 0xFFFFFFFFFF AND PUSH1 0x0 EQ ISZERO PUSH2 0x95F JUMPI INVALID JUMPDEST PUSH2 0x968 DUP2 PUSH2 0xBA1 JUMP JUMPDEST PUSH2 0x99E JUMPI PUSH1 0x40 MLOAD PUSH32 0x8C379A000000000000000000000000000000000000000000000000000000000 DUP2 MSTORE PUSH1 0x4 ADD PUSH2 0x522 SWAP1 PUSH2 0x22CC JUMP JUMPDEST PUSH2 0x9A9 DUP2 DUP5 DUP5 PUSH2 0xC96 JUMP JUMPDEST POP POP POP JUMP JUMPDEST PUSH2 0x9B6 PUSH2 0x12AE JUMP JUMPDEST PUSH1 0x2 SLOAD PUSH1 0x40 MLOAD PUSH32 0xC70BE14600000000000000000000000000000000000000000000000000000000 DUP2 MSTORE PUSH20 0xFFFFFFFFFFFFFFFFFFFFFFFFFFFFFFFFFFFFFFFF SWAP1 SWAP2 AND SWAP1 PUSH4 0xC70BE146 SWAP1 PUSH2 0xA0E SWAP1 DUP7 SWAP1 DUP7 SWAP1 PUSH1 0x4 ADD PUSH2 0x207D JUMP JUMPDEST PUSH1 0x0 PUSH1 0x40 MLOAD DUP1 DUP4 SUB DUP2 DUP7 DUP1 EXTCODESIZE ISZERO DUP1 ISZERO PUSH2 0xA26 JUMPI PUSH1 0x0 DUP1 REVERT JUMPDEST POP GAS STATICCALL ISZERO DUP1 ISZERO PUSH2 0xA3A JUMPI RETURNDATASIZE PUSH1 0x0 DUP1 RETURNDATACOPY RETURNDATASIZE PUSH1 0x0 REVERT JUMPDEST POP POP POP POP PUSH1 0x40 MLOAD RETURNDATASIZE PUSH1 0x0 DUP3 RETURNDATACOPY PUSH1 0x1F RETURNDATASIZE SWAP1 DUP2 ADD PUSH32 0xFFFFFFFFFFFFFFFFFFFFFFFFFFFFFFFFFFFFFFFFFFFFFFFFFFFFFFFFFFFFFFE0 AND DUP3 ADD PUSH1 0x40 MSTORE PUSH2 0xA80 SWAP2 SWAP1 DUP2 ADD SWAP1 PUSH2 0x1B40 JUMP JUMPDEST PUSH1 0x0 SWAP3 DUP4 MSTORE PUSH1 0x8 PUSH1 0x20 MSTORE PUSH1 0x40 SWAP1 SWAP3 KECCAK256 SLOAD PUSH1 0xFF AND ISZERO ISZERO PUSH1 0x80 DUP4 ADD MSTORE POP SWAP2 SWAP1 POP JUMP JUMPDEST PUSH1 0x0 PUSH2 0xAAB DUP5 PUSH2 0xBA1 JUMP JUMPDEST PUSH2 0xAE1 JUMPI PUSH1 0x40 MLOAD PUSH32 0x8C379A000000000000000000000000000000000000000000000000000000000 DUP2 MSTORE PUSH1 0x4 ADD PUSH2 0x522 SWAP1 PUSH2 0x22CC JUMP JUMPDEST PUSH1 0x2 SLOAD PUSH1 0x40 MLOAD PUSH32 0xE8D261C900000000000000000000000000000000000000000000000000000000 DUP2 MSTORE PUSH20 0xFFFFFFFFFFFFFFFFFFFFFFFFFFFFFFFFFFFFFFFF SWAP1 SWAP2 AND SWAP1 PUSH4 0xE8D261C9 SWAP1 PUSH2 0xB3B SWAP1 DUP8 SWAP1 DUP8 SWAP1 DUP8 SWAP1 PUSH1 0x4 ADD PUSH2 0x2303 JUMP JUMPDEST PUSH1 0x20 PUSH1 0x40 MLOAD DUP1 DUP4 SUB DUP2 PUSH1 0x0 DUP8 DUP1 EXTCODESIZE ISZERO DUP1 ISZERO PUSH2 0xB55 JUMPI PUSH1 0x0 DUP1 REVERT JUMPDEST POP GAS CALL ISZERO DUP1 ISZERO PUSH2 0xB69 JUMPI RETURNDATASIZE PUSH1 0x0 DUP1 RETURNDATACOPY RETURNDATASIZE PUSH1 0x0 REVERT JUMPDEST POP POP POP POP PUSH1 0x40 MLOAD RETURNDATASIZE PUSH1 0x1F NOT PUSH1 0x1F DUP3 ADD AND DUP3 ADD DUP1 PUSH1 0x40 MSTORE POP PUSH2 0xB8D SWAP2 SWAP1 DUP2 ADD SWAP1 PUSH2 0x19DA JUMP JUMPDEST SWAP1 POP PUSH2 0xB9A DUP5 DUP3 DUP6 PUSH2 0xC96 JUMP JUMPDEST SWAP4 SWAP3 POP POP POP JUMP JUMPDEST PUSH1 0xE0 DUP2 ADD MLOAD PUSH20 0xFFFFFFFFFFFFFFFFFFFFFFFFFFFFFFFFFFFFFFFF AND PUSH1 0x0 SWAP1 DUP2 MSTORE PUSH1 0x5 PUSH1 0x20 MSTORE PUSH1 0x40 DUP2 KECCAK256 SLOAD ISZERO DUP1 ISZERO PUSH2 0xBF0 JUMPI POP PUSH1 0x1 SLOAD PUSH20 0xFFFFFFFFFFFFFFFFFFFFFFFFFFFFFFFFFFFFFFFF AND CALLER EQ ISZERO JUMPDEST ISZERO PUSH2 0xBFD JUMPI POP PUSH1 0x0 PUSH2 0x27C JUMP JUMPDEST PUSH7 0x2386F26FC10000 PUSH8 0xFFFFFFFFFFFFFFFF AND PUSH2 0xC53 DUP4 PUSH2 0x180 ADD MLOAD PUSH4 0xFFFFFFFF AND PUSH2 0xC47 DUP6 PUSH2 0x160 ADD MLOAD PUSH4 0xFFFFFFFF AND DUP7 PUSH2 0x120 ADD MLOAD PUSH4 0xFFFFFFFF AND PUSH2 0xFFF SWAP1 SWAP2 SWAP1 PUSH4 0xFFFFFFFF AND JUMP JUMPDEST SWAP1 PUSH4 0xFFFFFFFF PUSH2 0xFFF AND JUMP JUMPDEST GT ISZERO DUP1 ISZERO PUSH2 0xC81 JUMPI POP PUSH1 0x1 SLOAD PUSH2 0x140 DUP4 ADD MLOAD PUSH20 0xFFFFFFFFFFFFFFFFFFFFFFFFFFFFFFFFFFFFFFFF SWAP1 DUP2 AND SWAP2 AND EQ JUMPDEST ISZERO PUSH2 0xC8E JUMPI POP PUSH1 0x1 PUSH2 0x27C JUMP JUMPDEST POP PUSH1 0x0 SWAP2 SWAP1 POP JUMP JUMPDEST PUSH1 0x0 PUSH2 0xCA1 DUP5 PUSH2 0x1047 JUMP JUMPDEST PUSH1 0x0 DUP2 DUP2 MSTORE PUSH1 0x7 PUSH1 0x20 MSTORE PUSH1 0x40 SWAP1 KECCAK256 PUSH1 0x1 ADD SLOAD SWAP1 SWAP2 POP PUSH14 0x100000000000000000000000000 SWAP1 DIV PUSH2 0xFFFF AND PUSH2 0xF2B JUMPI PUSH1 0x40 DUP1 MLOAD PUSH1 0x80 DUP2 ADD DUP3 MSTORE DUP5 DUP2 MSTORE PUSH2 0x120 DUP7 ADD MLOAD PUSH4 0xFFFFFFFF AND PUSH1 0x20 DUP1 DUP4 ADD SWAP2 DUP3 MSTORE PUSH5 0xFFFFFFFFFF TIMESTAMP DUP2 AND DUP5 DUP7 ADD SWAP1 DUP2 MSTORE PUSH2 0x258 PUSH1 0x60 DUP7 ADD SWAP1 DUP2 MSTORE PUSH1 0x0 DUP9 DUP2 MSTORE PUSH1 0x7 SWAP1 SWAP5 MSTORE SWAP6 SWAP1 SWAP3 KECCAK256 SWAP4 MLOAD DUP5 SSTORE SWAP2 MLOAD PUSH1 0x1 SWAP4 DUP5 ADD DUP1 SLOAD SWAP3 MLOAD SWAP6 MLOAD PUSH2 0xFFFF AND PUSH14 0x100000000000000000000000000 MUL PUSH32 0xFFFFFFFFFFFFFFFFFFFFFFFFFFFFFFFFFF0000FFFFFFFFFFFFFFFFFFFFFFFFFF SWAP7 SWAP1 SWAP5 AND PUSH9 0x10000000000000000 MUL PUSH32 0xFFFFFFFFFFFFFFFFFFFFFFFFFFFFFFFFFFFFFF0000000000FFFFFFFFFFFFFFFF PUSH8 0xFFFFFFFFFFFFFFFF SWAP4 SWAP1 SWAP4 AND PUSH32 0xFFFFFFFFFFFFFFFFFFFFFFFFFFFFFFFFFFFFFFFFFFFFFFFF0000000000000000 SWAP1 SWAP5 AND SWAP4 SWAP1 SWAP4 OR SWAP2 SWAP1 SWAP2 AND SWAP2 SWAP1 SWAP2 OR SWAP4 SWAP1 SWAP4 AND OR SWAP1 SWAP2 SSTORE SLOAD CALLER PUSH20 0xFFFFFFFFFFFFFFFFFFFFFFFFFFFFFFFFFFFFFFFF SWAP1 SWAP2 AND EQ ISZERO PUSH2 0xE2B JUMPI PUSH1 0x0 DUP4 DUP2 MSTORE PUSH1 0x8 PUSH1 0x20 MSTORE PUSH1 0x40 SWAP1 KECCAK256 DUP1 SLOAD PUSH32 0xFFFFFFFFFFFFFFFFFFFFFFFFFFFFFFFFFFFFFFFFFFFFFFFFFFFFFFFFFFFFFF00 AND DUP4 ISZERO ISZERO OR SWAP1 SSTORE JUMPDEST PUSH1 0x0 DUP5 PUSH1 0x80 ADD MLOAD PUSH1 0x8 MUL PUSH1 0xFF AND DUP6 PUSH2 0x100 ADD MLOAD PUSH1 0xFF AND PUSH1 0x1 SWAP1 SHL SWAP1 SHL SWAP1 POP DUP1 PUSH1 0x3 SLOAD AND PUSH1 0x0 EQ ISZERO PUSH2 0xE5F JUMPI PUSH1 0x3 DUP1 SLOAD DUP3 OR SWAP1 SSTORE JUMPDEST PUSH1 0x60 DUP6 ADD MLOAD PUSH1 0x0 SWAP1 PUSH1 0x4 AND ISZERO PUSH2 0xE7B JUMPI POP PUSH2 0x100 DUP6 ADD MLOAD PUSH2 0xE8B JUMP JUMPDEST PUSH2 0xE88 DUP7 PUSH1 0x20 ADD MLOAD PUSH2 0x1125 JUMP JUMPDEST SWAP1 POP JUMPDEST DUP6 PUSH1 0x80 ADD MLOAD PUSH1 0xFF AND DUP7 PUSH2 0x100 ADD MLOAD PUSH1 0xFF AND DUP3 PUSH1 0xFF AND PUSH1 0x8 PUSH2 0xEAE DUP6 PUSH1 0xFF AND PUSH2 0x11E6 JUMP JUMPDEST PUSH6 0xFFFFFFFFFFFF AND DUP11 PUSH1 0x20 ADD MLOAD PUSH5 0xFFFFFFFFFF AND DUP2 PUSH2 0xEC9 JUMPI INVALID JUMPDEST DIV PUSH6 0xFFFFFFFFFFFF AND SWAP1 SHL ADD PUSH6 0xFFFFFFFFFFFF AND PUSH32 0xC1B504E22197C95FE2A6E166FD15FCDA59F27AC6BBC947BC2A1C87D31E7EFCF9 DUP7 DUP11 PUSH1 0x20 ADD MLOAD PUSH2 0x258 DUP13 PUSH1 0x0 ADD MLOAD PUSH1 0x40 MLOAD PUSH2 0xF1C SWAP5 SWAP4 SWAP3 SWAP2 SWAP1 PUSH2 0x21BE JUMP JUMPDEST PUSH1 0x40 MLOAD DUP1 SWAP2 SUB SWAP1 LOG4 POP POP PUSH2 0xFF9 JUMP JUMPDEST PUSH1 0x0 DUP2 DUP2 MSTORE PUSH1 0x7 PUSH1 0x20 MSTORE PUSH1 0x40 SWAP1 KECCAK256 PUSH1 0x1 ADD SLOAD PUSH2 0x120 DUP6 ADD MLOAD PUSH8 0xFFFFFFFFFFFFFFFF SWAP1 SWAP2 AND PUSH4 0xFFFFFFFF SWAP1 SWAP2 AND GT DUP1 ISZERO PUSH2 0xFA5 JUMPI POP PUSH1 0x0 DUP2 DUP2 MSTORE PUSH1 0x7 PUSH1 0x20 MSTORE PUSH1 0x40 SWAP1 KECCAK256 PUSH1 0x1 ADD SLOAD PUSH14 0x100000000000000000000000000 DUP2 DIV PUSH2 0xFFFF AND PUSH9 0x10000000000000000 SWAP1 SWAP2 DIV PUSH5 0xFFFFFFFFFF SWAP1 DUP2 AND SWAP2 SWAP1 SWAP2 ADD AND TIMESTAMP GT ISZERO JUMPDEST ISZERO PUSH2 0xFF9 JUMPI PUSH1 0x0 DUP2 DUP2 MSTORE PUSH1 0x7 PUSH1 0x20 MSTORE PUSH1 0x40 SWAP1 KECCAK256 DUP4 DUP2 SSTORE PUSH2 0x120 DUP6 ADD MLOAD PUSH1 0x1 SWAP1 SWAP2 ADD DUP1 SLOAD PUSH32 0xFFFFFFFFFFFFFFFFFFFFFFFFFFFFFFFFFFFFFFFFFFFFFFFF0000000000000000 AND PUSH4 0xFFFFFFFF SWAP1 SWAP3 AND SWAP2 SWAP1 SWAP2 OR SWAP1 SSTORE JUMPDEST POP POP POP POP JUMP JUMPDEST PUSH1 0x0 DUP3 DUP3 ADD DUP4 DUP2 LT ISZERO PUSH2 0x103E JUMPI PUSH1 0x40 MLOAD PUSH32 0x8C379A000000000000000000000000000000000000000000000000000000000 DUP2 MSTORE PUSH1 0x4 ADD PUSH2 0x522 SWAP1 PUSH2 0x2295 JUMP JUMPDEST SWAP1 POP JUMPDEST SWAP3 SWAP2 POP POP JUMP JUMPDEST PUSH1 0x0 PUSH1 0x60 DUP3 PUSH1 0x0 ADD MLOAD PUSH1 0x40 MLOAD PUSH1 0x20 ADD PUSH2 0x1060 SWAP2 SWAP1 PUSH2 0x2061 JUMP JUMPDEST PUSH1 0x40 MLOAD PUSH1 0x20 DUP2 DUP4 SUB SUB DUP2 MSTORE SWAP1 PUSH1 0x40 MSTORE DUP1 MLOAD SWAP1 PUSH1 0x20 ADD KECCAK256 DUP4 PUSH1 0x20 ADD MLOAD DUP5 PUSH1 0x40 ADD MLOAD DUP6 PUSH1 0x60 ADD MLOAD DUP7 PUSH1 0x80 ADD MLOAD DUP8 PUSH1 0xA0 ADD MLOAD DUP9 PUSH1 0xC0 ADD MLOAD DUP10 PUSH2 0x100 ADD MLOAD PUSH1 0x40 MLOAD PUSH1 0x20 ADD PUSH2 0x10B1 SWAP9 SWAP8 SWAP7 SWAP6 SWAP5 SWAP4 SWAP3 SWAP2 SWAP1 PUSH2 0x1F5D JUMP JUMPDEST PUSH1 0x40 DUP1 MLOAD DUP1 DUP4 SUB PUSH32 0xFFFFFFFFFFFFFFFFFFFFFFFFFFFFFFFFFFFFFFFFFFFFFFFFFFFFFFFFFFFFFFE0 ADD DUP2 MSTORE SWAP2 SWAP1 MSTORE PUSH1 0x60 DUP5 ADD MLOAD SWAP1 SWAP2 POP PUSH1 0x1 AND PUSH2 0x1117 JUMPI PUSH2 0x1C0 DUP4 ADD MLOAD PUSH1 0x40 MLOAD PUSH2 0x1105 SWAP2 DUP4 SWAP2 PUSH1 0x20 ADD PUSH2 0x2018 JUMP JUMPDEST PUSH1 0x40 MLOAD PUSH1 0x20 DUP2 DUP4 SUB SUB DUP2 MSTORE SWAP1 PUSH1 0x40 MSTORE SWAP1 POP JUMPDEST DUP1 MLOAD PUSH1 0x20 SWAP1 SWAP2 ADD KECCAK256 SWAP3 SWAP2 POP POP JUMP JUMPDEST PUSH1 0x0 DUP1 DUP1 PUSH2 0x1140 PUSH5 0xFFFFFFFFFF DUP6 AND TIMESTAMP PUSH4 0xFFFFFFFF PUSH2 0x1214 AND JUMP JUMPDEST SWAP1 POP PUSH4 0x3C26700 DUP2 LT PUSH2 0x117F JUMPI PUSH1 0x40 MLOAD PUSH32 0x8C379A000000000000000000000000000000000000000000000000000000000 DUP2 MSTORE PUSH1 0x4 ADD PUSH2 0x522 SWAP1 PUSH2 0x225E JUMP JUMPDEST PUSH3 0x3B5380 DUP2 GT ISZERO PUSH2 0x1194 JUMPI PUSH1 0x1 JUMPDEST SWAP2 POP PUSH2 0x11DF JUMP JUMPDEST PUSH3 0xA8C00 DUP2 GT ISZERO PUSH2 0x11A6 JUMPI PUSH1 0x3 PUSH2 0x118D JUMP JUMPDEST PUSH3 0x1FA40 DUP2 GT ISZERO PUSH2 0x11B8 JUMPI PUSH1 0x4 PUSH2 0x118D JUMP JUMPDEST PUSH2 0x1C20 DUP2 GT ISZERO PUSH2 0x11C9 JUMPI PUSH1 0x5 PUSH2 0x118D JUMP JUMPDEST PUSH2 0x384 DUP2 GT ISZERO PUSH2 0x11DA JUMPI PUSH1 0x6 PUSH2 0x118D JUMP JUMPDEST PUSH1 0x7 SWAP2 POP JUMPDEST POP SWAP3 SWAP2 POP POP JUMP JUMPDEST PUSH1 0x0 PUSH1 0x60 PUSH1 0x40 MLOAD DUP1 PUSH1 0x60 ADD PUSH1 0x40 MSTORE DUP1 PUSH1 0x2A DUP2 MSTORE PUSH1 0x20 ADD PUSH2 0x24C5 PUSH1 0x2A SWAP2 CODECOPY PUSH1 0x1 DUP5 ADD PUSH1 0x6 MUL ADD MLOAD SWAP2 POP POP SWAP2 SWAP1 POP JUMP JUMPDEST PUSH1 0x0 PUSH2 0x103E DUP4 DUP4 PUSH1 0x40 MLOAD DUP1 PUSH1 0x40 ADD PUSH1 0x40 MSTORE DUP1 PUSH1 0x1E DUP2 MSTORE PUSH1 0x20 ADD PUSH32 0x536166654D6174683A207375627472616374696F6E206F766572666C6F770000 DUP2 MSTORE POP PUSH1 0x0 DUP2 DUP5 DUP5 GT ISZERO PUSH2 0x128F JUMPI PUSH1 0x40 MLOAD PUSH32 0x8C379A000000000000000000000000000000000000000000000000000000000 DUP2 MSTORE PUSH1 0x4 ADD PUSH2 0x522 SWAP2 SWAP1 PUSH2 0x21EE JUMP JUMPDEST POP POP POP SWAP1 SUB SWAP1 JUMP JUMPDEST PUSH1 0x40 DUP1 MLOAD DUP1 DUP3 ADD SWAP1 SWAP2 MSTORE PUSH1 0x0 DUP1 DUP3 MSTORE PUSH1 0x20 DUP3 ADD MSTORE SWAP1 JUMP JUMPDEST PUSH1 0x40 MLOAD DUP1 PUSH1 0xA0 ADD PUSH1 0x40 MSTORE DUP1 PUSH2 0x12C1 PUSH2 0x12E9 JUMP JUMPDEST DUP2 MSTORE PUSH1 0x20 ADD PUSH2 0x12CE PUSH2 0x1367 JUMP JUMPDEST DUP2 MSTORE PUSH1 0x0 PUSH1 0x20 DUP3 ADD DUP2 SWAP1 MSTORE PUSH1 0x40 DUP3 ADD DUP2 SWAP1 MSTORE PUSH1 0x60 SWAP1 SWAP2 ADD MSTORE SWAP1 JUMP JUMPDEST PUSH1 0x40 DUP1 MLOAD PUSH2 0x1E0 DUP2 ADD DUP3 MSTORE PUSH1 0x60 DUP1 DUP3 MSTORE PUSH1 0x0 PUSH1 0x20 DUP4 ADD DUP2 SWAP1 MSTORE SWAP3 DUP3 ADD DUP4 SWAP1 MSTORE DUP1 DUP3 ADD DUP4 SWAP1 MSTORE PUSH1 0x80 DUP3 ADD DUP4 SWAP1 MSTORE PUSH1 0xA0 DUP3 ADD DUP4 SWAP1 MSTORE PUSH1 0xC0 DUP3 ADD DUP4 SWAP1 MSTORE PUSH1 0xE0 DUP3 ADD DUP4 SWAP1 MSTORE PUSH2 0x100 DUP3 ADD DUP4 SWAP1 MSTORE PUSH2 0x120 DUP3 ADD DUP4 SWAP1 MSTORE PUSH2 0x140 DUP3 ADD DUP4 SWAP1 MSTORE PUSH2 0x160 DUP3 ADD DUP4 SWAP1 MSTORE PUSH2 0x180 DUP3 ADD DUP4 SWAP1 MSTORE PUSH2 0x1A0 DUP3 ADD SWAP3 SWAP1 SWAP3 MSTORE PUSH2 0x1C0 DUP2 ADD SWAP2 SWAP1 SWAP2 MSTORE SWAP1 JUMP JUMPDEST PUSH1 0x40 DUP1 MLOAD PUSH1 0x60 DUP2 ADD DUP3 MSTORE PUSH1 0x0 DUP1 DUP3 MSTORE PUSH1 0x20 DUP3 ADD DUP2 SWAP1 MSTORE SWAP2 DUP2 ADD SWAP2 SWAP1 SWAP2 MSTORE SWAP1 JUMP JUMPDEST DUP1 CALLDATALOAD PUSH2 0x1041 DUP2 PUSH2 0x242E JUMP JUMPDEST DUP1 MLOAD PUSH2 0x1041 DUP2 PUSH2 0x242E JUMP JUMPDEST PUSH1 0x0 DUP3 PUSH1 0x1F DUP4 ADD SLT PUSH2 0x13AD JUMPI DUP1 DUP2 REVERT JUMPDEST DUP2 CALLDATALOAD PUSH2 0x13C0 PUSH2 0x13BB DUP3 PUSH2 0x23A0 JUMP JUMPDEST PUSH2 0x2379 JUMP JUMPDEST DUP2 DUP2 MSTORE SWAP2 POP PUSH1 0x20 DUP1 DUP4 ADD SWAP1 DUP5 DUP2 ADD DUP2 DUP5 MUL DUP7 ADD DUP3 ADD DUP8 LT ISZERO PUSH2 0x13E1 JUMPI PUSH1 0x0 DUP1 REVERT JUMPDEST PUSH1 0x0 JUMPDEST DUP5 DUP2 LT ISZERO PUSH2 0x1409 JUMPI DUP2 CALLDATALOAD PUSH2 0x13F7 DUP2 PUSH2 0x2461 JUMP JUMPDEST DUP5 MSTORE SWAP3 DUP3 ADD SWAP3 SWAP1 DUP3 ADD SWAP1 PUSH1 0x1 ADD PUSH2 0x13E4 JUMP JUMPDEST POP POP POP POP POP SWAP3 SWAP2 POP POP JUMP JUMPDEST PUSH1 0x0 DUP3 PUSH1 0x1F DUP4 ADD SLT PUSH2 0x1424 JUMPI DUP1 DUP2 REVERT JUMPDEST DUP2 MLOAD PUSH2 0x1432 PUSH2 0x13BB DUP3 PUSH2 0x23A0 JUMP JUMPDEST DUP2 DUP2 MSTORE SWAP2 POP PUSH1 0x20 DUP1 DUP4 ADD SWAP1 DUP5 DUP2 ADD DUP2 DUP5 MUL DUP7 ADD DUP3 ADD DUP8 LT ISZERO PUSH2 0x1453 JUMPI PUSH1 0x0 DUP1 REVERT JUMPDEST PUSH1 0x0 JUMPDEST DUP5 DUP2 LT ISZERO PUSH2 0x1409 JUMPI DUP2 MLOAD PUSH2 0x1469 DUP2 PUSH2 0x2461 JUMP JUMPDEST DUP5 MSTORE SWAP3 DUP3 ADD SWAP3 SWAP1 DUP3 ADD SWAP1 PUSH1 0x1 ADD PUSH2 0x1456 JUMP JUMPDEST DUP1 MLOAD PUSH2 0x1041 DUP2 PUSH2 0x2453 JUMP JUMPDEST DUP1 MLOAD PUSH1 0x3 DUP2 LT PUSH2 0x1041 JUMPI PUSH1 0x0 DUP1 REVERT JUMPDEST DUP1 CALLDATALOAD PUSH2 0x1041 DUP2 PUSH2 0x2470 JUMP JUMPDEST DUP1 MLOAD PUSH2 0x1041 DUP2 PUSH2 0x2470 JUMP JUMPDEST PUSH1 0x0 DUP3 PUSH1 0x1F DUP4 ADD SLT PUSH2 0x14BB JUMPI DUP1 DUP2 REVERT JUMPDEST DUP2 CALLDATALOAD PUSH2 0x14C9 PUSH2 0x13BB DUP3 PUSH2 0x23C0 JUMP JUMPDEST SWAP2 POP DUP1 DUP3 MSTORE DUP4 PUSH1 0x20 DUP3 DUP6 ADD ADD GT ISZERO PUSH2 0x14E0 JUMPI PUSH1 0x0 DUP1 REVERT JUMPDEST DUP1 PUSH1 0x20 DUP5 ADD PUSH1 0x20 DUP5 ADD CALLDATACOPY PUSH1 0x0 SWAP1 DUP3 ADD PUSH1 0x20 ADD MSTORE SWAP3 SWAP2 POP POP JUMP JUMPDEST PUSH1 0x0 DUP3 PUSH1 0x1F DUP4 ADD SLT PUSH2 0x1509 JUMPI DUP1 DUP2 REVERT JUMPDEST DUP2 MLOAD PUSH2 0x1517 PUSH2 0x13BB DUP3 PUSH2 0x23C0 JUMP JUMPDEST SWAP2 POP DUP1 DUP3 MSTORE DUP4 PUSH1 0x20 DUP3 DUP6 ADD ADD GT ISZERO PUSH2 0x152E JUMPI PUSH1 0x0 DUP1 REVERT JUMPDEST PUSH2 0x11DF DUP2 PUSH1 0x20 DUP5 ADD PUSH1 0x20 DUP7 ADD PUSH2 0x2402 JUMP JUMPDEST PUSH1 0x0 PUSH2 0x1E0 DUP1 DUP4 DUP6 SUB SLT ISZERO PUSH2 0x1552 JUMPI DUP2 DUP3 REVERT JUMPDEST PUSH2 0x155B DUP2 PUSH2 0x2379 JUMP JUMPDEST SWAP2 POP POP DUP2 MLOAD PUSH8 0xFFFFFFFFFFFFFFFF DUP1 DUP3 GT ISZERO PUSH2 0x1576 JUMPI PUSH1 0x0 DUP1 REVERT JUMPDEST PUSH2 0x1582 DUP6 DUP4 DUP7 ADD PUSH2 0x14F9 JUMP JUMPDEST DUP4 MSTORE PUSH2 0x1591 DUP6 PUSH1 0x20 DUP7 ADD PUSH2 0x187B JUMP JUMPDEST PUSH1 0x20 DUP5 ADD MSTORE PUSH2 0x15A3 DUP6 PUSH1 0x40 DUP7 ADD PUSH2 0x184F JUMP JUMPDEST PUSH1 0x40 DUP5 ADD MSTORE PUSH2 0x15B5 DUP6 PUSH1 0x60 DUP7 ADD PUSH2 0x1891 JUMP JUMPDEST PUSH1 0x60 DUP5 ADD MSTORE PUSH2 0x15C7 DUP6 PUSH1 0x80 DUP7 ADD PUSH2 0x1891 JUMP JUMPDEST PUSH1 0x80 DUP5 ADD MSTORE PUSH2 0x15D9 DUP6 PUSH1 0xA0 DUP7 ADD PUSH2 0x1891 JUMP JUMPDEST PUSH1 0xA0 DUP5 ADD MSTORE PUSH2 0x15EB DUP6 PUSH1 0xC0 DUP7 ADD PUSH2 0x14A0 JUMP JUMPDEST PUSH1 0xC0 DUP5 ADD MSTORE PUSH2 0x15FD DUP6 PUSH1 0xE0 DUP7 ADD PUSH2 0x1392 JUMP JUMPDEST PUSH1 0xE0 DUP5 ADD MSTORE PUSH2 0x100 SWAP2 POP PUSH2 0x1613 DUP6 DUP4 DUP7 ADD PUSH2 0x1891 JUMP JUMPDEST DUP3 DUP5 ADD MSTORE PUSH2 0x120 SWAP2 POP PUSH2 0x1628 DUP6 DUP4 DUP7 ADD PUSH2 0x1865 JUMP JUMPDEST DUP3 DUP5 ADD MSTORE PUSH2 0x140 SWAP2 POP PUSH2 0x163D DUP6 DUP4 DUP7 ADD PUSH2 0x1392 JUMP JUMPDEST DUP3 DUP5 ADD MSTORE PUSH2 0x160 SWAP2 POP PUSH2 0x1652 DUP6 DUP4 DUP7 ADD PUSH2 0x1865 JUMP JUMPDEST DUP3 DUP5 ADD MSTORE PUSH2 0x180 SWAP2 POP PUSH2 0x1667 DUP6 DUP4 DUP7 ADD PUSH2 0x1865 JUMP JUMPDEST DUP3 DUP5 ADD MSTORE PUSH2 0x1A0 SWAP2 POP PUSH2 0x167C DUP6 DUP4 DUP7 ADD PUSH2 0x1392 JUMP JUMPDEST DUP3 DUP5 ADD MSTORE PUSH2 0x1C0 SWAP2 POP DUP2 DUP5 ADD MLOAD DUP2 DUP2 GT ISZERO PUSH2 0x1696 JUMPI PUSH1 0x0 DUP1 REVERT JUMPDEST PUSH2 0x16A2 DUP7 DUP3 DUP8 ADD PUSH2 0x1414 JUMP JUMPDEST DUP4 DUP6 ADD MSTORE POP POP POP SWAP3 SWAP2 POP POP JUMP JUMPDEST PUSH1 0x0 PUSH2 0x1E0 DUP1 DUP4 DUP6 SUB SLT ISZERO PUSH2 0x16C2 JUMPI DUP2 DUP3 REVERT JUMPDEST PUSH2 0x16CB DUP2 PUSH2 0x2379 JUMP JUMPDEST SWAP2 POP POP DUP2 CALLDATALOAD PUSH8 0xFFFFFFFFFFFFFFFF DUP1 DUP3 GT ISZERO PUSH2 0x16E6 JUMPI PUSH1 0x0 DUP1 REVERT JUMPDEST PUSH2 0x16F2 DUP6 DUP4 DUP7 ADD PUSH2 0x14AB JUMP JUMPDEST DUP4 MSTORE PUSH2 0x1701 DUP6 PUSH1 0x20 DUP7 ADD PUSH2 0x1870 JUMP JUMPDEST PUSH1 0x20 DUP5 ADD MSTORE PUSH2 0x1713 DUP6 PUSH1 0x40 DUP7 ADD PUSH2 0x1844 JUMP JUMPDEST PUSH1 0x40 DUP5 ADD MSTORE PUSH2 0x1725 DUP6 PUSH1 0x60 DUP7 ADD PUSH2 0x1886 JUMP JUMPDEST PUSH1 0x60 DUP5 ADD MSTORE PUSH2 0x1737 DUP6 PUSH1 0x80 DUP7 ADD PUSH2 0x1886 JUMP JUMPDEST PUSH1 0x80 DUP5 ADD MSTORE PUSH2 0x1749 DUP6 PUSH1 0xA0 DUP7 ADD PUSH2 0x1886 JUMP JUMPDEST PUSH1 0xA0 DUP5 ADD MSTORE PUSH2 0x175B DUP6 PUSH1 0xC0 DUP7 ADD PUSH2 0x1495 JUMP JUMPDEST PUSH1 0xC0 DUP5 ADD MSTORE PUSH2 0x176D DUP6 PUSH1 0xE0 DUP7 ADD PUSH2 0x1387 JUMP JUMPDEST PUSH1 0xE0 DUP5 ADD MSTORE PUSH2 0x100 SWAP2 POP PUSH2 0x1783 DUP6 DUP4 DUP7 ADD PUSH2 0x1886 JUMP JUMPDEST DUP3 DUP5 ADD MSTORE PUSH2 0x120 SWAP2 POP PUSH2 0x1798 DUP6 DUP4 DUP7 ADD PUSH2 0x185A JUMP JUMPDEST DUP3 DUP5 ADD MSTORE PUSH2 0x140 SWAP2 POP PUSH2 0x17AD DUP6 DUP4 DUP7 ADD PUSH2 0x1387 JUMP JUMPDEST DUP3 DUP5 ADD MSTORE PUSH2 0x160 SWAP2 POP PUSH2 0x17C2 DUP6 DUP4 DUP7 ADD PUSH2 0x185A JUMP JUMPDEST DUP3 DUP5 ADD MSTORE PUSH2 0x180 SWAP2 POP PUSH2 0x17D7 DUP6 DUP4 DUP7 ADD PUSH2 0x185A JUMP JUMPDEST DUP3 DUP5 ADD MSTORE PUSH2 0x1A0 SWAP2 POP PUSH2 0x17EC DUP6 DUP4 DUP7 ADD PUSH2 0x1387 JUMP JUMPDEST DUP3 DUP5 ADD MSTORE PUSH2 0x1C0 SWAP2 POP DUP2 DUP5 ADD CALLDATALOAD DUP2 DUP2 GT ISZERO PUSH2 0x1806 JUMPI PUSH1 0x0 DUP1 REVERT JUMPDEST PUSH2 0x16A2 DUP7 DUP3 DUP8 ADD PUSH2 0x139D JUMP JUMPDEST DUP1 MLOAD PUSH16 0xFFFFFFFFFFFFFFFFFFFFFFFFFFFFFFFF DUP2 AND DUP2 EQ PUSH2 0x1041 JUMPI PUSH1 0x0 DUP1 REVERT JUMPDEST DUP1 MLOAD PUSH2 0xFFFF DUP2 AND DUP2 EQ PUSH2 0x1041 JUMPI PUSH1 0x0 DUP1 REVERT JUMPDEST DUP1 CALLDATALOAD PUSH2 0x1041 DUP2 PUSH2 0x247F JUMP JUMPDEST DUP1 MLOAD PUSH2 0x1041 DUP2 PUSH2 0x247F JUMP JUMPDEST DUP1 CALLDATALOAD PUSH2 0x1041 DUP2 PUSH2 0x2490 JUMP JUMPDEST DUP1 MLOAD PUSH2 0x1041 DUP2 PUSH2 0x2490 JUMP JUMPDEST DUP1 CALLDATALOAD PUSH2 0x1041 DUP2 PUSH2 0x24A2 JUMP JUMPDEST DUP1 MLOAD PUSH2 0x1041 DUP2 PUSH2 0x24A2 JUMP JUMPDEST DUP1 CALLDATALOAD PUSH2 0x1041 DUP2 PUSH2 0x24B5 JUMP JUMPDEST DUP1 MLOAD PUSH2 0x1041 DUP2 PUSH2 0x24B5 JUMP JUMPDEST PUSH1 0x0 DUP1 PUSH1 0x0 PUSH1 0x40 DUP5 DUP7 SUB SLT ISZERO PUSH2 0x18B0 JUMPI DUP3 DUP4 REVERT JUMPDEST DUP4 CALLDATALOAD PUSH2 0x18BB DUP2 PUSH2 0x242E JUMP JUMPDEST SWAP3 POP PUSH1 0x20 DUP5 ADD CALLDATALOAD PUSH8 0xFFFFFFFFFFFFFFFF DUP1 DUP3 GT ISZERO PUSH2 0x18D7 JUMPI DUP4 DUP5 REVERT JUMPDEST DUP2 DUP7 ADD DUP8 PUSH1 0x1F DUP3 ADD SLT PUSH2 0x18E8 JUMPI DUP5 DUP6 REVERT JUMPDEST DUP1 CALLDATALOAD SWAP3 POP DUP2 DUP4 GT ISZERO PUSH2 0x18F8 JUMPI DUP5 DUP6 REVERT JUMPDEST DUP8 PUSH1 0x20 DUP1 DUP6 MUL DUP4 ADD ADD GT ISZERO PUSH2 0x190B JUMPI DUP5 DUP6 REVERT JUMPDEST SWAP5 SWAP8 PUSH1 0x20 SWAP1 SWAP6 ADD SWAP7 POP SWAP1 SWAP5 POP POP POP POP JUMP JUMPDEST PUSH1 0x0 DUP1 PUSH1 0x40 DUP4 DUP6 SUB SLT ISZERO PUSH2 0x192E JUMPI DUP2 DUP3 REVERT JUMPDEST DUP3 CALLDATALOAD PUSH2 0x1939 DUP2 PUSH2 0x242E JUMP JUMPDEST SWAP5 PUSH1 0x20 SWAP4 SWAP1 SWAP4 ADD CALLDATALOAD SWAP4 POP POP POP JUMP JUMPDEST PUSH1 0x0 PUSH1 0x20 DUP1 DUP4 DUP6 SUB SLT ISZERO PUSH2 0x1959 JUMPI DUP2 DUP3 REVERT JUMPDEST DUP3 MLOAD PUSH8 0xFFFFFFFFFFFFFFFF DUP2 GT ISZERO PUSH2 0x196F JUMPI DUP3 DUP4 REVERT JUMPDEST DUP1 DUP5 ADD DUP6 PUSH1 0x1F DUP3 ADD SLT PUSH2 0x1980 JUMPI DUP4 DUP5 REVERT JUMPDEST DUP1 MLOAD SWAP2 POP PUSH2 0x1990 PUSH2 0x13BB DUP4 PUSH2 0x23A0 JUMP JUMPDEST DUP3 DUP2 MSTORE DUP4 DUP2 ADD SWAP1 DUP3 DUP6 ADD DUP6 DUP6 MUL DUP5 ADD DUP7 ADD DUP10 LT ISZERO PUSH2 0x19AC JUMPI DUP7 DUP8 REVERT JUMPDEST DUP7 SWAP4 POP JUMPDEST DUP5 DUP5 LT ISZERO PUSH2 0x19CE JUMPI DUP1 MLOAD DUP4 MSTORE PUSH1 0x1 SWAP4 SWAP1 SWAP4 ADD SWAP3 SWAP2 DUP6 ADD SWAP2 DUP6 ADD PUSH2 0x19B0 JUMP JUMPDEST POP SWAP8 SWAP7 POP POP POP POP POP POP POP JUMP JUMPDEST PUSH1 0x0 PUSH1 0x20 DUP3 DUP5 SUB SLT ISZERO PUSH2 0x19EB JUMPI DUP1 DUP2 REVERT JUMPDEST POP MLOAD SWAP2 SWAP1 POP JUMP JUMPDEST PUSH1 0x0 DUP1 PUSH1 0x40 DUP4 DUP6 SUB SLT ISZERO PUSH2 0x1A04 JUMPI DUP2 DUP3 REVERT JUMPDEST DUP3 CALLDATALOAD SWAP2 POP PUSH1 0x20 DUP4 ADD CALLDATALOAD PUSH2 0x1A16 DUP2 PUSH2 0x2453 JUMP JUMPDEST DUP1 SWAP2 POP POP SWAP3 POP SWAP3 SWAP1 POP JUMP JUMPDEST PUSH1 0x0 PUSH1 0x20 DUP3 DUP5 SUB SLT ISZERO PUSH2 0x1A32 JUMPI DUP1 DUP2 REVERT JUMPDEST DUP2 CALLDATALOAD PUSH8 0xFFFFFFFFFFFFFFFF DUP2 GT ISZERO PUSH2 0x1A48 JUMPI DUP2 DUP3 REVERT JUMPDEST PUSH2 0x1A54 DUP5 DUP3 DUP6 ADD PUSH2 0x16AF JUMP JUMPDEST SWAP5 SWAP4 POP POP POP POP JUMP JUMPDEST PUSH1 0x0 PUSH1 0x20 DUP3 DUP5 SUB SLT ISZERO PUSH2 0x1A6D JUMPI DUP1 DUP2 REVERT JUMPDEST DUP2 MLOAD PUSH8 0xFFFFFFFFFFFFFFFF DUP2 GT ISZERO PUSH2 0x1A83 JUMPI DUP2 DUP3 REVERT JUMPDEST PUSH2 0x1A54 DUP5 DUP3 DUP6 ADD PUSH2 0x153F JUMP JUMPDEST PUSH1 0x0 DUP1 PUSH1 0x0 DUP4 DUP6 SUB PUSH1 0xA0 DUP2 SLT ISZERO PUSH2 0x1AA4 JUMPI DUP2 DUP3 REVERT JUMPDEST DUP5 CALLDATALOAD PUSH8 0xFFFFFFFFFFFFFFFF DUP2 GT ISZERO PUSH2 0x1ABA JUMPI DUP3 DUP4 REVERT JUMPDEST PUSH2 0x1AC6 DUP8 DUP3 DUP9 ADD PUSH2 0x16AF JUMP JUMPDEST SWAP5 POP POP PUSH1 0x20 DUP6 ADD CALLDATALOAD PUSH2 0x1AD7 DUP2 PUSH2 0x2453 JUMP JUMPDEST SWAP3 POP PUSH1 0x60 PUSH32 0xFFFFFFFFFFFFFFFFFFFFFFFFFFFFFFFFFFFFFFFFFFFFFFFFFFFFFFFFFFFFFFC0 DUP3 ADD SLT ISZERO PUSH2 0x1B08 JUMPI DUP2 DUP3 REVERT JUMPDEST POP PUSH2 0x1B13 PUSH1 0x60 PUSH2 0x2379 JUMP JUMPDEST PUSH1 0x40 DUP6 ADD CALLDATALOAD PUSH2 0x1B21 DUP2 PUSH2 0x24B5 JUMP JUMPDEST DUP2 MSTORE PUSH1 0x60 DUP6 ADD CALLDATALOAD PUSH1 0x20 DUP3 ADD MSTORE PUSH1 0x80 SWAP1 SWAP5 ADD CALLDATALOAD PUSH1 0x40 DUP6 ADD MSTORE POP SWAP1 SWAP4 SWAP1 SWAP3 POP JUMP JUMPDEST PUSH1 0x0 PUSH1 0x20 DUP3 DUP5 SUB SLT ISZERO PUSH2 0x1B51 JUMPI DUP1 DUP2 REVERT JUMPDEST DUP2 MLOAD PUSH8 0xFFFFFFFFFFFFFFFF DUP1 DUP3 GT ISZERO PUSH2 0x1B68 JUMPI DUP3 DUP4 REVERT JUMPDEST DUP2 DUP5 ADD DUP1 DUP7 SUB SWAP3 POP PUSH1 0xE0 DUP4 SLT ISZERO PUSH2 0x1B7D JUMPI DUP4 DUP5 REVERT JUMPDEST PUSH2 0x1B87 PUSH1 0xA0 PUSH2 0x2379 JUMP JUMPDEST DUP2 MLOAD DUP4 DUP2 GT ISZERO PUSH2 0x1B95 JUMPI DUP6 DUP7 REVERT JUMPDEST PUSH2 0x1BA1 DUP9 DUP3 DUP6 ADD PUSH2 0x153F JUMP JUMPDEST DUP3 MSTORE POP PUSH1 0x60 PUSH32 0xFFFFFFFFFFFFFFFFFFFFFFFFFFFFFFFFFFFFFFFFFFFFFFFFFFFFFFFFFFFFFFE0 DUP6 ADD SLT ISZERO PUSH2 0x1BD3 JUMPI DUP5 DUP6 REVERT JUMPDEST PUSH2 0x1BDD PUSH1 0x60 PUSH2 0x2379 JUMP JUMPDEST SWAP4 POP PUSH2 0x1BEC DUP8 PUSH1 0x20 DUP5 ADD PUSH2 0x1812 JUMP JUMPDEST DUP5 MSTORE PUSH2 0x1BFB DUP8 PUSH1 0x40 DUP5 ADD PUSH2 0x1832 JUMP JUMPDEST PUSH1 0x20 DUP6 ADD MSTORE PUSH2 0x1C0D DUP8 PUSH1 0x60 DUP5 ADD PUSH2 0x147B JUMP JUMPDEST PUSH1 0x40 DUP6 ADD MSTORE DUP4 PUSH1 0x20 DUP3 ADD MSTORE PUSH1 0x80 DUP3 ADD MLOAD PUSH1 0x40 DUP3 ADD MSTORE PUSH2 0x1C2F DUP8 PUSH1 0xA0 DUP5 ADD PUSH2 0x1486 JUMP JUMPDEST PUSH1 0x60 DUP3 ADD MSTORE PUSH2 0x1C41 DUP8 PUSH1 0xC0 DUP5 ADD PUSH2 0x147B JUMP JUMPDEST PUSH1 0x80 DUP3 ADD MSTORE SWAP7 SWAP6 POP POP POP POP POP POP JUMP JUMPDEST PUSH1 0x0 PUSH1 0x20 DUP3 DUP5 SUB SLT ISZERO PUSH2 0x1C61 JUMPI DUP1 DUP2 REVERT JUMPDEST DUP2 CALLDATALOAD PUSH2 0x103E DUP2 PUSH2 0x24A2 JUMP JUMPDEST PUSH1 0x0 PUSH1 0x20 DUP3 DUP5 SUB SLT ISZERO PUSH2 0x1C7D JUMPI DUP1 DUP2 REVERT JUMPDEST DUP2 MLOAD PUSH2 0x103E DUP2 PUSH2 0x24B5 JUMP JUMPDEST PUSH20 0xFFFFFFFFFFFFFFFFFFFFFFFFFFFFFFFFFFFFFFFF AND SWAP1 MSTORE JUMP JUMPDEST PUSH1 0x0 DUP2 MLOAD DUP1 DUP5 MSTORE PUSH1 0x20 DUP1 DUP6 ADD SWAP5 POP DUP1 DUP5 ADD DUP4 JUMPDEST DUP4 DUP2 LT ISZERO PUSH2 0x1CD4 JUMPI DUP2 MLOAD PUSH1 0xF SIGNEXTEND DUP8 MSTORE SWAP6 DUP3 ADD SWAP6 SWAP1 DUP3 ADD SWAP1 PUSH1 0x1 ADD PUSH2 0x1CB5 JUMP JUMPDEST POP SWAP5 SWAP6 SWAP5 POP POP POP POP POP JUMP JUMPDEST PUSH1 0x0 DUP2 MLOAD DUP1 DUP5 MSTORE PUSH1 0x20 DUP1 DUP6 ADD SWAP5 POP DUP1 DUP5 ADD DUP4 JUMPDEST DUP4 DUP2 LT ISZERO PUSH2 0x1CD4 JUMPI DUP2 MLOAD DUP8 MSTORE SWAP6 DUP3 ADD SWAP6 SWAP1 DUP3 ADD SWAP1 PUSH1 0x1 ADD PUSH2 0x1CF2 JUMP JUMPDEST PUSH1 0x0 SIGNEXTEND SWAP1 MSTORE JUMP JUMPDEST PUSH1 0x0 DUP2 MLOAD DUP1 DUP5 MSTORE PUSH2 0x1D2D DUP2 PUSH1 0x20 DUP7 ADD PUSH1 0x20 DUP7 ADD PUSH2 0x2402 JUMP JUMPDEST PUSH1 0x1F ADD PUSH32 0xFFFFFFFFFFFFFFFFFFFFFFFFFFFFFFFFFFFFFFFFFFFFFFFFFFFFFFFFFFFFFFE0 AND SWAP3 SWAP1 SWAP3 ADD PUSH1 0x20 ADD SWAP3 SWAP2 POP POP JUMP JUMPDEST PUSH1 0x0 PUSH2 0x1E0 DUP3 MLOAD DUP2 DUP6 MSTORE PUSH2 0x1D75 DUP3 DUP7 ADD DUP3 PUSH2 0x1D15 JUMP JUMPDEST PUSH1 0x20 DUP6 ADD MLOAD SWAP3 POP PUSH2 0x1D89 PUSH1 0x20 DUP8 ADD DUP5 PUSH2 0x1F4B JUMP JUMPDEST PUSH1 0x40 DUP6 ADD MLOAD SWAP3 POP PUSH2 0x1D9D PUSH1 0x40 DUP8 ADD DUP5 PUSH2 0x1F38 JUMP JUMPDEST PUSH1 0x60 DUP6 ADD MLOAD SWAP3 POP PUSH2 0x1DB1 PUSH1 0x60 DUP8 ADD DUP5 PUSH2 0x1F56 JUMP JUMPDEST PUSH1 0x80 DUP6 ADD MLOAD SWAP3 POP PUSH2 0x1DC5 PUSH1 0x80 DUP8 ADD DUP5 PUSH2 0x1F56 JUMP JUMPDEST PUSH1 0xA0 DUP6 ADD MLOAD SWAP3 POP PUSH2 0x1DD9 PUSH1 0xA0 DUP8 ADD DUP5 PUSH2 0x1F56 JUMP JUMPDEST PUSH1 0xC0 DUP6 ADD MLOAD SWAP3 POP PUSH2 0x1DED PUSH1 0xC0 DUP8 ADD DUP5 PUSH2 0x1D0E JUMP JUMPDEST PUSH1 0xE0 DUP6 ADD MLOAD SWAP3 POP PUSH2 0x1E01 PUSH1 0xE0 DUP8 ADD DUP5 PUSH2 0x1C88 JUMP JUMPDEST PUSH2 0x100 SWAP3 POP DUP3 DUP6 ADD MLOAD SWAP2 POP PUSH2 0x1E18 DUP4 DUP8 ADD DUP4 PUSH2 0x1F56 JUMP JUMPDEST PUSH2 0x120 SWAP3 POP DUP3 DUP6 ADD MLOAD SWAP2 POP PUSH2 0x1E2F DUP4 DUP8 ADD DUP4 PUSH2 0x1F41 JUMP JUMPDEST PUSH2 0x140 SWAP3 POP DUP3 DUP6 ADD MLOAD SWAP2 POP PUSH2 0x1E46 DUP4 DUP8 ADD DUP4 PUSH2 0x1C88 JUMP JUMPDEST PUSH2 0x160 SWAP3 POP DUP3 DUP6 ADD MLOAD SWAP2 POP PUSH2 0x1E5D DUP4 DUP8 ADD DUP4 PUSH2 0x1F41 JUMP JUMPDEST PUSH2 0x180 SWAP3 POP DUP3 DUP6 ADD MLOAD SWAP2 POP PUSH2 0x1E74 DUP4 DUP8 ADD DUP4 PUSH2 0x1F41 JUMP JUMPDEST PUSH2 0x1A0 SWAP3 POP DUP3 DUP6 ADD MLOAD SWAP2 POP PUSH2 0x1E8B DUP4 DUP8 ADD DUP4 PUSH2 0x1C88 JUMP JUMPDEST PUSH2 0x1C0 SWAP3 POP DUP3 DUP6 ADD MLOAD SWAP2 POP DUP6 DUP2 SUB DUP4 DUP8 ADD MSTORE PUSH2 0x1EA7 DUP2 DUP4 PUSH2 0x1CA2 JUMP JUMPDEST SWAP7 SWAP6 POP POP POP POP POP POP JUMP JUMPDEST PUSH1 0x0 DUP2 MLOAD PUSH1 0xE0 DUP5 MSTORE PUSH2 0x1EC6 PUSH1 0xE0 DUP6 ADD DUP3 PUSH2 0x1D5F JUMP JUMPDEST PUSH1 0x20 DUP5 ADD MLOAD SWAP2 POP PUSH16 0xFFFFFFFFFFFFFFFFFFFFFFFFFFFFFFFF DUP3 MLOAD AND PUSH1 0x20 DUP7 ADD MSTORE PUSH2 0xFFFF PUSH1 0x20 DUP4 ADD MLOAD AND PUSH1 0x40 DUP7 ADD MSTORE PUSH1 0x40 DUP3 ADD MLOAD ISZERO ISZERO PUSH1 0x60 DUP7 ADD MSTORE PUSH1 0x40 DUP5 ADD MLOAD PUSH1 0x80 DUP7 ADD MSTORE PUSH1 0x60 DUP5 ADD MLOAD SWAP2 POP PUSH1 0x3 DUP3 LT PUSH2 0x1F1B JUMPI INVALID JUMPDEST DUP2 PUSH1 0xA0 DUP7 ADD MSTORE PUSH1 0x80 DUP5 ADD MLOAD ISZERO ISZERO PUSH1 0xC0 DUP7 ADD MSTORE DUP1 SWAP3 POP POP POP SWAP3 SWAP2 POP POP JUMP JUMPDEST PUSH3 0xFFFFFF AND SWAP1 MSTORE JUMP JUMPDEST PUSH4 0xFFFFFFFF AND SWAP1 MSTORE JUMP JUMPDEST PUSH5 0xFFFFFFFFFF AND SWAP1 MSTORE JUMP JUMPDEST PUSH1 0xFF AND SWAP1 MSTORE JUMP JUMPDEST SWAP8 DUP9 MSTORE PUSH1 0xD8 SWAP7 SWAP1 SWAP7 SHL PUSH32 0xFFFFFFFFFF000000000000000000000000000000000000000000000000000000 AND PUSH1 0x20 DUP9 ADD MSTORE PUSH1 0xE8 SWAP5 SWAP1 SWAP5 SHL PUSH32 0xFFFFFF0000000000000000000000000000000000000000000000000000000000 AND PUSH1 0x25 DUP8 ADD MSTORE PUSH1 0xF8 SWAP3 DUP4 SHL PUSH32 0xFF00000000000000000000000000000000000000000000000000000000000000 SWAP1 DUP2 AND PUSH1 0x28 DUP9 ADD MSTORE SWAP2 DUP4 SHL DUP3 AND PUSH1 0x29 DUP8 ADD MSTORE DUP3 SHL DUP2 AND PUSH1 0x2A DUP7 ADD MSTORE PUSH1 0x0 SWAP3 SWAP1 SWAP3 SIGNEXTEND DUP2 SHL PUSH1 0x2B DUP6 ADD MSTORE SWAP2 SWAP1 SWAP2 SHL AND PUSH1 0x2C DUP3 ADD MSTORE PUSH1 0x2D ADD SWAP1 JUMP JUMPDEST PUSH1 0x0 DUP4 MLOAD PUSH1 0x20 PUSH2 0x202B DUP3 DUP6 DUP4 DUP10 ADD PUSH2 0x2402 JUMP JUMPDEST DUP5 MLOAD SWAP2 DUP5 ADD DUP2 DUP7 ADD DUP5 JUMPDEST DUP5 DUP2 LT ISZERO PUSH2 0x2054 JUMPI DUP2 MLOAD PUSH1 0xF SIGNEXTEND DUP4 MSTORE SWAP2 DUP4 ADD SWAP2 SWAP1 DUP4 ADD SWAP1 PUSH1 0x1 ADD PUSH2 0x2035 JUMP JUMPDEST POP SWAP1 SWAP8 SWAP7 POP POP POP POP POP POP POP JUMP JUMPDEST PUSH1 0x0 DUP3 MLOAD PUSH2 0x2073 DUP2 DUP5 PUSH1 0x20 DUP8 ADD PUSH2 0x2402 JUMP JUMPDEST SWAP2 SWAP1 SWAP2 ADD SWAP3 SWAP2 POP POP JUMP JUMPDEST PUSH20 0xFFFFFFFFFFFFFFFFFFFFFFFFFFFFFFFFFFFFFFFF SWAP3 SWAP1 SWAP3 AND DUP3 MSTORE PUSH1 0x20 DUP3 ADD MSTORE PUSH1 0x40 ADD SWAP1 JUMP JUMPDEST PUSH1 0x0 PUSH1 0x20 DUP1 DUP4 ADD DUP2 DUP5 MSTORE DUP1 DUP6 MLOAD DUP1 DUP4 MSTORE PUSH1 0x40 DUP7 ADD SWAP2 POP PUSH1 0x40 DUP5 DUP3 MUL DUP8 ADD ADD SWAP3 POP DUP4 DUP8 ADD DUP6 JUMPDEST DUP3 DUP2 LT ISZERO PUSH2 0x2114 JUMPI PUSH32 0xFFFFFFFFFFFFFFFFFFFFFFFFFFFFFFFFFFFFFFFFFFFFFFFFFFFFFFFFFFFFFFC0 DUP9 DUP7 SUB ADD DUP5 MSTORE PUSH2 0x2102 DUP6 DUP4 MLOAD PUSH2 0x1EB1 JUMP JUMPDEST SWAP5 POP SWAP3 DUP6 ADD SWAP3 SWAP1 DUP6 ADD SWAP1 PUSH1 0x1 ADD PUSH2 0x20C8 JUMP JUMPDEST POP SWAP3 SWAP8 SWAP7 POP POP POP POP POP POP POP JUMP JUMPDEST PUSH1 0x0 PUSH1 0x20 DUP3 MSTORE PUSH2 0x103E PUSH1 0x20 DUP4 ADD DUP5 PUSH2 0x1CDF JUMP JUMPDEST PUSH1 0x0 PUSH1 0x40 DUP1 DUP4 MSTORE PUSH2 0x2147 DUP2 DUP5 ADD DUP7 PUSH2 0x1CDF JUMP JUMPDEST DUP4 DUP2 SUB PUSH1 0x20 DUP6 DUP2 ADD SWAP2 SWAP1 SWAP2 MSTORE DUP6 MLOAD DUP1 DUP4 MSTORE DUP7 DUP3 ADD SWAP3 DUP3 ADD SWAP1 DUP6 JUMPDEST DUP2 DUP2 LT ISZERO PUSH2 0x219C JUMPI DUP5 MLOAD DUP1 MLOAD PUSH20 0xFFFFFFFFFFFFFFFFFFFFFFFFFFFFFFFFFFFFFFFF AND DUP5 MSTORE DUP5 ADD MLOAD DUP5 DUP5 ADD MSTORE SWAP4 DUP4 ADD SWAP4 SWAP2 DUP6 ADD SWAP2 PUSH1 0x1 ADD PUSH2 0x2161 JUMP JUMPDEST POP SWAP1 SWAP9 SWAP8 POP POP POP POP POP POP POP POP JUMP JUMPDEST SWAP1 ISZERO ISZERO DUP2 MSTORE PUSH1 0x20 ADD SWAP1 JUMP JUMPDEST SWAP1 DUP2 MSTORE PUSH1 0x20 ADD SWAP1 JUMP JUMPDEST PUSH1 0x0 DUP6 DUP3 MSTORE PUSH5 0xFFFFFFFFFF DUP6 AND PUSH1 0x20 DUP4 ADD MSTORE PUSH2 0xFFFF DUP5 AND PUSH1 0x40 DUP4 ADD MSTORE PUSH1 0x80 PUSH1 0x60 DUP4 ADD MSTORE PUSH2 0x1EA7 PUSH1 0x80 DUP4 ADD DUP5 PUSH2 0x1D15 JUMP JUMPDEST PUSH1 0x0 PUSH1 0x20 DUP3 MSTORE PUSH2 0x103E PUSH1 0x20 DUP4 ADD DUP5 PUSH2 0x1D15 JUMP JUMPDEST PUSH1 0x20 DUP1 DUP3 MSTORE PUSH1 0x22 SWAP1 DUP3 ADD MSTORE PUSH32 0x4F6E6C79206F776E65722063616E2063616C6C20746869732066756E6374696F PUSH1 0x40 DUP3 ADD MSTORE PUSH32 0x6E2E000000000000000000000000000000000000000000000000000000000000 PUSH1 0x60 DUP3 ADD MSTORE PUSH1 0x80 ADD SWAP1 JUMP JUMPDEST PUSH1 0x20 DUP1 DUP3 MSTORE PUSH1 0x15 SWAP1 DUP3 ADD MSTORE PUSH32 0x746F6F2066617220696E20746865206675747572650000000000000000000000 PUSH1 0x40 DUP3 ADD MSTORE PUSH1 0x60 ADD SWAP1 JUMP JUMPDEST PUSH1 0x20 DUP1 DUP3 MSTORE PUSH1 0x1B SWAP1 DUP3 ADD MSTORE PUSH32 0x536166654D6174683A206164646974696F6E206F766572666C6F770000000000 PUSH1 0x40 DUP3 ADD MSTORE PUSH1 0x60 ADD SWAP1 JUMP JUMPDEST PUSH1 0x20 DUP1 DUP3 MSTORE PUSH1 0x15 SWAP1 DUP3 ADD MSTORE PUSH32 0x7265676973746572206E6F7420706F737369626C650000000000000000000000 PUSH1 0x40 DUP3 ADD MSTORE PUSH1 0x60 ADD SWAP1 JUMP JUMPDEST PUSH1 0x0 PUSH1 0xA0 DUP3 MSTORE PUSH2 0x2316 PUSH1 0xA0 DUP4 ADD DUP7 PUSH2 0x1D5F JUMP JUMPDEST SWAP1 POP DUP4 ISZERO ISZERO PUSH1 0x20 DUP4 ADD MSTORE PUSH1 0xFF DUP4 MLOAD AND PUSH1 0x40 DUP4 ADD MSTORE PUSH1 0x20 DUP4 ADD MLOAD PUSH1 0x60 DUP4 ADD MSTORE PUSH1 0x40 DUP4 ADD MLOAD PUSH1 0x80 DUP4 ADD MSTORE SWAP5 SWAP4 POP POP POP POP JUMP JUMPDEST PUSH1 0x0 PUSH1 0x20 DUP3 MSTORE PUSH2 0x103E PUSH1 0x20 DUP4 ADD DUP5 PUSH2 0x1EB1 JUMP JUMPDEST PUSH5 0xFFFFFFFFFF SWAP2 SWAP1 SWAP2 AND DUP2 MSTORE PUSH1 0x20 ADD SWAP1 JUMP JUMPDEST PUSH1 0xFF SWAP2 SWAP1 SWAP2 AND DUP2 MSTORE PUSH1 0x20 ADD SWAP1 JUMP JUMPDEST PUSH1 0x40 MLOAD DUP2 DUP2 ADD PUSH8 0xFFFFFFFFFFFFFFFF DUP2 GT DUP3 DUP3 LT OR ISZERO PUSH2 0x2398 JUMPI PUSH1 0x0 DUP1 REVERT JUMPDEST PUSH1 0x40 MSTORE SWAP2 SWAP1 POP JUMP JUMPDEST PUSH1 0x0 PUSH8 0xFFFFFFFFFFFFFFFF DUP3 GT ISZERO PUSH2 0x23B6 JUMPI DUP1 DUP2 REVERT JUMPDEST POP PUSH1 0x20 SWAP1 DUP2 MUL ADD SWAP1 JUMP JUMPDEST PUSH1 0x0 PUSH8 0xFFFFFFFFFFFFFFFF DUP3 GT ISZERO PUSH2 0x23D6 JUMPI DUP1 DUP2 REVERT JUMPDEST POP PUSH1 0x1F ADD PUSH32 0xFFFFFFFFFFFFFFFFFFFFFFFFFFFFFFFFFFFFFFFFFFFFFFFFFFFFFFFFFFFFFFE0 AND PUSH1 0x20 ADD SWAP1 JUMP JUMPDEST PUSH1 0x0 JUMPDEST DUP4 DUP2 LT ISZERO PUSH2 0x241D JUMPI DUP2 DUP2 ADD MLOAD DUP4 DUP3 ADD MSTORE PUSH1 0x20 ADD PUSH2 0x2405 JUMP JUMPDEST DUP4 DUP2 GT ISZERO PUSH2 0xFF9 JUMPI POP POP PUSH1 0x0 SWAP2 ADD MSTORE JUMP JUMPDEST PUSH20 0xFFFFFFFFFFFFFFFFFFFFFFFFFFFFFFFFFFFFFFFF DUP2 AND DUP2 EQ PUSH2 0x2450 JUMPI PUSH1 0x0 DUP1 REVERT JUMPDEST POP JUMP JUMPDEST DUP1 ISZERO ISZERO DUP2 EQ PUSH2 0x2450 JUMPI PUSH1 0x0 DUP1 REVERT JUMPDEST DUP1 PUSH1 0xF SIGNEXTEND DUP2 EQ PUSH2 0x2450 JUMPI PUSH1 0x0 DUP1 REVERT JUMPDEST DUP1 PUSH1 0x0 SIGNEXTEND DUP2 EQ PUSH2 0x2450 JUMPI PUSH1 0x0 DUP1 REVERT JUMPDEST PUSH3 0xFFFFFF DUP2 AND DUP2 EQ PUSH2 0x2450 JUMPI PUSH1 0x0 DUP1 REVERT JUMPDEST PUSH4 0xFFFFFFFF DUP2 AND DUP2 EQ PUSH2 0x2450 JUMPI PUSH1 0x0 DUP1 REVERT JUMPDEST PUSH5 0xFFFFFFFFFF DUP2 AND DUP2 EQ PUSH2 0x2450 JUMPI PUSH1 0x0 DUP1 REVERT JUMPDEST PUSH1 0xFF DUP2 AND DUP2 EQ PUSH2 0x2450 JUMPI PUSH1 0x0 DUP1 REVERT INVALID STOP STOP STOP STOP STOP STOP STOP STOP STOP STATICCALL PUSH30 0x3B53800000000A8C0000000001FA40000000001C200000000000 STOP LOG2 PUSH5 0x6970667358 0x22 SLT KECCAK256 LOG1 SWAP11 BYTE LT 0xEF 0x28 DUP1 SWAP7 SWAP3 0xB4 0xD3 0xB6 0x26 0xDF 0xB2 0xC0 DUP4 0x4E 0xF8 0x2B EXTCODESIZE 0xBF 0xCB SMOD SAR SWAP7 MOD PUSH31 0xB15EA97564736F6C6343000603003300000000000000000000000000000000 "
			}
		}
	},
	"sourceTreeHashHex": "0x5d879cfd3d2569213f15d10c7dd270b56bd0300d0f88c648cc3fb7dca7e0c8d8",
	"compiler": {
		"name": "solc",
		"version": "soljson-v0.6.3+commit.8dda9521.js",
		"settings": {
			"optimizer": {
				"enabled": true,
				"runs": 20000,
				"details": {
					"yul": true,
					"deduplicate": true,
					"cse": true,
					"constantOptimizer": true
				}
			},
			"outputSelection": {
				"*": {
					"*": [
						"abi",
						"evm.bytecode.object",
						"evm.bytecode.sourceMap",
						"evm.deployedBytecode.object",
						"evm.deployedBytecode.sourceMap"
					]
				}
			},
			"remappings": [
				"factsigner=/home/ulf/github/digioptions-contracts.js/node_modules/factsigner"
			]
		}
	},
	"chains": {}
}