{
	"schemaVersion": "2.0.0",
	"contractName": "DigiOptionsMarkets",
	"compilerOutput": {
		"abi": [
			{
				"inputs": [],
				"stateMutability": "nonpayable",
				"type": "constructor"
			},
			{
				"anonymous": false,
				"inputs": [
					{
						"indexed": true,
						"internalType": "address",
						"name": "addr",
						"type": "address"
					},
					{
						"indexed": false,
						"internalType": "uint256",
						"name": "datetime",
						"type": "uint256"
					},
					{
						"indexed": false,
						"internalType": "int256",
						"name": "amount",
						"type": "int256"
					}
				],
				"name": "LiquidityAddWithdraw",
				"type": "event"
			},
			{
				"anonymous": false,
				"inputs": [
					{
						"indexed": false,
						"internalType": "bytes32",
						"name": "marketKey",
						"type": "bytes32"
					},
					{
						"indexed": true,
						"internalType": "uint48",
						"name": "expirationDatetimeFilter",
						"type": "uint48"
					},
					{
						"indexed": false,
						"internalType": "uint40",
						"name": "expirationDatetime",
						"type": "uint40"
					},
					{
						"indexed": true,
						"internalType": "uint8",
						"name": "marketInterval",
						"type": "uint8"
					},
					{
						"indexed": true,
						"internalType": "uint8",
						"name": "marketCategory",
						"type": "uint8"
					},
					{
						"indexed": false,
						"internalType": "string",
						"name": "underlyingString",
						"type": "string"
					}
				],
				"name": "MarketCreate",
				"type": "event"
			},
			{
				"anonymous": false,
				"inputs": [
					{
						"indexed": false,
						"internalType": "bytes32",
						"name": "marketHash",
						"type": "bytes32"
					}
				],
				"name": "MarketSettlement",
				"type": "event"
			},
			{
				"anonymous": false,
				"inputs": [
					{
						"indexed": true,
						"internalType": "uint256",
						"name": "buyer",
						"type": "uint256"
					},
					{
						"indexed": true,
						"internalType": "uint256",
						"name": "seller",
						"type": "uint256"
					},
					{
						"indexed": true,
						"internalType": "bytes32",
						"name": "marketHash",
						"type": "bytes32"
					},
					{
						"indexed": false,
						"internalType": "uint256",
						"name": "datetime",
						"type": "uint256"
					},
					{
						"indexed": false,
						"internalType": "uint16",
						"name": "optionID",
						"type": "uint16"
					},
					{
						"indexed": false,
						"internalType": "uint256",
						"name": "pricePerOption",
						"type": "uint256"
					},
					{
						"indexed": false,
						"internalType": "uint256",
						"name": "size",
						"type": "uint256"
					},
					{
						"indexed": false,
						"internalType": "bytes32",
						"name": "offerHash",
						"type": "bytes32"
					}
				],
				"name": "PositionChange",
				"type": "event"
			},
			{
				"inputs": [
					{
						"internalType": "uint40",
						"name": "expirationDatetime",
						"type": "uint40"
					}
				],
				"name": "calcMarketInterval",
				"outputs": [
					{
						"internalType": "uint8",
						"name": "interval",
						"type": "uint8"
					}
				],
				"stateMutability": "view",
				"type": "function"
			},
			{
				"inputs": [
					{
						"components": [
							{
								"internalType": "string",
								"name": "underlyingString",
								"type": "string"
							},
							{
								"internalType": "uint40",
								"name": "expirationDatetime",
								"type": "uint40"
							},
							{
								"internalType": "uint24",
								"name": "objectionPeriod",
								"type": "uint24"
							},
							{
								"internalType": "uint8",
								"name": "config",
								"type": "uint8"
							},
							{
								"internalType": "uint8",
								"name": "marketCategory",
								"type": "uint8"
							},
							{
								"internalType": "uint8",
								"name": "baseUnitExp",
								"type": "uint8"
							},
							{
								"internalType": "int8",
								"name": "ndigit",
								"type": "int8"
							},
							{
								"internalType": "address",
								"name": "signerAddr",
								"type": "address"
							},
							{
								"internalType": "uint8",
								"name": "marketInterval",
								"type": "uint8"
							},
							{
								"internalType": "uint8",
								"name": "transactionFee0",
								"type": "uint8"
							},
							{
								"internalType": "uint8",
								"name": "transactionFee1",
								"type": "uint8"
							},
							{
								"internalType": "uint8",
								"name": "transactionFeeSigner",
								"type": "uint8"
							},
							{
								"internalType": "address",
								"name": "feeTaker0",
								"type": "address"
							},
							{
								"internalType": "address",
								"name": "feeTaker1",
								"type": "address"
							},
							{
								"internalType": "int128[]",
								"name": "strikes",
								"type": "int128[]"
							}
						],
						"internalType": "struct DigiOptionsLib.MarketBaseData",
						"name": "marketBaseData",
						"type": "tuple"
					},
					{
						"internalType": "bool",
						"name": "testMarket",
						"type": "bool"
					},
					{
						"components": [
							{
								"internalType": "uint8",
								"name": "v",
								"type": "uint8"
							},
							{
								"internalType": "bytes32",
								"name": "r",
								"type": "bytes32"
							},
							{
								"internalType": "bytes32",
								"name": "s",
								"type": "bytes32"
							}
						],
						"internalType": "struct FactsignerVerify.Signature",
						"name": "signature",
						"type": "tuple"
					}
				],
				"name": "createMarket",
				"outputs": [
					{
						"internalType": "bytes32",
						"name": "marketHash",
						"type": "bytes32"
					}
				],
				"stateMutability": "nonpayable",
				"type": "function"
			},
			{
				"inputs": [
					{
						"internalType": "bytes32",
						"name": "marketHash",
						"type": "bytes32"
					},
					{
						"internalType": "address[]",
						"name": "users",
						"type": "address[]"
					},
					{
						"internalType": "bytes32[]",
						"name": "offerHash",
						"type": "bytes32[]"
					}
				],
				"name": "freeLiquidity",
				"outputs": [],
				"stateMutability": "nonpayable",
				"type": "function"
			},
			{
				"inputs": [],
				"name": "getContractInfo",
				"outputs": [
					{
						"internalType": "uint256[]",
						"name": "contractInfoValues",
						"type": "uint256[]"
					}
				],
				"stateMutability": "nonpayable",
				"type": "function"
			},
			{
				"inputs": [
					{
						"internalType": "bytes32",
						"name": "marketHash",
						"type": "bytes32"
					}
				],
				"name": "getLiquidityAndPositions",
				"outputs": [
					{
						"internalType": "uint256",
						"name": "liquidity",
						"type": "uint256"
					},
					{
						"components": [
							{
								"internalType": "int128",
								"name": "value",
								"type": "int128"
							},
							{
								"internalType": "uint8",
								"name": "rangeState",
								"type": "uint8"
							}
						],
						"internalType": "struct DigiOptionsMarkets.Position[]",
						"name": "positions",
						"type": "tuple[]"
					},
					{
						"internalType": "enum DigiOptionsLib.UserState",
						"name": "userState",
						"type": "uint8"
					}
				],
				"stateMutability": "view",
				"type": "function"
			},
			{
				"inputs": [
					{
						"internalType": "bytes32",
						"name": "marketHash",
						"type": "bytes32"
					}
				],
				"name": "getMarketBaseDataByMarketHash",
				"outputs": [
					{
						"components": [
							{
								"internalType": "string",
								"name": "underlyingString",
								"type": "string"
							},
							{
								"internalType": "uint40",
								"name": "expirationDatetime",
								"type": "uint40"
							},
							{
								"internalType": "uint24",
								"name": "objectionPeriod",
								"type": "uint24"
							},
							{
								"internalType": "uint8",
								"name": "config",
								"type": "uint8"
							},
							{
								"internalType": "uint8",
								"name": "marketCategory",
								"type": "uint8"
							},
							{
								"internalType": "uint8",
								"name": "baseUnitExp",
								"type": "uint8"
							},
							{
								"internalType": "int8",
								"name": "ndigit",
								"type": "int8"
							},
							{
								"internalType": "address",
								"name": "signerAddr",
								"type": "address"
							},
							{
								"internalType": "uint8",
								"name": "marketInterval",
								"type": "uint8"
							},
							{
								"internalType": "uint8",
								"name": "transactionFee0",
								"type": "uint8"
							},
							{
								"internalType": "uint8",
								"name": "transactionFee1",
								"type": "uint8"
							},
							{
								"internalType": "uint8",
								"name": "transactionFeeSigner",
								"type": "uint8"
							},
							{
								"internalType": "address",
								"name": "feeTaker0",
								"type": "address"
							},
							{
								"internalType": "address",
								"name": "feeTaker1",
								"type": "address"
							},
							{
								"internalType": "int128[]",
								"name": "strikes",
								"type": "int128[]"
							}
						],
						"internalType": "struct DigiOptionsLib.MarketBaseData",
						"name": "marketBaseData",
						"type": "tuple"
					}
				],
				"stateMutability": "view",
				"type": "function"
			},
			{
				"inputs": [
					{
						"internalType": "address",
						"name": "addr",
						"type": "address"
					},
					{
						"internalType": "bytes32",
						"name": "marketHash",
						"type": "bytes32"
					}
				],
				"name": "getMarketDataByMarketHash",
				"outputs": [
					{
						"components": [
							{
								"components": [
									{
										"internalType": "string",
										"name": "underlyingString",
										"type": "string"
									},
									{
										"internalType": "uint40",
										"name": "expirationDatetime",
										"type": "uint40"
									},
									{
										"internalType": "uint24",
										"name": "objectionPeriod",
										"type": "uint24"
									},
									{
										"internalType": "uint8",
										"name": "config",
										"type": "uint8"
									},
									{
										"internalType": "uint8",
										"name": "marketCategory",
										"type": "uint8"
									},
									{
										"internalType": "uint8",
										"name": "baseUnitExp",
										"type": "uint8"
									},
									{
										"internalType": "int8",
										"name": "ndigit",
										"type": "int8"
									},
									{
										"internalType": "address",
										"name": "signerAddr",
										"type": "address"
									},
									{
										"internalType": "uint8",
										"name": "marketInterval",
										"type": "uint8"
									},
									{
										"internalType": "uint8",
										"name": "transactionFee0",
										"type": "uint8"
									},
									{
										"internalType": "uint8",
										"name": "transactionFee1",
										"type": "uint8"
									},
									{
										"internalType": "uint8",
										"name": "transactionFeeSigner",
										"type": "uint8"
									},
									{
										"internalType": "address",
										"name": "feeTaker0",
										"type": "address"
									},
									{
										"internalType": "address",
										"name": "feeTaker1",
										"type": "address"
									},
									{
										"internalType": "int128[]",
										"name": "strikes",
										"type": "int128[]"
									}
								],
								"internalType": "struct DigiOptionsLib.MarketBaseData",
								"name": "marketBaseData",
								"type": "tuple"
							},
							{
								"components": [
									{
										"internalType": "uint128",
										"name": "fee",
										"type": "uint128"
									},
									{
										"internalType": "uint16",
										"name": "winningOptionID",
										"type": "uint16"
									},
									{
										"internalType": "bool",
										"name": "settled",
										"type": "bool"
									}
								],
								"internalType": "struct DigiOptionsLib.MarketState",
								"name": "marketState",
								"type": "tuple"
							},
							{
								"internalType": "bytes32",
								"name": "marketHash",
								"type": "bytes32"
							},
							{
								"internalType": "enum DigiOptionsLib.UserState",
								"name": "userState",
								"type": "uint8"
							},
							{
								"internalType": "bool",
								"name": "testMarket",
								"type": "bool"
							}
						],
						"internalType": "struct DigiOptionsLib.MarketData",
						"name": "marketData",
						"type": "tuple"
					}
				],
				"stateMutability": "view",
				"type": "function"
			},
			{
				"inputs": [
					{
						"internalType": "address",
						"name": "addr",
						"type": "address"
					},
					{
						"internalType": "bytes32[]",
						"name": "marketKeys",
						"type": "bytes32[]"
					}
				],
				"name": "getMarketDataListByMarketKeys",
				"outputs": [
					{
						"components": [
							{
								"components": [
									{
										"internalType": "string",
										"name": "underlyingString",
										"type": "string"
									},
									{
										"internalType": "uint40",
										"name": "expirationDatetime",
										"type": "uint40"
									},
									{
										"internalType": "uint24",
										"name": "objectionPeriod",
										"type": "uint24"
									},
									{
										"internalType": "uint8",
										"name": "config",
										"type": "uint8"
									},
									{
										"internalType": "uint8",
										"name": "marketCategory",
										"type": "uint8"
									},
									{
										"internalType": "uint8",
										"name": "baseUnitExp",
										"type": "uint8"
									},
									{
										"internalType": "int8",
										"name": "ndigit",
										"type": "int8"
									},
									{
										"internalType": "address",
										"name": "signerAddr",
										"type": "address"
									},
									{
										"internalType": "uint8",
										"name": "marketInterval",
										"type": "uint8"
									},
									{
										"internalType": "uint8",
										"name": "transactionFee0",
										"type": "uint8"
									},
									{
										"internalType": "uint8",
										"name": "transactionFee1",
										"type": "uint8"
									},
									{
										"internalType": "uint8",
										"name": "transactionFeeSigner",
										"type": "uint8"
									},
									{
										"internalType": "address",
										"name": "feeTaker0",
										"type": "address"
									},
									{
										"internalType": "address",
										"name": "feeTaker1",
										"type": "address"
									},
									{
										"internalType": "int128[]",
										"name": "strikes",
										"type": "int128[]"
									}
								],
								"internalType": "struct DigiOptionsLib.MarketBaseData",
								"name": "marketBaseData",
								"type": "tuple"
							},
							{
								"components": [
									{
										"internalType": "uint128",
										"name": "fee",
										"type": "uint128"
									},
									{
										"internalType": "uint16",
										"name": "winningOptionID",
										"type": "uint16"
									},
									{
										"internalType": "bool",
										"name": "settled",
										"type": "bool"
									}
								],
								"internalType": "struct DigiOptionsLib.MarketState",
								"name": "marketState",
								"type": "tuple"
							},
							{
								"internalType": "bytes32",
								"name": "marketHash",
								"type": "bytes32"
							},
							{
								"internalType": "enum DigiOptionsLib.UserState",
								"name": "userState",
								"type": "uint8"
							},
							{
								"internalType": "bool",
								"name": "testMarket",
								"type": "bool"
							}
						],
						"internalType": "struct DigiOptionsLib.MarketData[]",
						"name": "marketDataList",
						"type": "tuple[]"
					}
				],
				"stateMutability": "view",
				"type": "function"
			},
			{
				"inputs": [],
				"name": "liquidityAdd",
				"outputs": [],
				"stateMutability": "payable",
				"type": "function"
			},
			{
				"inputs": [
					{
						"internalType": "address",
						"name": "user",
						"type": "address"
					}
				],
				"name": "liquidityAddFor",
				"outputs": [],
				"stateMutability": "payable",
				"type": "function"
			},
			{
				"inputs": [],
				"name": "liquidityGet",
				"outputs": [
					{
						"internalType": "uint256",
						"name": "liquidity",
						"type": "uint256"
					}
				],
				"stateMutability": "view",
				"type": "function"
			},
			{
				"inputs": [
					{
						"internalType": "uint256",
						"name": "amount",
						"type": "uint256"
					}
				],
				"name": "liquidityWithdraw",
				"outputs": [],
				"stateMutability": "nonpayable",
				"type": "function"
			},
			{
				"inputs": [
					{
						"components": [
							{
								"components": [
									{
										"internalType": "bytes32",
										"name": "marketHash",
										"type": "bytes32"
									},
									{
										"internalType": "uint16",
										"name": "optionID",
										"type": "uint16"
									},
									{
										"internalType": "bool",
										"name": "buy",
										"type": "bool"
									},
									{
										"internalType": "uint256",
										"name": "pricePerOption",
										"type": "uint256"
									},
									{
										"internalType": "uint256",
										"name": "size",
										"type": "uint256"
									},
									{
										"internalType": "uint256",
										"name": "offerID",
										"type": "uint256"
									},
									{
										"internalType": "uint256",
										"name": "blockExpires",
										"type": "uint256"
									},
									{
										"internalType": "address",
										"name": "offerOwner",
										"type": "address"
									}
								],
								"internalType": "struct DigiOptionsMarkets.OrderOffer",
								"name": "orderOffer",
								"type": "tuple"
							},
							{
								"components": [
									{
										"internalType": "uint8",
										"name": "v",
										"type": "uint8"
									},
									{
										"internalType": "bytes32",
										"name": "r",
										"type": "bytes32"
									},
									{
										"internalType": "bytes32",
										"name": "s",
										"type": "bytes32"
									}
								],
								"internalType": "struct DigiOptionsLib.Signature",
								"name": "signature",
								"type": "tuple"
							}
						],
						"internalType": "struct DigiOptionsMarkets.OrderOfferSigned[]",
						"name": "orderOfferSignedList",
						"type": "tuple[]"
					},
					{
						"internalType": "uint256",
						"name": "sizeAcceptMax",
						"type": "uint256"
					}
				],
				"name": "orderExecute",
				"outputs": [],
				"stateMutability": "nonpayable",
				"type": "function"
			},
			{
				"inputs": [
					{
						"components": [
							{
								"components": [
									{
										"internalType": "bytes32",
										"name": "marketHash",
										"type": "bytes32"
									},
									{
										"internalType": "uint16",
										"name": "optionID",
										"type": "uint16"
									},
									{
										"internalType": "bool",
										"name": "buy",
										"type": "bool"
									},
									{
										"internalType": "uint256",
										"name": "pricePerOption",
										"type": "uint256"
									},
									{
										"internalType": "uint256",
										"name": "size",
										"type": "uint256"
									},
									{
										"internalType": "uint256",
										"name": "offerID",
										"type": "uint256"
									},
									{
										"internalType": "uint256",
										"name": "blockExpires",
										"type": "uint256"
									},
									{
										"internalType": "address",
										"name": "offerOwner",
										"type": "address"
									}
								],
								"internalType": "struct DigiOptionsMarkets.OrderOffer",
								"name": "orderOffer",
								"type": "tuple"
							},
							{
								"components": [
									{
										"internalType": "uint8",
										"name": "v",
										"type": "uint8"
									},
									{
										"internalType": "bytes32",
										"name": "r",
										"type": "bytes32"
									},
									{
										"internalType": "bytes32",
										"name": "s",
										"type": "bytes32"
									}
								],
								"internalType": "struct DigiOptionsLib.Signature",
								"name": "signature",
								"type": "tuple"
							}
						],
						"internalType": "struct DigiOptionsMarkets.OrderOfferSigned",
						"name": "orderOfferSigned",
						"type": "tuple"
					},
					{
						"internalType": "uint256",
						"name": "sizeAccept",
						"type": "uint256"
					}
				],
				"name": "orderExecuteTest",
				"outputs": [
					{
						"internalType": "uint256",
						"name": "sizeAcceptPossible",
						"type": "uint256"
					},
					{
						"internalType": "bytes32",
						"name": "offerHash",
						"type": "bytes32"
					},
					{
						"internalType": "int256",
						"name": "liquidityOfferOwner",
						"type": "int256"
					},
					{
						"internalType": "int256",
						"name": "liquidityOfferTaker",
						"type": "int256"
					},
					{
						"internalType": "uint256",
						"name": "transactionFeeAmount",
						"type": "uint256"
					}
				],
				"stateMutability": "view",
				"type": "function"
			},
			{
				"inputs": [
					{
						"internalType": "bytes32",
						"name": "marketHash",
						"type": "bytes32"
					},
					{
						"components": [
							{
								"internalType": "uint8",
								"name": "v",
								"type": "uint8"
							},
							{
								"internalType": "bytes32",
								"name": "r",
								"type": "bytes32"
							},
							{
								"internalType": "bytes32",
								"name": "s",
								"type": "bytes32"
							}
						],
						"internalType": "struct FactsignerVerify.Signature",
						"name": "signature",
						"type": "tuple"
					},
					{
						"internalType": "int256",
						"name": "value",
						"type": "int256"
					},
					{
						"internalType": "address[]",
						"name": "users",
						"type": "address[]"
					},
					{
						"internalType": "bytes32[]",
						"name": "offerHash",
						"type": "bytes32[]"
					}
				],
				"name": "settlement",
				"outputs": [],
				"stateMutability": "nonpayable",
				"type": "function"
			}
		],
		"evm": {
			"bytecode": {
				"linkReferences": {},
				"object": "0x608060405234801561001057600080fd5b504360015542600055614894806100286000396000f3fe6080604052600436106100e85760003560e01c80636f1dc3391161008a578063b145e5ee11610059578063b145e5ee1461027e578063c70be14614610291578063d245a559146102be578063ee1f69eb146102de576100e8565b80636f1dc3391461021f5780637cc1f86714610234578063997402f214610256578063a1aa12b21461025e576100e8565b806320185aa2116100c657806320185aa214610174578063248a2954146101945780632556d8d0146101c557806352d02688146101f2576100e8565b806305090e1a146100ed578063095200ce1461010f57806319018bdb14610145575b600080fd5b3480156100f957600080fd5b5061010d610108366004613e7b565b61030b565b005b34801561011b57600080fd5b5061012f61012a366004614132565b61062d565b60405161013c9190614757565b60405180910390f35b34801561015157600080fd5b50610165610160366004613e63565b610640565b60405161013c93929190614691565b34801561018057600080fd5b5061010d61018f366004613e63565b61099e565b3480156101a057600080fd5b506101b46101af366004614106565b610a96565b60405161013c9594939291906146ff565b3480156101d157600080fd5b506101e56101e0366004613f6b565b610cd9565b60405161013c919061458e565b3480156101fe57600080fd5b5061021261020d366004613d15565b611299565b60405161013c91906144cc565b34801561022b57600080fd5b506101e561133d565b34801561024057600080fd5b50610249611350565b60405161013c919061454a565b61010d61146b565b34801561026a57600080fd5b5061010d610279366004613ee5565b6114dc565b61010d61028c366004613cfb565b611bb9565b34801561029d57600080fd5b506102b16102ac366004613d95565b611c4e565b60405161013c919061467e565b3480156102ca57600080fd5b5061010d6102d9366004613dbe565b611f5b565b3480156102ea57600080fd5b506102fe6102f9366004613e63565b611f9f565b60405161013c919061466b565b6000838152600460205260409020610321613699565b506040805160608101825282546fffffffffffffffffffffffffffffffff81168252700100000000000000000000000000000000810461ffff1660208301819052720100000000000000000000000000000000000090910460ff16151592820183905290916001146103c8576040517f08c379a00000000000000000000000000000000000000000000000000000000081526004016103bf906145c6565b60405180910390fd5b6000805b86518210156106235760008783815181106103e357fe5b602002602001015190506002808111156103f957fe5b6104038288612206565b600281111561040e57fe5b146106175761041d868261232f565b73ffffffffffffffffffffffffffffffffffffffff82166000908152600688016020908152604080832061ffff89168452909152812054919350600f91820b90910b9061046a82856123c1565b73ffffffffffffffffffffffffffffffffffffffff8416600090815260068a016020908152604080832061ffff8b168452909152902080547fffffffffffffffffffffffffffffff00ffffffffffffffffffffffffffffffff1670020000000000000000000000000000000017905590506105206104f46104ef83633b9aca00612440565b612557565b73ffffffffffffffffffffffffffffffffffffffff851660009081526003602052604090205490612567565b73ffffffffffffffffffffffffffffffffffffffff841660009081526003602052604081209190915582126105b2578a8373ffffffffffffffffffffffffffffffffffffffff1660007f7881338eb26bc3f4eb2d539721ba87c61744a77ccef589c34a5ad54af21fadf2428a6009600a0a8860006040516105a5959493929190614730565b60405180910390a4610614565b8a60008473ffffffffffffffffffffffffffffffffffffffff167f7881338eb26bc3f4eb2d539721ba87c61744a77ccef589c34a5ad54af21fadf2428a6009600a0a88600003600060405161060b959493929190614730565b60405180910390a45b50505b506001909101906103cc565b5050505050505050565b6000610638826125db565b90505b919050565b6000818152600460205260408120606090829061065b6136b9565b81600101604051806101e0016040529081600082018054600181600116156101000203166002900480601f0160208091040260200160405190810160405280929190818152602001828054600181600116156101000203166002900480156107045780601f106106d957610100808354040283529160200191610704565b820191906000526020600020905b8154815290600101906020018083116106e757829003601f168201915b5050509183525050600182015464ffffffffff811660208084019190915262ffffff6501000000000083041660408085019190915260ff6801000000000000000084048116606086015269010000000000000000008404811660808601526a01000000000000000000008404811660a08601526b0100000000000000000000008404600090810b810b900b60c086015273ffffffffffffffffffffffffffffffffffffffff6c01000000000000000000000000909404841660e0860152600286015480821661010080880191909152810482166101208701526201000081048216610140870152630100000081049091166101608601526401000000009004831661018085015260038501549092166101a08401526004840180548351818402810184019094528084526101c090940193909183018282801561088c57602002820191906000526020600020906000905b82829054906101000a9004600f0b600f0b81526020019060100190602082600f010492830192600103820291508084116108555790505b5050505050815250509050806101c001515160010167ffffffffffffffff811180156108b757600080fd5b506040519080825280602002602001820160405280156108f157816020015b6108de613737565b8152602001906001900390816108d65790505b50935060005b816101c00151518111610971573360009081526006840160209081526040808320848452825291829020825180840190935254600f81810b810b900b8352700100000000000000000000000000000000900460ff1690820152855186908390811061095e57fe5b60209081029190910101526001016108f7565b503360008181526003602052604090205490859061098f9085612206565b94509450945050509193909250565b336000908152600360205260409020548111156109e7576040517f08c379a00000000000000000000000000000000000000000000000000000000081526004016103bf90614634565b33600090815260036020526040902054610a0190826126cb565b33600081815260036020526040808220939093559151909183156108fc02918491818181858888f19350505050158015610a3f573d6000803e3d6000fd5b503373ffffffffffffffffffffffffffffffffffffffff167f6e2eec282b5765f3a053054d83d425d0e03e1003bb2740d41c1fce6d4a0d74f74283600003604051610a8b929190614722565b60405180910390a250565b6000806000806000610aa661374e565b5086518051600090815260046020908152604091829020835182850151848601516060870151608088015160a089015160c08a015160e08b015199519799610af0993099016143fd565b6040516020818303038152906040528051906020012095508160e0015173ffffffffffffffffffffffffffffffffffffffff16610b31878b6020015161270d565b73ffffffffffffffffffffffffffffffffffffffff1614610b555760009750610b9d565b60808201516000878152600783016020526040902054610b75908a612567565b1115610b9d5760008681526007820160205260409020546080830151610b9a916126cb565b97505b6000610bb683606001518a61289b90919063ffffffff16565b6003830154909150610c0290610bf09060ff63010000008204811691610bea91610100820481169162010000900416612567565b90612567565b610bfc8361271061290e565b9061289b565b9350610c1a828460400151858660e001518d86612950565b9550610c41610c2885612a24565b610c3b8486604001511587338f88612950565b906123c1565b6005830154602085015191965061ffff90911611801590610c6657508260c001514311155b8015610c80575060c0830151610c7d43600c612567565b10155b8015610ca6575060e083015173ffffffffffffffffffffffffffffffffffffffff163314155b8015610cb3575060008612155b8015610cc0575060008512155b610cc957600098505b8897505050509295509295909350565b6000836020015164ffffffffff1660001415610cf157fe5b6000610cfc85612a4f565b90508460e0015173ffffffffffffffffffffffffffffffffffffffff16610d238285612c79565b73ffffffffffffffffffffffffffffffffffffffff1614610d70576040517f08c379a00000000000000000000000000000000000000000000000000000000081526004016103bf906145fd565b610d7985612d02565b60008181526004602052604090206002015490925064ffffffffff16159050610da157611292565b8360a0015160ff16601214610db257fe5b6040846080015160ff1610610dc357fe5b606084015160009060011615610ec9576000856101c001515111610de357fe5b617ffd856101c001515110610df457fe5b5060015b846101c0015151811015610e5057846101c001518181518110610e1757fe5b6020026020010151600f0b856101c001516001830381518110610e3657fe5b6020026020010151600f0b12610e4857fe5b600101610df8565b8460c0015160000b8560a0015160ff1660010b1215610e6b57fe5b5060005b846101c0015151811015610ec4578460c0015160000b8560a0015160ff1603600a0a856101c001518281518110610ea257fe5b6020026020010151600f0b81610eb457fe5b0715610ebc57fe5b600101610e6f565b610eeb565b6001856101c001515111610ed957fe5b617ffd856101c00151511115610eeb57fe5b6020856080015160ff1610610efc57fe5b6000856080015160080260ff1686610100015160ff166001901b901b9050806002541660001415610f305760028054821790555b6000610f3f87602001516125db565b606088015190915060041615610f68578060ff1687610100015160ff1614610f6357fe5b610f78565b61010087015160ff1615610f7857fe5b6000848152600460209081526040909120885180518a93600190930192610fa3928492910190613792565b5060208201518160010160006101000a81548164ffffffffff021916908364ffffffffff16021790555060408201518160010160056101000a81548162ffffff021916908362ffffff16021790555060608201518160010160086101000a81548160ff021916908360ff16021790555060808201518160010160096101000a81548160ff021916908360ff16021790555060a082015181600101600a6101000a81548160ff021916908360ff16021790555060c082015181600101600b6101000a81548160ff021916908360000b60ff16021790555060e082015181600101600c6101000a81548173ffffffffffffffffffffffffffffffffffffffff021916908373ffffffffffffffffffffffffffffffffffffffff1602179055506101008201518160020160006101000a81548160ff021916908360ff1602179055506101208201518160020160016101000a81548160ff021916908360ff1602179055506101408201518160020160026101000a81548160ff021916908360ff1602179055506101608201518160020160036101000a81548160ff021916908360ff1602179055506101808201518160020160046101000a81548173ffffffffffffffffffffffffffffffffffffffff021916908373ffffffffffffffffffffffffffffffffffffffff1602179055506101a08201518160030160006101000a81548173ffffffffffffffffffffffffffffffffffffffff021916908373ffffffffffffffffffffffffffffffffffffffff1602179055506101c08201518160040190805190602001906111f592919061381a565b50905050866080015160ff1687610100015160ff168260ff16600861121c8560ff16612fb4565b65ffffffffffff168b6020015164ffffffffff168161123757fe5b0465ffffffffffff16901b0165ffffffffffff167f13d334f612c6e3d949b7da4336e52487cdf7e8b324884e285aaca45027505860878b602001518c6000015160405161128693929190614597565b60405180910390a45050505b9392505050565b60608167ffffffffffffffff811180156112b257600080fd5b506040519080825280602002602001820160405280156112ec57816020015b6112d96138eb565b8152602001906001900390816112d15790505b50905060005b82811015611335576113168585858481811061130a57fe5b90506020020135611c4e565b82828151811061132257fe5b60209081029190910101526001016112f2565b509392505050565b3360009081526003602052604090205490565b6040805160098082526101408201909252606091829190602082016101208036833701905050905060018160008151811061138757fe5b60209081029190910101526000816001815181106113a157fe5b602090810291909101015262350000816002815181106113bd57fe5b602090810291909101015230816003815181106113d657fe5b6020908102919091010152600154816004815181106113f157fe5b60209081029190910101526000548160058151811061140c57fe5b6020908102919091010152600c8160068151811061142657fe5b602090810291909101015260098160078151811061144057fe5b60209081029190910101526002548160088151811061145b57fe5b6020908102919091010152905090565b34156114da573360009081526003602052604090205461148b9034612567565b33600081815260036020526040908190209290925590517f6e2eec282b5765f3a053054d83d425d0e03e1003bb2740d41c1fce6d4a0d74f7906114d19042903490614722565b60405180910390a25b565b60008581526004602090815260409182902060028082015484516001808501805461010092811615929092027fffffffffffffffffffffffffffffffffffffffffffffffffffffffffffffffff0190911693909304601f810186900490950281016102009081019096526101e0810185815293956c0100000000000000000000000090920473ffffffffffffffffffffffffffffffffffffffff169461179e9461176d949293849284918401828280156115d75780601f106115ac576101008083540402835291602001916115d7565b820191906000526020600020905b8154815290600101906020018083116115ba57829003601f168201915b5050509183525050600182015464ffffffffff811660208084019190915262ffffff6501000000000083041660408085019190915260ff6801000000000000000084048116606086015269010000000000000000008404811660808601526a01000000000000000000008404811660a08601526b0100000000000000000000008404600090810b810b900b60c086015273ffffffffffffffffffffffffffffffffffffffff6c01000000000000000000000000909404841660e0860152600286015480821661010080880191909152810482166101208701526201000081048216610140870152630100000081049091166101608601526401000000009004831661018085015260038501549092166101a08401526004840180548351818402810184019094528084526101c090940193909183018282801561175f57602002820191906000526020600020906000905b82829054906101000a9004600f0b600f0b81526020019060100190602082600f010492830192600103820291508084116117285790505b505050505081525050612a4f565b86600060405160200161178293929190614491565b6040516020818303038152906040528051906020012087612c79565b73ffffffffffffffffffffffffffffffffffffffff16146117eb576040517f08c379a00000000000000000000000000000000000000000000000000000000081526004016103bf906145fd565b80547201000000000000000000000000000000000000900460ff16156118115750611bb2565b600080600160028401546801000000000000000090041660ff1615611898575050600581015460005b6005830154811015611893576005830180548290811061185657fe5b90600052602060002090600291828204019190066010029054906101000a9004600f0b600f0b86121561188b57809150611893565b60010161183a565b6118f8565b5060009050805b60058301548110156118f857600583018054829081106118bb57fe5b90600052602060002090600291828204019190066010029054906101000a9004600f0b600f0b8614156118f0578091506118f8565b60010161189f565b825472010000000000000000000000000000000000007fffffffffffffffffffffffffffff0000ffffffffffffffffffffffffffffffff90911670010000000000000000000000000000000061ffff851602177fffffffffffffffffffffffffff00ffffffffffffffffffffffffffffffffffff1617835560038301546000906119a09060ff63010000008204811691610bea91610100820481169162010000900416612567565b845490915060009082906fffffffffffffffffffffffffffffffff16816119c357fe5b60038701549190049150611a1e906119e4908390610100900460ff1661289b565b600387810154640100000000900473ffffffffffffffffffffffffffffffffffffffff166000908152602091909152604090205490612567565b60038681018054640100000000900473ffffffffffffffffffffffffffffffffffffffff16600090815260209290925260409091209190915554611aa090611a7090839062010000900460ff1661289b565b600487015473ffffffffffffffffffffffffffffffffffffffff1660009081526003602052604090205490612567565b600486015473ffffffffffffffffffffffffffffffffffffffff16600090815260036020819052604090912091909155850154611b2c90611aec9083906301000000900460ff1661289b565b60028701546c01000000000000000000000000900473ffffffffffffffffffffffffffffffffffffffff1660009081526003602052604090205490612567565b60028601546c01000000000000000000000000900473ffffffffffffffffffffffffffffffffffffffff166000908152600360205260409081902091909155517fbc368577aa675ea916e9069e5c84c091ab02483dcc1a83cda5f0124b39b0f2e990611b99908c9061458e565b60405180910390a1611bac8a888861030b565b50505050505b5050505050565b3415611c4b5773ffffffffffffffffffffffffffffffffffffffff8116600090815260036020526040902054611bef9034612567565b73ffffffffffffffffffffffffffffffffffffffff8216600081815260036020526040908190209290925590517f6e2eec282b5765f3a053054d83d425d0e03e1003bb2740d41c1fce6d4a0d74f790610a8b9042903490614722565b50565b611c566138eb565b6000828152600460205260409020611c6c6136b9565b81600101604051806101e0016040529081600082018054600181600116156101000203166002900480601f016020809104026020016040519081016040528092919081815260200182805460018160011615610100020316600290048015611d155780601f10611cea57610100808354040283529160200191611d15565b820191906000526020600020905b815481529060010190602001808311611cf857829003601f168201915b5050509183525050600182015464ffffffffff811660208084019190915262ffffff6501000000000083041660408085019190915260ff6801000000000000000084048116606086015269010000000000000000008404811660808601526a01000000000000000000008404811660a08601526b0100000000000000000000008404600090810b810b900b60c086015273ffffffffffffffffffffffffffffffffffffffff6c01000000000000000000000000909404841660e0860152600286015480821661010080880191909152810482166101208701526201000081048216610140870152630100000081049091166101608601526401000000009004831661018085015260038501549092166101a08401526004840180548351818402810184019094528084526101c0909401939091830182828015611e9d57602002820191906000526020600020906000905b82829054906101000a9004600f0b600f0b81526020019060100190602082600f01049283019260010382029150808411611e665790505b5050505050815250509050611eb0613699565b50604080516060808201835284546fffffffffffffffffffffffffffffffff81168352700100000000000000000000000000000000810461ffff16602080850191909152720100000000000000000000000000000000000090910460ff16151583850152835160a0810185528581529081018390529283018790529091908101611f3a8886612206565b6002811115611f4557fe5b8152600060209091015293505050505b92915050565b611f63613926565b60005b8351811015611f9957838181518110611f7b57fe5b60200260200101519150611f8f8284612fe2565b9250600101611f66565b50505050565b611fa76136b9565b600082815260046020908152604091829020825160018083018054600292811615610100027fffffffffffffffffffffffffffffffffffffffffffffffffffffffffffffffff011691909104601f810185900490940282016102009081019095526101e0820184815292949193909284929091849184018282801561206d5780601f106120425761010080835404028352916020019161206d565b820191906000526020600020905b81548152906001019060200180831161205057829003601f168201915b5050509183525050600182015464ffffffffff811660208084019190915262ffffff6501000000000083041660408085019190915260ff6801000000000000000084048116606086015269010000000000000000008404811660808601526a01000000000000000000008404811660a08601526b0100000000000000000000008404600090810b810b900b60c086015273ffffffffffffffffffffffffffffffffffffffff6c01000000000000000000000000909404841660e0860152600286015480821661010080880191909152810482166101208701526201000081048216610140870152630100000081049091166101608601526401000000009004831661018085015260038501549092166101a08401526004840180548351818402810184019094528084526101c09094019390918301828280156121f557602002820191906000526020600020906000905b82829054906101000a9004600f0b600f0b81526020019060100190602082600f010492830192600103820291508084116121be5790505b505050505081525050915050919050565b73ffffffffffffffffffffffffffffffffffffffff82166000908152600682016020526040812082547201000000000000000000000000000000000000900460ff16156122d857612255613737565b5082547001000000000000000000000000000000009081900461ffff1660009081526020838152604091829020825180840190935254600f81810b810b900b83529290920460ff1691810182905290600214806122c65750602081015160ff1660011480156122c657508051600f0b155b156122d657600292505050611f55565b505b60005b6005840154811161232457600081815260208390526040902054700100000000000000000000000000000000900460ff161561231c57600192505050611f55565b6001016122db565b506000949350505050565b600582015473ffffffffffffffffffffffffffffffffffffffff82166000908152600684016020526040812090917f7fffffffffffffffffffffffffffffffffffffffffffffffffffffffffffffff9183805b8381116123b557600081815260208490526040902054600f90810b900b9150848212156123ad578194505b600101612382565b50929695505050505050565b60008183038183128015906123d65750838113155b806123eb57506000831280156123eb57508381135b611292576040517f08c379a000000000000000000000000000000000000000000000000000000000815260040180806020018281038252602481526020018061483b6024913960400191505060405180910390fd5b60008261244f57506000611f55565b827fffffffffffffffffffffffffffffffffffffffffffffffffffffffffffffffff14801561249d57507f800000000000000000000000000000000000000000000000000000000000000082145b156124f3576040517f08c379a00000000000000000000000000000000000000000000000000000000081526004018080602001828103825260278152602001806148146027913960400191505060405180910390fd5b8282028284828161250057fe5b0514611292576040517f08c379a00000000000000000000000000000000000000000000000000000000081526004018080602001828103825260278152602001806148146027913960400191505060405180910390fd5b60008082121561256357fe5b5090565b60008282018381101561129257604080517f08c379a000000000000000000000000000000000000000000000000000000000815260206004820152601b60248201527f536166654d6174683a206164646974696f6e206f766572666c6f770000000000604482015290519081900360640190fd5b600080806125f064ffffffffff8516426126cb565b90506303c26700811061266457604080517f08c379a000000000000000000000000000000000000000000000000000000000815260206004820152601560248201527f746f6f2066617220696e20746865206675747572650000000000000000000000604482015290519081900360640190fd5b623b53808111156126795760015b91506126c4565b620a8c0081111561268b576003612672565b6201fa4081111561269d576004612672565b611c208111156126ae576005612672565b6103848111156126bf576006612672565b600791505b5092915050565b600061129283836040518060400160405280601e81526020017f536166654d6174683a207375627472616374696f6e206f766572666c6f7700008152506133fe565b6000806040518060400160405280601c81526020017f19457468657265756d205369676e6564204d6573736167653a0a333200000000815250846040516020018083805190602001908083835b6020831061279757805182527fffffffffffffffffffffffffffffffffffffffffffffffffffffffffffffffe0909201916020918201910161275a565b51815160209384036101000a7fffffffffffffffffffffffffffffffffffffffffffffffffffffffffffffffff018019909216911617905292019384525060408051808503815284830180835281519184019190912089518a8501518b85015160009485905285890180875284905260ff9092166060890152608088015260a08701529151919650945060019360c080820194507fffffffffffffffffffffffffffffffffffffffffffffffffffffffffffffffe0830192918290030190855afa158015612869573d6000803e3d6000fd5b50506040517fffffffffffffffffffffffffffffffffffffffffffffffffffffffffffffffe001519695505050505050565b6000826128aa57506000611f55565b828202828482816128b757fe5b0414611292576040517f08c379a00000000000000000000000000000000000000000000000000000000081526004018080602001828103825260218152602001806147c96021913960400191505060405180910390fd5b600061129283836040518060400160405280601a81526020017f536166654d6174683a206469766973696f6e206279207a65726f0000000000008152506134af565b73ffffffffffffffffffffffffffffffffffffffff8316600090815260036020526040812054819061298190612a24565b90506000876129ba5761299d61299685612a24565b839061352e565b91506129b36129ab86612a24565b6000906123c1565b90506129db565b6129cd6129c685612a24565b83906123c1565b91506129d885612a24565b90505b6000806129ee8b898b60200151866135ad565b9092509050612a15612a0e633b9aca00612a0884866123c1565b90612440565b859061352e565b9b9a5050505050505050505050565b60007f8000000000000000000000000000000000000000000000000000000000000000821061256357fe5b6000606082600001516040516020018082805190602001908083835b60208310612aa857805182527fffffffffffffffffffffffffffffffffffffffffffffffffffffffffffffffe09092019160209182019101612a6b565b6001836020036101000a0380198251168184511680821785525050505050509050019150506040516020818303038152906040528051906020012083602001518460400151856060015186608001518760a001518860c00151604051602001808881526020018764ffffffffff1660d81b81526005018662ffffff1660e81b81526003018560ff1660f81b81526001018460ff1660f81b81526001018360ff1660f81b81526001018260000b60f81b8152600101975050505050505050604051602081830303815290604052905060016004811115612b8357fe5b83606001511660ff1660001415612c6b5780836101c001516040516020018083805190602001908083835b60208310612beb57805182527fffffffffffffffffffffffffffffffffffffffffffffffffffffffffffffffe09092019160209182019101612bae565b51815160209384036101000a7fffffffffffffffffffffffffffffffffffffffffffffffffffffffffffffffff01801990921691161790528551919093019285810192500280838360005b83811015612c4e578181015183820152602001612c36565b505050509050019250505060405160208183030381529060405290505b805160209091012092915050565b6000806040518060400160405280601e81526020017f19466163747369676e6572205369676e6564204d6573736167653a0a33320000815250846040516020018083805190602001908083836020831061279757805182527fffffffffffffffffffffffffffffffffffffffffffffffffffffffffffffffe0909201916020918201910161275a565b6000606082600001516040516020018082805190602001908083835b60208310612d5b57805182527fffffffffffffffffffffffffffffffffffffffffffffffffffffffffffffffe09092019160209182019101612d1e565b6001836020036101000a0380198251168184511680821785525050505050509050019150506040516020818303038152906040528051906020012083602001518460400151856060015186608001518760a001518860c001518961010001518a61018001518b6101a001518c60e00151604051602001808c81526020018b64ffffffffff1660d81b81526005018a62ffffff1660e81b81526003018960ff1660f81b81526001018860ff1660f81b81526001018760ff1660f81b81526001018660000b60f81b81526001018560ff1660f81b81526001018473ffffffffffffffffffffffffffffffffffffffff1660601b81526014018373ffffffffffffffffffffffffffffffffffffffff1660601b81526014018273ffffffffffffffffffffffffffffffffffffffff1660601b81526014019b505050505050505050505050604051602081830303815290604052905080836101200151846101400151856101600151866101c001516040516020018086805190602001908083835b60208310612f1657805182527fffffffffffffffffffffffffffffffffffffffffffffffffffffffffffffffe09092019160209182019101612ed9565b6001836020036101000a0380198251168184511680821785525050505050509050018560ff1660f81b81526001018460ff1660f81b81526001018360ff1660f81b8152600101828051906020019060200280838360005b83811015612f85578181015183820152602001612f6d565b505050509050019550505050505060405160208183030381529060405290508080519060200120915050919050565b600060606040518060600160405280602a81526020016147ea602a9139600184016006020151915050919050565b6000612fec61374e565b508251805160009081526004602052604080822090830151829190829081901561301d57505060e084015133613027565b505060e084015133905b60008060006130368c8c610a96565b929b509299509450909250905086613059578a9950505050505050505050611f55565b61306283612557565b60e08a015173ffffffffffffffffffffffffffffffffffffffff1660009081526003602052604090205561309582612557565b3360009081526003602052604090205585546130cc906130c7906fffffffffffffffffffffffffffffffff1683612567565b61366e565b86547fffffffffffffffffffffffffffffffff00000000000000000000000000000000166fffffffffffffffffffffffffffffffff91909116178655613110613737565b5073ffffffffffffffffffffffffffffffffffffffff8516600090815260068701602090815260408083208c83015161ffff16845280835292819020815180830190925254600f90810b810b810b8083526001938301939093529092916131829161317d91900b8b61352e565b61368b565b600f90810b810b835260208c8101805161ffff9081166000908152948352604080862087518154988601517fffffffffffffffffffffffffffffffff000000000000000000000000000000009099166fffffffffffffffffffffffffffffffff91880b91909116177fffffffffffffffffffffffffffffff00ffffffffffffffffffffffffffffffff1670010000000000000000000000000000000060ff998a1681029190911790915573ffffffffffffffffffffffffffffffffffffffff8c16875260068e018552818720935190921686528284529485902085518087019096525480850b850b850b80875291900490951691840191909152919261328e9161317d91900b8b6123c1565b600f90810b810b8352600160208085019182528d81015161ffff166000908152938152604080852095518654935160ff16700100000000000000000000000000000000027fffffffffffffffffffffffffffffff00ffffffffffffffffffffffffffffffff9190950b6fffffffffffffffffffffffffffffffff167fffffffffffffffffffffffffffffffff000000000000000000000000000000009094169390931792909216929092179093558a825260078901905220546133519088612567565b8660070160008a81526020019081526020016000208190555088600001518473ffffffffffffffffffffffffffffffffffffffff168673ffffffffffffffffffffffffffffffffffffffff167f7881338eb26bc3f4eb2d539721ba87c61744a77ccef589c34a5ad54af21fadf2428d602001518e606001518d8f6040516133dc959493929190614730565b60405180910390a46133ee8b886126cb565b9c9b505050505050505050505050565b600081848411156134a7576040517f08c379a00000000000000000000000000000000000000000000000000000000081526004018080602001828103825283818151815260200191508051906020019080838360005b8381101561346c578181015183820152602001613454565b50505050905090810190601f1680156134995780820380516001836020036101000a031916815260200191505b509250505060405180910390fd5b505050900390565b60008183613518576040517f08c379a000000000000000000000000000000000000000000000000000000000815260206004820181815283516024840152835190928392604490910191908501908083836000831561346c578181015183820152602001613454565b50600083858161352457fe5b0495945050505050565b60008282018183128015906135435750838112155b80613558575060008312801561355857508381125b611292576040517f08c379a00000000000000000000000000000000000000000000000000000000081526004018080602001828103825260218152602001806147a86021913960400191505060405180910390fd5b600584015473ffffffffffffffffffffffffffffffffffffffff841660009081526006860160205260408120909182917f7fffffffffffffffffffffffffffffffffffffffffffffffffffffffffffffff91829184805b83811161365c57600081815260208490526040902054600f90810b900b91508582121561362f578195505b8961ffff1681141561364857613645828a61352e565b91505b84821215613654578194505b600101613604565b50939a92995091975050505050505050565b600081826fffffffffffffffffffffffffffffffff161461256357fe5b60008182600f0b1461256357fe5b604080516060810182526000808252602082018190529181019190915290565b604080516101e08101825260608082526000602083018190529282018390528082018390526080820183905260a0820183905260c0820183905260e08201839052610100820183905261012082018390526101408201839052610160820183905261018082018390526101a08201929092526101c081019190915290565b604080518082019091526000808252602082015290565b6040805161010081018252600080825260208201819052918101829052606081018290526080810182905260a0810182905260c0810182905260e081019190915290565b828054600181600116156101000203166002900490600052602060002090601f0160209004810192826137c8576000855561380e565b82601f106137e157805160ff191683800117855561380e565b8280016001018555821561380e579182015b8281111561380e5782518255916020019190600101906137f3565b5061256392915061394b565b8280548282559060005260206000209060010160029004810192821561380e5791602002820160005b838211156138a257835183826101000a8154816fffffffffffffffffffffffffffffffff0219169083600f0b6fffffffffffffffffffffffffffffffff1602179055509260200192601001602081600f01049283019260010302613843565b80156138de5782816101000a8154906fffffffffffffffffffffffffffffffff0219169055601001602081600f010492830192600103026138a2565b505061256392915061394b565b6040518060a001604052806138fe6136b9565b815260200161390b613699565b81526000602082018190526040820181905260609091015290565b604051806040016040528061393961374e565b8152602001613946613699565b905290565b5b80821115612563576000815560010161394c565b803573ffffffffffffffffffffffffffffffffffffffff8116811461063b57600080fd5b600082601f830112613994578081fd5b81356139a76139a282614789565b614765565b8181529150602080830190848101818402860182018710156139c857600080fd5b60005b848110156139ee576139dc82613960565b845292820192908201906001016139cb565b505050505092915050565b600082601f830112613a09578081fd5b8135613a176139a282614789565b818152915060208083019084810181840286018201871015613a3857600080fd5b60005b848110156139ee57813584529282019290820190600101613a3b565b600082601f830112613a67578081fd5b8135613a756139a282614789565b818152915060208083019084810181840286018201871015613a9657600080fd5b6000805b85811015613ac457823580600f0b8114613ab2578283fd5b85529383019391830191600101613a9a565b50505050505092915050565b8035801515811461063b57600080fd5b8035600081900b811461063b57600080fd5b600082601f830112613b02578081fd5b813567ffffffffffffffff811115613b1657fe5b613b4760207fffffffffffffffffffffffffffffffffffffffffffffffffffffffffffffffe0601f84011601614765565b9150808252836020828501011115613b5e57600080fd5b8060208401602084013760009082016020015292915050565b6000818303610160811215613b8a578182fd5b6040516040810167ffffffffffffffff8282108183111715613ba857fe5b8160405282945061010080851215613bbf57600080fd5b610140840194508285108286111715613bd457fe5b8460405286358352613be860208801613cb0565b6060850152613bf960408801613ad0565b6080850152606087013560a0850152608087013560c085015260a087013560e085015260c087013581850152613c3160e08801613960565b610120850152828452613c4688828901613c56565b6020850152505050505092915050565b600060608284031215613c67578081fd5b6040516060810181811067ffffffffffffffff82111715613c8457fe5b604052905080613c9383613cea565b815260208301356020820152604083013560408201525092915050565b803561ffff8116811461063b57600080fd5b803562ffffff8116811461063b57600080fd5b803564ffffffffff8116811461063b57600080fd5b803560ff8116811461063b57600080fd5b600060208284031215613d0c578081fd5b61129282613960565b600080600060408486031215613d29578182fd5b613d3284613960565b9250602084013567ffffffffffffffff80821115613d4e578384fd5b818601915086601f830112613d61578384fd5b813581811115613d6f578485fd5b8760208083028501011115613d82578485fd5b6020830194508093505050509250925092565b60008060408385031215613da7578182fd5b613db083613960565b946020939093013593505050565b60008060408385031215613dd0578182fd5b823567ffffffffffffffff811115613de6578283fd5b8301601f81018513613df6578283fd5b8035613e046139a282614789565b80828252602080830192508085016101608a838288028901011115613e27578889fd5b8896505b85871015613e5357613e3d8b83613b77565b8552600196909601959382019390810190613e2b565b5091999701359750505050505050565b600060208284031215613e74578081fd5b5035919050565b600080600060608486031215613e8f578081fd5b83359250602084013567ffffffffffffffff80821115613ead578283fd5b613eb987838801613984565b93506040860135915080821115613ece578283fd5b50613edb868287016139f9565b9150509250925092565b600080600080600060e08688031215613efc578283fd5b85359450613f0d8760208801613c56565b93506080860135925060a086013567ffffffffffffffff80821115613f30578283fd5b613f3c89838a01613984565b935060c0880135915080821115613f51578283fd5b50613f5e888289016139f9565b9150509295509295909350565b600080600060a08486031215613f7f578081fd5b833567ffffffffffffffff80821115613f96578283fd5b81860191506101e0808389031215613fac578384fd5b613fb581614765565b9050823582811115613fc5578485fd5b613fd189828601613af2565b825250613fe060208401613cd5565b6020820152613ff160408401613cc2565b604082015261400260608401613cea565b606082015261401360808401613cea565b608082015261402460a08401613cea565b60a082015261403560c08401613ae0565b60c082015261404660e08401613960565b60e0820152610100614059818501613cea565b9082015261012061406b848201613cea565b9082015261014061407d848201613cea565b9082015261016061408f848201613cea565b908201526101806140a1848201613960565b908201526101a06140b3848201613960565b908201526101c083810135838111156140ca578586fd5b6140d68a828701613a57565b8284015250508095505050506140ee60208501613ad0565b91506140fd8560408601613c56565b90509250925092565b6000806101808385031215614119578182fd5b6141238484613b77565b94610160939093013593505050565b600060208284031215614143578081fd5b61129282613cd5565b73ffffffffffffffffffffffffffffffffffffffff169052565b6000815180845260208085019450808401835b83811015614198578151600f0b87529582019590820190600101614179565b509495945050505050565b600381106141ad57fe5b9052565b60000b9052565b60008151808452815b818110156141dd576020818501810151868301820152016141c1565b818111156141ee5782602083870101525b50601f017fffffffffffffffffffffffffffffffffffffffffffffffffffffffffffffffe0169290920160200192915050565b60006101e08251818552614237828601826141b8565b915050602083015161424c60208601826143eb565b50604083015161425f60408601826143e2565b50606083015161427260608601826143f6565b50608083015161428560808601826143f6565b5060a083015161429860a08601826143f6565b5060c08301516142ab60c08601826141b1565b5060e08301516142be60e086018261414c565b50610100808401516142d2828701826143f6565b5050610120808401516142e7828701826143f6565b5050610140808401516142fc828701826143f6565b505061016080840151614311828701826143f6565b5050610180808401516143268287018261414c565b50506101a08084015161433b8287018261414c565b50506101c080840151858303828701526143558382614166565b9695505050505050565b6000815160e0845261437460e0850182614221565b905060208301516fffffffffffffffffffffffffffffffff815116602086015261ffff6020820151166040860152604081015115156060860152506040830151608085015260608301516143cb60a08601826141a3565b506080830151151560c08501528091505092915050565b62ffffff169052565b64ffffffffff169052565b60ff169052565b6060998a1b7fffffffffffffffffffffffffffffffffffffffff0000000000000000000000009081168252601482019990995260f09790971b7fffff00000000000000000000000000000000000000000000000000000000000016603488015294151560f81b6036870152603786019390935260578501919091526077840152609783015290921b1660b782015260cb0190565b928352602083019190915260f01b7fffff00000000000000000000000000000000000000000000000000000000000016604082015260420190565b6000602080830181845280855180835260408601915060408482028701019250838701855b8281101561453d577fffffffffffffffffffffffffffffffffffffffffffffffffffffffffffffffc088860301845261452b85835161435f565b945092850192908501906001016144f1565b5092979650505050505050565b6020808252825182820181905260009190848201906040850190845b8181101561458257835183529284019291840191600101614566565b50909695505050505050565b90815260200190565b600084825264ffffffffff84166020830152606060408301526145bd60608301846141b8565b95945050505050565b60208082526017908201527f4d61726b6574206e6f742079657420736574746c65642e000000000000000000604082015260600190565b60208082526012908201527f5369676e617475726520696e76616c69642e0000000000000000000000000000604082015260600190565b60208082526015908201527f4e6f7420656e6f756768206c69717569646974792e0000000000000000000000604082015260600190565b6000602082526112926020830184614221565b600060208252611292602083018461435f565b60006060820185835260206060818501528186518084526080860191508288019350845b818110156146e25784518051600f0b845284015160ff1684840152938301936040909201916001016146b5565b50508093505050506146f760408301846141a3565b949350505050565b948552602085019390935260408401919091526060830152608082015260a00190565b918252602082015260400190565b94855261ffff93909316602085015260408401919091526060830152608082015260a00190565b60ff91909116815260200190565b60405181810167ffffffffffffffff8111828210171561478157fe5b604052919050565b600067ffffffffffffffff82111561479d57fe5b506020908102019056fe5369676e6564536166654d6174683a206164646974696f6e206f766572666c6f77536166654d6174683a206d756c7469706c69636174696f6e206f766572666c6f77000000000000000000fa7d000000003b53800000000a8c0000000001fa40000000001c200000000000005369676e6564536166654d6174683a206d756c7469706c69636174696f6e206f766572666c6f775369676e6564536166654d6174683a207375627472616374696f6e206f766572666c6f77a26469706673582212205c50adb3e0b78788c279784ac630cbcf302ec9941b2d400551e1fcd83567bd0964736f6c63430007040033",
				"opcodes": "PUSH1 0x80 PUSH1 0x40 MSTORE CALLVALUE DUP1 ISZERO PUSH2 0x10 JUMPI PUSH1 0x0 DUP1 REVERT JUMPDEST POP NUMBER PUSH1 0x1 SSTORE TIMESTAMP PUSH1 0x0 SSTORE PUSH2 0x4894 DUP1 PUSH2 0x28 PUSH1 0x0 CODECOPY PUSH1 0x0 RETURN INVALID PUSH1 0x80 PUSH1 0x40 MSTORE PUSH1 0x4 CALLDATASIZE LT PUSH2 0xE8 JUMPI PUSH1 0x0 CALLDATALOAD PUSH1 0xE0 SHR DUP1 PUSH4 0x6F1DC339 GT PUSH2 0x8A JUMPI DUP1 PUSH4 0xB145E5EE GT PUSH2 0x59 JUMPI DUP1 PUSH4 0xB145E5EE EQ PUSH2 0x27E JUMPI DUP1 PUSH4 0xC70BE146 EQ PUSH2 0x291 JUMPI DUP1 PUSH4 0xD245A559 EQ PUSH2 0x2BE JUMPI DUP1 PUSH4 0xEE1F69EB EQ PUSH2 0x2DE JUMPI PUSH2 0xE8 JUMP JUMPDEST DUP1 PUSH4 0x6F1DC339 EQ PUSH2 0x21F JUMPI DUP1 PUSH4 0x7CC1F867 EQ PUSH2 0x234 JUMPI DUP1 PUSH4 0x997402F2 EQ PUSH2 0x256 JUMPI DUP1 PUSH4 0xA1AA12B2 EQ PUSH2 0x25E JUMPI PUSH2 0xE8 JUMP JUMPDEST DUP1 PUSH4 0x20185AA2 GT PUSH2 0xC6 JUMPI DUP1 PUSH4 0x20185AA2 EQ PUSH2 0x174 JUMPI DUP1 PUSH4 0x248A2954 EQ PUSH2 0x194 JUMPI DUP1 PUSH4 0x2556D8D0 EQ PUSH2 0x1C5 JUMPI DUP1 PUSH4 0x52D02688 EQ PUSH2 0x1F2 JUMPI PUSH2 0xE8 JUMP JUMPDEST DUP1 PUSH4 0x5090E1A EQ PUSH2 0xED JUMPI DUP1 PUSH4 0x95200CE EQ PUSH2 0x10F JUMPI DUP1 PUSH4 0x19018BDB EQ PUSH2 0x145 JUMPI JUMPDEST PUSH1 0x0 DUP1 REVERT JUMPDEST CALLVALUE DUP1 ISZERO PUSH2 0xF9 JUMPI PUSH1 0x0 DUP1 REVERT JUMPDEST POP PUSH2 0x10D PUSH2 0x108 CALLDATASIZE PUSH1 0x4 PUSH2 0x3E7B JUMP JUMPDEST PUSH2 0x30B JUMP JUMPDEST STOP JUMPDEST CALLVALUE DUP1 ISZERO PUSH2 0x11B JUMPI PUSH1 0x0 DUP1 REVERT JUMPDEST POP PUSH2 0x12F PUSH2 0x12A CALLDATASIZE PUSH1 0x4 PUSH2 0x4132 JUMP JUMPDEST PUSH2 0x62D JUMP JUMPDEST PUSH1 0x40 MLOAD PUSH2 0x13C SWAP2 SWAP1 PUSH2 0x4757 JUMP JUMPDEST PUSH1 0x40 MLOAD DUP1 SWAP2 SUB SWAP1 RETURN JUMPDEST CALLVALUE DUP1 ISZERO PUSH2 0x151 JUMPI PUSH1 0x0 DUP1 REVERT JUMPDEST POP PUSH2 0x165 PUSH2 0x160 CALLDATASIZE PUSH1 0x4 PUSH2 0x3E63 JUMP JUMPDEST PUSH2 0x640 JUMP JUMPDEST PUSH1 0x40 MLOAD PUSH2 0x13C SWAP4 SWAP3 SWAP2 SWAP1 PUSH2 0x4691 JUMP JUMPDEST CALLVALUE DUP1 ISZERO PUSH2 0x180 JUMPI PUSH1 0x0 DUP1 REVERT JUMPDEST POP PUSH2 0x10D PUSH2 0x18F CALLDATASIZE PUSH1 0x4 PUSH2 0x3E63 JUMP JUMPDEST PUSH2 0x99E JUMP JUMPDEST CALLVALUE DUP1 ISZERO PUSH2 0x1A0 JUMPI PUSH1 0x0 DUP1 REVERT JUMPDEST POP PUSH2 0x1B4 PUSH2 0x1AF CALLDATASIZE PUSH1 0x4 PUSH2 0x4106 JUMP JUMPDEST PUSH2 0xA96 JUMP JUMPDEST PUSH1 0x40 MLOAD PUSH2 0x13C SWAP6 SWAP5 SWAP4 SWAP3 SWAP2 SWAP1 PUSH2 0x46FF JUMP JUMPDEST CALLVALUE DUP1 ISZERO PUSH2 0x1D1 JUMPI PUSH1 0x0 DUP1 REVERT JUMPDEST POP PUSH2 0x1E5 PUSH2 0x1E0 CALLDATASIZE PUSH1 0x4 PUSH2 0x3F6B JUMP JUMPDEST PUSH2 0xCD9 JUMP JUMPDEST PUSH1 0x40 MLOAD PUSH2 0x13C SWAP2 SWAP1 PUSH2 0x458E JUMP JUMPDEST CALLVALUE DUP1 ISZERO PUSH2 0x1FE JUMPI PUSH1 0x0 DUP1 REVERT JUMPDEST POP PUSH2 0x212 PUSH2 0x20D CALLDATASIZE PUSH1 0x4 PUSH2 0x3D15 JUMP JUMPDEST PUSH2 0x1299 JUMP JUMPDEST PUSH1 0x40 MLOAD PUSH2 0x13C SWAP2 SWAP1 PUSH2 0x44CC JUMP JUMPDEST CALLVALUE DUP1 ISZERO PUSH2 0x22B JUMPI PUSH1 0x0 DUP1 REVERT JUMPDEST POP PUSH2 0x1E5 PUSH2 0x133D JUMP JUMPDEST CALLVALUE DUP1 ISZERO PUSH2 0x240 JUMPI PUSH1 0x0 DUP1 REVERT JUMPDEST POP PUSH2 0x249 PUSH2 0x1350 JUMP JUMPDEST PUSH1 0x40 MLOAD PUSH2 0x13C SWAP2 SWAP1 PUSH2 0x454A JUMP JUMPDEST PUSH2 0x10D PUSH2 0x146B JUMP JUMPDEST CALLVALUE DUP1 ISZERO PUSH2 0x26A JUMPI PUSH1 0x0 DUP1 REVERT JUMPDEST POP PUSH2 0x10D PUSH2 0x279 CALLDATASIZE PUSH1 0x4 PUSH2 0x3EE5 JUMP JUMPDEST PUSH2 0x14DC JUMP JUMPDEST PUSH2 0x10D PUSH2 0x28C CALLDATASIZE PUSH1 0x4 PUSH2 0x3CFB JUMP JUMPDEST PUSH2 0x1BB9 JUMP JUMPDEST CALLVALUE DUP1 ISZERO PUSH2 0x29D JUMPI PUSH1 0x0 DUP1 REVERT JUMPDEST POP PUSH2 0x2B1 PUSH2 0x2AC CALLDATASIZE PUSH1 0x4 PUSH2 0x3D95 JUMP JUMPDEST PUSH2 0x1C4E JUMP JUMPDEST PUSH1 0x40 MLOAD PUSH2 0x13C SWAP2 SWAP1 PUSH2 0x467E JUMP JUMPDEST CALLVALUE DUP1 ISZERO PUSH2 0x2CA JUMPI PUSH1 0x0 DUP1 REVERT JUMPDEST POP PUSH2 0x10D PUSH2 0x2D9 CALLDATASIZE PUSH1 0x4 PUSH2 0x3DBE JUMP JUMPDEST PUSH2 0x1F5B JUMP JUMPDEST CALLVALUE DUP1 ISZERO PUSH2 0x2EA JUMPI PUSH1 0x0 DUP1 REVERT JUMPDEST POP PUSH2 0x2FE PUSH2 0x2F9 CALLDATASIZE PUSH1 0x4 PUSH2 0x3E63 JUMP JUMPDEST PUSH2 0x1F9F JUMP JUMPDEST PUSH1 0x40 MLOAD PUSH2 0x13C SWAP2 SWAP1 PUSH2 0x466B JUMP JUMPDEST PUSH1 0x0 DUP4 DUP2 MSTORE PUSH1 0x4 PUSH1 0x20 MSTORE PUSH1 0x40 SWAP1 KECCAK256 PUSH2 0x321 PUSH2 0x3699 JUMP JUMPDEST POP PUSH1 0x40 DUP1 MLOAD PUSH1 0x60 DUP2 ADD DUP3 MSTORE DUP3 SLOAD PUSH16 0xFFFFFFFFFFFFFFFFFFFFFFFFFFFFFFFF DUP2 AND DUP3 MSTORE PUSH17 0x100000000000000000000000000000000 DUP2 DIV PUSH2 0xFFFF AND PUSH1 0x20 DUP4 ADD DUP2 SWAP1 MSTORE PUSH19 0x1000000000000000000000000000000000000 SWAP1 SWAP2 DIV PUSH1 0xFF AND ISZERO ISZERO SWAP3 DUP3 ADD DUP4 SWAP1 MSTORE SWAP1 SWAP2 PUSH1 0x1 EQ PUSH2 0x3C8 JUMPI PUSH1 0x40 MLOAD PUSH32 0x8C379A000000000000000000000000000000000000000000000000000000000 DUP2 MSTORE PUSH1 0x4 ADD PUSH2 0x3BF SWAP1 PUSH2 0x45C6 JUMP JUMPDEST PUSH1 0x40 MLOAD DUP1 SWAP2 SUB SWAP1 REVERT JUMPDEST PUSH1 0x0 DUP1 JUMPDEST DUP7 MLOAD DUP3 LT ISZERO PUSH2 0x623 JUMPI PUSH1 0x0 DUP8 DUP4 DUP2 MLOAD DUP2 LT PUSH2 0x3E3 JUMPI INVALID JUMPDEST PUSH1 0x20 MUL PUSH1 0x20 ADD ADD MLOAD SWAP1 POP PUSH1 0x2 DUP1 DUP2 GT ISZERO PUSH2 0x3F9 JUMPI INVALID JUMPDEST PUSH2 0x403 DUP3 DUP9 PUSH2 0x2206 JUMP JUMPDEST PUSH1 0x2 DUP2 GT ISZERO PUSH2 0x40E JUMPI INVALID JUMPDEST EQ PUSH2 0x617 JUMPI PUSH2 0x41D DUP7 DUP3 PUSH2 0x232F JUMP JUMPDEST PUSH20 0xFFFFFFFFFFFFFFFFFFFFFFFFFFFFFFFFFFFFFFFF DUP3 AND PUSH1 0x0 SWAP1 DUP2 MSTORE PUSH1 0x6 DUP9 ADD PUSH1 0x20 SWAP1 DUP2 MSTORE PUSH1 0x40 DUP1 DUP4 KECCAK256 PUSH2 0xFFFF DUP10 AND DUP5 MSTORE SWAP1 SWAP2 MSTORE DUP2 KECCAK256 SLOAD SWAP2 SWAP4 POP PUSH1 0xF SWAP2 DUP3 SIGNEXTEND SWAP1 SWAP2 SIGNEXTEND SWAP1 PUSH2 0x46A DUP3 DUP6 PUSH2 0x23C1 JUMP JUMPDEST PUSH20 0xFFFFFFFFFFFFFFFFFFFFFFFFFFFFFFFFFFFFFFFF DUP5 AND PUSH1 0x0 SWAP1 DUP2 MSTORE PUSH1 0x6 DUP11 ADD PUSH1 0x20 SWAP1 DUP2 MSTORE PUSH1 0x40 DUP1 DUP4 KECCAK256 PUSH2 0xFFFF DUP12 AND DUP5 MSTORE SWAP1 SWAP2 MSTORE SWAP1 KECCAK256 DUP1 SLOAD PUSH32 0xFFFFFFFFFFFFFFFFFFFFFFFFFFFFFF00FFFFFFFFFFFFFFFFFFFFFFFFFFFFFFFF AND PUSH17 0x200000000000000000000000000000000 OR SWAP1 SSTORE SWAP1 POP PUSH2 0x520 PUSH2 0x4F4 PUSH2 0x4EF DUP4 PUSH4 0x3B9ACA00 PUSH2 0x2440 JUMP JUMPDEST PUSH2 0x2557 JUMP JUMPDEST PUSH20 0xFFFFFFFFFFFFFFFFFFFFFFFFFFFFFFFFFFFFFFFF DUP6 AND PUSH1 0x0 SWAP1 DUP2 MSTORE PUSH1 0x3 PUSH1 0x20 MSTORE PUSH1 0x40 SWAP1 KECCAK256 SLOAD SWAP1 PUSH2 0x2567 JUMP JUMPDEST PUSH20 0xFFFFFFFFFFFFFFFFFFFFFFFFFFFFFFFFFFFFFFFF DUP5 AND PUSH1 0x0 SWAP1 DUP2 MSTORE PUSH1 0x3 PUSH1 0x20 MSTORE PUSH1 0x40 DUP2 KECCAK256 SWAP2 SWAP1 SWAP2 SSTORE DUP3 SLT PUSH2 0x5B2 JUMPI DUP11 DUP4 PUSH20 0xFFFFFFFFFFFFFFFFFFFFFFFFFFFFFFFFFFFFFFFF AND PUSH1 0x0 PUSH32 0x7881338EB26BC3F4EB2D539721BA87C61744A77CCEF589C34A5AD54AF21FADF2 TIMESTAMP DUP11 PUSH1 0x9 PUSH1 0xA EXP DUP9 PUSH1 0x0 PUSH1 0x40 MLOAD PUSH2 0x5A5 SWAP6 SWAP5 SWAP4 SWAP3 SWAP2 SWAP1 PUSH2 0x4730 JUMP JUMPDEST PUSH1 0x40 MLOAD DUP1 SWAP2 SUB SWAP1 LOG4 PUSH2 0x614 JUMP JUMPDEST DUP11 PUSH1 0x0 DUP5 PUSH20 0xFFFFFFFFFFFFFFFFFFFFFFFFFFFFFFFFFFFFFFFF AND PUSH32 0x7881338EB26BC3F4EB2D539721BA87C61744A77CCEF589C34A5AD54AF21FADF2 TIMESTAMP DUP11 PUSH1 0x9 PUSH1 0xA EXP DUP9 PUSH1 0x0 SUB PUSH1 0x0 PUSH1 0x40 MLOAD PUSH2 0x60B SWAP6 SWAP5 SWAP4 SWAP3 SWAP2 SWAP1 PUSH2 0x4730 JUMP JUMPDEST PUSH1 0x40 MLOAD DUP1 SWAP2 SUB SWAP1 LOG4 JUMPDEST POP POP JUMPDEST POP PUSH1 0x1 SWAP1 SWAP2 ADD SWAP1 PUSH2 0x3CC JUMP JUMPDEST POP POP POP POP POP POP POP POP JUMP JUMPDEST PUSH1 0x0 PUSH2 0x638 DUP3 PUSH2 0x25DB JUMP JUMPDEST SWAP1 POP JUMPDEST SWAP2 SWAP1 POP JUMP JUMPDEST PUSH1 0x0 DUP2 DUP2 MSTORE PUSH1 0x4 PUSH1 0x20 MSTORE PUSH1 0x40 DUP2 KECCAK256 PUSH1 0x60 SWAP1 DUP3 SWAP1 PUSH2 0x65B PUSH2 0x36B9 JUMP JUMPDEST DUP2 PUSH1 0x1 ADD PUSH1 0x40 MLOAD DUP1 PUSH2 0x1E0 ADD PUSH1 0x40 MSTORE SWAP1 DUP2 PUSH1 0x0 DUP3 ADD DUP1 SLOAD PUSH1 0x1 DUP2 PUSH1 0x1 AND ISZERO PUSH2 0x100 MUL SUB AND PUSH1 0x2 SWAP1 DIV DUP1 PUSH1 0x1F ADD PUSH1 0x20 DUP1 SWAP2 DIV MUL PUSH1 0x20 ADD PUSH1 0x40 MLOAD SWAP1 DUP2 ADD PUSH1 0x40 MSTORE DUP1 SWAP3 SWAP2 SWAP1 DUP2 DUP2 MSTORE PUSH1 0x20 ADD DUP3 DUP1 SLOAD PUSH1 0x1 DUP2 PUSH1 0x1 AND ISZERO PUSH2 0x100 MUL SUB AND PUSH1 0x2 SWAP1 DIV DUP1 ISZERO PUSH2 0x704 JUMPI DUP1 PUSH1 0x1F LT PUSH2 0x6D9 JUMPI PUSH2 0x100 DUP1 DUP4 SLOAD DIV MUL DUP4 MSTORE SWAP2 PUSH1 0x20 ADD SWAP2 PUSH2 0x704 JUMP JUMPDEST DUP3 ADD SWAP2 SWAP1 PUSH1 0x0 MSTORE PUSH1 0x20 PUSH1 0x0 KECCAK256 SWAP1 JUMPDEST DUP2 SLOAD DUP2 MSTORE SWAP1 PUSH1 0x1 ADD SWAP1 PUSH1 0x20 ADD DUP1 DUP4 GT PUSH2 0x6E7 JUMPI DUP3 SWAP1 SUB PUSH1 0x1F AND DUP3 ADD SWAP2 JUMPDEST POP POP POP SWAP2 DUP4 MSTORE POP POP PUSH1 0x1 DUP3 ADD SLOAD PUSH5 0xFFFFFFFFFF DUP2 AND PUSH1 0x20 DUP1 DUP5 ADD SWAP2 SWAP1 SWAP2 MSTORE PUSH3 0xFFFFFF PUSH6 0x10000000000 DUP4 DIV AND PUSH1 0x40 DUP1 DUP6 ADD SWAP2 SWAP1 SWAP2 MSTORE PUSH1 0xFF PUSH9 0x10000000000000000 DUP5 DIV DUP2 AND PUSH1 0x60 DUP7 ADD MSTORE PUSH10 0x1000000000000000000 DUP5 DIV DUP2 AND PUSH1 0x80 DUP7 ADD MSTORE PUSH11 0x100000000000000000000 DUP5 DIV DUP2 AND PUSH1 0xA0 DUP7 ADD MSTORE PUSH12 0x10000000000000000000000 DUP5 DIV PUSH1 0x0 SWAP1 DUP2 SIGNEXTEND DUP2 SIGNEXTEND SWAP1 SIGNEXTEND PUSH1 0xC0 DUP7 ADD MSTORE PUSH20 0xFFFFFFFFFFFFFFFFFFFFFFFFFFFFFFFFFFFFFFFF PUSH13 0x1000000000000000000000000 SWAP1 SWAP5 DIV DUP5 AND PUSH1 0xE0 DUP7 ADD MSTORE PUSH1 0x2 DUP7 ADD SLOAD DUP1 DUP3 AND PUSH2 0x100 DUP1 DUP9 ADD SWAP2 SWAP1 SWAP2 MSTORE DUP2 DIV DUP3 AND PUSH2 0x120 DUP8 ADD MSTORE PUSH3 0x10000 DUP2 DIV DUP3 AND PUSH2 0x140 DUP8 ADD MSTORE PUSH4 0x1000000 DUP2 DIV SWAP1 SWAP2 AND PUSH2 0x160 DUP7 ADD MSTORE PUSH5 0x100000000 SWAP1 DIV DUP4 AND PUSH2 0x180 DUP6 ADD MSTORE PUSH1 0x3 DUP6 ADD SLOAD SWAP1 SWAP3 AND PUSH2 0x1A0 DUP5 ADD MSTORE PUSH1 0x4 DUP5 ADD DUP1 SLOAD DUP4 MLOAD DUP2 DUP5 MUL DUP2 ADD DUP5 ADD SWAP1 SWAP5 MSTORE DUP1 DUP5 MSTORE PUSH2 0x1C0 SWAP1 SWAP5 ADD SWAP4 SWAP1 SWAP2 DUP4 ADD DUP3 DUP3 DUP1 ISZERO PUSH2 0x88C JUMPI PUSH1 0x20 MUL DUP3 ADD SWAP2 SWAP1 PUSH1 0x0 MSTORE PUSH1 0x20 PUSH1 0x0 KECCAK256 SWAP1 PUSH1 0x0 SWAP1 JUMPDEST DUP3 DUP3 SWAP1 SLOAD SWAP1 PUSH2 0x100 EXP SWAP1 DIV PUSH1 0xF SIGNEXTEND PUSH1 0xF SIGNEXTEND DUP2 MSTORE PUSH1 0x20 ADD SWAP1 PUSH1 0x10 ADD SWAP1 PUSH1 0x20 DUP3 PUSH1 0xF ADD DIV SWAP3 DUP4 ADD SWAP3 PUSH1 0x1 SUB DUP3 MUL SWAP2 POP DUP1 DUP5 GT PUSH2 0x855 JUMPI SWAP1 POP JUMPDEST POP POP POP POP POP DUP2 MSTORE POP POP SWAP1 POP DUP1 PUSH2 0x1C0 ADD MLOAD MLOAD PUSH1 0x1 ADD PUSH8 0xFFFFFFFFFFFFFFFF DUP2 GT DUP1 ISZERO PUSH2 0x8B7 JUMPI PUSH1 0x0 DUP1 REVERT JUMPDEST POP PUSH1 0x40 MLOAD SWAP1 DUP1 DUP3 MSTORE DUP1 PUSH1 0x20 MUL PUSH1 0x20 ADD DUP3 ADD PUSH1 0x40 MSTORE DUP1 ISZERO PUSH2 0x8F1 JUMPI DUP2 PUSH1 0x20 ADD JUMPDEST PUSH2 0x8DE PUSH2 0x3737 JUMP JUMPDEST DUP2 MSTORE PUSH1 0x20 ADD SWAP1 PUSH1 0x1 SWAP1 SUB SWAP1 DUP2 PUSH2 0x8D6 JUMPI SWAP1 POP JUMPDEST POP SWAP4 POP PUSH1 0x0 JUMPDEST DUP2 PUSH2 0x1C0 ADD MLOAD MLOAD DUP2 GT PUSH2 0x971 JUMPI CALLER PUSH1 0x0 SWAP1 DUP2 MSTORE PUSH1 0x6 DUP5 ADD PUSH1 0x20 SWAP1 DUP2 MSTORE PUSH1 0x40 DUP1 DUP4 KECCAK256 DUP5 DUP5 MSTORE DUP3 MSTORE SWAP2 DUP3 SWAP1 KECCAK256 DUP3 MLOAD DUP1 DUP5 ADD SWAP1 SWAP4 MSTORE SLOAD PUSH1 0xF DUP2 DUP2 SIGNEXTEND DUP2 SIGNEXTEND SWAP1 SIGNEXTEND DUP4 MSTORE PUSH17 0x100000000000000000000000000000000 SWAP1 DIV PUSH1 0xFF AND SWAP1 DUP3 ADD MSTORE DUP6 MLOAD DUP7 SWAP1 DUP4 SWAP1 DUP2 LT PUSH2 0x95E JUMPI INVALID JUMPDEST PUSH1 0x20 SWAP1 DUP2 MUL SWAP2 SWAP1 SWAP2 ADD ADD MSTORE PUSH1 0x1 ADD PUSH2 0x8F7 JUMP JUMPDEST POP CALLER PUSH1 0x0 DUP2 DUP2 MSTORE PUSH1 0x3 PUSH1 0x20 MSTORE PUSH1 0x40 SWAP1 KECCAK256 SLOAD SWAP1 DUP6 SWAP1 PUSH2 0x98F SWAP1 DUP6 PUSH2 0x2206 JUMP JUMPDEST SWAP5 POP SWAP5 POP SWAP5 POP POP POP SWAP2 SWAP4 SWAP1 SWAP3 POP JUMP JUMPDEST CALLER PUSH1 0x0 SWAP1 DUP2 MSTORE PUSH1 0x3 PUSH1 0x20 MSTORE PUSH1 0x40 SWAP1 KECCAK256 SLOAD DUP2 GT ISZERO PUSH2 0x9E7 JUMPI PUSH1 0x40 MLOAD PUSH32 0x8C379A000000000000000000000000000000000000000000000000000000000 DUP2 MSTORE PUSH1 0x4 ADD PUSH2 0x3BF SWAP1 PUSH2 0x4634 JUMP JUMPDEST CALLER PUSH1 0x0 SWAP1 DUP2 MSTORE PUSH1 0x3 PUSH1 0x20 MSTORE PUSH1 0x40 SWAP1 KECCAK256 SLOAD PUSH2 0xA01 SWAP1 DUP3 PUSH2 0x26CB JUMP JUMPDEST CALLER PUSH1 0x0 DUP2 DUP2 MSTORE PUSH1 0x3 PUSH1 0x20 MSTORE PUSH1 0x40 DUP1 DUP3 KECCAK256 SWAP4 SWAP1 SWAP4 SSTORE SWAP2 MLOAD SWAP1 SWAP2 DUP4 ISZERO PUSH2 0x8FC MUL SWAP2 DUP5 SWAP2 DUP2 DUP2 DUP2 DUP6 DUP9 DUP9 CALL SWAP4 POP POP POP POP ISZERO DUP1 ISZERO PUSH2 0xA3F JUMPI RETURNDATASIZE PUSH1 0x0 DUP1 RETURNDATACOPY RETURNDATASIZE PUSH1 0x0 REVERT JUMPDEST POP CALLER PUSH20 0xFFFFFFFFFFFFFFFFFFFFFFFFFFFFFFFFFFFFFFFF AND PUSH32 0x6E2EEC282B5765F3A053054D83D425D0E03E1003BB2740D41C1FCE6D4A0D74F7 TIMESTAMP DUP4 PUSH1 0x0 SUB PUSH1 0x40 MLOAD PUSH2 0xA8B SWAP3 SWAP2 SWAP1 PUSH2 0x4722 JUMP JUMPDEST PUSH1 0x40 MLOAD DUP1 SWAP2 SUB SWAP1 LOG2 POP JUMP JUMPDEST PUSH1 0x0 DUP1 PUSH1 0x0 DUP1 PUSH1 0x0 PUSH2 0xAA6 PUSH2 0x374E JUMP JUMPDEST POP DUP7 MLOAD DUP1 MLOAD PUSH1 0x0 SWAP1 DUP2 MSTORE PUSH1 0x4 PUSH1 0x20 SWAP1 DUP2 MSTORE PUSH1 0x40 SWAP2 DUP3 SWAP1 KECCAK256 DUP4 MLOAD DUP3 DUP6 ADD MLOAD DUP5 DUP7 ADD MLOAD PUSH1 0x60 DUP8 ADD MLOAD PUSH1 0x80 DUP9 ADD MLOAD PUSH1 0xA0 DUP10 ADD MLOAD PUSH1 0xC0 DUP11 ADD MLOAD PUSH1 0xE0 DUP12 ADD MLOAD SWAP10 MLOAD SWAP8 SWAP10 PUSH2 0xAF0 SWAP10 ADDRESS SWAP10 ADD PUSH2 0x43FD JUMP JUMPDEST PUSH1 0x40 MLOAD PUSH1 0x20 DUP2 DUP4 SUB SUB DUP2 MSTORE SWAP1 PUSH1 0x40 MSTORE DUP1 MLOAD SWAP1 PUSH1 0x20 ADD KECCAK256 SWAP6 POP DUP2 PUSH1 0xE0 ADD MLOAD PUSH20 0xFFFFFFFFFFFFFFFFFFFFFFFFFFFFFFFFFFFFFFFF AND PUSH2 0xB31 DUP8 DUP12 PUSH1 0x20 ADD MLOAD PUSH2 0x270D JUMP JUMPDEST PUSH20 0xFFFFFFFFFFFFFFFFFFFFFFFFFFFFFFFFFFFFFFFF AND EQ PUSH2 0xB55 JUMPI PUSH1 0x0 SWAP8 POP PUSH2 0xB9D JUMP JUMPDEST PUSH1 0x80 DUP3 ADD MLOAD PUSH1 0x0 DUP8 DUP2 MSTORE PUSH1 0x7 DUP4 ADD PUSH1 0x20 MSTORE PUSH1 0x40 SWAP1 KECCAK256 SLOAD PUSH2 0xB75 SWAP1 DUP11 PUSH2 0x2567 JUMP JUMPDEST GT ISZERO PUSH2 0xB9D JUMPI PUSH1 0x0 DUP7 DUP2 MSTORE PUSH1 0x7 DUP3 ADD PUSH1 0x20 MSTORE PUSH1 0x40 SWAP1 KECCAK256 SLOAD PUSH1 0x80 DUP4 ADD MLOAD PUSH2 0xB9A SWAP2 PUSH2 0x26CB JUMP JUMPDEST SWAP8 POP JUMPDEST PUSH1 0x0 PUSH2 0xBB6 DUP4 PUSH1 0x60 ADD MLOAD DUP11 PUSH2 0x289B SWAP1 SWAP2 SWAP1 PUSH4 0xFFFFFFFF AND JUMP JUMPDEST PUSH1 0x3 DUP4 ADD SLOAD SWAP1 SWAP2 POP PUSH2 0xC02 SWAP1 PUSH2 0xBF0 SWAP1 PUSH1 0xFF PUSH4 0x1000000 DUP3 DIV DUP2 AND SWAP2 PUSH2 0xBEA SWAP2 PUSH2 0x100 DUP3 DIV DUP2 AND SWAP2 PUSH3 0x10000 SWAP1 DIV AND PUSH2 0x2567 JUMP JUMPDEST SWAP1 PUSH2 0x2567 JUMP JUMPDEST PUSH2 0xBFC DUP4 PUSH2 0x2710 PUSH2 0x290E JUMP JUMPDEST SWAP1 PUSH2 0x289B JUMP JUMPDEST SWAP4 POP PUSH2 0xC1A DUP3 DUP5 PUSH1 0x40 ADD MLOAD DUP6 DUP7 PUSH1 0xE0 ADD MLOAD DUP14 DUP7 PUSH2 0x2950 JUMP JUMPDEST SWAP6 POP PUSH2 0xC41 PUSH2 0xC28 DUP6 PUSH2 0x2A24 JUMP JUMPDEST PUSH2 0xC3B DUP5 DUP7 PUSH1 0x40 ADD MLOAD ISZERO DUP8 CALLER DUP16 DUP9 PUSH2 0x2950 JUMP JUMPDEST SWAP1 PUSH2 0x23C1 JUMP JUMPDEST PUSH1 0x5 DUP4 ADD SLOAD PUSH1 0x20 DUP6 ADD MLOAD SWAP2 SWAP7 POP PUSH2 0xFFFF SWAP1 SWAP2 AND GT DUP1 ISZERO SWAP1 PUSH2 0xC66 JUMPI POP DUP3 PUSH1 0xC0 ADD MLOAD NUMBER GT ISZERO JUMPDEST DUP1 ISZERO PUSH2 0xC80 JUMPI POP PUSH1 0xC0 DUP4 ADD MLOAD PUSH2 0xC7D NUMBER PUSH1 0xC PUSH2 0x2567 JUMP JUMPDEST LT ISZERO JUMPDEST DUP1 ISZERO PUSH2 0xCA6 JUMPI POP PUSH1 0xE0 DUP4 ADD MLOAD PUSH20 0xFFFFFFFFFFFFFFFFFFFFFFFFFFFFFFFFFFFFFFFF AND CALLER EQ ISZERO JUMPDEST DUP1 ISZERO PUSH2 0xCB3 JUMPI POP PUSH1 0x0 DUP7 SLT ISZERO JUMPDEST DUP1 ISZERO PUSH2 0xCC0 JUMPI POP PUSH1 0x0 DUP6 SLT ISZERO JUMPDEST PUSH2 0xCC9 JUMPI PUSH1 0x0 SWAP9 POP JUMPDEST DUP9 SWAP8 POP POP POP POP SWAP3 SWAP6 POP SWAP3 SWAP6 SWAP1 SWAP4 POP JUMP JUMPDEST PUSH1 0x0 DUP4 PUSH1 0x20 ADD MLOAD PUSH5 0xFFFFFFFFFF AND PUSH1 0x0 EQ ISZERO PUSH2 0xCF1 JUMPI INVALID JUMPDEST PUSH1 0x0 PUSH2 0xCFC DUP6 PUSH2 0x2A4F JUMP JUMPDEST SWAP1 POP DUP5 PUSH1 0xE0 ADD MLOAD PUSH20 0xFFFFFFFFFFFFFFFFFFFFFFFFFFFFFFFFFFFFFFFF AND PUSH2 0xD23 DUP3 DUP6 PUSH2 0x2C79 JUMP JUMPDEST PUSH20 0xFFFFFFFFFFFFFFFFFFFFFFFFFFFFFFFFFFFFFFFF AND EQ PUSH2 0xD70 JUMPI PUSH1 0x40 MLOAD PUSH32 0x8C379A000000000000000000000000000000000000000000000000000000000 DUP2 MSTORE PUSH1 0x4 ADD PUSH2 0x3BF SWAP1 PUSH2 0x45FD JUMP JUMPDEST PUSH2 0xD79 DUP6 PUSH2 0x2D02 JUMP JUMPDEST PUSH1 0x0 DUP2 DUP2 MSTORE PUSH1 0x4 PUSH1 0x20 MSTORE PUSH1 0x40 SWAP1 KECCAK256 PUSH1 0x2 ADD SLOAD SWAP1 SWAP3 POP PUSH5 0xFFFFFFFFFF AND ISZERO SWAP1 POP PUSH2 0xDA1 JUMPI PUSH2 0x1292 JUMP JUMPDEST DUP4 PUSH1 0xA0 ADD MLOAD PUSH1 0xFF AND PUSH1 0x12 EQ PUSH2 0xDB2 JUMPI INVALID JUMPDEST PUSH1 0x40 DUP5 PUSH1 0x80 ADD MLOAD PUSH1 0xFF AND LT PUSH2 0xDC3 JUMPI INVALID JUMPDEST PUSH1 0x60 DUP5 ADD MLOAD PUSH1 0x0 SWAP1 PUSH1 0x1 AND ISZERO PUSH2 0xEC9 JUMPI PUSH1 0x0 DUP6 PUSH2 0x1C0 ADD MLOAD MLOAD GT PUSH2 0xDE3 JUMPI INVALID JUMPDEST PUSH2 0x7FFD DUP6 PUSH2 0x1C0 ADD MLOAD MLOAD LT PUSH2 0xDF4 JUMPI INVALID JUMPDEST POP PUSH1 0x1 JUMPDEST DUP5 PUSH2 0x1C0 ADD MLOAD MLOAD DUP2 LT ISZERO PUSH2 0xE50 JUMPI DUP5 PUSH2 0x1C0 ADD MLOAD DUP2 DUP2 MLOAD DUP2 LT PUSH2 0xE17 JUMPI INVALID JUMPDEST PUSH1 0x20 MUL PUSH1 0x20 ADD ADD MLOAD PUSH1 0xF SIGNEXTEND DUP6 PUSH2 0x1C0 ADD MLOAD PUSH1 0x1 DUP4 SUB DUP2 MLOAD DUP2 LT PUSH2 0xE36 JUMPI INVALID JUMPDEST PUSH1 0x20 MUL PUSH1 0x20 ADD ADD MLOAD PUSH1 0xF SIGNEXTEND SLT PUSH2 0xE48 JUMPI INVALID JUMPDEST PUSH1 0x1 ADD PUSH2 0xDF8 JUMP JUMPDEST DUP5 PUSH1 0xC0 ADD MLOAD PUSH1 0x0 SIGNEXTEND DUP6 PUSH1 0xA0 ADD MLOAD PUSH1 0xFF AND PUSH1 0x1 SIGNEXTEND SLT ISZERO PUSH2 0xE6B JUMPI INVALID JUMPDEST POP PUSH1 0x0 JUMPDEST DUP5 PUSH2 0x1C0 ADD MLOAD MLOAD DUP2 LT ISZERO PUSH2 0xEC4 JUMPI DUP5 PUSH1 0xC0 ADD MLOAD PUSH1 0x0 SIGNEXTEND DUP6 PUSH1 0xA0 ADD MLOAD PUSH1 0xFF AND SUB PUSH1 0xA EXP DUP6 PUSH2 0x1C0 ADD MLOAD DUP3 DUP2 MLOAD DUP2 LT PUSH2 0xEA2 JUMPI INVALID JUMPDEST PUSH1 0x20 MUL PUSH1 0x20 ADD ADD MLOAD PUSH1 0xF SIGNEXTEND DUP2 PUSH2 0xEB4 JUMPI INVALID JUMPDEST SMOD ISZERO PUSH2 0xEBC JUMPI INVALID JUMPDEST PUSH1 0x1 ADD PUSH2 0xE6F JUMP JUMPDEST PUSH2 0xEEB JUMP JUMPDEST PUSH1 0x1 DUP6 PUSH2 0x1C0 ADD MLOAD MLOAD GT PUSH2 0xED9 JUMPI INVALID JUMPDEST PUSH2 0x7FFD DUP6 PUSH2 0x1C0 ADD MLOAD MLOAD GT ISZERO PUSH2 0xEEB JUMPI INVALID JUMPDEST PUSH1 0x20 DUP6 PUSH1 0x80 ADD MLOAD PUSH1 0xFF AND LT PUSH2 0xEFC JUMPI INVALID JUMPDEST PUSH1 0x0 DUP6 PUSH1 0x80 ADD MLOAD PUSH1 0x8 MUL PUSH1 0xFF AND DUP7 PUSH2 0x100 ADD MLOAD PUSH1 0xFF AND PUSH1 0x1 SWAP1 SHL SWAP1 SHL SWAP1 POP DUP1 PUSH1 0x2 SLOAD AND PUSH1 0x0 EQ ISZERO PUSH2 0xF30 JUMPI PUSH1 0x2 DUP1 SLOAD DUP3 OR SWAP1 SSTORE JUMPDEST PUSH1 0x0 PUSH2 0xF3F DUP8 PUSH1 0x20 ADD MLOAD PUSH2 0x25DB JUMP JUMPDEST PUSH1 0x60 DUP9 ADD MLOAD SWAP1 SWAP2 POP PUSH1 0x4 AND ISZERO PUSH2 0xF68 JUMPI DUP1 PUSH1 0xFF AND DUP8 PUSH2 0x100 ADD MLOAD PUSH1 0xFF AND EQ PUSH2 0xF63 JUMPI INVALID JUMPDEST PUSH2 0xF78 JUMP JUMPDEST PUSH2 0x100 DUP8 ADD MLOAD PUSH1 0xFF AND ISZERO PUSH2 0xF78 JUMPI INVALID JUMPDEST PUSH1 0x0 DUP5 DUP2 MSTORE PUSH1 0x4 PUSH1 0x20 SWAP1 DUP2 MSTORE PUSH1 0x40 SWAP1 SWAP2 KECCAK256 DUP9 MLOAD DUP1 MLOAD DUP11 SWAP4 PUSH1 0x1 SWAP1 SWAP4 ADD SWAP3 PUSH2 0xFA3 SWAP3 DUP5 SWAP3 SWAP2 ADD SWAP1 PUSH2 0x3792 JUMP JUMPDEST POP PUSH1 0x20 DUP3 ADD MLOAD DUP2 PUSH1 0x1 ADD PUSH1 0x0 PUSH2 0x100 EXP DUP2 SLOAD DUP2 PUSH5 0xFFFFFFFFFF MUL NOT AND SWAP1 DUP4 PUSH5 0xFFFFFFFFFF AND MUL OR SWAP1 SSTORE POP PUSH1 0x40 DUP3 ADD MLOAD DUP2 PUSH1 0x1 ADD PUSH1 0x5 PUSH2 0x100 EXP DUP2 SLOAD DUP2 PUSH3 0xFFFFFF MUL NOT AND SWAP1 DUP4 PUSH3 0xFFFFFF AND MUL OR SWAP1 SSTORE POP PUSH1 0x60 DUP3 ADD MLOAD DUP2 PUSH1 0x1 ADD PUSH1 0x8 PUSH2 0x100 EXP DUP2 SLOAD DUP2 PUSH1 0xFF MUL NOT AND SWAP1 DUP4 PUSH1 0xFF AND MUL OR SWAP1 SSTORE POP PUSH1 0x80 DUP3 ADD MLOAD DUP2 PUSH1 0x1 ADD PUSH1 0x9 PUSH2 0x100 EXP DUP2 SLOAD DUP2 PUSH1 0xFF MUL NOT AND SWAP1 DUP4 PUSH1 0xFF AND MUL OR SWAP1 SSTORE POP PUSH1 0xA0 DUP3 ADD MLOAD DUP2 PUSH1 0x1 ADD PUSH1 0xA PUSH2 0x100 EXP DUP2 SLOAD DUP2 PUSH1 0xFF MUL NOT AND SWAP1 DUP4 PUSH1 0xFF AND MUL OR SWAP1 SSTORE POP PUSH1 0xC0 DUP3 ADD MLOAD DUP2 PUSH1 0x1 ADD PUSH1 0xB PUSH2 0x100 EXP DUP2 SLOAD DUP2 PUSH1 0xFF MUL NOT AND SWAP1 DUP4 PUSH1 0x0 SIGNEXTEND PUSH1 0xFF AND MUL OR SWAP1 SSTORE POP PUSH1 0xE0 DUP3 ADD MLOAD DUP2 PUSH1 0x1 ADD PUSH1 0xC PUSH2 0x100 EXP DUP2 SLOAD DUP2 PUSH20 0xFFFFFFFFFFFFFFFFFFFFFFFFFFFFFFFFFFFFFFFF MUL NOT AND SWAP1 DUP4 PUSH20 0xFFFFFFFFFFFFFFFFFFFFFFFFFFFFFFFFFFFFFFFF AND MUL OR SWAP1 SSTORE POP PUSH2 0x100 DUP3 ADD MLOAD DUP2 PUSH1 0x2 ADD PUSH1 0x0 PUSH2 0x100 EXP DUP2 SLOAD DUP2 PUSH1 0xFF MUL NOT AND SWAP1 DUP4 PUSH1 0xFF AND MUL OR SWAP1 SSTORE POP PUSH2 0x120 DUP3 ADD MLOAD DUP2 PUSH1 0x2 ADD PUSH1 0x1 PUSH2 0x100 EXP DUP2 SLOAD DUP2 PUSH1 0xFF MUL NOT AND SWAP1 DUP4 PUSH1 0xFF AND MUL OR SWAP1 SSTORE POP PUSH2 0x140 DUP3 ADD MLOAD DUP2 PUSH1 0x2 ADD PUSH1 0x2 PUSH2 0x100 EXP DUP2 SLOAD DUP2 PUSH1 0xFF MUL NOT AND SWAP1 DUP4 PUSH1 0xFF AND MUL OR SWAP1 SSTORE POP PUSH2 0x160 DUP3 ADD MLOAD DUP2 PUSH1 0x2 ADD PUSH1 0x3 PUSH2 0x100 EXP DUP2 SLOAD DUP2 PUSH1 0xFF MUL NOT AND SWAP1 DUP4 PUSH1 0xFF AND MUL OR SWAP1 SSTORE POP PUSH2 0x180 DUP3 ADD MLOAD DUP2 PUSH1 0x2 ADD PUSH1 0x4 PUSH2 0x100 EXP DUP2 SLOAD DUP2 PUSH20 0xFFFFFFFFFFFFFFFFFFFFFFFFFFFFFFFFFFFFFFFF MUL NOT AND SWAP1 DUP4 PUSH20 0xFFFFFFFFFFFFFFFFFFFFFFFFFFFFFFFFFFFFFFFF AND MUL OR SWAP1 SSTORE POP PUSH2 0x1A0 DUP3 ADD MLOAD DUP2 PUSH1 0x3 ADD PUSH1 0x0 PUSH2 0x100 EXP DUP2 SLOAD DUP2 PUSH20 0xFFFFFFFFFFFFFFFFFFFFFFFFFFFFFFFFFFFFFFFF MUL NOT AND SWAP1 DUP4 PUSH20 0xFFFFFFFFFFFFFFFFFFFFFFFFFFFFFFFFFFFFFFFF AND MUL OR SWAP1 SSTORE POP PUSH2 0x1C0 DUP3 ADD MLOAD DUP2 PUSH1 0x4 ADD SWAP1 DUP1 MLOAD SWAP1 PUSH1 0x20 ADD SWAP1 PUSH2 0x11F5 SWAP3 SWAP2 SWAP1 PUSH2 0x381A JUMP JUMPDEST POP SWAP1 POP POP DUP7 PUSH1 0x80 ADD MLOAD PUSH1 0xFF AND DUP8 PUSH2 0x100 ADD MLOAD PUSH1 0xFF AND DUP3 PUSH1 0xFF AND PUSH1 0x8 PUSH2 0x121C DUP6 PUSH1 0xFF AND PUSH2 0x2FB4 JUMP JUMPDEST PUSH6 0xFFFFFFFFFFFF AND DUP12 PUSH1 0x20 ADD MLOAD PUSH5 0xFFFFFFFFFF AND DUP2 PUSH2 0x1237 JUMPI INVALID JUMPDEST DIV PUSH6 0xFFFFFFFFFFFF AND SWAP1 SHL ADD PUSH6 0xFFFFFFFFFFFF AND PUSH32 0x13D334F612C6E3D949B7DA4336E52487CDF7E8B324884E285AACA45027505860 DUP8 DUP12 PUSH1 0x20 ADD MLOAD DUP13 PUSH1 0x0 ADD MLOAD PUSH1 0x40 MLOAD PUSH2 0x1286 SWAP4 SWAP3 SWAP2 SWAP1 PUSH2 0x4597 JUMP JUMPDEST PUSH1 0x40 MLOAD DUP1 SWAP2 SUB SWAP1 LOG4 POP POP POP JUMPDEST SWAP4 SWAP3 POP POP POP JUMP JUMPDEST PUSH1 0x60 DUP2 PUSH8 0xFFFFFFFFFFFFFFFF DUP2 GT DUP1 ISZERO PUSH2 0x12B2 JUMPI PUSH1 0x0 DUP1 REVERT JUMPDEST POP PUSH1 0x40 MLOAD SWAP1 DUP1 DUP3 MSTORE DUP1 PUSH1 0x20 MUL PUSH1 0x20 ADD DUP3 ADD PUSH1 0x40 MSTORE DUP1 ISZERO PUSH2 0x12EC JUMPI DUP2 PUSH1 0x20 ADD JUMPDEST PUSH2 0x12D9 PUSH2 0x38EB JUMP JUMPDEST DUP2 MSTORE PUSH1 0x20 ADD SWAP1 PUSH1 0x1 SWAP1 SUB SWAP1 DUP2 PUSH2 0x12D1 JUMPI SWAP1 POP JUMPDEST POP SWAP1 POP PUSH1 0x0 JUMPDEST DUP3 DUP2 LT ISZERO PUSH2 0x1335 JUMPI PUSH2 0x1316 DUP6 DUP6 DUP6 DUP5 DUP2 DUP2 LT PUSH2 0x130A JUMPI INVALID JUMPDEST SWAP1 POP PUSH1 0x20 MUL ADD CALLDATALOAD PUSH2 0x1C4E JUMP JUMPDEST DUP3 DUP3 DUP2 MLOAD DUP2 LT PUSH2 0x1322 JUMPI INVALID JUMPDEST PUSH1 0x20 SWAP1 DUP2 MUL SWAP2 SWAP1 SWAP2 ADD ADD MSTORE PUSH1 0x1 ADD PUSH2 0x12F2 JUMP JUMPDEST POP SWAP4 SWAP3 POP POP POP JUMP JUMPDEST CALLER PUSH1 0x0 SWAP1 DUP2 MSTORE PUSH1 0x3 PUSH1 0x20 MSTORE PUSH1 0x40 SWAP1 KECCAK256 SLOAD SWAP1 JUMP JUMPDEST PUSH1 0x40 DUP1 MLOAD PUSH1 0x9 DUP1 DUP3 MSTORE PUSH2 0x140 DUP3 ADD SWAP1 SWAP3 MSTORE PUSH1 0x60 SWAP2 DUP3 SWAP2 SWAP1 PUSH1 0x20 DUP3 ADD PUSH2 0x120 DUP1 CALLDATASIZE DUP4 CALLDATACOPY ADD SWAP1 POP POP SWAP1 POP PUSH1 0x1 DUP2 PUSH1 0x0 DUP2 MLOAD DUP2 LT PUSH2 0x1387 JUMPI INVALID JUMPDEST PUSH1 0x20 SWAP1 DUP2 MUL SWAP2 SWAP1 SWAP2 ADD ADD MSTORE PUSH1 0x0 DUP2 PUSH1 0x1 DUP2 MLOAD DUP2 LT PUSH2 0x13A1 JUMPI INVALID JUMPDEST PUSH1 0x20 SWAP1 DUP2 MUL SWAP2 SWAP1 SWAP2 ADD ADD MSTORE PUSH3 0x350000 DUP2 PUSH1 0x2 DUP2 MLOAD DUP2 LT PUSH2 0x13BD JUMPI INVALID JUMPDEST PUSH1 0x20 SWAP1 DUP2 MUL SWAP2 SWAP1 SWAP2 ADD ADD MSTORE ADDRESS DUP2 PUSH1 0x3 DUP2 MLOAD DUP2 LT PUSH2 0x13D6 JUMPI INVALID JUMPDEST PUSH1 0x20 SWAP1 DUP2 MUL SWAP2 SWAP1 SWAP2 ADD ADD MSTORE PUSH1 0x1 SLOAD DUP2 PUSH1 0x4 DUP2 MLOAD DUP2 LT PUSH2 0x13F1 JUMPI INVALID JUMPDEST PUSH1 0x20 SWAP1 DUP2 MUL SWAP2 SWAP1 SWAP2 ADD ADD MSTORE PUSH1 0x0 SLOAD DUP2 PUSH1 0x5 DUP2 MLOAD DUP2 LT PUSH2 0x140C JUMPI INVALID JUMPDEST PUSH1 0x20 SWAP1 DUP2 MUL SWAP2 SWAP1 SWAP2 ADD ADD MSTORE PUSH1 0xC DUP2 PUSH1 0x6 DUP2 MLOAD DUP2 LT PUSH2 0x1426 JUMPI INVALID JUMPDEST PUSH1 0x20 SWAP1 DUP2 MUL SWAP2 SWAP1 SWAP2 ADD ADD MSTORE PUSH1 0x9 DUP2 PUSH1 0x7 DUP2 MLOAD DUP2 LT PUSH2 0x1440 JUMPI INVALID JUMPDEST PUSH1 0x20 SWAP1 DUP2 MUL SWAP2 SWAP1 SWAP2 ADD ADD MSTORE PUSH1 0x2 SLOAD DUP2 PUSH1 0x8 DUP2 MLOAD DUP2 LT PUSH2 0x145B JUMPI INVALID JUMPDEST PUSH1 0x20 SWAP1 DUP2 MUL SWAP2 SWAP1 SWAP2 ADD ADD MSTORE SWAP1 POP SWAP1 JUMP JUMPDEST CALLVALUE ISZERO PUSH2 0x14DA JUMPI CALLER PUSH1 0x0 SWAP1 DUP2 MSTORE PUSH1 0x3 PUSH1 0x20 MSTORE PUSH1 0x40 SWAP1 KECCAK256 SLOAD PUSH2 0x148B SWAP1 CALLVALUE PUSH2 0x2567 JUMP JUMPDEST CALLER PUSH1 0x0 DUP2 DUP2 MSTORE PUSH1 0x3 PUSH1 0x20 MSTORE PUSH1 0x40 SWAP1 DUP2 SWAP1 KECCAK256 SWAP3 SWAP1 SWAP3 SSTORE SWAP1 MLOAD PUSH32 0x6E2EEC282B5765F3A053054D83D425D0E03E1003BB2740D41C1FCE6D4A0D74F7 SWAP1 PUSH2 0x14D1 SWAP1 TIMESTAMP SWAP1 CALLVALUE SWAP1 PUSH2 0x4722 JUMP JUMPDEST PUSH1 0x40 MLOAD DUP1 SWAP2 SUB SWAP1 LOG2 JUMPDEST JUMP JUMPDEST PUSH1 0x0 DUP6 DUP2 MSTORE PUSH1 0x4 PUSH1 0x20 SWAP1 DUP2 MSTORE PUSH1 0x40 SWAP2 DUP3 SWAP1 KECCAK256 PUSH1 0x2 DUP1 DUP3 ADD SLOAD DUP5 MLOAD PUSH1 0x1 DUP1 DUP6 ADD DUP1 SLOAD PUSH2 0x100 SWAP3 DUP2 AND ISZERO SWAP3 SWAP1 SWAP3 MUL PUSH32 0xFFFFFFFFFFFFFFFFFFFFFFFFFFFFFFFFFFFFFFFFFFFFFFFFFFFFFFFFFFFFFFFF ADD SWAP1 SWAP2 AND SWAP4 SWAP1 SWAP4 DIV PUSH1 0x1F DUP2 ADD DUP7 SWAP1 DIV SWAP1 SWAP6 MUL DUP2 ADD PUSH2 0x200 SWAP1 DUP2 ADD SWAP1 SWAP7 MSTORE PUSH2 0x1E0 DUP2 ADD DUP6 DUP2 MSTORE SWAP4 SWAP6 PUSH13 0x1000000000000000000000000 SWAP1 SWAP3 DIV PUSH20 0xFFFFFFFFFFFFFFFFFFFFFFFFFFFFFFFFFFFFFFFF AND SWAP5 PUSH2 0x179E SWAP5 PUSH2 0x176D SWAP5 SWAP3 SWAP4 DUP5 SWAP3 DUP5 SWAP2 DUP5 ADD DUP3 DUP3 DUP1 ISZERO PUSH2 0x15D7 JUMPI DUP1 PUSH1 0x1F LT PUSH2 0x15AC JUMPI PUSH2 0x100 DUP1 DUP4 SLOAD DIV MUL DUP4 MSTORE SWAP2 PUSH1 0x20 ADD SWAP2 PUSH2 0x15D7 JUMP JUMPDEST DUP3 ADD SWAP2 SWAP1 PUSH1 0x0 MSTORE PUSH1 0x20 PUSH1 0x0 KECCAK256 SWAP1 JUMPDEST DUP2 SLOAD DUP2 MSTORE SWAP1 PUSH1 0x1 ADD SWAP1 PUSH1 0x20 ADD DUP1 DUP4 GT PUSH2 0x15BA JUMPI DUP3 SWAP1 SUB PUSH1 0x1F AND DUP3 ADD SWAP2 JUMPDEST POP POP POP SWAP2 DUP4 MSTORE POP POP PUSH1 0x1 DUP3 ADD SLOAD PUSH5 0xFFFFFFFFFF DUP2 AND PUSH1 0x20 DUP1 DUP5 ADD SWAP2 SWAP1 SWAP2 MSTORE PUSH3 0xFFFFFF PUSH6 0x10000000000 DUP4 DIV AND PUSH1 0x40 DUP1 DUP6 ADD SWAP2 SWAP1 SWAP2 MSTORE PUSH1 0xFF PUSH9 0x10000000000000000 DUP5 DIV DUP2 AND PUSH1 0x60 DUP7 ADD MSTORE PUSH10 0x1000000000000000000 DUP5 DIV DUP2 AND PUSH1 0x80 DUP7 ADD MSTORE PUSH11 0x100000000000000000000 DUP5 DIV DUP2 AND PUSH1 0xA0 DUP7 ADD MSTORE PUSH12 0x10000000000000000000000 DUP5 DIV PUSH1 0x0 SWAP1 DUP2 SIGNEXTEND DUP2 SIGNEXTEND SWAP1 SIGNEXTEND PUSH1 0xC0 DUP7 ADD MSTORE PUSH20 0xFFFFFFFFFFFFFFFFFFFFFFFFFFFFFFFFFFFFFFFF PUSH13 0x1000000000000000000000000 SWAP1 SWAP5 DIV DUP5 AND PUSH1 0xE0 DUP7 ADD MSTORE PUSH1 0x2 DUP7 ADD SLOAD DUP1 DUP3 AND PUSH2 0x100 DUP1 DUP9 ADD SWAP2 SWAP1 SWAP2 MSTORE DUP2 DIV DUP3 AND PUSH2 0x120 DUP8 ADD MSTORE PUSH3 0x10000 DUP2 DIV DUP3 AND PUSH2 0x140 DUP8 ADD MSTORE PUSH4 0x1000000 DUP2 DIV SWAP1 SWAP2 AND PUSH2 0x160 DUP7 ADD MSTORE PUSH5 0x100000000 SWAP1 DIV DUP4 AND PUSH2 0x180 DUP6 ADD MSTORE PUSH1 0x3 DUP6 ADD SLOAD SWAP1 SWAP3 AND PUSH2 0x1A0 DUP5 ADD MSTORE PUSH1 0x4 DUP5 ADD DUP1 SLOAD DUP4 MLOAD DUP2 DUP5 MUL DUP2 ADD DUP5 ADD SWAP1 SWAP5 MSTORE DUP1 DUP5 MSTORE PUSH2 0x1C0 SWAP1 SWAP5 ADD SWAP4 SWAP1 SWAP2 DUP4 ADD DUP3 DUP3 DUP1 ISZERO PUSH2 0x175F JUMPI PUSH1 0x20 MUL DUP3 ADD SWAP2 SWAP1 PUSH1 0x0 MSTORE PUSH1 0x20 PUSH1 0x0 KECCAK256 SWAP1 PUSH1 0x0 SWAP1 JUMPDEST DUP3 DUP3 SWAP1 SLOAD SWAP1 PUSH2 0x100 EXP SWAP1 DIV PUSH1 0xF SIGNEXTEND PUSH1 0xF SIGNEXTEND DUP2 MSTORE PUSH1 0x20 ADD SWAP1 PUSH1 0x10 ADD SWAP1 PUSH1 0x20 DUP3 PUSH1 0xF ADD DIV SWAP3 DUP4 ADD SWAP3 PUSH1 0x1 SUB DUP3 MUL SWAP2 POP DUP1 DUP5 GT PUSH2 0x1728 JUMPI SWAP1 POP JUMPDEST POP POP POP POP POP DUP2 MSTORE POP POP PUSH2 0x2A4F JUMP JUMPDEST DUP7 PUSH1 0x0 PUSH1 0x40 MLOAD PUSH1 0x20 ADD PUSH2 0x1782 SWAP4 SWAP3 SWAP2 SWAP1 PUSH2 0x4491 JUMP JUMPDEST PUSH1 0x40 MLOAD PUSH1 0x20 DUP2 DUP4 SUB SUB DUP2 MSTORE SWAP1 PUSH1 0x40 MSTORE DUP1 MLOAD SWAP1 PUSH1 0x20 ADD KECCAK256 DUP8 PUSH2 0x2C79 JUMP JUMPDEST PUSH20 0xFFFFFFFFFFFFFFFFFFFFFFFFFFFFFFFFFFFFFFFF AND EQ PUSH2 0x17EB JUMPI PUSH1 0x40 MLOAD PUSH32 0x8C379A000000000000000000000000000000000000000000000000000000000 DUP2 MSTORE PUSH1 0x4 ADD PUSH2 0x3BF SWAP1 PUSH2 0x45FD JUMP JUMPDEST DUP1 SLOAD PUSH19 0x1000000000000000000000000000000000000 SWAP1 DIV PUSH1 0xFF AND ISZERO PUSH2 0x1811 JUMPI POP PUSH2 0x1BB2 JUMP JUMPDEST PUSH1 0x0 DUP1 PUSH1 0x1 PUSH1 0x2 DUP5 ADD SLOAD PUSH9 0x10000000000000000 SWAP1 DIV AND PUSH1 0xFF AND ISZERO PUSH2 0x1898 JUMPI POP POP PUSH1 0x5 DUP2 ADD SLOAD PUSH1 0x0 JUMPDEST PUSH1 0x5 DUP4 ADD SLOAD DUP2 LT ISZERO PUSH2 0x1893 JUMPI PUSH1 0x5 DUP4 ADD DUP1 SLOAD DUP3 SWAP1 DUP2 LT PUSH2 0x1856 JUMPI INVALID JUMPDEST SWAP1 PUSH1 0x0 MSTORE PUSH1 0x20 PUSH1 0x0 KECCAK256 SWAP1 PUSH1 0x2 SWAP2 DUP3 DUP3 DIV ADD SWAP2 SWAP1 MOD PUSH1 0x10 MUL SWAP1 SLOAD SWAP1 PUSH2 0x100 EXP SWAP1 DIV PUSH1 0xF SIGNEXTEND PUSH1 0xF SIGNEXTEND DUP7 SLT ISZERO PUSH2 0x188B JUMPI DUP1 SWAP2 POP PUSH2 0x1893 JUMP JUMPDEST PUSH1 0x1 ADD PUSH2 0x183A JUMP JUMPDEST PUSH2 0x18F8 JUMP JUMPDEST POP PUSH1 0x0 SWAP1 POP DUP1 JUMPDEST PUSH1 0x5 DUP4 ADD SLOAD DUP2 LT ISZERO PUSH2 0x18F8 JUMPI PUSH1 0x5 DUP4 ADD DUP1 SLOAD DUP3 SWAP1 DUP2 LT PUSH2 0x18BB JUMPI INVALID JUMPDEST SWAP1 PUSH1 0x0 MSTORE PUSH1 0x20 PUSH1 0x0 KECCAK256 SWAP1 PUSH1 0x2 SWAP2 DUP3 DUP3 DIV ADD SWAP2 SWAP1 MOD PUSH1 0x10 MUL SWAP1 SLOAD SWAP1 PUSH2 0x100 EXP SWAP1 DIV PUSH1 0xF SIGNEXTEND PUSH1 0xF SIGNEXTEND DUP7 EQ ISZERO PUSH2 0x18F0 JUMPI DUP1 SWAP2 POP PUSH2 0x18F8 JUMP JUMPDEST PUSH1 0x1 ADD PUSH2 0x189F JUMP JUMPDEST DUP3 SLOAD PUSH19 0x1000000000000000000000000000000000000 PUSH32 0xFFFFFFFFFFFFFFFFFFFFFFFFFFFF0000FFFFFFFFFFFFFFFFFFFFFFFFFFFFFFFF SWAP1 SWAP2 AND PUSH17 0x100000000000000000000000000000000 PUSH2 0xFFFF DUP6 AND MUL OR PUSH32 0xFFFFFFFFFFFFFFFFFFFFFFFFFF00FFFFFFFFFFFFFFFFFFFFFFFFFFFFFFFFFFFF AND OR DUP4 SSTORE PUSH1 0x3 DUP4 ADD SLOAD PUSH1 0x0 SWAP1 PUSH2 0x19A0 SWAP1 PUSH1 0xFF PUSH4 0x1000000 DUP3 DIV DUP2 AND SWAP2 PUSH2 0xBEA SWAP2 PUSH2 0x100 DUP3 DIV DUP2 AND SWAP2 PUSH3 0x10000 SWAP1 DIV AND PUSH2 0x2567 JUMP JUMPDEST DUP5 SLOAD SWAP1 SWAP2 POP PUSH1 0x0 SWAP1 DUP3 SWAP1 PUSH16 0xFFFFFFFFFFFFFFFFFFFFFFFFFFFFFFFF AND DUP2 PUSH2 0x19C3 JUMPI INVALID JUMPDEST PUSH1 0x3 DUP8 ADD SLOAD SWAP2 SWAP1 DIV SWAP2 POP PUSH2 0x1A1E SWAP1 PUSH2 0x19E4 SWAP1 DUP4 SWAP1 PUSH2 0x100 SWAP1 DIV PUSH1 0xFF AND PUSH2 0x289B JUMP JUMPDEST PUSH1 0x3 DUP8 DUP2 ADD SLOAD PUSH5 0x100000000 SWAP1 DIV PUSH20 0xFFFFFFFFFFFFFFFFFFFFFFFFFFFFFFFFFFFFFFFF AND PUSH1 0x0 SWAP1 DUP2 MSTORE PUSH1 0x20 SWAP2 SWAP1 SWAP2 MSTORE PUSH1 0x40 SWAP1 KECCAK256 SLOAD SWAP1 PUSH2 0x2567 JUMP JUMPDEST PUSH1 0x3 DUP7 DUP2 ADD DUP1 SLOAD PUSH5 0x100000000 SWAP1 DIV PUSH20 0xFFFFFFFFFFFFFFFFFFFFFFFFFFFFFFFFFFFFFFFF AND PUSH1 0x0 SWAP1 DUP2 MSTORE PUSH1 0x20 SWAP3 SWAP1 SWAP3 MSTORE PUSH1 0x40 SWAP1 SWAP2 KECCAK256 SWAP2 SWAP1 SWAP2 SSTORE SLOAD PUSH2 0x1AA0 SWAP1 PUSH2 0x1A70 SWAP1 DUP4 SWAP1 PUSH3 0x10000 SWAP1 DIV PUSH1 0xFF AND PUSH2 0x289B JUMP JUMPDEST PUSH1 0x4 DUP8 ADD SLOAD PUSH20 0xFFFFFFFFFFFFFFFFFFFFFFFFFFFFFFFFFFFFFFFF AND PUSH1 0x0 SWAP1 DUP2 MSTORE PUSH1 0x3 PUSH1 0x20 MSTORE PUSH1 0x40 SWAP1 KECCAK256 SLOAD SWAP1 PUSH2 0x2567 JUMP JUMPDEST PUSH1 0x4 DUP7 ADD SLOAD PUSH20 0xFFFFFFFFFFFFFFFFFFFFFFFFFFFFFFFFFFFFFFFF AND PUSH1 0x0 SWAP1 DUP2 MSTORE PUSH1 0x3 PUSH1 0x20 DUP2 SWAP1 MSTORE PUSH1 0x40 SWAP1 SWAP2 KECCAK256 SWAP2 SWAP1 SWAP2 SSTORE DUP6 ADD SLOAD PUSH2 0x1B2C SWAP1 PUSH2 0x1AEC SWAP1 DUP4 SWAP1 PUSH4 0x1000000 SWAP1 DIV PUSH1 0xFF AND PUSH2 0x289B JUMP JUMPDEST PUSH1 0x2 DUP8 ADD SLOAD PUSH13 0x1000000000000000000000000 SWAP1 DIV PUSH20 0xFFFFFFFFFFFFFFFFFFFFFFFFFFFFFFFFFFFFFFFF AND PUSH1 0x0 SWAP1 DUP2 MSTORE PUSH1 0x3 PUSH1 0x20 MSTORE PUSH1 0x40 SWAP1 KECCAK256 SLOAD SWAP1 PUSH2 0x2567 JUMP JUMPDEST PUSH1 0x2 DUP7 ADD SLOAD PUSH13 0x1000000000000000000000000 SWAP1 DIV PUSH20 0xFFFFFFFFFFFFFFFFFFFFFFFFFFFFFFFFFFFFFFFF AND PUSH1 0x0 SWAP1 DUP2 MSTORE PUSH1 0x3 PUSH1 0x20 MSTORE PUSH1 0x40 SWAP1 DUP2 SWAP1 KECCAK256 SWAP2 SWAP1 SWAP2 SSTORE MLOAD PUSH32 0xBC368577AA675EA916E9069E5C84C091AB02483DCC1A83CDA5F0124B39B0F2E9 SWAP1 PUSH2 0x1B99 SWAP1 DUP13 SWAP1 PUSH2 0x458E JUMP JUMPDEST PUSH1 0x40 MLOAD DUP1 SWAP2 SUB SWAP1 LOG1 PUSH2 0x1BAC DUP11 DUP9 DUP9 PUSH2 0x30B JUMP JUMPDEST POP POP POP POP POP JUMPDEST POP POP POP POP POP JUMP JUMPDEST CALLVALUE ISZERO PUSH2 0x1C4B JUMPI PUSH20 0xFFFFFFFFFFFFFFFFFFFFFFFFFFFFFFFFFFFFFFFF DUP2 AND PUSH1 0x0 SWAP1 DUP2 MSTORE PUSH1 0x3 PUSH1 0x20 MSTORE PUSH1 0x40 SWAP1 KECCAK256 SLOAD PUSH2 0x1BEF SWAP1 CALLVALUE PUSH2 0x2567 JUMP JUMPDEST PUSH20 0xFFFFFFFFFFFFFFFFFFFFFFFFFFFFFFFFFFFFFFFF DUP3 AND PUSH1 0x0 DUP2 DUP2 MSTORE PUSH1 0x3 PUSH1 0x20 MSTORE PUSH1 0x40 SWAP1 DUP2 SWAP1 KECCAK256 SWAP3 SWAP1 SWAP3 SSTORE SWAP1 MLOAD PUSH32 0x6E2EEC282B5765F3A053054D83D425D0E03E1003BB2740D41C1FCE6D4A0D74F7 SWAP1 PUSH2 0xA8B SWAP1 TIMESTAMP SWAP1 CALLVALUE SWAP1 PUSH2 0x4722 JUMP JUMPDEST POP JUMP JUMPDEST PUSH2 0x1C56 PUSH2 0x38EB JUMP JUMPDEST PUSH1 0x0 DUP3 DUP2 MSTORE PUSH1 0x4 PUSH1 0x20 MSTORE PUSH1 0x40 SWAP1 KECCAK256 PUSH2 0x1C6C PUSH2 0x36B9 JUMP JUMPDEST DUP2 PUSH1 0x1 ADD PUSH1 0x40 MLOAD DUP1 PUSH2 0x1E0 ADD PUSH1 0x40 MSTORE SWAP1 DUP2 PUSH1 0x0 DUP3 ADD DUP1 SLOAD PUSH1 0x1 DUP2 PUSH1 0x1 AND ISZERO PUSH2 0x100 MUL SUB AND PUSH1 0x2 SWAP1 DIV DUP1 PUSH1 0x1F ADD PUSH1 0x20 DUP1 SWAP2 DIV MUL PUSH1 0x20 ADD PUSH1 0x40 MLOAD SWAP1 DUP2 ADD PUSH1 0x40 MSTORE DUP1 SWAP3 SWAP2 SWAP1 DUP2 DUP2 MSTORE PUSH1 0x20 ADD DUP3 DUP1 SLOAD PUSH1 0x1 DUP2 PUSH1 0x1 AND ISZERO PUSH2 0x100 MUL SUB AND PUSH1 0x2 SWAP1 DIV DUP1 ISZERO PUSH2 0x1D15 JUMPI DUP1 PUSH1 0x1F LT PUSH2 0x1CEA JUMPI PUSH2 0x100 DUP1 DUP4 SLOAD DIV MUL DUP4 MSTORE SWAP2 PUSH1 0x20 ADD SWAP2 PUSH2 0x1D15 JUMP JUMPDEST DUP3 ADD SWAP2 SWAP1 PUSH1 0x0 MSTORE PUSH1 0x20 PUSH1 0x0 KECCAK256 SWAP1 JUMPDEST DUP2 SLOAD DUP2 MSTORE SWAP1 PUSH1 0x1 ADD SWAP1 PUSH1 0x20 ADD DUP1 DUP4 GT PUSH2 0x1CF8 JUMPI DUP3 SWAP1 SUB PUSH1 0x1F AND DUP3 ADD SWAP2 JUMPDEST POP POP POP SWAP2 DUP4 MSTORE POP POP PUSH1 0x1 DUP3 ADD SLOAD PUSH5 0xFFFFFFFFFF DUP2 AND PUSH1 0x20 DUP1 DUP5 ADD SWAP2 SWAP1 SWAP2 MSTORE PUSH3 0xFFFFFF PUSH6 0x10000000000 DUP4 DIV AND PUSH1 0x40 DUP1 DUP6 ADD SWAP2 SWAP1 SWAP2 MSTORE PUSH1 0xFF PUSH9 0x10000000000000000 DUP5 DIV DUP2 AND PUSH1 0x60 DUP7 ADD MSTORE PUSH10 0x1000000000000000000 DUP5 DIV DUP2 AND PUSH1 0x80 DUP7 ADD MSTORE PUSH11 0x100000000000000000000 DUP5 DIV DUP2 AND PUSH1 0xA0 DUP7 ADD MSTORE PUSH12 0x10000000000000000000000 DUP5 DIV PUSH1 0x0 SWAP1 DUP2 SIGNEXTEND DUP2 SIGNEXTEND SWAP1 SIGNEXTEND PUSH1 0xC0 DUP7 ADD MSTORE PUSH20 0xFFFFFFFFFFFFFFFFFFFFFFFFFFFFFFFFFFFFFFFF PUSH13 0x1000000000000000000000000 SWAP1 SWAP5 DIV DUP5 AND PUSH1 0xE0 DUP7 ADD MSTORE PUSH1 0x2 DUP7 ADD SLOAD DUP1 DUP3 AND PUSH2 0x100 DUP1 DUP9 ADD SWAP2 SWAP1 SWAP2 MSTORE DUP2 DIV DUP3 AND PUSH2 0x120 DUP8 ADD MSTORE PUSH3 0x10000 DUP2 DIV DUP3 AND PUSH2 0x140 DUP8 ADD MSTORE PUSH4 0x1000000 DUP2 DIV SWAP1 SWAP2 AND PUSH2 0x160 DUP7 ADD MSTORE PUSH5 0x100000000 SWAP1 DIV DUP4 AND PUSH2 0x180 DUP6 ADD MSTORE PUSH1 0x3 DUP6 ADD SLOAD SWAP1 SWAP3 AND PUSH2 0x1A0 DUP5 ADD MSTORE PUSH1 0x4 DUP5 ADD DUP1 SLOAD DUP4 MLOAD DUP2 DUP5 MUL DUP2 ADD DUP5 ADD SWAP1 SWAP5 MSTORE DUP1 DUP5 MSTORE PUSH2 0x1C0 SWAP1 SWAP5 ADD SWAP4 SWAP1 SWAP2 DUP4 ADD DUP3 DUP3 DUP1 ISZERO PUSH2 0x1E9D JUMPI PUSH1 0x20 MUL DUP3 ADD SWAP2 SWAP1 PUSH1 0x0 MSTORE PUSH1 0x20 PUSH1 0x0 KECCAK256 SWAP1 PUSH1 0x0 SWAP1 JUMPDEST DUP3 DUP3 SWAP1 SLOAD SWAP1 PUSH2 0x100 EXP SWAP1 DIV PUSH1 0xF SIGNEXTEND PUSH1 0xF SIGNEXTEND DUP2 MSTORE PUSH1 0x20 ADD SWAP1 PUSH1 0x10 ADD SWAP1 PUSH1 0x20 DUP3 PUSH1 0xF ADD DIV SWAP3 DUP4 ADD SWAP3 PUSH1 0x1 SUB DUP3 MUL SWAP2 POP DUP1 DUP5 GT PUSH2 0x1E66 JUMPI SWAP1 POP JUMPDEST POP POP POP POP POP DUP2 MSTORE POP POP SWAP1 POP PUSH2 0x1EB0 PUSH2 0x3699 JUMP JUMPDEST POP PUSH1 0x40 DUP1 MLOAD PUSH1 0x60 DUP1 DUP3 ADD DUP4 MSTORE DUP5 SLOAD PUSH16 0xFFFFFFFFFFFFFFFFFFFFFFFFFFFFFFFF DUP2 AND DUP4 MSTORE PUSH17 0x100000000000000000000000000000000 DUP2 DIV PUSH2 0xFFFF AND PUSH1 0x20 DUP1 DUP6 ADD SWAP2 SWAP1 SWAP2 MSTORE PUSH19 0x1000000000000000000000000000000000000 SWAP1 SWAP2 DIV PUSH1 0xFF AND ISZERO ISZERO DUP4 DUP6 ADD MSTORE DUP4 MLOAD PUSH1 0xA0 DUP2 ADD DUP6 MSTORE DUP6 DUP2 MSTORE SWAP1 DUP2 ADD DUP4 SWAP1 MSTORE SWAP3 DUP4 ADD DUP8 SWAP1 MSTORE SWAP1 SWAP2 SWAP1 DUP2 ADD PUSH2 0x1F3A DUP9 DUP7 PUSH2 0x2206 JUMP JUMPDEST PUSH1 0x2 DUP2 GT ISZERO PUSH2 0x1F45 JUMPI INVALID JUMPDEST DUP2 MSTORE PUSH1 0x0 PUSH1 0x20 SWAP1 SWAP2 ADD MSTORE SWAP4 POP POP POP POP JUMPDEST SWAP3 SWAP2 POP POP JUMP JUMPDEST PUSH2 0x1F63 PUSH2 0x3926 JUMP JUMPDEST PUSH1 0x0 JUMPDEST DUP4 MLOAD DUP2 LT ISZERO PUSH2 0x1F99 JUMPI DUP4 DUP2 DUP2 MLOAD DUP2 LT PUSH2 0x1F7B JUMPI INVALID JUMPDEST PUSH1 0x20 MUL PUSH1 0x20 ADD ADD MLOAD SWAP2 POP PUSH2 0x1F8F DUP3 DUP5 PUSH2 0x2FE2 JUMP JUMPDEST SWAP3 POP PUSH1 0x1 ADD PUSH2 0x1F66 JUMP JUMPDEST POP POP POP POP JUMP JUMPDEST PUSH2 0x1FA7 PUSH2 0x36B9 JUMP JUMPDEST PUSH1 0x0 DUP3 DUP2 MSTORE PUSH1 0x4 PUSH1 0x20 SWAP1 DUP2 MSTORE PUSH1 0x40 SWAP2 DUP3 SWAP1 KECCAK256 DUP3 MLOAD PUSH1 0x1 DUP1 DUP4 ADD DUP1 SLOAD PUSH1 0x2 SWAP3 DUP2 AND ISZERO PUSH2 0x100 MUL PUSH32 0xFFFFFFFFFFFFFFFFFFFFFFFFFFFFFFFFFFFFFFFFFFFFFFFFFFFFFFFFFFFFFFFF ADD AND SWAP2 SWAP1 SWAP2 DIV PUSH1 0x1F DUP2 ADD DUP6 SWAP1 DIV SWAP1 SWAP5 MUL DUP3 ADD PUSH2 0x200 SWAP1 DUP2 ADD SWAP1 SWAP6 MSTORE PUSH2 0x1E0 DUP3 ADD DUP5 DUP2 MSTORE SWAP3 SWAP5 SWAP2 SWAP4 SWAP1 SWAP3 DUP5 SWAP3 SWAP1 SWAP2 DUP5 SWAP2 DUP5 ADD DUP3 DUP3 DUP1 ISZERO PUSH2 0x206D JUMPI DUP1 PUSH1 0x1F LT PUSH2 0x2042 JUMPI PUSH2 0x100 DUP1 DUP4 SLOAD DIV MUL DUP4 MSTORE SWAP2 PUSH1 0x20 ADD SWAP2 PUSH2 0x206D JUMP JUMPDEST DUP3 ADD SWAP2 SWAP1 PUSH1 0x0 MSTORE PUSH1 0x20 PUSH1 0x0 KECCAK256 SWAP1 JUMPDEST DUP2 SLOAD DUP2 MSTORE SWAP1 PUSH1 0x1 ADD SWAP1 PUSH1 0x20 ADD DUP1 DUP4 GT PUSH2 0x2050 JUMPI DUP3 SWAP1 SUB PUSH1 0x1F AND DUP3 ADD SWAP2 JUMPDEST POP POP POP SWAP2 DUP4 MSTORE POP POP PUSH1 0x1 DUP3 ADD SLOAD PUSH5 0xFFFFFFFFFF DUP2 AND PUSH1 0x20 DUP1 DUP5 ADD SWAP2 SWAP1 SWAP2 MSTORE PUSH3 0xFFFFFF PUSH6 0x10000000000 DUP4 DIV AND PUSH1 0x40 DUP1 DUP6 ADD SWAP2 SWAP1 SWAP2 MSTORE PUSH1 0xFF PUSH9 0x10000000000000000 DUP5 DIV DUP2 AND PUSH1 0x60 DUP7 ADD MSTORE PUSH10 0x1000000000000000000 DUP5 DIV DUP2 AND PUSH1 0x80 DUP7 ADD MSTORE PUSH11 0x100000000000000000000 DUP5 DIV DUP2 AND PUSH1 0xA0 DUP7 ADD MSTORE PUSH12 0x10000000000000000000000 DUP5 DIV PUSH1 0x0 SWAP1 DUP2 SIGNEXTEND DUP2 SIGNEXTEND SWAP1 SIGNEXTEND PUSH1 0xC0 DUP7 ADD MSTORE PUSH20 0xFFFFFFFFFFFFFFFFFFFFFFFFFFFFFFFFFFFFFFFF PUSH13 0x1000000000000000000000000 SWAP1 SWAP5 DIV DUP5 AND PUSH1 0xE0 DUP7 ADD MSTORE PUSH1 0x2 DUP7 ADD SLOAD DUP1 DUP3 AND PUSH2 0x100 DUP1 DUP9 ADD SWAP2 SWAP1 SWAP2 MSTORE DUP2 DIV DUP3 AND PUSH2 0x120 DUP8 ADD MSTORE PUSH3 0x10000 DUP2 DIV DUP3 AND PUSH2 0x140 DUP8 ADD MSTORE PUSH4 0x1000000 DUP2 DIV SWAP1 SWAP2 AND PUSH2 0x160 DUP7 ADD MSTORE PUSH5 0x100000000 SWAP1 DIV DUP4 AND PUSH2 0x180 DUP6 ADD MSTORE PUSH1 0x3 DUP6 ADD SLOAD SWAP1 SWAP3 AND PUSH2 0x1A0 DUP5 ADD MSTORE PUSH1 0x4 DUP5 ADD DUP1 SLOAD DUP4 MLOAD DUP2 DUP5 MUL DUP2 ADD DUP5 ADD SWAP1 SWAP5 MSTORE DUP1 DUP5 MSTORE PUSH2 0x1C0 SWAP1 SWAP5 ADD SWAP4 SWAP1 SWAP2 DUP4 ADD DUP3 DUP3 DUP1 ISZERO PUSH2 0x21F5 JUMPI PUSH1 0x20 MUL DUP3 ADD SWAP2 SWAP1 PUSH1 0x0 MSTORE PUSH1 0x20 PUSH1 0x0 KECCAK256 SWAP1 PUSH1 0x0 SWAP1 JUMPDEST DUP3 DUP3 SWAP1 SLOAD SWAP1 PUSH2 0x100 EXP SWAP1 DIV PUSH1 0xF SIGNEXTEND PUSH1 0xF SIGNEXTEND DUP2 MSTORE PUSH1 0x20 ADD SWAP1 PUSH1 0x10 ADD SWAP1 PUSH1 0x20 DUP3 PUSH1 0xF ADD DIV SWAP3 DUP4 ADD SWAP3 PUSH1 0x1 SUB DUP3 MUL SWAP2 POP DUP1 DUP5 GT PUSH2 0x21BE JUMPI SWAP1 POP JUMPDEST POP POP POP POP POP DUP2 MSTORE POP POP SWAP2 POP POP SWAP2 SWAP1 POP JUMP JUMPDEST PUSH20 0xFFFFFFFFFFFFFFFFFFFFFFFFFFFFFFFFFFFFFFFF DUP3 AND PUSH1 0x0 SWAP1 DUP2 MSTORE PUSH1 0x6 DUP3 ADD PUSH1 0x20 MSTORE PUSH1 0x40 DUP2 KECCAK256 DUP3 SLOAD PUSH19 0x1000000000000000000000000000000000000 SWAP1 DIV PUSH1 0xFF AND ISZERO PUSH2 0x22D8 JUMPI PUSH2 0x2255 PUSH2 0x3737 JUMP JUMPDEST POP DUP3 SLOAD PUSH17 0x100000000000000000000000000000000 SWAP1 DUP2 SWAP1 DIV PUSH2 0xFFFF AND PUSH1 0x0 SWAP1 DUP2 MSTORE PUSH1 0x20 DUP4 DUP2 MSTORE PUSH1 0x40 SWAP2 DUP3 SWAP1 KECCAK256 DUP3 MLOAD DUP1 DUP5 ADD SWAP1 SWAP4 MSTORE SLOAD PUSH1 0xF DUP2 DUP2 SIGNEXTEND DUP2 SIGNEXTEND SWAP1 SIGNEXTEND DUP4 MSTORE SWAP3 SWAP1 SWAP3 DIV PUSH1 0xFF AND SWAP2 DUP2 ADD DUP3 SWAP1 MSTORE SWAP1 PUSH1 0x2 EQ DUP1 PUSH2 0x22C6 JUMPI POP PUSH1 0x20 DUP2 ADD MLOAD PUSH1 0xFF AND PUSH1 0x1 EQ DUP1 ISZERO PUSH2 0x22C6 JUMPI POP DUP1 MLOAD PUSH1 0xF SIGNEXTEND ISZERO JUMPDEST ISZERO PUSH2 0x22D6 JUMPI PUSH1 0x2 SWAP3 POP POP POP PUSH2 0x1F55 JUMP JUMPDEST POP JUMPDEST PUSH1 0x0 JUMPDEST PUSH1 0x5 DUP5 ADD SLOAD DUP2 GT PUSH2 0x2324 JUMPI PUSH1 0x0 DUP2 DUP2 MSTORE PUSH1 0x20 DUP4 SWAP1 MSTORE PUSH1 0x40 SWAP1 KECCAK256 SLOAD PUSH17 0x100000000000000000000000000000000 SWAP1 DIV PUSH1 0xFF AND ISZERO PUSH2 0x231C JUMPI PUSH1 0x1 SWAP3 POP POP POP PUSH2 0x1F55 JUMP JUMPDEST PUSH1 0x1 ADD PUSH2 0x22DB JUMP JUMPDEST POP PUSH1 0x0 SWAP5 SWAP4 POP POP POP POP JUMP JUMPDEST PUSH1 0x5 DUP3 ADD SLOAD PUSH20 0xFFFFFFFFFFFFFFFFFFFFFFFFFFFFFFFFFFFFFFFF DUP3 AND PUSH1 0x0 SWAP1 DUP2 MSTORE PUSH1 0x6 DUP5 ADD PUSH1 0x20 MSTORE PUSH1 0x40 DUP2 KECCAK256 SWAP1 SWAP2 PUSH32 0x7FFFFFFFFFFFFFFFFFFFFFFFFFFFFFFFFFFFFFFFFFFFFFFFFFFFFFFFFFFFFFFF SWAP2 DUP4 DUP1 JUMPDEST DUP4 DUP2 GT PUSH2 0x23B5 JUMPI PUSH1 0x0 DUP2 DUP2 MSTORE PUSH1 0x20 DUP5 SWAP1 MSTORE PUSH1 0x40 SWAP1 KECCAK256 SLOAD PUSH1 0xF SWAP1 DUP2 SIGNEXTEND SWAP1 SIGNEXTEND SWAP2 POP DUP5 DUP3 SLT ISZERO PUSH2 0x23AD JUMPI DUP2 SWAP5 POP JUMPDEST PUSH1 0x1 ADD PUSH2 0x2382 JUMP JUMPDEST POP SWAP3 SWAP7 SWAP6 POP POP POP POP POP POP JUMP JUMPDEST PUSH1 0x0 DUP2 DUP4 SUB DUP2 DUP4 SLT DUP1 ISZERO SWAP1 PUSH2 0x23D6 JUMPI POP DUP4 DUP2 SGT ISZERO JUMPDEST DUP1 PUSH2 0x23EB JUMPI POP PUSH1 0x0 DUP4 SLT DUP1 ISZERO PUSH2 0x23EB JUMPI POP DUP4 DUP2 SGT JUMPDEST PUSH2 0x1292 JUMPI PUSH1 0x40 MLOAD PUSH32 0x8C379A000000000000000000000000000000000000000000000000000000000 DUP2 MSTORE PUSH1 0x4 ADD DUP1 DUP1 PUSH1 0x20 ADD DUP3 DUP2 SUB DUP3 MSTORE PUSH1 0x24 DUP2 MSTORE PUSH1 0x20 ADD DUP1 PUSH2 0x483B PUSH1 0x24 SWAP2 CODECOPY PUSH1 0x40 ADD SWAP2 POP POP PUSH1 0x40 MLOAD DUP1 SWAP2 SUB SWAP1 REVERT JUMPDEST PUSH1 0x0 DUP3 PUSH2 0x244F JUMPI POP PUSH1 0x0 PUSH2 0x1F55 JUMP JUMPDEST DUP3 PUSH32 0xFFFFFFFFFFFFFFFFFFFFFFFFFFFFFFFFFFFFFFFFFFFFFFFFFFFFFFFFFFFFFFFF EQ DUP1 ISZERO PUSH2 0x249D JUMPI POP PUSH32 0x8000000000000000000000000000000000000000000000000000000000000000 DUP3 EQ JUMPDEST ISZERO PUSH2 0x24F3 JUMPI PUSH1 0x40 MLOAD PUSH32 0x8C379A000000000000000000000000000000000000000000000000000000000 DUP2 MSTORE PUSH1 0x4 ADD DUP1 DUP1 PUSH1 0x20 ADD DUP3 DUP2 SUB DUP3 MSTORE PUSH1 0x27 DUP2 MSTORE PUSH1 0x20 ADD DUP1 PUSH2 0x4814 PUSH1 0x27 SWAP2 CODECOPY PUSH1 0x40 ADD SWAP2 POP POP PUSH1 0x40 MLOAD DUP1 SWAP2 SUB SWAP1 REVERT JUMPDEST DUP3 DUP3 MUL DUP3 DUP5 DUP3 DUP2 PUSH2 0x2500 JUMPI INVALID JUMPDEST SDIV EQ PUSH2 0x1292 JUMPI PUSH1 0x40 MLOAD PUSH32 0x8C379A000000000000000000000000000000000000000000000000000000000 DUP2 MSTORE PUSH1 0x4 ADD DUP1 DUP1 PUSH1 0x20 ADD DUP3 DUP2 SUB DUP3 MSTORE PUSH1 0x27 DUP2 MSTORE PUSH1 0x20 ADD DUP1 PUSH2 0x4814 PUSH1 0x27 SWAP2 CODECOPY PUSH1 0x40 ADD SWAP2 POP POP PUSH1 0x40 MLOAD DUP1 SWAP2 SUB SWAP1 REVERT JUMPDEST PUSH1 0x0 DUP1 DUP3 SLT ISZERO PUSH2 0x2563 JUMPI INVALID JUMPDEST POP SWAP1 JUMP JUMPDEST PUSH1 0x0 DUP3 DUP3 ADD DUP4 DUP2 LT ISZERO PUSH2 0x1292 JUMPI PUSH1 0x40 DUP1 MLOAD PUSH32 0x8C379A000000000000000000000000000000000000000000000000000000000 DUP2 MSTORE PUSH1 0x20 PUSH1 0x4 DUP3 ADD MSTORE PUSH1 0x1B PUSH1 0x24 DUP3 ADD MSTORE PUSH32 0x536166654D6174683A206164646974696F6E206F766572666C6F770000000000 PUSH1 0x44 DUP3 ADD MSTORE SWAP1 MLOAD SWAP1 DUP2 SWAP1 SUB PUSH1 0x64 ADD SWAP1 REVERT JUMPDEST PUSH1 0x0 DUP1 DUP1 PUSH2 0x25F0 PUSH5 0xFFFFFFFFFF DUP6 AND TIMESTAMP PUSH2 0x26CB JUMP JUMPDEST SWAP1 POP PUSH4 0x3C26700 DUP2 LT PUSH2 0x2664 JUMPI PUSH1 0x40 DUP1 MLOAD PUSH32 0x8C379A000000000000000000000000000000000000000000000000000000000 DUP2 MSTORE PUSH1 0x20 PUSH1 0x4 DUP3 ADD MSTORE PUSH1 0x15 PUSH1 0x24 DUP3 ADD MSTORE PUSH32 0x746F6F2066617220696E20746865206675747572650000000000000000000000 PUSH1 0x44 DUP3 ADD MSTORE SWAP1 MLOAD SWAP1 DUP2 SWAP1 SUB PUSH1 0x64 ADD SWAP1 REVERT JUMPDEST PUSH3 0x3B5380 DUP2 GT ISZERO PUSH2 0x2679 JUMPI PUSH1 0x1 JUMPDEST SWAP2 POP PUSH2 0x26C4 JUMP JUMPDEST PUSH3 0xA8C00 DUP2 GT ISZERO PUSH2 0x268B JUMPI PUSH1 0x3 PUSH2 0x2672 JUMP JUMPDEST PUSH3 0x1FA40 DUP2 GT ISZERO PUSH2 0x269D JUMPI PUSH1 0x4 PUSH2 0x2672 JUMP JUMPDEST PUSH2 0x1C20 DUP2 GT ISZERO PUSH2 0x26AE JUMPI PUSH1 0x5 PUSH2 0x2672 JUMP JUMPDEST PUSH2 0x384 DUP2 GT ISZERO PUSH2 0x26BF JUMPI PUSH1 0x6 PUSH2 0x2672 JUMP JUMPDEST PUSH1 0x7 SWAP2 POP JUMPDEST POP SWAP3 SWAP2 POP POP JUMP JUMPDEST PUSH1 0x0 PUSH2 0x1292 DUP4 DUP4 PUSH1 0x40 MLOAD DUP1 PUSH1 0x40 ADD PUSH1 0x40 MSTORE DUP1 PUSH1 0x1E DUP2 MSTORE PUSH1 0x20 ADD PUSH32 0x536166654D6174683A207375627472616374696F6E206F766572666C6F770000 DUP2 MSTORE POP PUSH2 0x33FE JUMP JUMPDEST PUSH1 0x0 DUP1 PUSH1 0x40 MLOAD DUP1 PUSH1 0x40 ADD PUSH1 0x40 MSTORE DUP1 PUSH1 0x1C DUP2 MSTORE PUSH1 0x20 ADD PUSH32 0x19457468657265756D205369676E6564204D6573736167653A0A333200000000 DUP2 MSTORE POP DUP5 PUSH1 0x40 MLOAD PUSH1 0x20 ADD DUP1 DUP4 DUP1 MLOAD SWAP1 PUSH1 0x20 ADD SWAP1 DUP1 DUP4 DUP4 JUMPDEST PUSH1 0x20 DUP4 LT PUSH2 0x2797 JUMPI DUP1 MLOAD DUP3 MSTORE PUSH32 0xFFFFFFFFFFFFFFFFFFFFFFFFFFFFFFFFFFFFFFFFFFFFFFFFFFFFFFFFFFFFFFE0 SWAP1 SWAP3 ADD SWAP2 PUSH1 0x20 SWAP2 DUP3 ADD SWAP2 ADD PUSH2 0x275A JUMP JUMPDEST MLOAD DUP2 MLOAD PUSH1 0x20 SWAP4 DUP5 SUB PUSH2 0x100 EXP PUSH32 0xFFFFFFFFFFFFFFFFFFFFFFFFFFFFFFFFFFFFFFFFFFFFFFFFFFFFFFFFFFFFFFFF ADD DUP1 NOT SWAP1 SWAP3 AND SWAP2 AND OR SWAP1 MSTORE SWAP3 ADD SWAP4 DUP5 MSTORE POP PUSH1 0x40 DUP1 MLOAD DUP1 DUP6 SUB DUP2 MSTORE DUP5 DUP4 ADD DUP1 DUP4 MSTORE DUP2 MLOAD SWAP2 DUP5 ADD SWAP2 SWAP1 SWAP2 KECCAK256 DUP10 MLOAD DUP11 DUP6 ADD MLOAD DUP12 DUP6 ADD MLOAD PUSH1 0x0 SWAP5 DUP6 SWAP1 MSTORE DUP6 DUP10 ADD DUP1 DUP8 MSTORE DUP5 SWAP1 MSTORE PUSH1 0xFF SWAP1 SWAP3 AND PUSH1 0x60 DUP10 ADD MSTORE PUSH1 0x80 DUP9 ADD MSTORE PUSH1 0xA0 DUP8 ADD MSTORE SWAP2 MLOAD SWAP2 SWAP7 POP SWAP5 POP PUSH1 0x1 SWAP4 PUSH1 0xC0 DUP1 DUP3 ADD SWAP5 POP PUSH32 0xFFFFFFFFFFFFFFFFFFFFFFFFFFFFFFFFFFFFFFFFFFFFFFFFFFFFFFFFFFFFFFE0 DUP4 ADD SWAP3 SWAP2 DUP3 SWAP1 SUB ADD SWAP1 DUP6 GAS STATICCALL ISZERO DUP1 ISZERO PUSH2 0x2869 JUMPI RETURNDATASIZE PUSH1 0x0 DUP1 RETURNDATACOPY RETURNDATASIZE PUSH1 0x0 REVERT JUMPDEST POP POP PUSH1 0x40 MLOAD PUSH32 0xFFFFFFFFFFFFFFFFFFFFFFFFFFFFFFFFFFFFFFFFFFFFFFFFFFFFFFFFFFFFFFE0 ADD MLOAD SWAP7 SWAP6 POP POP POP POP POP POP JUMP JUMPDEST PUSH1 0x0 DUP3 PUSH2 0x28AA JUMPI POP PUSH1 0x0 PUSH2 0x1F55 JUMP JUMPDEST DUP3 DUP3 MUL DUP3 DUP5 DUP3 DUP2 PUSH2 0x28B7 JUMPI INVALID JUMPDEST DIV EQ PUSH2 0x1292 JUMPI PUSH1 0x40 MLOAD PUSH32 0x8C379A000000000000000000000000000000000000000000000000000000000 DUP2 MSTORE PUSH1 0x4 ADD DUP1 DUP1 PUSH1 0x20 ADD DUP3 DUP2 SUB DUP3 MSTORE PUSH1 0x21 DUP2 MSTORE PUSH1 0x20 ADD DUP1 PUSH2 0x47C9 PUSH1 0x21 SWAP2 CODECOPY PUSH1 0x40 ADD SWAP2 POP POP PUSH1 0x40 MLOAD DUP1 SWAP2 SUB SWAP1 REVERT JUMPDEST PUSH1 0x0 PUSH2 0x1292 DUP4 DUP4 PUSH1 0x40 MLOAD DUP1 PUSH1 0x40 ADD PUSH1 0x40 MSTORE DUP1 PUSH1 0x1A DUP2 MSTORE PUSH1 0x20 ADD PUSH32 0x536166654D6174683A206469766973696F6E206279207A65726F000000000000 DUP2 MSTORE POP PUSH2 0x34AF JUMP JUMPDEST PUSH20 0xFFFFFFFFFFFFFFFFFFFFFFFFFFFFFFFFFFFFFFFF DUP4 AND PUSH1 0x0 SWAP1 DUP2 MSTORE PUSH1 0x3 PUSH1 0x20 MSTORE PUSH1 0x40 DUP2 KECCAK256 SLOAD DUP2 SWAP1 PUSH2 0x2981 SWAP1 PUSH2 0x2A24 JUMP JUMPDEST SWAP1 POP PUSH1 0x0 DUP8 PUSH2 0x29BA JUMPI PUSH2 0x299D PUSH2 0x2996 DUP6 PUSH2 0x2A24 JUMP JUMPDEST DUP4 SWAP1 PUSH2 0x352E JUMP JUMPDEST SWAP2 POP PUSH2 0x29B3 PUSH2 0x29AB DUP7 PUSH2 0x2A24 JUMP JUMPDEST PUSH1 0x0 SWAP1 PUSH2 0x23C1 JUMP JUMPDEST SWAP1 POP PUSH2 0x29DB JUMP JUMPDEST PUSH2 0x29CD PUSH2 0x29C6 DUP6 PUSH2 0x2A24 JUMP JUMPDEST DUP4 SWAP1 PUSH2 0x23C1 JUMP JUMPDEST SWAP2 POP PUSH2 0x29D8 DUP6 PUSH2 0x2A24 JUMP JUMPDEST SWAP1 POP JUMPDEST PUSH1 0x0 DUP1 PUSH2 0x29EE DUP12 DUP10 DUP12 PUSH1 0x20 ADD MLOAD DUP7 PUSH2 0x35AD JUMP JUMPDEST SWAP1 SWAP3 POP SWAP1 POP PUSH2 0x2A15 PUSH2 0x2A0E PUSH4 0x3B9ACA00 PUSH2 0x2A08 DUP5 DUP7 PUSH2 0x23C1 JUMP JUMPDEST SWAP1 PUSH2 0x2440 JUMP JUMPDEST DUP6 SWAP1 PUSH2 0x352E JUMP JUMPDEST SWAP12 SWAP11 POP POP POP POP POP POP POP POP POP POP POP JUMP JUMPDEST PUSH1 0x0 PUSH32 0x8000000000000000000000000000000000000000000000000000000000000000 DUP3 LT PUSH2 0x2563 JUMPI INVALID JUMPDEST PUSH1 0x0 PUSH1 0x60 DUP3 PUSH1 0x0 ADD MLOAD PUSH1 0x40 MLOAD PUSH1 0x20 ADD DUP1 DUP3 DUP1 MLOAD SWAP1 PUSH1 0x20 ADD SWAP1 DUP1 DUP4 DUP4 JUMPDEST PUSH1 0x20 DUP4 LT PUSH2 0x2AA8 JUMPI DUP1 MLOAD DUP3 MSTORE PUSH32 0xFFFFFFFFFFFFFFFFFFFFFFFFFFFFFFFFFFFFFFFFFFFFFFFFFFFFFFFFFFFFFFE0 SWAP1 SWAP3 ADD SWAP2 PUSH1 0x20 SWAP2 DUP3 ADD SWAP2 ADD PUSH2 0x2A6B JUMP JUMPDEST PUSH1 0x1 DUP4 PUSH1 0x20 SUB PUSH2 0x100 EXP SUB DUP1 NOT DUP3 MLOAD AND DUP2 DUP5 MLOAD AND DUP1 DUP3 OR DUP6 MSTORE POP POP POP POP POP POP SWAP1 POP ADD SWAP2 POP POP PUSH1 0x40 MLOAD PUSH1 0x20 DUP2 DUP4 SUB SUB DUP2 MSTORE SWAP1 PUSH1 0x40 MSTORE DUP1 MLOAD SWAP1 PUSH1 0x20 ADD KECCAK256 DUP4 PUSH1 0x20 ADD MLOAD DUP5 PUSH1 0x40 ADD MLOAD DUP6 PUSH1 0x60 ADD MLOAD DUP7 PUSH1 0x80 ADD MLOAD DUP8 PUSH1 0xA0 ADD MLOAD DUP9 PUSH1 0xC0 ADD MLOAD PUSH1 0x40 MLOAD PUSH1 0x20 ADD DUP1 DUP9 DUP2 MSTORE PUSH1 0x20 ADD DUP8 PUSH5 0xFFFFFFFFFF AND PUSH1 0xD8 SHL DUP2 MSTORE PUSH1 0x5 ADD DUP7 PUSH3 0xFFFFFF AND PUSH1 0xE8 SHL DUP2 MSTORE PUSH1 0x3 ADD DUP6 PUSH1 0xFF AND PUSH1 0xF8 SHL DUP2 MSTORE PUSH1 0x1 ADD DUP5 PUSH1 0xFF AND PUSH1 0xF8 SHL DUP2 MSTORE PUSH1 0x1 ADD DUP4 PUSH1 0xFF AND PUSH1 0xF8 SHL DUP2 MSTORE PUSH1 0x1 ADD DUP3 PUSH1 0x0 SIGNEXTEND PUSH1 0xF8 SHL DUP2 MSTORE PUSH1 0x1 ADD SWAP8 POP POP POP POP POP POP POP POP PUSH1 0x40 MLOAD PUSH1 0x20 DUP2 DUP4 SUB SUB DUP2 MSTORE SWAP1 PUSH1 0x40 MSTORE SWAP1 POP PUSH1 0x1 PUSH1 0x4 DUP2 GT ISZERO PUSH2 0x2B83 JUMPI INVALID JUMPDEST DUP4 PUSH1 0x60 ADD MLOAD AND PUSH1 0xFF AND PUSH1 0x0 EQ ISZERO PUSH2 0x2C6B JUMPI DUP1 DUP4 PUSH2 0x1C0 ADD MLOAD PUSH1 0x40 MLOAD PUSH1 0x20 ADD DUP1 DUP4 DUP1 MLOAD SWAP1 PUSH1 0x20 ADD SWAP1 DUP1 DUP4 DUP4 JUMPDEST PUSH1 0x20 DUP4 LT PUSH2 0x2BEB JUMPI DUP1 MLOAD DUP3 MSTORE PUSH32 0xFFFFFFFFFFFFFFFFFFFFFFFFFFFFFFFFFFFFFFFFFFFFFFFFFFFFFFFFFFFFFFE0 SWAP1 SWAP3 ADD SWAP2 PUSH1 0x20 SWAP2 DUP3 ADD SWAP2 ADD PUSH2 0x2BAE JUMP JUMPDEST MLOAD DUP2 MLOAD PUSH1 0x20 SWAP4 DUP5 SUB PUSH2 0x100 EXP PUSH32 0xFFFFFFFFFFFFFFFFFFFFFFFFFFFFFFFFFFFFFFFFFFFFFFFFFFFFFFFFFFFFFFFF ADD DUP1 NOT SWAP1 SWAP3 AND SWAP2 AND OR SWAP1 MSTORE DUP6 MLOAD SWAP2 SWAP1 SWAP4 ADD SWAP3 DUP6 DUP2 ADD SWAP3 POP MUL DUP1 DUP4 DUP4 PUSH1 0x0 JUMPDEST DUP4 DUP2 LT ISZERO PUSH2 0x2C4E JUMPI DUP2 DUP2 ADD MLOAD DUP4 DUP3 ADD MSTORE PUSH1 0x20 ADD PUSH2 0x2C36 JUMP JUMPDEST POP POP POP POP SWAP1 POP ADD SWAP3 POP POP POP PUSH1 0x40 MLOAD PUSH1 0x20 DUP2 DUP4 SUB SUB DUP2 MSTORE SWAP1 PUSH1 0x40 MSTORE SWAP1 POP JUMPDEST DUP1 MLOAD PUSH1 0x20 SWAP1 SWAP2 ADD KECCAK256 SWAP3 SWAP2 POP POP JUMP JUMPDEST PUSH1 0x0 DUP1 PUSH1 0x40 MLOAD DUP1 PUSH1 0x40 ADD PUSH1 0x40 MSTORE DUP1 PUSH1 0x1E DUP2 MSTORE PUSH1 0x20 ADD PUSH32 0x19466163747369676E6572205369676E6564204D6573736167653A0A33320000 DUP2 MSTORE POP DUP5 PUSH1 0x40 MLOAD PUSH1 0x20 ADD DUP1 DUP4 DUP1 MLOAD SWAP1 PUSH1 0x20 ADD SWAP1 DUP1 DUP4 DUP4 PUSH1 0x20 DUP4 LT PUSH2 0x2797 JUMPI DUP1 MLOAD DUP3 MSTORE PUSH32 0xFFFFFFFFFFFFFFFFFFFFFFFFFFFFFFFFFFFFFFFFFFFFFFFFFFFFFFFFFFFFFFE0 SWAP1 SWAP3 ADD SWAP2 PUSH1 0x20 SWAP2 DUP3 ADD SWAP2 ADD PUSH2 0x275A JUMP JUMPDEST PUSH1 0x0 PUSH1 0x60 DUP3 PUSH1 0x0 ADD MLOAD PUSH1 0x40 MLOAD PUSH1 0x20 ADD DUP1 DUP3 DUP1 MLOAD SWAP1 PUSH1 0x20 ADD SWAP1 DUP1 DUP4 DUP4 JUMPDEST PUSH1 0x20 DUP4 LT PUSH2 0x2D5B JUMPI DUP1 MLOAD DUP3 MSTORE PUSH32 0xFFFFFFFFFFFFFFFFFFFFFFFFFFFFFFFFFFFFFFFFFFFFFFFFFFFFFFFFFFFFFFE0 SWAP1 SWAP3 ADD SWAP2 PUSH1 0x20 SWAP2 DUP3 ADD SWAP2 ADD PUSH2 0x2D1E JUMP JUMPDEST PUSH1 0x1 DUP4 PUSH1 0x20 SUB PUSH2 0x100 EXP SUB DUP1 NOT DUP3 MLOAD AND DUP2 DUP5 MLOAD AND DUP1 DUP3 OR DUP6 MSTORE POP POP POP POP POP POP SWAP1 POP ADD SWAP2 POP POP PUSH1 0x40 MLOAD PUSH1 0x20 DUP2 DUP4 SUB SUB DUP2 MSTORE SWAP1 PUSH1 0x40 MSTORE DUP1 MLOAD SWAP1 PUSH1 0x20 ADD KECCAK256 DUP4 PUSH1 0x20 ADD MLOAD DUP5 PUSH1 0x40 ADD MLOAD DUP6 PUSH1 0x60 ADD MLOAD DUP7 PUSH1 0x80 ADD MLOAD DUP8 PUSH1 0xA0 ADD MLOAD DUP9 PUSH1 0xC0 ADD MLOAD DUP10 PUSH2 0x100 ADD MLOAD DUP11 PUSH2 0x180 ADD MLOAD DUP12 PUSH2 0x1A0 ADD MLOAD DUP13 PUSH1 0xE0 ADD MLOAD PUSH1 0x40 MLOAD PUSH1 0x20 ADD DUP1 DUP13 DUP2 MSTORE PUSH1 0x20 ADD DUP12 PUSH5 0xFFFFFFFFFF AND PUSH1 0xD8 SHL DUP2 MSTORE PUSH1 0x5 ADD DUP11 PUSH3 0xFFFFFF AND PUSH1 0xE8 SHL DUP2 MSTORE PUSH1 0x3 ADD DUP10 PUSH1 0xFF AND PUSH1 0xF8 SHL DUP2 MSTORE PUSH1 0x1 ADD DUP9 PUSH1 0xFF AND PUSH1 0xF8 SHL DUP2 MSTORE PUSH1 0x1 ADD DUP8 PUSH1 0xFF AND PUSH1 0xF8 SHL DUP2 MSTORE PUSH1 0x1 ADD DUP7 PUSH1 0x0 SIGNEXTEND PUSH1 0xF8 SHL DUP2 MSTORE PUSH1 0x1 ADD DUP6 PUSH1 0xFF AND PUSH1 0xF8 SHL DUP2 MSTORE PUSH1 0x1 ADD DUP5 PUSH20 0xFFFFFFFFFFFFFFFFFFFFFFFFFFFFFFFFFFFFFFFF AND PUSH1 0x60 SHL DUP2 MSTORE PUSH1 0x14 ADD DUP4 PUSH20 0xFFFFFFFFFFFFFFFFFFFFFFFFFFFFFFFFFFFFFFFF AND PUSH1 0x60 SHL DUP2 MSTORE PUSH1 0x14 ADD DUP3 PUSH20 0xFFFFFFFFFFFFFFFFFFFFFFFFFFFFFFFFFFFFFFFF AND PUSH1 0x60 SHL DUP2 MSTORE PUSH1 0x14 ADD SWAP12 POP POP POP POP POP POP POP POP POP POP POP POP PUSH1 0x40 MLOAD PUSH1 0x20 DUP2 DUP4 SUB SUB DUP2 MSTORE SWAP1 PUSH1 0x40 MSTORE SWAP1 POP DUP1 DUP4 PUSH2 0x120 ADD MLOAD DUP5 PUSH2 0x140 ADD MLOAD DUP6 PUSH2 0x160 ADD MLOAD DUP7 PUSH2 0x1C0 ADD MLOAD PUSH1 0x40 MLOAD PUSH1 0x20 ADD DUP1 DUP7 DUP1 MLOAD SWAP1 PUSH1 0x20 ADD SWAP1 DUP1 DUP4 DUP4 JUMPDEST PUSH1 0x20 DUP4 LT PUSH2 0x2F16 JUMPI DUP1 MLOAD DUP3 MSTORE PUSH32 0xFFFFFFFFFFFFFFFFFFFFFFFFFFFFFFFFFFFFFFFFFFFFFFFFFFFFFFFFFFFFFFE0 SWAP1 SWAP3 ADD SWAP2 PUSH1 0x20 SWAP2 DUP3 ADD SWAP2 ADD PUSH2 0x2ED9 JUMP JUMPDEST PUSH1 0x1 DUP4 PUSH1 0x20 SUB PUSH2 0x100 EXP SUB DUP1 NOT DUP3 MLOAD AND DUP2 DUP5 MLOAD AND DUP1 DUP3 OR DUP6 MSTORE POP POP POP POP POP POP SWAP1 POP ADD DUP6 PUSH1 0xFF AND PUSH1 0xF8 SHL DUP2 MSTORE PUSH1 0x1 ADD DUP5 PUSH1 0xFF AND PUSH1 0xF8 SHL DUP2 MSTORE PUSH1 0x1 ADD DUP4 PUSH1 0xFF AND PUSH1 0xF8 SHL DUP2 MSTORE PUSH1 0x1 ADD DUP3 DUP1 MLOAD SWAP1 PUSH1 0x20 ADD SWAP1 PUSH1 0x20 MUL DUP1 DUP4 DUP4 PUSH1 0x0 JUMPDEST DUP4 DUP2 LT ISZERO PUSH2 0x2F85 JUMPI DUP2 DUP2 ADD MLOAD DUP4 DUP3 ADD MSTORE PUSH1 0x20 ADD PUSH2 0x2F6D JUMP JUMPDEST POP POP POP POP SWAP1 POP ADD SWAP6 POP POP POP POP POP POP PUSH1 0x40 MLOAD PUSH1 0x20 DUP2 DUP4 SUB SUB DUP2 MSTORE SWAP1 PUSH1 0x40 MSTORE SWAP1 POP DUP1 DUP1 MLOAD SWAP1 PUSH1 0x20 ADD KECCAK256 SWAP2 POP POP SWAP2 SWAP1 POP JUMP JUMPDEST PUSH1 0x0 PUSH1 0x60 PUSH1 0x40 MLOAD DUP1 PUSH1 0x60 ADD PUSH1 0x40 MSTORE DUP1 PUSH1 0x2A DUP2 MSTORE PUSH1 0x20 ADD PUSH2 0x47EA PUSH1 0x2A SWAP2 CODECOPY PUSH1 0x1 DUP5 ADD PUSH1 0x6 MUL ADD MLOAD SWAP2 POP POP SWAP2 SWAP1 POP JUMP JUMPDEST PUSH1 0x0 PUSH2 0x2FEC PUSH2 0x374E JUMP JUMPDEST POP DUP3 MLOAD DUP1 MLOAD PUSH1 0x0 SWAP1 DUP2 MSTORE PUSH1 0x4 PUSH1 0x20 MSTORE PUSH1 0x40 DUP1 DUP3 KECCAK256 SWAP1 DUP4 ADD MLOAD DUP3 SWAP2 SWAP1 DUP3 SWAP1 DUP2 SWAP1 ISZERO PUSH2 0x301D JUMPI POP POP PUSH1 0xE0 DUP5 ADD MLOAD CALLER PUSH2 0x3027 JUMP JUMPDEST POP POP PUSH1 0xE0 DUP5 ADD MLOAD CALLER SWAP1 JUMPDEST PUSH1 0x0 DUP1 PUSH1 0x0 PUSH2 0x3036 DUP13 DUP13 PUSH2 0xA96 JUMP JUMPDEST SWAP3 SWAP12 POP SWAP3 SWAP10 POP SWAP5 POP SWAP1 SWAP3 POP SWAP1 POP DUP7 PUSH2 0x3059 JUMPI DUP11 SWAP10 POP POP POP POP POP POP POP POP POP POP PUSH2 0x1F55 JUMP JUMPDEST PUSH2 0x3062 DUP4 PUSH2 0x2557 JUMP JUMPDEST PUSH1 0xE0 DUP11 ADD MLOAD PUSH20 0xFFFFFFFFFFFFFFFFFFFFFFFFFFFFFFFFFFFFFFFF AND PUSH1 0x0 SWAP1 DUP2 MSTORE PUSH1 0x3 PUSH1 0x20 MSTORE PUSH1 0x40 SWAP1 KECCAK256 SSTORE PUSH2 0x3095 DUP3 PUSH2 0x2557 JUMP JUMPDEST CALLER PUSH1 0x0 SWAP1 DUP2 MSTORE PUSH1 0x3 PUSH1 0x20 MSTORE PUSH1 0x40 SWAP1 KECCAK256 SSTORE DUP6 SLOAD PUSH2 0x30CC SWAP1 PUSH2 0x30C7 SWAP1 PUSH16 0xFFFFFFFFFFFFFFFFFFFFFFFFFFFFFFFF AND DUP4 PUSH2 0x2567 JUMP JUMPDEST PUSH2 0x366E JUMP JUMPDEST DUP7 SLOAD PUSH32 0xFFFFFFFFFFFFFFFFFFFFFFFFFFFFFFFF00000000000000000000000000000000 AND PUSH16 0xFFFFFFFFFFFFFFFFFFFFFFFFFFFFFFFF SWAP2 SWAP1 SWAP2 AND OR DUP7 SSTORE PUSH2 0x3110 PUSH2 0x3737 JUMP JUMPDEST POP PUSH20 0xFFFFFFFFFFFFFFFFFFFFFFFFFFFFFFFFFFFFFFFF DUP6 AND PUSH1 0x0 SWAP1 DUP2 MSTORE PUSH1 0x6 DUP8 ADD PUSH1 0x20 SWAP1 DUP2 MSTORE PUSH1 0x40 DUP1 DUP4 KECCAK256 DUP13 DUP4 ADD MLOAD PUSH2 0xFFFF AND DUP5 MSTORE DUP1 DUP4 MSTORE SWAP3 DUP2 SWAP1 KECCAK256 DUP2 MLOAD DUP1 DUP4 ADD SWAP1 SWAP3 MSTORE SLOAD PUSH1 0xF SWAP1 DUP2 SIGNEXTEND DUP2 SIGNEXTEND DUP2 SIGNEXTEND DUP1 DUP4 MSTORE PUSH1 0x1 SWAP4 DUP4 ADD SWAP4 SWAP1 SWAP4 MSTORE SWAP1 SWAP3 SWAP2 PUSH2 0x3182 SWAP2 PUSH2 0x317D SWAP2 SWAP1 SIGNEXTEND DUP12 PUSH2 0x352E JUMP JUMPDEST PUSH2 0x368B JUMP JUMPDEST PUSH1 0xF SWAP1 DUP2 SIGNEXTEND DUP2 SIGNEXTEND DUP4 MSTORE PUSH1 0x20 DUP13 DUP2 ADD DUP1 MLOAD PUSH2 0xFFFF SWAP1 DUP2 AND PUSH1 0x0 SWAP1 DUP2 MSTORE SWAP5 DUP4 MSTORE PUSH1 0x40 DUP1 DUP7 KECCAK256 DUP8 MLOAD DUP2 SLOAD SWAP9 DUP7 ADD MLOAD PUSH32 0xFFFFFFFFFFFFFFFFFFFFFFFFFFFFFFFF00000000000000000000000000000000 SWAP1 SWAP10 AND PUSH16 0xFFFFFFFFFFFFFFFFFFFFFFFFFFFFFFFF SWAP2 DUP9 SIGNEXTEND SWAP2 SWAP1 SWAP2 AND OR PUSH32 0xFFFFFFFFFFFFFFFFFFFFFFFFFFFFFF00FFFFFFFFFFFFFFFFFFFFFFFFFFFFFFFF AND PUSH17 0x100000000000000000000000000000000 PUSH1 0xFF SWAP10 DUP11 AND DUP2 MUL SWAP2 SWAP1 SWAP2 OR SWAP1 SWAP2 SSTORE PUSH20 0xFFFFFFFFFFFFFFFFFFFFFFFFFFFFFFFFFFFFFFFF DUP13 AND DUP8 MSTORE PUSH1 0x6 DUP15 ADD DUP6 MSTORE DUP2 DUP8 KECCAK256 SWAP4 MLOAD SWAP1 SWAP3 AND DUP7 MSTORE DUP3 DUP5 MSTORE SWAP5 DUP6 SWAP1 KECCAK256 DUP6 MLOAD DUP1 DUP8 ADD SWAP1 SWAP7 MSTORE SLOAD DUP1 DUP6 SIGNEXTEND DUP6 SIGNEXTEND DUP6 SIGNEXTEND DUP1 DUP8 MSTORE SWAP2 SWAP1 DIV SWAP1 SWAP6 AND SWAP2 DUP5 ADD SWAP2 SWAP1 SWAP2 MSTORE SWAP2 SWAP3 PUSH2 0x328E SWAP2 PUSH2 0x317D SWAP2 SWAP1 SIGNEXTEND DUP12 PUSH2 0x23C1 JUMP JUMPDEST PUSH1 0xF SWAP1 DUP2 SIGNEXTEND DUP2 SIGNEXTEND DUP4 MSTORE PUSH1 0x1 PUSH1 0x20 DUP1 DUP6 ADD SWAP2 DUP3 MSTORE DUP14 DUP2 ADD MLOAD PUSH2 0xFFFF AND PUSH1 0x0 SWAP1 DUP2 MSTORE SWAP4 DUP2 MSTORE PUSH1 0x40 DUP1 DUP6 KECCAK256 SWAP6 MLOAD DUP7 SLOAD SWAP4 MLOAD PUSH1 0xFF AND PUSH17 0x100000000000000000000000000000000 MUL PUSH32 0xFFFFFFFFFFFFFFFFFFFFFFFFFFFFFF00FFFFFFFFFFFFFFFFFFFFFFFFFFFFFFFF SWAP2 SWAP1 SWAP6 SIGNEXTEND PUSH16 0xFFFFFFFFFFFFFFFFFFFFFFFFFFFFFFFF AND PUSH32 0xFFFFFFFFFFFFFFFFFFFFFFFFFFFFFFFF00000000000000000000000000000000 SWAP1 SWAP5 AND SWAP4 SWAP1 SWAP4 OR SWAP3 SWAP1 SWAP3 AND SWAP3 SWAP1 SWAP3 OR SWAP1 SWAP4 SSTORE DUP11 DUP3 MSTORE PUSH1 0x7 DUP10 ADD SWAP1 MSTORE KECCAK256 SLOAD PUSH2 0x3351 SWAP1 DUP9 PUSH2 0x2567 JUMP JUMPDEST DUP7 PUSH1 0x7 ADD PUSH1 0x0 DUP11 DUP2 MSTORE PUSH1 0x20 ADD SWAP1 DUP2 MSTORE PUSH1 0x20 ADD PUSH1 0x0 KECCAK256 DUP2 SWAP1 SSTORE POP DUP9 PUSH1 0x0 ADD MLOAD DUP5 PUSH20 0xFFFFFFFFFFFFFFFFFFFFFFFFFFFFFFFFFFFFFFFF AND DUP7 PUSH20 0xFFFFFFFFFFFFFFFFFFFFFFFFFFFFFFFFFFFFFFFF AND PUSH32 0x7881338EB26BC3F4EB2D539721BA87C61744A77CCEF589C34A5AD54AF21FADF2 TIMESTAMP DUP14 PUSH1 0x20 ADD MLOAD DUP15 PUSH1 0x60 ADD MLOAD DUP14 DUP16 PUSH1 0x40 MLOAD PUSH2 0x33DC SWAP6 SWAP5 SWAP4 SWAP3 SWAP2 SWAP1 PUSH2 0x4730 JUMP JUMPDEST PUSH1 0x40 MLOAD DUP1 SWAP2 SUB SWAP1 LOG4 PUSH2 0x33EE DUP12 DUP9 PUSH2 0x26CB JUMP JUMPDEST SWAP13 SWAP12 POP POP POP POP POP POP POP POP POP POP POP POP JUMP JUMPDEST PUSH1 0x0 DUP2 DUP5 DUP5 GT ISZERO PUSH2 0x34A7 JUMPI PUSH1 0x40 MLOAD PUSH32 0x8C379A000000000000000000000000000000000000000000000000000000000 DUP2 MSTORE PUSH1 0x4 ADD DUP1 DUP1 PUSH1 0x20 ADD DUP3 DUP2 SUB DUP3 MSTORE DUP4 DUP2 DUP2 MLOAD DUP2 MSTORE PUSH1 0x20 ADD SWAP2 POP DUP1 MLOAD SWAP1 PUSH1 0x20 ADD SWAP1 DUP1 DUP4 DUP4 PUSH1 0x0 JUMPDEST DUP4 DUP2 LT ISZERO PUSH2 0x346C JUMPI DUP2 DUP2 ADD MLOAD DUP4 DUP3 ADD MSTORE PUSH1 0x20 ADD PUSH2 0x3454 JUMP JUMPDEST POP POP POP POP SWAP1 POP SWAP1 DUP2 ADD SWAP1 PUSH1 0x1F AND DUP1 ISZERO PUSH2 0x3499 JUMPI DUP1 DUP3 SUB DUP1 MLOAD PUSH1 0x1 DUP4 PUSH1 0x20 SUB PUSH2 0x100 EXP SUB NOT AND DUP2 MSTORE PUSH1 0x20 ADD SWAP2 POP JUMPDEST POP SWAP3 POP POP POP PUSH1 0x40 MLOAD DUP1 SWAP2 SUB SWAP1 REVERT JUMPDEST POP POP POP SWAP1 SUB SWAP1 JUMP JUMPDEST PUSH1 0x0 DUP2 DUP4 PUSH2 0x3518 JUMPI PUSH1 0x40 MLOAD PUSH32 0x8C379A000000000000000000000000000000000000000000000000000000000 DUP2 MSTORE PUSH1 0x20 PUSH1 0x4 DUP3 ADD DUP2 DUP2 MSTORE DUP4 MLOAD PUSH1 0x24 DUP5 ADD MSTORE DUP4 MLOAD SWAP1 SWAP3 DUP4 SWAP3 PUSH1 0x44 SWAP1 SWAP2 ADD SWAP2 SWAP1 DUP6 ADD SWAP1 DUP1 DUP4 DUP4 PUSH1 0x0 DUP4 ISZERO PUSH2 0x346C JUMPI DUP2 DUP2 ADD MLOAD DUP4 DUP3 ADD MSTORE PUSH1 0x20 ADD PUSH2 0x3454 JUMP JUMPDEST POP PUSH1 0x0 DUP4 DUP6 DUP2 PUSH2 0x3524 JUMPI INVALID JUMPDEST DIV SWAP6 SWAP5 POP POP POP POP POP JUMP JUMPDEST PUSH1 0x0 DUP3 DUP3 ADD DUP2 DUP4 SLT DUP1 ISZERO SWAP1 PUSH2 0x3543 JUMPI POP DUP4 DUP2 SLT ISZERO JUMPDEST DUP1 PUSH2 0x3558 JUMPI POP PUSH1 0x0 DUP4 SLT DUP1 ISZERO PUSH2 0x3558 JUMPI POP DUP4 DUP2 SLT JUMPDEST PUSH2 0x1292 JUMPI PUSH1 0x40 MLOAD PUSH32 0x8C379A000000000000000000000000000000000000000000000000000000000 DUP2 MSTORE PUSH1 0x4 ADD DUP1 DUP1 PUSH1 0x20 ADD DUP3 DUP2 SUB DUP3 MSTORE PUSH1 0x21 DUP2 MSTORE PUSH1 0x20 ADD DUP1 PUSH2 0x47A8 PUSH1 0x21 SWAP2 CODECOPY PUSH1 0x40 ADD SWAP2 POP POP PUSH1 0x40 MLOAD DUP1 SWAP2 SUB SWAP1 REVERT JUMPDEST PUSH1 0x5 DUP5 ADD SLOAD PUSH20 0xFFFFFFFFFFFFFFFFFFFFFFFFFFFFFFFFFFFFFFFF DUP5 AND PUSH1 0x0 SWAP1 DUP2 MSTORE PUSH1 0x6 DUP7 ADD PUSH1 0x20 MSTORE PUSH1 0x40 DUP2 KECCAK256 SWAP1 SWAP2 DUP3 SWAP2 PUSH32 0x7FFFFFFFFFFFFFFFFFFFFFFFFFFFFFFFFFFFFFFFFFFFFFFFFFFFFFFFFFFFFFFF SWAP2 DUP3 SWAP2 DUP5 DUP1 JUMPDEST DUP4 DUP2 GT PUSH2 0x365C JUMPI PUSH1 0x0 DUP2 DUP2 MSTORE PUSH1 0x20 DUP5 SWAP1 MSTORE PUSH1 0x40 SWAP1 KECCAK256 SLOAD PUSH1 0xF SWAP1 DUP2 SIGNEXTEND SWAP1 SIGNEXTEND SWAP2 POP DUP6 DUP3 SLT ISZERO PUSH2 0x362F JUMPI DUP2 SWAP6 POP JUMPDEST DUP10 PUSH2 0xFFFF AND DUP2 EQ ISZERO PUSH2 0x3648 JUMPI PUSH2 0x3645 DUP3 DUP11 PUSH2 0x352E JUMP JUMPDEST SWAP2 POP JUMPDEST DUP5 DUP3 SLT ISZERO PUSH2 0x3654 JUMPI DUP2 SWAP5 POP JUMPDEST PUSH1 0x1 ADD PUSH2 0x3604 JUMP JUMPDEST POP SWAP4 SWAP11 SWAP3 SWAP10 POP SWAP2 SWAP8 POP POP POP POP POP POP POP POP JUMP JUMPDEST PUSH1 0x0 DUP2 DUP3 PUSH16 0xFFFFFFFFFFFFFFFFFFFFFFFFFFFFFFFF AND EQ PUSH2 0x2563 JUMPI INVALID JUMPDEST PUSH1 0x0 DUP2 DUP3 PUSH1 0xF SIGNEXTEND EQ PUSH2 0x2563 JUMPI INVALID JUMPDEST PUSH1 0x40 DUP1 MLOAD PUSH1 0x60 DUP2 ADD DUP3 MSTORE PUSH1 0x0 DUP1 DUP3 MSTORE PUSH1 0x20 DUP3 ADD DUP2 SWAP1 MSTORE SWAP2 DUP2 ADD SWAP2 SWAP1 SWAP2 MSTORE SWAP1 JUMP JUMPDEST PUSH1 0x40 DUP1 MLOAD PUSH2 0x1E0 DUP2 ADD DUP3 MSTORE PUSH1 0x60 DUP1 DUP3 MSTORE PUSH1 0x0 PUSH1 0x20 DUP4 ADD DUP2 SWAP1 MSTORE SWAP3 DUP3 ADD DUP4 SWAP1 MSTORE DUP1 DUP3 ADD DUP4 SWAP1 MSTORE PUSH1 0x80 DUP3 ADD DUP4 SWAP1 MSTORE PUSH1 0xA0 DUP3 ADD DUP4 SWAP1 MSTORE PUSH1 0xC0 DUP3 ADD DUP4 SWAP1 MSTORE PUSH1 0xE0 DUP3 ADD DUP4 SWAP1 MSTORE PUSH2 0x100 DUP3 ADD DUP4 SWAP1 MSTORE PUSH2 0x120 DUP3 ADD DUP4 SWAP1 MSTORE PUSH2 0x140 DUP3 ADD DUP4 SWAP1 MSTORE PUSH2 0x160 DUP3 ADD DUP4 SWAP1 MSTORE PUSH2 0x180 DUP3 ADD DUP4 SWAP1 MSTORE PUSH2 0x1A0 DUP3 ADD SWAP3 SWAP1 SWAP3 MSTORE PUSH2 0x1C0 DUP2 ADD SWAP2 SWAP1 SWAP2 MSTORE SWAP1 JUMP JUMPDEST PUSH1 0x40 DUP1 MLOAD DUP1 DUP3 ADD SWAP1 SWAP2 MSTORE PUSH1 0x0 DUP1 DUP3 MSTORE PUSH1 0x20 DUP3 ADD MSTORE SWAP1 JUMP JUMPDEST PUSH1 0x40 DUP1 MLOAD PUSH2 0x100 DUP2 ADD DUP3 MSTORE PUSH1 0x0 DUP1 DUP3 MSTORE PUSH1 0x20 DUP3 ADD DUP2 SWAP1 MSTORE SWAP2 DUP2 ADD DUP3 SWAP1 MSTORE PUSH1 0x60 DUP2 ADD DUP3 SWAP1 MSTORE PUSH1 0x80 DUP2 ADD DUP3 SWAP1 MSTORE PUSH1 0xA0 DUP2 ADD DUP3 SWAP1 MSTORE PUSH1 0xC0 DUP2 ADD DUP3 SWAP1 MSTORE PUSH1 0xE0 DUP2 ADD SWAP2 SWAP1 SWAP2 MSTORE SWAP1 JUMP JUMPDEST DUP3 DUP1 SLOAD PUSH1 0x1 DUP2 PUSH1 0x1 AND ISZERO PUSH2 0x100 MUL SUB AND PUSH1 0x2 SWAP1 DIV SWAP1 PUSH1 0x0 MSTORE PUSH1 0x20 PUSH1 0x0 KECCAK256 SWAP1 PUSH1 0x1F ADD PUSH1 0x20 SWAP1 DIV DUP2 ADD SWAP3 DUP3 PUSH2 0x37C8 JUMPI PUSH1 0x0 DUP6 SSTORE PUSH2 0x380E JUMP JUMPDEST DUP3 PUSH1 0x1F LT PUSH2 0x37E1 JUMPI DUP1 MLOAD PUSH1 0xFF NOT AND DUP4 DUP1 ADD OR DUP6 SSTORE PUSH2 0x380E JUMP JUMPDEST DUP3 DUP1 ADD PUSH1 0x1 ADD DUP6 SSTORE DUP3 ISZERO PUSH2 0x380E JUMPI SWAP2 DUP3 ADD JUMPDEST DUP3 DUP2 GT ISZERO PUSH2 0x380E JUMPI DUP3 MLOAD DUP3 SSTORE SWAP2 PUSH1 0x20 ADD SWAP2 SWAP1 PUSH1 0x1 ADD SWAP1 PUSH2 0x37F3 JUMP JUMPDEST POP PUSH2 0x2563 SWAP3 SWAP2 POP PUSH2 0x394B JUMP JUMPDEST DUP3 DUP1 SLOAD DUP3 DUP3 SSTORE SWAP1 PUSH1 0x0 MSTORE PUSH1 0x20 PUSH1 0x0 KECCAK256 SWAP1 PUSH1 0x1 ADD PUSH1 0x2 SWAP1 DIV DUP2 ADD SWAP3 DUP3 ISZERO PUSH2 0x380E JUMPI SWAP2 PUSH1 0x20 MUL DUP3 ADD PUSH1 0x0 JUMPDEST DUP4 DUP3 GT ISZERO PUSH2 0x38A2 JUMPI DUP4 MLOAD DUP4 DUP3 PUSH2 0x100 EXP DUP2 SLOAD DUP2 PUSH16 0xFFFFFFFFFFFFFFFFFFFFFFFFFFFFFFFF MUL NOT AND SWAP1 DUP4 PUSH1 0xF SIGNEXTEND PUSH16 0xFFFFFFFFFFFFFFFFFFFFFFFFFFFFFFFF AND MUL OR SWAP1 SSTORE POP SWAP3 PUSH1 0x20 ADD SWAP3 PUSH1 0x10 ADD PUSH1 0x20 DUP2 PUSH1 0xF ADD DIV SWAP3 DUP4 ADD SWAP3 PUSH1 0x1 SUB MUL PUSH2 0x3843 JUMP JUMPDEST DUP1 ISZERO PUSH2 0x38DE JUMPI DUP3 DUP2 PUSH2 0x100 EXP DUP2 SLOAD SWAP1 PUSH16 0xFFFFFFFFFFFFFFFFFFFFFFFFFFFFFFFF MUL NOT AND SWAP1 SSTORE PUSH1 0x10 ADD PUSH1 0x20 DUP2 PUSH1 0xF ADD DIV SWAP3 DUP4 ADD SWAP3 PUSH1 0x1 SUB MUL PUSH2 0x38A2 JUMP JUMPDEST POP POP PUSH2 0x2563 SWAP3 SWAP2 POP PUSH2 0x394B JUMP JUMPDEST PUSH1 0x40 MLOAD DUP1 PUSH1 0xA0 ADD PUSH1 0x40 MSTORE DUP1 PUSH2 0x38FE PUSH2 0x36B9 JUMP JUMPDEST DUP2 MSTORE PUSH1 0x20 ADD PUSH2 0x390B PUSH2 0x3699 JUMP JUMPDEST DUP2 MSTORE PUSH1 0x0 PUSH1 0x20 DUP3 ADD DUP2 SWAP1 MSTORE PUSH1 0x40 DUP3 ADD DUP2 SWAP1 MSTORE PUSH1 0x60 SWAP1 SWAP2 ADD MSTORE SWAP1 JUMP JUMPDEST PUSH1 0x40 MLOAD DUP1 PUSH1 0x40 ADD PUSH1 0x40 MSTORE DUP1 PUSH2 0x3939 PUSH2 0x374E JUMP JUMPDEST DUP2 MSTORE PUSH1 0x20 ADD PUSH2 0x3946 PUSH2 0x3699 JUMP JUMPDEST SWAP1 MSTORE SWAP1 JUMP JUMPDEST JUMPDEST DUP1 DUP3 GT ISZERO PUSH2 0x2563 JUMPI PUSH1 0x0 DUP2 SSTORE PUSH1 0x1 ADD PUSH2 0x394C JUMP JUMPDEST DUP1 CALLDATALOAD PUSH20 0xFFFFFFFFFFFFFFFFFFFFFFFFFFFFFFFFFFFFFFFF DUP2 AND DUP2 EQ PUSH2 0x63B JUMPI PUSH1 0x0 DUP1 REVERT JUMPDEST PUSH1 0x0 DUP3 PUSH1 0x1F DUP4 ADD SLT PUSH2 0x3994 JUMPI DUP1 DUP2 REVERT JUMPDEST DUP2 CALLDATALOAD PUSH2 0x39A7 PUSH2 0x39A2 DUP3 PUSH2 0x4789 JUMP JUMPDEST PUSH2 0x4765 JUMP JUMPDEST DUP2 DUP2 MSTORE SWAP2 POP PUSH1 0x20 DUP1 DUP4 ADD SWAP1 DUP5 DUP2 ADD DUP2 DUP5 MUL DUP7 ADD DUP3 ADD DUP8 LT ISZERO PUSH2 0x39C8 JUMPI PUSH1 0x0 DUP1 REVERT JUMPDEST PUSH1 0x0 JUMPDEST DUP5 DUP2 LT ISZERO PUSH2 0x39EE JUMPI PUSH2 0x39DC DUP3 PUSH2 0x3960 JUMP JUMPDEST DUP5 MSTORE SWAP3 DUP3 ADD SWAP3 SWAP1 DUP3 ADD SWAP1 PUSH1 0x1 ADD PUSH2 0x39CB JUMP JUMPDEST POP POP POP POP POP SWAP3 SWAP2 POP POP JUMP JUMPDEST PUSH1 0x0 DUP3 PUSH1 0x1F DUP4 ADD SLT PUSH2 0x3A09 JUMPI DUP1 DUP2 REVERT JUMPDEST DUP2 CALLDATALOAD PUSH2 0x3A17 PUSH2 0x39A2 DUP3 PUSH2 0x4789 JUMP JUMPDEST DUP2 DUP2 MSTORE SWAP2 POP PUSH1 0x20 DUP1 DUP4 ADD SWAP1 DUP5 DUP2 ADD DUP2 DUP5 MUL DUP7 ADD DUP3 ADD DUP8 LT ISZERO PUSH2 0x3A38 JUMPI PUSH1 0x0 DUP1 REVERT JUMPDEST PUSH1 0x0 JUMPDEST DUP5 DUP2 LT ISZERO PUSH2 0x39EE JUMPI DUP2 CALLDATALOAD DUP5 MSTORE SWAP3 DUP3 ADD SWAP3 SWAP1 DUP3 ADD SWAP1 PUSH1 0x1 ADD PUSH2 0x3A3B JUMP JUMPDEST PUSH1 0x0 DUP3 PUSH1 0x1F DUP4 ADD SLT PUSH2 0x3A67 JUMPI DUP1 DUP2 REVERT JUMPDEST DUP2 CALLDATALOAD PUSH2 0x3A75 PUSH2 0x39A2 DUP3 PUSH2 0x4789 JUMP JUMPDEST DUP2 DUP2 MSTORE SWAP2 POP PUSH1 0x20 DUP1 DUP4 ADD SWAP1 DUP5 DUP2 ADD DUP2 DUP5 MUL DUP7 ADD DUP3 ADD DUP8 LT ISZERO PUSH2 0x3A96 JUMPI PUSH1 0x0 DUP1 REVERT JUMPDEST PUSH1 0x0 DUP1 JUMPDEST DUP6 DUP2 LT ISZERO PUSH2 0x3AC4 JUMPI DUP3 CALLDATALOAD DUP1 PUSH1 0xF SIGNEXTEND DUP2 EQ PUSH2 0x3AB2 JUMPI DUP3 DUP4 REVERT JUMPDEST DUP6 MSTORE SWAP4 DUP4 ADD SWAP4 SWAP2 DUP4 ADD SWAP2 PUSH1 0x1 ADD PUSH2 0x3A9A JUMP JUMPDEST POP POP POP POP POP POP SWAP3 SWAP2 POP POP JUMP JUMPDEST DUP1 CALLDATALOAD DUP1 ISZERO ISZERO DUP2 EQ PUSH2 0x63B JUMPI PUSH1 0x0 DUP1 REVERT JUMPDEST DUP1 CALLDATALOAD PUSH1 0x0 DUP2 SWAP1 SIGNEXTEND DUP2 EQ PUSH2 0x63B JUMPI PUSH1 0x0 DUP1 REVERT JUMPDEST PUSH1 0x0 DUP3 PUSH1 0x1F DUP4 ADD SLT PUSH2 0x3B02 JUMPI DUP1 DUP2 REVERT JUMPDEST DUP2 CALLDATALOAD PUSH8 0xFFFFFFFFFFFFFFFF DUP2 GT ISZERO PUSH2 0x3B16 JUMPI INVALID JUMPDEST PUSH2 0x3B47 PUSH1 0x20 PUSH32 0xFFFFFFFFFFFFFFFFFFFFFFFFFFFFFFFFFFFFFFFFFFFFFFFFFFFFFFFFFFFFFFE0 PUSH1 0x1F DUP5 ADD AND ADD PUSH2 0x4765 JUMP JUMPDEST SWAP2 POP DUP1 DUP3 MSTORE DUP4 PUSH1 0x20 DUP3 DUP6 ADD ADD GT ISZERO PUSH2 0x3B5E JUMPI PUSH1 0x0 DUP1 REVERT JUMPDEST DUP1 PUSH1 0x20 DUP5 ADD PUSH1 0x20 DUP5 ADD CALLDATACOPY PUSH1 0x0 SWAP1 DUP3 ADD PUSH1 0x20 ADD MSTORE SWAP3 SWAP2 POP POP JUMP JUMPDEST PUSH1 0x0 DUP2 DUP4 SUB PUSH2 0x160 DUP2 SLT ISZERO PUSH2 0x3B8A JUMPI DUP2 DUP3 REVERT JUMPDEST PUSH1 0x40 MLOAD PUSH1 0x40 DUP2 ADD PUSH8 0xFFFFFFFFFFFFFFFF DUP3 DUP3 LT DUP2 DUP4 GT OR ISZERO PUSH2 0x3BA8 JUMPI INVALID JUMPDEST DUP2 PUSH1 0x40 MSTORE DUP3 SWAP5 POP PUSH2 0x100 DUP1 DUP6 SLT ISZERO PUSH2 0x3BBF JUMPI PUSH1 0x0 DUP1 REVERT JUMPDEST PUSH2 0x140 DUP5 ADD SWAP5 POP DUP3 DUP6 LT DUP3 DUP7 GT OR ISZERO PUSH2 0x3BD4 JUMPI INVALID JUMPDEST DUP5 PUSH1 0x40 MSTORE DUP7 CALLDATALOAD DUP4 MSTORE PUSH2 0x3BE8 PUSH1 0x20 DUP9 ADD PUSH2 0x3CB0 JUMP JUMPDEST PUSH1 0x60 DUP6 ADD MSTORE PUSH2 0x3BF9 PUSH1 0x40 DUP9 ADD PUSH2 0x3AD0 JUMP JUMPDEST PUSH1 0x80 DUP6 ADD MSTORE PUSH1 0x60 DUP8 ADD CALLDATALOAD PUSH1 0xA0 DUP6 ADD MSTORE PUSH1 0x80 DUP8 ADD CALLDATALOAD PUSH1 0xC0 DUP6 ADD MSTORE PUSH1 0xA0 DUP8 ADD CALLDATALOAD PUSH1 0xE0 DUP6 ADD MSTORE PUSH1 0xC0 DUP8 ADD CALLDATALOAD DUP2 DUP6 ADD MSTORE PUSH2 0x3C31 PUSH1 0xE0 DUP9 ADD PUSH2 0x3960 JUMP JUMPDEST PUSH2 0x120 DUP6 ADD MSTORE DUP3 DUP5 MSTORE PUSH2 0x3C46 DUP9 DUP3 DUP10 ADD PUSH2 0x3C56 JUMP JUMPDEST PUSH1 0x20 DUP6 ADD MSTORE POP POP POP POP POP SWAP3 SWAP2 POP POP JUMP JUMPDEST PUSH1 0x0 PUSH1 0x60 DUP3 DUP5 SUB SLT ISZERO PUSH2 0x3C67 JUMPI DUP1 DUP2 REVERT JUMPDEST PUSH1 0x40 MLOAD PUSH1 0x60 DUP2 ADD DUP2 DUP2 LT PUSH8 0xFFFFFFFFFFFFFFFF DUP3 GT OR ISZERO PUSH2 0x3C84 JUMPI INVALID JUMPDEST PUSH1 0x40 MSTORE SWAP1 POP DUP1 PUSH2 0x3C93 DUP4 PUSH2 0x3CEA JUMP JUMPDEST DUP2 MSTORE PUSH1 0x20 DUP4 ADD CALLDATALOAD PUSH1 0x20 DUP3 ADD MSTORE PUSH1 0x40 DUP4 ADD CALLDATALOAD PUSH1 0x40 DUP3 ADD MSTORE POP SWAP3 SWAP2 POP POP JUMP JUMPDEST DUP1 CALLDATALOAD PUSH2 0xFFFF DUP2 AND DUP2 EQ PUSH2 0x63B JUMPI PUSH1 0x0 DUP1 REVERT JUMPDEST DUP1 CALLDATALOAD PUSH3 0xFFFFFF DUP2 AND DUP2 EQ PUSH2 0x63B JUMPI PUSH1 0x0 DUP1 REVERT JUMPDEST DUP1 CALLDATALOAD PUSH5 0xFFFFFFFFFF DUP2 AND DUP2 EQ PUSH2 0x63B JUMPI PUSH1 0x0 DUP1 REVERT JUMPDEST DUP1 CALLDATALOAD PUSH1 0xFF DUP2 AND DUP2 EQ PUSH2 0x63B JUMPI PUSH1 0x0 DUP1 REVERT JUMPDEST PUSH1 0x0 PUSH1 0x20 DUP3 DUP5 SUB SLT ISZERO PUSH2 0x3D0C JUMPI DUP1 DUP2 REVERT JUMPDEST PUSH2 0x1292 DUP3 PUSH2 0x3960 JUMP JUMPDEST PUSH1 0x0 DUP1 PUSH1 0x0 PUSH1 0x40 DUP5 DUP7 SUB SLT ISZERO PUSH2 0x3D29 JUMPI DUP2 DUP3 REVERT JUMPDEST PUSH2 0x3D32 DUP5 PUSH2 0x3960 JUMP JUMPDEST SWAP3 POP PUSH1 0x20 DUP5 ADD CALLDATALOAD PUSH8 0xFFFFFFFFFFFFFFFF DUP1 DUP3 GT ISZERO PUSH2 0x3D4E JUMPI DUP4 DUP5 REVERT JUMPDEST DUP2 DUP7 ADD SWAP2 POP DUP7 PUSH1 0x1F DUP4 ADD SLT PUSH2 0x3D61 JUMPI DUP4 DUP5 REVERT JUMPDEST DUP2 CALLDATALOAD DUP2 DUP2 GT ISZERO PUSH2 0x3D6F JUMPI DUP5 DUP6 REVERT JUMPDEST DUP8 PUSH1 0x20 DUP1 DUP4 MUL DUP6 ADD ADD GT ISZERO PUSH2 0x3D82 JUMPI DUP5 DUP6 REVERT JUMPDEST PUSH1 0x20 DUP4 ADD SWAP5 POP DUP1 SWAP4 POP POP POP POP SWAP3 POP SWAP3 POP SWAP3 JUMP JUMPDEST PUSH1 0x0 DUP1 PUSH1 0x40 DUP4 DUP6 SUB SLT ISZERO PUSH2 0x3DA7 JUMPI DUP2 DUP3 REVERT JUMPDEST PUSH2 0x3DB0 DUP4 PUSH2 0x3960 JUMP JUMPDEST SWAP5 PUSH1 0x20 SWAP4 SWAP1 SWAP4 ADD CALLDATALOAD SWAP4 POP POP POP JUMP JUMPDEST PUSH1 0x0 DUP1 PUSH1 0x40 DUP4 DUP6 SUB SLT ISZERO PUSH2 0x3DD0 JUMPI DUP2 DUP3 REVERT JUMPDEST DUP3 CALLDATALOAD PUSH8 0xFFFFFFFFFFFFFFFF DUP2 GT ISZERO PUSH2 0x3DE6 JUMPI DUP3 DUP4 REVERT JUMPDEST DUP4 ADD PUSH1 0x1F DUP2 ADD DUP6 SGT PUSH2 0x3DF6 JUMPI DUP3 DUP4 REVERT JUMPDEST DUP1 CALLDATALOAD PUSH2 0x3E04 PUSH2 0x39A2 DUP3 PUSH2 0x4789 JUMP JUMPDEST DUP1 DUP3 DUP3 MSTORE PUSH1 0x20 DUP1 DUP4 ADD SWAP3 POP DUP1 DUP6 ADD PUSH2 0x160 DUP11 DUP4 DUP3 DUP9 MUL DUP10 ADD ADD GT ISZERO PUSH2 0x3E27 JUMPI DUP9 DUP10 REVERT JUMPDEST DUP9 SWAP7 POP JUMPDEST DUP6 DUP8 LT ISZERO PUSH2 0x3E53 JUMPI PUSH2 0x3E3D DUP12 DUP4 PUSH2 0x3B77 JUMP JUMPDEST DUP6 MSTORE PUSH1 0x1 SWAP7 SWAP1 SWAP7 ADD SWAP6 SWAP4 DUP3 ADD SWAP4 SWAP1 DUP2 ADD SWAP1 PUSH2 0x3E2B JUMP JUMPDEST POP SWAP2 SWAP10 SWAP8 ADD CALLDATALOAD SWAP8 POP POP POP POP POP POP POP JUMP JUMPDEST PUSH1 0x0 PUSH1 0x20 DUP3 DUP5 SUB SLT ISZERO PUSH2 0x3E74 JUMPI DUP1 DUP2 REVERT JUMPDEST POP CALLDATALOAD SWAP2 SWAP1 POP JUMP JUMPDEST PUSH1 0x0 DUP1 PUSH1 0x0 PUSH1 0x60 DUP5 DUP7 SUB SLT ISZERO PUSH2 0x3E8F JUMPI DUP1 DUP2 REVERT JUMPDEST DUP4 CALLDATALOAD SWAP3 POP PUSH1 0x20 DUP5 ADD CALLDATALOAD PUSH8 0xFFFFFFFFFFFFFFFF DUP1 DUP3 GT ISZERO PUSH2 0x3EAD JUMPI DUP3 DUP4 REVERT JUMPDEST PUSH2 0x3EB9 DUP8 DUP4 DUP9 ADD PUSH2 0x3984 JUMP JUMPDEST SWAP4 POP PUSH1 0x40 DUP7 ADD CALLDATALOAD SWAP2 POP DUP1 DUP3 GT ISZERO PUSH2 0x3ECE JUMPI DUP3 DUP4 REVERT JUMPDEST POP PUSH2 0x3EDB DUP7 DUP3 DUP8 ADD PUSH2 0x39F9 JUMP JUMPDEST SWAP2 POP POP SWAP3 POP SWAP3 POP SWAP3 JUMP JUMPDEST PUSH1 0x0 DUP1 PUSH1 0x0 DUP1 PUSH1 0x0 PUSH1 0xE0 DUP7 DUP9 SUB SLT ISZERO PUSH2 0x3EFC JUMPI DUP3 DUP4 REVERT JUMPDEST DUP6 CALLDATALOAD SWAP5 POP PUSH2 0x3F0D DUP8 PUSH1 0x20 DUP9 ADD PUSH2 0x3C56 JUMP JUMPDEST SWAP4 POP PUSH1 0x80 DUP7 ADD CALLDATALOAD SWAP3 POP PUSH1 0xA0 DUP7 ADD CALLDATALOAD PUSH8 0xFFFFFFFFFFFFFFFF DUP1 DUP3 GT ISZERO PUSH2 0x3F30 JUMPI DUP3 DUP4 REVERT JUMPDEST PUSH2 0x3F3C DUP10 DUP4 DUP11 ADD PUSH2 0x3984 JUMP JUMPDEST SWAP4 POP PUSH1 0xC0 DUP9 ADD CALLDATALOAD SWAP2 POP DUP1 DUP3 GT ISZERO PUSH2 0x3F51 JUMPI DUP3 DUP4 REVERT JUMPDEST POP PUSH2 0x3F5E DUP9 DUP3 DUP10 ADD PUSH2 0x39F9 JUMP JUMPDEST SWAP2 POP POP SWAP3 SWAP6 POP SWAP3 SWAP6 SWAP1 SWAP4 POP JUMP JUMPDEST PUSH1 0x0 DUP1 PUSH1 0x0 PUSH1 0xA0 DUP5 DUP7 SUB SLT ISZERO PUSH2 0x3F7F JUMPI DUP1 DUP2 REVERT JUMPDEST DUP4 CALLDATALOAD PUSH8 0xFFFFFFFFFFFFFFFF DUP1 DUP3 GT ISZERO PUSH2 0x3F96 JUMPI DUP3 DUP4 REVERT JUMPDEST DUP2 DUP7 ADD SWAP2 POP PUSH2 0x1E0 DUP1 DUP4 DUP10 SUB SLT ISZERO PUSH2 0x3FAC JUMPI DUP4 DUP5 REVERT JUMPDEST PUSH2 0x3FB5 DUP2 PUSH2 0x4765 JUMP JUMPDEST SWAP1 POP DUP3 CALLDATALOAD DUP3 DUP2 GT ISZERO PUSH2 0x3FC5 JUMPI DUP5 DUP6 REVERT JUMPDEST PUSH2 0x3FD1 DUP10 DUP3 DUP7 ADD PUSH2 0x3AF2 JUMP JUMPDEST DUP3 MSTORE POP PUSH2 0x3FE0 PUSH1 0x20 DUP5 ADD PUSH2 0x3CD5 JUMP JUMPDEST PUSH1 0x20 DUP3 ADD MSTORE PUSH2 0x3FF1 PUSH1 0x40 DUP5 ADD PUSH2 0x3CC2 JUMP JUMPDEST PUSH1 0x40 DUP3 ADD MSTORE PUSH2 0x4002 PUSH1 0x60 DUP5 ADD PUSH2 0x3CEA JUMP JUMPDEST PUSH1 0x60 DUP3 ADD MSTORE PUSH2 0x4013 PUSH1 0x80 DUP5 ADD PUSH2 0x3CEA JUMP JUMPDEST PUSH1 0x80 DUP3 ADD MSTORE PUSH2 0x4024 PUSH1 0xA0 DUP5 ADD PUSH2 0x3CEA JUMP JUMPDEST PUSH1 0xA0 DUP3 ADD MSTORE PUSH2 0x4035 PUSH1 0xC0 DUP5 ADD PUSH2 0x3AE0 JUMP JUMPDEST PUSH1 0xC0 DUP3 ADD MSTORE PUSH2 0x4046 PUSH1 0xE0 DUP5 ADD PUSH2 0x3960 JUMP JUMPDEST PUSH1 0xE0 DUP3 ADD MSTORE PUSH2 0x100 PUSH2 0x4059 DUP2 DUP6 ADD PUSH2 0x3CEA JUMP JUMPDEST SWAP1 DUP3 ADD MSTORE PUSH2 0x120 PUSH2 0x406B DUP5 DUP3 ADD PUSH2 0x3CEA JUMP JUMPDEST SWAP1 DUP3 ADD MSTORE PUSH2 0x140 PUSH2 0x407D DUP5 DUP3 ADD PUSH2 0x3CEA JUMP JUMPDEST SWAP1 DUP3 ADD MSTORE PUSH2 0x160 PUSH2 0x408F DUP5 DUP3 ADD PUSH2 0x3CEA JUMP JUMPDEST SWAP1 DUP3 ADD MSTORE PUSH2 0x180 PUSH2 0x40A1 DUP5 DUP3 ADD PUSH2 0x3960 JUMP JUMPDEST SWAP1 DUP3 ADD MSTORE PUSH2 0x1A0 PUSH2 0x40B3 DUP5 DUP3 ADD PUSH2 0x3960 JUMP JUMPDEST SWAP1 DUP3 ADD MSTORE PUSH2 0x1C0 DUP4 DUP2 ADD CALLDATALOAD DUP4 DUP2 GT ISZERO PUSH2 0x40CA JUMPI DUP6 DUP7 REVERT JUMPDEST PUSH2 0x40D6 DUP11 DUP3 DUP8 ADD PUSH2 0x3A57 JUMP JUMPDEST DUP3 DUP5 ADD MSTORE POP POP DUP1 SWAP6 POP POP POP POP PUSH2 0x40EE PUSH1 0x20 DUP6 ADD PUSH2 0x3AD0 JUMP JUMPDEST SWAP2 POP PUSH2 0x40FD DUP6 PUSH1 0x40 DUP7 ADD PUSH2 0x3C56 JUMP JUMPDEST SWAP1 POP SWAP3 POP SWAP3 POP SWAP3 JUMP JUMPDEST PUSH1 0x0 DUP1 PUSH2 0x180 DUP4 DUP6 SUB SLT ISZERO PUSH2 0x4119 JUMPI DUP2 DUP3 REVERT JUMPDEST PUSH2 0x4123 DUP5 DUP5 PUSH2 0x3B77 JUMP JUMPDEST SWAP5 PUSH2 0x160 SWAP4 SWAP1 SWAP4 ADD CALLDATALOAD SWAP4 POP POP POP JUMP JUMPDEST PUSH1 0x0 PUSH1 0x20 DUP3 DUP5 SUB SLT ISZERO PUSH2 0x4143 JUMPI DUP1 DUP2 REVERT JUMPDEST PUSH2 0x1292 DUP3 PUSH2 0x3CD5 JUMP JUMPDEST PUSH20 0xFFFFFFFFFFFFFFFFFFFFFFFFFFFFFFFFFFFFFFFF AND SWAP1 MSTORE JUMP JUMPDEST PUSH1 0x0 DUP2 MLOAD DUP1 DUP5 MSTORE PUSH1 0x20 DUP1 DUP6 ADD SWAP5 POP DUP1 DUP5 ADD DUP4 JUMPDEST DUP4 DUP2 LT ISZERO PUSH2 0x4198 JUMPI DUP2 MLOAD PUSH1 0xF SIGNEXTEND DUP8 MSTORE SWAP6 DUP3 ADD SWAP6 SWAP1 DUP3 ADD SWAP1 PUSH1 0x1 ADD PUSH2 0x4179 JUMP JUMPDEST POP SWAP5 SWAP6 SWAP5 POP POP POP POP POP JUMP JUMPDEST PUSH1 0x3 DUP2 LT PUSH2 0x41AD JUMPI INVALID JUMPDEST SWAP1 MSTORE JUMP JUMPDEST PUSH1 0x0 SIGNEXTEND SWAP1 MSTORE JUMP JUMPDEST PUSH1 0x0 DUP2 MLOAD DUP1 DUP5 MSTORE DUP2 JUMPDEST DUP2 DUP2 LT ISZERO PUSH2 0x41DD JUMPI PUSH1 0x20 DUP2 DUP6 ADD DUP2 ADD MLOAD DUP7 DUP4 ADD DUP3 ADD MSTORE ADD PUSH2 0x41C1 JUMP JUMPDEST DUP2 DUP2 GT ISZERO PUSH2 0x41EE JUMPI DUP3 PUSH1 0x20 DUP4 DUP8 ADD ADD MSTORE JUMPDEST POP PUSH1 0x1F ADD PUSH32 0xFFFFFFFFFFFFFFFFFFFFFFFFFFFFFFFFFFFFFFFFFFFFFFFFFFFFFFFFFFFFFFE0 AND SWAP3 SWAP1 SWAP3 ADD PUSH1 0x20 ADD SWAP3 SWAP2 POP POP JUMP JUMPDEST PUSH1 0x0 PUSH2 0x1E0 DUP3 MLOAD DUP2 DUP6 MSTORE PUSH2 0x4237 DUP3 DUP7 ADD DUP3 PUSH2 0x41B8 JUMP JUMPDEST SWAP2 POP POP PUSH1 0x20 DUP4 ADD MLOAD PUSH2 0x424C PUSH1 0x20 DUP7 ADD DUP3 PUSH2 0x43EB JUMP JUMPDEST POP PUSH1 0x40 DUP4 ADD MLOAD PUSH2 0x425F PUSH1 0x40 DUP7 ADD DUP3 PUSH2 0x43E2 JUMP JUMPDEST POP PUSH1 0x60 DUP4 ADD MLOAD PUSH2 0x4272 PUSH1 0x60 DUP7 ADD DUP3 PUSH2 0x43F6 JUMP JUMPDEST POP PUSH1 0x80 DUP4 ADD MLOAD PUSH2 0x4285 PUSH1 0x80 DUP7 ADD DUP3 PUSH2 0x43F6 JUMP JUMPDEST POP PUSH1 0xA0 DUP4 ADD MLOAD PUSH2 0x4298 PUSH1 0xA0 DUP7 ADD DUP3 PUSH2 0x43F6 JUMP JUMPDEST POP PUSH1 0xC0 DUP4 ADD MLOAD PUSH2 0x42AB PUSH1 0xC0 DUP7 ADD DUP3 PUSH2 0x41B1 JUMP JUMPDEST POP PUSH1 0xE0 DUP4 ADD MLOAD PUSH2 0x42BE PUSH1 0xE0 DUP7 ADD DUP3 PUSH2 0x414C JUMP JUMPDEST POP PUSH2 0x100 DUP1 DUP5 ADD MLOAD PUSH2 0x42D2 DUP3 DUP8 ADD DUP3 PUSH2 0x43F6 JUMP JUMPDEST POP POP PUSH2 0x120 DUP1 DUP5 ADD MLOAD PUSH2 0x42E7 DUP3 DUP8 ADD DUP3 PUSH2 0x43F6 JUMP JUMPDEST POP POP PUSH2 0x140 DUP1 DUP5 ADD MLOAD PUSH2 0x42FC DUP3 DUP8 ADD DUP3 PUSH2 0x43F6 JUMP JUMPDEST POP POP PUSH2 0x160 DUP1 DUP5 ADD MLOAD PUSH2 0x4311 DUP3 DUP8 ADD DUP3 PUSH2 0x43F6 JUMP JUMPDEST POP POP PUSH2 0x180 DUP1 DUP5 ADD MLOAD PUSH2 0x4326 DUP3 DUP8 ADD DUP3 PUSH2 0x414C JUMP JUMPDEST POP POP PUSH2 0x1A0 DUP1 DUP5 ADD MLOAD PUSH2 0x433B DUP3 DUP8 ADD DUP3 PUSH2 0x414C JUMP JUMPDEST POP POP PUSH2 0x1C0 DUP1 DUP5 ADD MLOAD DUP6 DUP4 SUB DUP3 DUP8 ADD MSTORE PUSH2 0x4355 DUP4 DUP3 PUSH2 0x4166 JUMP JUMPDEST SWAP7 SWAP6 POP POP POP POP POP POP JUMP JUMPDEST PUSH1 0x0 DUP2 MLOAD PUSH1 0xE0 DUP5 MSTORE PUSH2 0x4374 PUSH1 0xE0 DUP6 ADD DUP3 PUSH2 0x4221 JUMP JUMPDEST SWAP1 POP PUSH1 0x20 DUP4 ADD MLOAD PUSH16 0xFFFFFFFFFFFFFFFFFFFFFFFFFFFFFFFF DUP2 MLOAD AND PUSH1 0x20 DUP7 ADD MSTORE PUSH2 0xFFFF PUSH1 0x20 DUP3 ADD MLOAD AND PUSH1 0x40 DUP7 ADD MSTORE PUSH1 0x40 DUP2 ADD MLOAD ISZERO ISZERO PUSH1 0x60 DUP7 ADD MSTORE POP PUSH1 0x40 DUP4 ADD MLOAD PUSH1 0x80 DUP6 ADD MSTORE PUSH1 0x60 DUP4 ADD MLOAD PUSH2 0x43CB PUSH1 0xA0 DUP7 ADD DUP3 PUSH2 0x41A3 JUMP JUMPDEST POP PUSH1 0x80 DUP4 ADD MLOAD ISZERO ISZERO PUSH1 0xC0 DUP6 ADD MSTORE DUP1 SWAP2 POP POP SWAP3 SWAP2 POP POP JUMP JUMPDEST PUSH3 0xFFFFFF AND SWAP1 MSTORE JUMP JUMPDEST PUSH5 0xFFFFFFFFFF AND SWAP1 MSTORE JUMP JUMPDEST PUSH1 0xFF AND SWAP1 MSTORE JUMP JUMPDEST PUSH1 0x60 SWAP10 DUP11 SHL PUSH32 0xFFFFFFFFFFFFFFFFFFFFFFFFFFFFFFFFFFFFFFFF000000000000000000000000 SWAP1 DUP2 AND DUP3 MSTORE PUSH1 0x14 DUP3 ADD SWAP10 SWAP1 SWAP10 MSTORE PUSH1 0xF0 SWAP8 SWAP1 SWAP8 SHL PUSH32 0xFFFF000000000000000000000000000000000000000000000000000000000000 AND PUSH1 0x34 DUP9 ADD MSTORE SWAP5 ISZERO ISZERO PUSH1 0xF8 SHL PUSH1 0x36 DUP8 ADD MSTORE PUSH1 0x37 DUP7 ADD SWAP4 SWAP1 SWAP4 MSTORE PUSH1 0x57 DUP6 ADD SWAP2 SWAP1 SWAP2 MSTORE PUSH1 0x77 DUP5 ADD MSTORE PUSH1 0x97 DUP4 ADD MSTORE SWAP1 SWAP3 SHL AND PUSH1 0xB7 DUP3 ADD MSTORE PUSH1 0xCB ADD SWAP1 JUMP JUMPDEST SWAP3 DUP4 MSTORE PUSH1 0x20 DUP4 ADD SWAP2 SWAP1 SWAP2 MSTORE PUSH1 0xF0 SHL PUSH32 0xFFFF000000000000000000000000000000000000000000000000000000000000 AND PUSH1 0x40 DUP3 ADD MSTORE PUSH1 0x42 ADD SWAP1 JUMP JUMPDEST PUSH1 0x0 PUSH1 0x20 DUP1 DUP4 ADD DUP2 DUP5 MSTORE DUP1 DUP6 MLOAD DUP1 DUP4 MSTORE PUSH1 0x40 DUP7 ADD SWAP2 POP PUSH1 0x40 DUP5 DUP3 MUL DUP8 ADD ADD SWAP3 POP DUP4 DUP8 ADD DUP6 JUMPDEST DUP3 DUP2 LT ISZERO PUSH2 0x453D JUMPI PUSH32 0xFFFFFFFFFFFFFFFFFFFFFFFFFFFFFFFFFFFFFFFFFFFFFFFFFFFFFFFFFFFFFFC0 DUP9 DUP7 SUB ADD DUP5 MSTORE PUSH2 0x452B DUP6 DUP4 MLOAD PUSH2 0x435F JUMP JUMPDEST SWAP5 POP SWAP3 DUP6 ADD SWAP3 SWAP1 DUP6 ADD SWAP1 PUSH1 0x1 ADD PUSH2 0x44F1 JUMP JUMPDEST POP SWAP3 SWAP8 SWAP7 POP POP POP POP POP POP POP JUMP JUMPDEST PUSH1 0x20 DUP1 DUP3 MSTORE DUP3 MLOAD DUP3 DUP3 ADD DUP2 SWAP1 MSTORE PUSH1 0x0 SWAP2 SWAP1 DUP5 DUP3 ADD SWAP1 PUSH1 0x40 DUP6 ADD SWAP1 DUP5 JUMPDEST DUP2 DUP2 LT ISZERO PUSH2 0x4582 JUMPI DUP4 MLOAD DUP4 MSTORE SWAP3 DUP5 ADD SWAP3 SWAP2 DUP5 ADD SWAP2 PUSH1 0x1 ADD PUSH2 0x4566 JUMP JUMPDEST POP SWAP1 SWAP7 SWAP6 POP POP POP POP POP POP JUMP JUMPDEST SWAP1 DUP2 MSTORE PUSH1 0x20 ADD SWAP1 JUMP JUMPDEST PUSH1 0x0 DUP5 DUP3 MSTORE PUSH5 0xFFFFFFFFFF DUP5 AND PUSH1 0x20 DUP4 ADD MSTORE PUSH1 0x60 PUSH1 0x40 DUP4 ADD MSTORE PUSH2 0x45BD PUSH1 0x60 DUP4 ADD DUP5 PUSH2 0x41B8 JUMP JUMPDEST SWAP6 SWAP5 POP POP POP POP POP JUMP JUMPDEST PUSH1 0x20 DUP1 DUP3 MSTORE PUSH1 0x17 SWAP1 DUP3 ADD MSTORE PUSH32 0x4D61726B6574206E6F742079657420736574746C65642E000000000000000000 PUSH1 0x40 DUP3 ADD MSTORE PUSH1 0x60 ADD SWAP1 JUMP JUMPDEST PUSH1 0x20 DUP1 DUP3 MSTORE PUSH1 0x12 SWAP1 DUP3 ADD MSTORE PUSH32 0x5369676E617475726520696E76616C69642E0000000000000000000000000000 PUSH1 0x40 DUP3 ADD MSTORE PUSH1 0x60 ADD SWAP1 JUMP JUMPDEST PUSH1 0x20 DUP1 DUP3 MSTORE PUSH1 0x15 SWAP1 DUP3 ADD MSTORE PUSH32 0x4E6F7420656E6F756768206C69717569646974792E0000000000000000000000 PUSH1 0x40 DUP3 ADD MSTORE PUSH1 0x60 ADD SWAP1 JUMP JUMPDEST PUSH1 0x0 PUSH1 0x20 DUP3 MSTORE PUSH2 0x1292 PUSH1 0x20 DUP4 ADD DUP5 PUSH2 0x4221 JUMP JUMPDEST PUSH1 0x0 PUSH1 0x20 DUP3 MSTORE PUSH2 0x1292 PUSH1 0x20 DUP4 ADD DUP5 PUSH2 0x435F JUMP JUMPDEST PUSH1 0x0 PUSH1 0x60 DUP3 ADD DUP6 DUP4 MSTORE PUSH1 0x20 PUSH1 0x60 DUP2 DUP6 ADD MSTORE DUP2 DUP7 MLOAD DUP1 DUP5 MSTORE PUSH1 0x80 DUP7 ADD SWAP2 POP DUP3 DUP9 ADD SWAP4 POP DUP5 JUMPDEST DUP2 DUP2 LT ISZERO PUSH2 0x46E2 JUMPI DUP5 MLOAD DUP1 MLOAD PUSH1 0xF SIGNEXTEND DUP5 MSTORE DUP5 ADD MLOAD PUSH1 0xFF AND DUP5 DUP5 ADD MSTORE SWAP4 DUP4 ADD SWAP4 PUSH1 0x40 SWAP1 SWAP3 ADD SWAP2 PUSH1 0x1 ADD PUSH2 0x46B5 JUMP JUMPDEST POP POP DUP1 SWAP4 POP POP POP POP PUSH2 0x46F7 PUSH1 0x40 DUP4 ADD DUP5 PUSH2 0x41A3 JUMP JUMPDEST SWAP5 SWAP4 POP POP POP POP JUMP JUMPDEST SWAP5 DUP6 MSTORE PUSH1 0x20 DUP6 ADD SWAP4 SWAP1 SWAP4 MSTORE PUSH1 0x40 DUP5 ADD SWAP2 SWAP1 SWAP2 MSTORE PUSH1 0x60 DUP4 ADD MSTORE PUSH1 0x80 DUP3 ADD MSTORE PUSH1 0xA0 ADD SWAP1 JUMP JUMPDEST SWAP2 DUP3 MSTORE PUSH1 0x20 DUP3 ADD MSTORE PUSH1 0x40 ADD SWAP1 JUMP JUMPDEST SWAP5 DUP6 MSTORE PUSH2 0xFFFF SWAP4 SWAP1 SWAP4 AND PUSH1 0x20 DUP6 ADD MSTORE PUSH1 0x40 DUP5 ADD SWAP2 SWAP1 SWAP2 MSTORE PUSH1 0x60 DUP4 ADD MSTORE PUSH1 0x80 DUP3 ADD MSTORE PUSH1 0xA0 ADD SWAP1 JUMP JUMPDEST PUSH1 0xFF SWAP2 SWAP1 SWAP2 AND DUP2 MSTORE PUSH1 0x20 ADD SWAP1 JUMP JUMPDEST PUSH1 0x40 MLOAD DUP2 DUP2 ADD PUSH8 0xFFFFFFFFFFFFFFFF DUP2 GT DUP3 DUP3 LT OR ISZERO PUSH2 0x4781 JUMPI INVALID JUMPDEST PUSH1 0x40 MSTORE SWAP2 SWAP1 POP JUMP JUMPDEST PUSH1 0x0 PUSH8 0xFFFFFFFFFFFFFFFF DUP3 GT ISZERO PUSH2 0x479D JUMPI INVALID JUMPDEST POP PUSH1 0x20 SWAP1 DUP2 MUL ADD SWAP1 JUMP INVALID MSTORE8 PUSH10 0x676E6564536166654D61 PUSH21 0x683A206164646974696F6E206F766572666C6F7753 PUSH2 0x6665 0x4D PUSH2 0x7468 GASPRICE KECCAK256 PUSH14 0x756C7469706C69636174696F6E20 PUSH16 0x766572666C6F77000000000000000000 STATICCALL PUSH30 0x3B53800000000A8C0000000001FA40000000001C200000000000 STOP MSTORE8 PUSH10 0x676E6564536166654D61 PUSH21 0x683A206D756C7469706C69636174696F6E206F7665 PUSH19 0x666C6F775369676E6564536166654D6174683A KECCAK256 PUSH20 0x75627472616374696F6E206F766572666C6F77A2 PUSH5 0x6970667358 0x22 SLT KECCAK256 0x5C POP 0xAD 0xB3 0xE0 0xB7 DUP8 DUP9 0xC2 PUSH26 0x784AC630CBCF302EC9941B2D400551E1FCD83567BD0964736F6C PUSH4 0x43000704 STOP CALLER "
			}
		}
	},
	"sourceTreeHashHex": "0x0ea9c01a0f7e6f30a1c9728f77755f0e2a48383dab6cabfe3d7668429a8c5122",
	"compiler": {
		"name": "solc",
		"version": "0.7.4+commit.3f05b770",
		"settings": {
			"remappings": [
				"factsigner=/home/ulf/digioptions/digioptions-contracts.js/node_modules/factsigner",
				"@openzeppelin/contracts=/home/ulf/digioptions/digioptions-contracts.js/node_modules/@openzeppelin/contracts"
			],
			"optimizer": {
				"enabled": true,
				"runs": 20000,
				"details": {
					"yul": true,
					"deduplicate": true,
					"cse": true,
					"constantOptimizer": true
				}
			},
			"outputSelection": {
				"*": {
					"*": [
						"abi",
						"evm.bytecode.object",
						"evm.bytecode.sourceMap",
						"evm.deployedBytecode.object",
						"evm.deployedBytecode.sourceMap"
					]
				}
			}
		}
	},
	"chains": {}
}