{
	"schemaVersion": "2.0.0",
	"contractName": "DigiOptionsMarkets",
	"compilerOutput": {
		"abi": [
			{
				"inputs": [],
				"stateMutability": "nonpayable",
				"type": "constructor"
			},
			{
				"anonymous": false,
				"inputs": [
					{
						"indexed": true,
						"internalType": "address",
						"name": "addr",
						"type": "address"
					},
					{
						"indexed": false,
						"internalType": "uint256",
						"name": "datetime",
						"type": "uint256"
					},
					{
						"indexed": false,
						"internalType": "int256",
						"name": "amount",
						"type": "int256"
					}
				],
				"name": "LiquidityAddWithdraw",
				"type": "event"
			},
			{
				"anonymous": false,
				"inputs": [
					{
						"indexed": false,
						"internalType": "bytes32",
						"name": "marketKey",
						"type": "bytes32"
					},
					{
						"indexed": true,
						"internalType": "uint48",
						"name": "expirationDatetimeFilter",
						"type": "uint48"
					},
					{
						"indexed": false,
						"internalType": "uint40",
						"name": "expirationDatetime",
						"type": "uint40"
					},
					{
						"indexed": true,
						"internalType": "uint8",
						"name": "marketInterval",
						"type": "uint8"
					},
					{
						"indexed": true,
						"internalType": "uint8",
						"name": "marketCategory",
						"type": "uint8"
					},
					{
						"indexed": false,
						"internalType": "string",
						"name": "underlyingString",
						"type": "string"
					}
				],
				"name": "MarketCreate",
				"type": "event"
			},
			{
				"anonymous": false,
				"inputs": [
					{
						"indexed": false,
						"internalType": "bytes32",
						"name": "marketHash",
						"type": "bytes32"
					}
				],
				"name": "MarketSettlement",
				"type": "event"
			},
			{
				"anonymous": false,
				"inputs": [
					{
						"indexed": true,
						"internalType": "uint256",
						"name": "buyer",
						"type": "uint256"
					},
					{
						"indexed": true,
						"internalType": "uint256",
						"name": "seller",
						"type": "uint256"
					},
					{
						"indexed": true,
						"internalType": "bytes32",
						"name": "marketHash",
						"type": "bytes32"
					},
					{
						"indexed": false,
						"internalType": "uint256",
						"name": "datetime",
						"type": "uint256"
					},
					{
						"indexed": false,
						"internalType": "uint16",
						"name": "optionID",
						"type": "uint16"
					},
					{
						"indexed": false,
						"internalType": "uint256",
						"name": "pricePerOption",
						"type": "uint256"
					},
					{
						"indexed": false,
						"internalType": "uint256",
						"name": "size",
						"type": "uint256"
					},
					{
						"indexed": false,
						"internalType": "bytes32",
						"name": "offerHash",
						"type": "bytes32"
					}
				],
				"name": "PositionChange",
				"type": "event"
			},
			{
				"inputs": [
					{
						"internalType": "uint40",
						"name": "expirationDatetime",
						"type": "uint40"
					}
				],
				"name": "calcMarketInterval",
				"outputs": [
					{
						"internalType": "uint8",
						"name": "interval",
						"type": "uint8"
					}
				],
				"stateMutability": "view",
				"type": "function"
			},
			{
				"inputs": [
					{
						"components": [
							{
								"internalType": "string",
								"name": "underlyingString",
								"type": "string"
							},
							{
								"internalType": "uint40",
								"name": "expirationDatetime",
								"type": "uint40"
							},
							{
								"internalType": "uint24",
								"name": "objectionPeriod",
								"type": "uint24"
							},
							{
								"internalType": "uint8",
								"name": "config",
								"type": "uint8"
							},
							{
								"internalType": "uint8",
								"name": "marketCategory",
								"type": "uint8"
							},
							{
								"internalType": "uint8",
								"name": "baseUnitExp",
								"type": "uint8"
							},
							{
								"internalType": "int8",
								"name": "ndigit",
								"type": "int8"
							},
							{
								"internalType": "address",
								"name": "signerAddr",
								"type": "address"
							},
							{
								"internalType": "uint8",
								"name": "marketInterval",
								"type": "uint8"
							},
							{
								"internalType": "uint32",
								"name": "transactionFee0",
								"type": "uint32"
							},
							{
								"internalType": "address",
								"name": "feeTaker0",
								"type": "address"
							},
							{
								"internalType": "uint32",
								"name": "transactionFee1",
								"type": "uint32"
							},
							{
								"internalType": "uint32",
								"name": "transactionFeeSigner",
								"type": "uint32"
							},
							{
								"internalType": "address",
								"name": "feeTaker1",
								"type": "address"
							},
							{
								"internalType": "int128[]",
								"name": "strikes",
								"type": "int128[]"
							}
						],
						"internalType": "struct DigiOptionsLib.MarketBaseData",
						"name": "marketBaseData",
						"type": "tuple"
					},
					{
						"internalType": "bool",
						"name": "testMarket",
						"type": "bool"
					},
					{
						"components": [
							{
								"internalType": "uint8",
								"name": "v",
								"type": "uint8"
							},
							{
								"internalType": "bytes32",
								"name": "r",
								"type": "bytes32"
							},
							{
								"internalType": "bytes32",
								"name": "s",
								"type": "bytes32"
							}
						],
						"internalType": "struct FactsignerVerify.Signature",
						"name": "signature",
						"type": "tuple"
					}
				],
				"name": "createMarket",
				"outputs": [
					{
						"internalType": "bytes32",
						"name": "marketHash",
						"type": "bytes32"
					}
				],
				"stateMutability": "nonpayable",
				"type": "function"
			},
			{
				"inputs": [
					{
						"internalType": "bytes32",
						"name": "marketHash",
						"type": "bytes32"
					},
					{
						"internalType": "address[]",
						"name": "users",
						"type": "address[]"
					},
					{
						"internalType": "bytes32[]",
						"name": "offerHash",
						"type": "bytes32[]"
					}
				],
				"name": "freeLiquidity",
				"outputs": [],
				"stateMutability": "nonpayable",
				"type": "function"
			},
			{
				"inputs": [],
				"name": "getContractInfo",
				"outputs": [
					{
						"internalType": "uint256[]",
						"name": "contractInfoValues",
						"type": "uint256[]"
					}
				],
				"stateMutability": "nonpayable",
				"type": "function"
			},
			{
				"inputs": [
					{
						"internalType": "bytes32",
						"name": "marketHash",
						"type": "bytes32"
					}
				],
				"name": "getLiquidityAndPositions",
				"outputs": [
					{
						"internalType": "uint256",
						"name": "liquidity",
						"type": "uint256"
					},
					{
						"components": [
							{
								"internalType": "int128",
								"name": "value",
								"type": "int128"
							},
							{
								"internalType": "uint8",
								"name": "rangeState",
								"type": "uint8"
							}
						],
						"internalType": "struct DigiOptionsMarkets.Position[]",
						"name": "positions",
						"type": "tuple[]"
					},
					{
						"internalType": "enum DigiOptionsLib.UserState",
						"name": "userState",
						"type": "uint8"
					}
				],
				"stateMutability": "view",
				"type": "function"
			},
			{
				"inputs": [
					{
						"internalType": "bytes32",
						"name": "marketHash",
						"type": "bytes32"
					}
				],
				"name": "getMarketBaseDataByMarketHash",
				"outputs": [
					{
						"components": [
							{
								"internalType": "string",
								"name": "underlyingString",
								"type": "string"
							},
							{
								"internalType": "uint40",
								"name": "expirationDatetime",
								"type": "uint40"
							},
							{
								"internalType": "uint24",
								"name": "objectionPeriod",
								"type": "uint24"
							},
							{
								"internalType": "uint8",
								"name": "config",
								"type": "uint8"
							},
							{
								"internalType": "uint8",
								"name": "marketCategory",
								"type": "uint8"
							},
							{
								"internalType": "uint8",
								"name": "baseUnitExp",
								"type": "uint8"
							},
							{
								"internalType": "int8",
								"name": "ndigit",
								"type": "int8"
							},
							{
								"internalType": "address",
								"name": "signerAddr",
								"type": "address"
							},
							{
								"internalType": "uint8",
								"name": "marketInterval",
								"type": "uint8"
							},
							{
								"internalType": "uint32",
								"name": "transactionFee0",
								"type": "uint32"
							},
							{
								"internalType": "address",
								"name": "feeTaker0",
								"type": "address"
							},
							{
								"internalType": "uint32",
								"name": "transactionFee1",
								"type": "uint32"
							},
							{
								"internalType": "uint32",
								"name": "transactionFeeSigner",
								"type": "uint32"
							},
							{
								"internalType": "address",
								"name": "feeTaker1",
								"type": "address"
							},
							{
								"internalType": "int128[]",
								"name": "strikes",
								"type": "int128[]"
							}
						],
						"internalType": "struct DigiOptionsLib.MarketBaseData",
						"name": "marketBaseData",
						"type": "tuple"
					}
				],
				"stateMutability": "view",
				"type": "function"
			},
			{
				"inputs": [
					{
						"internalType": "address",
						"name": "addr",
						"type": "address"
					},
					{
						"internalType": "bytes32",
						"name": "marketHash",
						"type": "bytes32"
					}
				],
				"name": "getMarketDataByMarketHash",
				"outputs": [
					{
						"components": [
							{
								"components": [
									{
										"internalType": "string",
										"name": "underlyingString",
										"type": "string"
									},
									{
										"internalType": "uint40",
										"name": "expirationDatetime",
										"type": "uint40"
									},
									{
										"internalType": "uint24",
										"name": "objectionPeriod",
										"type": "uint24"
									},
									{
										"internalType": "uint8",
										"name": "config",
										"type": "uint8"
									},
									{
										"internalType": "uint8",
										"name": "marketCategory",
										"type": "uint8"
									},
									{
										"internalType": "uint8",
										"name": "baseUnitExp",
										"type": "uint8"
									},
									{
										"internalType": "int8",
										"name": "ndigit",
										"type": "int8"
									},
									{
										"internalType": "address",
										"name": "signerAddr",
										"type": "address"
									},
									{
										"internalType": "uint8",
										"name": "marketInterval",
										"type": "uint8"
									},
									{
										"internalType": "uint32",
										"name": "transactionFee0",
										"type": "uint32"
									},
									{
										"internalType": "address",
										"name": "feeTaker0",
										"type": "address"
									},
									{
										"internalType": "uint32",
										"name": "transactionFee1",
										"type": "uint32"
									},
									{
										"internalType": "uint32",
										"name": "transactionFeeSigner",
										"type": "uint32"
									},
									{
										"internalType": "address",
										"name": "feeTaker1",
										"type": "address"
									},
									{
										"internalType": "int128[]",
										"name": "strikes",
										"type": "int128[]"
									}
								],
								"internalType": "struct DigiOptionsLib.MarketBaseData",
								"name": "marketBaseData",
								"type": "tuple"
							},
							{
								"components": [
									{
										"internalType": "uint128",
										"name": "fee",
										"type": "uint128"
									},
									{
										"internalType": "uint16",
										"name": "winningOptionID",
										"type": "uint16"
									},
									{
										"internalType": "bool",
										"name": "settled",
										"type": "bool"
									}
								],
								"internalType": "struct DigiOptionsLib.MarketState",
								"name": "marketState",
								"type": "tuple"
							},
							{
								"internalType": "bytes32",
								"name": "marketHash",
								"type": "bytes32"
							},
							{
								"internalType": "enum DigiOptionsLib.UserState",
								"name": "userState",
								"type": "uint8"
							},
							{
								"internalType": "bool",
								"name": "testMarket",
								"type": "bool"
							}
						],
						"internalType": "struct DigiOptionsLib.MarketData",
						"name": "marketData",
						"type": "tuple"
					}
				],
				"stateMutability": "view",
				"type": "function"
			},
			{
				"inputs": [
					{
						"internalType": "address",
						"name": "addr",
						"type": "address"
					},
					{
						"internalType": "bytes32[]",
						"name": "marketKeys",
						"type": "bytes32[]"
					}
				],
				"name": "getMarketDataListByMarketKeys",
				"outputs": [
					{
						"components": [
							{
								"components": [
									{
										"internalType": "string",
										"name": "underlyingString",
										"type": "string"
									},
									{
										"internalType": "uint40",
										"name": "expirationDatetime",
										"type": "uint40"
									},
									{
										"internalType": "uint24",
										"name": "objectionPeriod",
										"type": "uint24"
									},
									{
										"internalType": "uint8",
										"name": "config",
										"type": "uint8"
									},
									{
										"internalType": "uint8",
										"name": "marketCategory",
										"type": "uint8"
									},
									{
										"internalType": "uint8",
										"name": "baseUnitExp",
										"type": "uint8"
									},
									{
										"internalType": "int8",
										"name": "ndigit",
										"type": "int8"
									},
									{
										"internalType": "address",
										"name": "signerAddr",
										"type": "address"
									},
									{
										"internalType": "uint8",
										"name": "marketInterval",
										"type": "uint8"
									},
									{
										"internalType": "uint32",
										"name": "transactionFee0",
										"type": "uint32"
									},
									{
										"internalType": "address",
										"name": "feeTaker0",
										"type": "address"
									},
									{
										"internalType": "uint32",
										"name": "transactionFee1",
										"type": "uint32"
									},
									{
										"internalType": "uint32",
										"name": "transactionFeeSigner",
										"type": "uint32"
									},
									{
										"internalType": "address",
										"name": "feeTaker1",
										"type": "address"
									},
									{
										"internalType": "int128[]",
										"name": "strikes",
										"type": "int128[]"
									}
								],
								"internalType": "struct DigiOptionsLib.MarketBaseData",
								"name": "marketBaseData",
								"type": "tuple"
							},
							{
								"components": [
									{
										"internalType": "uint128",
										"name": "fee",
										"type": "uint128"
									},
									{
										"internalType": "uint16",
										"name": "winningOptionID",
										"type": "uint16"
									},
									{
										"internalType": "bool",
										"name": "settled",
										"type": "bool"
									}
								],
								"internalType": "struct DigiOptionsLib.MarketState",
								"name": "marketState",
								"type": "tuple"
							},
							{
								"internalType": "bytes32",
								"name": "marketHash",
								"type": "bytes32"
							},
							{
								"internalType": "enum DigiOptionsLib.UserState",
								"name": "userState",
								"type": "uint8"
							},
							{
								"internalType": "bool",
								"name": "testMarket",
								"type": "bool"
							}
						],
						"internalType": "struct DigiOptionsLib.MarketData[]",
						"name": "marketDataList",
						"type": "tuple[]"
					}
				],
				"stateMutability": "view",
				"type": "function"
			},
			{
				"inputs": [],
				"name": "liquidityAdd",
				"outputs": [],
				"stateMutability": "payable",
				"type": "function"
			},
			{
				"inputs": [],
				"name": "liquidityGet",
				"outputs": [
					{
						"internalType": "uint256",
						"name": "liquidity",
						"type": "uint256"
					}
				],
				"stateMutability": "view",
				"type": "function"
			},
			{
				"inputs": [
					{
						"internalType": "uint256",
						"name": "amount",
						"type": "uint256"
					}
				],
				"name": "liquidityWithdraw",
				"outputs": [],
				"stateMutability": "nonpayable",
				"type": "function"
			},
			{
				"inputs": [
					{
						"components": [
							{
								"components": [
									{
										"internalType": "bytes32",
										"name": "marketHash",
										"type": "bytes32"
									},
									{
										"internalType": "uint16",
										"name": "optionID",
										"type": "uint16"
									},
									{
										"internalType": "bool",
										"name": "buy",
										"type": "bool"
									},
									{
										"internalType": "uint256",
										"name": "pricePerOption",
										"type": "uint256"
									},
									{
										"internalType": "uint256",
										"name": "size",
										"type": "uint256"
									},
									{
										"internalType": "uint256",
										"name": "offerID",
										"type": "uint256"
									},
									{
										"internalType": "uint256",
										"name": "blockExpires",
										"type": "uint256"
									},
									{
										"internalType": "address",
										"name": "offerOwner",
										"type": "address"
									}
								],
								"internalType": "struct DigiOptionsMarkets.OrderOffer",
								"name": "orderOffer",
								"type": "tuple"
							},
							{
								"components": [
									{
										"internalType": "uint8",
										"name": "v",
										"type": "uint8"
									},
									{
										"internalType": "bytes32",
										"name": "r",
										"type": "bytes32"
									},
									{
										"internalType": "bytes32",
										"name": "s",
										"type": "bytes32"
									}
								],
								"internalType": "struct DigiOptionsLib.Signature",
								"name": "signature",
								"type": "tuple"
							}
						],
						"internalType": "struct DigiOptionsMarkets.OrderOfferSigned[]",
						"name": "orderOfferSignedList",
						"type": "tuple[]"
					},
					{
						"internalType": "uint256",
						"name": "sizeAcceptMax",
						"type": "uint256"
					}
				],
				"name": "orderExecute",
				"outputs": [],
				"stateMutability": "nonpayable",
				"type": "function"
			},
			{
				"inputs": [
					{
						"components": [
							{
								"components": [
									{
										"internalType": "bytes32",
										"name": "marketHash",
										"type": "bytes32"
									},
									{
										"internalType": "uint16",
										"name": "optionID",
										"type": "uint16"
									},
									{
										"internalType": "bool",
										"name": "buy",
										"type": "bool"
									},
									{
										"internalType": "uint256",
										"name": "pricePerOption",
										"type": "uint256"
									},
									{
										"internalType": "uint256",
										"name": "size",
										"type": "uint256"
									},
									{
										"internalType": "uint256",
										"name": "offerID",
										"type": "uint256"
									},
									{
										"internalType": "uint256",
										"name": "blockExpires",
										"type": "uint256"
									},
									{
										"internalType": "address",
										"name": "offerOwner",
										"type": "address"
									}
								],
								"internalType": "struct DigiOptionsMarkets.OrderOffer",
								"name": "orderOffer",
								"type": "tuple"
							},
							{
								"components": [
									{
										"internalType": "uint8",
										"name": "v",
										"type": "uint8"
									},
									{
										"internalType": "bytes32",
										"name": "r",
										"type": "bytes32"
									},
									{
										"internalType": "bytes32",
										"name": "s",
										"type": "bytes32"
									}
								],
								"internalType": "struct DigiOptionsLib.Signature",
								"name": "signature",
								"type": "tuple"
							}
						],
						"internalType": "struct DigiOptionsMarkets.OrderOfferSigned",
						"name": "orderOfferSigned",
						"type": "tuple"
					},
					{
						"internalType": "uint256",
						"name": "sizeAccept",
						"type": "uint256"
					}
				],
				"name": "orderExecuteTest",
				"outputs": [
					{
						"internalType": "uint256",
						"name": "sizeAcceptPossible",
						"type": "uint256"
					},
					{
						"internalType": "bytes32",
						"name": "offerHash",
						"type": "bytes32"
					},
					{
						"internalType": "int256",
						"name": "liquidityOfferOwner",
						"type": "int256"
					},
					{
						"internalType": "int256",
						"name": "liquidityOfferTaker",
						"type": "int256"
					},
					{
						"internalType": "uint256",
						"name": "transactionFeeAmount",
						"type": "uint256"
					}
				],
				"stateMutability": "view",
				"type": "function"
			},
			{
				"inputs": [
					{
						"internalType": "bytes32",
						"name": "marketHash",
						"type": "bytes32"
					},
					{
						"components": [
							{
								"internalType": "uint8",
								"name": "v",
								"type": "uint8"
							},
							{
								"internalType": "bytes32",
								"name": "r",
								"type": "bytes32"
							},
							{
								"internalType": "bytes32",
								"name": "s",
								"type": "bytes32"
							}
						],
						"internalType": "struct FactsignerVerify.Signature",
						"name": "signature",
						"type": "tuple"
					},
					{
						"internalType": "int256",
						"name": "value",
						"type": "int256"
					},
					{
						"internalType": "address[]",
						"name": "users",
						"type": "address[]"
					},
					{
						"internalType": "bytes32[]",
						"name": "offerHash",
						"type": "bytes32[]"
					}
				],
				"name": "settlement",
				"outputs": [],
				"stateMutability": "nonpayable",
				"type": "function"
			}
		],
		"evm": {
			"bytecode": {
				"linkReferences": {},
				"object": "0x608060405234801561001057600080fd5b504360015542600055614710806100286000396000f3fe6080604052600436106100dd5760003560e01c80637cc1f8671161007f578063c70be14611610059578063c70be14614610253578063d245a55914610280578063e8d261c9146102a0578063ee1f69eb146102c0576100dd565b80637cc1f86714610209578063997402f21461022b578063a1aa12b214610233576100dd565b806320185aa2116100bb57806320185aa214610169578063248a29541461018957806352d02688146101ba5780636f1dc339146101e7576100dd565b806305090e1a146100e2578063095200ce1461010457806319018bdb1461013a575b600080fd5b3480156100ee57600080fd5b506101026100fd366004613822565b6102ed565b005b34801561011057600080fd5b5061012461011f366004613af2565b61054b565b6040516101319190614622565b60405180910390f35b34801561014657600080fd5b5061015a61015536600461380a565b61055c565b6040516101319392919061455a565b34801561017557600080fd5b5061010261018436600461380a565b6108c1565b34801561019557600080fd5b506101a96101a4366004613ac6565b6109bf565b6040516101319594939291906145ca565b3480156101c657600080fd5b506101da6101d53660046136a0565b610c33565b604051610131919061418b565b3480156101f357600080fd5b506101fc610cc1565b604051610131919061424d565b34801561021557600080fd5b5061021e610cd5565b6040516101319190614209565b610102610df0565b34801561023f57600080fd5b5061010261024e36600461388c565b610e67565b34801561025f57600080fd5b5061027361026e366004613738565b6115b5565b6040516101319190614547565b34801561028c57600080fd5b5061010261029b366004613762565b6118de565b3480156102ac57600080fd5b506101fc6102bb366004613912565b611922565b3480156102cc57600080fd5b506102e06102db36600461380a565b611f3b565b6040516101319190614534565b6000838152600460205260409020610303613028565b506040805160608101825282546fffffffffffffffffffffffffffffffff81168252700100000000000000000000000000000000810461ffff1660208301819052720100000000000000000000000000000000000090910460ff16151592820183905290916001146103aa576040517f08c379a00000000000000000000000000000000000000000000000000000000081526004016103a1906142ad565b60405180910390fd5b6000805b86518210156105415760008783815181106103c557fe5b602002602001015190506002808111156103db57fe5b6103e582886121c0565b60028111156103f057fe5b14610535576103ff86826122e9565b73ffffffffffffffffffffffffffffffffffffffff82166000908152600688016020908152604080832061ffff891684529091528120549193509061045190600f90810b900b8463ffffffff61237b16565b73ffffffffffffffffffffffffffffffffffffffff83166000908152600689016020908152604080832061ffff8a168452909152902080547fffffffffffffffffffffffffffffff00ffffffffffffffffffffffffffffffff16700200000000000000000000000000000000179055905061050d6104db6104d683633b9aca006123db565b6124b4565b73ffffffffffffffffffffffffffffffffffffffff84166000908152600360205260409020549063ffffffff6124c416565b73ffffffffffffffffffffffffffffffffffffffff8316600090815260036020526040902055505b506001909101906103ae565b5050505050505050565b600061055682612503565b92915050565b60008181526004602052604081206060908290610577613048565b81600101604051806101e0016040529081600082018054600181600116156101000203166002900480601f0160208091040260200160405190810160405280929190818152602001828054600181600116156101000203166002900480156106205780601f106105f557610100808354040283529160200191610620565b820191906000526020600020905b81548152906001019060200180831161060357829003601f168201915b5050509183525050600182015464ffffffffff811660208084019190915262ffffff650100000000008084049190911660408086019190915260ff6801000000000000000085048116606087015269010000000000000000008504811660808701526a01000000000000000000008504811660a08701526b0100000000000000000000008504600090810b810b900b60c087015273ffffffffffffffffffffffffffffffffffffffff6c01000000000000000000000000909504851660e087015260028701549081166101008088019190915263ffffffff908204811661012088015292810485166101408701527901000000000000000000000000000000000000000000000000009004821661016086015260038601549182166101808601526401000000009091049092166101a08401526004840180548351818402810184019094528084526101c09094019390918301828280156107c657602002820191906000526020600020906000905b82829054906101000a9004600f0b600f0b81526020019060100190602082600f0104928301926001038202915080841161078f5790505b5050505050815250509050806101c001515160010160405190808252806020026020018201604052801561081457816020015b6108016130c6565b8152602001906001900390816107f95790505b50935060005b816101c00151518111610894573360009081526006840160209081526040808320848452825291829020825180840190935254600f81810b810b900b8352700100000000000000000000000000000000900460ff1690820152855186908390811061088157fe5b602090810291909101015260010161081a565b50336000818152600360205260409020549085906108b290856121c0565b94509450945050509193909250565b3360009081526003602052604090205481111561090a576040517f08c379a00000000000000000000000000000000000000000000000000000000081526004016103a1906144a0565b3360009081526003602052604090205461092a908263ffffffff6125c416565b33600081815260036020526040808220939093559151909183156108fc02918491818181858888f19350505050158015610968573d6000803e3d6000fd5b503373ffffffffffffffffffffffffffffffffffffffff167f6e2eec282b5765f3a053054d83d425d0e03e1003bb2740d41c1fce6d4a0d74f742836000036040516109b49291906145ed565b60405180910390a250565b60008060008060006109cf6130dd565b5086518051600090815260046020908152604091829020835182850151848601516060870151608088015160a089015160c08a015160e08b015199519799610a1999309901613e40565b6040516020818303038152906040528051906020012095508160e0015173ffffffffffffffffffffffffffffffffffffffff16610a5a878b60200151612606565b73ffffffffffffffffffffffffffffffffffffffff1614610a7a57600097505b60808201516000878152600783016020526040902054610aa0908a63ffffffff6124c416565b1115610ace5760008681526007820160205260409020546080830151610acb9163ffffffff6125c416565b97505b6000610ae783606001518a6126ee90919063ffffffff16565b60048301546003840154919250610b5091610b439163ffffffff90811691610b3791610100820481169179010000000000000000000000000000000000000000000000000090048116906124c416565b9063ffffffff6124c416565b8a9063ffffffff6126ee16565b9350610b68828460400151858660e001518d86612742565b9550610b95610b768561283a565b610b898486604001511587338f88612742565b9063ffffffff61237b16565b6005830154602085015191965061ffff90911611801590610bba57508260c001514311155b8015610bda575060c0830151610bd743600c63ffffffff6124c416565b10155b8015610c00575060e083015173ffffffffffffffffffffffffffffffffffffffff163314155b8015610c0d575060008612155b8015610c1a575060008512155b610c2357600098505b5087965050509295509295909350565b604080518281526020808402820101909152606090828015610c6f57816020015b610c5c613121565b815260200190600190039081610c545790505b50905060005b82811015610cb857610c9985858584818110610c8d57fe5b905060200201356115b5565b828281518110610ca557fe5b6020908102919091010152600101610c75565b505b9392505050565b336000908152600360205260409020545b90565b60408051600980825261014082019092526060918291906020820161012080368337019050509050600181600081518110610d0c57fe5b6020908102919091010152600081600181518110610d2657fe5b60209081029190910101526232000081600281518110610d4257fe5b60209081029190910101523081600381518110610d5b57fe5b602090810291909101015260015481600481518110610d7657fe5b602090810291909101015260005481600581518110610d9157fe5b6020908102919091010152600c81600681518110610dab57fe5b6020908102919091010152600981600781518110610dc557fe5b602090810291909101015260025481600881518110610de057fe5b6020908102919091010152905090565b3415610e655733600090815260036020526040902054610e16903463ffffffff6124c416565b33600081815260036020526040908190209290925590517f6e2eec282b5765f3a053054d83d425d0e03e1003bb2740d41c1fce6d4a0d74f790610e5c90429034906145ed565b60405180910390a25b565b60008581526004602090815260409182902060028082015484516001808501805461010092811615929092027fffffffffffffffffffffffffffffffffffffffffffffffffffffffffffffffff0190911693909304601f810186900490950281016102009081019096526101e0810185815293956c0100000000000000000000000090920473ffffffffffffffffffffffffffffffffffffffff16946111479461111694929384928491840182828015610f625780601f10610f3757610100808354040283529160200191610f62565b820191906000526020600020905b815481529060010190602001808311610f4557829003601f168201915b5050509183525050600182015464ffffffffff811660208084019190915262ffffff650100000000008084049190911660408086019190915260ff6801000000000000000085048116606087015269010000000000000000008504811660808701526a01000000000000000000008504811660a08701526b0100000000000000000000008504600090810b810b900b60c087015273ffffffffffffffffffffffffffffffffffffffff6c01000000000000000000000000909504851660e087015260028701549081166101008088019190915263ffffffff908204811661012088015292810485166101408701527901000000000000000000000000000000000000000000000000009004821661016086015260038601549182166101808601526401000000009091049092166101a08401526004840180548351818402810184019094528084526101c090940193909183018282801561110857602002820191906000526020600020906000905b82829054906101000a9004600f0b600f0b81526020019060100190602082600f010492830192600103820291508084116110d15790505b505050505081525050612865565b86600060405160200161112b93929190613ed4565b604051602081830303815290604052805190602001208761293c565b73ffffffffffffffffffffffffffffffffffffffff1614611194576040517f08c379a00000000000000000000000000000000000000000000000000000000081526004016103a1906142e4565b80547201000000000000000000000000000000000000900460ff16156111ba57506115ae565b600080600160028401546801000000000000000090041660ff1615611241575050600581015460005b600583015481101561123c57600583018054829081106111ff57fe5b90600052602060002090600291828204019190066010029054906101000a9004600f0b600f0b8612156112345780915061123c565b6001016111e3565b6112a1565b5060009050805b60058301548110156112a1576005830180548290811061126457fe5b90600052602060002090600291828204019190066010029054906101000a9004600f0b600f0b861415611299578091506112a1565b600101611248565b825472010000000000000000000000000000000000007fffffffffffffffffffffffffffff0000ffffffffffffffffffffffffffffffff90911670010000000000000000000000000000000061ffff851602177fffffffffffffffffffffffffff00ffffffffffffffffffffffffffffffffffff161783556040517fbc368577aa675ea916e9069e5c84c091ab02483dcc1a83cda5f0124b39b0f2e990611349908a9061424d565b60405180910390a16004830154600384015460009161139e9163ffffffff91821691610b379161010081048216917901000000000000000000000000000000000000000000000000009091048116906124c416565b9050801561159e57835460009082906fffffffffffffffffffffffffffffffff16816113c657fe5b60038701549190049150611429906113ee90839063ffffffff6101009091048116906126ee16565b60038781015465010000000000900473ffffffffffffffffffffffffffffffffffffffff1660009081526020919091526040902054906124c4565b6003868101805465010000000000900473ffffffffffffffffffffffffffffffffffffffff166000908152602092909252604090912091909155546114d29061149a908390790100000000000000000000000000000000000000000000000000900463ffffffff908116906126ee16565b6004870154640100000000900473ffffffffffffffffffffffffffffffffffffffff16600090815260036020526040902054906124c4565b600486018054640100000000900473ffffffffffffffffffffffffffffffffffffffff16600090815260036020526040902091909155546115629061152290839063ffffffff908116906126ee16565b60028701546c01000000000000000000000000900473ffffffffffffffffffffffffffffffffffffffff16600090815260036020526040902054906124c4565b60028601546c01000000000000000000000000900473ffffffffffffffffffffffffffffffffffffffff16600090815260036020526040902055505b6115a98987876102ed565b505050505b5050505050565b6115bd613121565b60008281526004602052604090206115d3613048565b81600101604051806101e0016040529081600082018054600181600116156101000203166002900480601f01602080910402602001604051908101604052809291908181526020018280546001816001161561010002031660029004801561167c5780601f106116515761010080835404028352916020019161167c565b820191906000526020600020905b81548152906001019060200180831161165f57829003601f168201915b5050509183525050600182015464ffffffffff811660208084019190915262ffffff650100000000008084049190911660408086019190915260ff6801000000000000000085048116606087015269010000000000000000008504811660808701526a01000000000000000000008504811660a08701526b0100000000000000000000008504600090810b810b900b60c087015273ffffffffffffffffffffffffffffffffffffffff6c01000000000000000000000000909504851660e087015260028701549081166101008088019190915263ffffffff908204811661012088015292810485166101408701527901000000000000000000000000000000000000000000000000009004821661016086015260038601549182166101808601526401000000009091049092166101a08401526004840180548351818402810184019094528084526101c090940193909183018282801561182257602002820191906000526020600020906000905b82829054906101000a9004600f0b600f0b81526020019060100190602082600f010492830192600103820291508084116117eb5790505b5050505050815250509050611835613028565b50604080516060808201835284546fffffffffffffffffffffffffffffffff81168352700100000000000000000000000000000000810461ffff16602080850191909152720100000000000000000000000000000000000090910460ff16151583850152835160a08101855285815290810183905292830187905290919081016118bf88866121c0565b60028111156118ca57fe5b815260006020909101529695505050505050565b6118e661315c565b60005b835181101561191c578381815181106118fe57fe5b602002602001015191506119128284612987565b92506001016118e9565b50505050565b6000836020015164ffffffffff166000141561193a57fe5b600061194585612865565b90508460e0015173ffffffffffffffffffffffffffffffffffffffff1661196c828561293c565b73ffffffffffffffffffffffffffffffffffffffff16146119b9576040517f08c379a00000000000000000000000000000000000000000000000000000000081526004016103a1906142e4565b6119c285612db6565b60008181526004602052604090206002015490925064ffffffffff161590506119ea57610cba565b8360a0015160ff166012146119fb57fe5b6040846080015160ff1610611a0c57fe5b66b1a2bc2ec50000611a4c85610180015163ffffffff16610b3787610160015163ffffffff1688610120015163ffffffff166124c490919063ffffffff16565b1115611a5457fe5b606084015160009060011615611b5a576000856101c001515111611a7457fe5b617ffd856101c001515110611a8557fe5b5060015b846101c0015151811015611ae157846101c001518181518110611aa857fe5b6020026020010151600f0b856101c001516001830381518110611ac757fe5b6020026020010151600f0b12611ad957fe5b600101611a89565b8460c0015160000b8560a0015160ff1660010b1215611afc57fe5b5060005b846101c0015151811015611b55578460c0015160000b8560a0015160ff1603600a0a856101c001518281518110611b3357fe5b6020026020010151600f0b81611b4557fe5b0715611b4d57fe5b600101611b00565b611b7c565b6001856101c001515111611b6a57fe5b617ffd856101c00151511115611b7c57fe5b6020856080015160ff1610611b8d57fe5b6000856080015160080260ff1686610100015160ff166001901b901b9050806002541660001415611bc15760028054821790555b6000611bd08760200151612503565b606088015190915060041615611bf9578060ff1687610100015160ff1614611bf457fe5b611c09565b61010087015160ff1615611c0957fe5b6000848152600460209081526040909120885180518a93600190930192611c34928492910190613181565b5060208201518160010160006101000a81548164ffffffffff021916908364ffffffffff16021790555060408201518160010160056101000a81548162ffffff021916908362ffffff16021790555060608201518160010160086101000a81548160ff021916908360ff16021790555060808201518160010160096101000a81548160ff021916908360ff16021790555060a082015181600101600a6101000a81548160ff021916908360ff16021790555060c082015181600101600b6101000a81548160ff021916908360000b60ff16021790555060e082015181600101600c6101000a81548173ffffffffffffffffffffffffffffffffffffffff021916908373ffffffffffffffffffffffffffffffffffffffff1602179055506101008201518160020160006101000a81548160ff021916908360ff1602179055506101208201518160020160016101000a81548163ffffffff021916908363ffffffff1602179055506101408201518160020160056101000a81548173ffffffffffffffffffffffffffffffffffffffff021916908373ffffffffffffffffffffffffffffffffffffffff1602179055506101608201518160020160196101000a81548163ffffffff021916908363ffffffff1602179055506101808201518160030160006101000a81548163ffffffff021916908363ffffffff1602179055506101a08201518160030160046101000a81548173ffffffffffffffffffffffffffffffffffffffff021916908373ffffffffffffffffffffffffffffffffffffffff1602179055506101c0820151816004019080519060200190611e989291906131fb565b50905050866080015160ff1687610100015160ff168260ff166008611ebf8560ff16612e8d565b65ffffffffffff168b6020015164ffffffffff1681611eda57fe5b0465ffffffffffff16901b0165ffffffffffff167f13d334f612c6e3d949b7da4336e52487cdf7e8b324884e285aaca45027505860878b602001518c60000151604051611f2993929190614256565b60405180910390a45050509392505050565b611f43613048565b600082815260046020908152604091829020825160018083018054600292811615610100027fffffffffffffffffffffffffffffffffffffffffffffffffffffffffffffffff011691909104601f810185900490940282016102009081019095526101e082018481529294919390928492909184918401828280156120095780601f10611fde57610100808354040283529160200191612009565b820191906000526020600020905b815481529060010190602001808311611fec57829003601f168201915b5050509183525050600182015464ffffffffff811660208084019190915262ffffff650100000000008084049190911660408086019190915260ff6801000000000000000085048116606087015269010000000000000000008504811660808701526a01000000000000000000008504811660a08701526b0100000000000000000000008504600090810b810b900b60c087015273ffffffffffffffffffffffffffffffffffffffff6c01000000000000000000000000909504851660e087015260028701549081166101008088019190915263ffffffff908204811661012088015292810485166101408701527901000000000000000000000000000000000000000000000000009004821661016086015260038601549182166101808601526401000000009091049092166101a08401526004840180548351818402810184019094528084526101c09094019390918301828280156121af57602002820191906000526020600020906000905b82829054906101000a9004600f0b600f0b81526020019060100190602082600f010492830192600103820291508084116121785790505b505050505081525050915050919050565b73ffffffffffffffffffffffffffffffffffffffff82166000908152600682016020526040812082547201000000000000000000000000000000000000900460ff16156122925761220f6130c6565b5082547001000000000000000000000000000000009081900461ffff1660009081526020838152604091829020825180840190935254600f81810b810b900b83529290920460ff1691810182905290600214806122805750602081015160ff16600114801561228057508051600f0b155b1561229057600292505050610556565b505b60005b600584015481116122de57600081815260208390526040902054700100000000000000000000000000000000900460ff16156122d657600192505050610556565b600101612295565b506000949350505050565b600582015473ffffffffffffffffffffffffffffffffffffffff82166000908152600684016020526040812090917f7fffffffffffffffffffffffffffffffffffffffffffffffffffffffffffffff9183805b83811161236f57600081815260208490526040902054600f90810b900b915084821215612367578194505b60010161233c565b50929695505050505050565b60008183038183128015906123905750838113155b806123a557506000831280156123a557508381135b610cba576040517f08c379a00000000000000000000000000000000000000000000000000000000081526004016103a1906144d7565b6000826123ea57506000610556565b827fffffffffffffffffffffffffffffffffffffffffffffffffffffffffffffffff14801561243857507f800000000000000000000000000000000000000000000000000000000000000082145b1561246f576040517f08c379a00000000000000000000000000000000000000000000000000000000081526004016103a190614443565b8282028284828161247c57fe5b0514610cba576040517f08c379a00000000000000000000000000000000000000000000000000000000081526004016103a190614443565b6000808212156124c057fe5b5090565b600082820183811015610cba576040517f08c379a00000000000000000000000000000000000000000000000000000000081526004016103a190614352565b6000808061251e64ffffffffff85164263ffffffff6125c416565b90506303c26700811061255d576040517f08c379a00000000000000000000000000000000000000000000000000000000081526004016103a19061431b565b623b53808111156125725760015b91506125bd565b620a8c0081111561258457600361256b565b6201fa4081111561259657600461256b565b611c208111156125a757600561256b565b6103848111156125b857600661256b565b600791505b5092915050565b6000610cba83836040518060400160405280601e81526020017f536166654d6174683a207375627472616374696f6e206f766572666c6f770000815250612ebb565b6000806040518060400160405280601c81526020017f19457468657265756d205369676e6564204d6573736167653a0a3332000000008152508460405160200161265192919061414d565b60405160208183030381529060405280519060200120905060006001828560000151866020015187604001516040516000815260200160405260405161269a949392919061427c565b6020604051602081039080840390855afa1580156126bc573d6000803e3d6000fd5b50506040517fffffffffffffffffffffffffffffffffffffffffffffffffffffffffffffffe001519695505050505050565b6000826126fd57506000610556565b8282028284828161270a57fe5b0414610cba576040517f08c379a00000000000000000000000000000000000000000000000000000000081526004016103a1906143e6565b73ffffffffffffffffffffffffffffffffffffffff831660009081526003602052604081205481906127739061283a565b90506000876127b8576127956127888561283a565b839063ffffffff612f0116565b91506127b16127a38661283a565b60009063ffffffff61237b16565b90506127df565b6127d16127c48561283a565b839063ffffffff61237b16565b91506127dc8561283a565b90505b6000806127f28b898b6020015186612f61565b909250905061282b61281e633b9aca00612812848663ffffffff61237b16565b9063ffffffff6123db16565b859063ffffffff612f0116565b9b9a5050505050505050505050565b60007f800000000000000000000000000000000000000000000000000000000000000082106124c057fe5b60006060826000015160405160200161287e919061416f565b6040516020818303038152906040528051906020012083602001518460400151856060015186608001518760a001518860c001516040516020016128c89796959493929190613f0f565b604080518083037fffffffffffffffffffffffffffffffffffffffffffffffffffffffffffffffe0018152919052606084015190915060011661292e576101c083015160405161291c9183916020016140b6565b60405160208183030381529060405290505b805160209091012092915050565b6000806040518060400160405280601e81526020017f19466163747369676e6572205369676e6564204d6573736167653a0a333200008152508460405160200161265192919061414d565b60006129916130dd565b50825180516000908152600460205260408082209083015182919082908190156129c257505060e0840151336129cc565b505060e084015133905b60008060006129db8c8c6109bf565b929b5092995094509092509050866129fe578a9950505050505050505050610556565b612a07836124b4565b60e08a015173ffffffffffffffffffffffffffffffffffffffff16600090815260036020526040902055612a3a826124b4565b336000908152600360205260409020558554612a7790612a72906fffffffffffffffffffffffffffffffff168363ffffffff6124c416565b610cd2565b86547fffffffffffffffffffffffffffffffff00000000000000000000000000000000166fffffffffffffffffffffffffffffffff91909116178655612abb6130c6565b5073ffffffffffffffffffffffffffffffffffffffff8516600090815260068701602090815260408083208c83015161ffff16845280835292819020815180830190925254600f90810b810b810b808352600193830193909352909291612b2e91612a7291900b8b63ffffffff612f0116565b600f90810b810b835260208c8101805161ffff9081166000908152948352604080862087518154988601517fffffffffffffffffffffffffffffffff000000000000000000000000000000009099166fffffffffffffffffffffffffffffffff91880b91909116177fffffffffffffffffffffffffffffff00ffffffffffffffffffffffffffffffff1670010000000000000000000000000000000060ff998a1681029190911790915573ffffffffffffffffffffffffffffffffffffffff8c16875260068e018552818720935190921686528284529485902085518087019096525480850b850b850b808752919004909516918401919091529192612c3a91612a7291900b8b61237b565b600f90810b810b8352600160208085019182528d81015161ffff166000908152938152604080852095518654935160ff16700100000000000000000000000000000000027fffffffffffffffffffffffffffffff00ffffffffffffffffffffffffffffffff9190950b6fffffffffffffffffffffffffffffffff167fffffffffffffffffffffffffffffffff000000000000000000000000000000009094169390931792909216929092179093558a82526007890190522054612d03908863ffffffff6124c416565b8660070160008a81526020019081526020016000208190555088600001518473ffffffffffffffffffffffffffffffffffffffff168673ffffffffffffffffffffffffffffffffffffffff167f7881338eb26bc3f4eb2d539721ba87c61744a77ccef589c34a5ad54af21fadf2428d602001518e606001518d8f604051612d8e9594939291906145fb565b60405180910390a4612da68b8863ffffffff6125c416565b9c9b505050505050505050505050565b600060608260000151604051602001612dcf919061416f565b6040516020818303038152906040528051906020012083602001518460400151856060015186608001518760a001518860c001518961010001518a61014001518b6101a001518c60e00151604051602001612e349b9a99989796959493929190613fc2565b604080517fffffffffffffffffffffffffffffffffffffffffffffffffffffffffffffffe0818403018152908290526101208501516101608601516101808701516101c088015193955061291c948694906020016140dd565b600060606040518060600160405280602a81526020016146b1602a9139600184016006020151915050919050565b60008184841115612ef9576040517f08c379a00000000000000000000000000000000000000000000000000000000081526004016103a1919061429a565b505050900390565b6000828201818312801590612f165750838112155b80612f2b5750600083128015612f2b57508381125b610cba576040517f08c379a00000000000000000000000000000000000000000000000000000000081526004016103a190614389565b600584015473ffffffffffffffffffffffffffffffffffffffff841660009081526006860160205260408120909182917f7fffffffffffffffffffffffffffffffffffffffffffffffffffffffffffffff91829184805b83811161301657600081815260208490526040902054600f90810b900b915085821215612fe3578195505b8961ffff1681141561300257612fff828a63ffffffff612f0116565b91505b8482121561300e578194505b600101612fb8565b50939a92995091975050505050505050565b604080516060810182526000808252602082018190529181019190915290565b604080516101e08101825260608082526000602083018190529282018390528082018390526080820183905260a0820183905260c0820183905260e08201839052610100820183905261012082018390526101408201839052610160820183905261018082018390526101a08201929092526101c081019190915290565b604080518082019091526000808252602082015290565b6040805161010081018252600080825260208201819052918101829052606081018290526080810182905260a0810182905260c0810182905260e081019190915290565b6040518060a00160405280613134613048565b8152602001613141613028565b81526000602082018190526040820181905260609091015290565b604051806040016040528061316f6130dd565b815260200161317c613028565b905290565b828054600181600116156101000203166002900490600052602060002090601f016020900481019282601f106131c257805160ff19168380011785556131ef565b828001600101855582156131ef579182015b828111156131ef5782518255916020019190600101906131d4565b506124c09291506132cd565b828054828255906000526020600020906001016002900481019282156132c15791602002820160005b8382111561328357835183826101000a8154816fffffffffffffffffffffffffffffffff0219169083600f0b6fffffffffffffffffffffffffffffffff1602179055509260200192601001602081600f01049283019260010302613224565b80156132bf5782816101000a8154906fffffffffffffffffffffffffffffffff0219169055601001602081600f01049283019260010302613283565b505b506124c09291506132e7565b610cd291905b808211156124c057600081556001016132d3565b610cd291905b808211156124c05780547fffffffffffffffffffffffffffffffff000000000000000000000000000000001681556001016132ed565b803573ffffffffffffffffffffffffffffffffffffffff8116811461055657600080fd5b600082601f830112613357578081fd5b813561336a61336582614657565b614630565b81815291506020808301908481018184028601820187101561338b57600080fd5b60005b848110156133b2576133a08883613323565b8452928201929082019060010161338e565b505050505092915050565b600082601f8301126133cd578081fd5b81356133db61336582614657565b8181529150602080830190848101818402860182018710156133fc57600080fd5b60005b848110156133b2578135845292820192908201906001016133ff565b600082601f83011261342b578081fd5b813561343961336582614657565b81815291506020808301908481018184028601820187101561345a57600080fd5b6000805b8581101561348857823580600f0b8114613476578283fd5b8552938301939183019160010161345e565b50505050505092915050565b8035801515811461055657600080fd5b8035600081900b811461055657600080fd5b600082601f8301126134c6578081fd5b813567ffffffffffffffff8111156134dc578182fd5b61350d60207fffffffffffffffffffffffffffffffffffffffffffffffffffffffffffffffe0601f84011601614630565b915080825283602082850101111561352457600080fd5b8060208401602084013760009082016020015292915050565b6000818303610160811215613550578182fd5b61355a6040614630565b91506101008082121561356c57600080fd5b61357581614630565b9150833582526135888560208601613641565b602083015261359a8560408601613494565b6040830152606084013560608301526080840135608083015260a084013560a083015260c084013560c08301526135d48560e08601613323565b60e08301528183526135e8858286016135f5565b6020840152505092915050565b600060608284031215613606578081fd5b6136106060614630565b9050813560ff8116811461362357600080fd5b80825250602082013560208201526040820135604082015292915050565b803561ffff8116811461055657600080fd5b803562ffffff8116811461055657600080fd5b803563ffffffff8116811461055657600080fd5b803564ffffffffff8116811461055657600080fd5b803560ff8116811461055657600080fd5b6000806000604084860312156136b4578283fd5b833573ffffffffffffffffffffffffffffffffffffffff811681146136d7578384fd5b9250602084013567ffffffffffffffff808211156136f3578384fd5b81860187601f820112613704578485fd5b8035925081831115613714578485fd5b8760208085028301011115613727578485fd5b949760209095019650909450505050565b6000806040838503121561374a578182fd5b6137548484613323565b946020939093013593505050565b60008060408385031215613774578182fd5b823567ffffffffffffffff81111561378a578283fd5b80840185601f82011261379b578384fd5b803591506137ab61336583614657565b80838252602080830192508084016101608a8382890288010111156137ce578889fd5b8895505b868610156137fa576137e48b8361353d565b85526001959095019493820193908101906137d2565b5091999701359750505050505050565b60006020828403121561381b578081fd5b5035919050565b600080600060608486031215613836578081fd5b83359250602084013567ffffffffffffffff80821115613854578283fd5b61386087838801613347565b93506040860135915080821115613875578283fd5b50613882868287016133bd565b9150509250925092565b600080600080600060e086880312156138a3578283fd5b853594506138b487602088016135f5565b93506080860135925060a086013567ffffffffffffffff808211156138d7578283fd5b6138e389838a01613347565b935060c08801359150808211156138f8578283fd5b50613905888289016133bd565b9150509295509295909350565b600080600060a08486031215613926578081fd5b833567ffffffffffffffff8082111561393d578283fd5b6101e0918601808803831315613951578384fd5b61395a83614630565b813593508284111561396a578485fd5b613976898584016134b6565b8152613985896020840161367a565b60208201526139978960408401613653565b60408201526139a9896060840161368f565b60608201526139bb896080840161368f565b60808201526139cd8960a0840161368f565b60a08201526139df8960c084016134a4565b60c08201526139f18960e08401613323565b60e08201526101009350613a078985840161368f565b848201526101209350613a1c89858401613666565b848201526101409350613a3189858401613323565b848201526101609350613a4689858401613666565b848201526101809350613a5b89858401613666565b848201526101a09350613a7089858401613323565b848201526101c093508382013583811115613a89578586fd5b613a958a82850161341b565b858301525080965050505050613aae8560208601613494565b9150613abd85604086016135f5565b90509250925092565b6000806101808385031215613ad9578182fd5b613ae3848461353d565b94610160939093013593505050565b600060208284031215613b03578081fd5b813564ffffffffff81168114610cba578182fd5b73ffffffffffffffffffffffffffffffffffffffff169052565b60601b7fffffffffffffffffffffffffffffffffffffffff000000000000000000000000169052565b6000815180845260208085019450808401835b83811015613b8c578151600f0b87529582019590820190600101613b6d565b509495945050505050565b80516000906020808401838315613b8c578151600f0b87529582019590820190600101613b6d565b60000b9052565b60000b60f81b9052565b60008151808452613be8816020860160208601614677565b601f017fffffffffffffffffffffffffffffffffffffffffffffffffffffffffffffffe0169290920160200192915050565b60006101e08251818552613c3082860182613bd0565b60208501519250613c446020870184613e05565b60408501519250613c586040870184613df2565b60608501519250613c6c6060870184613e10565b60808501519250613c806080870184613e10565b60a08501519250613c9460a0870184613e10565b60c08501519250613ca860c0870184613bbf565b60e08501519250613cbc60e0870184613b17565b6101009250828501519150613cd383870183613e10565b6101209250828501519150613cea83870183613dfb565b6101409250828501519150613d0183870183613b17565b6101609250828501519150613d1883870183613dfb565b6101809250828501519150613d2f83870183613dfb565b6101a09250828501519150613d4683870183613b17565b6101c0925082850151915085810383870152613d628183613b5a565b9695505050505050565b6000815160e08452613d8160e0850182613c1a565b602084015191506fffffffffffffffffffffffffffffffff825116602086015261ffff60208301511660408601526040820151151560608601526040840151608086015260608401519150613dd5826146a3565b8160a08601526080840151151560c0860152809250505092915050565b62ffffff169052565b63ffffffff169052565b64ffffffffff169052565b60ff169052565b60f81b7fff00000000000000000000000000000000000000000000000000000000000000169052565b6060998a1b7fffffffffffffffffffffffffffffffffffffffff0000000000000000000000009081168252601482019990995260f09790971b7fffff00000000000000000000000000000000000000000000000000000000000016603488015294151560f81b6036870152603786019390935260578501919091526077840152609783015290921b1660b782015260cb0190565b928352602083019190915260f01b7fffff00000000000000000000000000000000000000000000000000000000000016604082015260420190565b96875260d89590951b7fffffffffff00000000000000000000000000000000000000000000000000000016602087015260e89390931b7fffffff000000000000000000000000000000000000000000000000000000000016602586015260f891821b7fff00000000000000000000000000000000000000000000000000000000000000908116602887015290821b8116602986015291811b909116602a84015260009190910b901b602b820152602c0190565b60008c82527fffffffffff0000000000000000000000000000000000000000000000000000008c60d81b1660208301527fffffff00000000000000000000000000000000000000000000000000000000008b60e81b1660258301527fff00000000000000000000000000000000000000000000000000000000000000808b60f81b166028840152808a60f81b16602984015250614062602a830189613e17565b61406f602b830188613bc6565b61407c602c830187613e17565b614089602d830186613b31565b6140966041830185613b31565b6140a36055830184613b31565b506069019b9a5050505050505050505050565b600083516140c8818460208801614677565b6140d481840185613b97565b95945050505050565b600086516140ef818460208b01614677565b8083017fffffffff000000000000000000000000000000000000000000000000000000009150818860e01b168152818760e01b166004820152818660e01b166008820152614140600c820186613b97565b9998505050505050505050565b6000835161415f818460208801614677565b9190910191825250602001919050565b60008251614181818460208701614677565b9190910192915050565b6000602080830181845280855180835260408601915060408482028701019250838701855b828110156141fc577fffffffffffffffffffffffffffffffffffffffffffffffffffffffffffffffc08886030184526141ea858351613d6c565b945092850192908501906001016141b0565b5092979650505050505050565b6020808252825182820181905260009190848201906040850190845b8181101561424157835183529284019291840191600101614225565b50909695505050505050565b90815260200190565b600084825264ffffffffff84166020830152606060408301526140d46060830184613bd0565b93845260ff9290921660208401526040830152606082015260800190565b600060208252610cba6020830184613bd0565b60208082526017908201527f4d61726b6574206e6f742079657420736574746c65642e000000000000000000604082015260600190565b60208082526012908201527f5369676e617475726520696e76616c69642e0000000000000000000000000000604082015260600190565b60208082526015908201527f746f6f2066617220696e20746865206675747572650000000000000000000000604082015260600190565b6020808252601b908201527f536166654d6174683a206164646974696f6e206f766572666c6f770000000000604082015260600190565b60208082526021908201527f5369676e6564536166654d6174683a206164646974696f6e206f766572666c6f60408201527f7700000000000000000000000000000000000000000000000000000000000000606082015260800190565b60208082526021908201527f536166654d6174683a206d756c7469706c69636174696f6e206f766572666c6f60408201527f7700000000000000000000000000000000000000000000000000000000000000606082015260800190565b60208082526027908201527f5369676e6564536166654d6174683a206d756c7469706c69636174696f6e206f60408201527f766572666c6f7700000000000000000000000000000000000000000000000000606082015260800190565b60208082526015908201527f4e6f7420656e6f756768206c69717569646974792e0000000000000000000000604082015260600190565b60208082526024908201527f5369676e6564536166654d6174683a207375627472616374696f6e206f76657260408201527f666c6f7700000000000000000000000000000000000000000000000000000000606082015260800190565b600060208252610cba6020830184613c1a565b600060208252610cba6020830184613d6c565b60006060820185835260206060818501528186518084526080860191508288019350845b818110156145ab5784518051600f0b845284015160ff16848401529383019360409092019160010161457e565b50508093505050506145bc836146a3565b826040830152949350505050565b948552602085019390935260408401919091526060830152608082015260a00190565b918252602082015260400190565b94855261ffff93909316602085015260408401919091526060830152608082015260a00190565b60ff91909116815260200190565b60405181810167ffffffffffffffff8111828210171561464f57600080fd5b604052919050565b600067ffffffffffffffff82111561466d578081fd5b5060209081020190565b60005b8381101561469257818101518382015260200161467a565b8381111561191c5750506000910152565b600381106146ad57fe5b5056fe000000000000000000fa7d000000003b53800000000a8c0000000001fa40000000001c20000000000000a2646970667358221220f4ed8f454c52dd1d52c46d07cf894c14f1e215d554141bf711256b980d52284564736f6c63430006040033",
				"opcodes": "PUSH1 0x80 PUSH1 0x40 MSTORE CALLVALUE DUP1 ISZERO PUSH2 0x10 JUMPI PUSH1 0x0 DUP1 REVERT JUMPDEST POP NUMBER PUSH1 0x1 SSTORE TIMESTAMP PUSH1 0x0 SSTORE PUSH2 0x4710 DUP1 PUSH2 0x28 PUSH1 0x0 CODECOPY PUSH1 0x0 RETURN INVALID PUSH1 0x80 PUSH1 0x40 MSTORE PUSH1 0x4 CALLDATASIZE LT PUSH2 0xDD JUMPI PUSH1 0x0 CALLDATALOAD PUSH1 0xE0 SHR DUP1 PUSH4 0x7CC1F867 GT PUSH2 0x7F JUMPI DUP1 PUSH4 0xC70BE146 GT PUSH2 0x59 JUMPI DUP1 PUSH4 0xC70BE146 EQ PUSH2 0x253 JUMPI DUP1 PUSH4 0xD245A559 EQ PUSH2 0x280 JUMPI DUP1 PUSH4 0xE8D261C9 EQ PUSH2 0x2A0 JUMPI DUP1 PUSH4 0xEE1F69EB EQ PUSH2 0x2C0 JUMPI PUSH2 0xDD JUMP JUMPDEST DUP1 PUSH4 0x7CC1F867 EQ PUSH2 0x209 JUMPI DUP1 PUSH4 0x997402F2 EQ PUSH2 0x22B JUMPI DUP1 PUSH4 0xA1AA12B2 EQ PUSH2 0x233 JUMPI PUSH2 0xDD JUMP JUMPDEST DUP1 PUSH4 0x20185AA2 GT PUSH2 0xBB JUMPI DUP1 PUSH4 0x20185AA2 EQ PUSH2 0x169 JUMPI DUP1 PUSH4 0x248A2954 EQ PUSH2 0x189 JUMPI DUP1 PUSH4 0x52D02688 EQ PUSH2 0x1BA JUMPI DUP1 PUSH4 0x6F1DC339 EQ PUSH2 0x1E7 JUMPI PUSH2 0xDD JUMP JUMPDEST DUP1 PUSH4 0x5090E1A EQ PUSH2 0xE2 JUMPI DUP1 PUSH4 0x95200CE EQ PUSH2 0x104 JUMPI DUP1 PUSH4 0x19018BDB EQ PUSH2 0x13A JUMPI JUMPDEST PUSH1 0x0 DUP1 REVERT JUMPDEST CALLVALUE DUP1 ISZERO PUSH2 0xEE JUMPI PUSH1 0x0 DUP1 REVERT JUMPDEST POP PUSH2 0x102 PUSH2 0xFD CALLDATASIZE PUSH1 0x4 PUSH2 0x3822 JUMP JUMPDEST PUSH2 0x2ED JUMP JUMPDEST STOP JUMPDEST CALLVALUE DUP1 ISZERO PUSH2 0x110 JUMPI PUSH1 0x0 DUP1 REVERT JUMPDEST POP PUSH2 0x124 PUSH2 0x11F CALLDATASIZE PUSH1 0x4 PUSH2 0x3AF2 JUMP JUMPDEST PUSH2 0x54B JUMP JUMPDEST PUSH1 0x40 MLOAD PUSH2 0x131 SWAP2 SWAP1 PUSH2 0x4622 JUMP JUMPDEST PUSH1 0x40 MLOAD DUP1 SWAP2 SUB SWAP1 RETURN JUMPDEST CALLVALUE DUP1 ISZERO PUSH2 0x146 JUMPI PUSH1 0x0 DUP1 REVERT JUMPDEST POP PUSH2 0x15A PUSH2 0x155 CALLDATASIZE PUSH1 0x4 PUSH2 0x380A JUMP JUMPDEST PUSH2 0x55C JUMP JUMPDEST PUSH1 0x40 MLOAD PUSH2 0x131 SWAP4 SWAP3 SWAP2 SWAP1 PUSH2 0x455A JUMP JUMPDEST CALLVALUE DUP1 ISZERO PUSH2 0x175 JUMPI PUSH1 0x0 DUP1 REVERT JUMPDEST POP PUSH2 0x102 PUSH2 0x184 CALLDATASIZE PUSH1 0x4 PUSH2 0x380A JUMP JUMPDEST PUSH2 0x8C1 JUMP JUMPDEST CALLVALUE DUP1 ISZERO PUSH2 0x195 JUMPI PUSH1 0x0 DUP1 REVERT JUMPDEST POP PUSH2 0x1A9 PUSH2 0x1A4 CALLDATASIZE PUSH1 0x4 PUSH2 0x3AC6 JUMP JUMPDEST PUSH2 0x9BF JUMP JUMPDEST PUSH1 0x40 MLOAD PUSH2 0x131 SWAP6 SWAP5 SWAP4 SWAP3 SWAP2 SWAP1 PUSH2 0x45CA JUMP JUMPDEST CALLVALUE DUP1 ISZERO PUSH2 0x1C6 JUMPI PUSH1 0x0 DUP1 REVERT JUMPDEST POP PUSH2 0x1DA PUSH2 0x1D5 CALLDATASIZE PUSH1 0x4 PUSH2 0x36A0 JUMP JUMPDEST PUSH2 0xC33 JUMP JUMPDEST PUSH1 0x40 MLOAD PUSH2 0x131 SWAP2 SWAP1 PUSH2 0x418B JUMP JUMPDEST CALLVALUE DUP1 ISZERO PUSH2 0x1F3 JUMPI PUSH1 0x0 DUP1 REVERT JUMPDEST POP PUSH2 0x1FC PUSH2 0xCC1 JUMP JUMPDEST PUSH1 0x40 MLOAD PUSH2 0x131 SWAP2 SWAP1 PUSH2 0x424D JUMP JUMPDEST CALLVALUE DUP1 ISZERO PUSH2 0x215 JUMPI PUSH1 0x0 DUP1 REVERT JUMPDEST POP PUSH2 0x21E PUSH2 0xCD5 JUMP JUMPDEST PUSH1 0x40 MLOAD PUSH2 0x131 SWAP2 SWAP1 PUSH2 0x4209 JUMP JUMPDEST PUSH2 0x102 PUSH2 0xDF0 JUMP JUMPDEST CALLVALUE DUP1 ISZERO PUSH2 0x23F JUMPI PUSH1 0x0 DUP1 REVERT JUMPDEST POP PUSH2 0x102 PUSH2 0x24E CALLDATASIZE PUSH1 0x4 PUSH2 0x388C JUMP JUMPDEST PUSH2 0xE67 JUMP JUMPDEST CALLVALUE DUP1 ISZERO PUSH2 0x25F JUMPI PUSH1 0x0 DUP1 REVERT JUMPDEST POP PUSH2 0x273 PUSH2 0x26E CALLDATASIZE PUSH1 0x4 PUSH2 0x3738 JUMP JUMPDEST PUSH2 0x15B5 JUMP JUMPDEST PUSH1 0x40 MLOAD PUSH2 0x131 SWAP2 SWAP1 PUSH2 0x4547 JUMP JUMPDEST CALLVALUE DUP1 ISZERO PUSH2 0x28C JUMPI PUSH1 0x0 DUP1 REVERT JUMPDEST POP PUSH2 0x102 PUSH2 0x29B CALLDATASIZE PUSH1 0x4 PUSH2 0x3762 JUMP JUMPDEST PUSH2 0x18DE JUMP JUMPDEST CALLVALUE DUP1 ISZERO PUSH2 0x2AC JUMPI PUSH1 0x0 DUP1 REVERT JUMPDEST POP PUSH2 0x1FC PUSH2 0x2BB CALLDATASIZE PUSH1 0x4 PUSH2 0x3912 JUMP JUMPDEST PUSH2 0x1922 JUMP JUMPDEST CALLVALUE DUP1 ISZERO PUSH2 0x2CC JUMPI PUSH1 0x0 DUP1 REVERT JUMPDEST POP PUSH2 0x2E0 PUSH2 0x2DB CALLDATASIZE PUSH1 0x4 PUSH2 0x380A JUMP JUMPDEST PUSH2 0x1F3B JUMP JUMPDEST PUSH1 0x40 MLOAD PUSH2 0x131 SWAP2 SWAP1 PUSH2 0x4534 JUMP JUMPDEST PUSH1 0x0 DUP4 DUP2 MSTORE PUSH1 0x4 PUSH1 0x20 MSTORE PUSH1 0x40 SWAP1 KECCAK256 PUSH2 0x303 PUSH2 0x3028 JUMP JUMPDEST POP PUSH1 0x40 DUP1 MLOAD PUSH1 0x60 DUP2 ADD DUP3 MSTORE DUP3 SLOAD PUSH16 0xFFFFFFFFFFFFFFFFFFFFFFFFFFFFFFFF DUP2 AND DUP3 MSTORE PUSH17 0x100000000000000000000000000000000 DUP2 DIV PUSH2 0xFFFF AND PUSH1 0x20 DUP4 ADD DUP2 SWAP1 MSTORE PUSH19 0x1000000000000000000000000000000000000 SWAP1 SWAP2 DIV PUSH1 0xFF AND ISZERO ISZERO SWAP3 DUP3 ADD DUP4 SWAP1 MSTORE SWAP1 SWAP2 PUSH1 0x1 EQ PUSH2 0x3AA JUMPI PUSH1 0x40 MLOAD PUSH32 0x8C379A000000000000000000000000000000000000000000000000000000000 DUP2 MSTORE PUSH1 0x4 ADD PUSH2 0x3A1 SWAP1 PUSH2 0x42AD JUMP JUMPDEST PUSH1 0x40 MLOAD DUP1 SWAP2 SUB SWAP1 REVERT JUMPDEST PUSH1 0x0 DUP1 JUMPDEST DUP7 MLOAD DUP3 LT ISZERO PUSH2 0x541 JUMPI PUSH1 0x0 DUP8 DUP4 DUP2 MLOAD DUP2 LT PUSH2 0x3C5 JUMPI INVALID JUMPDEST PUSH1 0x20 MUL PUSH1 0x20 ADD ADD MLOAD SWAP1 POP PUSH1 0x2 DUP1 DUP2 GT ISZERO PUSH2 0x3DB JUMPI INVALID JUMPDEST PUSH2 0x3E5 DUP3 DUP9 PUSH2 0x21C0 JUMP JUMPDEST PUSH1 0x2 DUP2 GT ISZERO PUSH2 0x3F0 JUMPI INVALID JUMPDEST EQ PUSH2 0x535 JUMPI PUSH2 0x3FF DUP7 DUP3 PUSH2 0x22E9 JUMP JUMPDEST PUSH20 0xFFFFFFFFFFFFFFFFFFFFFFFFFFFFFFFFFFFFFFFF DUP3 AND PUSH1 0x0 SWAP1 DUP2 MSTORE PUSH1 0x6 DUP9 ADD PUSH1 0x20 SWAP1 DUP2 MSTORE PUSH1 0x40 DUP1 DUP4 KECCAK256 PUSH2 0xFFFF DUP10 AND DUP5 MSTORE SWAP1 SWAP2 MSTORE DUP2 KECCAK256 SLOAD SWAP2 SWAP4 POP SWAP1 PUSH2 0x451 SWAP1 PUSH1 0xF SWAP1 DUP2 SIGNEXTEND SWAP1 SIGNEXTEND DUP5 PUSH4 0xFFFFFFFF PUSH2 0x237B AND JUMP JUMPDEST PUSH20 0xFFFFFFFFFFFFFFFFFFFFFFFFFFFFFFFFFFFFFFFF DUP4 AND PUSH1 0x0 SWAP1 DUP2 MSTORE PUSH1 0x6 DUP10 ADD PUSH1 0x20 SWAP1 DUP2 MSTORE PUSH1 0x40 DUP1 DUP4 KECCAK256 PUSH2 0xFFFF DUP11 AND DUP5 MSTORE SWAP1 SWAP2 MSTORE SWAP1 KECCAK256 DUP1 SLOAD PUSH32 0xFFFFFFFFFFFFFFFFFFFFFFFFFFFFFF00FFFFFFFFFFFFFFFFFFFFFFFFFFFFFFFF AND PUSH17 0x200000000000000000000000000000000 OR SWAP1 SSTORE SWAP1 POP PUSH2 0x50D PUSH2 0x4DB PUSH2 0x4D6 DUP4 PUSH4 0x3B9ACA00 PUSH2 0x23DB JUMP JUMPDEST PUSH2 0x24B4 JUMP JUMPDEST PUSH20 0xFFFFFFFFFFFFFFFFFFFFFFFFFFFFFFFFFFFFFFFF DUP5 AND PUSH1 0x0 SWAP1 DUP2 MSTORE PUSH1 0x3 PUSH1 0x20 MSTORE PUSH1 0x40 SWAP1 KECCAK256 SLOAD SWAP1 PUSH4 0xFFFFFFFF PUSH2 0x24C4 AND JUMP JUMPDEST PUSH20 0xFFFFFFFFFFFFFFFFFFFFFFFFFFFFFFFFFFFFFFFF DUP4 AND PUSH1 0x0 SWAP1 DUP2 MSTORE PUSH1 0x3 PUSH1 0x20 MSTORE PUSH1 0x40 SWAP1 KECCAK256 SSTORE POP JUMPDEST POP PUSH1 0x1 SWAP1 SWAP2 ADD SWAP1 PUSH2 0x3AE JUMP JUMPDEST POP POP POP POP POP POP POP POP JUMP JUMPDEST PUSH1 0x0 PUSH2 0x556 DUP3 PUSH2 0x2503 JUMP JUMPDEST SWAP3 SWAP2 POP POP JUMP JUMPDEST PUSH1 0x0 DUP2 DUP2 MSTORE PUSH1 0x4 PUSH1 0x20 MSTORE PUSH1 0x40 DUP2 KECCAK256 PUSH1 0x60 SWAP1 DUP3 SWAP1 PUSH2 0x577 PUSH2 0x3048 JUMP JUMPDEST DUP2 PUSH1 0x1 ADD PUSH1 0x40 MLOAD DUP1 PUSH2 0x1E0 ADD PUSH1 0x40 MSTORE SWAP1 DUP2 PUSH1 0x0 DUP3 ADD DUP1 SLOAD PUSH1 0x1 DUP2 PUSH1 0x1 AND ISZERO PUSH2 0x100 MUL SUB AND PUSH1 0x2 SWAP1 DIV DUP1 PUSH1 0x1F ADD PUSH1 0x20 DUP1 SWAP2 DIV MUL PUSH1 0x20 ADD PUSH1 0x40 MLOAD SWAP1 DUP2 ADD PUSH1 0x40 MSTORE DUP1 SWAP3 SWAP2 SWAP1 DUP2 DUP2 MSTORE PUSH1 0x20 ADD DUP3 DUP1 SLOAD PUSH1 0x1 DUP2 PUSH1 0x1 AND ISZERO PUSH2 0x100 MUL SUB AND PUSH1 0x2 SWAP1 DIV DUP1 ISZERO PUSH2 0x620 JUMPI DUP1 PUSH1 0x1F LT PUSH2 0x5F5 JUMPI PUSH2 0x100 DUP1 DUP4 SLOAD DIV MUL DUP4 MSTORE SWAP2 PUSH1 0x20 ADD SWAP2 PUSH2 0x620 JUMP JUMPDEST DUP3 ADD SWAP2 SWAP1 PUSH1 0x0 MSTORE PUSH1 0x20 PUSH1 0x0 KECCAK256 SWAP1 JUMPDEST DUP2 SLOAD DUP2 MSTORE SWAP1 PUSH1 0x1 ADD SWAP1 PUSH1 0x20 ADD DUP1 DUP4 GT PUSH2 0x603 JUMPI DUP3 SWAP1 SUB PUSH1 0x1F AND DUP3 ADD SWAP2 JUMPDEST POP POP POP SWAP2 DUP4 MSTORE POP POP PUSH1 0x1 DUP3 ADD SLOAD PUSH5 0xFFFFFFFFFF DUP2 AND PUSH1 0x20 DUP1 DUP5 ADD SWAP2 SWAP1 SWAP2 MSTORE PUSH3 0xFFFFFF PUSH6 0x10000000000 DUP1 DUP5 DIV SWAP2 SWAP1 SWAP2 AND PUSH1 0x40 DUP1 DUP7 ADD SWAP2 SWAP1 SWAP2 MSTORE PUSH1 0xFF PUSH9 0x10000000000000000 DUP6 DIV DUP2 AND PUSH1 0x60 DUP8 ADD MSTORE PUSH10 0x1000000000000000000 DUP6 DIV DUP2 AND PUSH1 0x80 DUP8 ADD MSTORE PUSH11 0x100000000000000000000 DUP6 DIV DUP2 AND PUSH1 0xA0 DUP8 ADD MSTORE PUSH12 0x10000000000000000000000 DUP6 DIV PUSH1 0x0 SWAP1 DUP2 SIGNEXTEND DUP2 SIGNEXTEND SWAP1 SIGNEXTEND PUSH1 0xC0 DUP8 ADD MSTORE PUSH20 0xFFFFFFFFFFFFFFFFFFFFFFFFFFFFFFFFFFFFFFFF PUSH13 0x1000000000000000000000000 SWAP1 SWAP6 DIV DUP6 AND PUSH1 0xE0 DUP8 ADD MSTORE PUSH1 0x2 DUP8 ADD SLOAD SWAP1 DUP2 AND PUSH2 0x100 DUP1 DUP9 ADD SWAP2 SWAP1 SWAP2 MSTORE PUSH4 0xFFFFFFFF SWAP1 DUP3 DIV DUP2 AND PUSH2 0x120 DUP9 ADD MSTORE SWAP3 DUP2 DIV DUP6 AND PUSH2 0x140 DUP8 ADD MSTORE PUSH26 0x100000000000000000000000000000000000000000000000000 SWAP1 DIV DUP3 AND PUSH2 0x160 DUP7 ADD MSTORE PUSH1 0x3 DUP7 ADD SLOAD SWAP2 DUP3 AND PUSH2 0x180 DUP7 ADD MSTORE PUSH5 0x100000000 SWAP1 SWAP2 DIV SWAP1 SWAP3 AND PUSH2 0x1A0 DUP5 ADD MSTORE PUSH1 0x4 DUP5 ADD DUP1 SLOAD DUP4 MLOAD DUP2 DUP5 MUL DUP2 ADD DUP5 ADD SWAP1 SWAP5 MSTORE DUP1 DUP5 MSTORE PUSH2 0x1C0 SWAP1 SWAP5 ADD SWAP4 SWAP1 SWAP2 DUP4 ADD DUP3 DUP3 DUP1 ISZERO PUSH2 0x7C6 JUMPI PUSH1 0x20 MUL DUP3 ADD SWAP2 SWAP1 PUSH1 0x0 MSTORE PUSH1 0x20 PUSH1 0x0 KECCAK256 SWAP1 PUSH1 0x0 SWAP1 JUMPDEST DUP3 DUP3 SWAP1 SLOAD SWAP1 PUSH2 0x100 EXP SWAP1 DIV PUSH1 0xF SIGNEXTEND PUSH1 0xF SIGNEXTEND DUP2 MSTORE PUSH1 0x20 ADD SWAP1 PUSH1 0x10 ADD SWAP1 PUSH1 0x20 DUP3 PUSH1 0xF ADD DIV SWAP3 DUP4 ADD SWAP3 PUSH1 0x1 SUB DUP3 MUL SWAP2 POP DUP1 DUP5 GT PUSH2 0x78F JUMPI SWAP1 POP JUMPDEST POP POP POP POP POP DUP2 MSTORE POP POP SWAP1 POP DUP1 PUSH2 0x1C0 ADD MLOAD MLOAD PUSH1 0x1 ADD PUSH1 0x40 MLOAD SWAP1 DUP1 DUP3 MSTORE DUP1 PUSH1 0x20 MUL PUSH1 0x20 ADD DUP3 ADD PUSH1 0x40 MSTORE DUP1 ISZERO PUSH2 0x814 JUMPI DUP2 PUSH1 0x20 ADD JUMPDEST PUSH2 0x801 PUSH2 0x30C6 JUMP JUMPDEST DUP2 MSTORE PUSH1 0x20 ADD SWAP1 PUSH1 0x1 SWAP1 SUB SWAP1 DUP2 PUSH2 0x7F9 JUMPI SWAP1 POP JUMPDEST POP SWAP4 POP PUSH1 0x0 JUMPDEST DUP2 PUSH2 0x1C0 ADD MLOAD MLOAD DUP2 GT PUSH2 0x894 JUMPI CALLER PUSH1 0x0 SWAP1 DUP2 MSTORE PUSH1 0x6 DUP5 ADD PUSH1 0x20 SWAP1 DUP2 MSTORE PUSH1 0x40 DUP1 DUP4 KECCAK256 DUP5 DUP5 MSTORE DUP3 MSTORE SWAP2 DUP3 SWAP1 KECCAK256 DUP3 MLOAD DUP1 DUP5 ADD SWAP1 SWAP4 MSTORE SLOAD PUSH1 0xF DUP2 DUP2 SIGNEXTEND DUP2 SIGNEXTEND SWAP1 SIGNEXTEND DUP4 MSTORE PUSH17 0x100000000000000000000000000000000 SWAP1 DIV PUSH1 0xFF AND SWAP1 DUP3 ADD MSTORE DUP6 MLOAD DUP7 SWAP1 DUP4 SWAP1 DUP2 LT PUSH2 0x881 JUMPI INVALID JUMPDEST PUSH1 0x20 SWAP1 DUP2 MUL SWAP2 SWAP1 SWAP2 ADD ADD MSTORE PUSH1 0x1 ADD PUSH2 0x81A JUMP JUMPDEST POP CALLER PUSH1 0x0 DUP2 DUP2 MSTORE PUSH1 0x3 PUSH1 0x20 MSTORE PUSH1 0x40 SWAP1 KECCAK256 SLOAD SWAP1 DUP6 SWAP1 PUSH2 0x8B2 SWAP1 DUP6 PUSH2 0x21C0 JUMP JUMPDEST SWAP5 POP SWAP5 POP SWAP5 POP POP POP SWAP2 SWAP4 SWAP1 SWAP3 POP JUMP JUMPDEST CALLER PUSH1 0x0 SWAP1 DUP2 MSTORE PUSH1 0x3 PUSH1 0x20 MSTORE PUSH1 0x40 SWAP1 KECCAK256 SLOAD DUP2 GT ISZERO PUSH2 0x90A JUMPI PUSH1 0x40 MLOAD PUSH32 0x8C379A000000000000000000000000000000000000000000000000000000000 DUP2 MSTORE PUSH1 0x4 ADD PUSH2 0x3A1 SWAP1 PUSH2 0x44A0 JUMP JUMPDEST CALLER PUSH1 0x0 SWAP1 DUP2 MSTORE PUSH1 0x3 PUSH1 0x20 MSTORE PUSH1 0x40 SWAP1 KECCAK256 SLOAD PUSH2 0x92A SWAP1 DUP3 PUSH4 0xFFFFFFFF PUSH2 0x25C4 AND JUMP JUMPDEST CALLER PUSH1 0x0 DUP2 DUP2 MSTORE PUSH1 0x3 PUSH1 0x20 MSTORE PUSH1 0x40 DUP1 DUP3 KECCAK256 SWAP4 SWAP1 SWAP4 SSTORE SWAP2 MLOAD SWAP1 SWAP2 DUP4 ISZERO PUSH2 0x8FC MUL SWAP2 DUP5 SWAP2 DUP2 DUP2 DUP2 DUP6 DUP9 DUP9 CALL SWAP4 POP POP POP POP ISZERO DUP1 ISZERO PUSH2 0x968 JUMPI RETURNDATASIZE PUSH1 0x0 DUP1 RETURNDATACOPY RETURNDATASIZE PUSH1 0x0 REVERT JUMPDEST POP CALLER PUSH20 0xFFFFFFFFFFFFFFFFFFFFFFFFFFFFFFFFFFFFFFFF AND PUSH32 0x6E2EEC282B5765F3A053054D83D425D0E03E1003BB2740D41C1FCE6D4A0D74F7 TIMESTAMP DUP4 PUSH1 0x0 SUB PUSH1 0x40 MLOAD PUSH2 0x9B4 SWAP3 SWAP2 SWAP1 PUSH2 0x45ED JUMP JUMPDEST PUSH1 0x40 MLOAD DUP1 SWAP2 SUB SWAP1 LOG2 POP JUMP JUMPDEST PUSH1 0x0 DUP1 PUSH1 0x0 DUP1 PUSH1 0x0 PUSH2 0x9CF PUSH2 0x30DD JUMP JUMPDEST POP DUP7 MLOAD DUP1 MLOAD PUSH1 0x0 SWAP1 DUP2 MSTORE PUSH1 0x4 PUSH1 0x20 SWAP1 DUP2 MSTORE PUSH1 0x40 SWAP2 DUP3 SWAP1 KECCAK256 DUP4 MLOAD DUP3 DUP6 ADD MLOAD DUP5 DUP7 ADD MLOAD PUSH1 0x60 DUP8 ADD MLOAD PUSH1 0x80 DUP9 ADD MLOAD PUSH1 0xA0 DUP10 ADD MLOAD PUSH1 0xC0 DUP11 ADD MLOAD PUSH1 0xE0 DUP12 ADD MLOAD SWAP10 MLOAD SWAP8 SWAP10 PUSH2 0xA19 SWAP10 ADDRESS SWAP10 ADD PUSH2 0x3E40 JUMP JUMPDEST PUSH1 0x40 MLOAD PUSH1 0x20 DUP2 DUP4 SUB SUB DUP2 MSTORE SWAP1 PUSH1 0x40 MSTORE DUP1 MLOAD SWAP1 PUSH1 0x20 ADD KECCAK256 SWAP6 POP DUP2 PUSH1 0xE0 ADD MLOAD PUSH20 0xFFFFFFFFFFFFFFFFFFFFFFFFFFFFFFFFFFFFFFFF AND PUSH2 0xA5A DUP8 DUP12 PUSH1 0x20 ADD MLOAD PUSH2 0x2606 JUMP JUMPDEST PUSH20 0xFFFFFFFFFFFFFFFFFFFFFFFFFFFFFFFFFFFFFFFF AND EQ PUSH2 0xA7A JUMPI PUSH1 0x0 SWAP8 POP JUMPDEST PUSH1 0x80 DUP3 ADD MLOAD PUSH1 0x0 DUP8 DUP2 MSTORE PUSH1 0x7 DUP4 ADD PUSH1 0x20 MSTORE PUSH1 0x40 SWAP1 KECCAK256 SLOAD PUSH2 0xAA0 SWAP1 DUP11 PUSH4 0xFFFFFFFF PUSH2 0x24C4 AND JUMP JUMPDEST GT ISZERO PUSH2 0xACE JUMPI PUSH1 0x0 DUP7 DUP2 MSTORE PUSH1 0x7 DUP3 ADD PUSH1 0x20 MSTORE PUSH1 0x40 SWAP1 KECCAK256 SLOAD PUSH1 0x80 DUP4 ADD MLOAD PUSH2 0xACB SWAP2 PUSH4 0xFFFFFFFF PUSH2 0x25C4 AND JUMP JUMPDEST SWAP8 POP JUMPDEST PUSH1 0x0 PUSH2 0xAE7 DUP4 PUSH1 0x60 ADD MLOAD DUP11 PUSH2 0x26EE SWAP1 SWAP2 SWAP1 PUSH4 0xFFFFFFFF AND JUMP JUMPDEST PUSH1 0x4 DUP4 ADD SLOAD PUSH1 0x3 DUP5 ADD SLOAD SWAP2 SWAP3 POP PUSH2 0xB50 SWAP2 PUSH2 0xB43 SWAP2 PUSH4 0xFFFFFFFF SWAP1 DUP2 AND SWAP2 PUSH2 0xB37 SWAP2 PUSH2 0x100 DUP3 DIV DUP2 AND SWAP2 PUSH26 0x100000000000000000000000000000000000000000000000000 SWAP1 DIV DUP2 AND SWAP1 PUSH2 0x24C4 AND JUMP JUMPDEST SWAP1 PUSH4 0xFFFFFFFF PUSH2 0x24C4 AND JUMP JUMPDEST DUP11 SWAP1 PUSH4 0xFFFFFFFF PUSH2 0x26EE AND JUMP JUMPDEST SWAP4 POP PUSH2 0xB68 DUP3 DUP5 PUSH1 0x40 ADD MLOAD DUP6 DUP7 PUSH1 0xE0 ADD MLOAD DUP14 DUP7 PUSH2 0x2742 JUMP JUMPDEST SWAP6 POP PUSH2 0xB95 PUSH2 0xB76 DUP6 PUSH2 0x283A JUMP JUMPDEST PUSH2 0xB89 DUP5 DUP7 PUSH1 0x40 ADD MLOAD ISZERO DUP8 CALLER DUP16 DUP9 PUSH2 0x2742 JUMP JUMPDEST SWAP1 PUSH4 0xFFFFFFFF PUSH2 0x237B AND JUMP JUMPDEST PUSH1 0x5 DUP4 ADD SLOAD PUSH1 0x20 DUP6 ADD MLOAD SWAP2 SWAP7 POP PUSH2 0xFFFF SWAP1 SWAP2 AND GT DUP1 ISZERO SWAP1 PUSH2 0xBBA JUMPI POP DUP3 PUSH1 0xC0 ADD MLOAD NUMBER GT ISZERO JUMPDEST DUP1 ISZERO PUSH2 0xBDA JUMPI POP PUSH1 0xC0 DUP4 ADD MLOAD PUSH2 0xBD7 NUMBER PUSH1 0xC PUSH4 0xFFFFFFFF PUSH2 0x24C4 AND JUMP JUMPDEST LT ISZERO JUMPDEST DUP1 ISZERO PUSH2 0xC00 JUMPI POP PUSH1 0xE0 DUP4 ADD MLOAD PUSH20 0xFFFFFFFFFFFFFFFFFFFFFFFFFFFFFFFFFFFFFFFF AND CALLER EQ ISZERO JUMPDEST DUP1 ISZERO PUSH2 0xC0D JUMPI POP PUSH1 0x0 DUP7 SLT ISZERO JUMPDEST DUP1 ISZERO PUSH2 0xC1A JUMPI POP PUSH1 0x0 DUP6 SLT ISZERO JUMPDEST PUSH2 0xC23 JUMPI PUSH1 0x0 SWAP9 POP JUMPDEST POP DUP8 SWAP7 POP POP POP SWAP3 SWAP6 POP SWAP3 SWAP6 SWAP1 SWAP4 POP JUMP JUMPDEST PUSH1 0x40 DUP1 MLOAD DUP3 DUP2 MSTORE PUSH1 0x20 DUP1 DUP5 MUL DUP3 ADD ADD SWAP1 SWAP2 MSTORE PUSH1 0x60 SWAP1 DUP3 DUP1 ISZERO PUSH2 0xC6F JUMPI DUP2 PUSH1 0x20 ADD JUMPDEST PUSH2 0xC5C PUSH2 0x3121 JUMP JUMPDEST DUP2 MSTORE PUSH1 0x20 ADD SWAP1 PUSH1 0x1 SWAP1 SUB SWAP1 DUP2 PUSH2 0xC54 JUMPI SWAP1 POP JUMPDEST POP SWAP1 POP PUSH1 0x0 JUMPDEST DUP3 DUP2 LT ISZERO PUSH2 0xCB8 JUMPI PUSH2 0xC99 DUP6 DUP6 DUP6 DUP5 DUP2 DUP2 LT PUSH2 0xC8D JUMPI INVALID JUMPDEST SWAP1 POP PUSH1 0x20 MUL ADD CALLDATALOAD PUSH2 0x15B5 JUMP JUMPDEST DUP3 DUP3 DUP2 MLOAD DUP2 LT PUSH2 0xCA5 JUMPI INVALID JUMPDEST PUSH1 0x20 SWAP1 DUP2 MUL SWAP2 SWAP1 SWAP2 ADD ADD MSTORE PUSH1 0x1 ADD PUSH2 0xC75 JUMP JUMPDEST POP JUMPDEST SWAP4 SWAP3 POP POP POP JUMP JUMPDEST CALLER PUSH1 0x0 SWAP1 DUP2 MSTORE PUSH1 0x3 PUSH1 0x20 MSTORE PUSH1 0x40 SWAP1 KECCAK256 SLOAD JUMPDEST SWAP1 JUMP JUMPDEST PUSH1 0x40 DUP1 MLOAD PUSH1 0x9 DUP1 DUP3 MSTORE PUSH2 0x140 DUP3 ADD SWAP1 SWAP3 MSTORE PUSH1 0x60 SWAP2 DUP3 SWAP2 SWAP1 PUSH1 0x20 DUP3 ADD PUSH2 0x120 DUP1 CALLDATASIZE DUP4 CALLDATACOPY ADD SWAP1 POP POP SWAP1 POP PUSH1 0x1 DUP2 PUSH1 0x0 DUP2 MLOAD DUP2 LT PUSH2 0xD0C JUMPI INVALID JUMPDEST PUSH1 0x20 SWAP1 DUP2 MUL SWAP2 SWAP1 SWAP2 ADD ADD MSTORE PUSH1 0x0 DUP2 PUSH1 0x1 DUP2 MLOAD DUP2 LT PUSH2 0xD26 JUMPI INVALID JUMPDEST PUSH1 0x20 SWAP1 DUP2 MUL SWAP2 SWAP1 SWAP2 ADD ADD MSTORE PUSH3 0x320000 DUP2 PUSH1 0x2 DUP2 MLOAD DUP2 LT PUSH2 0xD42 JUMPI INVALID JUMPDEST PUSH1 0x20 SWAP1 DUP2 MUL SWAP2 SWAP1 SWAP2 ADD ADD MSTORE ADDRESS DUP2 PUSH1 0x3 DUP2 MLOAD DUP2 LT PUSH2 0xD5B JUMPI INVALID JUMPDEST PUSH1 0x20 SWAP1 DUP2 MUL SWAP2 SWAP1 SWAP2 ADD ADD MSTORE PUSH1 0x1 SLOAD DUP2 PUSH1 0x4 DUP2 MLOAD DUP2 LT PUSH2 0xD76 JUMPI INVALID JUMPDEST PUSH1 0x20 SWAP1 DUP2 MUL SWAP2 SWAP1 SWAP2 ADD ADD MSTORE PUSH1 0x0 SLOAD DUP2 PUSH1 0x5 DUP2 MLOAD DUP2 LT PUSH2 0xD91 JUMPI INVALID JUMPDEST PUSH1 0x20 SWAP1 DUP2 MUL SWAP2 SWAP1 SWAP2 ADD ADD MSTORE PUSH1 0xC DUP2 PUSH1 0x6 DUP2 MLOAD DUP2 LT PUSH2 0xDAB JUMPI INVALID JUMPDEST PUSH1 0x20 SWAP1 DUP2 MUL SWAP2 SWAP1 SWAP2 ADD ADD MSTORE PUSH1 0x9 DUP2 PUSH1 0x7 DUP2 MLOAD DUP2 LT PUSH2 0xDC5 JUMPI INVALID JUMPDEST PUSH1 0x20 SWAP1 DUP2 MUL SWAP2 SWAP1 SWAP2 ADD ADD MSTORE PUSH1 0x2 SLOAD DUP2 PUSH1 0x8 DUP2 MLOAD DUP2 LT PUSH2 0xDE0 JUMPI INVALID JUMPDEST PUSH1 0x20 SWAP1 DUP2 MUL SWAP2 SWAP1 SWAP2 ADD ADD MSTORE SWAP1 POP SWAP1 JUMP JUMPDEST CALLVALUE ISZERO PUSH2 0xE65 JUMPI CALLER PUSH1 0x0 SWAP1 DUP2 MSTORE PUSH1 0x3 PUSH1 0x20 MSTORE PUSH1 0x40 SWAP1 KECCAK256 SLOAD PUSH2 0xE16 SWAP1 CALLVALUE PUSH4 0xFFFFFFFF PUSH2 0x24C4 AND JUMP JUMPDEST CALLER PUSH1 0x0 DUP2 DUP2 MSTORE PUSH1 0x3 PUSH1 0x20 MSTORE PUSH1 0x40 SWAP1 DUP2 SWAP1 KECCAK256 SWAP3 SWAP1 SWAP3 SSTORE SWAP1 MLOAD PUSH32 0x6E2EEC282B5765F3A053054D83D425D0E03E1003BB2740D41C1FCE6D4A0D74F7 SWAP1 PUSH2 0xE5C SWAP1 TIMESTAMP SWAP1 CALLVALUE SWAP1 PUSH2 0x45ED JUMP JUMPDEST PUSH1 0x40 MLOAD DUP1 SWAP2 SUB SWAP1 LOG2 JUMPDEST JUMP JUMPDEST PUSH1 0x0 DUP6 DUP2 MSTORE PUSH1 0x4 PUSH1 0x20 SWAP1 DUP2 MSTORE PUSH1 0x40 SWAP2 DUP3 SWAP1 KECCAK256 PUSH1 0x2 DUP1 DUP3 ADD SLOAD DUP5 MLOAD PUSH1 0x1 DUP1 DUP6 ADD DUP1 SLOAD PUSH2 0x100 SWAP3 DUP2 AND ISZERO SWAP3 SWAP1 SWAP3 MUL PUSH32 0xFFFFFFFFFFFFFFFFFFFFFFFFFFFFFFFFFFFFFFFFFFFFFFFFFFFFFFFFFFFFFFFF ADD SWAP1 SWAP2 AND SWAP4 SWAP1 SWAP4 DIV PUSH1 0x1F DUP2 ADD DUP7 SWAP1 DIV SWAP1 SWAP6 MUL DUP2 ADD PUSH2 0x200 SWAP1 DUP2 ADD SWAP1 SWAP7 MSTORE PUSH2 0x1E0 DUP2 ADD DUP6 DUP2 MSTORE SWAP4 SWAP6 PUSH13 0x1000000000000000000000000 SWAP1 SWAP3 DIV PUSH20 0xFFFFFFFFFFFFFFFFFFFFFFFFFFFFFFFFFFFFFFFF AND SWAP5 PUSH2 0x1147 SWAP5 PUSH2 0x1116 SWAP5 SWAP3 SWAP4 DUP5 SWAP3 DUP5 SWAP2 DUP5 ADD DUP3 DUP3 DUP1 ISZERO PUSH2 0xF62 JUMPI DUP1 PUSH1 0x1F LT PUSH2 0xF37 JUMPI PUSH2 0x100 DUP1 DUP4 SLOAD DIV MUL DUP4 MSTORE SWAP2 PUSH1 0x20 ADD SWAP2 PUSH2 0xF62 JUMP JUMPDEST DUP3 ADD SWAP2 SWAP1 PUSH1 0x0 MSTORE PUSH1 0x20 PUSH1 0x0 KECCAK256 SWAP1 JUMPDEST DUP2 SLOAD DUP2 MSTORE SWAP1 PUSH1 0x1 ADD SWAP1 PUSH1 0x20 ADD DUP1 DUP4 GT PUSH2 0xF45 JUMPI DUP3 SWAP1 SUB PUSH1 0x1F AND DUP3 ADD SWAP2 JUMPDEST POP POP POP SWAP2 DUP4 MSTORE POP POP PUSH1 0x1 DUP3 ADD SLOAD PUSH5 0xFFFFFFFFFF DUP2 AND PUSH1 0x20 DUP1 DUP5 ADD SWAP2 SWAP1 SWAP2 MSTORE PUSH3 0xFFFFFF PUSH6 0x10000000000 DUP1 DUP5 DIV SWAP2 SWAP1 SWAP2 AND PUSH1 0x40 DUP1 DUP7 ADD SWAP2 SWAP1 SWAP2 MSTORE PUSH1 0xFF PUSH9 0x10000000000000000 DUP6 DIV DUP2 AND PUSH1 0x60 DUP8 ADD MSTORE PUSH10 0x1000000000000000000 DUP6 DIV DUP2 AND PUSH1 0x80 DUP8 ADD MSTORE PUSH11 0x100000000000000000000 DUP6 DIV DUP2 AND PUSH1 0xA0 DUP8 ADD MSTORE PUSH12 0x10000000000000000000000 DUP6 DIV PUSH1 0x0 SWAP1 DUP2 SIGNEXTEND DUP2 SIGNEXTEND SWAP1 SIGNEXTEND PUSH1 0xC0 DUP8 ADD MSTORE PUSH20 0xFFFFFFFFFFFFFFFFFFFFFFFFFFFFFFFFFFFFFFFF PUSH13 0x1000000000000000000000000 SWAP1 SWAP6 DIV DUP6 AND PUSH1 0xE0 DUP8 ADD MSTORE PUSH1 0x2 DUP8 ADD SLOAD SWAP1 DUP2 AND PUSH2 0x100 DUP1 DUP9 ADD SWAP2 SWAP1 SWAP2 MSTORE PUSH4 0xFFFFFFFF SWAP1 DUP3 DIV DUP2 AND PUSH2 0x120 DUP9 ADD MSTORE SWAP3 DUP2 DIV DUP6 AND PUSH2 0x140 DUP8 ADD MSTORE PUSH26 0x100000000000000000000000000000000000000000000000000 SWAP1 DIV DUP3 AND PUSH2 0x160 DUP7 ADD MSTORE PUSH1 0x3 DUP7 ADD SLOAD SWAP2 DUP3 AND PUSH2 0x180 DUP7 ADD MSTORE PUSH5 0x100000000 SWAP1 SWAP2 DIV SWAP1 SWAP3 AND PUSH2 0x1A0 DUP5 ADD MSTORE PUSH1 0x4 DUP5 ADD DUP1 SLOAD DUP4 MLOAD DUP2 DUP5 MUL DUP2 ADD DUP5 ADD SWAP1 SWAP5 MSTORE DUP1 DUP5 MSTORE PUSH2 0x1C0 SWAP1 SWAP5 ADD SWAP4 SWAP1 SWAP2 DUP4 ADD DUP3 DUP3 DUP1 ISZERO PUSH2 0x1108 JUMPI PUSH1 0x20 MUL DUP3 ADD SWAP2 SWAP1 PUSH1 0x0 MSTORE PUSH1 0x20 PUSH1 0x0 KECCAK256 SWAP1 PUSH1 0x0 SWAP1 JUMPDEST DUP3 DUP3 SWAP1 SLOAD SWAP1 PUSH2 0x100 EXP SWAP1 DIV PUSH1 0xF SIGNEXTEND PUSH1 0xF SIGNEXTEND DUP2 MSTORE PUSH1 0x20 ADD SWAP1 PUSH1 0x10 ADD SWAP1 PUSH1 0x20 DUP3 PUSH1 0xF ADD DIV SWAP3 DUP4 ADD SWAP3 PUSH1 0x1 SUB DUP3 MUL SWAP2 POP DUP1 DUP5 GT PUSH2 0x10D1 JUMPI SWAP1 POP JUMPDEST POP POP POP POP POP DUP2 MSTORE POP POP PUSH2 0x2865 JUMP JUMPDEST DUP7 PUSH1 0x0 PUSH1 0x40 MLOAD PUSH1 0x20 ADD PUSH2 0x112B SWAP4 SWAP3 SWAP2 SWAP1 PUSH2 0x3ED4 JUMP JUMPDEST PUSH1 0x40 MLOAD PUSH1 0x20 DUP2 DUP4 SUB SUB DUP2 MSTORE SWAP1 PUSH1 0x40 MSTORE DUP1 MLOAD SWAP1 PUSH1 0x20 ADD KECCAK256 DUP8 PUSH2 0x293C JUMP JUMPDEST PUSH20 0xFFFFFFFFFFFFFFFFFFFFFFFFFFFFFFFFFFFFFFFF AND EQ PUSH2 0x1194 JUMPI PUSH1 0x40 MLOAD PUSH32 0x8C379A000000000000000000000000000000000000000000000000000000000 DUP2 MSTORE PUSH1 0x4 ADD PUSH2 0x3A1 SWAP1 PUSH2 0x42E4 JUMP JUMPDEST DUP1 SLOAD PUSH19 0x1000000000000000000000000000000000000 SWAP1 DIV PUSH1 0xFF AND ISZERO PUSH2 0x11BA JUMPI POP PUSH2 0x15AE JUMP JUMPDEST PUSH1 0x0 DUP1 PUSH1 0x1 PUSH1 0x2 DUP5 ADD SLOAD PUSH9 0x10000000000000000 SWAP1 DIV AND PUSH1 0xFF AND ISZERO PUSH2 0x1241 JUMPI POP POP PUSH1 0x5 DUP2 ADD SLOAD PUSH1 0x0 JUMPDEST PUSH1 0x5 DUP4 ADD SLOAD DUP2 LT ISZERO PUSH2 0x123C JUMPI PUSH1 0x5 DUP4 ADD DUP1 SLOAD DUP3 SWAP1 DUP2 LT PUSH2 0x11FF JUMPI INVALID JUMPDEST SWAP1 PUSH1 0x0 MSTORE PUSH1 0x20 PUSH1 0x0 KECCAK256 SWAP1 PUSH1 0x2 SWAP2 DUP3 DUP3 DIV ADD SWAP2 SWAP1 MOD PUSH1 0x10 MUL SWAP1 SLOAD SWAP1 PUSH2 0x100 EXP SWAP1 DIV PUSH1 0xF SIGNEXTEND PUSH1 0xF SIGNEXTEND DUP7 SLT ISZERO PUSH2 0x1234 JUMPI DUP1 SWAP2 POP PUSH2 0x123C JUMP JUMPDEST PUSH1 0x1 ADD PUSH2 0x11E3 JUMP JUMPDEST PUSH2 0x12A1 JUMP JUMPDEST POP PUSH1 0x0 SWAP1 POP DUP1 JUMPDEST PUSH1 0x5 DUP4 ADD SLOAD DUP2 LT ISZERO PUSH2 0x12A1 JUMPI PUSH1 0x5 DUP4 ADD DUP1 SLOAD DUP3 SWAP1 DUP2 LT PUSH2 0x1264 JUMPI INVALID JUMPDEST SWAP1 PUSH1 0x0 MSTORE PUSH1 0x20 PUSH1 0x0 KECCAK256 SWAP1 PUSH1 0x2 SWAP2 DUP3 DUP3 DIV ADD SWAP2 SWAP1 MOD PUSH1 0x10 MUL SWAP1 SLOAD SWAP1 PUSH2 0x100 EXP SWAP1 DIV PUSH1 0xF SIGNEXTEND PUSH1 0xF SIGNEXTEND DUP7 EQ ISZERO PUSH2 0x1299 JUMPI DUP1 SWAP2 POP PUSH2 0x12A1 JUMP JUMPDEST PUSH1 0x1 ADD PUSH2 0x1248 JUMP JUMPDEST DUP3 SLOAD PUSH19 0x1000000000000000000000000000000000000 PUSH32 0xFFFFFFFFFFFFFFFFFFFFFFFFFFFF0000FFFFFFFFFFFFFFFFFFFFFFFFFFFFFFFF SWAP1 SWAP2 AND PUSH17 0x100000000000000000000000000000000 PUSH2 0xFFFF DUP6 AND MUL OR PUSH32 0xFFFFFFFFFFFFFFFFFFFFFFFFFF00FFFFFFFFFFFFFFFFFFFFFFFFFFFFFFFFFFFF AND OR DUP4 SSTORE PUSH1 0x40 MLOAD PUSH32 0xBC368577AA675EA916E9069E5C84C091AB02483DCC1A83CDA5F0124B39B0F2E9 SWAP1 PUSH2 0x1349 SWAP1 DUP11 SWAP1 PUSH2 0x424D JUMP JUMPDEST PUSH1 0x40 MLOAD DUP1 SWAP2 SUB SWAP1 LOG1 PUSH1 0x4 DUP4 ADD SLOAD PUSH1 0x3 DUP5 ADD SLOAD PUSH1 0x0 SWAP2 PUSH2 0x139E SWAP2 PUSH4 0xFFFFFFFF SWAP2 DUP3 AND SWAP2 PUSH2 0xB37 SWAP2 PUSH2 0x100 DUP2 DIV DUP3 AND SWAP2 PUSH26 0x100000000000000000000000000000000000000000000000000 SWAP1 SWAP2 DIV DUP2 AND SWAP1 PUSH2 0x24C4 AND JUMP JUMPDEST SWAP1 POP DUP1 ISZERO PUSH2 0x159E JUMPI DUP4 SLOAD PUSH1 0x0 SWAP1 DUP3 SWAP1 PUSH16 0xFFFFFFFFFFFFFFFFFFFFFFFFFFFFFFFF AND DUP2 PUSH2 0x13C6 JUMPI INVALID JUMPDEST PUSH1 0x3 DUP8 ADD SLOAD SWAP2 SWAP1 DIV SWAP2 POP PUSH2 0x1429 SWAP1 PUSH2 0x13EE SWAP1 DUP4 SWAP1 PUSH4 0xFFFFFFFF PUSH2 0x100 SWAP1 SWAP2 DIV DUP2 AND SWAP1 PUSH2 0x26EE AND JUMP JUMPDEST PUSH1 0x3 DUP8 DUP2 ADD SLOAD PUSH6 0x10000000000 SWAP1 DIV PUSH20 0xFFFFFFFFFFFFFFFFFFFFFFFFFFFFFFFFFFFFFFFF AND PUSH1 0x0 SWAP1 DUP2 MSTORE PUSH1 0x20 SWAP2 SWAP1 SWAP2 MSTORE PUSH1 0x40 SWAP1 KECCAK256 SLOAD SWAP1 PUSH2 0x24C4 JUMP JUMPDEST PUSH1 0x3 DUP7 DUP2 ADD DUP1 SLOAD PUSH6 0x10000000000 SWAP1 DIV PUSH20 0xFFFFFFFFFFFFFFFFFFFFFFFFFFFFFFFFFFFFFFFF AND PUSH1 0x0 SWAP1 DUP2 MSTORE PUSH1 0x20 SWAP3 SWAP1 SWAP3 MSTORE PUSH1 0x40 SWAP1 SWAP2 KECCAK256 SWAP2 SWAP1 SWAP2 SSTORE SLOAD PUSH2 0x14D2 SWAP1 PUSH2 0x149A SWAP1 DUP4 SWAP1 PUSH26 0x100000000000000000000000000000000000000000000000000 SWAP1 DIV PUSH4 0xFFFFFFFF SWAP1 DUP2 AND SWAP1 PUSH2 0x26EE AND JUMP JUMPDEST PUSH1 0x4 DUP8 ADD SLOAD PUSH5 0x100000000 SWAP1 DIV PUSH20 0xFFFFFFFFFFFFFFFFFFFFFFFFFFFFFFFFFFFFFFFF AND PUSH1 0x0 SWAP1 DUP2 MSTORE PUSH1 0x3 PUSH1 0x20 MSTORE PUSH1 0x40 SWAP1 KECCAK256 SLOAD SWAP1 PUSH2 0x24C4 JUMP JUMPDEST PUSH1 0x4 DUP7 ADD DUP1 SLOAD PUSH5 0x100000000 SWAP1 DIV PUSH20 0xFFFFFFFFFFFFFFFFFFFFFFFFFFFFFFFFFFFFFFFF AND PUSH1 0x0 SWAP1 DUP2 MSTORE PUSH1 0x3 PUSH1 0x20 MSTORE PUSH1 0x40 SWAP1 KECCAK256 SWAP2 SWAP1 SWAP2 SSTORE SLOAD PUSH2 0x1562 SWAP1 PUSH2 0x1522 SWAP1 DUP4 SWAP1 PUSH4 0xFFFFFFFF SWAP1 DUP2 AND SWAP1 PUSH2 0x26EE AND JUMP JUMPDEST PUSH1 0x2 DUP8 ADD SLOAD PUSH13 0x1000000000000000000000000 SWAP1 DIV PUSH20 0xFFFFFFFFFFFFFFFFFFFFFFFFFFFFFFFFFFFFFFFF AND PUSH1 0x0 SWAP1 DUP2 MSTORE PUSH1 0x3 PUSH1 0x20 MSTORE PUSH1 0x40 SWAP1 KECCAK256 SLOAD SWAP1 PUSH2 0x24C4 JUMP JUMPDEST PUSH1 0x2 DUP7 ADD SLOAD PUSH13 0x1000000000000000000000000 SWAP1 DIV PUSH20 0xFFFFFFFFFFFFFFFFFFFFFFFFFFFFFFFFFFFFFFFF AND PUSH1 0x0 SWAP1 DUP2 MSTORE PUSH1 0x3 PUSH1 0x20 MSTORE PUSH1 0x40 SWAP1 KECCAK256 SSTORE POP JUMPDEST PUSH2 0x15A9 DUP10 DUP8 DUP8 PUSH2 0x2ED JUMP JUMPDEST POP POP POP POP JUMPDEST POP POP POP POP POP JUMP JUMPDEST PUSH2 0x15BD PUSH2 0x3121 JUMP JUMPDEST PUSH1 0x0 DUP3 DUP2 MSTORE PUSH1 0x4 PUSH1 0x20 MSTORE PUSH1 0x40 SWAP1 KECCAK256 PUSH2 0x15D3 PUSH2 0x3048 JUMP JUMPDEST DUP2 PUSH1 0x1 ADD PUSH1 0x40 MLOAD DUP1 PUSH2 0x1E0 ADD PUSH1 0x40 MSTORE SWAP1 DUP2 PUSH1 0x0 DUP3 ADD DUP1 SLOAD PUSH1 0x1 DUP2 PUSH1 0x1 AND ISZERO PUSH2 0x100 MUL SUB AND PUSH1 0x2 SWAP1 DIV DUP1 PUSH1 0x1F ADD PUSH1 0x20 DUP1 SWAP2 DIV MUL PUSH1 0x20 ADD PUSH1 0x40 MLOAD SWAP1 DUP2 ADD PUSH1 0x40 MSTORE DUP1 SWAP3 SWAP2 SWAP1 DUP2 DUP2 MSTORE PUSH1 0x20 ADD DUP3 DUP1 SLOAD PUSH1 0x1 DUP2 PUSH1 0x1 AND ISZERO PUSH2 0x100 MUL SUB AND PUSH1 0x2 SWAP1 DIV DUP1 ISZERO PUSH2 0x167C JUMPI DUP1 PUSH1 0x1F LT PUSH2 0x1651 JUMPI PUSH2 0x100 DUP1 DUP4 SLOAD DIV MUL DUP4 MSTORE SWAP2 PUSH1 0x20 ADD SWAP2 PUSH2 0x167C JUMP JUMPDEST DUP3 ADD SWAP2 SWAP1 PUSH1 0x0 MSTORE PUSH1 0x20 PUSH1 0x0 KECCAK256 SWAP1 JUMPDEST DUP2 SLOAD DUP2 MSTORE SWAP1 PUSH1 0x1 ADD SWAP1 PUSH1 0x20 ADD DUP1 DUP4 GT PUSH2 0x165F JUMPI DUP3 SWAP1 SUB PUSH1 0x1F AND DUP3 ADD SWAP2 JUMPDEST POP POP POP SWAP2 DUP4 MSTORE POP POP PUSH1 0x1 DUP3 ADD SLOAD PUSH5 0xFFFFFFFFFF DUP2 AND PUSH1 0x20 DUP1 DUP5 ADD SWAP2 SWAP1 SWAP2 MSTORE PUSH3 0xFFFFFF PUSH6 0x10000000000 DUP1 DUP5 DIV SWAP2 SWAP1 SWAP2 AND PUSH1 0x40 DUP1 DUP7 ADD SWAP2 SWAP1 SWAP2 MSTORE PUSH1 0xFF PUSH9 0x10000000000000000 DUP6 DIV DUP2 AND PUSH1 0x60 DUP8 ADD MSTORE PUSH10 0x1000000000000000000 DUP6 DIV DUP2 AND PUSH1 0x80 DUP8 ADD MSTORE PUSH11 0x100000000000000000000 DUP6 DIV DUP2 AND PUSH1 0xA0 DUP8 ADD MSTORE PUSH12 0x10000000000000000000000 DUP6 DIV PUSH1 0x0 SWAP1 DUP2 SIGNEXTEND DUP2 SIGNEXTEND SWAP1 SIGNEXTEND PUSH1 0xC0 DUP8 ADD MSTORE PUSH20 0xFFFFFFFFFFFFFFFFFFFFFFFFFFFFFFFFFFFFFFFF PUSH13 0x1000000000000000000000000 SWAP1 SWAP6 DIV DUP6 AND PUSH1 0xE0 DUP8 ADD MSTORE PUSH1 0x2 DUP8 ADD SLOAD SWAP1 DUP2 AND PUSH2 0x100 DUP1 DUP9 ADD SWAP2 SWAP1 SWAP2 MSTORE PUSH4 0xFFFFFFFF SWAP1 DUP3 DIV DUP2 AND PUSH2 0x120 DUP9 ADD MSTORE SWAP3 DUP2 DIV DUP6 AND PUSH2 0x140 DUP8 ADD MSTORE PUSH26 0x100000000000000000000000000000000000000000000000000 SWAP1 DIV DUP3 AND PUSH2 0x160 DUP7 ADD MSTORE PUSH1 0x3 DUP7 ADD SLOAD SWAP2 DUP3 AND PUSH2 0x180 DUP7 ADD MSTORE PUSH5 0x100000000 SWAP1 SWAP2 DIV SWAP1 SWAP3 AND PUSH2 0x1A0 DUP5 ADD MSTORE PUSH1 0x4 DUP5 ADD DUP1 SLOAD DUP4 MLOAD DUP2 DUP5 MUL DUP2 ADD DUP5 ADD SWAP1 SWAP5 MSTORE DUP1 DUP5 MSTORE PUSH2 0x1C0 SWAP1 SWAP5 ADD SWAP4 SWAP1 SWAP2 DUP4 ADD DUP3 DUP3 DUP1 ISZERO PUSH2 0x1822 JUMPI PUSH1 0x20 MUL DUP3 ADD SWAP2 SWAP1 PUSH1 0x0 MSTORE PUSH1 0x20 PUSH1 0x0 KECCAK256 SWAP1 PUSH1 0x0 SWAP1 JUMPDEST DUP3 DUP3 SWAP1 SLOAD SWAP1 PUSH2 0x100 EXP SWAP1 DIV PUSH1 0xF SIGNEXTEND PUSH1 0xF SIGNEXTEND DUP2 MSTORE PUSH1 0x20 ADD SWAP1 PUSH1 0x10 ADD SWAP1 PUSH1 0x20 DUP3 PUSH1 0xF ADD DIV SWAP3 DUP4 ADD SWAP3 PUSH1 0x1 SUB DUP3 MUL SWAP2 POP DUP1 DUP5 GT PUSH2 0x17EB JUMPI SWAP1 POP JUMPDEST POP POP POP POP POP DUP2 MSTORE POP POP SWAP1 POP PUSH2 0x1835 PUSH2 0x3028 JUMP JUMPDEST POP PUSH1 0x40 DUP1 MLOAD PUSH1 0x60 DUP1 DUP3 ADD DUP4 MSTORE DUP5 SLOAD PUSH16 0xFFFFFFFFFFFFFFFFFFFFFFFFFFFFFFFF DUP2 AND DUP4 MSTORE PUSH17 0x100000000000000000000000000000000 DUP2 DIV PUSH2 0xFFFF AND PUSH1 0x20 DUP1 DUP6 ADD SWAP2 SWAP1 SWAP2 MSTORE PUSH19 0x1000000000000000000000000000000000000 SWAP1 SWAP2 DIV PUSH1 0xFF AND ISZERO ISZERO DUP4 DUP6 ADD MSTORE DUP4 MLOAD PUSH1 0xA0 DUP2 ADD DUP6 MSTORE DUP6 DUP2 MSTORE SWAP1 DUP2 ADD DUP4 SWAP1 MSTORE SWAP3 DUP4 ADD DUP8 SWAP1 MSTORE SWAP1 SWAP2 SWAP1 DUP2 ADD PUSH2 0x18BF DUP9 DUP7 PUSH2 0x21C0 JUMP JUMPDEST PUSH1 0x2 DUP2 GT ISZERO PUSH2 0x18CA JUMPI INVALID JUMPDEST DUP2 MSTORE PUSH1 0x0 PUSH1 0x20 SWAP1 SWAP2 ADD MSTORE SWAP7 SWAP6 POP POP POP POP POP POP JUMP JUMPDEST PUSH2 0x18E6 PUSH2 0x315C JUMP JUMPDEST PUSH1 0x0 JUMPDEST DUP4 MLOAD DUP2 LT ISZERO PUSH2 0x191C JUMPI DUP4 DUP2 DUP2 MLOAD DUP2 LT PUSH2 0x18FE JUMPI INVALID JUMPDEST PUSH1 0x20 MUL PUSH1 0x20 ADD ADD MLOAD SWAP2 POP PUSH2 0x1912 DUP3 DUP5 PUSH2 0x2987 JUMP JUMPDEST SWAP3 POP PUSH1 0x1 ADD PUSH2 0x18E9 JUMP JUMPDEST POP POP POP POP JUMP JUMPDEST PUSH1 0x0 DUP4 PUSH1 0x20 ADD MLOAD PUSH5 0xFFFFFFFFFF AND PUSH1 0x0 EQ ISZERO PUSH2 0x193A JUMPI INVALID JUMPDEST PUSH1 0x0 PUSH2 0x1945 DUP6 PUSH2 0x2865 JUMP JUMPDEST SWAP1 POP DUP5 PUSH1 0xE0 ADD MLOAD PUSH20 0xFFFFFFFFFFFFFFFFFFFFFFFFFFFFFFFFFFFFFFFF AND PUSH2 0x196C DUP3 DUP6 PUSH2 0x293C JUMP JUMPDEST PUSH20 0xFFFFFFFFFFFFFFFFFFFFFFFFFFFFFFFFFFFFFFFF AND EQ PUSH2 0x19B9 JUMPI PUSH1 0x40 MLOAD PUSH32 0x8C379A000000000000000000000000000000000000000000000000000000000 DUP2 MSTORE PUSH1 0x4 ADD PUSH2 0x3A1 SWAP1 PUSH2 0x42E4 JUMP JUMPDEST PUSH2 0x19C2 DUP6 PUSH2 0x2DB6 JUMP JUMPDEST PUSH1 0x0 DUP2 DUP2 MSTORE PUSH1 0x4 PUSH1 0x20 MSTORE PUSH1 0x40 SWAP1 KECCAK256 PUSH1 0x2 ADD SLOAD SWAP1 SWAP3 POP PUSH5 0xFFFFFFFFFF AND ISZERO SWAP1 POP PUSH2 0x19EA JUMPI PUSH2 0xCBA JUMP JUMPDEST DUP4 PUSH1 0xA0 ADD MLOAD PUSH1 0xFF AND PUSH1 0x12 EQ PUSH2 0x19FB JUMPI INVALID JUMPDEST PUSH1 0x40 DUP5 PUSH1 0x80 ADD MLOAD PUSH1 0xFF AND LT PUSH2 0x1A0C JUMPI INVALID JUMPDEST PUSH7 0xB1A2BC2EC50000 PUSH2 0x1A4C DUP6 PUSH2 0x180 ADD MLOAD PUSH4 0xFFFFFFFF AND PUSH2 0xB37 DUP8 PUSH2 0x160 ADD MLOAD PUSH4 0xFFFFFFFF AND DUP9 PUSH2 0x120 ADD MLOAD PUSH4 0xFFFFFFFF AND PUSH2 0x24C4 SWAP1 SWAP2 SWAP1 PUSH4 0xFFFFFFFF AND JUMP JUMPDEST GT ISZERO PUSH2 0x1A54 JUMPI INVALID JUMPDEST PUSH1 0x60 DUP5 ADD MLOAD PUSH1 0x0 SWAP1 PUSH1 0x1 AND ISZERO PUSH2 0x1B5A JUMPI PUSH1 0x0 DUP6 PUSH2 0x1C0 ADD MLOAD MLOAD GT PUSH2 0x1A74 JUMPI INVALID JUMPDEST PUSH2 0x7FFD DUP6 PUSH2 0x1C0 ADD MLOAD MLOAD LT PUSH2 0x1A85 JUMPI INVALID JUMPDEST POP PUSH1 0x1 JUMPDEST DUP5 PUSH2 0x1C0 ADD MLOAD MLOAD DUP2 LT ISZERO PUSH2 0x1AE1 JUMPI DUP5 PUSH2 0x1C0 ADD MLOAD DUP2 DUP2 MLOAD DUP2 LT PUSH2 0x1AA8 JUMPI INVALID JUMPDEST PUSH1 0x20 MUL PUSH1 0x20 ADD ADD MLOAD PUSH1 0xF SIGNEXTEND DUP6 PUSH2 0x1C0 ADD MLOAD PUSH1 0x1 DUP4 SUB DUP2 MLOAD DUP2 LT PUSH2 0x1AC7 JUMPI INVALID JUMPDEST PUSH1 0x20 MUL PUSH1 0x20 ADD ADD MLOAD PUSH1 0xF SIGNEXTEND SLT PUSH2 0x1AD9 JUMPI INVALID JUMPDEST PUSH1 0x1 ADD PUSH2 0x1A89 JUMP JUMPDEST DUP5 PUSH1 0xC0 ADD MLOAD PUSH1 0x0 SIGNEXTEND DUP6 PUSH1 0xA0 ADD MLOAD PUSH1 0xFF AND PUSH1 0x1 SIGNEXTEND SLT ISZERO PUSH2 0x1AFC JUMPI INVALID JUMPDEST POP PUSH1 0x0 JUMPDEST DUP5 PUSH2 0x1C0 ADD MLOAD MLOAD DUP2 LT ISZERO PUSH2 0x1B55 JUMPI DUP5 PUSH1 0xC0 ADD MLOAD PUSH1 0x0 SIGNEXTEND DUP6 PUSH1 0xA0 ADD MLOAD PUSH1 0xFF AND SUB PUSH1 0xA EXP DUP6 PUSH2 0x1C0 ADD MLOAD DUP3 DUP2 MLOAD DUP2 LT PUSH2 0x1B33 JUMPI INVALID JUMPDEST PUSH1 0x20 MUL PUSH1 0x20 ADD ADD MLOAD PUSH1 0xF SIGNEXTEND DUP2 PUSH2 0x1B45 JUMPI INVALID JUMPDEST SMOD ISZERO PUSH2 0x1B4D JUMPI INVALID JUMPDEST PUSH1 0x1 ADD PUSH2 0x1B00 JUMP JUMPDEST PUSH2 0x1B7C JUMP JUMPDEST PUSH1 0x1 DUP6 PUSH2 0x1C0 ADD MLOAD MLOAD GT PUSH2 0x1B6A JUMPI INVALID JUMPDEST PUSH2 0x7FFD DUP6 PUSH2 0x1C0 ADD MLOAD MLOAD GT ISZERO PUSH2 0x1B7C JUMPI INVALID JUMPDEST PUSH1 0x20 DUP6 PUSH1 0x80 ADD MLOAD PUSH1 0xFF AND LT PUSH2 0x1B8D JUMPI INVALID JUMPDEST PUSH1 0x0 DUP6 PUSH1 0x80 ADD MLOAD PUSH1 0x8 MUL PUSH1 0xFF AND DUP7 PUSH2 0x100 ADD MLOAD PUSH1 0xFF AND PUSH1 0x1 SWAP1 SHL SWAP1 SHL SWAP1 POP DUP1 PUSH1 0x2 SLOAD AND PUSH1 0x0 EQ ISZERO PUSH2 0x1BC1 JUMPI PUSH1 0x2 DUP1 SLOAD DUP3 OR SWAP1 SSTORE JUMPDEST PUSH1 0x0 PUSH2 0x1BD0 DUP8 PUSH1 0x20 ADD MLOAD PUSH2 0x2503 JUMP JUMPDEST PUSH1 0x60 DUP9 ADD MLOAD SWAP1 SWAP2 POP PUSH1 0x4 AND ISZERO PUSH2 0x1BF9 JUMPI DUP1 PUSH1 0xFF AND DUP8 PUSH2 0x100 ADD MLOAD PUSH1 0xFF AND EQ PUSH2 0x1BF4 JUMPI INVALID JUMPDEST PUSH2 0x1C09 JUMP JUMPDEST PUSH2 0x100 DUP8 ADD MLOAD PUSH1 0xFF AND ISZERO PUSH2 0x1C09 JUMPI INVALID JUMPDEST PUSH1 0x0 DUP5 DUP2 MSTORE PUSH1 0x4 PUSH1 0x20 SWAP1 DUP2 MSTORE PUSH1 0x40 SWAP1 SWAP2 KECCAK256 DUP9 MLOAD DUP1 MLOAD DUP11 SWAP4 PUSH1 0x1 SWAP1 SWAP4 ADD SWAP3 PUSH2 0x1C34 SWAP3 DUP5 SWAP3 SWAP2 ADD SWAP1 PUSH2 0x3181 JUMP JUMPDEST POP PUSH1 0x20 DUP3 ADD MLOAD DUP2 PUSH1 0x1 ADD PUSH1 0x0 PUSH2 0x100 EXP DUP2 SLOAD DUP2 PUSH5 0xFFFFFFFFFF MUL NOT AND SWAP1 DUP4 PUSH5 0xFFFFFFFFFF AND MUL OR SWAP1 SSTORE POP PUSH1 0x40 DUP3 ADD MLOAD DUP2 PUSH1 0x1 ADD PUSH1 0x5 PUSH2 0x100 EXP DUP2 SLOAD DUP2 PUSH3 0xFFFFFF MUL NOT AND SWAP1 DUP4 PUSH3 0xFFFFFF AND MUL OR SWAP1 SSTORE POP PUSH1 0x60 DUP3 ADD MLOAD DUP2 PUSH1 0x1 ADD PUSH1 0x8 PUSH2 0x100 EXP DUP2 SLOAD DUP2 PUSH1 0xFF MUL NOT AND SWAP1 DUP4 PUSH1 0xFF AND MUL OR SWAP1 SSTORE POP PUSH1 0x80 DUP3 ADD MLOAD DUP2 PUSH1 0x1 ADD PUSH1 0x9 PUSH2 0x100 EXP DUP2 SLOAD DUP2 PUSH1 0xFF MUL NOT AND SWAP1 DUP4 PUSH1 0xFF AND MUL OR SWAP1 SSTORE POP PUSH1 0xA0 DUP3 ADD MLOAD DUP2 PUSH1 0x1 ADD PUSH1 0xA PUSH2 0x100 EXP DUP2 SLOAD DUP2 PUSH1 0xFF MUL NOT AND SWAP1 DUP4 PUSH1 0xFF AND MUL OR SWAP1 SSTORE POP PUSH1 0xC0 DUP3 ADD MLOAD DUP2 PUSH1 0x1 ADD PUSH1 0xB PUSH2 0x100 EXP DUP2 SLOAD DUP2 PUSH1 0xFF MUL NOT AND SWAP1 DUP4 PUSH1 0x0 SIGNEXTEND PUSH1 0xFF AND MUL OR SWAP1 SSTORE POP PUSH1 0xE0 DUP3 ADD MLOAD DUP2 PUSH1 0x1 ADD PUSH1 0xC PUSH2 0x100 EXP DUP2 SLOAD DUP2 PUSH20 0xFFFFFFFFFFFFFFFFFFFFFFFFFFFFFFFFFFFFFFFF MUL NOT AND SWAP1 DUP4 PUSH20 0xFFFFFFFFFFFFFFFFFFFFFFFFFFFFFFFFFFFFFFFF AND MUL OR SWAP1 SSTORE POP PUSH2 0x100 DUP3 ADD MLOAD DUP2 PUSH1 0x2 ADD PUSH1 0x0 PUSH2 0x100 EXP DUP2 SLOAD DUP2 PUSH1 0xFF MUL NOT AND SWAP1 DUP4 PUSH1 0xFF AND MUL OR SWAP1 SSTORE POP PUSH2 0x120 DUP3 ADD MLOAD DUP2 PUSH1 0x2 ADD PUSH1 0x1 PUSH2 0x100 EXP DUP2 SLOAD DUP2 PUSH4 0xFFFFFFFF MUL NOT AND SWAP1 DUP4 PUSH4 0xFFFFFFFF AND MUL OR SWAP1 SSTORE POP PUSH2 0x140 DUP3 ADD MLOAD DUP2 PUSH1 0x2 ADD PUSH1 0x5 PUSH2 0x100 EXP DUP2 SLOAD DUP2 PUSH20 0xFFFFFFFFFFFFFFFFFFFFFFFFFFFFFFFFFFFFFFFF MUL NOT AND SWAP1 DUP4 PUSH20 0xFFFFFFFFFFFFFFFFFFFFFFFFFFFFFFFFFFFFFFFF AND MUL OR SWAP1 SSTORE POP PUSH2 0x160 DUP3 ADD MLOAD DUP2 PUSH1 0x2 ADD PUSH1 0x19 PUSH2 0x100 EXP DUP2 SLOAD DUP2 PUSH4 0xFFFFFFFF MUL NOT AND SWAP1 DUP4 PUSH4 0xFFFFFFFF AND MUL OR SWAP1 SSTORE POP PUSH2 0x180 DUP3 ADD MLOAD DUP2 PUSH1 0x3 ADD PUSH1 0x0 PUSH2 0x100 EXP DUP2 SLOAD DUP2 PUSH4 0xFFFFFFFF MUL NOT AND SWAP1 DUP4 PUSH4 0xFFFFFFFF AND MUL OR SWAP1 SSTORE POP PUSH2 0x1A0 DUP3 ADD MLOAD DUP2 PUSH1 0x3 ADD PUSH1 0x4 PUSH2 0x100 EXP DUP2 SLOAD DUP2 PUSH20 0xFFFFFFFFFFFFFFFFFFFFFFFFFFFFFFFFFFFFFFFF MUL NOT AND SWAP1 DUP4 PUSH20 0xFFFFFFFFFFFFFFFFFFFFFFFFFFFFFFFFFFFFFFFF AND MUL OR SWAP1 SSTORE POP PUSH2 0x1C0 DUP3 ADD MLOAD DUP2 PUSH1 0x4 ADD SWAP1 DUP1 MLOAD SWAP1 PUSH1 0x20 ADD SWAP1 PUSH2 0x1E98 SWAP3 SWAP2 SWAP1 PUSH2 0x31FB JUMP JUMPDEST POP SWAP1 POP POP DUP7 PUSH1 0x80 ADD MLOAD PUSH1 0xFF AND DUP8 PUSH2 0x100 ADD MLOAD PUSH1 0xFF AND DUP3 PUSH1 0xFF AND PUSH1 0x8 PUSH2 0x1EBF DUP6 PUSH1 0xFF AND PUSH2 0x2E8D JUMP JUMPDEST PUSH6 0xFFFFFFFFFFFF AND DUP12 PUSH1 0x20 ADD MLOAD PUSH5 0xFFFFFFFFFF AND DUP2 PUSH2 0x1EDA JUMPI INVALID JUMPDEST DIV PUSH6 0xFFFFFFFFFFFF AND SWAP1 SHL ADD PUSH6 0xFFFFFFFFFFFF AND PUSH32 0x13D334F612C6E3D949B7DA4336E52487CDF7E8B324884E285AACA45027505860 DUP8 DUP12 PUSH1 0x20 ADD MLOAD DUP13 PUSH1 0x0 ADD MLOAD PUSH1 0x40 MLOAD PUSH2 0x1F29 SWAP4 SWAP3 SWAP2 SWAP1 PUSH2 0x4256 JUMP JUMPDEST PUSH1 0x40 MLOAD DUP1 SWAP2 SUB SWAP1 LOG4 POP POP POP SWAP4 SWAP3 POP POP POP JUMP JUMPDEST PUSH2 0x1F43 PUSH2 0x3048 JUMP JUMPDEST PUSH1 0x0 DUP3 DUP2 MSTORE PUSH1 0x4 PUSH1 0x20 SWAP1 DUP2 MSTORE PUSH1 0x40 SWAP2 DUP3 SWAP1 KECCAK256 DUP3 MLOAD PUSH1 0x1 DUP1 DUP4 ADD DUP1 SLOAD PUSH1 0x2 SWAP3 DUP2 AND ISZERO PUSH2 0x100 MUL PUSH32 0xFFFFFFFFFFFFFFFFFFFFFFFFFFFFFFFFFFFFFFFFFFFFFFFFFFFFFFFFFFFFFFFF ADD AND SWAP2 SWAP1 SWAP2 DIV PUSH1 0x1F DUP2 ADD DUP6 SWAP1 DIV SWAP1 SWAP5 MUL DUP3 ADD PUSH2 0x200 SWAP1 DUP2 ADD SWAP1 SWAP6 MSTORE PUSH2 0x1E0 DUP3 ADD DUP5 DUP2 MSTORE SWAP3 SWAP5 SWAP2 SWAP4 SWAP1 SWAP3 DUP5 SWAP3 SWAP1 SWAP2 DUP5 SWAP2 DUP5 ADD DUP3 DUP3 DUP1 ISZERO PUSH2 0x2009 JUMPI DUP1 PUSH1 0x1F LT PUSH2 0x1FDE JUMPI PUSH2 0x100 DUP1 DUP4 SLOAD DIV MUL DUP4 MSTORE SWAP2 PUSH1 0x20 ADD SWAP2 PUSH2 0x2009 JUMP JUMPDEST DUP3 ADD SWAP2 SWAP1 PUSH1 0x0 MSTORE PUSH1 0x20 PUSH1 0x0 KECCAK256 SWAP1 JUMPDEST DUP2 SLOAD DUP2 MSTORE SWAP1 PUSH1 0x1 ADD SWAP1 PUSH1 0x20 ADD DUP1 DUP4 GT PUSH2 0x1FEC JUMPI DUP3 SWAP1 SUB PUSH1 0x1F AND DUP3 ADD SWAP2 JUMPDEST POP POP POP SWAP2 DUP4 MSTORE POP POP PUSH1 0x1 DUP3 ADD SLOAD PUSH5 0xFFFFFFFFFF DUP2 AND PUSH1 0x20 DUP1 DUP5 ADD SWAP2 SWAP1 SWAP2 MSTORE PUSH3 0xFFFFFF PUSH6 0x10000000000 DUP1 DUP5 DIV SWAP2 SWAP1 SWAP2 AND PUSH1 0x40 DUP1 DUP7 ADD SWAP2 SWAP1 SWAP2 MSTORE PUSH1 0xFF PUSH9 0x10000000000000000 DUP6 DIV DUP2 AND PUSH1 0x60 DUP8 ADD MSTORE PUSH10 0x1000000000000000000 DUP6 DIV DUP2 AND PUSH1 0x80 DUP8 ADD MSTORE PUSH11 0x100000000000000000000 DUP6 DIV DUP2 AND PUSH1 0xA0 DUP8 ADD MSTORE PUSH12 0x10000000000000000000000 DUP6 DIV PUSH1 0x0 SWAP1 DUP2 SIGNEXTEND DUP2 SIGNEXTEND SWAP1 SIGNEXTEND PUSH1 0xC0 DUP8 ADD MSTORE PUSH20 0xFFFFFFFFFFFFFFFFFFFFFFFFFFFFFFFFFFFFFFFF PUSH13 0x1000000000000000000000000 SWAP1 SWAP6 DIV DUP6 AND PUSH1 0xE0 DUP8 ADD MSTORE PUSH1 0x2 DUP8 ADD SLOAD SWAP1 DUP2 AND PUSH2 0x100 DUP1 DUP9 ADD SWAP2 SWAP1 SWAP2 MSTORE PUSH4 0xFFFFFFFF SWAP1 DUP3 DIV DUP2 AND PUSH2 0x120 DUP9 ADD MSTORE SWAP3 DUP2 DIV DUP6 AND PUSH2 0x140 DUP8 ADD MSTORE PUSH26 0x100000000000000000000000000000000000000000000000000 SWAP1 DIV DUP3 AND PUSH2 0x160 DUP7 ADD MSTORE PUSH1 0x3 DUP7 ADD SLOAD SWAP2 DUP3 AND PUSH2 0x180 DUP7 ADD MSTORE PUSH5 0x100000000 SWAP1 SWAP2 DIV SWAP1 SWAP3 AND PUSH2 0x1A0 DUP5 ADD MSTORE PUSH1 0x4 DUP5 ADD DUP1 SLOAD DUP4 MLOAD DUP2 DUP5 MUL DUP2 ADD DUP5 ADD SWAP1 SWAP5 MSTORE DUP1 DUP5 MSTORE PUSH2 0x1C0 SWAP1 SWAP5 ADD SWAP4 SWAP1 SWAP2 DUP4 ADD DUP3 DUP3 DUP1 ISZERO PUSH2 0x21AF JUMPI PUSH1 0x20 MUL DUP3 ADD SWAP2 SWAP1 PUSH1 0x0 MSTORE PUSH1 0x20 PUSH1 0x0 KECCAK256 SWAP1 PUSH1 0x0 SWAP1 JUMPDEST DUP3 DUP3 SWAP1 SLOAD SWAP1 PUSH2 0x100 EXP SWAP1 DIV PUSH1 0xF SIGNEXTEND PUSH1 0xF SIGNEXTEND DUP2 MSTORE PUSH1 0x20 ADD SWAP1 PUSH1 0x10 ADD SWAP1 PUSH1 0x20 DUP3 PUSH1 0xF ADD DIV SWAP3 DUP4 ADD SWAP3 PUSH1 0x1 SUB DUP3 MUL SWAP2 POP DUP1 DUP5 GT PUSH2 0x2178 JUMPI SWAP1 POP JUMPDEST POP POP POP POP POP DUP2 MSTORE POP POP SWAP2 POP POP SWAP2 SWAP1 POP JUMP JUMPDEST PUSH20 0xFFFFFFFFFFFFFFFFFFFFFFFFFFFFFFFFFFFFFFFF DUP3 AND PUSH1 0x0 SWAP1 DUP2 MSTORE PUSH1 0x6 DUP3 ADD PUSH1 0x20 MSTORE PUSH1 0x40 DUP2 KECCAK256 DUP3 SLOAD PUSH19 0x1000000000000000000000000000000000000 SWAP1 DIV PUSH1 0xFF AND ISZERO PUSH2 0x2292 JUMPI PUSH2 0x220F PUSH2 0x30C6 JUMP JUMPDEST POP DUP3 SLOAD PUSH17 0x100000000000000000000000000000000 SWAP1 DUP2 SWAP1 DIV PUSH2 0xFFFF AND PUSH1 0x0 SWAP1 DUP2 MSTORE PUSH1 0x20 DUP4 DUP2 MSTORE PUSH1 0x40 SWAP2 DUP3 SWAP1 KECCAK256 DUP3 MLOAD DUP1 DUP5 ADD SWAP1 SWAP4 MSTORE SLOAD PUSH1 0xF DUP2 DUP2 SIGNEXTEND DUP2 SIGNEXTEND SWAP1 SIGNEXTEND DUP4 MSTORE SWAP3 SWAP1 SWAP3 DIV PUSH1 0xFF AND SWAP2 DUP2 ADD DUP3 SWAP1 MSTORE SWAP1 PUSH1 0x2 EQ DUP1 PUSH2 0x2280 JUMPI POP PUSH1 0x20 DUP2 ADD MLOAD PUSH1 0xFF AND PUSH1 0x1 EQ DUP1 ISZERO PUSH2 0x2280 JUMPI POP DUP1 MLOAD PUSH1 0xF SIGNEXTEND ISZERO JUMPDEST ISZERO PUSH2 0x2290 JUMPI PUSH1 0x2 SWAP3 POP POP POP PUSH2 0x556 JUMP JUMPDEST POP JUMPDEST PUSH1 0x0 JUMPDEST PUSH1 0x5 DUP5 ADD SLOAD DUP2 GT PUSH2 0x22DE JUMPI PUSH1 0x0 DUP2 DUP2 MSTORE PUSH1 0x20 DUP4 SWAP1 MSTORE PUSH1 0x40 SWAP1 KECCAK256 SLOAD PUSH17 0x100000000000000000000000000000000 SWAP1 DIV PUSH1 0xFF AND ISZERO PUSH2 0x22D6 JUMPI PUSH1 0x1 SWAP3 POP POP POP PUSH2 0x556 JUMP JUMPDEST PUSH1 0x1 ADD PUSH2 0x2295 JUMP JUMPDEST POP PUSH1 0x0 SWAP5 SWAP4 POP POP POP POP JUMP JUMPDEST PUSH1 0x5 DUP3 ADD SLOAD PUSH20 0xFFFFFFFFFFFFFFFFFFFFFFFFFFFFFFFFFFFFFFFF DUP3 AND PUSH1 0x0 SWAP1 DUP2 MSTORE PUSH1 0x6 DUP5 ADD PUSH1 0x20 MSTORE PUSH1 0x40 DUP2 KECCAK256 SWAP1 SWAP2 PUSH32 0x7FFFFFFFFFFFFFFFFFFFFFFFFFFFFFFFFFFFFFFFFFFFFFFFFFFFFFFFFFFFFFFF SWAP2 DUP4 DUP1 JUMPDEST DUP4 DUP2 GT PUSH2 0x236F JUMPI PUSH1 0x0 DUP2 DUP2 MSTORE PUSH1 0x20 DUP5 SWAP1 MSTORE PUSH1 0x40 SWAP1 KECCAK256 SLOAD PUSH1 0xF SWAP1 DUP2 SIGNEXTEND SWAP1 SIGNEXTEND SWAP2 POP DUP5 DUP3 SLT ISZERO PUSH2 0x2367 JUMPI DUP2 SWAP5 POP JUMPDEST PUSH1 0x1 ADD PUSH2 0x233C JUMP JUMPDEST POP SWAP3 SWAP7 SWAP6 POP POP POP POP POP POP JUMP JUMPDEST PUSH1 0x0 DUP2 DUP4 SUB DUP2 DUP4 SLT DUP1 ISZERO SWAP1 PUSH2 0x2390 JUMPI POP DUP4 DUP2 SGT ISZERO JUMPDEST DUP1 PUSH2 0x23A5 JUMPI POP PUSH1 0x0 DUP4 SLT DUP1 ISZERO PUSH2 0x23A5 JUMPI POP DUP4 DUP2 SGT JUMPDEST PUSH2 0xCBA JUMPI PUSH1 0x40 MLOAD PUSH32 0x8C379A000000000000000000000000000000000000000000000000000000000 DUP2 MSTORE PUSH1 0x4 ADD PUSH2 0x3A1 SWAP1 PUSH2 0x44D7 JUMP JUMPDEST PUSH1 0x0 DUP3 PUSH2 0x23EA JUMPI POP PUSH1 0x0 PUSH2 0x556 JUMP JUMPDEST DUP3 PUSH32 0xFFFFFFFFFFFFFFFFFFFFFFFFFFFFFFFFFFFFFFFFFFFFFFFFFFFFFFFFFFFFFFFF EQ DUP1 ISZERO PUSH2 0x2438 JUMPI POP PUSH32 0x8000000000000000000000000000000000000000000000000000000000000000 DUP3 EQ JUMPDEST ISZERO PUSH2 0x246F JUMPI PUSH1 0x40 MLOAD PUSH32 0x8C379A000000000000000000000000000000000000000000000000000000000 DUP2 MSTORE PUSH1 0x4 ADD PUSH2 0x3A1 SWAP1 PUSH2 0x4443 JUMP JUMPDEST DUP3 DUP3 MUL DUP3 DUP5 DUP3 DUP2 PUSH2 0x247C JUMPI INVALID JUMPDEST SDIV EQ PUSH2 0xCBA JUMPI PUSH1 0x40 MLOAD PUSH32 0x8C379A000000000000000000000000000000000000000000000000000000000 DUP2 MSTORE PUSH1 0x4 ADD PUSH2 0x3A1 SWAP1 PUSH2 0x4443 JUMP JUMPDEST PUSH1 0x0 DUP1 DUP3 SLT ISZERO PUSH2 0x24C0 JUMPI INVALID JUMPDEST POP SWAP1 JUMP JUMPDEST PUSH1 0x0 DUP3 DUP3 ADD DUP4 DUP2 LT ISZERO PUSH2 0xCBA JUMPI PUSH1 0x40 MLOAD PUSH32 0x8C379A000000000000000000000000000000000000000000000000000000000 DUP2 MSTORE PUSH1 0x4 ADD PUSH2 0x3A1 SWAP1 PUSH2 0x4352 JUMP JUMPDEST PUSH1 0x0 DUP1 DUP1 PUSH2 0x251E PUSH5 0xFFFFFFFFFF DUP6 AND TIMESTAMP PUSH4 0xFFFFFFFF PUSH2 0x25C4 AND JUMP JUMPDEST SWAP1 POP PUSH4 0x3C26700 DUP2 LT PUSH2 0x255D JUMPI PUSH1 0x40 MLOAD PUSH32 0x8C379A000000000000000000000000000000000000000000000000000000000 DUP2 MSTORE PUSH1 0x4 ADD PUSH2 0x3A1 SWAP1 PUSH2 0x431B JUMP JUMPDEST PUSH3 0x3B5380 DUP2 GT ISZERO PUSH2 0x2572 JUMPI PUSH1 0x1 JUMPDEST SWAP2 POP PUSH2 0x25BD JUMP JUMPDEST PUSH3 0xA8C00 DUP2 GT ISZERO PUSH2 0x2584 JUMPI PUSH1 0x3 PUSH2 0x256B JUMP JUMPDEST PUSH3 0x1FA40 DUP2 GT ISZERO PUSH2 0x2596 JUMPI PUSH1 0x4 PUSH2 0x256B JUMP JUMPDEST PUSH2 0x1C20 DUP2 GT ISZERO PUSH2 0x25A7 JUMPI PUSH1 0x5 PUSH2 0x256B JUMP JUMPDEST PUSH2 0x384 DUP2 GT ISZERO PUSH2 0x25B8 JUMPI PUSH1 0x6 PUSH2 0x256B JUMP JUMPDEST PUSH1 0x7 SWAP2 POP JUMPDEST POP SWAP3 SWAP2 POP POP JUMP JUMPDEST PUSH1 0x0 PUSH2 0xCBA DUP4 DUP4 PUSH1 0x40 MLOAD DUP1 PUSH1 0x40 ADD PUSH1 0x40 MSTORE DUP1 PUSH1 0x1E DUP2 MSTORE PUSH1 0x20 ADD PUSH32 0x536166654D6174683A207375627472616374696F6E206F766572666C6F770000 DUP2 MSTORE POP PUSH2 0x2EBB JUMP JUMPDEST PUSH1 0x0 DUP1 PUSH1 0x40 MLOAD DUP1 PUSH1 0x40 ADD PUSH1 0x40 MSTORE DUP1 PUSH1 0x1C DUP2 MSTORE PUSH1 0x20 ADD PUSH32 0x19457468657265756D205369676E6564204D6573736167653A0A333200000000 DUP2 MSTORE POP DUP5 PUSH1 0x40 MLOAD PUSH1 0x20 ADD PUSH2 0x2651 SWAP3 SWAP2 SWAP1 PUSH2 0x414D JUMP JUMPDEST PUSH1 0x40 MLOAD PUSH1 0x20 DUP2 DUP4 SUB SUB DUP2 MSTORE SWAP1 PUSH1 0x40 MSTORE DUP1 MLOAD SWAP1 PUSH1 0x20 ADD KECCAK256 SWAP1 POP PUSH1 0x0 PUSH1 0x1 DUP3 DUP6 PUSH1 0x0 ADD MLOAD DUP7 PUSH1 0x20 ADD MLOAD DUP8 PUSH1 0x40 ADD MLOAD PUSH1 0x40 MLOAD PUSH1 0x0 DUP2 MSTORE PUSH1 0x20 ADD PUSH1 0x40 MSTORE PUSH1 0x40 MLOAD PUSH2 0x269A SWAP5 SWAP4 SWAP3 SWAP2 SWAP1 PUSH2 0x427C JUMP JUMPDEST PUSH1 0x20 PUSH1 0x40 MLOAD PUSH1 0x20 DUP2 SUB SWAP1 DUP1 DUP5 SUB SWAP1 DUP6 GAS STATICCALL ISZERO DUP1 ISZERO PUSH2 0x26BC JUMPI RETURNDATASIZE PUSH1 0x0 DUP1 RETURNDATACOPY RETURNDATASIZE PUSH1 0x0 REVERT JUMPDEST POP POP PUSH1 0x40 MLOAD PUSH32 0xFFFFFFFFFFFFFFFFFFFFFFFFFFFFFFFFFFFFFFFFFFFFFFFFFFFFFFFFFFFFFFE0 ADD MLOAD SWAP7 SWAP6 POP POP POP POP POP POP JUMP JUMPDEST PUSH1 0x0 DUP3 PUSH2 0x26FD JUMPI POP PUSH1 0x0 PUSH2 0x556 JUMP JUMPDEST DUP3 DUP3 MUL DUP3 DUP5 DUP3 DUP2 PUSH2 0x270A JUMPI INVALID JUMPDEST DIV EQ PUSH2 0xCBA JUMPI PUSH1 0x40 MLOAD PUSH32 0x8C379A000000000000000000000000000000000000000000000000000000000 DUP2 MSTORE PUSH1 0x4 ADD PUSH2 0x3A1 SWAP1 PUSH2 0x43E6 JUMP JUMPDEST PUSH20 0xFFFFFFFFFFFFFFFFFFFFFFFFFFFFFFFFFFFFFFFF DUP4 AND PUSH1 0x0 SWAP1 DUP2 MSTORE PUSH1 0x3 PUSH1 0x20 MSTORE PUSH1 0x40 DUP2 KECCAK256 SLOAD DUP2 SWAP1 PUSH2 0x2773 SWAP1 PUSH2 0x283A JUMP JUMPDEST SWAP1 POP PUSH1 0x0 DUP8 PUSH2 0x27B8 JUMPI PUSH2 0x2795 PUSH2 0x2788 DUP6 PUSH2 0x283A JUMP JUMPDEST DUP4 SWAP1 PUSH4 0xFFFFFFFF PUSH2 0x2F01 AND JUMP JUMPDEST SWAP2 POP PUSH2 0x27B1 PUSH2 0x27A3 DUP7 PUSH2 0x283A JUMP JUMPDEST PUSH1 0x0 SWAP1 PUSH4 0xFFFFFFFF PUSH2 0x237B AND JUMP JUMPDEST SWAP1 POP PUSH2 0x27DF JUMP JUMPDEST PUSH2 0x27D1 PUSH2 0x27C4 DUP6 PUSH2 0x283A JUMP JUMPDEST DUP4 SWAP1 PUSH4 0xFFFFFFFF PUSH2 0x237B AND JUMP JUMPDEST SWAP2 POP PUSH2 0x27DC DUP6 PUSH2 0x283A JUMP JUMPDEST SWAP1 POP JUMPDEST PUSH1 0x0 DUP1 PUSH2 0x27F2 DUP12 DUP10 DUP12 PUSH1 0x20 ADD MLOAD DUP7 PUSH2 0x2F61 JUMP JUMPDEST SWAP1 SWAP3 POP SWAP1 POP PUSH2 0x282B PUSH2 0x281E PUSH4 0x3B9ACA00 PUSH2 0x2812 DUP5 DUP7 PUSH4 0xFFFFFFFF PUSH2 0x237B AND JUMP JUMPDEST SWAP1 PUSH4 0xFFFFFFFF PUSH2 0x23DB AND JUMP JUMPDEST DUP6 SWAP1 PUSH4 0xFFFFFFFF PUSH2 0x2F01 AND JUMP JUMPDEST SWAP12 SWAP11 POP POP POP POP POP POP POP POP POP POP POP JUMP JUMPDEST PUSH1 0x0 PUSH32 0x8000000000000000000000000000000000000000000000000000000000000000 DUP3 LT PUSH2 0x24C0 JUMPI INVALID JUMPDEST PUSH1 0x0 PUSH1 0x60 DUP3 PUSH1 0x0 ADD MLOAD PUSH1 0x40 MLOAD PUSH1 0x20 ADD PUSH2 0x287E SWAP2 SWAP1 PUSH2 0x416F JUMP JUMPDEST PUSH1 0x40 MLOAD PUSH1 0x20 DUP2 DUP4 SUB SUB DUP2 MSTORE SWAP1 PUSH1 0x40 MSTORE DUP1 MLOAD SWAP1 PUSH1 0x20 ADD KECCAK256 DUP4 PUSH1 0x20 ADD MLOAD DUP5 PUSH1 0x40 ADD MLOAD DUP6 PUSH1 0x60 ADD MLOAD DUP7 PUSH1 0x80 ADD MLOAD DUP8 PUSH1 0xA0 ADD MLOAD DUP9 PUSH1 0xC0 ADD MLOAD PUSH1 0x40 MLOAD PUSH1 0x20 ADD PUSH2 0x28C8 SWAP8 SWAP7 SWAP6 SWAP5 SWAP4 SWAP3 SWAP2 SWAP1 PUSH2 0x3F0F JUMP JUMPDEST PUSH1 0x40 DUP1 MLOAD DUP1 DUP4 SUB PUSH32 0xFFFFFFFFFFFFFFFFFFFFFFFFFFFFFFFFFFFFFFFFFFFFFFFFFFFFFFFFFFFFFFE0 ADD DUP2 MSTORE SWAP2 SWAP1 MSTORE PUSH1 0x60 DUP5 ADD MLOAD SWAP1 SWAP2 POP PUSH1 0x1 AND PUSH2 0x292E JUMPI PUSH2 0x1C0 DUP4 ADD MLOAD PUSH1 0x40 MLOAD PUSH2 0x291C SWAP2 DUP4 SWAP2 PUSH1 0x20 ADD PUSH2 0x40B6 JUMP JUMPDEST PUSH1 0x40 MLOAD PUSH1 0x20 DUP2 DUP4 SUB SUB DUP2 MSTORE SWAP1 PUSH1 0x40 MSTORE SWAP1 POP JUMPDEST DUP1 MLOAD PUSH1 0x20 SWAP1 SWAP2 ADD KECCAK256 SWAP3 SWAP2 POP POP JUMP JUMPDEST PUSH1 0x0 DUP1 PUSH1 0x40 MLOAD DUP1 PUSH1 0x40 ADD PUSH1 0x40 MSTORE DUP1 PUSH1 0x1E DUP2 MSTORE PUSH1 0x20 ADD PUSH32 0x19466163747369676E6572205369676E6564204D6573736167653A0A33320000 DUP2 MSTORE POP DUP5 PUSH1 0x40 MLOAD PUSH1 0x20 ADD PUSH2 0x2651 SWAP3 SWAP2 SWAP1 PUSH2 0x414D JUMP JUMPDEST PUSH1 0x0 PUSH2 0x2991 PUSH2 0x30DD JUMP JUMPDEST POP DUP3 MLOAD DUP1 MLOAD PUSH1 0x0 SWAP1 DUP2 MSTORE PUSH1 0x4 PUSH1 0x20 MSTORE PUSH1 0x40 DUP1 DUP3 KECCAK256 SWAP1 DUP4 ADD MLOAD DUP3 SWAP2 SWAP1 DUP3 SWAP1 DUP2 SWAP1 ISZERO PUSH2 0x29C2 JUMPI POP POP PUSH1 0xE0 DUP5 ADD MLOAD CALLER PUSH2 0x29CC JUMP JUMPDEST POP POP PUSH1 0xE0 DUP5 ADD MLOAD CALLER SWAP1 JUMPDEST PUSH1 0x0 DUP1 PUSH1 0x0 PUSH2 0x29DB DUP13 DUP13 PUSH2 0x9BF JUMP JUMPDEST SWAP3 SWAP12 POP SWAP3 SWAP10 POP SWAP5 POP SWAP1 SWAP3 POP SWAP1 POP DUP7 PUSH2 0x29FE JUMPI DUP11 SWAP10 POP POP POP POP POP POP POP POP POP POP PUSH2 0x556 JUMP JUMPDEST PUSH2 0x2A07 DUP4 PUSH2 0x24B4 JUMP JUMPDEST PUSH1 0xE0 DUP11 ADD MLOAD PUSH20 0xFFFFFFFFFFFFFFFFFFFFFFFFFFFFFFFFFFFFFFFF AND PUSH1 0x0 SWAP1 DUP2 MSTORE PUSH1 0x3 PUSH1 0x20 MSTORE PUSH1 0x40 SWAP1 KECCAK256 SSTORE PUSH2 0x2A3A DUP3 PUSH2 0x24B4 JUMP JUMPDEST CALLER PUSH1 0x0 SWAP1 DUP2 MSTORE PUSH1 0x3 PUSH1 0x20 MSTORE PUSH1 0x40 SWAP1 KECCAK256 SSTORE DUP6 SLOAD PUSH2 0x2A77 SWAP1 PUSH2 0x2A72 SWAP1 PUSH16 0xFFFFFFFFFFFFFFFFFFFFFFFFFFFFFFFF AND DUP4 PUSH4 0xFFFFFFFF PUSH2 0x24C4 AND JUMP JUMPDEST PUSH2 0xCD2 JUMP JUMPDEST DUP7 SLOAD PUSH32 0xFFFFFFFFFFFFFFFFFFFFFFFFFFFFFFFF00000000000000000000000000000000 AND PUSH16 0xFFFFFFFFFFFFFFFFFFFFFFFFFFFFFFFF SWAP2 SWAP1 SWAP2 AND OR DUP7 SSTORE PUSH2 0x2ABB PUSH2 0x30C6 JUMP JUMPDEST POP PUSH20 0xFFFFFFFFFFFFFFFFFFFFFFFFFFFFFFFFFFFFFFFF DUP6 AND PUSH1 0x0 SWAP1 DUP2 MSTORE PUSH1 0x6 DUP8 ADD PUSH1 0x20 SWAP1 DUP2 MSTORE PUSH1 0x40 DUP1 DUP4 KECCAK256 DUP13 DUP4 ADD MLOAD PUSH2 0xFFFF AND DUP5 MSTORE DUP1 DUP4 MSTORE SWAP3 DUP2 SWAP1 KECCAK256 DUP2 MLOAD DUP1 DUP4 ADD SWAP1 SWAP3 MSTORE SLOAD PUSH1 0xF SWAP1 DUP2 SIGNEXTEND DUP2 SIGNEXTEND DUP2 SIGNEXTEND DUP1 DUP4 MSTORE PUSH1 0x1 SWAP4 DUP4 ADD SWAP4 SWAP1 SWAP4 MSTORE SWAP1 SWAP3 SWAP2 PUSH2 0x2B2E SWAP2 PUSH2 0x2A72 SWAP2 SWAP1 SIGNEXTEND DUP12 PUSH4 0xFFFFFFFF PUSH2 0x2F01 AND JUMP JUMPDEST PUSH1 0xF SWAP1 DUP2 SIGNEXTEND DUP2 SIGNEXTEND DUP4 MSTORE PUSH1 0x20 DUP13 DUP2 ADD DUP1 MLOAD PUSH2 0xFFFF SWAP1 DUP2 AND PUSH1 0x0 SWAP1 DUP2 MSTORE SWAP5 DUP4 MSTORE PUSH1 0x40 DUP1 DUP7 KECCAK256 DUP8 MLOAD DUP2 SLOAD SWAP9 DUP7 ADD MLOAD PUSH32 0xFFFFFFFFFFFFFFFFFFFFFFFFFFFFFFFF00000000000000000000000000000000 SWAP1 SWAP10 AND PUSH16 0xFFFFFFFFFFFFFFFFFFFFFFFFFFFFFFFF SWAP2 DUP9 SIGNEXTEND SWAP2 SWAP1 SWAP2 AND OR PUSH32 0xFFFFFFFFFFFFFFFFFFFFFFFFFFFFFF00FFFFFFFFFFFFFFFFFFFFFFFFFFFFFFFF AND PUSH17 0x100000000000000000000000000000000 PUSH1 0xFF SWAP10 DUP11 AND DUP2 MUL SWAP2 SWAP1 SWAP2 OR SWAP1 SWAP2 SSTORE PUSH20 0xFFFFFFFFFFFFFFFFFFFFFFFFFFFFFFFFFFFFFFFF DUP13 AND DUP8 MSTORE PUSH1 0x6 DUP15 ADD DUP6 MSTORE DUP2 DUP8 KECCAK256 SWAP4 MLOAD SWAP1 SWAP3 AND DUP7 MSTORE DUP3 DUP5 MSTORE SWAP5 DUP6 SWAP1 KECCAK256 DUP6 MLOAD DUP1 DUP8 ADD SWAP1 SWAP7 MSTORE SLOAD DUP1 DUP6 SIGNEXTEND DUP6 SIGNEXTEND DUP6 SIGNEXTEND DUP1 DUP8 MSTORE SWAP2 SWAP1 DIV SWAP1 SWAP6 AND SWAP2 DUP5 ADD SWAP2 SWAP1 SWAP2 MSTORE SWAP2 SWAP3 PUSH2 0x2C3A SWAP2 PUSH2 0x2A72 SWAP2 SWAP1 SIGNEXTEND DUP12 PUSH2 0x237B JUMP JUMPDEST PUSH1 0xF SWAP1 DUP2 SIGNEXTEND DUP2 SIGNEXTEND DUP4 MSTORE PUSH1 0x1 PUSH1 0x20 DUP1 DUP6 ADD SWAP2 DUP3 MSTORE DUP14 DUP2 ADD MLOAD PUSH2 0xFFFF AND PUSH1 0x0 SWAP1 DUP2 MSTORE SWAP4 DUP2 MSTORE PUSH1 0x40 DUP1 DUP6 KECCAK256 SWAP6 MLOAD DUP7 SLOAD SWAP4 MLOAD PUSH1 0xFF AND PUSH17 0x100000000000000000000000000000000 MUL PUSH32 0xFFFFFFFFFFFFFFFFFFFFFFFFFFFFFF00FFFFFFFFFFFFFFFFFFFFFFFFFFFFFFFF SWAP2 SWAP1 SWAP6 SIGNEXTEND PUSH16 0xFFFFFFFFFFFFFFFFFFFFFFFFFFFFFFFF AND PUSH32 0xFFFFFFFFFFFFFFFFFFFFFFFFFFFFFFFF00000000000000000000000000000000 SWAP1 SWAP5 AND SWAP4 SWAP1 SWAP4 OR SWAP3 SWAP1 SWAP3 AND SWAP3 SWAP1 SWAP3 OR SWAP1 SWAP4 SSTORE DUP11 DUP3 MSTORE PUSH1 0x7 DUP10 ADD SWAP1 MSTORE KECCAK256 SLOAD PUSH2 0x2D03 SWAP1 DUP9 PUSH4 0xFFFFFFFF PUSH2 0x24C4 AND JUMP JUMPDEST DUP7 PUSH1 0x7 ADD PUSH1 0x0 DUP11 DUP2 MSTORE PUSH1 0x20 ADD SWAP1 DUP2 MSTORE PUSH1 0x20 ADD PUSH1 0x0 KECCAK256 DUP2 SWAP1 SSTORE POP DUP9 PUSH1 0x0 ADD MLOAD DUP5 PUSH20 0xFFFFFFFFFFFFFFFFFFFFFFFFFFFFFFFFFFFFFFFF AND DUP7 PUSH20 0xFFFFFFFFFFFFFFFFFFFFFFFFFFFFFFFFFFFFFFFF AND PUSH32 0x7881338EB26BC3F4EB2D539721BA87C61744A77CCEF589C34A5AD54AF21FADF2 TIMESTAMP DUP14 PUSH1 0x20 ADD MLOAD DUP15 PUSH1 0x60 ADD MLOAD DUP14 DUP16 PUSH1 0x40 MLOAD PUSH2 0x2D8E SWAP6 SWAP5 SWAP4 SWAP3 SWAP2 SWAP1 PUSH2 0x45FB JUMP JUMPDEST PUSH1 0x40 MLOAD DUP1 SWAP2 SUB SWAP1 LOG4 PUSH2 0x2DA6 DUP12 DUP9 PUSH4 0xFFFFFFFF PUSH2 0x25C4 AND JUMP JUMPDEST SWAP13 SWAP12 POP POP POP POP POP POP POP POP POP POP POP POP JUMP JUMPDEST PUSH1 0x0 PUSH1 0x60 DUP3 PUSH1 0x0 ADD MLOAD PUSH1 0x40 MLOAD PUSH1 0x20 ADD PUSH2 0x2DCF SWAP2 SWAP1 PUSH2 0x416F JUMP JUMPDEST PUSH1 0x40 MLOAD PUSH1 0x20 DUP2 DUP4 SUB SUB DUP2 MSTORE SWAP1 PUSH1 0x40 MSTORE DUP1 MLOAD SWAP1 PUSH1 0x20 ADD KECCAK256 DUP4 PUSH1 0x20 ADD MLOAD DUP5 PUSH1 0x40 ADD MLOAD DUP6 PUSH1 0x60 ADD MLOAD DUP7 PUSH1 0x80 ADD MLOAD DUP8 PUSH1 0xA0 ADD MLOAD DUP9 PUSH1 0xC0 ADD MLOAD DUP10 PUSH2 0x100 ADD MLOAD DUP11 PUSH2 0x140 ADD MLOAD DUP12 PUSH2 0x1A0 ADD MLOAD DUP13 PUSH1 0xE0 ADD MLOAD PUSH1 0x40 MLOAD PUSH1 0x20 ADD PUSH2 0x2E34 SWAP12 SWAP11 SWAP10 SWAP9 SWAP8 SWAP7 SWAP6 SWAP5 SWAP4 SWAP3 SWAP2 SWAP1 PUSH2 0x3FC2 JUMP JUMPDEST PUSH1 0x40 DUP1 MLOAD PUSH32 0xFFFFFFFFFFFFFFFFFFFFFFFFFFFFFFFFFFFFFFFFFFFFFFFFFFFFFFFFFFFFFFE0 DUP2 DUP5 SUB ADD DUP2 MSTORE SWAP1 DUP3 SWAP1 MSTORE PUSH2 0x120 DUP6 ADD MLOAD PUSH2 0x160 DUP7 ADD MLOAD PUSH2 0x180 DUP8 ADD MLOAD PUSH2 0x1C0 DUP9 ADD MLOAD SWAP4 SWAP6 POP PUSH2 0x291C SWAP5 DUP7 SWAP5 SWAP1 PUSH1 0x20 ADD PUSH2 0x40DD JUMP JUMPDEST PUSH1 0x0 PUSH1 0x60 PUSH1 0x40 MLOAD DUP1 PUSH1 0x60 ADD PUSH1 0x40 MSTORE DUP1 PUSH1 0x2A DUP2 MSTORE PUSH1 0x20 ADD PUSH2 0x46B1 PUSH1 0x2A SWAP2 CODECOPY PUSH1 0x1 DUP5 ADD PUSH1 0x6 MUL ADD MLOAD SWAP2 POP POP SWAP2 SWAP1 POP JUMP JUMPDEST PUSH1 0x0 DUP2 DUP5 DUP5 GT ISZERO PUSH2 0x2EF9 JUMPI PUSH1 0x40 MLOAD PUSH32 0x8C379A000000000000000000000000000000000000000000000000000000000 DUP2 MSTORE PUSH1 0x4 ADD PUSH2 0x3A1 SWAP2 SWAP1 PUSH2 0x429A JUMP JUMPDEST POP POP POP SWAP1 SUB SWAP1 JUMP JUMPDEST PUSH1 0x0 DUP3 DUP3 ADD DUP2 DUP4 SLT DUP1 ISZERO SWAP1 PUSH2 0x2F16 JUMPI POP DUP4 DUP2 SLT ISZERO JUMPDEST DUP1 PUSH2 0x2F2B JUMPI POP PUSH1 0x0 DUP4 SLT DUP1 ISZERO PUSH2 0x2F2B JUMPI POP DUP4 DUP2 SLT JUMPDEST PUSH2 0xCBA JUMPI PUSH1 0x40 MLOAD PUSH32 0x8C379A000000000000000000000000000000000000000000000000000000000 DUP2 MSTORE PUSH1 0x4 ADD PUSH2 0x3A1 SWAP1 PUSH2 0x4389 JUMP JUMPDEST PUSH1 0x5 DUP5 ADD SLOAD PUSH20 0xFFFFFFFFFFFFFFFFFFFFFFFFFFFFFFFFFFFFFFFF DUP5 AND PUSH1 0x0 SWAP1 DUP2 MSTORE PUSH1 0x6 DUP7 ADD PUSH1 0x20 MSTORE PUSH1 0x40 DUP2 KECCAK256 SWAP1 SWAP2 DUP3 SWAP2 PUSH32 0x7FFFFFFFFFFFFFFFFFFFFFFFFFFFFFFFFFFFFFFFFFFFFFFFFFFFFFFFFFFFFFFF SWAP2 DUP3 SWAP2 DUP5 DUP1 JUMPDEST DUP4 DUP2 GT PUSH2 0x3016 JUMPI PUSH1 0x0 DUP2 DUP2 MSTORE PUSH1 0x20 DUP5 SWAP1 MSTORE PUSH1 0x40 SWAP1 KECCAK256 SLOAD PUSH1 0xF SWAP1 DUP2 SIGNEXTEND SWAP1 SIGNEXTEND SWAP2 POP DUP6 DUP3 SLT ISZERO PUSH2 0x2FE3 JUMPI DUP2 SWAP6 POP JUMPDEST DUP10 PUSH2 0xFFFF AND DUP2 EQ ISZERO PUSH2 0x3002 JUMPI PUSH2 0x2FFF DUP3 DUP11 PUSH4 0xFFFFFFFF PUSH2 0x2F01 AND JUMP JUMPDEST SWAP2 POP JUMPDEST DUP5 DUP3 SLT ISZERO PUSH2 0x300E JUMPI DUP2 SWAP5 POP JUMPDEST PUSH1 0x1 ADD PUSH2 0x2FB8 JUMP JUMPDEST POP SWAP4 SWAP11 SWAP3 SWAP10 POP SWAP2 SWAP8 POP POP POP POP POP POP POP POP JUMP JUMPDEST PUSH1 0x40 DUP1 MLOAD PUSH1 0x60 DUP2 ADD DUP3 MSTORE PUSH1 0x0 DUP1 DUP3 MSTORE PUSH1 0x20 DUP3 ADD DUP2 SWAP1 MSTORE SWAP2 DUP2 ADD SWAP2 SWAP1 SWAP2 MSTORE SWAP1 JUMP JUMPDEST PUSH1 0x40 DUP1 MLOAD PUSH2 0x1E0 DUP2 ADD DUP3 MSTORE PUSH1 0x60 DUP1 DUP3 MSTORE PUSH1 0x0 PUSH1 0x20 DUP4 ADD DUP2 SWAP1 MSTORE SWAP3 DUP3 ADD DUP4 SWAP1 MSTORE DUP1 DUP3 ADD DUP4 SWAP1 MSTORE PUSH1 0x80 DUP3 ADD DUP4 SWAP1 MSTORE PUSH1 0xA0 DUP3 ADD DUP4 SWAP1 MSTORE PUSH1 0xC0 DUP3 ADD DUP4 SWAP1 MSTORE PUSH1 0xE0 DUP3 ADD DUP4 SWAP1 MSTORE PUSH2 0x100 DUP3 ADD DUP4 SWAP1 MSTORE PUSH2 0x120 DUP3 ADD DUP4 SWAP1 MSTORE PUSH2 0x140 DUP3 ADD DUP4 SWAP1 MSTORE PUSH2 0x160 DUP3 ADD DUP4 SWAP1 MSTORE PUSH2 0x180 DUP3 ADD DUP4 SWAP1 MSTORE PUSH2 0x1A0 DUP3 ADD SWAP3 SWAP1 SWAP3 MSTORE PUSH2 0x1C0 DUP2 ADD SWAP2 SWAP1 SWAP2 MSTORE SWAP1 JUMP JUMPDEST PUSH1 0x40 DUP1 MLOAD DUP1 DUP3 ADD SWAP1 SWAP2 MSTORE PUSH1 0x0 DUP1 DUP3 MSTORE PUSH1 0x20 DUP3 ADD MSTORE SWAP1 JUMP JUMPDEST PUSH1 0x40 DUP1 MLOAD PUSH2 0x100 DUP2 ADD DUP3 MSTORE PUSH1 0x0 DUP1 DUP3 MSTORE PUSH1 0x20 DUP3 ADD DUP2 SWAP1 MSTORE SWAP2 DUP2 ADD DUP3 SWAP1 MSTORE PUSH1 0x60 DUP2 ADD DUP3 SWAP1 MSTORE PUSH1 0x80 DUP2 ADD DUP3 SWAP1 MSTORE PUSH1 0xA0 DUP2 ADD DUP3 SWAP1 MSTORE PUSH1 0xC0 DUP2 ADD DUP3 SWAP1 MSTORE PUSH1 0xE0 DUP2 ADD SWAP2 SWAP1 SWAP2 MSTORE SWAP1 JUMP JUMPDEST PUSH1 0x40 MLOAD DUP1 PUSH1 0xA0 ADD PUSH1 0x40 MSTORE DUP1 PUSH2 0x3134 PUSH2 0x3048 JUMP JUMPDEST DUP2 MSTORE PUSH1 0x20 ADD PUSH2 0x3141 PUSH2 0x3028 JUMP JUMPDEST DUP2 MSTORE PUSH1 0x0 PUSH1 0x20 DUP3 ADD DUP2 SWAP1 MSTORE PUSH1 0x40 DUP3 ADD DUP2 SWAP1 MSTORE PUSH1 0x60 SWAP1 SWAP2 ADD MSTORE SWAP1 JUMP JUMPDEST PUSH1 0x40 MLOAD DUP1 PUSH1 0x40 ADD PUSH1 0x40 MSTORE DUP1 PUSH2 0x316F PUSH2 0x30DD JUMP JUMPDEST DUP2 MSTORE PUSH1 0x20 ADD PUSH2 0x317C PUSH2 0x3028 JUMP JUMPDEST SWAP1 MSTORE SWAP1 JUMP JUMPDEST DUP3 DUP1 SLOAD PUSH1 0x1 DUP2 PUSH1 0x1 AND ISZERO PUSH2 0x100 MUL SUB AND PUSH1 0x2 SWAP1 DIV SWAP1 PUSH1 0x0 MSTORE PUSH1 0x20 PUSH1 0x0 KECCAK256 SWAP1 PUSH1 0x1F ADD PUSH1 0x20 SWAP1 DIV DUP2 ADD SWAP3 DUP3 PUSH1 0x1F LT PUSH2 0x31C2 JUMPI DUP1 MLOAD PUSH1 0xFF NOT AND DUP4 DUP1 ADD OR DUP6 SSTORE PUSH2 0x31EF JUMP JUMPDEST DUP3 DUP1 ADD PUSH1 0x1 ADD DUP6 SSTORE DUP3 ISZERO PUSH2 0x31EF JUMPI SWAP2 DUP3 ADD JUMPDEST DUP3 DUP2 GT ISZERO PUSH2 0x31EF JUMPI DUP3 MLOAD DUP3 SSTORE SWAP2 PUSH1 0x20 ADD SWAP2 SWAP1 PUSH1 0x1 ADD SWAP1 PUSH2 0x31D4 JUMP JUMPDEST POP PUSH2 0x24C0 SWAP3 SWAP2 POP PUSH2 0x32CD JUMP JUMPDEST DUP3 DUP1 SLOAD DUP3 DUP3 SSTORE SWAP1 PUSH1 0x0 MSTORE PUSH1 0x20 PUSH1 0x0 KECCAK256 SWAP1 PUSH1 0x1 ADD PUSH1 0x2 SWAP1 DIV DUP2 ADD SWAP3 DUP3 ISZERO PUSH2 0x32C1 JUMPI SWAP2 PUSH1 0x20 MUL DUP3 ADD PUSH1 0x0 JUMPDEST DUP4 DUP3 GT ISZERO PUSH2 0x3283 JUMPI DUP4 MLOAD DUP4 DUP3 PUSH2 0x100 EXP DUP2 SLOAD DUP2 PUSH16 0xFFFFFFFFFFFFFFFFFFFFFFFFFFFFFFFF MUL NOT AND SWAP1 DUP4 PUSH1 0xF SIGNEXTEND PUSH16 0xFFFFFFFFFFFFFFFFFFFFFFFFFFFFFFFF AND MUL OR SWAP1 SSTORE POP SWAP3 PUSH1 0x20 ADD SWAP3 PUSH1 0x10 ADD PUSH1 0x20 DUP2 PUSH1 0xF ADD DIV SWAP3 DUP4 ADD SWAP3 PUSH1 0x1 SUB MUL PUSH2 0x3224 JUMP JUMPDEST DUP1 ISZERO PUSH2 0x32BF JUMPI DUP3 DUP2 PUSH2 0x100 EXP DUP2 SLOAD SWAP1 PUSH16 0xFFFFFFFFFFFFFFFFFFFFFFFFFFFFFFFF MUL NOT AND SWAP1 SSTORE PUSH1 0x10 ADD PUSH1 0x20 DUP2 PUSH1 0xF ADD DIV SWAP3 DUP4 ADD SWAP3 PUSH1 0x1 SUB MUL PUSH2 0x3283 JUMP JUMPDEST POP JUMPDEST POP PUSH2 0x24C0 SWAP3 SWAP2 POP PUSH2 0x32E7 JUMP JUMPDEST PUSH2 0xCD2 SWAP2 SWAP1 JUMPDEST DUP1 DUP3 GT ISZERO PUSH2 0x24C0 JUMPI PUSH1 0x0 DUP2 SSTORE PUSH1 0x1 ADD PUSH2 0x32D3 JUMP JUMPDEST PUSH2 0xCD2 SWAP2 SWAP1 JUMPDEST DUP1 DUP3 GT ISZERO PUSH2 0x24C0 JUMPI DUP1 SLOAD PUSH32 0xFFFFFFFFFFFFFFFFFFFFFFFFFFFFFFFF00000000000000000000000000000000 AND DUP2 SSTORE PUSH1 0x1 ADD PUSH2 0x32ED JUMP JUMPDEST DUP1 CALLDATALOAD PUSH20 0xFFFFFFFFFFFFFFFFFFFFFFFFFFFFFFFFFFFFFFFF DUP2 AND DUP2 EQ PUSH2 0x556 JUMPI PUSH1 0x0 DUP1 REVERT JUMPDEST PUSH1 0x0 DUP3 PUSH1 0x1F DUP4 ADD SLT PUSH2 0x3357 JUMPI DUP1 DUP2 REVERT JUMPDEST DUP2 CALLDATALOAD PUSH2 0x336A PUSH2 0x3365 DUP3 PUSH2 0x4657 JUMP JUMPDEST PUSH2 0x4630 JUMP JUMPDEST DUP2 DUP2 MSTORE SWAP2 POP PUSH1 0x20 DUP1 DUP4 ADD SWAP1 DUP5 DUP2 ADD DUP2 DUP5 MUL DUP7 ADD DUP3 ADD DUP8 LT ISZERO PUSH2 0x338B JUMPI PUSH1 0x0 DUP1 REVERT JUMPDEST PUSH1 0x0 JUMPDEST DUP5 DUP2 LT ISZERO PUSH2 0x33B2 JUMPI PUSH2 0x33A0 DUP9 DUP4 PUSH2 0x3323 JUMP JUMPDEST DUP5 MSTORE SWAP3 DUP3 ADD SWAP3 SWAP1 DUP3 ADD SWAP1 PUSH1 0x1 ADD PUSH2 0x338E JUMP JUMPDEST POP POP POP POP POP SWAP3 SWAP2 POP POP JUMP JUMPDEST PUSH1 0x0 DUP3 PUSH1 0x1F DUP4 ADD SLT PUSH2 0x33CD JUMPI DUP1 DUP2 REVERT JUMPDEST DUP2 CALLDATALOAD PUSH2 0x33DB PUSH2 0x3365 DUP3 PUSH2 0x4657 JUMP JUMPDEST DUP2 DUP2 MSTORE SWAP2 POP PUSH1 0x20 DUP1 DUP4 ADD SWAP1 DUP5 DUP2 ADD DUP2 DUP5 MUL DUP7 ADD DUP3 ADD DUP8 LT ISZERO PUSH2 0x33FC JUMPI PUSH1 0x0 DUP1 REVERT JUMPDEST PUSH1 0x0 JUMPDEST DUP5 DUP2 LT ISZERO PUSH2 0x33B2 JUMPI DUP2 CALLDATALOAD DUP5 MSTORE SWAP3 DUP3 ADD SWAP3 SWAP1 DUP3 ADD SWAP1 PUSH1 0x1 ADD PUSH2 0x33FF JUMP JUMPDEST PUSH1 0x0 DUP3 PUSH1 0x1F DUP4 ADD SLT PUSH2 0x342B JUMPI DUP1 DUP2 REVERT JUMPDEST DUP2 CALLDATALOAD PUSH2 0x3439 PUSH2 0x3365 DUP3 PUSH2 0x4657 JUMP JUMPDEST DUP2 DUP2 MSTORE SWAP2 POP PUSH1 0x20 DUP1 DUP4 ADD SWAP1 DUP5 DUP2 ADD DUP2 DUP5 MUL DUP7 ADD DUP3 ADD DUP8 LT ISZERO PUSH2 0x345A JUMPI PUSH1 0x0 DUP1 REVERT JUMPDEST PUSH1 0x0 DUP1 JUMPDEST DUP6 DUP2 LT ISZERO PUSH2 0x3488 JUMPI DUP3 CALLDATALOAD DUP1 PUSH1 0xF SIGNEXTEND DUP2 EQ PUSH2 0x3476 JUMPI DUP3 DUP4 REVERT JUMPDEST DUP6 MSTORE SWAP4 DUP4 ADD SWAP4 SWAP2 DUP4 ADD SWAP2 PUSH1 0x1 ADD PUSH2 0x345E JUMP JUMPDEST POP POP POP POP POP POP SWAP3 SWAP2 POP POP JUMP JUMPDEST DUP1 CALLDATALOAD DUP1 ISZERO ISZERO DUP2 EQ PUSH2 0x556 JUMPI PUSH1 0x0 DUP1 REVERT JUMPDEST DUP1 CALLDATALOAD PUSH1 0x0 DUP2 SWAP1 SIGNEXTEND DUP2 EQ PUSH2 0x556 JUMPI PUSH1 0x0 DUP1 REVERT JUMPDEST PUSH1 0x0 DUP3 PUSH1 0x1F DUP4 ADD SLT PUSH2 0x34C6 JUMPI DUP1 DUP2 REVERT JUMPDEST DUP2 CALLDATALOAD PUSH8 0xFFFFFFFFFFFFFFFF DUP2 GT ISZERO PUSH2 0x34DC JUMPI DUP2 DUP3 REVERT JUMPDEST PUSH2 0x350D PUSH1 0x20 PUSH32 0xFFFFFFFFFFFFFFFFFFFFFFFFFFFFFFFFFFFFFFFFFFFFFFFFFFFFFFFFFFFFFFE0 PUSH1 0x1F DUP5 ADD AND ADD PUSH2 0x4630 JUMP JUMPDEST SWAP2 POP DUP1 DUP3 MSTORE DUP4 PUSH1 0x20 DUP3 DUP6 ADD ADD GT ISZERO PUSH2 0x3524 JUMPI PUSH1 0x0 DUP1 REVERT JUMPDEST DUP1 PUSH1 0x20 DUP5 ADD PUSH1 0x20 DUP5 ADD CALLDATACOPY PUSH1 0x0 SWAP1 DUP3 ADD PUSH1 0x20 ADD MSTORE SWAP3 SWAP2 POP POP JUMP JUMPDEST PUSH1 0x0 DUP2 DUP4 SUB PUSH2 0x160 DUP2 SLT ISZERO PUSH2 0x3550 JUMPI DUP2 DUP3 REVERT JUMPDEST PUSH2 0x355A PUSH1 0x40 PUSH2 0x4630 JUMP JUMPDEST SWAP2 POP PUSH2 0x100 DUP1 DUP3 SLT ISZERO PUSH2 0x356C JUMPI PUSH1 0x0 DUP1 REVERT JUMPDEST PUSH2 0x3575 DUP2 PUSH2 0x4630 JUMP JUMPDEST SWAP2 POP DUP4 CALLDATALOAD DUP3 MSTORE PUSH2 0x3588 DUP6 PUSH1 0x20 DUP7 ADD PUSH2 0x3641 JUMP JUMPDEST PUSH1 0x20 DUP4 ADD MSTORE PUSH2 0x359A DUP6 PUSH1 0x40 DUP7 ADD PUSH2 0x3494 JUMP JUMPDEST PUSH1 0x40 DUP4 ADD MSTORE PUSH1 0x60 DUP5 ADD CALLDATALOAD PUSH1 0x60 DUP4 ADD MSTORE PUSH1 0x80 DUP5 ADD CALLDATALOAD PUSH1 0x80 DUP4 ADD MSTORE PUSH1 0xA0 DUP5 ADD CALLDATALOAD PUSH1 0xA0 DUP4 ADD MSTORE PUSH1 0xC0 DUP5 ADD CALLDATALOAD PUSH1 0xC0 DUP4 ADD MSTORE PUSH2 0x35D4 DUP6 PUSH1 0xE0 DUP7 ADD PUSH2 0x3323 JUMP JUMPDEST PUSH1 0xE0 DUP4 ADD MSTORE DUP2 DUP4 MSTORE PUSH2 0x35E8 DUP6 DUP3 DUP7 ADD PUSH2 0x35F5 JUMP JUMPDEST PUSH1 0x20 DUP5 ADD MSTORE POP POP SWAP3 SWAP2 POP POP JUMP JUMPDEST PUSH1 0x0 PUSH1 0x60 DUP3 DUP5 SUB SLT ISZERO PUSH2 0x3606 JUMPI DUP1 DUP2 REVERT JUMPDEST PUSH2 0x3610 PUSH1 0x60 PUSH2 0x4630 JUMP JUMPDEST SWAP1 POP DUP2 CALLDATALOAD PUSH1 0xFF DUP2 AND DUP2 EQ PUSH2 0x3623 JUMPI PUSH1 0x0 DUP1 REVERT JUMPDEST DUP1 DUP3 MSTORE POP PUSH1 0x20 DUP3 ADD CALLDATALOAD PUSH1 0x20 DUP3 ADD MSTORE PUSH1 0x40 DUP3 ADD CALLDATALOAD PUSH1 0x40 DUP3 ADD MSTORE SWAP3 SWAP2 POP POP JUMP JUMPDEST DUP1 CALLDATALOAD PUSH2 0xFFFF DUP2 AND DUP2 EQ PUSH2 0x556 JUMPI PUSH1 0x0 DUP1 REVERT JUMPDEST DUP1 CALLDATALOAD PUSH3 0xFFFFFF DUP2 AND DUP2 EQ PUSH2 0x556 JUMPI PUSH1 0x0 DUP1 REVERT JUMPDEST DUP1 CALLDATALOAD PUSH4 0xFFFFFFFF DUP2 AND DUP2 EQ PUSH2 0x556 JUMPI PUSH1 0x0 DUP1 REVERT JUMPDEST DUP1 CALLDATALOAD PUSH5 0xFFFFFFFFFF DUP2 AND DUP2 EQ PUSH2 0x556 JUMPI PUSH1 0x0 DUP1 REVERT JUMPDEST DUP1 CALLDATALOAD PUSH1 0xFF DUP2 AND DUP2 EQ PUSH2 0x556 JUMPI PUSH1 0x0 DUP1 REVERT JUMPDEST PUSH1 0x0 DUP1 PUSH1 0x0 PUSH1 0x40 DUP5 DUP7 SUB SLT ISZERO PUSH2 0x36B4 JUMPI DUP3 DUP4 REVERT JUMPDEST DUP4 CALLDATALOAD PUSH20 0xFFFFFFFFFFFFFFFFFFFFFFFFFFFFFFFFFFFFFFFF DUP2 AND DUP2 EQ PUSH2 0x36D7 JUMPI DUP4 DUP5 REVERT JUMPDEST SWAP3 POP PUSH1 0x20 DUP5 ADD CALLDATALOAD PUSH8 0xFFFFFFFFFFFFFFFF DUP1 DUP3 GT ISZERO PUSH2 0x36F3 JUMPI DUP4 DUP5 REVERT JUMPDEST DUP2 DUP7 ADD DUP8 PUSH1 0x1F DUP3 ADD SLT PUSH2 0x3704 JUMPI DUP5 DUP6 REVERT JUMPDEST DUP1 CALLDATALOAD SWAP3 POP DUP2 DUP4 GT ISZERO PUSH2 0x3714 JUMPI DUP5 DUP6 REVERT JUMPDEST DUP8 PUSH1 0x20 DUP1 DUP6 MUL DUP4 ADD ADD GT ISZERO PUSH2 0x3727 JUMPI DUP5 DUP6 REVERT JUMPDEST SWAP5 SWAP8 PUSH1 0x20 SWAP1 SWAP6 ADD SWAP7 POP SWAP1 SWAP5 POP POP POP POP JUMP JUMPDEST PUSH1 0x0 DUP1 PUSH1 0x40 DUP4 DUP6 SUB SLT ISZERO PUSH2 0x374A JUMPI DUP2 DUP3 REVERT JUMPDEST PUSH2 0x3754 DUP5 DUP5 PUSH2 0x3323 JUMP JUMPDEST SWAP5 PUSH1 0x20 SWAP4 SWAP1 SWAP4 ADD CALLDATALOAD SWAP4 POP POP POP JUMP JUMPDEST PUSH1 0x0 DUP1 PUSH1 0x40 DUP4 DUP6 SUB SLT ISZERO PUSH2 0x3774 JUMPI DUP2 DUP3 REVERT JUMPDEST DUP3 CALLDATALOAD PUSH8 0xFFFFFFFFFFFFFFFF DUP2 GT ISZERO PUSH2 0x378A JUMPI DUP3 DUP4 REVERT JUMPDEST DUP1 DUP5 ADD DUP6 PUSH1 0x1F DUP3 ADD SLT PUSH2 0x379B JUMPI DUP4 DUP5 REVERT JUMPDEST DUP1 CALLDATALOAD SWAP2 POP PUSH2 0x37AB PUSH2 0x3365 DUP4 PUSH2 0x4657 JUMP JUMPDEST DUP1 DUP4 DUP3 MSTORE PUSH1 0x20 DUP1 DUP4 ADD SWAP3 POP DUP1 DUP5 ADD PUSH2 0x160 DUP11 DUP4 DUP3 DUP10 MUL DUP9 ADD ADD GT ISZERO PUSH2 0x37CE JUMPI DUP9 DUP10 REVERT JUMPDEST DUP9 SWAP6 POP JUMPDEST DUP7 DUP7 LT ISZERO PUSH2 0x37FA JUMPI PUSH2 0x37E4 DUP12 DUP4 PUSH2 0x353D JUMP JUMPDEST DUP6 MSTORE PUSH1 0x1 SWAP6 SWAP1 SWAP6 ADD SWAP5 SWAP4 DUP3 ADD SWAP4 SWAP1 DUP2 ADD SWAP1 PUSH2 0x37D2 JUMP JUMPDEST POP SWAP2 SWAP10 SWAP8 ADD CALLDATALOAD SWAP8 POP POP POP POP POP POP POP JUMP JUMPDEST PUSH1 0x0 PUSH1 0x20 DUP3 DUP5 SUB SLT ISZERO PUSH2 0x381B JUMPI DUP1 DUP2 REVERT JUMPDEST POP CALLDATALOAD SWAP2 SWAP1 POP JUMP JUMPDEST PUSH1 0x0 DUP1 PUSH1 0x0 PUSH1 0x60 DUP5 DUP7 SUB SLT ISZERO PUSH2 0x3836 JUMPI DUP1 DUP2 REVERT JUMPDEST DUP4 CALLDATALOAD SWAP3 POP PUSH1 0x20 DUP5 ADD CALLDATALOAD PUSH8 0xFFFFFFFFFFFFFFFF DUP1 DUP3 GT ISZERO PUSH2 0x3854 JUMPI DUP3 DUP4 REVERT JUMPDEST PUSH2 0x3860 DUP8 DUP4 DUP9 ADD PUSH2 0x3347 JUMP JUMPDEST SWAP4 POP PUSH1 0x40 DUP7 ADD CALLDATALOAD SWAP2 POP DUP1 DUP3 GT ISZERO PUSH2 0x3875 JUMPI DUP3 DUP4 REVERT JUMPDEST POP PUSH2 0x3882 DUP7 DUP3 DUP8 ADD PUSH2 0x33BD JUMP JUMPDEST SWAP2 POP POP SWAP3 POP SWAP3 POP SWAP3 JUMP JUMPDEST PUSH1 0x0 DUP1 PUSH1 0x0 DUP1 PUSH1 0x0 PUSH1 0xE0 DUP7 DUP9 SUB SLT ISZERO PUSH2 0x38A3 JUMPI DUP3 DUP4 REVERT JUMPDEST DUP6 CALLDATALOAD SWAP5 POP PUSH2 0x38B4 DUP8 PUSH1 0x20 DUP9 ADD PUSH2 0x35F5 JUMP JUMPDEST SWAP4 POP PUSH1 0x80 DUP7 ADD CALLDATALOAD SWAP3 POP PUSH1 0xA0 DUP7 ADD CALLDATALOAD PUSH8 0xFFFFFFFFFFFFFFFF DUP1 DUP3 GT ISZERO PUSH2 0x38D7 JUMPI DUP3 DUP4 REVERT JUMPDEST PUSH2 0x38E3 DUP10 DUP4 DUP11 ADD PUSH2 0x3347 JUMP JUMPDEST SWAP4 POP PUSH1 0xC0 DUP9 ADD CALLDATALOAD SWAP2 POP DUP1 DUP3 GT ISZERO PUSH2 0x38F8 JUMPI DUP3 DUP4 REVERT JUMPDEST POP PUSH2 0x3905 DUP9 DUP3 DUP10 ADD PUSH2 0x33BD JUMP JUMPDEST SWAP2 POP POP SWAP3 SWAP6 POP SWAP3 SWAP6 SWAP1 SWAP4 POP JUMP JUMPDEST PUSH1 0x0 DUP1 PUSH1 0x0 PUSH1 0xA0 DUP5 DUP7 SUB SLT ISZERO PUSH2 0x3926 JUMPI DUP1 DUP2 REVERT JUMPDEST DUP4 CALLDATALOAD PUSH8 0xFFFFFFFFFFFFFFFF DUP1 DUP3 GT ISZERO PUSH2 0x393D JUMPI DUP3 DUP4 REVERT JUMPDEST PUSH2 0x1E0 SWAP2 DUP7 ADD DUP1 DUP9 SUB DUP4 SGT ISZERO PUSH2 0x3951 JUMPI DUP4 DUP5 REVERT JUMPDEST PUSH2 0x395A DUP4 PUSH2 0x4630 JUMP JUMPDEST DUP2 CALLDATALOAD SWAP4 POP DUP3 DUP5 GT ISZERO PUSH2 0x396A JUMPI DUP5 DUP6 REVERT JUMPDEST PUSH2 0x3976 DUP10 DUP6 DUP5 ADD PUSH2 0x34B6 JUMP JUMPDEST DUP2 MSTORE PUSH2 0x3985 DUP10 PUSH1 0x20 DUP5 ADD PUSH2 0x367A JUMP JUMPDEST PUSH1 0x20 DUP3 ADD MSTORE PUSH2 0x3997 DUP10 PUSH1 0x40 DUP5 ADD PUSH2 0x3653 JUMP JUMPDEST PUSH1 0x40 DUP3 ADD MSTORE PUSH2 0x39A9 DUP10 PUSH1 0x60 DUP5 ADD PUSH2 0x368F JUMP JUMPDEST PUSH1 0x60 DUP3 ADD MSTORE PUSH2 0x39BB DUP10 PUSH1 0x80 DUP5 ADD PUSH2 0x368F JUMP JUMPDEST PUSH1 0x80 DUP3 ADD MSTORE PUSH2 0x39CD DUP10 PUSH1 0xA0 DUP5 ADD PUSH2 0x368F JUMP JUMPDEST PUSH1 0xA0 DUP3 ADD MSTORE PUSH2 0x39DF DUP10 PUSH1 0xC0 DUP5 ADD PUSH2 0x34A4 JUMP JUMPDEST PUSH1 0xC0 DUP3 ADD MSTORE PUSH2 0x39F1 DUP10 PUSH1 0xE0 DUP5 ADD PUSH2 0x3323 JUMP JUMPDEST PUSH1 0xE0 DUP3 ADD MSTORE PUSH2 0x100 SWAP4 POP PUSH2 0x3A07 DUP10 DUP6 DUP5 ADD PUSH2 0x368F JUMP JUMPDEST DUP5 DUP3 ADD MSTORE PUSH2 0x120 SWAP4 POP PUSH2 0x3A1C DUP10 DUP6 DUP5 ADD PUSH2 0x3666 JUMP JUMPDEST DUP5 DUP3 ADD MSTORE PUSH2 0x140 SWAP4 POP PUSH2 0x3A31 DUP10 DUP6 DUP5 ADD PUSH2 0x3323 JUMP JUMPDEST DUP5 DUP3 ADD MSTORE PUSH2 0x160 SWAP4 POP PUSH2 0x3A46 DUP10 DUP6 DUP5 ADD PUSH2 0x3666 JUMP JUMPDEST DUP5 DUP3 ADD MSTORE PUSH2 0x180 SWAP4 POP PUSH2 0x3A5B DUP10 DUP6 DUP5 ADD PUSH2 0x3666 JUMP JUMPDEST DUP5 DUP3 ADD MSTORE PUSH2 0x1A0 SWAP4 POP PUSH2 0x3A70 DUP10 DUP6 DUP5 ADD PUSH2 0x3323 JUMP JUMPDEST DUP5 DUP3 ADD MSTORE PUSH2 0x1C0 SWAP4 POP DUP4 DUP3 ADD CALLDATALOAD DUP4 DUP2 GT ISZERO PUSH2 0x3A89 JUMPI DUP6 DUP7 REVERT JUMPDEST PUSH2 0x3A95 DUP11 DUP3 DUP6 ADD PUSH2 0x341B JUMP JUMPDEST DUP6 DUP4 ADD MSTORE POP DUP1 SWAP7 POP POP POP POP POP PUSH2 0x3AAE DUP6 PUSH1 0x20 DUP7 ADD PUSH2 0x3494 JUMP JUMPDEST SWAP2 POP PUSH2 0x3ABD DUP6 PUSH1 0x40 DUP7 ADD PUSH2 0x35F5 JUMP JUMPDEST SWAP1 POP SWAP3 POP SWAP3 POP SWAP3 JUMP JUMPDEST PUSH1 0x0 DUP1 PUSH2 0x180 DUP4 DUP6 SUB SLT ISZERO PUSH2 0x3AD9 JUMPI DUP2 DUP3 REVERT JUMPDEST PUSH2 0x3AE3 DUP5 DUP5 PUSH2 0x353D JUMP JUMPDEST SWAP5 PUSH2 0x160 SWAP4 SWAP1 SWAP4 ADD CALLDATALOAD SWAP4 POP POP POP JUMP JUMPDEST PUSH1 0x0 PUSH1 0x20 DUP3 DUP5 SUB SLT ISZERO PUSH2 0x3B03 JUMPI DUP1 DUP2 REVERT JUMPDEST DUP2 CALLDATALOAD PUSH5 0xFFFFFFFFFF DUP2 AND DUP2 EQ PUSH2 0xCBA JUMPI DUP2 DUP3 REVERT JUMPDEST PUSH20 0xFFFFFFFFFFFFFFFFFFFFFFFFFFFFFFFFFFFFFFFF AND SWAP1 MSTORE JUMP JUMPDEST PUSH1 0x60 SHL PUSH32 0xFFFFFFFFFFFFFFFFFFFFFFFFFFFFFFFFFFFFFFFF000000000000000000000000 AND SWAP1 MSTORE JUMP JUMPDEST PUSH1 0x0 DUP2 MLOAD DUP1 DUP5 MSTORE PUSH1 0x20 DUP1 DUP6 ADD SWAP5 POP DUP1 DUP5 ADD DUP4 JUMPDEST DUP4 DUP2 LT ISZERO PUSH2 0x3B8C JUMPI DUP2 MLOAD PUSH1 0xF SIGNEXTEND DUP8 MSTORE SWAP6 DUP3 ADD SWAP6 SWAP1 DUP3 ADD SWAP1 PUSH1 0x1 ADD PUSH2 0x3B6D JUMP JUMPDEST POP SWAP5 SWAP6 SWAP5 POP POP POP POP POP JUMP JUMPDEST DUP1 MLOAD PUSH1 0x0 SWAP1 PUSH1 0x20 DUP1 DUP5 ADD DUP4 DUP4 ISZERO PUSH2 0x3B8C JUMPI DUP2 MLOAD PUSH1 0xF SIGNEXTEND DUP8 MSTORE SWAP6 DUP3 ADD SWAP6 SWAP1 DUP3 ADD SWAP1 PUSH1 0x1 ADD PUSH2 0x3B6D JUMP JUMPDEST PUSH1 0x0 SIGNEXTEND SWAP1 MSTORE JUMP JUMPDEST PUSH1 0x0 SIGNEXTEND PUSH1 0xF8 SHL SWAP1 MSTORE JUMP JUMPDEST PUSH1 0x0 DUP2 MLOAD DUP1 DUP5 MSTORE PUSH2 0x3BE8 DUP2 PUSH1 0x20 DUP7 ADD PUSH1 0x20 DUP7 ADD PUSH2 0x4677 JUMP JUMPDEST PUSH1 0x1F ADD PUSH32 0xFFFFFFFFFFFFFFFFFFFFFFFFFFFFFFFFFFFFFFFFFFFFFFFFFFFFFFFFFFFFFFE0 AND SWAP3 SWAP1 SWAP3 ADD PUSH1 0x20 ADD SWAP3 SWAP2 POP POP JUMP JUMPDEST PUSH1 0x0 PUSH2 0x1E0 DUP3 MLOAD DUP2 DUP6 MSTORE PUSH2 0x3C30 DUP3 DUP7 ADD DUP3 PUSH2 0x3BD0 JUMP JUMPDEST PUSH1 0x20 DUP6 ADD MLOAD SWAP3 POP PUSH2 0x3C44 PUSH1 0x20 DUP8 ADD DUP5 PUSH2 0x3E05 JUMP JUMPDEST PUSH1 0x40 DUP6 ADD MLOAD SWAP3 POP PUSH2 0x3C58 PUSH1 0x40 DUP8 ADD DUP5 PUSH2 0x3DF2 JUMP JUMPDEST PUSH1 0x60 DUP6 ADD MLOAD SWAP3 POP PUSH2 0x3C6C PUSH1 0x60 DUP8 ADD DUP5 PUSH2 0x3E10 JUMP JUMPDEST PUSH1 0x80 DUP6 ADD MLOAD SWAP3 POP PUSH2 0x3C80 PUSH1 0x80 DUP8 ADD DUP5 PUSH2 0x3E10 JUMP JUMPDEST PUSH1 0xA0 DUP6 ADD MLOAD SWAP3 POP PUSH2 0x3C94 PUSH1 0xA0 DUP8 ADD DUP5 PUSH2 0x3E10 JUMP JUMPDEST PUSH1 0xC0 DUP6 ADD MLOAD SWAP3 POP PUSH2 0x3CA8 PUSH1 0xC0 DUP8 ADD DUP5 PUSH2 0x3BBF JUMP JUMPDEST PUSH1 0xE0 DUP6 ADD MLOAD SWAP3 POP PUSH2 0x3CBC PUSH1 0xE0 DUP8 ADD DUP5 PUSH2 0x3B17 JUMP JUMPDEST PUSH2 0x100 SWAP3 POP DUP3 DUP6 ADD MLOAD SWAP2 POP PUSH2 0x3CD3 DUP4 DUP8 ADD DUP4 PUSH2 0x3E10 JUMP JUMPDEST PUSH2 0x120 SWAP3 POP DUP3 DUP6 ADD MLOAD SWAP2 POP PUSH2 0x3CEA DUP4 DUP8 ADD DUP4 PUSH2 0x3DFB JUMP JUMPDEST PUSH2 0x140 SWAP3 POP DUP3 DUP6 ADD MLOAD SWAP2 POP PUSH2 0x3D01 DUP4 DUP8 ADD DUP4 PUSH2 0x3B17 JUMP JUMPDEST PUSH2 0x160 SWAP3 POP DUP3 DUP6 ADD MLOAD SWAP2 POP PUSH2 0x3D18 DUP4 DUP8 ADD DUP4 PUSH2 0x3DFB JUMP JUMPDEST PUSH2 0x180 SWAP3 POP DUP3 DUP6 ADD MLOAD SWAP2 POP PUSH2 0x3D2F DUP4 DUP8 ADD DUP4 PUSH2 0x3DFB JUMP JUMPDEST PUSH2 0x1A0 SWAP3 POP DUP3 DUP6 ADD MLOAD SWAP2 POP PUSH2 0x3D46 DUP4 DUP8 ADD DUP4 PUSH2 0x3B17 JUMP JUMPDEST PUSH2 0x1C0 SWAP3 POP DUP3 DUP6 ADD MLOAD SWAP2 POP DUP6 DUP2 SUB DUP4 DUP8 ADD MSTORE PUSH2 0x3D62 DUP2 DUP4 PUSH2 0x3B5A JUMP JUMPDEST SWAP7 SWAP6 POP POP POP POP POP POP JUMP JUMPDEST PUSH1 0x0 DUP2 MLOAD PUSH1 0xE0 DUP5 MSTORE PUSH2 0x3D81 PUSH1 0xE0 DUP6 ADD DUP3 PUSH2 0x3C1A JUMP JUMPDEST PUSH1 0x20 DUP5 ADD MLOAD SWAP2 POP PUSH16 0xFFFFFFFFFFFFFFFFFFFFFFFFFFFFFFFF DUP3 MLOAD AND PUSH1 0x20 DUP7 ADD MSTORE PUSH2 0xFFFF PUSH1 0x20 DUP4 ADD MLOAD AND PUSH1 0x40 DUP7 ADD MSTORE PUSH1 0x40 DUP3 ADD MLOAD ISZERO ISZERO PUSH1 0x60 DUP7 ADD MSTORE PUSH1 0x40 DUP5 ADD MLOAD PUSH1 0x80 DUP7 ADD MSTORE PUSH1 0x60 DUP5 ADD MLOAD SWAP2 POP PUSH2 0x3DD5 DUP3 PUSH2 0x46A3 JUMP JUMPDEST DUP2 PUSH1 0xA0 DUP7 ADD MSTORE PUSH1 0x80 DUP5 ADD MLOAD ISZERO ISZERO PUSH1 0xC0 DUP7 ADD MSTORE DUP1 SWAP3 POP POP POP SWAP3 SWAP2 POP POP JUMP JUMPDEST PUSH3 0xFFFFFF AND SWAP1 MSTORE JUMP JUMPDEST PUSH4 0xFFFFFFFF AND SWAP1 MSTORE JUMP JUMPDEST PUSH5 0xFFFFFFFFFF AND SWAP1 MSTORE JUMP JUMPDEST PUSH1 0xFF AND SWAP1 MSTORE JUMP JUMPDEST PUSH1 0xF8 SHL PUSH32 0xFF00000000000000000000000000000000000000000000000000000000000000 AND SWAP1 MSTORE JUMP JUMPDEST PUSH1 0x60 SWAP10 DUP11 SHL PUSH32 0xFFFFFFFFFFFFFFFFFFFFFFFFFFFFFFFFFFFFFFFF000000000000000000000000 SWAP1 DUP2 AND DUP3 MSTORE PUSH1 0x14 DUP3 ADD SWAP10 SWAP1 SWAP10 MSTORE PUSH1 0xF0 SWAP8 SWAP1 SWAP8 SHL PUSH32 0xFFFF000000000000000000000000000000000000000000000000000000000000 AND PUSH1 0x34 DUP9 ADD MSTORE SWAP5 ISZERO ISZERO PUSH1 0xF8 SHL PUSH1 0x36 DUP8 ADD MSTORE PUSH1 0x37 DUP7 ADD SWAP4 SWAP1 SWAP4 MSTORE PUSH1 0x57 DUP6 ADD SWAP2 SWAP1 SWAP2 MSTORE PUSH1 0x77 DUP5 ADD MSTORE PUSH1 0x97 DUP4 ADD MSTORE SWAP1 SWAP3 SHL AND PUSH1 0xB7 DUP3 ADD MSTORE PUSH1 0xCB ADD SWAP1 JUMP JUMPDEST SWAP3 DUP4 MSTORE PUSH1 0x20 DUP4 ADD SWAP2 SWAP1 SWAP2 MSTORE PUSH1 0xF0 SHL PUSH32 0xFFFF000000000000000000000000000000000000000000000000000000000000 AND PUSH1 0x40 DUP3 ADD MSTORE PUSH1 0x42 ADD SWAP1 JUMP JUMPDEST SWAP7 DUP8 MSTORE PUSH1 0xD8 SWAP6 SWAP1 SWAP6 SHL PUSH32 0xFFFFFFFFFF000000000000000000000000000000000000000000000000000000 AND PUSH1 0x20 DUP8 ADD MSTORE PUSH1 0xE8 SWAP4 SWAP1 SWAP4 SHL PUSH32 0xFFFFFF0000000000000000000000000000000000000000000000000000000000 AND PUSH1 0x25 DUP7 ADD MSTORE PUSH1 0xF8 SWAP2 DUP3 SHL PUSH32 0xFF00000000000000000000000000000000000000000000000000000000000000 SWAP1 DUP2 AND PUSH1 0x28 DUP8 ADD MSTORE SWAP1 DUP3 SHL DUP2 AND PUSH1 0x29 DUP7 ADD MSTORE SWAP2 DUP2 SHL SWAP1 SWAP2 AND PUSH1 0x2A DUP5 ADD MSTORE PUSH1 0x0 SWAP2 SWAP1 SWAP2 SIGNEXTEND SWAP1 SHL PUSH1 0x2B DUP3 ADD MSTORE PUSH1 0x2C ADD SWAP1 JUMP JUMPDEST PUSH1 0x0 DUP13 DUP3 MSTORE PUSH32 0xFFFFFFFFFF000000000000000000000000000000000000000000000000000000 DUP13 PUSH1 0xD8 SHL AND PUSH1 0x20 DUP4 ADD MSTORE PUSH32 0xFFFFFF0000000000000000000000000000000000000000000000000000000000 DUP12 PUSH1 0xE8 SHL AND PUSH1 0x25 DUP4 ADD MSTORE PUSH32 0xFF00000000000000000000000000000000000000000000000000000000000000 DUP1 DUP12 PUSH1 0xF8 SHL AND PUSH1 0x28 DUP5 ADD MSTORE DUP1 DUP11 PUSH1 0xF8 SHL AND PUSH1 0x29 DUP5 ADD MSTORE POP PUSH2 0x4062 PUSH1 0x2A DUP4 ADD DUP10 PUSH2 0x3E17 JUMP JUMPDEST PUSH2 0x406F PUSH1 0x2B DUP4 ADD DUP9 PUSH2 0x3BC6 JUMP JUMPDEST PUSH2 0x407C PUSH1 0x2C DUP4 ADD DUP8 PUSH2 0x3E17 JUMP JUMPDEST PUSH2 0x4089 PUSH1 0x2D DUP4 ADD DUP7 PUSH2 0x3B31 JUMP JUMPDEST PUSH2 0x4096 PUSH1 0x41 DUP4 ADD DUP6 PUSH2 0x3B31 JUMP JUMPDEST PUSH2 0x40A3 PUSH1 0x55 DUP4 ADD DUP5 PUSH2 0x3B31 JUMP JUMPDEST POP PUSH1 0x69 ADD SWAP12 SWAP11 POP POP POP POP POP POP POP POP POP POP POP JUMP JUMPDEST PUSH1 0x0 DUP4 MLOAD PUSH2 0x40C8 DUP2 DUP5 PUSH1 0x20 DUP9 ADD PUSH2 0x4677 JUMP JUMPDEST PUSH2 0x40D4 DUP2 DUP5 ADD DUP6 PUSH2 0x3B97 JUMP JUMPDEST SWAP6 SWAP5 POP POP POP POP POP JUMP JUMPDEST PUSH1 0x0 DUP7 MLOAD PUSH2 0x40EF DUP2 DUP5 PUSH1 0x20 DUP12 ADD PUSH2 0x4677 JUMP JUMPDEST DUP1 DUP4 ADD PUSH32 0xFFFFFFFF00000000000000000000000000000000000000000000000000000000 SWAP2 POP DUP2 DUP9 PUSH1 0xE0 SHL AND DUP2 MSTORE DUP2 DUP8 PUSH1 0xE0 SHL AND PUSH1 0x4 DUP3 ADD MSTORE DUP2 DUP7 PUSH1 0xE0 SHL AND PUSH1 0x8 DUP3 ADD MSTORE PUSH2 0x4140 PUSH1 0xC DUP3 ADD DUP7 PUSH2 0x3B97 JUMP JUMPDEST SWAP10 SWAP9 POP POP POP POP POP POP POP POP POP JUMP JUMPDEST PUSH1 0x0 DUP4 MLOAD PUSH2 0x415F DUP2 DUP5 PUSH1 0x20 DUP9 ADD PUSH2 0x4677 JUMP JUMPDEST SWAP2 SWAP1 SWAP2 ADD SWAP2 DUP3 MSTORE POP PUSH1 0x20 ADD SWAP2 SWAP1 POP JUMP JUMPDEST PUSH1 0x0 DUP3 MLOAD PUSH2 0x4181 DUP2 DUP5 PUSH1 0x20 DUP8 ADD PUSH2 0x4677 JUMP JUMPDEST SWAP2 SWAP1 SWAP2 ADD SWAP3 SWAP2 POP POP JUMP JUMPDEST PUSH1 0x0 PUSH1 0x20 DUP1 DUP4 ADD DUP2 DUP5 MSTORE DUP1 DUP6 MLOAD DUP1 DUP4 MSTORE PUSH1 0x40 DUP7 ADD SWAP2 POP PUSH1 0x40 DUP5 DUP3 MUL DUP8 ADD ADD SWAP3 POP DUP4 DUP8 ADD DUP6 JUMPDEST DUP3 DUP2 LT ISZERO PUSH2 0x41FC JUMPI PUSH32 0xFFFFFFFFFFFFFFFFFFFFFFFFFFFFFFFFFFFFFFFFFFFFFFFFFFFFFFFFFFFFFFC0 DUP9 DUP7 SUB ADD DUP5 MSTORE PUSH2 0x41EA DUP6 DUP4 MLOAD PUSH2 0x3D6C JUMP JUMPDEST SWAP5 POP SWAP3 DUP6 ADD SWAP3 SWAP1 DUP6 ADD SWAP1 PUSH1 0x1 ADD PUSH2 0x41B0 JUMP JUMPDEST POP SWAP3 SWAP8 SWAP7 POP POP POP POP POP POP POP JUMP JUMPDEST PUSH1 0x20 DUP1 DUP3 MSTORE DUP3 MLOAD DUP3 DUP3 ADD DUP2 SWAP1 MSTORE PUSH1 0x0 SWAP2 SWAP1 DUP5 DUP3 ADD SWAP1 PUSH1 0x40 DUP6 ADD SWAP1 DUP5 JUMPDEST DUP2 DUP2 LT ISZERO PUSH2 0x4241 JUMPI DUP4 MLOAD DUP4 MSTORE SWAP3 DUP5 ADD SWAP3 SWAP2 DUP5 ADD SWAP2 PUSH1 0x1 ADD PUSH2 0x4225 JUMP JUMPDEST POP SWAP1 SWAP7 SWAP6 POP POP POP POP POP POP JUMP JUMPDEST SWAP1 DUP2 MSTORE PUSH1 0x20 ADD SWAP1 JUMP JUMPDEST PUSH1 0x0 DUP5 DUP3 MSTORE PUSH5 0xFFFFFFFFFF DUP5 AND PUSH1 0x20 DUP4 ADD MSTORE PUSH1 0x60 PUSH1 0x40 DUP4 ADD MSTORE PUSH2 0x40D4 PUSH1 0x60 DUP4 ADD DUP5 PUSH2 0x3BD0 JUMP JUMPDEST SWAP4 DUP5 MSTORE PUSH1 0xFF SWAP3 SWAP1 SWAP3 AND PUSH1 0x20 DUP5 ADD MSTORE PUSH1 0x40 DUP4 ADD MSTORE PUSH1 0x60 DUP3 ADD MSTORE PUSH1 0x80 ADD SWAP1 JUMP JUMPDEST PUSH1 0x0 PUSH1 0x20 DUP3 MSTORE PUSH2 0xCBA PUSH1 0x20 DUP4 ADD DUP5 PUSH2 0x3BD0 JUMP JUMPDEST PUSH1 0x20 DUP1 DUP3 MSTORE PUSH1 0x17 SWAP1 DUP3 ADD MSTORE PUSH32 0x4D61726B6574206E6F742079657420736574746C65642E000000000000000000 PUSH1 0x40 DUP3 ADD MSTORE PUSH1 0x60 ADD SWAP1 JUMP JUMPDEST PUSH1 0x20 DUP1 DUP3 MSTORE PUSH1 0x12 SWAP1 DUP3 ADD MSTORE PUSH32 0x5369676E617475726520696E76616C69642E0000000000000000000000000000 PUSH1 0x40 DUP3 ADD MSTORE PUSH1 0x60 ADD SWAP1 JUMP JUMPDEST PUSH1 0x20 DUP1 DUP3 MSTORE PUSH1 0x15 SWAP1 DUP3 ADD MSTORE PUSH32 0x746F6F2066617220696E20746865206675747572650000000000000000000000 PUSH1 0x40 DUP3 ADD MSTORE PUSH1 0x60 ADD SWAP1 JUMP JUMPDEST PUSH1 0x20 DUP1 DUP3 MSTORE PUSH1 0x1B SWAP1 DUP3 ADD MSTORE PUSH32 0x536166654D6174683A206164646974696F6E206F766572666C6F770000000000 PUSH1 0x40 DUP3 ADD MSTORE PUSH1 0x60 ADD SWAP1 JUMP JUMPDEST PUSH1 0x20 DUP1 DUP3 MSTORE PUSH1 0x21 SWAP1 DUP3 ADD MSTORE PUSH32 0x5369676E6564536166654D6174683A206164646974696F6E206F766572666C6F PUSH1 0x40 DUP3 ADD MSTORE PUSH32 0x7700000000000000000000000000000000000000000000000000000000000000 PUSH1 0x60 DUP3 ADD MSTORE PUSH1 0x80 ADD SWAP1 JUMP JUMPDEST PUSH1 0x20 DUP1 DUP3 MSTORE PUSH1 0x21 SWAP1 DUP3 ADD MSTORE PUSH32 0x536166654D6174683A206D756C7469706C69636174696F6E206F766572666C6F PUSH1 0x40 DUP3 ADD MSTORE PUSH32 0x7700000000000000000000000000000000000000000000000000000000000000 PUSH1 0x60 DUP3 ADD MSTORE PUSH1 0x80 ADD SWAP1 JUMP JUMPDEST PUSH1 0x20 DUP1 DUP3 MSTORE PUSH1 0x27 SWAP1 DUP3 ADD MSTORE PUSH32 0x5369676E6564536166654D6174683A206D756C7469706C69636174696F6E206F PUSH1 0x40 DUP3 ADD MSTORE PUSH32 0x766572666C6F7700000000000000000000000000000000000000000000000000 PUSH1 0x60 DUP3 ADD MSTORE PUSH1 0x80 ADD SWAP1 JUMP JUMPDEST PUSH1 0x20 DUP1 DUP3 MSTORE PUSH1 0x15 SWAP1 DUP3 ADD MSTORE PUSH32 0x4E6F7420656E6F756768206C69717569646974792E0000000000000000000000 PUSH1 0x40 DUP3 ADD MSTORE PUSH1 0x60 ADD SWAP1 JUMP JUMPDEST PUSH1 0x20 DUP1 DUP3 MSTORE PUSH1 0x24 SWAP1 DUP3 ADD MSTORE PUSH32 0x5369676E6564536166654D6174683A207375627472616374696F6E206F766572 PUSH1 0x40 DUP3 ADD MSTORE PUSH32 0x666C6F7700000000000000000000000000000000000000000000000000000000 PUSH1 0x60 DUP3 ADD MSTORE PUSH1 0x80 ADD SWAP1 JUMP JUMPDEST PUSH1 0x0 PUSH1 0x20 DUP3 MSTORE PUSH2 0xCBA PUSH1 0x20 DUP4 ADD DUP5 PUSH2 0x3C1A JUMP JUMPDEST PUSH1 0x0 PUSH1 0x20 DUP3 MSTORE PUSH2 0xCBA PUSH1 0x20 DUP4 ADD DUP5 PUSH2 0x3D6C JUMP JUMPDEST PUSH1 0x0 PUSH1 0x60 DUP3 ADD DUP6 DUP4 MSTORE PUSH1 0x20 PUSH1 0x60 DUP2 DUP6 ADD MSTORE DUP2 DUP7 MLOAD DUP1 DUP5 MSTORE PUSH1 0x80 DUP7 ADD SWAP2 POP DUP3 DUP9 ADD SWAP4 POP DUP5 JUMPDEST DUP2 DUP2 LT ISZERO PUSH2 0x45AB JUMPI DUP5 MLOAD DUP1 MLOAD PUSH1 0xF SIGNEXTEND DUP5 MSTORE DUP5 ADD MLOAD PUSH1 0xFF AND DUP5 DUP5 ADD MSTORE SWAP4 DUP4 ADD SWAP4 PUSH1 0x40 SWAP1 SWAP3 ADD SWAP2 PUSH1 0x1 ADD PUSH2 0x457E JUMP JUMPDEST POP POP DUP1 SWAP4 POP POP POP POP PUSH2 0x45BC DUP4 PUSH2 0x46A3 JUMP JUMPDEST DUP3 PUSH1 0x40 DUP4 ADD MSTORE SWAP5 SWAP4 POP POP POP POP JUMP JUMPDEST SWAP5 DUP6 MSTORE PUSH1 0x20 DUP6 ADD SWAP4 SWAP1 SWAP4 MSTORE PUSH1 0x40 DUP5 ADD SWAP2 SWAP1 SWAP2 MSTORE PUSH1 0x60 DUP4 ADD MSTORE PUSH1 0x80 DUP3 ADD MSTORE PUSH1 0xA0 ADD SWAP1 JUMP JUMPDEST SWAP2 DUP3 MSTORE PUSH1 0x20 DUP3 ADD MSTORE PUSH1 0x40 ADD SWAP1 JUMP JUMPDEST SWAP5 DUP6 MSTORE PUSH2 0xFFFF SWAP4 SWAP1 SWAP4 AND PUSH1 0x20 DUP6 ADD MSTORE PUSH1 0x40 DUP5 ADD SWAP2 SWAP1 SWAP2 MSTORE PUSH1 0x60 DUP4 ADD MSTORE PUSH1 0x80 DUP3 ADD MSTORE PUSH1 0xA0 ADD SWAP1 JUMP JUMPDEST PUSH1 0xFF SWAP2 SWAP1 SWAP2 AND DUP2 MSTORE PUSH1 0x20 ADD SWAP1 JUMP JUMPDEST PUSH1 0x40 MLOAD DUP2 DUP2 ADD PUSH8 0xFFFFFFFFFFFFFFFF DUP2 GT DUP3 DUP3 LT OR ISZERO PUSH2 0x464F JUMPI PUSH1 0x0 DUP1 REVERT JUMPDEST PUSH1 0x40 MSTORE SWAP2 SWAP1 POP JUMP JUMPDEST PUSH1 0x0 PUSH8 0xFFFFFFFFFFFFFFFF DUP3 GT ISZERO PUSH2 0x466D JUMPI DUP1 DUP2 REVERT JUMPDEST POP PUSH1 0x20 SWAP1 DUP2 MUL ADD SWAP1 JUMP JUMPDEST PUSH1 0x0 JUMPDEST DUP4 DUP2 LT ISZERO PUSH2 0x4692 JUMPI DUP2 DUP2 ADD MLOAD DUP4 DUP3 ADD MSTORE PUSH1 0x20 ADD PUSH2 0x467A JUMP JUMPDEST DUP4 DUP2 GT ISZERO PUSH2 0x191C JUMPI POP POP PUSH1 0x0 SWAP2 ADD MSTORE JUMP JUMPDEST PUSH1 0x3 DUP2 LT PUSH2 0x46AD JUMPI INVALID JUMPDEST POP JUMP INVALID STOP STOP STOP STOP STOP STOP STOP STOP STOP STATICCALL PUSH30 0x3B53800000000A8C0000000001FA40000000001C200000000000 STOP LOG2 PUSH5 0x6970667358 0x22 SLT KECCAK256 DELEGATECALL 0xED DUP16 GASLIMIT 0x4C MSTORE 0xDD SAR MSTORE 0xC4 PUSH14 0x7CF894C14F1E215D554141BF711 0x25 PUSH12 0x980D52284564736F6C634300 MOD DIV STOP CALLER "
			}
		}
	},
	"sourceTreeHashHex": "0x8c768266a261fc724752a5db8c254a008d3e92cb9ff38452af8c87856f2eb34a",
	"compiler": {
		"name": "solc",
		"version": "soljson-v0.6.4+commit.1dca32f3.js",
		"settings": {
			"optimizer": {
				"enabled": true,
				"runs": 20000,
				"details": {
					"yul": true,
					"deduplicate": true,
					"cse": true,
					"constantOptimizer": true
				}
			},
			"outputSelection": {
				"*": {
					"*": [
						"abi",
						"evm.bytecode.object",
						"evm.bytecode.sourceMap",
						"evm.deployedBytecode.object",
						"evm.deployedBytecode.sourceMap"
					]
				}
			},
			"remappings": [
				"factsigner=/home/ulf/github/digioptions-contracts.js/node_modules/factsigner"
			]
		}
	},
	"chains": {}
}