{
	"schemaVersion": "2.0.0",
	"contractName": "DigiOptionsMarketLister",
	"compilerOutput": {
		"abi": [
			{
				"inputs": [
					{
						"internalType": "contract DigiOptionsMarkets",
						"name": "addr",
						"type": "address"
					}
				],
				"stateMutability": "nonpayable",
				"type": "constructor"
			},
			{
				"anonymous": false,
				"inputs": [
					{
						"indexed": false,
						"internalType": "bytes32",
						"name": "marketKey",
						"type": "bytes32"
					},
					{
						"indexed": true,
						"internalType": "uint48",
						"name": "expirationDatetimeFilter",
						"type": "uint48"
					},
					{
						"indexed": false,
						"internalType": "uint40",
						"name": "expirationDatetime",
						"type": "uint40"
					},
					{
						"indexed": true,
						"internalType": "uint8",
						"name": "marketInterval",
						"type": "uint8"
					},
					{
						"indexed": true,
						"internalType": "uint8",
						"name": "marketCategory",
						"type": "uint8"
					},
					{
						"indexed": false,
						"internalType": "uint40",
						"name": "openTime",
						"type": "uint40"
					},
					{
						"indexed": false,
						"internalType": "string",
						"name": "underlyingString",
						"type": "string"
					}
				],
				"name": "MarketCreateLister",
				"type": "event"
			},
			{
				"inputs": [
					{
						"internalType": "uint40",
						"name": "expirationDatetime",
						"type": "uint40"
					}
				],
				"name": "calcMarketInterval",
				"outputs": [
					{
						"internalType": "uint8",
						"name": "interval",
						"type": "uint8"
					}
				],
				"stateMutability": "view",
				"type": "function"
			},
			{
				"inputs": [
					{
						"components": [
							{
								"internalType": "string",
								"name": "underlyingString",
								"type": "string"
							},
							{
								"internalType": "uint40",
								"name": "expirationDatetime",
								"type": "uint40"
							},
							{
								"internalType": "uint24",
								"name": "objectionPeriod",
								"type": "uint24"
							},
							{
								"internalType": "uint8",
								"name": "config",
								"type": "uint8"
							},
							{
								"internalType": "uint8",
								"name": "marketCategory",
								"type": "uint8"
							},
							{
								"internalType": "uint8",
								"name": "baseUnitExp",
								"type": "uint8"
							},
							{
								"internalType": "int8",
								"name": "ndigit",
								"type": "int8"
							},
							{
								"internalType": "address",
								"name": "signerAddr",
								"type": "address"
							},
							{
								"internalType": "uint8",
								"name": "marketInterval",
								"type": "uint8"
							},
							{
								"internalType": "uint8",
								"name": "transactionFee0",
								"type": "uint8"
							},
							{
								"internalType": "uint8",
								"name": "transactionFee1",
								"type": "uint8"
							},
							{
								"internalType": "uint8",
								"name": "transactionFeeSigner",
								"type": "uint8"
							},
							{
								"internalType": "address",
								"name": "feeTaker0",
								"type": "address"
							},
							{
								"internalType": "address",
								"name": "feeTaker1",
								"type": "address"
							},
							{
								"internalType": "int128[]",
								"name": "strikes",
								"type": "int128[]"
							}
						],
						"internalType": "struct DigiOptionsLib.MarketBaseData",
						"name": "marketBaseData",
						"type": "tuple"
					},
					{
						"internalType": "bool",
						"name": "testMarket",
						"type": "bool"
					},
					{
						"components": [
							{
								"internalType": "uint8",
								"name": "v",
								"type": "uint8"
							},
							{
								"internalType": "bytes32",
								"name": "r",
								"type": "bytes32"
							},
							{
								"internalType": "bytes32",
								"name": "s",
								"type": "bytes32"
							}
						],
						"internalType": "struct FactsignerVerify.Signature",
						"name": "signature",
						"type": "tuple"
					}
				],
				"name": "createMarket",
				"outputs": [
					{
						"internalType": "bytes32",
						"name": "marketHash",
						"type": "bytes32"
					}
				],
				"stateMutability": "nonpayable",
				"type": "function"
			},
			{
				"inputs": [],
				"name": "getContractInfo",
				"outputs": [
					{
						"internalType": "uint256[]",
						"name": "contractInfoValues",
						"type": "uint256[]"
					}
				],
				"stateMutability": "nonpayable",
				"type": "function"
			},
			{
				"inputs": [
					{
						"internalType": "address",
						"name": "addr",
						"type": "address"
					},
					{
						"internalType": "bytes32",
						"name": "marketHash",
						"type": "bytes32"
					}
				],
				"name": "getMarketDataByMarketHash",
				"outputs": [
					{
						"components": [
							{
								"components": [
									{
										"internalType": "string",
										"name": "underlyingString",
										"type": "string"
									},
									{
										"internalType": "uint40",
										"name": "expirationDatetime",
										"type": "uint40"
									},
									{
										"internalType": "uint24",
										"name": "objectionPeriod",
										"type": "uint24"
									},
									{
										"internalType": "uint8",
										"name": "config",
										"type": "uint8"
									},
									{
										"internalType": "uint8",
										"name": "marketCategory",
										"type": "uint8"
									},
									{
										"internalType": "uint8",
										"name": "baseUnitExp",
										"type": "uint8"
									},
									{
										"internalType": "int8",
										"name": "ndigit",
										"type": "int8"
									},
									{
										"internalType": "address",
										"name": "signerAddr",
										"type": "address"
									},
									{
										"internalType": "uint8",
										"name": "marketInterval",
										"type": "uint8"
									},
									{
										"internalType": "uint8",
										"name": "transactionFee0",
										"type": "uint8"
									},
									{
										"internalType": "uint8",
										"name": "transactionFee1",
										"type": "uint8"
									},
									{
										"internalType": "uint8",
										"name": "transactionFeeSigner",
										"type": "uint8"
									},
									{
										"internalType": "address",
										"name": "feeTaker0",
										"type": "address"
									},
									{
										"internalType": "address",
										"name": "feeTaker1",
										"type": "address"
									},
									{
										"internalType": "int128[]",
										"name": "strikes",
										"type": "int128[]"
									}
								],
								"internalType": "struct DigiOptionsLib.MarketBaseData",
								"name": "marketBaseData",
								"type": "tuple"
							},
							{
								"components": [
									{
										"internalType": "uint128",
										"name": "fee",
										"type": "uint128"
									},
									{
										"internalType": "uint16",
										"name": "winningOptionID",
										"type": "uint16"
									},
									{
										"internalType": "bool",
										"name": "settled",
										"type": "bool"
									}
								],
								"internalType": "struct DigiOptionsLib.MarketState",
								"name": "marketState",
								"type": "tuple"
							},
							{
								"internalType": "bytes32",
								"name": "marketHash",
								"type": "bytes32"
							},
							{
								"internalType": "enum DigiOptionsLib.UserState",
								"name": "userState",
								"type": "uint8"
							},
							{
								"internalType": "bool",
								"name": "testMarket",
								"type": "bool"
							}
						],
						"internalType": "struct DigiOptionsLib.MarketData",
						"name": "marketData",
						"type": "tuple"
					}
				],
				"stateMutability": "view",
				"type": "function"
			},
			{
				"inputs": [
					{
						"internalType": "address",
						"name": "addr",
						"type": "address"
					},
					{
						"internalType": "bytes32[]",
						"name": "marketKeys",
						"type": "bytes32[]"
					}
				],
				"name": "getMarketDataListByMarketKeys",
				"outputs": [
					{
						"components": [
							{
								"components": [
									{
										"internalType": "string",
										"name": "underlyingString",
										"type": "string"
									},
									{
										"internalType": "uint40",
										"name": "expirationDatetime",
										"type": "uint40"
									},
									{
										"internalType": "uint24",
										"name": "objectionPeriod",
										"type": "uint24"
									},
									{
										"internalType": "uint8",
										"name": "config",
										"type": "uint8"
									},
									{
										"internalType": "uint8",
										"name": "marketCategory",
										"type": "uint8"
									},
									{
										"internalType": "uint8",
										"name": "baseUnitExp",
										"type": "uint8"
									},
									{
										"internalType": "int8",
										"name": "ndigit",
										"type": "int8"
									},
									{
										"internalType": "address",
										"name": "signerAddr",
										"type": "address"
									},
									{
										"internalType": "uint8",
										"name": "marketInterval",
										"type": "uint8"
									},
									{
										"internalType": "uint8",
										"name": "transactionFee0",
										"type": "uint8"
									},
									{
										"internalType": "uint8",
										"name": "transactionFee1",
										"type": "uint8"
									},
									{
										"internalType": "uint8",
										"name": "transactionFeeSigner",
										"type": "uint8"
									},
									{
										"internalType": "address",
										"name": "feeTaker0",
										"type": "address"
									},
									{
										"internalType": "address",
										"name": "feeTaker1",
										"type": "address"
									},
									{
										"internalType": "int128[]",
										"name": "strikes",
										"type": "int128[]"
									}
								],
								"internalType": "struct DigiOptionsLib.MarketBaseData",
								"name": "marketBaseData",
								"type": "tuple"
							},
							{
								"components": [
									{
										"internalType": "uint128",
										"name": "fee",
										"type": "uint128"
									},
									{
										"internalType": "uint16",
										"name": "winningOptionID",
										"type": "uint16"
									},
									{
										"internalType": "bool",
										"name": "settled",
										"type": "bool"
									}
								],
								"internalType": "struct DigiOptionsLib.MarketState",
								"name": "marketState",
								"type": "tuple"
							},
							{
								"internalType": "bytes32",
								"name": "marketHash",
								"type": "bytes32"
							},
							{
								"internalType": "enum DigiOptionsLib.UserState",
								"name": "userState",
								"type": "uint8"
							},
							{
								"internalType": "bool",
								"name": "testMarket",
								"type": "bool"
							}
						],
						"internalType": "struct DigiOptionsLib.MarketData[]",
						"name": "marketDataList",
						"type": "tuple[]"
					}
				],
				"stateMutability": "view",
				"type": "function"
			},
			{
				"inputs": [],
				"name": "getMarketListerInfo",
				"outputs": [
					{
						"internalType": "uint256[]",
						"name": "listerValues",
						"type": "uint256[]"
					},
					{
						"components": [
							{
								"internalType": "address",
								"name": "signerAddr",
								"type": "address"
							},
							{
								"internalType": "uint256",
								"name": "value",
								"type": "uint256"
							}
						],
						"internalType": "struct DigiOptionsMarketLister.SignerData[]",
						"name": "signerDataList",
						"type": "tuple[]"
					}
				],
				"stateMutability": "view",
				"type": "function"
			},
			{
				"inputs": [
					{
						"internalType": "bytes32",
						"name": "marketHash",
						"type": "bytes32"
					},
					{
						"internalType": "bool",
						"name": "testMarket",
						"type": "bool"
					}
				],
				"name": "registerMarket",
				"outputs": [],
				"stateMutability": "nonpayable",
				"type": "function"
			},
			{
				"inputs": [
					{
						"components": [
							{
								"internalType": "string",
								"name": "underlyingString",
								"type": "string"
							},
							{
								"internalType": "uint40",
								"name": "expirationDatetime",
								"type": "uint40"
							},
							{
								"internalType": "uint24",
								"name": "objectionPeriod",
								"type": "uint24"
							},
							{
								"internalType": "uint8",
								"name": "config",
								"type": "uint8"
							},
							{
								"internalType": "uint8",
								"name": "marketCategory",
								"type": "uint8"
							},
							{
								"internalType": "uint8",
								"name": "baseUnitExp",
								"type": "uint8"
							},
							{
								"internalType": "int8",
								"name": "ndigit",
								"type": "int8"
							},
							{
								"internalType": "address",
								"name": "signerAddr",
								"type": "address"
							},
							{
								"internalType": "uint8",
								"name": "marketInterval",
								"type": "uint8"
							},
							{
								"internalType": "uint8",
								"name": "transactionFee0",
								"type": "uint8"
							},
							{
								"internalType": "uint8",
								"name": "transactionFee1",
								"type": "uint8"
							},
							{
								"internalType": "uint8",
								"name": "transactionFeeSigner",
								"type": "uint8"
							},
							{
								"internalType": "address",
								"name": "feeTaker0",
								"type": "address"
							},
							{
								"internalType": "address",
								"name": "feeTaker1",
								"type": "address"
							},
							{
								"internalType": "int128[]",
								"name": "strikes",
								"type": "int128[]"
							}
						],
						"internalType": "struct DigiOptionsLib.MarketBaseData",
						"name": "marketBaseData",
						"type": "tuple"
					}
				],
				"name": "registerMarketTest",
				"outputs": [
					{
						"internalType": "bool",
						"name": "registerPossible",
						"type": "bool"
					}
				],
				"stateMutability": "view",
				"type": "function"
			},
			{
				"inputs": [
					{
						"internalType": "address",
						"name": "signerAddr",
						"type": "address"
					},
					{
						"internalType": "uint256",
						"name": "value",
						"type": "uint256"
					}
				],
				"name": "setSigner",
				"outputs": [],
				"stateMutability": "nonpayable",
				"type": "function"
			},
			{
				"inputs": [
					{
						"internalType": "bytes32",
						"name": "marketHash",
						"type": "bytes32"
					},
					{
						"internalType": "bool",
						"name": "testMarket",
						"type": "bool"
					}
				],
				"name": "setTestMarket",
				"outputs": [],
				"stateMutability": "nonpayable",
				"type": "function"
			}
		],
		"evm": {
			"bytecode": {
				"linkReferences": {},
				"object": "0x6080604052600060065534801561001557600080fd5b506040516200258e3803806200258e8339810160408190526100369161006d565b60018054336001600160a01b03199182161790915543600055600280549091166001600160a01b039290921691909117905561009b565b60006020828403121561007e578081fd5b81516001600160a01b0381168114610094578182fd5b9392505050565b6124e380620000ab6000396000f3fe608060405234801561001057600080fd5b50600436106100be5760003560e01c8063711c2b94116100765780638677e7b91161005b5780638677e7b91461017f578063b3889bb314610192578063c70be146146101b2576100be565b8063711c2b94146101575780637cc1f8671461016a576100be565b80632556d8d0116100a75780632556d8d01461010257806352d026881461012257806365e47b8c14610142576100be565b8063095200ce146100c35780630f8f8244146100ec575b600080fd5b6100d66100d1366004611c09565b6101d2565b6040516100e39190612338565b60405180910390f35b6100f4610281565b6040516100e3929190612101565b610115610110366004611aad565b610488565b6040516100e39190612182565b6101356101303660046118bb565b610592565b6040516100e3919061207d565b61015561015036600461193d565b61064c565b005b610155610165366004611a10565b6107ef565b61017261087e565b6040516100e391906120ee565b61015561018d366004611a10565b6109e9565b6101a56101a0366004611a3f565b610b20565b6040516100e39190612177565b6101c56101c036600461193d565b610c3a565b6040516100e39190612313565b6002546040517f095200ce00000000000000000000000000000000000000000000000000000000815260009173ffffffffffffffffffffffffffffffffffffffff169063095200ce90610229908590600401612326565b60206040518083038186803b15801561024157600080fd5b505afa158015610255573d6000803e3d6000fd5b505050506040513d601f19601f820116820180604052508101906102799190611c25565b90505b919050565b60408051600780825261010082019092526060918291906020820160e08036833701905050915062350000826000815181106102b957fe5b60209081029190910101526001805473ffffffffffffffffffffffffffffffffffffffff16908390815181106102eb57fe5b602090810291909101015260648260028151811061030557fe5b6020908102919091010152600a8260038151811061031f57fe5b6020908102919091010152600a8260048151811061033957fe5b6020908102919091010152600582818151811061035257fe5b60209081029190910101526102588260068151811061036d57fe5b60209081029190910101526006548067ffffffffffffffff8111801561039257600080fd5b506040519080825280602002602001820160405280156103cc57816020015b6103b961128c565b8152602001906001900390816103b15790505b5060045490925073ffffffffffffffffffffffffffffffffffffffff1660005b828110156104815760408051808201825273ffffffffffffffffffffffffffffffffffffffff84168082526000908152600560209081529290205491810191909152845185908390811061043c57fe5b60209081029190910181019190915273ffffffffffffffffffffffffffffffffffffffff928316600090815260059091526040902060019081015490921691016103ec565b5050509091565b600061049384610b20565b6104d2576040517f08c379a00000000000000000000000000000000000000000000000000000000081526004016104c990612299565b60405180910390fd5b6002546040517f2556d8d000000000000000000000000000000000000000000000000000000000815273ffffffffffffffffffffffffffffffffffffffff90911690632556d8d09061052c908790879087906004016122d0565b602060405180830381600087803b15801561054657600080fd5b505af115801561055a573d6000803e3d6000fd5b505050506040513d601f19601f8201168201806040525081019061057e91906119f8565b905061058b848285610d2c565b9392505050565b60608167ffffffffffffffff811180156105ab57600080fd5b506040519080825280602002602001820160405280156105e557816020015b6105d26112a3565b8152602001906001900390816105ca5790505b50905060005b8281101561064457610625856007600087878681811061060757fe5b90506020020135815260200190815260200160002060000154610c3a565b82828151811061063157fe5b60209081029190910101526001016105eb565b509392505050565b60015473ffffffffffffffffffffffffffffffffffffffff16331461069d576040517f08c379a00000000000000000000000000000000000000000000000000000000081526004016104c9906121ce565b73ffffffffffffffffffffffffffffffffffffffff821660009081526005602052604090206001015474010000000000000000000000000000000000000000900460ff16156107135773ffffffffffffffffffffffffffffffffffffffff821660009081526005602052604090208190556107eb565b600480546040805160608101825284815273ffffffffffffffffffffffffffffffffffffffff92831660208083019182526001838501818152898716600081815260059094529590922093518455915192820180549151151574010000000000000000000000000000000000000000027fffffffffffffffffffffff00ffffffffffffffffffffffffffffffffffffffff949096167fffffffffffffffffffffffff00000000000000000000000000000000000000009283161793909316949094179091558354909216179091556006805490910190555b5050565b60015473ffffffffffffffffffffffffffffffffffffffff163314610840576040517f08c379a00000000000000000000000000000000000000000000000000000000081526004016104c9906121ce565b60009182526008602052604090912080547fffffffffffffffffffffffffffffffffffffffffffffffffffffffffffffff0016911515919091179055565b606080600260009054906101000a900473ffffffffffffffffffffffffffffffffffffffff1673ffffffffffffffffffffffffffffffffffffffff16637cc1f8676040518163ffffffff1660e01b8152600401600060405180830381600087803b1580156108eb57600080fd5b505af11580156108ff573d6000803e3d6000fd5b505050506040513d6000823e601f3d9081017fffffffffffffffffffffffffffffffffffffffffffffffffffffffffffffffe01682016040526109459190810190611968565b905060028160008151811061095657fe5b6020908102919091010152623500008160018151811061097257fe5b602090810291909101015260025473ffffffffffffffffffffffffffffffffffffffff16816003815181106109a357fe5b6020908102919091010152600054816004815181106109be57fe5b6020908102919091010152600354816008815181106109d957fe5b6020908102919091010152905090565b6109f16112de565b6002546040517fee1f69eb00000000000000000000000000000000000000000000000000000000815273ffffffffffffffffffffffffffffffffffffffff9091169063ee1f69eb90610a47908690600401612182565b60006040518083038186803b158015610a5f57600080fd5b505afa158015610a73573d6000803e3d6000fd5b505050506040513d6000823e601f3d9081017fffffffffffffffffffffffffffffffffffffffffffffffffffffffffffffffe0168201604052610ab99190810190611a7a565b9050806020015164ffffffffff1660001415610ad157fe5b610ada81610b20565b610b10576040517f08c379a00000000000000000000000000000000000000000000000000000000081526004016104c990612299565b610b1b818484610d2c565b505050565b60015460009073ffffffffffffffffffffffffffffffffffffffff16331415610b4b5750600161027c565b60e082015173ffffffffffffffffffffffffffffffffffffffff16600090815260056020526040902054610b815750600061027c565b6064610bb883610160015160ff16610bb285610140015160ff1686610120015160ff16610ff490919063ffffffff16565b90610ff4565b11158015610bcf5750600a82610120015160ff1610155b8015610be45750600a82610140015160ff1610155b8015610bf95750600582610160015160ff1610155b8015610c25575060015461018083015173ffffffffffffffffffffffffffffffffffffffff9081169116145b15610c325750600161027c565b506000919050565b610c426112a3565b6002546040517fc70be14600000000000000000000000000000000000000000000000000000000815273ffffffffffffffffffffffffffffffffffffffff9091169063c70be14690610c9a9086908690600401612057565b60006040518083038186803b158015610cb257600080fd5b505afa158015610cc6573d6000803e3d6000fd5b505050506040513d6000823e601f3d9081017fffffffffffffffffffffffffffffffffffffffffffffffffffffffffffffffe0168201604052610d0c9190810190611b5e565b6000928352600860205260409092205460ff161515608083015250919050565b6000610d378461103c565b6000818152600760205260409020805491925090610f7d5760015460009073ffffffffffffffffffffffffffffffffffffffff163314610d7b574261025801610d7e565b60005b6040805160608101825287815261012089015160ff908116602080840191825264ffffffffff86811685870190815260008b81526007909352959091209351845590516001938401805495517fffffffffffffffffffffffffffffffffffffffffffffffffffffffffffffff0090961691909316177fffffffffffffffffffffffffffffffffffffffffffffffffffff0000000000ff16931661010002929092179091555490915073ffffffffffffffffffffffffffffffffffffffff16331415610e7c57600085815260086020526040902080547fffffffffffffffffffffffffffffffffffffffffffffffffffffffffffffff00168515151790555b6000866080015160080260ff1687610100015160ff166001901b901b9050806003541660001415610eb05760038054821790555b606087015160009060041615610ecc5750610100870151610edc565b610ed98860200151611120565b90505b876080015160ff1688610100015160ff168260ff166008610eff8560ff166111db565b65ffffffffffff168c6020015164ffffffffff1681610f1a57fe5b0465ffffffffffff16901b0165ffffffffffff167f3d4b4c0dc42d96da48d02a2693392bfa4fdbfb0bec570e48f5186f9f75fe8ecb888c60200151888e60000151604051610f6b949392919061218b565b60405180910390a45050505050610b1b565b600181015461012086015160ff9182169116118015610fab57506001810154610100900464ffffffffff1642105b15610fed578381556101208501516001820180547fffffffffffffffffffffffffffffffffffffffffffffffffffffffffffffff001660ff9092169190911790555b5050505050565b600082820183811015611033576040517f08c379a00000000000000000000000000000000000000000000000000000000081526004016104c990612262565b90505b92915050565b600060608260000151604051602001611055919061203b565b6040516020818303038152906040528051906020012083602001518460400151856060015186608001518760a001518860c001518961010001518a60e001516040516020016110ac99989796959493929190611f1f565b604080518083037fffffffffffffffffffffffffffffffffffffffffffffffffffffffffffffffe00181529190526060840151909150600116611112576101c0830151604051611100918391602001611ff1565b60405160208183030381529060405290505b805160209091012092915050565b6000808061113564ffffffffff851642611209565b90506303c267008110611174576040517f08c379a00000000000000000000000000000000000000000000000000000000081526004016104c99061222b565b623b53808111156111895760015b91506111d4565b620a8c0081111561119b576003611182565b6201fa408111156111ad576004611182565b611c208111156111be576005611182565b6103848111156111cf576006611182565b600791505b5092915050565b600060606040518060600160405280602a8152602001612484602a9139600184016006020151915050919050565b600061103383836040518060400160405280601e81526020017f536166654d6174683a207375627472616374696f6e206f766572666c6f77000081525060008184841115611284576040517f08c379a00000000000000000000000000000000000000000000000000000000081526004016104c991906121bb565b505050900390565b604080518082019091526000808252602082015290565b6040518060a001604052806112b66112de565b81526020016112c361135c565b81526000602082018190526040820181905260609091015290565b604080516101e08101825260608082526000602083018190529282018390528082018390526080820183905260a0820183905260c0820183905260e08201839052610100820183905261012082018390526101408201839052610160820183905261018082018390526101a08201929092526101c081019190915290565b604080516060810182526000808252602082018190529181019190915290565b8035611036816123ff565b8051611036816123ff565b600082601f8301126113a2578081fd5b81356113b56113b08261236d565b612346565b8181529150602080830190848101818402860182018710156113d657600080fd5b60005b848110156113fe5781356113ec81612432565b845292820192908201906001016113d9565b505050505092915050565b600082601f830112611419578081fd5b81516114276113b08261236d565b81815291506020808301908481018184028601820187101561144857600080fd5b60005b848110156113fe57815161145e81612432565b8452928201929082019060010161144b565b805161103681612424565b80516003811061103657600080fd5b803561103681612441565b805161103681612441565b600082601f8301126114b0578081fd5b81356114be6113b08261238d565b91508082528360208285010111156114d557600080fd5b8060208401602084013760009082016020015292915050565b600082601f8301126114fe578081fd5b815161150c6113b08261238d565b915080825283602082850101111561152357600080fd5b6111d48160208401602086016123cf565b60006101e0808385031215611547578182fd5b61155081612346565b915050813567ffffffffffffffff8082111561156b57600080fd5b611577858386016114a0565b8352611586856020860161188f565b60208401526115988560408601611879565b60408401526115aa85606086016118a5565b60608401526115bc85608086016118a5565b60808401526115ce8560a086016118a5565b60a08401526115e08560c0860161148a565b60c08401526115f28560e0860161137c565b60e08401526101009150611608858386016118a5565b82840152610120915061161d858386016118a5565b828401526101409150611632858386016118a5565b828401526101609150611647858386016118a5565b82840152610180915061165c8583860161137c565b828401526101a091506116718583860161137c565b828401526101c09150818401358181111561168b57600080fd5b61169786828701611392565b8385015250505092915050565b60006101e08083850312156116b7578182fd5b6116c081612346565b915050815167ffffffffffffffff808211156116db57600080fd5b6116e7858386016114ee565b83526116f6856020860161189a565b60208401526117088560408601611884565b604084015261171a85606086016118b0565b606084015261172c85608086016118b0565b608084015261173e8560a086016118b0565b60a08401526117508560c08601611495565b60c08401526117628560e08601611387565b60e08401526101009150611778858386016118b0565b82840152610120915061178d858386016118b0565b8284015261014091506117a2858386016118b0565b8284015261016091506117b7858386016118b0565b8284015261018091506117cc85838601611387565b828401526101a091506117e185838601611387565b828401526101c0915081840151818111156117fb57600080fd5b61169786828701611409565b600060608284031215611818578081fd5b6118226060612346565b905081516fffffffffffffffffffffffffffffffff8116811461184457600080fd5b8152602082015161ffff8116811461185b57600080fd5b6020820152604082015161186e81612424565b604082015292915050565b803561103681612450565b805161103681612450565b803561103681612461565b805161103681612461565b803561103681612474565b805161103681612474565b6000806000604084860312156118cf578283fd5b83356118da816123ff565b9250602084013567ffffffffffffffff808211156118f6578384fd5b818601915086601f830112611909578384fd5b813581811115611917578485fd5b876020808302850101111561192a578485fd5b6020830194508093505050509250925092565b6000806040838503121561194f578182fd5b823561195a816123ff565b946020939093013593505050565b6000602080838503121561197a578182fd5b825167ffffffffffffffff811115611990578283fd5b8301601f810185136119a0578283fd5b80516119ae6113b08261236d565b81815283810190838501858402850186018910156119ca578687fd5b8694505b838510156119ec5780518352600194909401939185019185016119ce565b50979650505050505050565b600060208284031215611a09578081fd5b5051919050565b60008060408385031215611a22578182fd5b823591506020830135611a3481612424565b809150509250929050565b600060208284031215611a50578081fd5b813567ffffffffffffffff811115611a66578182fd5b611a7284828501611534565b949350505050565b600060208284031215611a8b578081fd5b815167ffffffffffffffff811115611aa1578182fd5b611a72848285016116a4565b600080600083850360a0811215611ac2578182fd5b843567ffffffffffffffff811115611ad8578283fd5b611ae487828801611534565b9450506020850135611af581612424565b925060607fffffffffffffffffffffffffffffffffffffffffffffffffffffffffffffffc082011215611b26578182fd5b50611b316060612346565b6040850135611b3f81612474565b8152606085013560208201526080909401356040850152509093909250565b600060208284031215611b6f578081fd5b815167ffffffffffffffff80821115611b86578283fd5b9083019060e08286031215611b99578283fd5b611ba360a0612346565b825182811115611bb1578485fd5b611bbd878286016116a4565b825250611bcd8660208501611807565b602082015260808301516040820152611be98660a0850161147b565b6060820152611bfb8660c08501611470565b608082015295945050505050565b600060208284031215611c1a578081fd5b813561103381612461565b600060208284031215611c36578081fd5b815161103381612474565b73ffffffffffffffffffffffffffffffffffffffff169052565b60601b7fffffffffffffffffffffffffffffffffffffffff000000000000000000000000169052565b6000815180845260208085019450808401835b83811015611cb6578151600f0b87529582019590820190600101611c97565b509495945050505050565b6000815180845260208085019450808401835b83811015611cb657815187529582019590820190600101611cd4565b60000b9052565b60008151808452611d0f8160208601602086016123cf565b601f017fffffffffffffffffffffffffffffffffffffffffffffffffffffffffffffffe0169290920160200192915050565b60006101e08251818552611d5782860182611cf7565b9150506020830151611d6c6020860182611f0d565b506040830151611d7f6040860182611f04565b506060830151611d926060860182611f18565b506080830151611da56080860182611f18565b5060a0830151611db860a0860182611f18565b5060c0830151611dcb60c0860182611cf0565b5060e0830151611dde60e0860182611c41565b5061010080840151611df282870182611f18565b505061012080840151611e0782870182611f18565b505061014080840151611e1c82870182611f18565b505061016080840151611e3182870182611f18565b505061018080840151611e4682870182611c41565b50506101a080840151611e5b82870182611c41565b50506101c08084015185830382870152611e758382611c84565b9695505050505050565b6000815160e08452611e9460e0850182611d41565b905060208301516fffffffffffffffffffffffffffffffff815116602086015261ffff60208201511660408601526040810151151560608601525060408301516080850152606083015160038110611ee857fe5b60a085015260809290920151151560c090930192909252919050565b62ffffff169052565b64ffffffffff169052565b60ff169052565b60008a82527fffffffffff0000000000000000000000000000000000000000000000000000008a60d81b1660208301527fffffff00000000000000000000000000000000000000000000000000000000008960e81b1660258301527fff00000000000000000000000000000000000000000000000000000000000000808960f81b166028840152808860f81b166029840152808760f81b16602a84015285820b60f81b602b840152808560f81b16602c84015250611fe0602d830184611c5b565b506041019998505050505050505050565b60008351602061200482858389016123cf565b845191840191818601845b8281101561202e578151600f0b8552938301939083019060010161200f565b5092979650505050505050565b6000825161204d8184602087016123cf565b9190910192915050565b73ffffffffffffffffffffffffffffffffffffffff929092168252602082015260400190565b6000602080830181845280855180835260408601915060408482028701019250838701855b8281101561202e577fffffffffffffffffffffffffffffffffffffffffffffffffffffffffffffffc08886030184526120dc858351611e7f565b945092850192908501906001016120a2565b6000602082526110336020830184611cc1565b6000604080835261211481840186611cc1565b838103602085810191909152855180835286820192820190855b81811015612169578451805173ffffffffffffffffffffffffffffffffffffffff16845284015184840152938301939185019160010161212e565b509098975050505050505050565b901515815260200190565b90815260200190565b600085825264ffffffffff808616602084015280851660408401525060806060830152611e756080830184611cf7565b6000602082526110336020830184611cf7565b60208082526022908201527f4f6e6c79206f776e65722063616e2063616c6c20746869732066756e6374696f60408201527f6e2e000000000000000000000000000000000000000000000000000000000000606082015260800190565b60208082526015908201527f746f6f2066617220696e20746865206675747572650000000000000000000000604082015260600190565b6020808252601b908201527f536166654d6174683a206164646974696f6e206f766572666c6f770000000000604082015260600190565b60208082526015908201527f7265676973746572206e6f7420706f737369626c650000000000000000000000604082015260600190565b600060a082526122e360a0830186611d41565b9050831515602083015260ff83511660408301526020830151606083015260408301516080830152949350505050565b6000602082526110336020830184611e7f565b64ffffffffff91909116815260200190565b60ff91909116815260200190565b60405181810167ffffffffffffffff8111828210171561236557600080fd5b604052919050565b600067ffffffffffffffff821115612383578081fd5b5060209081020190565b600067ffffffffffffffff8211156123a3578081fd5b50601f017fffffffffffffffffffffffffffffffffffffffffffffffffffffffffffffffe01660200190565b60005b838110156123ea5781810151838201526020016123d2565b838111156123f9576000848401525b50505050565b73ffffffffffffffffffffffffffffffffffffffff8116811461242157600080fd5b50565b801515811461242157600080fd5b80600f0b811461242157600080fd5b8060000b811461242157600080fd5b62ffffff8116811461242157600080fd5b64ffffffffff8116811461242157600080fd5b60ff8116811461242157600080fdfe000000000000000000fa7d000000003b53800000000a8c0000000001fa40000000001c20000000000000a26469706673582212208c43e1883484b3c4702f55c2d8498715a6ee047125d668e611354d1815f763f564736f6c63430007000033",
				"opcodes": "PUSH1 0x80 PUSH1 0x40 MSTORE PUSH1 0x0 PUSH1 0x6 SSTORE CALLVALUE DUP1 ISZERO PUSH2 0x15 JUMPI PUSH1 0x0 DUP1 REVERT JUMPDEST POP PUSH1 0x40 MLOAD PUSH3 0x258E CODESIZE SUB DUP1 PUSH3 0x258E DUP4 CODECOPY DUP2 ADD PUSH1 0x40 DUP2 SWAP1 MSTORE PUSH2 0x36 SWAP2 PUSH2 0x6D JUMP JUMPDEST PUSH1 0x1 DUP1 SLOAD CALLER PUSH1 0x1 PUSH1 0x1 PUSH1 0xA0 SHL SUB NOT SWAP2 DUP3 AND OR SWAP1 SWAP2 SSTORE NUMBER PUSH1 0x0 SSTORE PUSH1 0x2 DUP1 SLOAD SWAP1 SWAP2 AND PUSH1 0x1 PUSH1 0x1 PUSH1 0xA0 SHL SUB SWAP3 SWAP1 SWAP3 AND SWAP2 SWAP1 SWAP2 OR SWAP1 SSTORE PUSH2 0x9B JUMP JUMPDEST PUSH1 0x0 PUSH1 0x20 DUP3 DUP5 SUB SLT ISZERO PUSH2 0x7E JUMPI DUP1 DUP2 REVERT JUMPDEST DUP2 MLOAD PUSH1 0x1 PUSH1 0x1 PUSH1 0xA0 SHL SUB DUP2 AND DUP2 EQ PUSH2 0x94 JUMPI DUP2 DUP3 REVERT JUMPDEST SWAP4 SWAP3 POP POP POP JUMP JUMPDEST PUSH2 0x24E3 DUP1 PUSH3 0xAB PUSH1 0x0 CODECOPY PUSH1 0x0 RETURN INVALID PUSH1 0x80 PUSH1 0x40 MSTORE CALLVALUE DUP1 ISZERO PUSH2 0x10 JUMPI PUSH1 0x0 DUP1 REVERT JUMPDEST POP PUSH1 0x4 CALLDATASIZE LT PUSH2 0xBE JUMPI PUSH1 0x0 CALLDATALOAD PUSH1 0xE0 SHR DUP1 PUSH4 0x711C2B94 GT PUSH2 0x76 JUMPI DUP1 PUSH4 0x8677E7B9 GT PUSH2 0x5B JUMPI DUP1 PUSH4 0x8677E7B9 EQ PUSH2 0x17F JUMPI DUP1 PUSH4 0xB3889BB3 EQ PUSH2 0x192 JUMPI DUP1 PUSH4 0xC70BE146 EQ PUSH2 0x1B2 JUMPI PUSH2 0xBE JUMP JUMPDEST DUP1 PUSH4 0x711C2B94 EQ PUSH2 0x157 JUMPI DUP1 PUSH4 0x7CC1F867 EQ PUSH2 0x16A JUMPI PUSH2 0xBE JUMP JUMPDEST DUP1 PUSH4 0x2556D8D0 GT PUSH2 0xA7 JUMPI DUP1 PUSH4 0x2556D8D0 EQ PUSH2 0x102 JUMPI DUP1 PUSH4 0x52D02688 EQ PUSH2 0x122 JUMPI DUP1 PUSH4 0x65E47B8C EQ PUSH2 0x142 JUMPI PUSH2 0xBE JUMP JUMPDEST DUP1 PUSH4 0x95200CE EQ PUSH2 0xC3 JUMPI DUP1 PUSH4 0xF8F8244 EQ PUSH2 0xEC JUMPI JUMPDEST PUSH1 0x0 DUP1 REVERT JUMPDEST PUSH2 0xD6 PUSH2 0xD1 CALLDATASIZE PUSH1 0x4 PUSH2 0x1C09 JUMP JUMPDEST PUSH2 0x1D2 JUMP JUMPDEST PUSH1 0x40 MLOAD PUSH2 0xE3 SWAP2 SWAP1 PUSH2 0x2338 JUMP JUMPDEST PUSH1 0x40 MLOAD DUP1 SWAP2 SUB SWAP1 RETURN JUMPDEST PUSH2 0xF4 PUSH2 0x281 JUMP JUMPDEST PUSH1 0x40 MLOAD PUSH2 0xE3 SWAP3 SWAP2 SWAP1 PUSH2 0x2101 JUMP JUMPDEST PUSH2 0x115 PUSH2 0x110 CALLDATASIZE PUSH1 0x4 PUSH2 0x1AAD JUMP JUMPDEST PUSH2 0x488 JUMP JUMPDEST PUSH1 0x40 MLOAD PUSH2 0xE3 SWAP2 SWAP1 PUSH2 0x2182 JUMP JUMPDEST PUSH2 0x135 PUSH2 0x130 CALLDATASIZE PUSH1 0x4 PUSH2 0x18BB JUMP JUMPDEST PUSH2 0x592 JUMP JUMPDEST PUSH1 0x40 MLOAD PUSH2 0xE3 SWAP2 SWAP1 PUSH2 0x207D JUMP JUMPDEST PUSH2 0x155 PUSH2 0x150 CALLDATASIZE PUSH1 0x4 PUSH2 0x193D JUMP JUMPDEST PUSH2 0x64C JUMP JUMPDEST STOP JUMPDEST PUSH2 0x155 PUSH2 0x165 CALLDATASIZE PUSH1 0x4 PUSH2 0x1A10 JUMP JUMPDEST PUSH2 0x7EF JUMP JUMPDEST PUSH2 0x172 PUSH2 0x87E JUMP JUMPDEST PUSH1 0x40 MLOAD PUSH2 0xE3 SWAP2 SWAP1 PUSH2 0x20EE JUMP JUMPDEST PUSH2 0x155 PUSH2 0x18D CALLDATASIZE PUSH1 0x4 PUSH2 0x1A10 JUMP JUMPDEST PUSH2 0x9E9 JUMP JUMPDEST PUSH2 0x1A5 PUSH2 0x1A0 CALLDATASIZE PUSH1 0x4 PUSH2 0x1A3F JUMP JUMPDEST PUSH2 0xB20 JUMP JUMPDEST PUSH1 0x40 MLOAD PUSH2 0xE3 SWAP2 SWAP1 PUSH2 0x2177 JUMP JUMPDEST PUSH2 0x1C5 PUSH2 0x1C0 CALLDATASIZE PUSH1 0x4 PUSH2 0x193D JUMP JUMPDEST PUSH2 0xC3A JUMP JUMPDEST PUSH1 0x40 MLOAD PUSH2 0xE3 SWAP2 SWAP1 PUSH2 0x2313 JUMP JUMPDEST PUSH1 0x2 SLOAD PUSH1 0x40 MLOAD PUSH32 0x95200CE00000000000000000000000000000000000000000000000000000000 DUP2 MSTORE PUSH1 0x0 SWAP2 PUSH20 0xFFFFFFFFFFFFFFFFFFFFFFFFFFFFFFFFFFFFFFFF AND SWAP1 PUSH4 0x95200CE SWAP1 PUSH2 0x229 SWAP1 DUP6 SWAP1 PUSH1 0x4 ADD PUSH2 0x2326 JUMP JUMPDEST PUSH1 0x20 PUSH1 0x40 MLOAD DUP1 DUP4 SUB DUP2 DUP7 DUP1 EXTCODESIZE ISZERO DUP1 ISZERO PUSH2 0x241 JUMPI PUSH1 0x0 DUP1 REVERT JUMPDEST POP GAS STATICCALL ISZERO DUP1 ISZERO PUSH2 0x255 JUMPI RETURNDATASIZE PUSH1 0x0 DUP1 RETURNDATACOPY RETURNDATASIZE PUSH1 0x0 REVERT JUMPDEST POP POP POP POP PUSH1 0x40 MLOAD RETURNDATASIZE PUSH1 0x1F NOT PUSH1 0x1F DUP3 ADD AND DUP3 ADD DUP1 PUSH1 0x40 MSTORE POP DUP2 ADD SWAP1 PUSH2 0x279 SWAP2 SWAP1 PUSH2 0x1C25 JUMP JUMPDEST SWAP1 POP JUMPDEST SWAP2 SWAP1 POP JUMP JUMPDEST PUSH1 0x40 DUP1 MLOAD PUSH1 0x7 DUP1 DUP3 MSTORE PUSH2 0x100 DUP3 ADD SWAP1 SWAP3 MSTORE PUSH1 0x60 SWAP2 DUP3 SWAP2 SWAP1 PUSH1 0x20 DUP3 ADD PUSH1 0xE0 DUP1 CALLDATASIZE DUP4 CALLDATACOPY ADD SWAP1 POP POP SWAP2 POP PUSH3 0x350000 DUP3 PUSH1 0x0 DUP2 MLOAD DUP2 LT PUSH2 0x2B9 JUMPI INVALID JUMPDEST PUSH1 0x20 SWAP1 DUP2 MUL SWAP2 SWAP1 SWAP2 ADD ADD MSTORE PUSH1 0x1 DUP1 SLOAD PUSH20 0xFFFFFFFFFFFFFFFFFFFFFFFFFFFFFFFFFFFFFFFF AND SWAP1 DUP4 SWAP1 DUP2 MLOAD DUP2 LT PUSH2 0x2EB JUMPI INVALID JUMPDEST PUSH1 0x20 SWAP1 DUP2 MUL SWAP2 SWAP1 SWAP2 ADD ADD MSTORE PUSH1 0x64 DUP3 PUSH1 0x2 DUP2 MLOAD DUP2 LT PUSH2 0x305 JUMPI INVALID JUMPDEST PUSH1 0x20 SWAP1 DUP2 MUL SWAP2 SWAP1 SWAP2 ADD ADD MSTORE PUSH1 0xA DUP3 PUSH1 0x3 DUP2 MLOAD DUP2 LT PUSH2 0x31F JUMPI INVALID JUMPDEST PUSH1 0x20 SWAP1 DUP2 MUL SWAP2 SWAP1 SWAP2 ADD ADD MSTORE PUSH1 0xA DUP3 PUSH1 0x4 DUP2 MLOAD DUP2 LT PUSH2 0x339 JUMPI INVALID JUMPDEST PUSH1 0x20 SWAP1 DUP2 MUL SWAP2 SWAP1 SWAP2 ADD ADD MSTORE PUSH1 0x5 DUP3 DUP2 DUP2 MLOAD DUP2 LT PUSH2 0x352 JUMPI INVALID JUMPDEST PUSH1 0x20 SWAP1 DUP2 MUL SWAP2 SWAP1 SWAP2 ADD ADD MSTORE PUSH2 0x258 DUP3 PUSH1 0x6 DUP2 MLOAD DUP2 LT PUSH2 0x36D JUMPI INVALID JUMPDEST PUSH1 0x20 SWAP1 DUP2 MUL SWAP2 SWAP1 SWAP2 ADD ADD MSTORE PUSH1 0x6 SLOAD DUP1 PUSH8 0xFFFFFFFFFFFFFFFF DUP2 GT DUP1 ISZERO PUSH2 0x392 JUMPI PUSH1 0x0 DUP1 REVERT JUMPDEST POP PUSH1 0x40 MLOAD SWAP1 DUP1 DUP3 MSTORE DUP1 PUSH1 0x20 MUL PUSH1 0x20 ADD DUP3 ADD PUSH1 0x40 MSTORE DUP1 ISZERO PUSH2 0x3CC JUMPI DUP2 PUSH1 0x20 ADD JUMPDEST PUSH2 0x3B9 PUSH2 0x128C JUMP JUMPDEST DUP2 MSTORE PUSH1 0x20 ADD SWAP1 PUSH1 0x1 SWAP1 SUB SWAP1 DUP2 PUSH2 0x3B1 JUMPI SWAP1 POP JUMPDEST POP PUSH1 0x4 SLOAD SWAP1 SWAP3 POP PUSH20 0xFFFFFFFFFFFFFFFFFFFFFFFFFFFFFFFFFFFFFFFF AND PUSH1 0x0 JUMPDEST DUP3 DUP2 LT ISZERO PUSH2 0x481 JUMPI PUSH1 0x40 DUP1 MLOAD DUP1 DUP3 ADD DUP3 MSTORE PUSH20 0xFFFFFFFFFFFFFFFFFFFFFFFFFFFFFFFFFFFFFFFF DUP5 AND DUP1 DUP3 MSTORE PUSH1 0x0 SWAP1 DUP2 MSTORE PUSH1 0x5 PUSH1 0x20 SWAP1 DUP2 MSTORE SWAP3 SWAP1 KECCAK256 SLOAD SWAP2 DUP2 ADD SWAP2 SWAP1 SWAP2 MSTORE DUP5 MLOAD DUP6 SWAP1 DUP4 SWAP1 DUP2 LT PUSH2 0x43C JUMPI INVALID JUMPDEST PUSH1 0x20 SWAP1 DUP2 MUL SWAP2 SWAP1 SWAP2 ADD DUP2 ADD SWAP2 SWAP1 SWAP2 MSTORE PUSH20 0xFFFFFFFFFFFFFFFFFFFFFFFFFFFFFFFFFFFFFFFF SWAP3 DUP4 AND PUSH1 0x0 SWAP1 DUP2 MSTORE PUSH1 0x5 SWAP1 SWAP2 MSTORE PUSH1 0x40 SWAP1 KECCAK256 PUSH1 0x1 SWAP1 DUP2 ADD SLOAD SWAP1 SWAP3 AND SWAP2 ADD PUSH2 0x3EC JUMP JUMPDEST POP POP POP SWAP1 SWAP2 JUMP JUMPDEST PUSH1 0x0 PUSH2 0x493 DUP5 PUSH2 0xB20 JUMP JUMPDEST PUSH2 0x4D2 JUMPI PUSH1 0x40 MLOAD PUSH32 0x8C379A000000000000000000000000000000000000000000000000000000000 DUP2 MSTORE PUSH1 0x4 ADD PUSH2 0x4C9 SWAP1 PUSH2 0x2299 JUMP JUMPDEST PUSH1 0x40 MLOAD DUP1 SWAP2 SUB SWAP1 REVERT JUMPDEST PUSH1 0x2 SLOAD PUSH1 0x40 MLOAD PUSH32 0x2556D8D000000000000000000000000000000000000000000000000000000000 DUP2 MSTORE PUSH20 0xFFFFFFFFFFFFFFFFFFFFFFFFFFFFFFFFFFFFFFFF SWAP1 SWAP2 AND SWAP1 PUSH4 0x2556D8D0 SWAP1 PUSH2 0x52C SWAP1 DUP8 SWAP1 DUP8 SWAP1 DUP8 SWAP1 PUSH1 0x4 ADD PUSH2 0x22D0 JUMP JUMPDEST PUSH1 0x20 PUSH1 0x40 MLOAD DUP1 DUP4 SUB DUP2 PUSH1 0x0 DUP8 DUP1 EXTCODESIZE ISZERO DUP1 ISZERO PUSH2 0x546 JUMPI PUSH1 0x0 DUP1 REVERT JUMPDEST POP GAS CALL ISZERO DUP1 ISZERO PUSH2 0x55A JUMPI RETURNDATASIZE PUSH1 0x0 DUP1 RETURNDATACOPY RETURNDATASIZE PUSH1 0x0 REVERT JUMPDEST POP POP POP POP PUSH1 0x40 MLOAD RETURNDATASIZE PUSH1 0x1F NOT PUSH1 0x1F DUP3 ADD AND DUP3 ADD DUP1 PUSH1 0x40 MSTORE POP DUP2 ADD SWAP1 PUSH2 0x57E SWAP2 SWAP1 PUSH2 0x19F8 JUMP JUMPDEST SWAP1 POP PUSH2 0x58B DUP5 DUP3 DUP6 PUSH2 0xD2C JUMP JUMPDEST SWAP4 SWAP3 POP POP POP JUMP JUMPDEST PUSH1 0x60 DUP2 PUSH8 0xFFFFFFFFFFFFFFFF DUP2 GT DUP1 ISZERO PUSH2 0x5AB JUMPI PUSH1 0x0 DUP1 REVERT JUMPDEST POP PUSH1 0x40 MLOAD SWAP1 DUP1 DUP3 MSTORE DUP1 PUSH1 0x20 MUL PUSH1 0x20 ADD DUP3 ADD PUSH1 0x40 MSTORE DUP1 ISZERO PUSH2 0x5E5 JUMPI DUP2 PUSH1 0x20 ADD JUMPDEST PUSH2 0x5D2 PUSH2 0x12A3 JUMP JUMPDEST DUP2 MSTORE PUSH1 0x20 ADD SWAP1 PUSH1 0x1 SWAP1 SUB SWAP1 DUP2 PUSH2 0x5CA JUMPI SWAP1 POP JUMPDEST POP SWAP1 POP PUSH1 0x0 JUMPDEST DUP3 DUP2 LT ISZERO PUSH2 0x644 JUMPI PUSH2 0x625 DUP6 PUSH1 0x7 PUSH1 0x0 DUP8 DUP8 DUP7 DUP2 DUP2 LT PUSH2 0x607 JUMPI INVALID JUMPDEST SWAP1 POP PUSH1 0x20 MUL ADD CALLDATALOAD DUP2 MSTORE PUSH1 0x20 ADD SWAP1 DUP2 MSTORE PUSH1 0x20 ADD PUSH1 0x0 KECCAK256 PUSH1 0x0 ADD SLOAD PUSH2 0xC3A JUMP JUMPDEST DUP3 DUP3 DUP2 MLOAD DUP2 LT PUSH2 0x631 JUMPI INVALID JUMPDEST PUSH1 0x20 SWAP1 DUP2 MUL SWAP2 SWAP1 SWAP2 ADD ADD MSTORE PUSH1 0x1 ADD PUSH2 0x5EB JUMP JUMPDEST POP SWAP4 SWAP3 POP POP POP JUMP JUMPDEST PUSH1 0x1 SLOAD PUSH20 0xFFFFFFFFFFFFFFFFFFFFFFFFFFFFFFFFFFFFFFFF AND CALLER EQ PUSH2 0x69D JUMPI PUSH1 0x40 MLOAD PUSH32 0x8C379A000000000000000000000000000000000000000000000000000000000 DUP2 MSTORE PUSH1 0x4 ADD PUSH2 0x4C9 SWAP1 PUSH2 0x21CE JUMP JUMPDEST PUSH20 0xFFFFFFFFFFFFFFFFFFFFFFFFFFFFFFFFFFFFFFFF DUP3 AND PUSH1 0x0 SWAP1 DUP2 MSTORE PUSH1 0x5 PUSH1 0x20 MSTORE PUSH1 0x40 SWAP1 KECCAK256 PUSH1 0x1 ADD SLOAD PUSH21 0x10000000000000000000000000000000000000000 SWAP1 DIV PUSH1 0xFF AND ISZERO PUSH2 0x713 JUMPI PUSH20 0xFFFFFFFFFFFFFFFFFFFFFFFFFFFFFFFFFFFFFFFF DUP3 AND PUSH1 0x0 SWAP1 DUP2 MSTORE PUSH1 0x5 PUSH1 0x20 MSTORE PUSH1 0x40 SWAP1 KECCAK256 DUP2 SWAP1 SSTORE PUSH2 0x7EB JUMP JUMPDEST PUSH1 0x4 DUP1 SLOAD PUSH1 0x40 DUP1 MLOAD PUSH1 0x60 DUP2 ADD DUP3 MSTORE DUP5 DUP2 MSTORE PUSH20 0xFFFFFFFFFFFFFFFFFFFFFFFFFFFFFFFFFFFFFFFF SWAP3 DUP4 AND PUSH1 0x20 DUP1 DUP4 ADD SWAP2 DUP3 MSTORE PUSH1 0x1 DUP4 DUP6 ADD DUP2 DUP2 MSTORE DUP10 DUP8 AND PUSH1 0x0 DUP2 DUP2 MSTORE PUSH1 0x5 SWAP1 SWAP5 MSTORE SWAP6 SWAP1 SWAP3 KECCAK256 SWAP4 MLOAD DUP5 SSTORE SWAP2 MLOAD SWAP3 DUP3 ADD DUP1 SLOAD SWAP2 MLOAD ISZERO ISZERO PUSH21 0x10000000000000000000000000000000000000000 MUL PUSH32 0xFFFFFFFFFFFFFFFFFFFFFF00FFFFFFFFFFFFFFFFFFFFFFFFFFFFFFFFFFFFFFFF SWAP5 SWAP1 SWAP7 AND PUSH32 0xFFFFFFFFFFFFFFFFFFFFFFFF0000000000000000000000000000000000000000 SWAP3 DUP4 AND OR SWAP4 SWAP1 SWAP4 AND SWAP5 SWAP1 SWAP5 OR SWAP1 SWAP2 SSTORE DUP4 SLOAD SWAP1 SWAP3 AND OR SWAP1 SWAP2 SSTORE PUSH1 0x6 DUP1 SLOAD SWAP1 SWAP2 ADD SWAP1 SSTORE JUMPDEST POP POP JUMP JUMPDEST PUSH1 0x1 SLOAD PUSH20 0xFFFFFFFFFFFFFFFFFFFFFFFFFFFFFFFFFFFFFFFF AND CALLER EQ PUSH2 0x840 JUMPI PUSH1 0x40 MLOAD PUSH32 0x8C379A000000000000000000000000000000000000000000000000000000000 DUP2 MSTORE PUSH1 0x4 ADD PUSH2 0x4C9 SWAP1 PUSH2 0x21CE JUMP JUMPDEST PUSH1 0x0 SWAP2 DUP3 MSTORE PUSH1 0x8 PUSH1 0x20 MSTORE PUSH1 0x40 SWAP1 SWAP2 KECCAK256 DUP1 SLOAD PUSH32 0xFFFFFFFFFFFFFFFFFFFFFFFFFFFFFFFFFFFFFFFFFFFFFFFFFFFFFFFFFFFFFF00 AND SWAP2 ISZERO ISZERO SWAP2 SWAP1 SWAP2 OR SWAP1 SSTORE JUMP JUMPDEST PUSH1 0x60 DUP1 PUSH1 0x2 PUSH1 0x0 SWAP1 SLOAD SWAP1 PUSH2 0x100 EXP SWAP1 DIV PUSH20 0xFFFFFFFFFFFFFFFFFFFFFFFFFFFFFFFFFFFFFFFF AND PUSH20 0xFFFFFFFFFFFFFFFFFFFFFFFFFFFFFFFFFFFFFFFF AND PUSH4 0x7CC1F867 PUSH1 0x40 MLOAD DUP2 PUSH4 0xFFFFFFFF AND PUSH1 0xE0 SHL DUP2 MSTORE PUSH1 0x4 ADD PUSH1 0x0 PUSH1 0x40 MLOAD DUP1 DUP4 SUB DUP2 PUSH1 0x0 DUP8 DUP1 EXTCODESIZE ISZERO DUP1 ISZERO PUSH2 0x8EB JUMPI PUSH1 0x0 DUP1 REVERT JUMPDEST POP GAS CALL ISZERO DUP1 ISZERO PUSH2 0x8FF JUMPI RETURNDATASIZE PUSH1 0x0 DUP1 RETURNDATACOPY RETURNDATASIZE PUSH1 0x0 REVERT JUMPDEST POP POP POP POP PUSH1 0x40 MLOAD RETURNDATASIZE PUSH1 0x0 DUP3 RETURNDATACOPY PUSH1 0x1F RETURNDATASIZE SWAP1 DUP2 ADD PUSH32 0xFFFFFFFFFFFFFFFFFFFFFFFFFFFFFFFFFFFFFFFFFFFFFFFFFFFFFFFFFFFFFFE0 AND DUP3 ADD PUSH1 0x40 MSTORE PUSH2 0x945 SWAP2 SWAP1 DUP2 ADD SWAP1 PUSH2 0x1968 JUMP JUMPDEST SWAP1 POP PUSH1 0x2 DUP2 PUSH1 0x0 DUP2 MLOAD DUP2 LT PUSH2 0x956 JUMPI INVALID JUMPDEST PUSH1 0x20 SWAP1 DUP2 MUL SWAP2 SWAP1 SWAP2 ADD ADD MSTORE PUSH3 0x350000 DUP2 PUSH1 0x1 DUP2 MLOAD DUP2 LT PUSH2 0x972 JUMPI INVALID JUMPDEST PUSH1 0x20 SWAP1 DUP2 MUL SWAP2 SWAP1 SWAP2 ADD ADD MSTORE PUSH1 0x2 SLOAD PUSH20 0xFFFFFFFFFFFFFFFFFFFFFFFFFFFFFFFFFFFFFFFF AND DUP2 PUSH1 0x3 DUP2 MLOAD DUP2 LT PUSH2 0x9A3 JUMPI INVALID JUMPDEST PUSH1 0x20 SWAP1 DUP2 MUL SWAP2 SWAP1 SWAP2 ADD ADD MSTORE PUSH1 0x0 SLOAD DUP2 PUSH1 0x4 DUP2 MLOAD DUP2 LT PUSH2 0x9BE JUMPI INVALID JUMPDEST PUSH1 0x20 SWAP1 DUP2 MUL SWAP2 SWAP1 SWAP2 ADD ADD MSTORE PUSH1 0x3 SLOAD DUP2 PUSH1 0x8 DUP2 MLOAD DUP2 LT PUSH2 0x9D9 JUMPI INVALID JUMPDEST PUSH1 0x20 SWAP1 DUP2 MUL SWAP2 SWAP1 SWAP2 ADD ADD MSTORE SWAP1 POP SWAP1 JUMP JUMPDEST PUSH2 0x9F1 PUSH2 0x12DE JUMP JUMPDEST PUSH1 0x2 SLOAD PUSH1 0x40 MLOAD PUSH32 0xEE1F69EB00000000000000000000000000000000000000000000000000000000 DUP2 MSTORE PUSH20 0xFFFFFFFFFFFFFFFFFFFFFFFFFFFFFFFFFFFFFFFF SWAP1 SWAP2 AND SWAP1 PUSH4 0xEE1F69EB SWAP1 PUSH2 0xA47 SWAP1 DUP7 SWAP1 PUSH1 0x4 ADD PUSH2 0x2182 JUMP JUMPDEST PUSH1 0x0 PUSH1 0x40 MLOAD DUP1 DUP4 SUB DUP2 DUP7 DUP1 EXTCODESIZE ISZERO DUP1 ISZERO PUSH2 0xA5F JUMPI PUSH1 0x0 DUP1 REVERT JUMPDEST POP GAS STATICCALL ISZERO DUP1 ISZERO PUSH2 0xA73 JUMPI RETURNDATASIZE PUSH1 0x0 DUP1 RETURNDATACOPY RETURNDATASIZE PUSH1 0x0 REVERT JUMPDEST POP POP POP POP PUSH1 0x40 MLOAD RETURNDATASIZE PUSH1 0x0 DUP3 RETURNDATACOPY PUSH1 0x1F RETURNDATASIZE SWAP1 DUP2 ADD PUSH32 0xFFFFFFFFFFFFFFFFFFFFFFFFFFFFFFFFFFFFFFFFFFFFFFFFFFFFFFFFFFFFFFE0 AND DUP3 ADD PUSH1 0x40 MSTORE PUSH2 0xAB9 SWAP2 SWAP1 DUP2 ADD SWAP1 PUSH2 0x1A7A JUMP JUMPDEST SWAP1 POP DUP1 PUSH1 0x20 ADD MLOAD PUSH5 0xFFFFFFFFFF AND PUSH1 0x0 EQ ISZERO PUSH2 0xAD1 JUMPI INVALID JUMPDEST PUSH2 0xADA DUP2 PUSH2 0xB20 JUMP JUMPDEST PUSH2 0xB10 JUMPI PUSH1 0x40 MLOAD PUSH32 0x8C379A000000000000000000000000000000000000000000000000000000000 DUP2 MSTORE PUSH1 0x4 ADD PUSH2 0x4C9 SWAP1 PUSH2 0x2299 JUMP JUMPDEST PUSH2 0xB1B DUP2 DUP5 DUP5 PUSH2 0xD2C JUMP JUMPDEST POP POP POP JUMP JUMPDEST PUSH1 0x1 SLOAD PUSH1 0x0 SWAP1 PUSH20 0xFFFFFFFFFFFFFFFFFFFFFFFFFFFFFFFFFFFFFFFF AND CALLER EQ ISZERO PUSH2 0xB4B JUMPI POP PUSH1 0x1 PUSH2 0x27C JUMP JUMPDEST PUSH1 0xE0 DUP3 ADD MLOAD PUSH20 0xFFFFFFFFFFFFFFFFFFFFFFFFFFFFFFFFFFFFFFFF AND PUSH1 0x0 SWAP1 DUP2 MSTORE PUSH1 0x5 PUSH1 0x20 MSTORE PUSH1 0x40 SWAP1 KECCAK256 SLOAD PUSH2 0xB81 JUMPI POP PUSH1 0x0 PUSH2 0x27C JUMP JUMPDEST PUSH1 0x64 PUSH2 0xBB8 DUP4 PUSH2 0x160 ADD MLOAD PUSH1 0xFF AND PUSH2 0xBB2 DUP6 PUSH2 0x140 ADD MLOAD PUSH1 0xFF AND DUP7 PUSH2 0x120 ADD MLOAD PUSH1 0xFF AND PUSH2 0xFF4 SWAP1 SWAP2 SWAP1 PUSH4 0xFFFFFFFF AND JUMP JUMPDEST SWAP1 PUSH2 0xFF4 JUMP JUMPDEST GT ISZERO DUP1 ISZERO PUSH2 0xBCF JUMPI POP PUSH1 0xA DUP3 PUSH2 0x120 ADD MLOAD PUSH1 0xFF AND LT ISZERO JUMPDEST DUP1 ISZERO PUSH2 0xBE4 JUMPI POP PUSH1 0xA DUP3 PUSH2 0x140 ADD MLOAD PUSH1 0xFF AND LT ISZERO JUMPDEST DUP1 ISZERO PUSH2 0xBF9 JUMPI POP PUSH1 0x5 DUP3 PUSH2 0x160 ADD MLOAD PUSH1 0xFF AND LT ISZERO JUMPDEST DUP1 ISZERO PUSH2 0xC25 JUMPI POP PUSH1 0x1 SLOAD PUSH2 0x180 DUP4 ADD MLOAD PUSH20 0xFFFFFFFFFFFFFFFFFFFFFFFFFFFFFFFFFFFFFFFF SWAP1 DUP2 AND SWAP2 AND EQ JUMPDEST ISZERO PUSH2 0xC32 JUMPI POP PUSH1 0x1 PUSH2 0x27C JUMP JUMPDEST POP PUSH1 0x0 SWAP2 SWAP1 POP JUMP JUMPDEST PUSH2 0xC42 PUSH2 0x12A3 JUMP JUMPDEST PUSH1 0x2 SLOAD PUSH1 0x40 MLOAD PUSH32 0xC70BE14600000000000000000000000000000000000000000000000000000000 DUP2 MSTORE PUSH20 0xFFFFFFFFFFFFFFFFFFFFFFFFFFFFFFFFFFFFFFFF SWAP1 SWAP2 AND SWAP1 PUSH4 0xC70BE146 SWAP1 PUSH2 0xC9A SWAP1 DUP7 SWAP1 DUP7 SWAP1 PUSH1 0x4 ADD PUSH2 0x2057 JUMP JUMPDEST PUSH1 0x0 PUSH1 0x40 MLOAD DUP1 DUP4 SUB DUP2 DUP7 DUP1 EXTCODESIZE ISZERO DUP1 ISZERO PUSH2 0xCB2 JUMPI PUSH1 0x0 DUP1 REVERT JUMPDEST POP GAS STATICCALL ISZERO DUP1 ISZERO PUSH2 0xCC6 JUMPI RETURNDATASIZE PUSH1 0x0 DUP1 RETURNDATACOPY RETURNDATASIZE PUSH1 0x0 REVERT JUMPDEST POP POP POP POP PUSH1 0x40 MLOAD RETURNDATASIZE PUSH1 0x0 DUP3 RETURNDATACOPY PUSH1 0x1F RETURNDATASIZE SWAP1 DUP2 ADD PUSH32 0xFFFFFFFFFFFFFFFFFFFFFFFFFFFFFFFFFFFFFFFFFFFFFFFFFFFFFFFFFFFFFFE0 AND DUP3 ADD PUSH1 0x40 MSTORE PUSH2 0xD0C SWAP2 SWAP1 DUP2 ADD SWAP1 PUSH2 0x1B5E JUMP JUMPDEST PUSH1 0x0 SWAP3 DUP4 MSTORE PUSH1 0x8 PUSH1 0x20 MSTORE PUSH1 0x40 SWAP1 SWAP3 KECCAK256 SLOAD PUSH1 0xFF AND ISZERO ISZERO PUSH1 0x80 DUP4 ADD MSTORE POP SWAP2 SWAP1 POP JUMP JUMPDEST PUSH1 0x0 PUSH2 0xD37 DUP5 PUSH2 0x103C JUMP JUMPDEST PUSH1 0x0 DUP2 DUP2 MSTORE PUSH1 0x7 PUSH1 0x20 MSTORE PUSH1 0x40 SWAP1 KECCAK256 DUP1 SLOAD SWAP2 SWAP3 POP SWAP1 PUSH2 0xF7D JUMPI PUSH1 0x1 SLOAD PUSH1 0x0 SWAP1 PUSH20 0xFFFFFFFFFFFFFFFFFFFFFFFFFFFFFFFFFFFFFFFF AND CALLER EQ PUSH2 0xD7B JUMPI TIMESTAMP PUSH2 0x258 ADD PUSH2 0xD7E JUMP JUMPDEST PUSH1 0x0 JUMPDEST PUSH1 0x40 DUP1 MLOAD PUSH1 0x60 DUP2 ADD DUP3 MSTORE DUP8 DUP2 MSTORE PUSH2 0x120 DUP10 ADD MLOAD PUSH1 0xFF SWAP1 DUP2 AND PUSH1 0x20 DUP1 DUP5 ADD SWAP2 DUP3 MSTORE PUSH5 0xFFFFFFFFFF DUP7 DUP2 AND DUP6 DUP8 ADD SWAP1 DUP2 MSTORE PUSH1 0x0 DUP12 DUP2 MSTORE PUSH1 0x7 SWAP1 SWAP4 MSTORE SWAP6 SWAP1 SWAP2 KECCAK256 SWAP4 MLOAD DUP5 SSTORE SWAP1 MLOAD PUSH1 0x1 SWAP4 DUP5 ADD DUP1 SLOAD SWAP6 MLOAD PUSH32 0xFFFFFFFFFFFFFFFFFFFFFFFFFFFFFFFFFFFFFFFFFFFFFFFFFFFFFFFFFFFFFF00 SWAP1 SWAP7 AND SWAP2 SWAP1 SWAP4 AND OR PUSH32 0xFFFFFFFFFFFFFFFFFFFFFFFFFFFFFFFFFFFFFFFFFFFFFFFFFFFF0000000000FF AND SWAP4 AND PUSH2 0x100 MUL SWAP3 SWAP1 SWAP3 OR SWAP1 SWAP2 SSTORE SLOAD SWAP1 SWAP2 POP PUSH20 0xFFFFFFFFFFFFFFFFFFFFFFFFFFFFFFFFFFFFFFFF AND CALLER EQ ISZERO PUSH2 0xE7C JUMPI PUSH1 0x0 DUP6 DUP2 MSTORE PUSH1 0x8 PUSH1 0x20 MSTORE PUSH1 0x40 SWAP1 KECCAK256 DUP1 SLOAD PUSH32 0xFFFFFFFFFFFFFFFFFFFFFFFFFFFFFFFFFFFFFFFFFFFFFFFFFFFFFFFFFFFFFF00 AND DUP6 ISZERO ISZERO OR SWAP1 SSTORE JUMPDEST PUSH1 0x0 DUP7 PUSH1 0x80 ADD MLOAD PUSH1 0x8 MUL PUSH1 0xFF AND DUP8 PUSH2 0x100 ADD MLOAD PUSH1 0xFF AND PUSH1 0x1 SWAP1 SHL SWAP1 SHL SWAP1 POP DUP1 PUSH1 0x3 SLOAD AND PUSH1 0x0 EQ ISZERO PUSH2 0xEB0 JUMPI PUSH1 0x3 DUP1 SLOAD DUP3 OR SWAP1 SSTORE JUMPDEST PUSH1 0x60 DUP8 ADD MLOAD PUSH1 0x0 SWAP1 PUSH1 0x4 AND ISZERO PUSH2 0xECC JUMPI POP PUSH2 0x100 DUP8 ADD MLOAD PUSH2 0xEDC JUMP JUMPDEST PUSH2 0xED9 DUP9 PUSH1 0x20 ADD MLOAD PUSH2 0x1120 JUMP JUMPDEST SWAP1 POP JUMPDEST DUP8 PUSH1 0x80 ADD MLOAD PUSH1 0xFF AND DUP9 PUSH2 0x100 ADD MLOAD PUSH1 0xFF AND DUP3 PUSH1 0xFF AND PUSH1 0x8 PUSH2 0xEFF DUP6 PUSH1 0xFF AND PUSH2 0x11DB JUMP JUMPDEST PUSH6 0xFFFFFFFFFFFF AND DUP13 PUSH1 0x20 ADD MLOAD PUSH5 0xFFFFFFFFFF AND DUP2 PUSH2 0xF1A JUMPI INVALID JUMPDEST DIV PUSH6 0xFFFFFFFFFFFF AND SWAP1 SHL ADD PUSH6 0xFFFFFFFFFFFF AND PUSH32 0x3D4B4C0DC42D96DA48D02A2693392BFA4FDBFB0BEC570E48F5186F9F75FE8ECB DUP9 DUP13 PUSH1 0x20 ADD MLOAD DUP9 DUP15 PUSH1 0x0 ADD MLOAD PUSH1 0x40 MLOAD PUSH2 0xF6B SWAP5 SWAP4 SWAP3 SWAP2 SWAP1 PUSH2 0x218B JUMP JUMPDEST PUSH1 0x40 MLOAD DUP1 SWAP2 SUB SWAP1 LOG4 POP POP POP POP POP PUSH2 0xB1B JUMP JUMPDEST PUSH1 0x1 DUP2 ADD SLOAD PUSH2 0x120 DUP7 ADD MLOAD PUSH1 0xFF SWAP2 DUP3 AND SWAP2 AND GT DUP1 ISZERO PUSH2 0xFAB JUMPI POP PUSH1 0x1 DUP2 ADD SLOAD PUSH2 0x100 SWAP1 DIV PUSH5 0xFFFFFFFFFF AND TIMESTAMP LT JUMPDEST ISZERO PUSH2 0xFED JUMPI DUP4 DUP2 SSTORE PUSH2 0x120 DUP6 ADD MLOAD PUSH1 0x1 DUP3 ADD DUP1 SLOAD PUSH32 0xFFFFFFFFFFFFFFFFFFFFFFFFFFFFFFFFFFFFFFFFFFFFFFFFFFFFFFFFFFFFFF00 AND PUSH1 0xFF SWAP1 SWAP3 AND SWAP2 SWAP1 SWAP2 OR SWAP1 SSTORE JUMPDEST POP POP POP POP POP JUMP JUMPDEST PUSH1 0x0 DUP3 DUP3 ADD DUP4 DUP2 LT ISZERO PUSH2 0x1033 JUMPI PUSH1 0x40 MLOAD PUSH32 0x8C379A000000000000000000000000000000000000000000000000000000000 DUP2 MSTORE PUSH1 0x4 ADD PUSH2 0x4C9 SWAP1 PUSH2 0x2262 JUMP JUMPDEST SWAP1 POP JUMPDEST SWAP3 SWAP2 POP POP JUMP JUMPDEST PUSH1 0x0 PUSH1 0x60 DUP3 PUSH1 0x0 ADD MLOAD PUSH1 0x40 MLOAD PUSH1 0x20 ADD PUSH2 0x1055 SWAP2 SWAP1 PUSH2 0x203B JUMP JUMPDEST PUSH1 0x40 MLOAD PUSH1 0x20 DUP2 DUP4 SUB SUB DUP2 MSTORE SWAP1 PUSH1 0x40 MSTORE DUP1 MLOAD SWAP1 PUSH1 0x20 ADD KECCAK256 DUP4 PUSH1 0x20 ADD MLOAD DUP5 PUSH1 0x40 ADD MLOAD DUP6 PUSH1 0x60 ADD MLOAD DUP7 PUSH1 0x80 ADD MLOAD DUP8 PUSH1 0xA0 ADD MLOAD DUP9 PUSH1 0xC0 ADD MLOAD DUP10 PUSH2 0x100 ADD MLOAD DUP11 PUSH1 0xE0 ADD MLOAD PUSH1 0x40 MLOAD PUSH1 0x20 ADD PUSH2 0x10AC SWAP10 SWAP9 SWAP8 SWAP7 SWAP6 SWAP5 SWAP4 SWAP3 SWAP2 SWAP1 PUSH2 0x1F1F JUMP JUMPDEST PUSH1 0x40 DUP1 MLOAD DUP1 DUP4 SUB PUSH32 0xFFFFFFFFFFFFFFFFFFFFFFFFFFFFFFFFFFFFFFFFFFFFFFFFFFFFFFFFFFFFFFE0 ADD DUP2 MSTORE SWAP2 SWAP1 MSTORE PUSH1 0x60 DUP5 ADD MLOAD SWAP1 SWAP2 POP PUSH1 0x1 AND PUSH2 0x1112 JUMPI PUSH2 0x1C0 DUP4 ADD MLOAD PUSH1 0x40 MLOAD PUSH2 0x1100 SWAP2 DUP4 SWAP2 PUSH1 0x20 ADD PUSH2 0x1FF1 JUMP JUMPDEST PUSH1 0x40 MLOAD PUSH1 0x20 DUP2 DUP4 SUB SUB DUP2 MSTORE SWAP1 PUSH1 0x40 MSTORE SWAP1 POP JUMPDEST DUP1 MLOAD PUSH1 0x20 SWAP1 SWAP2 ADD KECCAK256 SWAP3 SWAP2 POP POP JUMP JUMPDEST PUSH1 0x0 DUP1 DUP1 PUSH2 0x1135 PUSH5 0xFFFFFFFFFF DUP6 AND TIMESTAMP PUSH2 0x1209 JUMP JUMPDEST SWAP1 POP PUSH4 0x3C26700 DUP2 LT PUSH2 0x1174 JUMPI PUSH1 0x40 MLOAD PUSH32 0x8C379A000000000000000000000000000000000000000000000000000000000 DUP2 MSTORE PUSH1 0x4 ADD PUSH2 0x4C9 SWAP1 PUSH2 0x222B JUMP JUMPDEST PUSH3 0x3B5380 DUP2 GT ISZERO PUSH2 0x1189 JUMPI PUSH1 0x1 JUMPDEST SWAP2 POP PUSH2 0x11D4 JUMP JUMPDEST PUSH3 0xA8C00 DUP2 GT ISZERO PUSH2 0x119B JUMPI PUSH1 0x3 PUSH2 0x1182 JUMP JUMPDEST PUSH3 0x1FA40 DUP2 GT ISZERO PUSH2 0x11AD JUMPI PUSH1 0x4 PUSH2 0x1182 JUMP JUMPDEST PUSH2 0x1C20 DUP2 GT ISZERO PUSH2 0x11BE JUMPI PUSH1 0x5 PUSH2 0x1182 JUMP JUMPDEST PUSH2 0x384 DUP2 GT ISZERO PUSH2 0x11CF JUMPI PUSH1 0x6 PUSH2 0x1182 JUMP JUMPDEST PUSH1 0x7 SWAP2 POP JUMPDEST POP SWAP3 SWAP2 POP POP JUMP JUMPDEST PUSH1 0x0 PUSH1 0x60 PUSH1 0x40 MLOAD DUP1 PUSH1 0x60 ADD PUSH1 0x40 MSTORE DUP1 PUSH1 0x2A DUP2 MSTORE PUSH1 0x20 ADD PUSH2 0x2484 PUSH1 0x2A SWAP2 CODECOPY PUSH1 0x1 DUP5 ADD PUSH1 0x6 MUL ADD MLOAD SWAP2 POP POP SWAP2 SWAP1 POP JUMP JUMPDEST PUSH1 0x0 PUSH2 0x1033 DUP4 DUP4 PUSH1 0x40 MLOAD DUP1 PUSH1 0x40 ADD PUSH1 0x40 MSTORE DUP1 PUSH1 0x1E DUP2 MSTORE PUSH1 0x20 ADD PUSH32 0x536166654D6174683A207375627472616374696F6E206F766572666C6F770000 DUP2 MSTORE POP PUSH1 0x0 DUP2 DUP5 DUP5 GT ISZERO PUSH2 0x1284 JUMPI PUSH1 0x40 MLOAD PUSH32 0x8C379A000000000000000000000000000000000000000000000000000000000 DUP2 MSTORE PUSH1 0x4 ADD PUSH2 0x4C9 SWAP2 SWAP1 PUSH2 0x21BB JUMP JUMPDEST POP POP POP SWAP1 SUB SWAP1 JUMP JUMPDEST PUSH1 0x40 DUP1 MLOAD DUP1 DUP3 ADD SWAP1 SWAP2 MSTORE PUSH1 0x0 DUP1 DUP3 MSTORE PUSH1 0x20 DUP3 ADD MSTORE SWAP1 JUMP JUMPDEST PUSH1 0x40 MLOAD DUP1 PUSH1 0xA0 ADD PUSH1 0x40 MSTORE DUP1 PUSH2 0x12B6 PUSH2 0x12DE JUMP JUMPDEST DUP2 MSTORE PUSH1 0x20 ADD PUSH2 0x12C3 PUSH2 0x135C JUMP JUMPDEST DUP2 MSTORE PUSH1 0x0 PUSH1 0x20 DUP3 ADD DUP2 SWAP1 MSTORE PUSH1 0x40 DUP3 ADD DUP2 SWAP1 MSTORE PUSH1 0x60 SWAP1 SWAP2 ADD MSTORE SWAP1 JUMP JUMPDEST PUSH1 0x40 DUP1 MLOAD PUSH2 0x1E0 DUP2 ADD DUP3 MSTORE PUSH1 0x60 DUP1 DUP3 MSTORE PUSH1 0x0 PUSH1 0x20 DUP4 ADD DUP2 SWAP1 MSTORE SWAP3 DUP3 ADD DUP4 SWAP1 MSTORE DUP1 DUP3 ADD DUP4 SWAP1 MSTORE PUSH1 0x80 DUP3 ADD DUP4 SWAP1 MSTORE PUSH1 0xA0 DUP3 ADD DUP4 SWAP1 MSTORE PUSH1 0xC0 DUP3 ADD DUP4 SWAP1 MSTORE PUSH1 0xE0 DUP3 ADD DUP4 SWAP1 MSTORE PUSH2 0x100 DUP3 ADD DUP4 SWAP1 MSTORE PUSH2 0x120 DUP3 ADD DUP4 SWAP1 MSTORE PUSH2 0x140 DUP3 ADD DUP4 SWAP1 MSTORE PUSH2 0x160 DUP3 ADD DUP4 SWAP1 MSTORE PUSH2 0x180 DUP3 ADD DUP4 SWAP1 MSTORE PUSH2 0x1A0 DUP3 ADD SWAP3 SWAP1 SWAP3 MSTORE PUSH2 0x1C0 DUP2 ADD SWAP2 SWAP1 SWAP2 MSTORE SWAP1 JUMP JUMPDEST PUSH1 0x40 DUP1 MLOAD PUSH1 0x60 DUP2 ADD DUP3 MSTORE PUSH1 0x0 DUP1 DUP3 MSTORE PUSH1 0x20 DUP3 ADD DUP2 SWAP1 MSTORE SWAP2 DUP2 ADD SWAP2 SWAP1 SWAP2 MSTORE SWAP1 JUMP JUMPDEST DUP1 CALLDATALOAD PUSH2 0x1036 DUP2 PUSH2 0x23FF JUMP JUMPDEST DUP1 MLOAD PUSH2 0x1036 DUP2 PUSH2 0x23FF JUMP JUMPDEST PUSH1 0x0 DUP3 PUSH1 0x1F DUP4 ADD SLT PUSH2 0x13A2 JUMPI DUP1 DUP2 REVERT JUMPDEST DUP2 CALLDATALOAD PUSH2 0x13B5 PUSH2 0x13B0 DUP3 PUSH2 0x236D JUMP JUMPDEST PUSH2 0x2346 JUMP JUMPDEST DUP2 DUP2 MSTORE SWAP2 POP PUSH1 0x20 DUP1 DUP4 ADD SWAP1 DUP5 DUP2 ADD DUP2 DUP5 MUL DUP7 ADD DUP3 ADD DUP8 LT ISZERO PUSH2 0x13D6 JUMPI PUSH1 0x0 DUP1 REVERT JUMPDEST PUSH1 0x0 JUMPDEST DUP5 DUP2 LT ISZERO PUSH2 0x13FE JUMPI DUP2 CALLDATALOAD PUSH2 0x13EC DUP2 PUSH2 0x2432 JUMP JUMPDEST DUP5 MSTORE SWAP3 DUP3 ADD SWAP3 SWAP1 DUP3 ADD SWAP1 PUSH1 0x1 ADD PUSH2 0x13D9 JUMP JUMPDEST POP POP POP POP POP SWAP3 SWAP2 POP POP JUMP JUMPDEST PUSH1 0x0 DUP3 PUSH1 0x1F DUP4 ADD SLT PUSH2 0x1419 JUMPI DUP1 DUP2 REVERT JUMPDEST DUP2 MLOAD PUSH2 0x1427 PUSH2 0x13B0 DUP3 PUSH2 0x236D JUMP JUMPDEST DUP2 DUP2 MSTORE SWAP2 POP PUSH1 0x20 DUP1 DUP4 ADD SWAP1 DUP5 DUP2 ADD DUP2 DUP5 MUL DUP7 ADD DUP3 ADD DUP8 LT ISZERO PUSH2 0x1448 JUMPI PUSH1 0x0 DUP1 REVERT JUMPDEST PUSH1 0x0 JUMPDEST DUP5 DUP2 LT ISZERO PUSH2 0x13FE JUMPI DUP2 MLOAD PUSH2 0x145E DUP2 PUSH2 0x2432 JUMP JUMPDEST DUP5 MSTORE SWAP3 DUP3 ADD SWAP3 SWAP1 DUP3 ADD SWAP1 PUSH1 0x1 ADD PUSH2 0x144B JUMP JUMPDEST DUP1 MLOAD PUSH2 0x1036 DUP2 PUSH2 0x2424 JUMP JUMPDEST DUP1 MLOAD PUSH1 0x3 DUP2 LT PUSH2 0x1036 JUMPI PUSH1 0x0 DUP1 REVERT JUMPDEST DUP1 CALLDATALOAD PUSH2 0x1036 DUP2 PUSH2 0x2441 JUMP JUMPDEST DUP1 MLOAD PUSH2 0x1036 DUP2 PUSH2 0x2441 JUMP JUMPDEST PUSH1 0x0 DUP3 PUSH1 0x1F DUP4 ADD SLT PUSH2 0x14B0 JUMPI DUP1 DUP2 REVERT JUMPDEST DUP2 CALLDATALOAD PUSH2 0x14BE PUSH2 0x13B0 DUP3 PUSH2 0x238D JUMP JUMPDEST SWAP2 POP DUP1 DUP3 MSTORE DUP4 PUSH1 0x20 DUP3 DUP6 ADD ADD GT ISZERO PUSH2 0x14D5 JUMPI PUSH1 0x0 DUP1 REVERT JUMPDEST DUP1 PUSH1 0x20 DUP5 ADD PUSH1 0x20 DUP5 ADD CALLDATACOPY PUSH1 0x0 SWAP1 DUP3 ADD PUSH1 0x20 ADD MSTORE SWAP3 SWAP2 POP POP JUMP JUMPDEST PUSH1 0x0 DUP3 PUSH1 0x1F DUP4 ADD SLT PUSH2 0x14FE JUMPI DUP1 DUP2 REVERT JUMPDEST DUP2 MLOAD PUSH2 0x150C PUSH2 0x13B0 DUP3 PUSH2 0x238D JUMP JUMPDEST SWAP2 POP DUP1 DUP3 MSTORE DUP4 PUSH1 0x20 DUP3 DUP6 ADD ADD GT ISZERO PUSH2 0x1523 JUMPI PUSH1 0x0 DUP1 REVERT JUMPDEST PUSH2 0x11D4 DUP2 PUSH1 0x20 DUP5 ADD PUSH1 0x20 DUP7 ADD PUSH2 0x23CF JUMP JUMPDEST PUSH1 0x0 PUSH2 0x1E0 DUP1 DUP4 DUP6 SUB SLT ISZERO PUSH2 0x1547 JUMPI DUP2 DUP3 REVERT JUMPDEST PUSH2 0x1550 DUP2 PUSH2 0x2346 JUMP JUMPDEST SWAP2 POP POP DUP2 CALLDATALOAD PUSH8 0xFFFFFFFFFFFFFFFF DUP1 DUP3 GT ISZERO PUSH2 0x156B JUMPI PUSH1 0x0 DUP1 REVERT JUMPDEST PUSH2 0x1577 DUP6 DUP4 DUP7 ADD PUSH2 0x14A0 JUMP JUMPDEST DUP4 MSTORE PUSH2 0x1586 DUP6 PUSH1 0x20 DUP7 ADD PUSH2 0x188F JUMP JUMPDEST PUSH1 0x20 DUP5 ADD MSTORE PUSH2 0x1598 DUP6 PUSH1 0x40 DUP7 ADD PUSH2 0x1879 JUMP JUMPDEST PUSH1 0x40 DUP5 ADD MSTORE PUSH2 0x15AA DUP6 PUSH1 0x60 DUP7 ADD PUSH2 0x18A5 JUMP JUMPDEST PUSH1 0x60 DUP5 ADD MSTORE PUSH2 0x15BC DUP6 PUSH1 0x80 DUP7 ADD PUSH2 0x18A5 JUMP JUMPDEST PUSH1 0x80 DUP5 ADD MSTORE PUSH2 0x15CE DUP6 PUSH1 0xA0 DUP7 ADD PUSH2 0x18A5 JUMP JUMPDEST PUSH1 0xA0 DUP5 ADD MSTORE PUSH2 0x15E0 DUP6 PUSH1 0xC0 DUP7 ADD PUSH2 0x148A JUMP JUMPDEST PUSH1 0xC0 DUP5 ADD MSTORE PUSH2 0x15F2 DUP6 PUSH1 0xE0 DUP7 ADD PUSH2 0x137C JUMP JUMPDEST PUSH1 0xE0 DUP5 ADD MSTORE PUSH2 0x100 SWAP2 POP PUSH2 0x1608 DUP6 DUP4 DUP7 ADD PUSH2 0x18A5 JUMP JUMPDEST DUP3 DUP5 ADD MSTORE PUSH2 0x120 SWAP2 POP PUSH2 0x161D DUP6 DUP4 DUP7 ADD PUSH2 0x18A5 JUMP JUMPDEST DUP3 DUP5 ADD MSTORE PUSH2 0x140 SWAP2 POP PUSH2 0x1632 DUP6 DUP4 DUP7 ADD PUSH2 0x18A5 JUMP JUMPDEST DUP3 DUP5 ADD MSTORE PUSH2 0x160 SWAP2 POP PUSH2 0x1647 DUP6 DUP4 DUP7 ADD PUSH2 0x18A5 JUMP JUMPDEST DUP3 DUP5 ADD MSTORE PUSH2 0x180 SWAP2 POP PUSH2 0x165C DUP6 DUP4 DUP7 ADD PUSH2 0x137C JUMP JUMPDEST DUP3 DUP5 ADD MSTORE PUSH2 0x1A0 SWAP2 POP PUSH2 0x1671 DUP6 DUP4 DUP7 ADD PUSH2 0x137C JUMP JUMPDEST DUP3 DUP5 ADD MSTORE PUSH2 0x1C0 SWAP2 POP DUP2 DUP5 ADD CALLDATALOAD DUP2 DUP2 GT ISZERO PUSH2 0x168B JUMPI PUSH1 0x0 DUP1 REVERT JUMPDEST PUSH2 0x1697 DUP7 DUP3 DUP8 ADD PUSH2 0x1392 JUMP JUMPDEST DUP4 DUP6 ADD MSTORE POP POP POP SWAP3 SWAP2 POP POP JUMP JUMPDEST PUSH1 0x0 PUSH2 0x1E0 DUP1 DUP4 DUP6 SUB SLT ISZERO PUSH2 0x16B7 JUMPI DUP2 DUP3 REVERT JUMPDEST PUSH2 0x16C0 DUP2 PUSH2 0x2346 JUMP JUMPDEST SWAP2 POP POP DUP2 MLOAD PUSH8 0xFFFFFFFFFFFFFFFF DUP1 DUP3 GT ISZERO PUSH2 0x16DB JUMPI PUSH1 0x0 DUP1 REVERT JUMPDEST PUSH2 0x16E7 DUP6 DUP4 DUP7 ADD PUSH2 0x14EE JUMP JUMPDEST DUP4 MSTORE PUSH2 0x16F6 DUP6 PUSH1 0x20 DUP7 ADD PUSH2 0x189A JUMP JUMPDEST PUSH1 0x20 DUP5 ADD MSTORE PUSH2 0x1708 DUP6 PUSH1 0x40 DUP7 ADD PUSH2 0x1884 JUMP JUMPDEST PUSH1 0x40 DUP5 ADD MSTORE PUSH2 0x171A DUP6 PUSH1 0x60 DUP7 ADD PUSH2 0x18B0 JUMP JUMPDEST PUSH1 0x60 DUP5 ADD MSTORE PUSH2 0x172C DUP6 PUSH1 0x80 DUP7 ADD PUSH2 0x18B0 JUMP JUMPDEST PUSH1 0x80 DUP5 ADD MSTORE PUSH2 0x173E DUP6 PUSH1 0xA0 DUP7 ADD PUSH2 0x18B0 JUMP JUMPDEST PUSH1 0xA0 DUP5 ADD MSTORE PUSH2 0x1750 DUP6 PUSH1 0xC0 DUP7 ADD PUSH2 0x1495 JUMP JUMPDEST PUSH1 0xC0 DUP5 ADD MSTORE PUSH2 0x1762 DUP6 PUSH1 0xE0 DUP7 ADD PUSH2 0x1387 JUMP JUMPDEST PUSH1 0xE0 DUP5 ADD MSTORE PUSH2 0x100 SWAP2 POP PUSH2 0x1778 DUP6 DUP4 DUP7 ADD PUSH2 0x18B0 JUMP JUMPDEST DUP3 DUP5 ADD MSTORE PUSH2 0x120 SWAP2 POP PUSH2 0x178D DUP6 DUP4 DUP7 ADD PUSH2 0x18B0 JUMP JUMPDEST DUP3 DUP5 ADD MSTORE PUSH2 0x140 SWAP2 POP PUSH2 0x17A2 DUP6 DUP4 DUP7 ADD PUSH2 0x18B0 JUMP JUMPDEST DUP3 DUP5 ADD MSTORE PUSH2 0x160 SWAP2 POP PUSH2 0x17B7 DUP6 DUP4 DUP7 ADD PUSH2 0x18B0 JUMP JUMPDEST DUP3 DUP5 ADD MSTORE PUSH2 0x180 SWAP2 POP PUSH2 0x17CC DUP6 DUP4 DUP7 ADD PUSH2 0x1387 JUMP JUMPDEST DUP3 DUP5 ADD MSTORE PUSH2 0x1A0 SWAP2 POP PUSH2 0x17E1 DUP6 DUP4 DUP7 ADD PUSH2 0x1387 JUMP JUMPDEST DUP3 DUP5 ADD MSTORE PUSH2 0x1C0 SWAP2 POP DUP2 DUP5 ADD MLOAD DUP2 DUP2 GT ISZERO PUSH2 0x17FB JUMPI PUSH1 0x0 DUP1 REVERT JUMPDEST PUSH2 0x1697 DUP7 DUP3 DUP8 ADD PUSH2 0x1409 JUMP JUMPDEST PUSH1 0x0 PUSH1 0x60 DUP3 DUP5 SUB SLT ISZERO PUSH2 0x1818 JUMPI DUP1 DUP2 REVERT JUMPDEST PUSH2 0x1822 PUSH1 0x60 PUSH2 0x2346 JUMP JUMPDEST SWAP1 POP DUP2 MLOAD PUSH16 0xFFFFFFFFFFFFFFFFFFFFFFFFFFFFFFFF DUP2 AND DUP2 EQ PUSH2 0x1844 JUMPI PUSH1 0x0 DUP1 REVERT JUMPDEST DUP2 MSTORE PUSH1 0x20 DUP3 ADD MLOAD PUSH2 0xFFFF DUP2 AND DUP2 EQ PUSH2 0x185B JUMPI PUSH1 0x0 DUP1 REVERT JUMPDEST PUSH1 0x20 DUP3 ADD MSTORE PUSH1 0x40 DUP3 ADD MLOAD PUSH2 0x186E DUP2 PUSH2 0x2424 JUMP JUMPDEST PUSH1 0x40 DUP3 ADD MSTORE SWAP3 SWAP2 POP POP JUMP JUMPDEST DUP1 CALLDATALOAD PUSH2 0x1036 DUP2 PUSH2 0x2450 JUMP JUMPDEST DUP1 MLOAD PUSH2 0x1036 DUP2 PUSH2 0x2450 JUMP JUMPDEST DUP1 CALLDATALOAD PUSH2 0x1036 DUP2 PUSH2 0x2461 JUMP JUMPDEST DUP1 MLOAD PUSH2 0x1036 DUP2 PUSH2 0x2461 JUMP JUMPDEST DUP1 CALLDATALOAD PUSH2 0x1036 DUP2 PUSH2 0x2474 JUMP JUMPDEST DUP1 MLOAD PUSH2 0x1036 DUP2 PUSH2 0x2474 JUMP JUMPDEST PUSH1 0x0 DUP1 PUSH1 0x0 PUSH1 0x40 DUP5 DUP7 SUB SLT ISZERO PUSH2 0x18CF JUMPI DUP3 DUP4 REVERT JUMPDEST DUP4 CALLDATALOAD PUSH2 0x18DA DUP2 PUSH2 0x23FF JUMP JUMPDEST SWAP3 POP PUSH1 0x20 DUP5 ADD CALLDATALOAD PUSH8 0xFFFFFFFFFFFFFFFF DUP1 DUP3 GT ISZERO PUSH2 0x18F6 JUMPI DUP4 DUP5 REVERT JUMPDEST DUP2 DUP7 ADD SWAP2 POP DUP7 PUSH1 0x1F DUP4 ADD SLT PUSH2 0x1909 JUMPI DUP4 DUP5 REVERT JUMPDEST DUP2 CALLDATALOAD DUP2 DUP2 GT ISZERO PUSH2 0x1917 JUMPI DUP5 DUP6 REVERT JUMPDEST DUP8 PUSH1 0x20 DUP1 DUP4 MUL DUP6 ADD ADD GT ISZERO PUSH2 0x192A JUMPI DUP5 DUP6 REVERT JUMPDEST PUSH1 0x20 DUP4 ADD SWAP5 POP DUP1 SWAP4 POP POP POP POP SWAP3 POP SWAP3 POP SWAP3 JUMP JUMPDEST PUSH1 0x0 DUP1 PUSH1 0x40 DUP4 DUP6 SUB SLT ISZERO PUSH2 0x194F JUMPI DUP2 DUP3 REVERT JUMPDEST DUP3 CALLDATALOAD PUSH2 0x195A DUP2 PUSH2 0x23FF JUMP JUMPDEST SWAP5 PUSH1 0x20 SWAP4 SWAP1 SWAP4 ADD CALLDATALOAD SWAP4 POP POP POP JUMP JUMPDEST PUSH1 0x0 PUSH1 0x20 DUP1 DUP4 DUP6 SUB SLT ISZERO PUSH2 0x197A JUMPI DUP2 DUP3 REVERT JUMPDEST DUP3 MLOAD PUSH8 0xFFFFFFFFFFFFFFFF DUP2 GT ISZERO PUSH2 0x1990 JUMPI DUP3 DUP4 REVERT JUMPDEST DUP4 ADD PUSH1 0x1F DUP2 ADD DUP6 SGT PUSH2 0x19A0 JUMPI DUP3 DUP4 REVERT JUMPDEST DUP1 MLOAD PUSH2 0x19AE PUSH2 0x13B0 DUP3 PUSH2 0x236D JUMP JUMPDEST DUP2 DUP2 MSTORE DUP4 DUP2 ADD SWAP1 DUP4 DUP6 ADD DUP6 DUP5 MUL DUP6 ADD DUP7 ADD DUP10 LT ISZERO PUSH2 0x19CA JUMPI DUP7 DUP8 REVERT JUMPDEST DUP7 SWAP5 POP JUMPDEST DUP4 DUP6 LT ISZERO PUSH2 0x19EC JUMPI DUP1 MLOAD DUP4 MSTORE PUSH1 0x1 SWAP5 SWAP1 SWAP5 ADD SWAP4 SWAP2 DUP6 ADD SWAP2 DUP6 ADD PUSH2 0x19CE JUMP JUMPDEST POP SWAP8 SWAP7 POP POP POP POP POP POP POP JUMP JUMPDEST PUSH1 0x0 PUSH1 0x20 DUP3 DUP5 SUB SLT ISZERO PUSH2 0x1A09 JUMPI DUP1 DUP2 REVERT JUMPDEST POP MLOAD SWAP2 SWAP1 POP JUMP JUMPDEST PUSH1 0x0 DUP1 PUSH1 0x40 DUP4 DUP6 SUB SLT ISZERO PUSH2 0x1A22 JUMPI DUP2 DUP3 REVERT JUMPDEST DUP3 CALLDATALOAD SWAP2 POP PUSH1 0x20 DUP4 ADD CALLDATALOAD PUSH2 0x1A34 DUP2 PUSH2 0x2424 JUMP JUMPDEST DUP1 SWAP2 POP POP SWAP3 POP SWAP3 SWAP1 POP JUMP JUMPDEST PUSH1 0x0 PUSH1 0x20 DUP3 DUP5 SUB SLT ISZERO PUSH2 0x1A50 JUMPI DUP1 DUP2 REVERT JUMPDEST DUP2 CALLDATALOAD PUSH8 0xFFFFFFFFFFFFFFFF DUP2 GT ISZERO PUSH2 0x1A66 JUMPI DUP2 DUP3 REVERT JUMPDEST PUSH2 0x1A72 DUP5 DUP3 DUP6 ADD PUSH2 0x1534 JUMP JUMPDEST SWAP5 SWAP4 POP POP POP POP JUMP JUMPDEST PUSH1 0x0 PUSH1 0x20 DUP3 DUP5 SUB SLT ISZERO PUSH2 0x1A8B JUMPI DUP1 DUP2 REVERT JUMPDEST DUP2 MLOAD PUSH8 0xFFFFFFFFFFFFFFFF DUP2 GT ISZERO PUSH2 0x1AA1 JUMPI DUP2 DUP3 REVERT JUMPDEST PUSH2 0x1A72 DUP5 DUP3 DUP6 ADD PUSH2 0x16A4 JUMP JUMPDEST PUSH1 0x0 DUP1 PUSH1 0x0 DUP4 DUP6 SUB PUSH1 0xA0 DUP2 SLT ISZERO PUSH2 0x1AC2 JUMPI DUP2 DUP3 REVERT JUMPDEST DUP5 CALLDATALOAD PUSH8 0xFFFFFFFFFFFFFFFF DUP2 GT ISZERO PUSH2 0x1AD8 JUMPI DUP3 DUP4 REVERT JUMPDEST PUSH2 0x1AE4 DUP8 DUP3 DUP9 ADD PUSH2 0x1534 JUMP JUMPDEST SWAP5 POP POP PUSH1 0x20 DUP6 ADD CALLDATALOAD PUSH2 0x1AF5 DUP2 PUSH2 0x2424 JUMP JUMPDEST SWAP3 POP PUSH1 0x60 PUSH32 0xFFFFFFFFFFFFFFFFFFFFFFFFFFFFFFFFFFFFFFFFFFFFFFFFFFFFFFFFFFFFFFC0 DUP3 ADD SLT ISZERO PUSH2 0x1B26 JUMPI DUP2 DUP3 REVERT JUMPDEST POP PUSH2 0x1B31 PUSH1 0x60 PUSH2 0x2346 JUMP JUMPDEST PUSH1 0x40 DUP6 ADD CALLDATALOAD PUSH2 0x1B3F DUP2 PUSH2 0x2474 JUMP JUMPDEST DUP2 MSTORE PUSH1 0x60 DUP6 ADD CALLDATALOAD PUSH1 0x20 DUP3 ADD MSTORE PUSH1 0x80 SWAP1 SWAP5 ADD CALLDATALOAD PUSH1 0x40 DUP6 ADD MSTORE POP SWAP1 SWAP4 SWAP1 SWAP3 POP JUMP JUMPDEST PUSH1 0x0 PUSH1 0x20 DUP3 DUP5 SUB SLT ISZERO PUSH2 0x1B6F JUMPI DUP1 DUP2 REVERT JUMPDEST DUP2 MLOAD PUSH8 0xFFFFFFFFFFFFFFFF DUP1 DUP3 GT ISZERO PUSH2 0x1B86 JUMPI DUP3 DUP4 REVERT JUMPDEST SWAP1 DUP4 ADD SWAP1 PUSH1 0xE0 DUP3 DUP7 SUB SLT ISZERO PUSH2 0x1B99 JUMPI DUP3 DUP4 REVERT JUMPDEST PUSH2 0x1BA3 PUSH1 0xA0 PUSH2 0x2346 JUMP JUMPDEST DUP3 MLOAD DUP3 DUP2 GT ISZERO PUSH2 0x1BB1 JUMPI DUP5 DUP6 REVERT JUMPDEST PUSH2 0x1BBD DUP8 DUP3 DUP7 ADD PUSH2 0x16A4 JUMP JUMPDEST DUP3 MSTORE POP PUSH2 0x1BCD DUP7 PUSH1 0x20 DUP6 ADD PUSH2 0x1807 JUMP JUMPDEST PUSH1 0x20 DUP3 ADD MSTORE PUSH1 0x80 DUP4 ADD MLOAD PUSH1 0x40 DUP3 ADD MSTORE PUSH2 0x1BE9 DUP7 PUSH1 0xA0 DUP6 ADD PUSH2 0x147B JUMP JUMPDEST PUSH1 0x60 DUP3 ADD MSTORE PUSH2 0x1BFB DUP7 PUSH1 0xC0 DUP6 ADD PUSH2 0x1470 JUMP JUMPDEST PUSH1 0x80 DUP3 ADD MSTORE SWAP6 SWAP5 POP POP POP POP POP JUMP JUMPDEST PUSH1 0x0 PUSH1 0x20 DUP3 DUP5 SUB SLT ISZERO PUSH2 0x1C1A JUMPI DUP1 DUP2 REVERT JUMPDEST DUP2 CALLDATALOAD PUSH2 0x1033 DUP2 PUSH2 0x2461 JUMP JUMPDEST PUSH1 0x0 PUSH1 0x20 DUP3 DUP5 SUB SLT ISZERO PUSH2 0x1C36 JUMPI DUP1 DUP2 REVERT JUMPDEST DUP2 MLOAD PUSH2 0x1033 DUP2 PUSH2 0x2474 JUMP JUMPDEST PUSH20 0xFFFFFFFFFFFFFFFFFFFFFFFFFFFFFFFFFFFFFFFF AND SWAP1 MSTORE JUMP JUMPDEST PUSH1 0x60 SHL PUSH32 0xFFFFFFFFFFFFFFFFFFFFFFFFFFFFFFFFFFFFFFFF000000000000000000000000 AND SWAP1 MSTORE JUMP JUMPDEST PUSH1 0x0 DUP2 MLOAD DUP1 DUP5 MSTORE PUSH1 0x20 DUP1 DUP6 ADD SWAP5 POP DUP1 DUP5 ADD DUP4 JUMPDEST DUP4 DUP2 LT ISZERO PUSH2 0x1CB6 JUMPI DUP2 MLOAD PUSH1 0xF SIGNEXTEND DUP8 MSTORE SWAP6 DUP3 ADD SWAP6 SWAP1 DUP3 ADD SWAP1 PUSH1 0x1 ADD PUSH2 0x1C97 JUMP JUMPDEST POP SWAP5 SWAP6 SWAP5 POP POP POP POP POP JUMP JUMPDEST PUSH1 0x0 DUP2 MLOAD DUP1 DUP5 MSTORE PUSH1 0x20 DUP1 DUP6 ADD SWAP5 POP DUP1 DUP5 ADD DUP4 JUMPDEST DUP4 DUP2 LT ISZERO PUSH2 0x1CB6 JUMPI DUP2 MLOAD DUP8 MSTORE SWAP6 DUP3 ADD SWAP6 SWAP1 DUP3 ADD SWAP1 PUSH1 0x1 ADD PUSH2 0x1CD4 JUMP JUMPDEST PUSH1 0x0 SIGNEXTEND SWAP1 MSTORE JUMP JUMPDEST PUSH1 0x0 DUP2 MLOAD DUP1 DUP5 MSTORE PUSH2 0x1D0F DUP2 PUSH1 0x20 DUP7 ADD PUSH1 0x20 DUP7 ADD PUSH2 0x23CF JUMP JUMPDEST PUSH1 0x1F ADD PUSH32 0xFFFFFFFFFFFFFFFFFFFFFFFFFFFFFFFFFFFFFFFFFFFFFFFFFFFFFFFFFFFFFFE0 AND SWAP3 SWAP1 SWAP3 ADD PUSH1 0x20 ADD SWAP3 SWAP2 POP POP JUMP JUMPDEST PUSH1 0x0 PUSH2 0x1E0 DUP3 MLOAD DUP2 DUP6 MSTORE PUSH2 0x1D57 DUP3 DUP7 ADD DUP3 PUSH2 0x1CF7 JUMP JUMPDEST SWAP2 POP POP PUSH1 0x20 DUP4 ADD MLOAD PUSH2 0x1D6C PUSH1 0x20 DUP7 ADD DUP3 PUSH2 0x1F0D JUMP JUMPDEST POP PUSH1 0x40 DUP4 ADD MLOAD PUSH2 0x1D7F PUSH1 0x40 DUP7 ADD DUP3 PUSH2 0x1F04 JUMP JUMPDEST POP PUSH1 0x60 DUP4 ADD MLOAD PUSH2 0x1D92 PUSH1 0x60 DUP7 ADD DUP3 PUSH2 0x1F18 JUMP JUMPDEST POP PUSH1 0x80 DUP4 ADD MLOAD PUSH2 0x1DA5 PUSH1 0x80 DUP7 ADD DUP3 PUSH2 0x1F18 JUMP JUMPDEST POP PUSH1 0xA0 DUP4 ADD MLOAD PUSH2 0x1DB8 PUSH1 0xA0 DUP7 ADD DUP3 PUSH2 0x1F18 JUMP JUMPDEST POP PUSH1 0xC0 DUP4 ADD MLOAD PUSH2 0x1DCB PUSH1 0xC0 DUP7 ADD DUP3 PUSH2 0x1CF0 JUMP JUMPDEST POP PUSH1 0xE0 DUP4 ADD MLOAD PUSH2 0x1DDE PUSH1 0xE0 DUP7 ADD DUP3 PUSH2 0x1C41 JUMP JUMPDEST POP PUSH2 0x100 DUP1 DUP5 ADD MLOAD PUSH2 0x1DF2 DUP3 DUP8 ADD DUP3 PUSH2 0x1F18 JUMP JUMPDEST POP POP PUSH2 0x120 DUP1 DUP5 ADD MLOAD PUSH2 0x1E07 DUP3 DUP8 ADD DUP3 PUSH2 0x1F18 JUMP JUMPDEST POP POP PUSH2 0x140 DUP1 DUP5 ADD MLOAD PUSH2 0x1E1C DUP3 DUP8 ADD DUP3 PUSH2 0x1F18 JUMP JUMPDEST POP POP PUSH2 0x160 DUP1 DUP5 ADD MLOAD PUSH2 0x1E31 DUP3 DUP8 ADD DUP3 PUSH2 0x1F18 JUMP JUMPDEST POP POP PUSH2 0x180 DUP1 DUP5 ADD MLOAD PUSH2 0x1E46 DUP3 DUP8 ADD DUP3 PUSH2 0x1C41 JUMP JUMPDEST POP POP PUSH2 0x1A0 DUP1 DUP5 ADD MLOAD PUSH2 0x1E5B DUP3 DUP8 ADD DUP3 PUSH2 0x1C41 JUMP JUMPDEST POP POP PUSH2 0x1C0 DUP1 DUP5 ADD MLOAD DUP6 DUP4 SUB DUP3 DUP8 ADD MSTORE PUSH2 0x1E75 DUP4 DUP3 PUSH2 0x1C84 JUMP JUMPDEST SWAP7 SWAP6 POP POP POP POP POP POP JUMP JUMPDEST PUSH1 0x0 DUP2 MLOAD PUSH1 0xE0 DUP5 MSTORE PUSH2 0x1E94 PUSH1 0xE0 DUP6 ADD DUP3 PUSH2 0x1D41 JUMP JUMPDEST SWAP1 POP PUSH1 0x20 DUP4 ADD MLOAD PUSH16 0xFFFFFFFFFFFFFFFFFFFFFFFFFFFFFFFF DUP2 MLOAD AND PUSH1 0x20 DUP7 ADD MSTORE PUSH2 0xFFFF PUSH1 0x20 DUP3 ADD MLOAD AND PUSH1 0x40 DUP7 ADD MSTORE PUSH1 0x40 DUP2 ADD MLOAD ISZERO ISZERO PUSH1 0x60 DUP7 ADD MSTORE POP PUSH1 0x40 DUP4 ADD MLOAD PUSH1 0x80 DUP6 ADD MSTORE PUSH1 0x60 DUP4 ADD MLOAD PUSH1 0x3 DUP2 LT PUSH2 0x1EE8 JUMPI INVALID JUMPDEST PUSH1 0xA0 DUP6 ADD MSTORE PUSH1 0x80 SWAP3 SWAP1 SWAP3 ADD MLOAD ISZERO ISZERO PUSH1 0xC0 SWAP1 SWAP4 ADD SWAP3 SWAP1 SWAP3 MSTORE SWAP2 SWAP1 POP JUMP JUMPDEST PUSH3 0xFFFFFF AND SWAP1 MSTORE JUMP JUMPDEST PUSH5 0xFFFFFFFFFF AND SWAP1 MSTORE JUMP JUMPDEST PUSH1 0xFF AND SWAP1 MSTORE JUMP JUMPDEST PUSH1 0x0 DUP11 DUP3 MSTORE PUSH32 0xFFFFFFFFFF000000000000000000000000000000000000000000000000000000 DUP11 PUSH1 0xD8 SHL AND PUSH1 0x20 DUP4 ADD MSTORE PUSH32 0xFFFFFF0000000000000000000000000000000000000000000000000000000000 DUP10 PUSH1 0xE8 SHL AND PUSH1 0x25 DUP4 ADD MSTORE PUSH32 0xFF00000000000000000000000000000000000000000000000000000000000000 DUP1 DUP10 PUSH1 0xF8 SHL AND PUSH1 0x28 DUP5 ADD MSTORE DUP1 DUP9 PUSH1 0xF8 SHL AND PUSH1 0x29 DUP5 ADD MSTORE DUP1 DUP8 PUSH1 0xF8 SHL AND PUSH1 0x2A DUP5 ADD MSTORE DUP6 DUP3 SIGNEXTEND PUSH1 0xF8 SHL PUSH1 0x2B DUP5 ADD MSTORE DUP1 DUP6 PUSH1 0xF8 SHL AND PUSH1 0x2C DUP5 ADD MSTORE POP PUSH2 0x1FE0 PUSH1 0x2D DUP4 ADD DUP5 PUSH2 0x1C5B JUMP JUMPDEST POP PUSH1 0x41 ADD SWAP10 SWAP9 POP POP POP POP POP POP POP POP POP JUMP JUMPDEST PUSH1 0x0 DUP4 MLOAD PUSH1 0x20 PUSH2 0x2004 DUP3 DUP6 DUP4 DUP10 ADD PUSH2 0x23CF JUMP JUMPDEST DUP5 MLOAD SWAP2 DUP5 ADD SWAP2 DUP2 DUP7 ADD DUP5 JUMPDEST DUP3 DUP2 LT ISZERO PUSH2 0x202E JUMPI DUP2 MLOAD PUSH1 0xF SIGNEXTEND DUP6 MSTORE SWAP4 DUP4 ADD SWAP4 SWAP1 DUP4 ADD SWAP1 PUSH1 0x1 ADD PUSH2 0x200F JUMP JUMPDEST POP SWAP3 SWAP8 SWAP7 POP POP POP POP POP POP POP JUMP JUMPDEST PUSH1 0x0 DUP3 MLOAD PUSH2 0x204D DUP2 DUP5 PUSH1 0x20 DUP8 ADD PUSH2 0x23CF JUMP JUMPDEST SWAP2 SWAP1 SWAP2 ADD SWAP3 SWAP2 POP POP JUMP JUMPDEST PUSH20 0xFFFFFFFFFFFFFFFFFFFFFFFFFFFFFFFFFFFFFFFF SWAP3 SWAP1 SWAP3 AND DUP3 MSTORE PUSH1 0x20 DUP3 ADD MSTORE PUSH1 0x40 ADD SWAP1 JUMP JUMPDEST PUSH1 0x0 PUSH1 0x20 DUP1 DUP4 ADD DUP2 DUP5 MSTORE DUP1 DUP6 MLOAD DUP1 DUP4 MSTORE PUSH1 0x40 DUP7 ADD SWAP2 POP PUSH1 0x40 DUP5 DUP3 MUL DUP8 ADD ADD SWAP3 POP DUP4 DUP8 ADD DUP6 JUMPDEST DUP3 DUP2 LT ISZERO PUSH2 0x202E JUMPI PUSH32 0xFFFFFFFFFFFFFFFFFFFFFFFFFFFFFFFFFFFFFFFFFFFFFFFFFFFFFFFFFFFFFFC0 DUP9 DUP7 SUB ADD DUP5 MSTORE PUSH2 0x20DC DUP6 DUP4 MLOAD PUSH2 0x1E7F JUMP JUMPDEST SWAP5 POP SWAP3 DUP6 ADD SWAP3 SWAP1 DUP6 ADD SWAP1 PUSH1 0x1 ADD PUSH2 0x20A2 JUMP JUMPDEST PUSH1 0x0 PUSH1 0x20 DUP3 MSTORE PUSH2 0x1033 PUSH1 0x20 DUP4 ADD DUP5 PUSH2 0x1CC1 JUMP JUMPDEST PUSH1 0x0 PUSH1 0x40 DUP1 DUP4 MSTORE PUSH2 0x2114 DUP2 DUP5 ADD DUP7 PUSH2 0x1CC1 JUMP JUMPDEST DUP4 DUP2 SUB PUSH1 0x20 DUP6 DUP2 ADD SWAP2 SWAP1 SWAP2 MSTORE DUP6 MLOAD DUP1 DUP4 MSTORE DUP7 DUP3 ADD SWAP3 DUP3 ADD SWAP1 DUP6 JUMPDEST DUP2 DUP2 LT ISZERO PUSH2 0x2169 JUMPI DUP5 MLOAD DUP1 MLOAD PUSH20 0xFFFFFFFFFFFFFFFFFFFFFFFFFFFFFFFFFFFFFFFF AND DUP5 MSTORE DUP5 ADD MLOAD DUP5 DUP5 ADD MSTORE SWAP4 DUP4 ADD SWAP4 SWAP2 DUP6 ADD SWAP2 PUSH1 0x1 ADD PUSH2 0x212E JUMP JUMPDEST POP SWAP1 SWAP9 SWAP8 POP POP POP POP POP POP POP POP JUMP JUMPDEST SWAP1 ISZERO ISZERO DUP2 MSTORE PUSH1 0x20 ADD SWAP1 JUMP JUMPDEST SWAP1 DUP2 MSTORE PUSH1 0x20 ADD SWAP1 JUMP JUMPDEST PUSH1 0x0 DUP6 DUP3 MSTORE PUSH5 0xFFFFFFFFFF DUP1 DUP7 AND PUSH1 0x20 DUP5 ADD MSTORE DUP1 DUP6 AND PUSH1 0x40 DUP5 ADD MSTORE POP PUSH1 0x80 PUSH1 0x60 DUP4 ADD MSTORE PUSH2 0x1E75 PUSH1 0x80 DUP4 ADD DUP5 PUSH2 0x1CF7 JUMP JUMPDEST PUSH1 0x0 PUSH1 0x20 DUP3 MSTORE PUSH2 0x1033 PUSH1 0x20 DUP4 ADD DUP5 PUSH2 0x1CF7 JUMP JUMPDEST PUSH1 0x20 DUP1 DUP3 MSTORE PUSH1 0x22 SWAP1 DUP3 ADD MSTORE PUSH32 0x4F6E6C79206F776E65722063616E2063616C6C20746869732066756E6374696F PUSH1 0x40 DUP3 ADD MSTORE PUSH32 0x6E2E000000000000000000000000000000000000000000000000000000000000 PUSH1 0x60 DUP3 ADD MSTORE PUSH1 0x80 ADD SWAP1 JUMP JUMPDEST PUSH1 0x20 DUP1 DUP3 MSTORE PUSH1 0x15 SWAP1 DUP3 ADD MSTORE PUSH32 0x746F6F2066617220696E20746865206675747572650000000000000000000000 PUSH1 0x40 DUP3 ADD MSTORE PUSH1 0x60 ADD SWAP1 JUMP JUMPDEST PUSH1 0x20 DUP1 DUP3 MSTORE PUSH1 0x1B SWAP1 DUP3 ADD MSTORE PUSH32 0x536166654D6174683A206164646974696F6E206F766572666C6F770000000000 PUSH1 0x40 DUP3 ADD MSTORE PUSH1 0x60 ADD SWAP1 JUMP JUMPDEST PUSH1 0x20 DUP1 DUP3 MSTORE PUSH1 0x15 SWAP1 DUP3 ADD MSTORE PUSH32 0x7265676973746572206E6F7420706F737369626C650000000000000000000000 PUSH1 0x40 DUP3 ADD MSTORE PUSH1 0x60 ADD SWAP1 JUMP JUMPDEST PUSH1 0x0 PUSH1 0xA0 DUP3 MSTORE PUSH2 0x22E3 PUSH1 0xA0 DUP4 ADD DUP7 PUSH2 0x1D41 JUMP JUMPDEST SWAP1 POP DUP4 ISZERO ISZERO PUSH1 0x20 DUP4 ADD MSTORE PUSH1 0xFF DUP4 MLOAD AND PUSH1 0x40 DUP4 ADD MSTORE PUSH1 0x20 DUP4 ADD MLOAD PUSH1 0x60 DUP4 ADD MSTORE PUSH1 0x40 DUP4 ADD MLOAD PUSH1 0x80 DUP4 ADD MSTORE SWAP5 SWAP4 POP POP POP POP JUMP JUMPDEST PUSH1 0x0 PUSH1 0x20 DUP3 MSTORE PUSH2 0x1033 PUSH1 0x20 DUP4 ADD DUP5 PUSH2 0x1E7F JUMP JUMPDEST PUSH5 0xFFFFFFFFFF SWAP2 SWAP1 SWAP2 AND DUP2 MSTORE PUSH1 0x20 ADD SWAP1 JUMP JUMPDEST PUSH1 0xFF SWAP2 SWAP1 SWAP2 AND DUP2 MSTORE PUSH1 0x20 ADD SWAP1 JUMP JUMPDEST PUSH1 0x40 MLOAD DUP2 DUP2 ADD PUSH8 0xFFFFFFFFFFFFFFFF DUP2 GT DUP3 DUP3 LT OR ISZERO PUSH2 0x2365 JUMPI PUSH1 0x0 DUP1 REVERT JUMPDEST PUSH1 0x40 MSTORE SWAP2 SWAP1 POP JUMP JUMPDEST PUSH1 0x0 PUSH8 0xFFFFFFFFFFFFFFFF DUP3 GT ISZERO PUSH2 0x2383 JUMPI DUP1 DUP2 REVERT JUMPDEST POP PUSH1 0x20 SWAP1 DUP2 MUL ADD SWAP1 JUMP JUMPDEST PUSH1 0x0 PUSH8 0xFFFFFFFFFFFFFFFF DUP3 GT ISZERO PUSH2 0x23A3 JUMPI DUP1 DUP2 REVERT JUMPDEST POP PUSH1 0x1F ADD PUSH32 0xFFFFFFFFFFFFFFFFFFFFFFFFFFFFFFFFFFFFFFFFFFFFFFFFFFFFFFFFFFFFFFE0 AND PUSH1 0x20 ADD SWAP1 JUMP JUMPDEST PUSH1 0x0 JUMPDEST DUP4 DUP2 LT ISZERO PUSH2 0x23EA JUMPI DUP2 DUP2 ADD MLOAD DUP4 DUP3 ADD MSTORE PUSH1 0x20 ADD PUSH2 0x23D2 JUMP JUMPDEST DUP4 DUP2 GT ISZERO PUSH2 0x23F9 JUMPI PUSH1 0x0 DUP5 DUP5 ADD MSTORE JUMPDEST POP POP POP POP JUMP JUMPDEST PUSH20 0xFFFFFFFFFFFFFFFFFFFFFFFFFFFFFFFFFFFFFFFF DUP2 AND DUP2 EQ PUSH2 0x2421 JUMPI PUSH1 0x0 DUP1 REVERT JUMPDEST POP JUMP JUMPDEST DUP1 ISZERO ISZERO DUP2 EQ PUSH2 0x2421 JUMPI PUSH1 0x0 DUP1 REVERT JUMPDEST DUP1 PUSH1 0xF SIGNEXTEND DUP2 EQ PUSH2 0x2421 JUMPI PUSH1 0x0 DUP1 REVERT JUMPDEST DUP1 PUSH1 0x0 SIGNEXTEND DUP2 EQ PUSH2 0x2421 JUMPI PUSH1 0x0 DUP1 REVERT JUMPDEST PUSH3 0xFFFFFF DUP2 AND DUP2 EQ PUSH2 0x2421 JUMPI PUSH1 0x0 DUP1 REVERT JUMPDEST PUSH5 0xFFFFFFFFFF DUP2 AND DUP2 EQ PUSH2 0x2421 JUMPI PUSH1 0x0 DUP1 REVERT JUMPDEST PUSH1 0xFF DUP2 AND DUP2 EQ PUSH2 0x2421 JUMPI PUSH1 0x0 DUP1 REVERT INVALID STOP STOP STOP STOP STOP STOP STOP STOP STOP STATICCALL PUSH30 0x3B53800000000A8C0000000001FA40000000001C200000000000 STOP LOG2 PUSH5 0x6970667358 0x22 SLT KECCAK256 DUP13 NUMBER 0xE1 DUP9 CALLVALUE DUP5 0xB3 0xC4 PUSH17 0x2F55C2D8498715A6EE047125D668E61135 0x4D XOR ISZERO 0xF7 PUSH4 0xF564736F PUSH13 0x63430007000033000000000000 "
			}
		}
	},
	"sourceTreeHashHex": "0xc22337984872e3dc8951c520389818392583e3f6968d4300263c2d9370636faa",
	"compiler": {
		"name": "solc",
		"version": "0.7.0+commit.9e61f92b",
		"settings": {
			"remappings": [
				"factsigner=/home/ulf/digioptions/digioptions-contracts.js/node_modules/factsigner",
				"@openzeppelin/contracts=/home/ulf/digioptions/digioptions-contracts.js/node_modules/@openzeppelin/contracts"
			],
			"optimizer": {
				"enabled": true,
				"runs": 20000,
				"details": {
					"yul": true,
					"deduplicate": true,
					"cse": true,
					"constantOptimizer": true
				}
			},
			"outputSelection": {
				"*": {
					"*": [
						"abi",
						"evm.bytecode.object",
						"evm.bytecode.sourceMap",
						"evm.deployedBytecode.object",
						"evm.deployedBytecode.sourceMap"
					]
				}
			}
		}
	},
	"chains": {}
}