{
	"schemaVersion": "2.0.0",
	"contractName": "DigiOptionsTest",
	"compilerOutput": {
		"abi": [
			{
				"inputs": [
					{
						"components": [
							{
								"internalType": "string",
								"name": "underlyingString",
								"type": "string"
							},
							{
								"internalType": "uint40",
								"name": "expirationDatetime",
								"type": "uint40"
							},
							{
								"internalType": "uint24",
								"name": "objectionPeriod",
								"type": "uint24"
							},
							{
								"internalType": "uint8",
								"name": "config",
								"type": "uint8"
							},
							{
								"internalType": "uint8",
								"name": "marketCategory",
								"type": "uint8"
							},
							{
								"internalType": "uint8",
								"name": "baseUnitExp",
								"type": "uint8"
							},
							{
								"internalType": "int8",
								"name": "ndigit",
								"type": "int8"
							},
							{
								"internalType": "address",
								"name": "signerAddr",
								"type": "address"
							},
							{
								"internalType": "uint8",
								"name": "marketInterval",
								"type": "uint8"
							},
							{
								"internalType": "uint32",
								"name": "transactionFee0",
								"type": "uint32"
							},
							{
								"internalType": "address",
								"name": "feeTaker0",
								"type": "address"
							},
							{
								"internalType": "uint32",
								"name": "transactionFee1",
								"type": "uint32"
							},
							{
								"internalType": "uint32",
								"name": "transactionFeeSigner",
								"type": "uint32"
							},
							{
								"internalType": "address",
								"name": "feeTaker1",
								"type": "address"
							},
							{
								"internalType": "int128[]",
								"name": "strikes",
								"type": "int128[]"
							}
						],
						"internalType": "struct DigiOptionsLib.MarketBaseData",
						"name": "marketBaseData",
						"type": "tuple"
					}
				],
				"name": "calcBaseMarketHash",
				"outputs": [
					{
						"internalType": "bytes32",
						"name": "baseMarketHash",
						"type": "bytes32"
					}
				],
				"stateMutability": "pure",
				"type": "function"
			},
			{
				"inputs": [
					{
						"components": [
							{
								"internalType": "string",
								"name": "underlyingString",
								"type": "string"
							},
							{
								"internalType": "uint40",
								"name": "expirationDatetime",
								"type": "uint40"
							},
							{
								"internalType": "uint24",
								"name": "objectionPeriod",
								"type": "uint24"
							},
							{
								"internalType": "uint8",
								"name": "config",
								"type": "uint8"
							},
							{
								"internalType": "uint8",
								"name": "marketCategory",
								"type": "uint8"
							},
							{
								"internalType": "uint8",
								"name": "baseUnitExp",
								"type": "uint8"
							},
							{
								"internalType": "int8",
								"name": "ndigit",
								"type": "int8"
							},
							{
								"internalType": "address",
								"name": "signerAddr",
								"type": "address"
							},
							{
								"internalType": "uint8",
								"name": "marketInterval",
								"type": "uint8"
							},
							{
								"internalType": "uint32",
								"name": "transactionFee0",
								"type": "uint32"
							},
							{
								"internalType": "address",
								"name": "feeTaker0",
								"type": "address"
							},
							{
								"internalType": "uint32",
								"name": "transactionFee1",
								"type": "uint32"
							},
							{
								"internalType": "uint32",
								"name": "transactionFeeSigner",
								"type": "uint32"
							},
							{
								"internalType": "address",
								"name": "feeTaker1",
								"type": "address"
							},
							{
								"internalType": "int128[]",
								"name": "strikes",
								"type": "int128[]"
							}
						],
						"internalType": "struct DigiOptionsLib.MarketBaseData",
						"name": "marketBaseData",
						"type": "tuple"
					}
				],
				"name": "calcFactHashTest",
				"outputs": [
					{
						"internalType": "bytes32",
						"name": "marketHash",
						"type": "bytes32"
					}
				],
				"stateMutability": "pure",
				"type": "function"
			},
			{
				"inputs": [
					{
						"components": [
							{
								"internalType": "string",
								"name": "underlyingString",
								"type": "string"
							},
							{
								"internalType": "uint40",
								"name": "expirationDatetime",
								"type": "uint40"
							},
							{
								"internalType": "uint24",
								"name": "objectionPeriod",
								"type": "uint24"
							},
							{
								"internalType": "uint8",
								"name": "config",
								"type": "uint8"
							},
							{
								"internalType": "uint8",
								"name": "marketCategory",
								"type": "uint8"
							},
							{
								"internalType": "uint8",
								"name": "baseUnitExp",
								"type": "uint8"
							},
							{
								"internalType": "int8",
								"name": "ndigit",
								"type": "int8"
							},
							{
								"internalType": "address",
								"name": "signerAddr",
								"type": "address"
							},
							{
								"internalType": "uint8",
								"name": "marketInterval",
								"type": "uint8"
							},
							{
								"internalType": "uint32",
								"name": "transactionFee0",
								"type": "uint32"
							},
							{
								"internalType": "address",
								"name": "feeTaker0",
								"type": "address"
							},
							{
								"internalType": "uint32",
								"name": "transactionFee1",
								"type": "uint32"
							},
							{
								"internalType": "uint32",
								"name": "transactionFeeSigner",
								"type": "uint32"
							},
							{
								"internalType": "address",
								"name": "feeTaker1",
								"type": "address"
							},
							{
								"internalType": "int128[]",
								"name": "strikes",
								"type": "int128[]"
							}
						],
						"internalType": "struct DigiOptionsLib.MarketBaseData",
						"name": "marketBaseData",
						"type": "tuple"
					}
				],
				"name": "calcMarketHashTest",
				"outputs": [
					{
						"internalType": "bytes32",
						"name": "marketHash",
						"type": "bytes32"
					}
				],
				"stateMutability": "pure",
				"type": "function"
			},
			{
				"inputs": [
					{
						"internalType": "uint40",
						"name": "expirationDatetime",
						"type": "uint40"
					}
				],
				"name": "calcMarketIntervalTest",
				"outputs": [
					{
						"internalType": "uint8",
						"name": "interval",
						"type": "uint8"
					}
				],
				"stateMutability": "view",
				"type": "function"
			},
			{
				"inputs": [
					{
						"internalType": "uint256",
						"name": "calculatedMarketInterval",
						"type": "uint256"
					}
				],
				"name": "getDividerTest",
				"outputs": [
					{
						"internalType": "uint48",
						"name": "",
						"type": "uint48"
					}
				],
				"stateMutability": "pure",
				"type": "function"
			}
		],
		"evm": {
			"bytecode": {
				"linkReferences": {},
				"object": "0x608060405234801561001057600080fd5b50610d4d806100206000396000f3fe608060405234801561001057600080fd5b50600436106100675760003560e01c8063b04f77c711610050578063b04f77c7146100a8578063b0bdc44c146100c8578063b8a4bf1f146100db57610067565b8063351e482c1461006c578063761dd16f14610095575b600080fd5b61007f61007a36600461066f565b6100fb565b60405161008c9190610be4565b60405180910390f35b61007f6100a336600461066f565b61010c565b6100bb6100b6366004610818565b610117565b60405161008c9190610c88565b61007f6100d636600461066f565b610122565b6100ee6100e9366004610800565b61012d565b60405161008c9190610c75565b600061010682610138565b92915050565b600061010682610216565b6000610106826102ed565b6000610106826103b7565b60006101068261041a565b6000606082600001516040516020016101519190610bc8565b6040516020818303038152906040528051906020012083602001518460400151856060015186608001518760a001518860c001518961010001516040516020016101a2989796959493929190610982565b604080518083037fffffffffffffffffffffffffffffffffffffffffffffffffffffffffffffffe00181529190526060840151909150600116610208576101c08301516040516101f6918391602001610b31565b60405160208183030381529060405290505b805160209091012092915050565b60006060826000015160405160200161022f9190610bc8565b6040516020818303038152906040528051906020012083602001518460400151856060015186608001518760a001518860c001518961010001518a61014001518b6101a001518c60e001516040516020016102949b9a99989796959493929190610a3d565b604080517fffffffffffffffffffffffffffffffffffffffffffffffffffffffffffffffe0818403018152908290526101208501516101608601516101808701516101c08801519395506101f694869490602001610b58565b6000808061030864ffffffffff85164263ffffffff61044816565b90506303c267008110610350576040517f08c379a000000000000000000000000000000000000000000000000000000000815260040161034790610c3e565b60405180910390fd5b623b53808111156103655760015b91506103b0565b620a8c0081111561037757600361035e565b6201fa4081111561038957600461035e565b611c2081111561039a57600561035e565b6103848111156103ab57600661035e565b600791505b5092915050565b6000606082600001516040516020016103d09190610bc8565b6040516020818303038152906040528051906020012083602001518460400151856060015186608001518760a001518860c001516040516020016101a297969594939291906108cf565b600060606040518060600160405280602a8152602001610cee602a9139600184016006020151915050919050565b600061048a83836040518060400160405280601e81526020017f536166654d6174683a207375627472616374696f6e206f766572666c6f770000815250610491565b9392505050565b600081848411156104cf576040517f08c379a00000000000000000000000000000000000000000000000000000000081526004016103479190610bed565b505050900390565b803573ffffffffffffffffffffffffffffffffffffffff8116811461010657600080fd5b600082601f83011261050b578081fd5b813567ffffffffffffffff811115610521578182fd5b6020808202610531828201610c96565b8381529350818401858301828701840188101561054d57600080fd5b60009250825b8581101561057d57813580600f0b811461056b578485fd5b83529184019190840190600101610553565b50505050505092915050565b8035600081900b811461010657600080fd5b600082601f8301126105ab578081fd5b813567ffffffffffffffff8111156105c1578182fd5b6105f260207fffffffffffffffffffffffffffffffffffffffffffffffffffffffffffffffe0601f84011601610c96565b915080825283602082850101111561060957600080fd5b8060208401602084013760009082016020015292915050565b803562ffffff8116811461010657600080fd5b803563ffffffff8116811461010657600080fd5b803564ffffffffff8116811461010657600080fd5b803560ff8116811461010657600080fd5b600060208284031215610680578081fd5b813567ffffffffffffffff80821115610697578283fd5b6101e09184018086038313156106ab578384fd5b6106b483610c96565b81359350828411156106c4578485fd5b6106d08785840161059b565b81526106df8760208401610649565b60208201526106f18760408401610622565b6040820152610703876060840161065e565b6060820152610715876080840161065e565b60808201526107278760a0840161065e565b60a08201526107398760c08401610589565b60c082015261074b8760e084016104d7565b60e082015261010093506107618785840161065e565b84820152610120935061077687858401610635565b84820152610140935061078b878584016104d7565b8482015261016093506107a087858401610635565b8482015261018093506107b587858401610635565b848201526101a093506107ca878584016104d7565b848201526101c0935083820135838111156107e3578586fd5b6107ef888285016104fb565b948201949094529695505050505050565b600060208284031215610811578081fd5b5035919050565b600060208284031215610829578081fd5b813564ffffffffff8116811461048a578182fd5b60601b7fffffffffffffffffffffffffffffffffffffffff000000000000000000000000169052565b80516000906020808401835b83811015610891578151600f0b87529582019590820190600101610872565b509495945050505050565b60000b60f81b9052565b60f81b7fff00000000000000000000000000000000000000000000000000000000000000169052565b96875260d89590951b7fffffffffff00000000000000000000000000000000000000000000000000000016602087015260e89390931b7fffffff000000000000000000000000000000000000000000000000000000000016602586015260f891821b7fff00000000000000000000000000000000000000000000000000000000000000908116602887015290821b8116602986015291811b909116602a84015260009190910b901b602b820152602c0190565b97885260d89690961b7fffffffffff00000000000000000000000000000000000000000000000000000016602088015260e89490941b7fffffff000000000000000000000000000000000000000000000000000000000016602587015260f892831b7fff00000000000000000000000000000000000000000000000000000000000000908116602888015291831b82166029870152821b8116602a86015260009290920b811b602b8501529190911b16602c820152602d0190565b60008c82527fffffffffff0000000000000000000000000000000000000000000000000000008c60d81b1660208301527fffffff00000000000000000000000000000000000000000000000000000000008b60e81b1660258301527fff00000000000000000000000000000000000000000000000000000000000000808b60f81b166028840152808a60f81b16602984015250610add602a8301896108a6565b610aea602b83018861089c565b610af7602c8301876108a6565b610b04602d83018661083d565b610b11604183018561083d565b610b1e605583018461083d565b506069019b9a5050505050505050505050565b60008351610b43818460208801610cbd565b610b4f81840185610866565b95945050505050565b60008651610b6a818460208b01610cbd565b8083017fffffffff000000000000000000000000000000000000000000000000000000009150818860e01b168152818760e01b166004820152818660e01b166008820152610bbb600c820186610866565b9998505050505050505050565b60008251610bda818460208701610cbd565b9190910192915050565b90815260200190565b6000602082528251806020840152610c0c816040850160208701610cbd565b601f017fffffffffffffffffffffffffffffffffffffffffffffffffffffffffffffffe0169190910160400192915050565b60208082526015908201527f746f6f2066617220696e20746865206675747572650000000000000000000000604082015260600190565b65ffffffffffff91909116815260200190565b60ff91909116815260200190565b60405181810167ffffffffffffffff81118282101715610cb557600080fd5b604052919050565b60005b83811015610cd8578181015183820152602001610cc0565b83811115610ce7576000848401525b5050505056fe000000000000000000fa7d000000003b53800000000a8c0000000001fa40000000001c20000000000000a26469706673582212202b2b3998aa594812c68f241762d3bf6a3702979b6625fbd1c0e55d941a26668164736f6c63430006040033",
				"opcodes": "PUSH1 0x80 PUSH1 0x40 MSTORE CALLVALUE DUP1 ISZERO PUSH2 0x10 JUMPI PUSH1 0x0 DUP1 REVERT JUMPDEST POP PUSH2 0xD4D DUP1 PUSH2 0x20 PUSH1 0x0 CODECOPY PUSH1 0x0 RETURN INVALID PUSH1 0x80 PUSH1 0x40 MSTORE CALLVALUE DUP1 ISZERO PUSH2 0x10 JUMPI PUSH1 0x0 DUP1 REVERT JUMPDEST POP PUSH1 0x4 CALLDATASIZE LT PUSH2 0x67 JUMPI PUSH1 0x0 CALLDATALOAD PUSH1 0xE0 SHR DUP1 PUSH4 0xB04F77C7 GT PUSH2 0x50 JUMPI DUP1 PUSH4 0xB04F77C7 EQ PUSH2 0xA8 JUMPI DUP1 PUSH4 0xB0BDC44C EQ PUSH2 0xC8 JUMPI DUP1 PUSH4 0xB8A4BF1F EQ PUSH2 0xDB JUMPI PUSH2 0x67 JUMP JUMPDEST DUP1 PUSH4 0x351E482C EQ PUSH2 0x6C JUMPI DUP1 PUSH4 0x761DD16F EQ PUSH2 0x95 JUMPI JUMPDEST PUSH1 0x0 DUP1 REVERT JUMPDEST PUSH2 0x7F PUSH2 0x7A CALLDATASIZE PUSH1 0x4 PUSH2 0x66F JUMP JUMPDEST PUSH2 0xFB JUMP JUMPDEST PUSH1 0x40 MLOAD PUSH2 0x8C SWAP2 SWAP1 PUSH2 0xBE4 JUMP JUMPDEST PUSH1 0x40 MLOAD DUP1 SWAP2 SUB SWAP1 RETURN JUMPDEST PUSH2 0x7F PUSH2 0xA3 CALLDATASIZE PUSH1 0x4 PUSH2 0x66F JUMP JUMPDEST PUSH2 0x10C JUMP JUMPDEST PUSH2 0xBB PUSH2 0xB6 CALLDATASIZE PUSH1 0x4 PUSH2 0x818 JUMP JUMPDEST PUSH2 0x117 JUMP JUMPDEST PUSH1 0x40 MLOAD PUSH2 0x8C SWAP2 SWAP1 PUSH2 0xC88 JUMP JUMPDEST PUSH2 0x7F PUSH2 0xD6 CALLDATASIZE PUSH1 0x4 PUSH2 0x66F JUMP JUMPDEST PUSH2 0x122 JUMP JUMPDEST PUSH2 0xEE PUSH2 0xE9 CALLDATASIZE PUSH1 0x4 PUSH2 0x800 JUMP JUMPDEST PUSH2 0x12D JUMP JUMPDEST PUSH1 0x40 MLOAD PUSH2 0x8C SWAP2 SWAP1 PUSH2 0xC75 JUMP JUMPDEST PUSH1 0x0 PUSH2 0x106 DUP3 PUSH2 0x138 JUMP JUMPDEST SWAP3 SWAP2 POP POP JUMP JUMPDEST PUSH1 0x0 PUSH2 0x106 DUP3 PUSH2 0x216 JUMP JUMPDEST PUSH1 0x0 PUSH2 0x106 DUP3 PUSH2 0x2ED JUMP JUMPDEST PUSH1 0x0 PUSH2 0x106 DUP3 PUSH2 0x3B7 JUMP JUMPDEST PUSH1 0x0 PUSH2 0x106 DUP3 PUSH2 0x41A JUMP JUMPDEST PUSH1 0x0 PUSH1 0x60 DUP3 PUSH1 0x0 ADD MLOAD PUSH1 0x40 MLOAD PUSH1 0x20 ADD PUSH2 0x151 SWAP2 SWAP1 PUSH2 0xBC8 JUMP JUMPDEST PUSH1 0x40 MLOAD PUSH1 0x20 DUP2 DUP4 SUB SUB DUP2 MSTORE SWAP1 PUSH1 0x40 MSTORE DUP1 MLOAD SWAP1 PUSH1 0x20 ADD KECCAK256 DUP4 PUSH1 0x20 ADD MLOAD DUP5 PUSH1 0x40 ADD MLOAD DUP6 PUSH1 0x60 ADD MLOAD DUP7 PUSH1 0x80 ADD MLOAD DUP8 PUSH1 0xA0 ADD MLOAD DUP9 PUSH1 0xC0 ADD MLOAD DUP10 PUSH2 0x100 ADD MLOAD PUSH1 0x40 MLOAD PUSH1 0x20 ADD PUSH2 0x1A2 SWAP9 SWAP8 SWAP7 SWAP6 SWAP5 SWAP4 SWAP3 SWAP2 SWAP1 PUSH2 0x982 JUMP JUMPDEST PUSH1 0x40 DUP1 MLOAD DUP1 DUP4 SUB PUSH32 0xFFFFFFFFFFFFFFFFFFFFFFFFFFFFFFFFFFFFFFFFFFFFFFFFFFFFFFFFFFFFFFE0 ADD DUP2 MSTORE SWAP2 SWAP1 MSTORE PUSH1 0x60 DUP5 ADD MLOAD SWAP1 SWAP2 POP PUSH1 0x1 AND PUSH2 0x208 JUMPI PUSH2 0x1C0 DUP4 ADD MLOAD PUSH1 0x40 MLOAD PUSH2 0x1F6 SWAP2 DUP4 SWAP2 PUSH1 0x20 ADD PUSH2 0xB31 JUMP JUMPDEST PUSH1 0x40 MLOAD PUSH1 0x20 DUP2 DUP4 SUB SUB DUP2 MSTORE SWAP1 PUSH1 0x40 MSTORE SWAP1 POP JUMPDEST DUP1 MLOAD PUSH1 0x20 SWAP1 SWAP2 ADD KECCAK256 SWAP3 SWAP2 POP POP JUMP JUMPDEST PUSH1 0x0 PUSH1 0x60 DUP3 PUSH1 0x0 ADD MLOAD PUSH1 0x40 MLOAD PUSH1 0x20 ADD PUSH2 0x22F SWAP2 SWAP1 PUSH2 0xBC8 JUMP JUMPDEST PUSH1 0x40 MLOAD PUSH1 0x20 DUP2 DUP4 SUB SUB DUP2 MSTORE SWAP1 PUSH1 0x40 MSTORE DUP1 MLOAD SWAP1 PUSH1 0x20 ADD KECCAK256 DUP4 PUSH1 0x20 ADD MLOAD DUP5 PUSH1 0x40 ADD MLOAD DUP6 PUSH1 0x60 ADD MLOAD DUP7 PUSH1 0x80 ADD MLOAD DUP8 PUSH1 0xA0 ADD MLOAD DUP9 PUSH1 0xC0 ADD MLOAD DUP10 PUSH2 0x100 ADD MLOAD DUP11 PUSH2 0x140 ADD MLOAD DUP12 PUSH2 0x1A0 ADD MLOAD DUP13 PUSH1 0xE0 ADD MLOAD PUSH1 0x40 MLOAD PUSH1 0x20 ADD PUSH2 0x294 SWAP12 SWAP11 SWAP10 SWAP9 SWAP8 SWAP7 SWAP6 SWAP5 SWAP4 SWAP3 SWAP2 SWAP1 PUSH2 0xA3D JUMP JUMPDEST PUSH1 0x40 DUP1 MLOAD PUSH32 0xFFFFFFFFFFFFFFFFFFFFFFFFFFFFFFFFFFFFFFFFFFFFFFFFFFFFFFFFFFFFFFE0 DUP2 DUP5 SUB ADD DUP2 MSTORE SWAP1 DUP3 SWAP1 MSTORE PUSH2 0x120 DUP6 ADD MLOAD PUSH2 0x160 DUP7 ADD MLOAD PUSH2 0x180 DUP8 ADD MLOAD PUSH2 0x1C0 DUP9 ADD MLOAD SWAP4 SWAP6 POP PUSH2 0x1F6 SWAP5 DUP7 SWAP5 SWAP1 PUSH1 0x20 ADD PUSH2 0xB58 JUMP JUMPDEST PUSH1 0x0 DUP1 DUP1 PUSH2 0x308 PUSH5 0xFFFFFFFFFF DUP6 AND TIMESTAMP PUSH4 0xFFFFFFFF PUSH2 0x448 AND JUMP JUMPDEST SWAP1 POP PUSH4 0x3C26700 DUP2 LT PUSH2 0x350 JUMPI PUSH1 0x40 MLOAD PUSH32 0x8C379A000000000000000000000000000000000000000000000000000000000 DUP2 MSTORE PUSH1 0x4 ADD PUSH2 0x347 SWAP1 PUSH2 0xC3E JUMP JUMPDEST PUSH1 0x40 MLOAD DUP1 SWAP2 SUB SWAP1 REVERT JUMPDEST PUSH3 0x3B5380 DUP2 GT ISZERO PUSH2 0x365 JUMPI PUSH1 0x1 JUMPDEST SWAP2 POP PUSH2 0x3B0 JUMP JUMPDEST PUSH3 0xA8C00 DUP2 GT ISZERO PUSH2 0x377 JUMPI PUSH1 0x3 PUSH2 0x35E JUMP JUMPDEST PUSH3 0x1FA40 DUP2 GT ISZERO PUSH2 0x389 JUMPI PUSH1 0x4 PUSH2 0x35E JUMP JUMPDEST PUSH2 0x1C20 DUP2 GT ISZERO PUSH2 0x39A JUMPI PUSH1 0x5 PUSH2 0x35E JUMP JUMPDEST PUSH2 0x384 DUP2 GT ISZERO PUSH2 0x3AB JUMPI PUSH1 0x6 PUSH2 0x35E JUMP JUMPDEST PUSH1 0x7 SWAP2 POP JUMPDEST POP SWAP3 SWAP2 POP POP JUMP JUMPDEST PUSH1 0x0 PUSH1 0x60 DUP3 PUSH1 0x0 ADD MLOAD PUSH1 0x40 MLOAD PUSH1 0x20 ADD PUSH2 0x3D0 SWAP2 SWAP1 PUSH2 0xBC8 JUMP JUMPDEST PUSH1 0x40 MLOAD PUSH1 0x20 DUP2 DUP4 SUB SUB DUP2 MSTORE SWAP1 PUSH1 0x40 MSTORE DUP1 MLOAD SWAP1 PUSH1 0x20 ADD KECCAK256 DUP4 PUSH1 0x20 ADD MLOAD DUP5 PUSH1 0x40 ADD MLOAD DUP6 PUSH1 0x60 ADD MLOAD DUP7 PUSH1 0x80 ADD MLOAD DUP8 PUSH1 0xA0 ADD MLOAD DUP9 PUSH1 0xC0 ADD MLOAD PUSH1 0x40 MLOAD PUSH1 0x20 ADD PUSH2 0x1A2 SWAP8 SWAP7 SWAP6 SWAP5 SWAP4 SWAP3 SWAP2 SWAP1 PUSH2 0x8CF JUMP JUMPDEST PUSH1 0x0 PUSH1 0x60 PUSH1 0x40 MLOAD DUP1 PUSH1 0x60 ADD PUSH1 0x40 MSTORE DUP1 PUSH1 0x2A DUP2 MSTORE PUSH1 0x20 ADD PUSH2 0xCEE PUSH1 0x2A SWAP2 CODECOPY PUSH1 0x1 DUP5 ADD PUSH1 0x6 MUL ADD MLOAD SWAP2 POP POP SWAP2 SWAP1 POP JUMP JUMPDEST PUSH1 0x0 PUSH2 0x48A DUP4 DUP4 PUSH1 0x40 MLOAD DUP1 PUSH1 0x40 ADD PUSH1 0x40 MSTORE DUP1 PUSH1 0x1E DUP2 MSTORE PUSH1 0x20 ADD PUSH32 0x536166654D6174683A207375627472616374696F6E206F766572666C6F770000 DUP2 MSTORE POP PUSH2 0x491 JUMP JUMPDEST SWAP4 SWAP3 POP POP POP JUMP JUMPDEST PUSH1 0x0 DUP2 DUP5 DUP5 GT ISZERO PUSH2 0x4CF JUMPI PUSH1 0x40 MLOAD PUSH32 0x8C379A000000000000000000000000000000000000000000000000000000000 DUP2 MSTORE PUSH1 0x4 ADD PUSH2 0x347 SWAP2 SWAP1 PUSH2 0xBED JUMP JUMPDEST POP POP POP SWAP1 SUB SWAP1 JUMP JUMPDEST DUP1 CALLDATALOAD PUSH20 0xFFFFFFFFFFFFFFFFFFFFFFFFFFFFFFFFFFFFFFFF DUP2 AND DUP2 EQ PUSH2 0x106 JUMPI PUSH1 0x0 DUP1 REVERT JUMPDEST PUSH1 0x0 DUP3 PUSH1 0x1F DUP4 ADD SLT PUSH2 0x50B JUMPI DUP1 DUP2 REVERT JUMPDEST DUP2 CALLDATALOAD PUSH8 0xFFFFFFFFFFFFFFFF DUP2 GT ISZERO PUSH2 0x521 JUMPI DUP2 DUP3 REVERT JUMPDEST PUSH1 0x20 DUP1 DUP3 MUL PUSH2 0x531 DUP3 DUP3 ADD PUSH2 0xC96 JUMP JUMPDEST DUP4 DUP2 MSTORE SWAP4 POP DUP2 DUP5 ADD DUP6 DUP4 ADD DUP3 DUP8 ADD DUP5 ADD DUP9 LT ISZERO PUSH2 0x54D JUMPI PUSH1 0x0 DUP1 REVERT JUMPDEST PUSH1 0x0 SWAP3 POP DUP3 JUMPDEST DUP6 DUP2 LT ISZERO PUSH2 0x57D JUMPI DUP2 CALLDATALOAD DUP1 PUSH1 0xF SIGNEXTEND DUP2 EQ PUSH2 0x56B JUMPI DUP5 DUP6 REVERT JUMPDEST DUP4 MSTORE SWAP2 DUP5 ADD SWAP2 SWAP1 DUP5 ADD SWAP1 PUSH1 0x1 ADD PUSH2 0x553 JUMP JUMPDEST POP POP POP POP POP POP SWAP3 SWAP2 POP POP JUMP JUMPDEST DUP1 CALLDATALOAD PUSH1 0x0 DUP2 SWAP1 SIGNEXTEND DUP2 EQ PUSH2 0x106 JUMPI PUSH1 0x0 DUP1 REVERT JUMPDEST PUSH1 0x0 DUP3 PUSH1 0x1F DUP4 ADD SLT PUSH2 0x5AB JUMPI DUP1 DUP2 REVERT JUMPDEST DUP2 CALLDATALOAD PUSH8 0xFFFFFFFFFFFFFFFF DUP2 GT ISZERO PUSH2 0x5C1 JUMPI DUP2 DUP3 REVERT JUMPDEST PUSH2 0x5F2 PUSH1 0x20 PUSH32 0xFFFFFFFFFFFFFFFFFFFFFFFFFFFFFFFFFFFFFFFFFFFFFFFFFFFFFFFFFFFFFFE0 PUSH1 0x1F DUP5 ADD AND ADD PUSH2 0xC96 JUMP JUMPDEST SWAP2 POP DUP1 DUP3 MSTORE DUP4 PUSH1 0x20 DUP3 DUP6 ADD ADD GT ISZERO PUSH2 0x609 JUMPI PUSH1 0x0 DUP1 REVERT JUMPDEST DUP1 PUSH1 0x20 DUP5 ADD PUSH1 0x20 DUP5 ADD CALLDATACOPY PUSH1 0x0 SWAP1 DUP3 ADD PUSH1 0x20 ADD MSTORE SWAP3 SWAP2 POP POP JUMP JUMPDEST DUP1 CALLDATALOAD PUSH3 0xFFFFFF DUP2 AND DUP2 EQ PUSH2 0x106 JUMPI PUSH1 0x0 DUP1 REVERT JUMPDEST DUP1 CALLDATALOAD PUSH4 0xFFFFFFFF DUP2 AND DUP2 EQ PUSH2 0x106 JUMPI PUSH1 0x0 DUP1 REVERT JUMPDEST DUP1 CALLDATALOAD PUSH5 0xFFFFFFFFFF DUP2 AND DUP2 EQ PUSH2 0x106 JUMPI PUSH1 0x0 DUP1 REVERT JUMPDEST DUP1 CALLDATALOAD PUSH1 0xFF DUP2 AND DUP2 EQ PUSH2 0x106 JUMPI PUSH1 0x0 DUP1 REVERT JUMPDEST PUSH1 0x0 PUSH1 0x20 DUP3 DUP5 SUB SLT ISZERO PUSH2 0x680 JUMPI DUP1 DUP2 REVERT JUMPDEST DUP2 CALLDATALOAD PUSH8 0xFFFFFFFFFFFFFFFF DUP1 DUP3 GT ISZERO PUSH2 0x697 JUMPI DUP3 DUP4 REVERT JUMPDEST PUSH2 0x1E0 SWAP2 DUP5 ADD DUP1 DUP7 SUB DUP4 SGT ISZERO PUSH2 0x6AB JUMPI DUP4 DUP5 REVERT JUMPDEST PUSH2 0x6B4 DUP4 PUSH2 0xC96 JUMP JUMPDEST DUP2 CALLDATALOAD SWAP4 POP DUP3 DUP5 GT ISZERO PUSH2 0x6C4 JUMPI DUP5 DUP6 REVERT JUMPDEST PUSH2 0x6D0 DUP8 DUP6 DUP5 ADD PUSH2 0x59B JUMP JUMPDEST DUP2 MSTORE PUSH2 0x6DF DUP8 PUSH1 0x20 DUP5 ADD PUSH2 0x649 JUMP JUMPDEST PUSH1 0x20 DUP3 ADD MSTORE PUSH2 0x6F1 DUP8 PUSH1 0x40 DUP5 ADD PUSH2 0x622 JUMP JUMPDEST PUSH1 0x40 DUP3 ADD MSTORE PUSH2 0x703 DUP8 PUSH1 0x60 DUP5 ADD PUSH2 0x65E JUMP JUMPDEST PUSH1 0x60 DUP3 ADD MSTORE PUSH2 0x715 DUP8 PUSH1 0x80 DUP5 ADD PUSH2 0x65E JUMP JUMPDEST PUSH1 0x80 DUP3 ADD MSTORE PUSH2 0x727 DUP8 PUSH1 0xA0 DUP5 ADD PUSH2 0x65E JUMP JUMPDEST PUSH1 0xA0 DUP3 ADD MSTORE PUSH2 0x739 DUP8 PUSH1 0xC0 DUP5 ADD PUSH2 0x589 JUMP JUMPDEST PUSH1 0xC0 DUP3 ADD MSTORE PUSH2 0x74B DUP8 PUSH1 0xE0 DUP5 ADD PUSH2 0x4D7 JUMP JUMPDEST PUSH1 0xE0 DUP3 ADD MSTORE PUSH2 0x100 SWAP4 POP PUSH2 0x761 DUP8 DUP6 DUP5 ADD PUSH2 0x65E JUMP JUMPDEST DUP5 DUP3 ADD MSTORE PUSH2 0x120 SWAP4 POP PUSH2 0x776 DUP8 DUP6 DUP5 ADD PUSH2 0x635 JUMP JUMPDEST DUP5 DUP3 ADD MSTORE PUSH2 0x140 SWAP4 POP PUSH2 0x78B DUP8 DUP6 DUP5 ADD PUSH2 0x4D7 JUMP JUMPDEST DUP5 DUP3 ADD MSTORE PUSH2 0x160 SWAP4 POP PUSH2 0x7A0 DUP8 DUP6 DUP5 ADD PUSH2 0x635 JUMP JUMPDEST DUP5 DUP3 ADD MSTORE PUSH2 0x180 SWAP4 POP PUSH2 0x7B5 DUP8 DUP6 DUP5 ADD PUSH2 0x635 JUMP JUMPDEST DUP5 DUP3 ADD MSTORE PUSH2 0x1A0 SWAP4 POP PUSH2 0x7CA DUP8 DUP6 DUP5 ADD PUSH2 0x4D7 JUMP JUMPDEST DUP5 DUP3 ADD MSTORE PUSH2 0x1C0 SWAP4 POP DUP4 DUP3 ADD CALLDATALOAD DUP4 DUP2 GT ISZERO PUSH2 0x7E3 JUMPI DUP6 DUP7 REVERT JUMPDEST PUSH2 0x7EF DUP9 DUP3 DUP6 ADD PUSH2 0x4FB JUMP JUMPDEST SWAP5 DUP3 ADD SWAP5 SWAP1 SWAP5 MSTORE SWAP7 SWAP6 POP POP POP POP POP POP JUMP JUMPDEST PUSH1 0x0 PUSH1 0x20 DUP3 DUP5 SUB SLT ISZERO PUSH2 0x811 JUMPI DUP1 DUP2 REVERT JUMPDEST POP CALLDATALOAD SWAP2 SWAP1 POP JUMP JUMPDEST PUSH1 0x0 PUSH1 0x20 DUP3 DUP5 SUB SLT ISZERO PUSH2 0x829 JUMPI DUP1 DUP2 REVERT JUMPDEST DUP2 CALLDATALOAD PUSH5 0xFFFFFFFFFF DUP2 AND DUP2 EQ PUSH2 0x48A JUMPI DUP2 DUP3 REVERT JUMPDEST PUSH1 0x60 SHL PUSH32 0xFFFFFFFFFFFFFFFFFFFFFFFFFFFFFFFFFFFFFFFF000000000000000000000000 AND SWAP1 MSTORE JUMP JUMPDEST DUP1 MLOAD PUSH1 0x0 SWAP1 PUSH1 0x20 DUP1 DUP5 ADD DUP4 JUMPDEST DUP4 DUP2 LT ISZERO PUSH2 0x891 JUMPI DUP2 MLOAD PUSH1 0xF SIGNEXTEND DUP8 MSTORE SWAP6 DUP3 ADD SWAP6 SWAP1 DUP3 ADD SWAP1 PUSH1 0x1 ADD PUSH2 0x872 JUMP JUMPDEST POP SWAP5 SWAP6 SWAP5 POP POP POP POP POP JUMP JUMPDEST PUSH1 0x0 SIGNEXTEND PUSH1 0xF8 SHL SWAP1 MSTORE JUMP JUMPDEST PUSH1 0xF8 SHL PUSH32 0xFF00000000000000000000000000000000000000000000000000000000000000 AND SWAP1 MSTORE JUMP JUMPDEST SWAP7 DUP8 MSTORE PUSH1 0xD8 SWAP6 SWAP1 SWAP6 SHL PUSH32 0xFFFFFFFFFF000000000000000000000000000000000000000000000000000000 AND PUSH1 0x20 DUP8 ADD MSTORE PUSH1 0xE8 SWAP4 SWAP1 SWAP4 SHL PUSH32 0xFFFFFF0000000000000000000000000000000000000000000000000000000000 AND PUSH1 0x25 DUP7 ADD MSTORE PUSH1 0xF8 SWAP2 DUP3 SHL PUSH32 0xFF00000000000000000000000000000000000000000000000000000000000000 SWAP1 DUP2 AND PUSH1 0x28 DUP8 ADD MSTORE SWAP1 DUP3 SHL DUP2 AND PUSH1 0x29 DUP7 ADD MSTORE SWAP2 DUP2 SHL SWAP1 SWAP2 AND PUSH1 0x2A DUP5 ADD MSTORE PUSH1 0x0 SWAP2 SWAP1 SWAP2 SIGNEXTEND SWAP1 SHL PUSH1 0x2B DUP3 ADD MSTORE PUSH1 0x2C ADD SWAP1 JUMP JUMPDEST SWAP8 DUP9 MSTORE PUSH1 0xD8 SWAP7 SWAP1 SWAP7 SHL PUSH32 0xFFFFFFFFFF000000000000000000000000000000000000000000000000000000 AND PUSH1 0x20 DUP9 ADD MSTORE PUSH1 0xE8 SWAP5 SWAP1 SWAP5 SHL PUSH32 0xFFFFFF0000000000000000000000000000000000000000000000000000000000 AND PUSH1 0x25 DUP8 ADD MSTORE PUSH1 0xF8 SWAP3 DUP4 SHL PUSH32 0xFF00000000000000000000000000000000000000000000000000000000000000 SWAP1 DUP2 AND PUSH1 0x28 DUP9 ADD MSTORE SWAP2 DUP4 SHL DUP3 AND PUSH1 0x29 DUP8 ADD MSTORE DUP3 SHL DUP2 AND PUSH1 0x2A DUP7 ADD MSTORE PUSH1 0x0 SWAP3 SWAP1 SWAP3 SIGNEXTEND DUP2 SHL PUSH1 0x2B DUP6 ADD MSTORE SWAP2 SWAP1 SWAP2 SHL AND PUSH1 0x2C DUP3 ADD MSTORE PUSH1 0x2D ADD SWAP1 JUMP JUMPDEST PUSH1 0x0 DUP13 DUP3 MSTORE PUSH32 0xFFFFFFFFFF000000000000000000000000000000000000000000000000000000 DUP13 PUSH1 0xD8 SHL AND PUSH1 0x20 DUP4 ADD MSTORE PUSH32 0xFFFFFF0000000000000000000000000000000000000000000000000000000000 DUP12 PUSH1 0xE8 SHL AND PUSH1 0x25 DUP4 ADD MSTORE PUSH32 0xFF00000000000000000000000000000000000000000000000000000000000000 DUP1 DUP12 PUSH1 0xF8 SHL AND PUSH1 0x28 DUP5 ADD MSTORE DUP1 DUP11 PUSH1 0xF8 SHL AND PUSH1 0x29 DUP5 ADD MSTORE POP PUSH2 0xADD PUSH1 0x2A DUP4 ADD DUP10 PUSH2 0x8A6 JUMP JUMPDEST PUSH2 0xAEA PUSH1 0x2B DUP4 ADD DUP9 PUSH2 0x89C JUMP JUMPDEST PUSH2 0xAF7 PUSH1 0x2C DUP4 ADD DUP8 PUSH2 0x8A6 JUMP JUMPDEST PUSH2 0xB04 PUSH1 0x2D DUP4 ADD DUP7 PUSH2 0x83D JUMP JUMPDEST PUSH2 0xB11 PUSH1 0x41 DUP4 ADD DUP6 PUSH2 0x83D JUMP JUMPDEST PUSH2 0xB1E PUSH1 0x55 DUP4 ADD DUP5 PUSH2 0x83D JUMP JUMPDEST POP PUSH1 0x69 ADD SWAP12 SWAP11 POP POP POP POP POP POP POP POP POP POP POP JUMP JUMPDEST PUSH1 0x0 DUP4 MLOAD PUSH2 0xB43 DUP2 DUP5 PUSH1 0x20 DUP9 ADD PUSH2 0xCBD JUMP JUMPDEST PUSH2 0xB4F DUP2 DUP5 ADD DUP6 PUSH2 0x866 JUMP JUMPDEST SWAP6 SWAP5 POP POP POP POP POP JUMP JUMPDEST PUSH1 0x0 DUP7 MLOAD PUSH2 0xB6A DUP2 DUP5 PUSH1 0x20 DUP12 ADD PUSH2 0xCBD JUMP JUMPDEST DUP1 DUP4 ADD PUSH32 0xFFFFFFFF00000000000000000000000000000000000000000000000000000000 SWAP2 POP DUP2 DUP9 PUSH1 0xE0 SHL AND DUP2 MSTORE DUP2 DUP8 PUSH1 0xE0 SHL AND PUSH1 0x4 DUP3 ADD MSTORE DUP2 DUP7 PUSH1 0xE0 SHL AND PUSH1 0x8 DUP3 ADD MSTORE PUSH2 0xBBB PUSH1 0xC DUP3 ADD DUP7 PUSH2 0x866 JUMP JUMPDEST SWAP10 SWAP9 POP POP POP POP POP POP POP POP POP JUMP JUMPDEST PUSH1 0x0 DUP3 MLOAD PUSH2 0xBDA DUP2 DUP5 PUSH1 0x20 DUP8 ADD PUSH2 0xCBD JUMP JUMPDEST SWAP2 SWAP1 SWAP2 ADD SWAP3 SWAP2 POP POP JUMP JUMPDEST SWAP1 DUP2 MSTORE PUSH1 0x20 ADD SWAP1 JUMP JUMPDEST PUSH1 0x0 PUSH1 0x20 DUP3 MSTORE DUP3 MLOAD DUP1 PUSH1 0x20 DUP5 ADD MSTORE PUSH2 0xC0C DUP2 PUSH1 0x40 DUP6 ADD PUSH1 0x20 DUP8 ADD PUSH2 0xCBD JUMP JUMPDEST PUSH1 0x1F ADD PUSH32 0xFFFFFFFFFFFFFFFFFFFFFFFFFFFFFFFFFFFFFFFFFFFFFFFFFFFFFFFFFFFFFFE0 AND SWAP2 SWAP1 SWAP2 ADD PUSH1 0x40 ADD SWAP3 SWAP2 POP POP JUMP JUMPDEST PUSH1 0x20 DUP1 DUP3 MSTORE PUSH1 0x15 SWAP1 DUP3 ADD MSTORE PUSH32 0x746F6F2066617220696E20746865206675747572650000000000000000000000 PUSH1 0x40 DUP3 ADD MSTORE PUSH1 0x60 ADD SWAP1 JUMP JUMPDEST PUSH6 0xFFFFFFFFFFFF SWAP2 SWAP1 SWAP2 AND DUP2 MSTORE PUSH1 0x20 ADD SWAP1 JUMP JUMPDEST PUSH1 0xFF SWAP2 SWAP1 SWAP2 AND DUP2 MSTORE PUSH1 0x20 ADD SWAP1 JUMP JUMPDEST PUSH1 0x40 MLOAD DUP2 DUP2 ADD PUSH8 0xFFFFFFFFFFFFFFFF DUP2 GT DUP3 DUP3 LT OR ISZERO PUSH2 0xCB5 JUMPI PUSH1 0x0 DUP1 REVERT JUMPDEST PUSH1 0x40 MSTORE SWAP2 SWAP1 POP JUMP JUMPDEST PUSH1 0x0 JUMPDEST DUP4 DUP2 LT ISZERO PUSH2 0xCD8 JUMPI DUP2 DUP2 ADD MLOAD DUP4 DUP3 ADD MSTORE PUSH1 0x20 ADD PUSH2 0xCC0 JUMP JUMPDEST DUP4 DUP2 GT ISZERO PUSH2 0xCE7 JUMPI PUSH1 0x0 DUP5 DUP5 ADD MSTORE JUMPDEST POP POP POP POP JUMP INVALID STOP STOP STOP STOP STOP STOP STOP STOP STOP STATICCALL PUSH30 0x3B53800000000A8C0000000001FA40000000001C200000000000 STOP LOG2 PUSH5 0x6970667358 0x22 SLT KECCAK256 0x2B 0x2B CODECOPY SWAP9 0xAA MSIZE 0x48 SLT 0xC6 DUP16 0x24 OR PUSH3 0xD3BF6A CALLDATACOPY MUL SWAP8 SWAP12 PUSH7 0x25FBD1C0E55D94 BYTE 0x26 PUSH7 0x8164736F6C6343 STOP MOD DIV STOP CALLER "
			}
		}
	},
	"sourceTreeHashHex": "0xe5621d7d4735de905c47051b9305daa2b162df51f7d2251db68a57f246236671",
	"compiler": {
		"name": "solc",
		"version": "soljson-v0.6.4+commit.1dca32f3.js",
		"settings": {
			"optimizer": {
				"enabled": true,
				"runs": 20000,
				"details": {
					"yul": true,
					"deduplicate": true,
					"cse": true,
					"constantOptimizer": true
				}
			},
			"outputSelection": {
				"*": {
					"*": [
						"abi",
						"evm.bytecode.object",
						"evm.bytecode.sourceMap",
						"evm.deployedBytecode.object",
						"evm.deployedBytecode.sourceMap"
					]
				}
			},
			"remappings": [
				"factsigner=/home/ulf/github/digioptions-contracts.js/node_modules/factsigner"
			]
		}
	},
	"chains": {}
}