{
	"schemaVersion": "2.0.0",
	"contractName": "DigiOptionsMeta",
	"compilerOutput": {
		"abi": [
			{
				"inputs": [
					{
						"components": [
							{
								"internalType": "contract DigiOptionsMarkets",
								"name": "digiOptionsMarkets",
								"type": "address"
							},
							{
								"components": [
									{
										"internalType": "string",
										"name": "underlyingString",
										"type": "string"
									},
									{
										"internalType": "uint40",
										"name": "expirationDatetime",
										"type": "uint40"
									},
									{
										"internalType": "uint24",
										"name": "objectionPeriod",
										"type": "uint24"
									},
									{
										"internalType": "uint8",
										"name": "config",
										"type": "uint8"
									},
									{
										"internalType": "uint8",
										"name": "marketCategory",
										"type": "uint8"
									},
									{
										"internalType": "uint8",
										"name": "baseUnitExp",
										"type": "uint8"
									},
									{
										"internalType": "int8",
										"name": "ndigit",
										"type": "int8"
									},
									{
										"internalType": "address",
										"name": "signerAddr",
										"type": "address"
									},
									{
										"internalType": "uint8",
										"name": "marketInterval",
										"type": "uint8"
									},
									{
										"internalType": "uint8",
										"name": "transactionFee0",
										"type": "uint8"
									},
									{
										"internalType": "uint8",
										"name": "transactionFee1",
										"type": "uint8"
									},
									{
										"internalType": "uint8",
										"name": "transactionFeeSigner",
										"type": "uint8"
									},
									{
										"internalType": "address",
										"name": "feeTaker0",
										"type": "address"
									},
									{
										"internalType": "address",
										"name": "feeTaker1",
										"type": "address"
									},
									{
										"internalType": "int128[]",
										"name": "strikes",
										"type": "int128[]"
									}
								],
								"internalType": "struct DigiOptionsLib.MarketBaseData",
								"name": "marketBaseData",
								"type": "tuple"
							},
							{
								"internalType": "bool",
								"name": "testMarket",
								"type": "bool"
							},
							{
								"components": [
									{
										"internalType": "uint8",
										"name": "v",
										"type": "uint8"
									},
									{
										"internalType": "bytes32",
										"name": "r",
										"type": "bytes32"
									},
									{
										"internalType": "bytes32",
										"name": "s",
										"type": "bytes32"
									}
								],
								"internalType": "struct FactsignerVerify.Signature",
								"name": "signature",
								"type": "tuple"
							}
						],
						"internalType": "struct DigiOptionsMeta.CreateAndRegisterData[]",
						"name": "createAndRegisterDataList",
						"type": "tuple[]"
					},
					{
						"components": [
							{
								"internalType": "contract DigiOptionsMarkets",
								"name": "digiOptionsMarkets",
								"type": "address"
							},
							{
								"internalType": "bytes32",
								"name": "marketHash",
								"type": "bytes32"
							},
							{
								"components": [
									{
										"internalType": "uint8",
										"name": "v",
										"type": "uint8"
									},
									{
										"internalType": "bytes32",
										"name": "r",
										"type": "bytes32"
									},
									{
										"internalType": "bytes32",
										"name": "s",
										"type": "bytes32"
									}
								],
								"internalType": "struct FactsignerVerify.Signature",
								"name": "signature",
								"type": "tuple"
							},
							{
								"internalType": "int256",
								"name": "value",
								"type": "int256"
							},
							{
								"internalType": "address[]",
								"name": "users",
								"type": "address[]"
							},
							{
								"internalType": "bytes32[]",
								"name": "offerHash",
								"type": "bytes32[]"
							}
						],
						"internalType": "struct DigiOptionsMeta.SettlementData[]",
						"name": "settlementDataList",
						"type": "tuple[]"
					}
				],
				"name": "createRegisterAndSettlement",
				"outputs": [],
				"stateMutability": "nonpayable",
				"type": "function"
			}
		],
		"evm": {
			"bytecode": {
				"linkReferences": {},
				"object": "0x608060405234801561001057600080fd5b50610d9a806100206000396000f3fe608060405234801561001057600080fd5b5060043610610047577c01000000000000000000000000000000000000000000000000000000006000350463da571e04811461004c575b600080fd5b61005f61005a366004610862565b610061565b005b60005b825181101561015057610075610234565b83828151811061008157fe5b60200260200101519050806000015173ffffffffffffffffffffffffffffffffffffffff16632556d8d08260200151836040015184606001516040518463ffffffff167c01000000000000000000000000000000000000000000000000000000000281526004016100f493929190610b65565b602060405180830381600087803b15801561010e57600080fd5b505af1158015610122573d6000803e3d6000fd5b505050506040513d601f19601f82011682018060405250810190610146919061099a565b5050600101610064565b5060005b815181101561022f5761016561027d565b82828151811061017157fe5b60200260200101519050806000015173ffffffffffffffffffffffffffffffffffffffff1663a1aa12b282602001518360400151846060015185608001518660a001516040518663ffffffff167c01000000000000000000000000000000000000000000000000000000000281526004016101f0959493929190610ab6565b600060405180830381600087803b15801561020a57600080fd5b505af115801561021e573d6000803e3d6000fd5b505060019093019250610154915050565b505050565b6040518060800160405280600073ffffffffffffffffffffffffffffffffffffffff1681526020016102646102b7565b815260006020820152604001610278610335565b905290565b6040805160c0810182526000808252602082015290810161029c610335565b81526020016000815260200160608152602001606081525090565b604080516101e08101825260608082526000602083018190529282018390528082018390526080820183905260a0820183905260c0820183905260e08201839052610100820183905261012082018390526101408201839052610160820183905261018082018390526101a08201929092526101c081019190915290565b604080516060810182526000808252602082018190529181019190915290565b803561036081610d3f565b92915050565b600082601f830112610376578081fd5b813561038961038482610d1f565b610cf8565b8181529150602080830190848101818402860182018710156103aa57600080fd5b60005b848110156103d25781356103c081610d3f565b845292820192908201906001016103ad565b505050505092915050565b600082601f8301126103ed578081fd5b81356103fb61038482610d1f565b81815291506020808301908481018184028601820187101561041c57600080fd5b60005b848110156103d25781358452928201929082019060010161041f565b600082601f83011261044b578081fd5b813561045961038482610d1f565b81815291506020808301908481018184028601820187101561047a57600080fd5b6000805b858110156104a857823580600f0b8114610496578283fd5b8552938301939183019160010161047e565b50505050505092915050565b600082601f8301126104c4578081fd5b81356104d261038482610d1f565b818152915060208083019084810160005b848110156103d25781358701610100807fffffffffffffffffffffffffffffffffffffffffffffffffffffffffffffffe0838c0301121561052357600080fd5b60c061052e81610cf8565b61053a8c888601610355565b81526040808501358883015260606105548e8288016107e6565b828401528386013581840152505060e0840135915067ffffffffffffffff8083111561057f57600080fd5b61058d8d8985880101610366565b60808301529284013592808411156105a457600080fd5b506105b38c88858701016103dd565b60a0820152875250505092820192908201906001016104e3565b8035801515811461036057600080fd5b8035600081900b811461036057600080fd5b600082601f8301126105ff578081fd5b813567ffffffffffffffff811115610615578182fd5b61064660207fffffffffffffffffffffffffffffffffffffffffffffffffffffffffffffffe0601f84011601610cf8565b915080825283602082850101111561065d57600080fd5b8060208401602084013760009082016020015292915050565b60006101e0808385031215610689578182fd5b61069281610cf8565b915050813567ffffffffffffffff808211156106ad57600080fd5b6106b9858386016105ef565b83526106c8856020860161083c565b60208401526106da8560408601610829565b60408401526106ec8560608601610851565b60608401526106fe8560808601610851565b60808401526107108560a08601610851565b60a08401526107228560c086016105dd565b60c08401526107348560e08601610355565b60e0840152610100915061074a85838601610851565b82840152610120915061075f85838601610851565b82840152610140915061077485838601610851565b82840152610160915061078985838601610851565b82840152610180915061079e85838601610355565b828401526101a091506107b385838601610355565b828401526101c0915081840135818111156107cd57600080fd5b6107d98682870161043b565b8385015250505092915050565b6000606082840312156107f7578081fd5b6108016060610cf8565b905061080d8383610851565b8152602082013560208201526040820135604082015292915050565b803562ffffff8116811461036057600080fd5b803564ffffffffff8116811461036057600080fd5b803560ff8116811461036057600080fd5b60008060408385031215610874578182fd5b823567ffffffffffffffff8082111561088b578384fd5b818501915085601f83011261089e578384fd5b81356108ac61038482610d1f565b81815260208082019190858101885b8581101561096b578135880160c07fffffffffffffffffffffffffffffffffffffffffffffffffffffffffffffffe0828f030112156108f8578a8bfd5b6109026080610cf8565b61090e8e868401610355565b8152604082013589811115610921578c8dfd5b61092f8f8783860101610676565b86830152506109418e606084016105cd565b60408201526109538e608084016107e6565b606082015286525093820193908201906001016108bb565b50919750880135945050505080821115610983578283fd5b50610990858286016104b4565b9150509250929050565b6000602082840312156109ab578081fd5b5051919050565b73ffffffffffffffffffffffffffffffffffffffff169052565b6000815180845260208085019450808401835b838110156109fe578151600f0b875295820195908201906001016109df565b509495945050505050565b15159052565b60000b9052565b60008151808452815b81811015610a3b57602081850181015186830182015201610a1f565b81811115610a4c5782602083870101525b50601f017fffffffffffffffffffffffffffffffffffffffffffffffffffffffffffffffe0169290920160200192915050565b805160ff16825260208082015190830152604090810151910152565b62ffffff169052565b64ffffffffff169052565b60ff169052565b600060e082018783526020610acd81850189610a7f565b6080840187905260e060a085015285519182905280860191610100850190845b81811015610b1f57845173ffffffffffffffffffffffffffffffffffffffff1683529383019391830191600101610aed565b505084810360c08601528551808252908201925081860190845b81811015610b5557825185529383019391830191600101610b39565b50929a9950505050505050505050565b600060a0825284516101e08060a0850152610b84610280850183610a16565b91506020870151610b9860c0860182610aa4565b506040870151610bab60e0860182610a9b565b506060870151610100610bc081870183610aaf565b60808901519150610120610bd681880184610aaf565b60a08a01519250610140610bec81890185610aaf565b60c08b01519350610160610c02818a0186610a0f565b60e08c01519450610180610c18818b01876109b2565b938c015194506101a093610c2e8a860187610aaf565b928c015194506101c092610c448a850187610aaf565b828d01519550610c56878b0187610aaf565b818d01519650610c6a6102008b0188610aaf565b8c01519550610c809150506102208801856109b2565b818a01519350610c946102408801856109b2565b808a015193505050507fffffffffffffffffffffffffffffffffffffffffffffffffffffffffffffff6084830301610260850152610cd282826109cc565b92505050610ce36020830185610a09565b610cf06040830184610a7f565b949350505050565b60405181810167ffffffffffffffff81118282101715610d1757600080fd5b604052919050565b600067ffffffffffffffff821115610d35578081fd5b5060209081020190565b73ffffffffffffffffffffffffffffffffffffffff81168114610d6157600080fd5b5056fea2646970667358221220b94be60e988aeadae676c2ed7a80b927dbf54445da1cbe048b9885803ae5c41164736f6c63430007000033",
				"opcodes": "PUSH1 0x80 PUSH1 0x40 MSTORE CALLVALUE DUP1 ISZERO PUSH2 0x10 JUMPI PUSH1 0x0 DUP1 REVERT JUMPDEST POP PUSH2 0xD9A DUP1 PUSH2 0x20 PUSH1 0x0 CODECOPY PUSH1 0x0 RETURN INVALID PUSH1 0x80 PUSH1 0x40 MSTORE CALLVALUE DUP1 ISZERO PUSH2 0x10 JUMPI PUSH1 0x0 DUP1 REVERT JUMPDEST POP PUSH1 0x4 CALLDATASIZE LT PUSH2 0x47 JUMPI PUSH29 0x100000000000000000000000000000000000000000000000000000000 PUSH1 0x0 CALLDATALOAD DIV PUSH4 0xDA571E04 DUP2 EQ PUSH2 0x4C JUMPI JUMPDEST PUSH1 0x0 DUP1 REVERT JUMPDEST PUSH2 0x5F PUSH2 0x5A CALLDATASIZE PUSH1 0x4 PUSH2 0x862 JUMP JUMPDEST PUSH2 0x61 JUMP JUMPDEST STOP JUMPDEST PUSH1 0x0 JUMPDEST DUP3 MLOAD DUP2 LT ISZERO PUSH2 0x150 JUMPI PUSH2 0x75 PUSH2 0x234 JUMP JUMPDEST DUP4 DUP3 DUP2 MLOAD DUP2 LT PUSH2 0x81 JUMPI INVALID JUMPDEST PUSH1 0x20 MUL PUSH1 0x20 ADD ADD MLOAD SWAP1 POP DUP1 PUSH1 0x0 ADD MLOAD PUSH20 0xFFFFFFFFFFFFFFFFFFFFFFFFFFFFFFFFFFFFFFFF AND PUSH4 0x2556D8D0 DUP3 PUSH1 0x20 ADD MLOAD DUP4 PUSH1 0x40 ADD MLOAD DUP5 PUSH1 0x60 ADD MLOAD PUSH1 0x40 MLOAD DUP5 PUSH4 0xFFFFFFFF AND PUSH29 0x100000000000000000000000000000000000000000000000000000000 MUL DUP2 MSTORE PUSH1 0x4 ADD PUSH2 0xF4 SWAP4 SWAP3 SWAP2 SWAP1 PUSH2 0xB65 JUMP JUMPDEST PUSH1 0x20 PUSH1 0x40 MLOAD DUP1 DUP4 SUB DUP2 PUSH1 0x0 DUP8 DUP1 EXTCODESIZE ISZERO DUP1 ISZERO PUSH2 0x10E JUMPI PUSH1 0x0 DUP1 REVERT JUMPDEST POP GAS CALL ISZERO DUP1 ISZERO PUSH2 0x122 JUMPI RETURNDATASIZE PUSH1 0x0 DUP1 RETURNDATACOPY RETURNDATASIZE PUSH1 0x0 REVERT JUMPDEST POP POP POP POP PUSH1 0x40 MLOAD RETURNDATASIZE PUSH1 0x1F NOT PUSH1 0x1F DUP3 ADD AND DUP3 ADD DUP1 PUSH1 0x40 MSTORE POP DUP2 ADD SWAP1 PUSH2 0x146 SWAP2 SWAP1 PUSH2 0x99A JUMP JUMPDEST POP POP PUSH1 0x1 ADD PUSH2 0x64 JUMP JUMPDEST POP PUSH1 0x0 JUMPDEST DUP2 MLOAD DUP2 LT ISZERO PUSH2 0x22F JUMPI PUSH2 0x165 PUSH2 0x27D JUMP JUMPDEST DUP3 DUP3 DUP2 MLOAD DUP2 LT PUSH2 0x171 JUMPI INVALID JUMPDEST PUSH1 0x20 MUL PUSH1 0x20 ADD ADD MLOAD SWAP1 POP DUP1 PUSH1 0x0 ADD MLOAD PUSH20 0xFFFFFFFFFFFFFFFFFFFFFFFFFFFFFFFFFFFFFFFF AND PUSH4 0xA1AA12B2 DUP3 PUSH1 0x20 ADD MLOAD DUP4 PUSH1 0x40 ADD MLOAD DUP5 PUSH1 0x60 ADD MLOAD DUP6 PUSH1 0x80 ADD MLOAD DUP7 PUSH1 0xA0 ADD MLOAD PUSH1 0x40 MLOAD DUP7 PUSH4 0xFFFFFFFF AND PUSH29 0x100000000000000000000000000000000000000000000000000000000 MUL DUP2 MSTORE PUSH1 0x4 ADD PUSH2 0x1F0 SWAP6 SWAP5 SWAP4 SWAP3 SWAP2 SWAP1 PUSH2 0xAB6 JUMP JUMPDEST PUSH1 0x0 PUSH1 0x40 MLOAD DUP1 DUP4 SUB DUP2 PUSH1 0x0 DUP8 DUP1 EXTCODESIZE ISZERO DUP1 ISZERO PUSH2 0x20A JUMPI PUSH1 0x0 DUP1 REVERT JUMPDEST POP GAS CALL ISZERO DUP1 ISZERO PUSH2 0x21E JUMPI RETURNDATASIZE PUSH1 0x0 DUP1 RETURNDATACOPY RETURNDATASIZE PUSH1 0x0 REVERT JUMPDEST POP POP PUSH1 0x1 SWAP1 SWAP4 ADD SWAP3 POP PUSH2 0x154 SWAP2 POP POP JUMP JUMPDEST POP POP POP JUMP JUMPDEST PUSH1 0x40 MLOAD DUP1 PUSH1 0x80 ADD PUSH1 0x40 MSTORE DUP1 PUSH1 0x0 PUSH20 0xFFFFFFFFFFFFFFFFFFFFFFFFFFFFFFFFFFFFFFFF AND DUP2 MSTORE PUSH1 0x20 ADD PUSH2 0x264 PUSH2 0x2B7 JUMP JUMPDEST DUP2 MSTORE PUSH1 0x0 PUSH1 0x20 DUP3 ADD MSTORE PUSH1 0x40 ADD PUSH2 0x278 PUSH2 0x335 JUMP JUMPDEST SWAP1 MSTORE SWAP1 JUMP JUMPDEST PUSH1 0x40 DUP1 MLOAD PUSH1 0xC0 DUP2 ADD DUP3 MSTORE PUSH1 0x0 DUP1 DUP3 MSTORE PUSH1 0x20 DUP3 ADD MSTORE SWAP1 DUP2 ADD PUSH2 0x29C PUSH2 0x335 JUMP JUMPDEST DUP2 MSTORE PUSH1 0x20 ADD PUSH1 0x0 DUP2 MSTORE PUSH1 0x20 ADD PUSH1 0x60 DUP2 MSTORE PUSH1 0x20 ADD PUSH1 0x60 DUP2 MSTORE POP SWAP1 JUMP JUMPDEST PUSH1 0x40 DUP1 MLOAD PUSH2 0x1E0 DUP2 ADD DUP3 MSTORE PUSH1 0x60 DUP1 DUP3 MSTORE PUSH1 0x0 PUSH1 0x20 DUP4 ADD DUP2 SWAP1 MSTORE SWAP3 DUP3 ADD DUP4 SWAP1 MSTORE DUP1 DUP3 ADD DUP4 SWAP1 MSTORE PUSH1 0x80 DUP3 ADD DUP4 SWAP1 MSTORE PUSH1 0xA0 DUP3 ADD DUP4 SWAP1 MSTORE PUSH1 0xC0 DUP3 ADD DUP4 SWAP1 MSTORE PUSH1 0xE0 DUP3 ADD DUP4 SWAP1 MSTORE PUSH2 0x100 DUP3 ADD DUP4 SWAP1 MSTORE PUSH2 0x120 DUP3 ADD DUP4 SWAP1 MSTORE PUSH2 0x140 DUP3 ADD DUP4 SWAP1 MSTORE PUSH2 0x160 DUP3 ADD DUP4 SWAP1 MSTORE PUSH2 0x180 DUP3 ADD DUP4 SWAP1 MSTORE PUSH2 0x1A0 DUP3 ADD SWAP3 SWAP1 SWAP3 MSTORE PUSH2 0x1C0 DUP2 ADD SWAP2 SWAP1 SWAP2 MSTORE SWAP1 JUMP JUMPDEST PUSH1 0x40 DUP1 MLOAD PUSH1 0x60 DUP2 ADD DUP3 MSTORE PUSH1 0x0 DUP1 DUP3 MSTORE PUSH1 0x20 DUP3 ADD DUP2 SWAP1 MSTORE SWAP2 DUP2 ADD SWAP2 SWAP1 SWAP2 MSTORE SWAP1 JUMP JUMPDEST DUP1 CALLDATALOAD PUSH2 0x360 DUP2 PUSH2 0xD3F JUMP JUMPDEST SWAP3 SWAP2 POP POP JUMP JUMPDEST PUSH1 0x0 DUP3 PUSH1 0x1F DUP4 ADD SLT PUSH2 0x376 JUMPI DUP1 DUP2 REVERT JUMPDEST DUP2 CALLDATALOAD PUSH2 0x389 PUSH2 0x384 DUP3 PUSH2 0xD1F JUMP JUMPDEST PUSH2 0xCF8 JUMP JUMPDEST DUP2 DUP2 MSTORE SWAP2 POP PUSH1 0x20 DUP1 DUP4 ADD SWAP1 DUP5 DUP2 ADD DUP2 DUP5 MUL DUP7 ADD DUP3 ADD DUP8 LT ISZERO PUSH2 0x3AA JUMPI PUSH1 0x0 DUP1 REVERT JUMPDEST PUSH1 0x0 JUMPDEST DUP5 DUP2 LT ISZERO PUSH2 0x3D2 JUMPI DUP2 CALLDATALOAD PUSH2 0x3C0 DUP2 PUSH2 0xD3F JUMP JUMPDEST DUP5 MSTORE SWAP3 DUP3 ADD SWAP3 SWAP1 DUP3 ADD SWAP1 PUSH1 0x1 ADD PUSH2 0x3AD JUMP JUMPDEST POP POP POP POP POP SWAP3 SWAP2 POP POP JUMP JUMPDEST PUSH1 0x0 DUP3 PUSH1 0x1F DUP4 ADD SLT PUSH2 0x3ED JUMPI DUP1 DUP2 REVERT JUMPDEST DUP2 CALLDATALOAD PUSH2 0x3FB PUSH2 0x384 DUP3 PUSH2 0xD1F JUMP JUMPDEST DUP2 DUP2 MSTORE SWAP2 POP PUSH1 0x20 DUP1 DUP4 ADD SWAP1 DUP5 DUP2 ADD DUP2 DUP5 MUL DUP7 ADD DUP3 ADD DUP8 LT ISZERO PUSH2 0x41C JUMPI PUSH1 0x0 DUP1 REVERT JUMPDEST PUSH1 0x0 JUMPDEST DUP5 DUP2 LT ISZERO PUSH2 0x3D2 JUMPI DUP2 CALLDATALOAD DUP5 MSTORE SWAP3 DUP3 ADD SWAP3 SWAP1 DUP3 ADD SWAP1 PUSH1 0x1 ADD PUSH2 0x41F JUMP JUMPDEST PUSH1 0x0 DUP3 PUSH1 0x1F DUP4 ADD SLT PUSH2 0x44B JUMPI DUP1 DUP2 REVERT JUMPDEST DUP2 CALLDATALOAD PUSH2 0x459 PUSH2 0x384 DUP3 PUSH2 0xD1F JUMP JUMPDEST DUP2 DUP2 MSTORE SWAP2 POP PUSH1 0x20 DUP1 DUP4 ADD SWAP1 DUP5 DUP2 ADD DUP2 DUP5 MUL DUP7 ADD DUP3 ADD DUP8 LT ISZERO PUSH2 0x47A JUMPI PUSH1 0x0 DUP1 REVERT JUMPDEST PUSH1 0x0 DUP1 JUMPDEST DUP6 DUP2 LT ISZERO PUSH2 0x4A8 JUMPI DUP3 CALLDATALOAD DUP1 PUSH1 0xF SIGNEXTEND DUP2 EQ PUSH2 0x496 JUMPI DUP3 DUP4 REVERT JUMPDEST DUP6 MSTORE SWAP4 DUP4 ADD SWAP4 SWAP2 DUP4 ADD SWAP2 PUSH1 0x1 ADD PUSH2 0x47E JUMP JUMPDEST POP POP POP POP POP POP SWAP3 SWAP2 POP POP JUMP JUMPDEST PUSH1 0x0 DUP3 PUSH1 0x1F DUP4 ADD SLT PUSH2 0x4C4 JUMPI DUP1 DUP2 REVERT JUMPDEST DUP2 CALLDATALOAD PUSH2 0x4D2 PUSH2 0x384 DUP3 PUSH2 0xD1F JUMP JUMPDEST DUP2 DUP2 MSTORE SWAP2 POP PUSH1 0x20 DUP1 DUP4 ADD SWAP1 DUP5 DUP2 ADD PUSH1 0x0 JUMPDEST DUP5 DUP2 LT ISZERO PUSH2 0x3D2 JUMPI DUP2 CALLDATALOAD DUP8 ADD PUSH2 0x100 DUP1 PUSH32 0xFFFFFFFFFFFFFFFFFFFFFFFFFFFFFFFFFFFFFFFFFFFFFFFFFFFFFFFFFFFFFFE0 DUP4 DUP13 SUB ADD SLT ISZERO PUSH2 0x523 JUMPI PUSH1 0x0 DUP1 REVERT JUMPDEST PUSH1 0xC0 PUSH2 0x52E DUP2 PUSH2 0xCF8 JUMP JUMPDEST PUSH2 0x53A DUP13 DUP9 DUP7 ADD PUSH2 0x355 JUMP JUMPDEST DUP2 MSTORE PUSH1 0x40 DUP1 DUP6 ADD CALLDATALOAD DUP9 DUP4 ADD MSTORE PUSH1 0x60 PUSH2 0x554 DUP15 DUP3 DUP9 ADD PUSH2 0x7E6 JUMP JUMPDEST DUP3 DUP5 ADD MSTORE DUP4 DUP7 ADD CALLDATALOAD DUP2 DUP5 ADD MSTORE POP POP PUSH1 0xE0 DUP5 ADD CALLDATALOAD SWAP2 POP PUSH8 0xFFFFFFFFFFFFFFFF DUP1 DUP4 GT ISZERO PUSH2 0x57F JUMPI PUSH1 0x0 DUP1 REVERT JUMPDEST PUSH2 0x58D DUP14 DUP10 DUP6 DUP9 ADD ADD PUSH2 0x366 JUMP JUMPDEST PUSH1 0x80 DUP4 ADD MSTORE SWAP3 DUP5 ADD CALLDATALOAD SWAP3 DUP1 DUP5 GT ISZERO PUSH2 0x5A4 JUMPI PUSH1 0x0 DUP1 REVERT JUMPDEST POP PUSH2 0x5B3 DUP13 DUP9 DUP6 DUP8 ADD ADD PUSH2 0x3DD JUMP JUMPDEST PUSH1 0xA0 DUP3 ADD MSTORE DUP8 MSTORE POP POP POP SWAP3 DUP3 ADD SWAP3 SWAP1 DUP3 ADD SWAP1 PUSH1 0x1 ADD PUSH2 0x4E3 JUMP JUMPDEST DUP1 CALLDATALOAD DUP1 ISZERO ISZERO DUP2 EQ PUSH2 0x360 JUMPI PUSH1 0x0 DUP1 REVERT JUMPDEST DUP1 CALLDATALOAD PUSH1 0x0 DUP2 SWAP1 SIGNEXTEND DUP2 EQ PUSH2 0x360 JUMPI PUSH1 0x0 DUP1 REVERT JUMPDEST PUSH1 0x0 DUP3 PUSH1 0x1F DUP4 ADD SLT PUSH2 0x5FF JUMPI DUP1 DUP2 REVERT JUMPDEST DUP2 CALLDATALOAD PUSH8 0xFFFFFFFFFFFFFFFF DUP2 GT ISZERO PUSH2 0x615 JUMPI DUP2 DUP3 REVERT JUMPDEST PUSH2 0x646 PUSH1 0x20 PUSH32 0xFFFFFFFFFFFFFFFFFFFFFFFFFFFFFFFFFFFFFFFFFFFFFFFFFFFFFFFFFFFFFFE0 PUSH1 0x1F DUP5 ADD AND ADD PUSH2 0xCF8 JUMP JUMPDEST SWAP2 POP DUP1 DUP3 MSTORE DUP4 PUSH1 0x20 DUP3 DUP6 ADD ADD GT ISZERO PUSH2 0x65D JUMPI PUSH1 0x0 DUP1 REVERT JUMPDEST DUP1 PUSH1 0x20 DUP5 ADD PUSH1 0x20 DUP5 ADD CALLDATACOPY PUSH1 0x0 SWAP1 DUP3 ADD PUSH1 0x20 ADD MSTORE SWAP3 SWAP2 POP POP JUMP JUMPDEST PUSH1 0x0 PUSH2 0x1E0 DUP1 DUP4 DUP6 SUB SLT ISZERO PUSH2 0x689 JUMPI DUP2 DUP3 REVERT JUMPDEST PUSH2 0x692 DUP2 PUSH2 0xCF8 JUMP JUMPDEST SWAP2 POP POP DUP2 CALLDATALOAD PUSH8 0xFFFFFFFFFFFFFFFF DUP1 DUP3 GT ISZERO PUSH2 0x6AD JUMPI PUSH1 0x0 DUP1 REVERT JUMPDEST PUSH2 0x6B9 DUP6 DUP4 DUP7 ADD PUSH2 0x5EF JUMP JUMPDEST DUP4 MSTORE PUSH2 0x6C8 DUP6 PUSH1 0x20 DUP7 ADD PUSH2 0x83C JUMP JUMPDEST PUSH1 0x20 DUP5 ADD MSTORE PUSH2 0x6DA DUP6 PUSH1 0x40 DUP7 ADD PUSH2 0x829 JUMP JUMPDEST PUSH1 0x40 DUP5 ADD MSTORE PUSH2 0x6EC DUP6 PUSH1 0x60 DUP7 ADD PUSH2 0x851 JUMP JUMPDEST PUSH1 0x60 DUP5 ADD MSTORE PUSH2 0x6FE DUP6 PUSH1 0x80 DUP7 ADD PUSH2 0x851 JUMP JUMPDEST PUSH1 0x80 DUP5 ADD MSTORE PUSH2 0x710 DUP6 PUSH1 0xA0 DUP7 ADD PUSH2 0x851 JUMP JUMPDEST PUSH1 0xA0 DUP5 ADD MSTORE PUSH2 0x722 DUP6 PUSH1 0xC0 DUP7 ADD PUSH2 0x5DD JUMP JUMPDEST PUSH1 0xC0 DUP5 ADD MSTORE PUSH2 0x734 DUP6 PUSH1 0xE0 DUP7 ADD PUSH2 0x355 JUMP JUMPDEST PUSH1 0xE0 DUP5 ADD MSTORE PUSH2 0x100 SWAP2 POP PUSH2 0x74A DUP6 DUP4 DUP7 ADD PUSH2 0x851 JUMP JUMPDEST DUP3 DUP5 ADD MSTORE PUSH2 0x120 SWAP2 POP PUSH2 0x75F DUP6 DUP4 DUP7 ADD PUSH2 0x851 JUMP JUMPDEST DUP3 DUP5 ADD MSTORE PUSH2 0x140 SWAP2 POP PUSH2 0x774 DUP6 DUP4 DUP7 ADD PUSH2 0x851 JUMP JUMPDEST DUP3 DUP5 ADD MSTORE PUSH2 0x160 SWAP2 POP PUSH2 0x789 DUP6 DUP4 DUP7 ADD PUSH2 0x851 JUMP JUMPDEST DUP3 DUP5 ADD MSTORE PUSH2 0x180 SWAP2 POP PUSH2 0x79E DUP6 DUP4 DUP7 ADD PUSH2 0x355 JUMP JUMPDEST DUP3 DUP5 ADD MSTORE PUSH2 0x1A0 SWAP2 POP PUSH2 0x7B3 DUP6 DUP4 DUP7 ADD PUSH2 0x355 JUMP JUMPDEST DUP3 DUP5 ADD MSTORE PUSH2 0x1C0 SWAP2 POP DUP2 DUP5 ADD CALLDATALOAD DUP2 DUP2 GT ISZERO PUSH2 0x7CD JUMPI PUSH1 0x0 DUP1 REVERT JUMPDEST PUSH2 0x7D9 DUP7 DUP3 DUP8 ADD PUSH2 0x43B JUMP JUMPDEST DUP4 DUP6 ADD MSTORE POP POP POP SWAP3 SWAP2 POP POP JUMP JUMPDEST PUSH1 0x0 PUSH1 0x60 DUP3 DUP5 SUB SLT ISZERO PUSH2 0x7F7 JUMPI DUP1 DUP2 REVERT JUMPDEST PUSH2 0x801 PUSH1 0x60 PUSH2 0xCF8 JUMP JUMPDEST SWAP1 POP PUSH2 0x80D DUP4 DUP4 PUSH2 0x851 JUMP JUMPDEST DUP2 MSTORE PUSH1 0x20 DUP3 ADD CALLDATALOAD PUSH1 0x20 DUP3 ADD MSTORE PUSH1 0x40 DUP3 ADD CALLDATALOAD PUSH1 0x40 DUP3 ADD MSTORE SWAP3 SWAP2 POP POP JUMP JUMPDEST DUP1 CALLDATALOAD PUSH3 0xFFFFFF DUP2 AND DUP2 EQ PUSH2 0x360 JUMPI PUSH1 0x0 DUP1 REVERT JUMPDEST DUP1 CALLDATALOAD PUSH5 0xFFFFFFFFFF DUP2 AND DUP2 EQ PUSH2 0x360 JUMPI PUSH1 0x0 DUP1 REVERT JUMPDEST DUP1 CALLDATALOAD PUSH1 0xFF DUP2 AND DUP2 EQ PUSH2 0x360 JUMPI PUSH1 0x0 DUP1 REVERT JUMPDEST PUSH1 0x0 DUP1 PUSH1 0x40 DUP4 DUP6 SUB SLT ISZERO PUSH2 0x874 JUMPI DUP2 DUP3 REVERT JUMPDEST DUP3 CALLDATALOAD PUSH8 0xFFFFFFFFFFFFFFFF DUP1 DUP3 GT ISZERO PUSH2 0x88B JUMPI DUP4 DUP5 REVERT JUMPDEST DUP2 DUP6 ADD SWAP2 POP DUP6 PUSH1 0x1F DUP4 ADD SLT PUSH2 0x89E JUMPI DUP4 DUP5 REVERT JUMPDEST DUP2 CALLDATALOAD PUSH2 0x8AC PUSH2 0x384 DUP3 PUSH2 0xD1F JUMP JUMPDEST DUP2 DUP2 MSTORE PUSH1 0x20 DUP1 DUP3 ADD SWAP2 SWAP1 DUP6 DUP2 ADD DUP9 JUMPDEST DUP6 DUP2 LT ISZERO PUSH2 0x96B JUMPI DUP2 CALLDATALOAD DUP9 ADD PUSH1 0xC0 PUSH32 0xFFFFFFFFFFFFFFFFFFFFFFFFFFFFFFFFFFFFFFFFFFFFFFFFFFFFFFFFFFFFFFE0 DUP3 DUP16 SUB ADD SLT ISZERO PUSH2 0x8F8 JUMPI DUP11 DUP12 REVERT JUMPDEST PUSH2 0x902 PUSH1 0x80 PUSH2 0xCF8 JUMP JUMPDEST PUSH2 0x90E DUP15 DUP7 DUP5 ADD PUSH2 0x355 JUMP JUMPDEST DUP2 MSTORE PUSH1 0x40 DUP3 ADD CALLDATALOAD DUP10 DUP2 GT ISZERO PUSH2 0x921 JUMPI DUP13 DUP14 REVERT JUMPDEST PUSH2 0x92F DUP16 DUP8 DUP4 DUP7 ADD ADD PUSH2 0x676 JUMP JUMPDEST DUP7 DUP4 ADD MSTORE POP PUSH2 0x941 DUP15 PUSH1 0x60 DUP5 ADD PUSH2 0x5CD JUMP JUMPDEST PUSH1 0x40 DUP3 ADD MSTORE PUSH2 0x953 DUP15 PUSH1 0x80 DUP5 ADD PUSH2 0x7E6 JUMP JUMPDEST PUSH1 0x60 DUP3 ADD MSTORE DUP7 MSTORE POP SWAP4 DUP3 ADD SWAP4 SWAP1 DUP3 ADD SWAP1 PUSH1 0x1 ADD PUSH2 0x8BB JUMP JUMPDEST POP SWAP2 SWAP8 POP DUP9 ADD CALLDATALOAD SWAP5 POP POP POP POP DUP1 DUP3 GT ISZERO PUSH2 0x983 JUMPI DUP3 DUP4 REVERT JUMPDEST POP PUSH2 0x990 DUP6 DUP3 DUP7 ADD PUSH2 0x4B4 JUMP JUMPDEST SWAP2 POP POP SWAP3 POP SWAP3 SWAP1 POP JUMP JUMPDEST PUSH1 0x0 PUSH1 0x20 DUP3 DUP5 SUB SLT ISZERO PUSH2 0x9AB JUMPI DUP1 DUP2 REVERT JUMPDEST POP MLOAD SWAP2 SWAP1 POP JUMP JUMPDEST PUSH20 0xFFFFFFFFFFFFFFFFFFFFFFFFFFFFFFFFFFFFFFFF AND SWAP1 MSTORE JUMP JUMPDEST PUSH1 0x0 DUP2 MLOAD DUP1 DUP5 MSTORE PUSH1 0x20 DUP1 DUP6 ADD SWAP5 POP DUP1 DUP5 ADD DUP4 JUMPDEST DUP4 DUP2 LT ISZERO PUSH2 0x9FE JUMPI DUP2 MLOAD PUSH1 0xF SIGNEXTEND DUP8 MSTORE SWAP6 DUP3 ADD SWAP6 SWAP1 DUP3 ADD SWAP1 PUSH1 0x1 ADD PUSH2 0x9DF JUMP JUMPDEST POP SWAP5 SWAP6 SWAP5 POP POP POP POP POP JUMP JUMPDEST ISZERO ISZERO SWAP1 MSTORE JUMP JUMPDEST PUSH1 0x0 SIGNEXTEND SWAP1 MSTORE JUMP JUMPDEST PUSH1 0x0 DUP2 MLOAD DUP1 DUP5 MSTORE DUP2 JUMPDEST DUP2 DUP2 LT ISZERO PUSH2 0xA3B JUMPI PUSH1 0x20 DUP2 DUP6 ADD DUP2 ADD MLOAD DUP7 DUP4 ADD DUP3 ADD MSTORE ADD PUSH2 0xA1F JUMP JUMPDEST DUP2 DUP2 GT ISZERO PUSH2 0xA4C JUMPI DUP3 PUSH1 0x20 DUP4 DUP8 ADD ADD MSTORE JUMPDEST POP PUSH1 0x1F ADD PUSH32 0xFFFFFFFFFFFFFFFFFFFFFFFFFFFFFFFFFFFFFFFFFFFFFFFFFFFFFFFFFFFFFFE0 AND SWAP3 SWAP1 SWAP3 ADD PUSH1 0x20 ADD SWAP3 SWAP2 POP POP JUMP JUMPDEST DUP1 MLOAD PUSH1 0xFF AND DUP3 MSTORE PUSH1 0x20 DUP1 DUP3 ADD MLOAD SWAP1 DUP4 ADD MSTORE PUSH1 0x40 SWAP1 DUP2 ADD MLOAD SWAP2 ADD MSTORE JUMP JUMPDEST PUSH3 0xFFFFFF AND SWAP1 MSTORE JUMP JUMPDEST PUSH5 0xFFFFFFFFFF AND SWAP1 MSTORE JUMP JUMPDEST PUSH1 0xFF AND SWAP1 MSTORE JUMP JUMPDEST PUSH1 0x0 PUSH1 0xE0 DUP3 ADD DUP8 DUP4 MSTORE PUSH1 0x20 PUSH2 0xACD DUP2 DUP6 ADD DUP10 PUSH2 0xA7F JUMP JUMPDEST PUSH1 0x80 DUP5 ADD DUP8 SWAP1 MSTORE PUSH1 0xE0 PUSH1 0xA0 DUP6 ADD MSTORE DUP6 MLOAD SWAP2 DUP3 SWAP1 MSTORE DUP1 DUP7 ADD SWAP2 PUSH2 0x100 DUP6 ADD SWAP1 DUP5 JUMPDEST DUP2 DUP2 LT ISZERO PUSH2 0xB1F JUMPI DUP5 MLOAD PUSH20 0xFFFFFFFFFFFFFFFFFFFFFFFFFFFFFFFFFFFFFFFF AND DUP4 MSTORE SWAP4 DUP4 ADD SWAP4 SWAP2 DUP4 ADD SWAP2 PUSH1 0x1 ADD PUSH2 0xAED JUMP JUMPDEST POP POP DUP5 DUP2 SUB PUSH1 0xC0 DUP7 ADD MSTORE DUP6 MLOAD DUP1 DUP3 MSTORE SWAP1 DUP3 ADD SWAP3 POP DUP2 DUP7 ADD SWAP1 DUP5 JUMPDEST DUP2 DUP2 LT ISZERO PUSH2 0xB55 JUMPI DUP3 MLOAD DUP6 MSTORE SWAP4 DUP4 ADD SWAP4 SWAP2 DUP4 ADD SWAP2 PUSH1 0x1 ADD PUSH2 0xB39 JUMP JUMPDEST POP SWAP3 SWAP11 SWAP10 POP POP POP POP POP POP POP POP POP POP JUMP JUMPDEST PUSH1 0x0 PUSH1 0xA0 DUP3 MSTORE DUP5 MLOAD PUSH2 0x1E0 DUP1 PUSH1 0xA0 DUP6 ADD MSTORE PUSH2 0xB84 PUSH2 0x280 DUP6 ADD DUP4 PUSH2 0xA16 JUMP JUMPDEST SWAP2 POP PUSH1 0x20 DUP8 ADD MLOAD PUSH2 0xB98 PUSH1 0xC0 DUP7 ADD DUP3 PUSH2 0xAA4 JUMP JUMPDEST POP PUSH1 0x40 DUP8 ADD MLOAD PUSH2 0xBAB PUSH1 0xE0 DUP7 ADD DUP3 PUSH2 0xA9B JUMP JUMPDEST POP PUSH1 0x60 DUP8 ADD MLOAD PUSH2 0x100 PUSH2 0xBC0 DUP2 DUP8 ADD DUP4 PUSH2 0xAAF JUMP JUMPDEST PUSH1 0x80 DUP10 ADD MLOAD SWAP2 POP PUSH2 0x120 PUSH2 0xBD6 DUP2 DUP9 ADD DUP5 PUSH2 0xAAF JUMP JUMPDEST PUSH1 0xA0 DUP11 ADD MLOAD SWAP3 POP PUSH2 0x140 PUSH2 0xBEC DUP2 DUP10 ADD DUP6 PUSH2 0xAAF JUMP JUMPDEST PUSH1 0xC0 DUP12 ADD MLOAD SWAP4 POP PUSH2 0x160 PUSH2 0xC02 DUP2 DUP11 ADD DUP7 PUSH2 0xA0F JUMP JUMPDEST PUSH1 0xE0 DUP13 ADD MLOAD SWAP5 POP PUSH2 0x180 PUSH2 0xC18 DUP2 DUP12 ADD DUP8 PUSH2 0x9B2 JUMP JUMPDEST SWAP4 DUP13 ADD MLOAD SWAP5 POP PUSH2 0x1A0 SWAP4 PUSH2 0xC2E DUP11 DUP7 ADD DUP8 PUSH2 0xAAF JUMP JUMPDEST SWAP3 DUP13 ADD MLOAD SWAP5 POP PUSH2 0x1C0 SWAP3 PUSH2 0xC44 DUP11 DUP6 ADD DUP8 PUSH2 0xAAF JUMP JUMPDEST DUP3 DUP14 ADD MLOAD SWAP6 POP PUSH2 0xC56 DUP8 DUP12 ADD DUP8 PUSH2 0xAAF JUMP JUMPDEST DUP2 DUP14 ADD MLOAD SWAP7 POP PUSH2 0xC6A PUSH2 0x200 DUP12 ADD DUP9 PUSH2 0xAAF JUMP JUMPDEST DUP13 ADD MLOAD SWAP6 POP PUSH2 0xC80 SWAP2 POP POP PUSH2 0x220 DUP9 ADD DUP6 PUSH2 0x9B2 JUMP JUMPDEST DUP2 DUP11 ADD MLOAD SWAP4 POP PUSH2 0xC94 PUSH2 0x240 DUP9 ADD DUP6 PUSH2 0x9B2 JUMP JUMPDEST DUP1 DUP11 ADD MLOAD SWAP4 POP POP POP POP PUSH32 0xFFFFFFFFFFFFFFFFFFFFFFFFFFFFFFFFFFFFFFFFFFFFFFFFFFFFFFFFFFFFFF60 DUP5 DUP4 SUB ADD PUSH2 0x260 DUP6 ADD MSTORE PUSH2 0xCD2 DUP3 DUP3 PUSH2 0x9CC JUMP JUMPDEST SWAP3 POP POP POP PUSH2 0xCE3 PUSH1 0x20 DUP4 ADD DUP6 PUSH2 0xA09 JUMP JUMPDEST PUSH2 0xCF0 PUSH1 0x40 DUP4 ADD DUP5 PUSH2 0xA7F JUMP JUMPDEST SWAP5 SWAP4 POP POP POP POP JUMP JUMPDEST PUSH1 0x40 MLOAD DUP2 DUP2 ADD PUSH8 0xFFFFFFFFFFFFFFFF DUP2 GT DUP3 DUP3 LT OR ISZERO PUSH2 0xD17 JUMPI PUSH1 0x0 DUP1 REVERT JUMPDEST PUSH1 0x40 MSTORE SWAP2 SWAP1 POP JUMP JUMPDEST PUSH1 0x0 PUSH8 0xFFFFFFFFFFFFFFFF DUP3 GT ISZERO PUSH2 0xD35 JUMPI DUP1 DUP2 REVERT JUMPDEST POP PUSH1 0x20 SWAP1 DUP2 MUL ADD SWAP1 JUMP JUMPDEST PUSH20 0xFFFFFFFFFFFFFFFFFFFFFFFFFFFFFFFFFFFFFFFF DUP2 AND DUP2 EQ PUSH2 0xD61 JUMPI PUSH1 0x0 DUP1 REVERT JUMPDEST POP JUMP INVALID LOG2 PUSH5 0x6970667358 0x22 SLT KECCAK256 0xB9 0x4B 0xE6 0xE SWAP9 DUP11 0xEA 0xDA 0xE6 PUSH23 0xC2ED7A80B927DBF54445DA1CBE048B9885803AE5C41164 PUSH20 0x6F6C634300070000330000000000000000000000 "
			}
		}
	},
	"sourceTreeHashHex": "0x70eb86c2c39a2b8b93c0645c8cdc1410a95ed18c425dd2696ea20801e79931b1",
	"compiler": {
		"name": "solc",
		"version": "0.7.0+commit.9e61f92b",
		"settings": {
			"remappings": [
				"factsigner=/home/ulf/digioptions/digioptions-contracts.js/node_modules/factsigner",
				"@openzeppelin/contracts=/home/ulf/digioptions/digioptions-contracts.js/node_modules/@openzeppelin/contracts"
			],
			"optimizer": {
				"enabled": true,
				"runs": 20000,
				"details": {
					"yul": true,
					"deduplicate": true,
					"cse": true,
					"constantOptimizer": true
				}
			},
			"outputSelection": {
				"*": {
					"*": [
						"abi",
						"evm.bytecode.object",
						"evm.bytecode.sourceMap",
						"evm.deployedBytecode.object",
						"evm.deployedBytecode.sourceMap"
					]
				}
			},
			"evmVersion": "byzantium"
		}
	},
	"chains": {}
}