{
	"schemaVersion": "2.0.0",
	"contractName": "DigiOptionsTest",
	"compilerOutput": {
		"abi": [
			{
				"inputs": [
					{
						"components": [
							{
								"internalType": "string",
								"name": "underlyingString",
								"type": "string"
							},
							{
								"internalType": "uint40",
								"name": "expirationDatetime",
								"type": "uint40"
							},
							{
								"internalType": "uint24",
								"name": "objectionPeriod",
								"type": "uint24"
							},
							{
								"internalType": "uint8",
								"name": "config",
								"type": "uint8"
							},
							{
								"internalType": "uint8",
								"name": "marketCategory",
								"type": "uint8"
							},
							{
								"internalType": "uint8",
								"name": "baseUnitExp",
								"type": "uint8"
							},
							{
								"internalType": "int8",
								"name": "ndigit",
								"type": "int8"
							},
							{
								"internalType": "address",
								"name": "signerAddr",
								"type": "address"
							},
							{
								"internalType": "uint8",
								"name": "marketInterval",
								"type": "uint8"
							},
							{
								"internalType": "uint8",
								"name": "transactionFee0",
								"type": "uint8"
							},
							{
								"internalType": "uint8",
								"name": "transactionFee1",
								"type": "uint8"
							},
							{
								"internalType": "uint8",
								"name": "transactionFeeSigner",
								"type": "uint8"
							},
							{
								"internalType": "address",
								"name": "feeTaker0",
								"type": "address"
							},
							{
								"internalType": "address",
								"name": "feeTaker1",
								"type": "address"
							},
							{
								"internalType": "int128[]",
								"name": "strikes",
								"type": "int128[]"
							}
						],
						"internalType": "struct DigiOptionsLib.MarketBaseData",
						"name": "marketBaseData",
						"type": "tuple"
					}
				],
				"name": "calcBaseMarketHash",
				"outputs": [
					{
						"internalType": "bytes32",
						"name": "baseMarketHash",
						"type": "bytes32"
					}
				],
				"stateMutability": "pure",
				"type": "function"
			},
			{
				"inputs": [
					{
						"components": [
							{
								"internalType": "string",
								"name": "underlyingString",
								"type": "string"
							},
							{
								"internalType": "uint40",
								"name": "expirationDatetime",
								"type": "uint40"
							},
							{
								"internalType": "uint24",
								"name": "objectionPeriod",
								"type": "uint24"
							},
							{
								"internalType": "uint8",
								"name": "config",
								"type": "uint8"
							},
							{
								"internalType": "uint8",
								"name": "marketCategory",
								"type": "uint8"
							},
							{
								"internalType": "uint8",
								"name": "baseUnitExp",
								"type": "uint8"
							},
							{
								"internalType": "int8",
								"name": "ndigit",
								"type": "int8"
							},
							{
								"internalType": "address",
								"name": "signerAddr",
								"type": "address"
							},
							{
								"internalType": "uint8",
								"name": "marketInterval",
								"type": "uint8"
							},
							{
								"internalType": "uint8",
								"name": "transactionFee0",
								"type": "uint8"
							},
							{
								"internalType": "uint8",
								"name": "transactionFee1",
								"type": "uint8"
							},
							{
								"internalType": "uint8",
								"name": "transactionFeeSigner",
								"type": "uint8"
							},
							{
								"internalType": "address",
								"name": "feeTaker0",
								"type": "address"
							},
							{
								"internalType": "address",
								"name": "feeTaker1",
								"type": "address"
							},
							{
								"internalType": "int128[]",
								"name": "strikes",
								"type": "int128[]"
							}
						],
						"internalType": "struct DigiOptionsLib.MarketBaseData",
						"name": "marketBaseData",
						"type": "tuple"
					}
				],
				"name": "calcFactHashTest",
				"outputs": [
					{
						"internalType": "bytes32",
						"name": "marketHash",
						"type": "bytes32"
					}
				],
				"stateMutability": "pure",
				"type": "function"
			},
			{
				"inputs": [
					{
						"components": [
							{
								"internalType": "string",
								"name": "underlyingString",
								"type": "string"
							},
							{
								"internalType": "uint40",
								"name": "expirationDatetime",
								"type": "uint40"
							},
							{
								"internalType": "uint24",
								"name": "objectionPeriod",
								"type": "uint24"
							},
							{
								"internalType": "uint8",
								"name": "config",
								"type": "uint8"
							},
							{
								"internalType": "uint8",
								"name": "marketCategory",
								"type": "uint8"
							},
							{
								"internalType": "uint8",
								"name": "baseUnitExp",
								"type": "uint8"
							},
							{
								"internalType": "int8",
								"name": "ndigit",
								"type": "int8"
							},
							{
								"internalType": "address",
								"name": "signerAddr",
								"type": "address"
							},
							{
								"internalType": "uint8",
								"name": "marketInterval",
								"type": "uint8"
							},
							{
								"internalType": "uint8",
								"name": "transactionFee0",
								"type": "uint8"
							},
							{
								"internalType": "uint8",
								"name": "transactionFee1",
								"type": "uint8"
							},
							{
								"internalType": "uint8",
								"name": "transactionFeeSigner",
								"type": "uint8"
							},
							{
								"internalType": "address",
								"name": "feeTaker0",
								"type": "address"
							},
							{
								"internalType": "address",
								"name": "feeTaker1",
								"type": "address"
							},
							{
								"internalType": "int128[]",
								"name": "strikes",
								"type": "int128[]"
							}
						],
						"internalType": "struct DigiOptionsLib.MarketBaseData",
						"name": "marketBaseData",
						"type": "tuple"
					}
				],
				"name": "calcMarketHashTest",
				"outputs": [
					{
						"internalType": "bytes32",
						"name": "marketHash",
						"type": "bytes32"
					}
				],
				"stateMutability": "pure",
				"type": "function"
			},
			{
				"inputs": [
					{
						"internalType": "uint40",
						"name": "expirationDatetime",
						"type": "uint40"
					}
				],
				"name": "calcMarketIntervalTest",
				"outputs": [
					{
						"internalType": "uint8",
						"name": "interval",
						"type": "uint8"
					}
				],
				"stateMutability": "view",
				"type": "function"
			},
			{
				"inputs": [
					{
						"internalType": "uint256",
						"name": "calculatedMarketInterval",
						"type": "uint256"
					}
				],
				"name": "getDividerTest",
				"outputs": [
					{
						"internalType": "uint48",
						"name": "",
						"type": "uint48"
					}
				],
				"stateMutability": "pure",
				"type": "function"
			}
		],
		"evm": {
			"bytecode": {
				"linkReferences": {},
				"object": "0x608060405234801561001057600080fd5b50610d81806100206000396000f3fe608060405234801561001057600080fd5b50600436106100675760003560e01c8063b8a4bf1f11610050578063b8a4bf1f146100b5578063f5299fda146100d5578063fe0a7fa9146100e857610067565b80631dcb4ca91461006c578063b04f77c714610095575b600080fd5b61007f61007a36600461068c565b6100fb565b60405161008c9190610c18565b60405180910390f35b6100a86100a3366004610835565b61010c565b60405161008c9190610cbc565b6100c86100c336600461081d565b610117565b60405161008c9190610ca9565b61007f6100e336600461068c565b610122565b61007f6100f636600461068c565b61012d565b600061010682610138565b92915050565b60006101068261024c565b600061010682610316565b600061010682610344565b600061010682610416565b6000606082600001516040516020016101519190610bfc565b6040516020818303038152906040528051906020012083602001518460400151856060015186608001518760a001518860c001518961010001518a61018001518b6101a001518c60e001516040516020016101b69b9a99989796959493929190610a71565b604080517fffffffffffffffffffffffffffffffffffffffffffffffffffffffffffffffe0818403018152908290526101208501516101408601516101608701516101c088015193955061020f94869490602001610b8c565b604080518083037fffffffffffffffffffffffffffffffffffffffffffffffffffffffffffffffe001815291905280516020909101209392505050565b6000808061026764ffffffffff85164263ffffffff61047916565b90506303c2670081106102af576040517f08c379a00000000000000000000000000000000000000000000000000000000081526004016102a690610c72565b60405180910390fd5b623b53808111156102c45760015b915061030f565b620a8c008111156102d65760036102bd565b6201fa408111156102e85760046102bd565b611c208111156102f95760056102bd565b61038481111561030a5760066102bd565b600791505b5092915050565b600060606040518060600160405280602a8152602001610d22602a9139600184016006020151915050919050565b60006060826000015160405160200161035d9190610bfc565b6040516020818303038152906040528051906020012083602001518460400151856060015186608001518760a001518860c001518961010001518a60e001516040516020016103b49998979695949392919061099f565b604080518083037fffffffffffffffffffffffffffffffffffffffffffffffffffffffffffffffe00181529190526060840151909150600116610408576101c083015160405161020f918391602001610b65565b805160209091012092915050565b60006060826000015160405160200161042f9190610bfc565b6040516020818303038152906040528051906020012083602001518460400151856060015186608001518760a001518860c001516040516020016103b497969594939291906108ec565b60006104bb83836040518060400160405280601e81526020017f536166654d6174683a207375627472616374696f6e206f766572666c6f7700008152506104c2565b9392505050565b60008184841115610500576040517f08c379a00000000000000000000000000000000000000000000000000000000081526004016102a69190610c21565b505050900390565b803573ffffffffffffffffffffffffffffffffffffffff8116811461010657600080fd5b600082601f83011261053c578081fd5b813567ffffffffffffffff811115610552578182fd5b6020808202610562828201610cca565b8381529350818401858301828701840188101561057e57600080fd5b60009250825b858110156105ae57813580600f0b811461059c578485fd5b83529184019190840190600101610584565b50505050505092915050565b8035600081900b811461010657600080fd5b600082601f8301126105dc578081fd5b813567ffffffffffffffff8111156105f2578182fd5b61062360207fffffffffffffffffffffffffffffffffffffffffffffffffffffffffffffffe0601f84011601610cca565b915080825283602082850101111561063a57600080fd5b8060208401602084013760009082016020015292915050565b803562ffffff8116811461010657600080fd5b803564ffffffffff8116811461010657600080fd5b803560ff8116811461010657600080fd5b60006020828403121561069d578081fd5b813567ffffffffffffffff808211156106b4578283fd5b6101e09184018086038313156106c8578384fd5b6106d183610cca565b81359350828411156106e1578485fd5b6106ed878584016105cc565b81526106fc8760208401610666565b602082015261070e8760408401610653565b6040820152610720876060840161067b565b6060820152610732876080840161067b565b60808201526107448760a0840161067b565b60a08201526107568760c084016105ba565b60c08201526107688760e08401610508565b60e0820152610100935061077e8785840161067b565b8482015261012093506107938785840161067b565b8482015261014093506107a88785840161067b565b8482015261016093506107bd8785840161067b565b8482015261018093506107d287858401610508565b848201526101a093506107e787858401610508565b848201526101c093508382013583811115610800578586fd5b61080c8882850161052c565b948201949094529695505050505050565b60006020828403121561082e578081fd5b5035919050565b600060208284031215610846578081fd5b813564ffffffffff811681146104bb578182fd5b60601b7fffffffffffffffffffffffffffffffffffffffff000000000000000000000000169052565b80516000906020808401835b838110156108ae578151600f0b8752958201959082019060010161088f565b509495945050505050565b60000b60f81b9052565b60f81b7fff00000000000000000000000000000000000000000000000000000000000000169052565b96875260d89590951b7fffffffffff00000000000000000000000000000000000000000000000000000016602087015260e89390931b7fffffff000000000000000000000000000000000000000000000000000000000016602586015260f891821b7fff00000000000000000000000000000000000000000000000000000000000000908116602887015290821b8116602986015291811b909116602a84015260009190910b901b602b820152602c0190565b60008a82527fffffffffff0000000000000000000000000000000000000000000000000000008a60d81b1660208301527fffffff00000000000000000000000000000000000000000000000000000000008960e81b1660258301527fff00000000000000000000000000000000000000000000000000000000000000808960f81b166028840152808860f81b166029840152808760f81b16602a84015285820b60f81b602b840152808560f81b16602c84015250610a60602d83018461085a565b506041019998505050505050505050565b60008c82527fffffffffff0000000000000000000000000000000000000000000000000000008c60d81b1660208301527fffffff00000000000000000000000000000000000000000000000000000000008b60e81b1660258301527fff00000000000000000000000000000000000000000000000000000000000000808b60f81b166028840152808a60f81b16602984015250610b11602a8301896108c3565b610b1e602b8301886108b9565b610b2b602c8301876108c3565b610b38602d83018661085a565b610b45604183018561085a565b610b52605583018461085a565b506069019b9a5050505050505050505050565b60008351610b77818460208801610cf1565b610b8381840185610883565b95945050505050565b60008651610b9e818460208b01610cf1565b8083017fff000000000000000000000000000000000000000000000000000000000000009150818860f81b168152818760f81b166001820152818660f81b166002820152610bef6003820186610883565b9998505050505050505050565b60008251610c0e818460208701610cf1565b9190910192915050565b90815260200190565b6000602082528251806020840152610c40816040850160208701610cf1565b601f017fffffffffffffffffffffffffffffffffffffffffffffffffffffffffffffffe0169190910160400192915050565b60208082526015908201527f746f6f2066617220696e20746865206675747572650000000000000000000000604082015260600190565b65ffffffffffff91909116815260200190565b60ff91909116815260200190565b60405181810167ffffffffffffffff81118282101715610ce957600080fd5b604052919050565b60005b83811015610d0c578181015183820152602001610cf4565b83811115610d1b576000848401525b5050505056fe000000000000000000fa7d000000003b53800000000a8c0000000001fa40000000001c20000000000000a2646970667358221220fd0559d8c3139e4e299ff3f219d46632d915de2e18b99fb3d3c4c545628c035b64736f6c63430006040033",
				"opcodes": "PUSH1 0x80 PUSH1 0x40 MSTORE CALLVALUE DUP1 ISZERO PUSH2 0x10 JUMPI PUSH1 0x0 DUP1 REVERT JUMPDEST POP PUSH2 0xD81 DUP1 PUSH2 0x20 PUSH1 0x0 CODECOPY PUSH1 0x0 RETURN INVALID PUSH1 0x80 PUSH1 0x40 MSTORE CALLVALUE DUP1 ISZERO PUSH2 0x10 JUMPI PUSH1 0x0 DUP1 REVERT JUMPDEST POP PUSH1 0x4 CALLDATASIZE LT PUSH2 0x67 JUMPI PUSH1 0x0 CALLDATALOAD PUSH1 0xE0 SHR DUP1 PUSH4 0xB8A4BF1F GT PUSH2 0x50 JUMPI DUP1 PUSH4 0xB8A4BF1F EQ PUSH2 0xB5 JUMPI DUP1 PUSH4 0xF5299FDA EQ PUSH2 0xD5 JUMPI DUP1 PUSH4 0xFE0A7FA9 EQ PUSH2 0xE8 JUMPI PUSH2 0x67 JUMP JUMPDEST DUP1 PUSH4 0x1DCB4CA9 EQ PUSH2 0x6C JUMPI DUP1 PUSH4 0xB04F77C7 EQ PUSH2 0x95 JUMPI JUMPDEST PUSH1 0x0 DUP1 REVERT JUMPDEST PUSH2 0x7F PUSH2 0x7A CALLDATASIZE PUSH1 0x4 PUSH2 0x68C JUMP JUMPDEST PUSH2 0xFB JUMP JUMPDEST PUSH1 0x40 MLOAD PUSH2 0x8C SWAP2 SWAP1 PUSH2 0xC18 JUMP JUMPDEST PUSH1 0x40 MLOAD DUP1 SWAP2 SUB SWAP1 RETURN JUMPDEST PUSH2 0xA8 PUSH2 0xA3 CALLDATASIZE PUSH1 0x4 PUSH2 0x835 JUMP JUMPDEST PUSH2 0x10C JUMP JUMPDEST PUSH1 0x40 MLOAD PUSH2 0x8C SWAP2 SWAP1 PUSH2 0xCBC JUMP JUMPDEST PUSH2 0xC8 PUSH2 0xC3 CALLDATASIZE PUSH1 0x4 PUSH2 0x81D JUMP JUMPDEST PUSH2 0x117 JUMP JUMPDEST PUSH1 0x40 MLOAD PUSH2 0x8C SWAP2 SWAP1 PUSH2 0xCA9 JUMP JUMPDEST PUSH2 0x7F PUSH2 0xE3 CALLDATASIZE PUSH1 0x4 PUSH2 0x68C JUMP JUMPDEST PUSH2 0x122 JUMP JUMPDEST PUSH2 0x7F PUSH2 0xF6 CALLDATASIZE PUSH1 0x4 PUSH2 0x68C JUMP JUMPDEST PUSH2 0x12D JUMP JUMPDEST PUSH1 0x0 PUSH2 0x106 DUP3 PUSH2 0x138 JUMP JUMPDEST SWAP3 SWAP2 POP POP JUMP JUMPDEST PUSH1 0x0 PUSH2 0x106 DUP3 PUSH2 0x24C JUMP JUMPDEST PUSH1 0x0 PUSH2 0x106 DUP3 PUSH2 0x316 JUMP JUMPDEST PUSH1 0x0 PUSH2 0x106 DUP3 PUSH2 0x344 JUMP JUMPDEST PUSH1 0x0 PUSH2 0x106 DUP3 PUSH2 0x416 JUMP JUMPDEST PUSH1 0x0 PUSH1 0x60 DUP3 PUSH1 0x0 ADD MLOAD PUSH1 0x40 MLOAD PUSH1 0x20 ADD PUSH2 0x151 SWAP2 SWAP1 PUSH2 0xBFC JUMP JUMPDEST PUSH1 0x40 MLOAD PUSH1 0x20 DUP2 DUP4 SUB SUB DUP2 MSTORE SWAP1 PUSH1 0x40 MSTORE DUP1 MLOAD SWAP1 PUSH1 0x20 ADD KECCAK256 DUP4 PUSH1 0x20 ADD MLOAD DUP5 PUSH1 0x40 ADD MLOAD DUP6 PUSH1 0x60 ADD MLOAD DUP7 PUSH1 0x80 ADD MLOAD DUP8 PUSH1 0xA0 ADD MLOAD DUP9 PUSH1 0xC0 ADD MLOAD DUP10 PUSH2 0x100 ADD MLOAD DUP11 PUSH2 0x180 ADD MLOAD DUP12 PUSH2 0x1A0 ADD MLOAD DUP13 PUSH1 0xE0 ADD MLOAD PUSH1 0x40 MLOAD PUSH1 0x20 ADD PUSH2 0x1B6 SWAP12 SWAP11 SWAP10 SWAP9 SWAP8 SWAP7 SWAP6 SWAP5 SWAP4 SWAP3 SWAP2 SWAP1 PUSH2 0xA71 JUMP JUMPDEST PUSH1 0x40 DUP1 MLOAD PUSH32 0xFFFFFFFFFFFFFFFFFFFFFFFFFFFFFFFFFFFFFFFFFFFFFFFFFFFFFFFFFFFFFFE0 DUP2 DUP5 SUB ADD DUP2 MSTORE SWAP1 DUP3 SWAP1 MSTORE PUSH2 0x120 DUP6 ADD MLOAD PUSH2 0x140 DUP7 ADD MLOAD PUSH2 0x160 DUP8 ADD MLOAD PUSH2 0x1C0 DUP9 ADD MLOAD SWAP4 SWAP6 POP PUSH2 0x20F SWAP5 DUP7 SWAP5 SWAP1 PUSH1 0x20 ADD PUSH2 0xB8C JUMP JUMPDEST PUSH1 0x40 DUP1 MLOAD DUP1 DUP4 SUB PUSH32 0xFFFFFFFFFFFFFFFFFFFFFFFFFFFFFFFFFFFFFFFFFFFFFFFFFFFFFFFFFFFFFFE0 ADD DUP2 MSTORE SWAP2 SWAP1 MSTORE DUP1 MLOAD PUSH1 0x20 SWAP1 SWAP2 ADD KECCAK256 SWAP4 SWAP3 POP POP POP JUMP JUMPDEST PUSH1 0x0 DUP1 DUP1 PUSH2 0x267 PUSH5 0xFFFFFFFFFF DUP6 AND TIMESTAMP PUSH4 0xFFFFFFFF PUSH2 0x479 AND JUMP JUMPDEST SWAP1 POP PUSH4 0x3C26700 DUP2 LT PUSH2 0x2AF JUMPI PUSH1 0x40 MLOAD PUSH32 0x8C379A000000000000000000000000000000000000000000000000000000000 DUP2 MSTORE PUSH1 0x4 ADD PUSH2 0x2A6 SWAP1 PUSH2 0xC72 JUMP JUMPDEST PUSH1 0x40 MLOAD DUP1 SWAP2 SUB SWAP1 REVERT JUMPDEST PUSH3 0x3B5380 DUP2 GT ISZERO PUSH2 0x2C4 JUMPI PUSH1 0x1 JUMPDEST SWAP2 POP PUSH2 0x30F JUMP JUMPDEST PUSH3 0xA8C00 DUP2 GT ISZERO PUSH2 0x2D6 JUMPI PUSH1 0x3 PUSH2 0x2BD JUMP JUMPDEST PUSH3 0x1FA40 DUP2 GT ISZERO PUSH2 0x2E8 JUMPI PUSH1 0x4 PUSH2 0x2BD JUMP JUMPDEST PUSH2 0x1C20 DUP2 GT ISZERO PUSH2 0x2F9 JUMPI PUSH1 0x5 PUSH2 0x2BD JUMP JUMPDEST PUSH2 0x384 DUP2 GT ISZERO PUSH2 0x30A JUMPI PUSH1 0x6 PUSH2 0x2BD JUMP JUMPDEST PUSH1 0x7 SWAP2 POP JUMPDEST POP SWAP3 SWAP2 POP POP JUMP JUMPDEST PUSH1 0x0 PUSH1 0x60 PUSH1 0x40 MLOAD DUP1 PUSH1 0x60 ADD PUSH1 0x40 MSTORE DUP1 PUSH1 0x2A DUP2 MSTORE PUSH1 0x20 ADD PUSH2 0xD22 PUSH1 0x2A SWAP2 CODECOPY PUSH1 0x1 DUP5 ADD PUSH1 0x6 MUL ADD MLOAD SWAP2 POP POP SWAP2 SWAP1 POP JUMP JUMPDEST PUSH1 0x0 PUSH1 0x60 DUP3 PUSH1 0x0 ADD MLOAD PUSH1 0x40 MLOAD PUSH1 0x20 ADD PUSH2 0x35D SWAP2 SWAP1 PUSH2 0xBFC JUMP JUMPDEST PUSH1 0x40 MLOAD PUSH1 0x20 DUP2 DUP4 SUB SUB DUP2 MSTORE SWAP1 PUSH1 0x40 MSTORE DUP1 MLOAD SWAP1 PUSH1 0x20 ADD KECCAK256 DUP4 PUSH1 0x20 ADD MLOAD DUP5 PUSH1 0x40 ADD MLOAD DUP6 PUSH1 0x60 ADD MLOAD DUP7 PUSH1 0x80 ADD MLOAD DUP8 PUSH1 0xA0 ADD MLOAD DUP9 PUSH1 0xC0 ADD MLOAD DUP10 PUSH2 0x100 ADD MLOAD DUP11 PUSH1 0xE0 ADD MLOAD PUSH1 0x40 MLOAD PUSH1 0x20 ADD PUSH2 0x3B4 SWAP10 SWAP9 SWAP8 SWAP7 SWAP6 SWAP5 SWAP4 SWAP3 SWAP2 SWAP1 PUSH2 0x99F JUMP JUMPDEST PUSH1 0x40 DUP1 MLOAD DUP1 DUP4 SUB PUSH32 0xFFFFFFFFFFFFFFFFFFFFFFFFFFFFFFFFFFFFFFFFFFFFFFFFFFFFFFFFFFFFFFE0 ADD DUP2 MSTORE SWAP2 SWAP1 MSTORE PUSH1 0x60 DUP5 ADD MLOAD SWAP1 SWAP2 POP PUSH1 0x1 AND PUSH2 0x408 JUMPI PUSH2 0x1C0 DUP4 ADD MLOAD PUSH1 0x40 MLOAD PUSH2 0x20F SWAP2 DUP4 SWAP2 PUSH1 0x20 ADD PUSH2 0xB65 JUMP JUMPDEST DUP1 MLOAD PUSH1 0x20 SWAP1 SWAP2 ADD KECCAK256 SWAP3 SWAP2 POP POP JUMP JUMPDEST PUSH1 0x0 PUSH1 0x60 DUP3 PUSH1 0x0 ADD MLOAD PUSH1 0x40 MLOAD PUSH1 0x20 ADD PUSH2 0x42F SWAP2 SWAP1 PUSH2 0xBFC JUMP JUMPDEST PUSH1 0x40 MLOAD PUSH1 0x20 DUP2 DUP4 SUB SUB DUP2 MSTORE SWAP1 PUSH1 0x40 MSTORE DUP1 MLOAD SWAP1 PUSH1 0x20 ADD KECCAK256 DUP4 PUSH1 0x20 ADD MLOAD DUP5 PUSH1 0x40 ADD MLOAD DUP6 PUSH1 0x60 ADD MLOAD DUP7 PUSH1 0x80 ADD MLOAD DUP8 PUSH1 0xA0 ADD MLOAD DUP9 PUSH1 0xC0 ADD MLOAD PUSH1 0x40 MLOAD PUSH1 0x20 ADD PUSH2 0x3B4 SWAP8 SWAP7 SWAP6 SWAP5 SWAP4 SWAP3 SWAP2 SWAP1 PUSH2 0x8EC JUMP JUMPDEST PUSH1 0x0 PUSH2 0x4BB DUP4 DUP4 PUSH1 0x40 MLOAD DUP1 PUSH1 0x40 ADD PUSH1 0x40 MSTORE DUP1 PUSH1 0x1E DUP2 MSTORE PUSH1 0x20 ADD PUSH32 0x536166654D6174683A207375627472616374696F6E206F766572666C6F770000 DUP2 MSTORE POP PUSH2 0x4C2 JUMP JUMPDEST SWAP4 SWAP3 POP POP POP JUMP JUMPDEST PUSH1 0x0 DUP2 DUP5 DUP5 GT ISZERO PUSH2 0x500 JUMPI PUSH1 0x40 MLOAD PUSH32 0x8C379A000000000000000000000000000000000000000000000000000000000 DUP2 MSTORE PUSH1 0x4 ADD PUSH2 0x2A6 SWAP2 SWAP1 PUSH2 0xC21 JUMP JUMPDEST POP POP POP SWAP1 SUB SWAP1 JUMP JUMPDEST DUP1 CALLDATALOAD PUSH20 0xFFFFFFFFFFFFFFFFFFFFFFFFFFFFFFFFFFFFFFFF DUP2 AND DUP2 EQ PUSH2 0x106 JUMPI PUSH1 0x0 DUP1 REVERT JUMPDEST PUSH1 0x0 DUP3 PUSH1 0x1F DUP4 ADD SLT PUSH2 0x53C JUMPI DUP1 DUP2 REVERT JUMPDEST DUP2 CALLDATALOAD PUSH8 0xFFFFFFFFFFFFFFFF DUP2 GT ISZERO PUSH2 0x552 JUMPI DUP2 DUP3 REVERT JUMPDEST PUSH1 0x20 DUP1 DUP3 MUL PUSH2 0x562 DUP3 DUP3 ADD PUSH2 0xCCA JUMP JUMPDEST DUP4 DUP2 MSTORE SWAP4 POP DUP2 DUP5 ADD DUP6 DUP4 ADD DUP3 DUP8 ADD DUP5 ADD DUP9 LT ISZERO PUSH2 0x57E JUMPI PUSH1 0x0 DUP1 REVERT JUMPDEST PUSH1 0x0 SWAP3 POP DUP3 JUMPDEST DUP6 DUP2 LT ISZERO PUSH2 0x5AE JUMPI DUP2 CALLDATALOAD DUP1 PUSH1 0xF SIGNEXTEND DUP2 EQ PUSH2 0x59C JUMPI DUP5 DUP6 REVERT JUMPDEST DUP4 MSTORE SWAP2 DUP5 ADD SWAP2 SWAP1 DUP5 ADD SWAP1 PUSH1 0x1 ADD PUSH2 0x584 JUMP JUMPDEST POP POP POP POP POP POP SWAP3 SWAP2 POP POP JUMP JUMPDEST DUP1 CALLDATALOAD PUSH1 0x0 DUP2 SWAP1 SIGNEXTEND DUP2 EQ PUSH2 0x106 JUMPI PUSH1 0x0 DUP1 REVERT JUMPDEST PUSH1 0x0 DUP3 PUSH1 0x1F DUP4 ADD SLT PUSH2 0x5DC JUMPI DUP1 DUP2 REVERT JUMPDEST DUP2 CALLDATALOAD PUSH8 0xFFFFFFFFFFFFFFFF DUP2 GT ISZERO PUSH2 0x5F2 JUMPI DUP2 DUP3 REVERT JUMPDEST PUSH2 0x623 PUSH1 0x20 PUSH32 0xFFFFFFFFFFFFFFFFFFFFFFFFFFFFFFFFFFFFFFFFFFFFFFFFFFFFFFFFFFFFFFE0 PUSH1 0x1F DUP5 ADD AND ADD PUSH2 0xCCA JUMP JUMPDEST SWAP2 POP DUP1 DUP3 MSTORE DUP4 PUSH1 0x20 DUP3 DUP6 ADD ADD GT ISZERO PUSH2 0x63A JUMPI PUSH1 0x0 DUP1 REVERT JUMPDEST DUP1 PUSH1 0x20 DUP5 ADD PUSH1 0x20 DUP5 ADD CALLDATACOPY PUSH1 0x0 SWAP1 DUP3 ADD PUSH1 0x20 ADD MSTORE SWAP3 SWAP2 POP POP JUMP JUMPDEST DUP1 CALLDATALOAD PUSH3 0xFFFFFF DUP2 AND DUP2 EQ PUSH2 0x106 JUMPI PUSH1 0x0 DUP1 REVERT JUMPDEST DUP1 CALLDATALOAD PUSH5 0xFFFFFFFFFF DUP2 AND DUP2 EQ PUSH2 0x106 JUMPI PUSH1 0x0 DUP1 REVERT JUMPDEST DUP1 CALLDATALOAD PUSH1 0xFF DUP2 AND DUP2 EQ PUSH2 0x106 JUMPI PUSH1 0x0 DUP1 REVERT JUMPDEST PUSH1 0x0 PUSH1 0x20 DUP3 DUP5 SUB SLT ISZERO PUSH2 0x69D JUMPI DUP1 DUP2 REVERT JUMPDEST DUP2 CALLDATALOAD PUSH8 0xFFFFFFFFFFFFFFFF DUP1 DUP3 GT ISZERO PUSH2 0x6B4 JUMPI DUP3 DUP4 REVERT JUMPDEST PUSH2 0x1E0 SWAP2 DUP5 ADD DUP1 DUP7 SUB DUP4 SGT ISZERO PUSH2 0x6C8 JUMPI DUP4 DUP5 REVERT JUMPDEST PUSH2 0x6D1 DUP4 PUSH2 0xCCA JUMP JUMPDEST DUP2 CALLDATALOAD SWAP4 POP DUP3 DUP5 GT ISZERO PUSH2 0x6E1 JUMPI DUP5 DUP6 REVERT JUMPDEST PUSH2 0x6ED DUP8 DUP6 DUP5 ADD PUSH2 0x5CC JUMP JUMPDEST DUP2 MSTORE PUSH2 0x6FC DUP8 PUSH1 0x20 DUP5 ADD PUSH2 0x666 JUMP JUMPDEST PUSH1 0x20 DUP3 ADD MSTORE PUSH2 0x70E DUP8 PUSH1 0x40 DUP5 ADD PUSH2 0x653 JUMP JUMPDEST PUSH1 0x40 DUP3 ADD MSTORE PUSH2 0x720 DUP8 PUSH1 0x60 DUP5 ADD PUSH2 0x67B JUMP JUMPDEST PUSH1 0x60 DUP3 ADD MSTORE PUSH2 0x732 DUP8 PUSH1 0x80 DUP5 ADD PUSH2 0x67B JUMP JUMPDEST PUSH1 0x80 DUP3 ADD MSTORE PUSH2 0x744 DUP8 PUSH1 0xA0 DUP5 ADD PUSH2 0x67B JUMP JUMPDEST PUSH1 0xA0 DUP3 ADD MSTORE PUSH2 0x756 DUP8 PUSH1 0xC0 DUP5 ADD PUSH2 0x5BA JUMP JUMPDEST PUSH1 0xC0 DUP3 ADD MSTORE PUSH2 0x768 DUP8 PUSH1 0xE0 DUP5 ADD PUSH2 0x508 JUMP JUMPDEST PUSH1 0xE0 DUP3 ADD MSTORE PUSH2 0x100 SWAP4 POP PUSH2 0x77E DUP8 DUP6 DUP5 ADD PUSH2 0x67B JUMP JUMPDEST DUP5 DUP3 ADD MSTORE PUSH2 0x120 SWAP4 POP PUSH2 0x793 DUP8 DUP6 DUP5 ADD PUSH2 0x67B JUMP JUMPDEST DUP5 DUP3 ADD MSTORE PUSH2 0x140 SWAP4 POP PUSH2 0x7A8 DUP8 DUP6 DUP5 ADD PUSH2 0x67B JUMP JUMPDEST DUP5 DUP3 ADD MSTORE PUSH2 0x160 SWAP4 POP PUSH2 0x7BD DUP8 DUP6 DUP5 ADD PUSH2 0x67B JUMP JUMPDEST DUP5 DUP3 ADD MSTORE PUSH2 0x180 SWAP4 POP PUSH2 0x7D2 DUP8 DUP6 DUP5 ADD PUSH2 0x508 JUMP JUMPDEST DUP5 DUP3 ADD MSTORE PUSH2 0x1A0 SWAP4 POP PUSH2 0x7E7 DUP8 DUP6 DUP5 ADD PUSH2 0x508 JUMP JUMPDEST DUP5 DUP3 ADD MSTORE PUSH2 0x1C0 SWAP4 POP DUP4 DUP3 ADD CALLDATALOAD DUP4 DUP2 GT ISZERO PUSH2 0x800 JUMPI DUP6 DUP7 REVERT JUMPDEST PUSH2 0x80C DUP9 DUP3 DUP6 ADD PUSH2 0x52C JUMP JUMPDEST SWAP5 DUP3 ADD SWAP5 SWAP1 SWAP5 MSTORE SWAP7 SWAP6 POP POP POP POP POP POP JUMP JUMPDEST PUSH1 0x0 PUSH1 0x20 DUP3 DUP5 SUB SLT ISZERO PUSH2 0x82E JUMPI DUP1 DUP2 REVERT JUMPDEST POP CALLDATALOAD SWAP2 SWAP1 POP JUMP JUMPDEST PUSH1 0x0 PUSH1 0x20 DUP3 DUP5 SUB SLT ISZERO PUSH2 0x846 JUMPI DUP1 DUP2 REVERT JUMPDEST DUP2 CALLDATALOAD PUSH5 0xFFFFFFFFFF DUP2 AND DUP2 EQ PUSH2 0x4BB JUMPI DUP2 DUP3 REVERT JUMPDEST PUSH1 0x60 SHL PUSH32 0xFFFFFFFFFFFFFFFFFFFFFFFFFFFFFFFFFFFFFFFF000000000000000000000000 AND SWAP1 MSTORE JUMP JUMPDEST DUP1 MLOAD PUSH1 0x0 SWAP1 PUSH1 0x20 DUP1 DUP5 ADD DUP4 JUMPDEST DUP4 DUP2 LT ISZERO PUSH2 0x8AE JUMPI DUP2 MLOAD PUSH1 0xF SIGNEXTEND DUP8 MSTORE SWAP6 DUP3 ADD SWAP6 SWAP1 DUP3 ADD SWAP1 PUSH1 0x1 ADD PUSH2 0x88F JUMP JUMPDEST POP SWAP5 SWAP6 SWAP5 POP POP POP POP POP JUMP JUMPDEST PUSH1 0x0 SIGNEXTEND PUSH1 0xF8 SHL SWAP1 MSTORE JUMP JUMPDEST PUSH1 0xF8 SHL PUSH32 0xFF00000000000000000000000000000000000000000000000000000000000000 AND SWAP1 MSTORE JUMP JUMPDEST SWAP7 DUP8 MSTORE PUSH1 0xD8 SWAP6 SWAP1 SWAP6 SHL PUSH32 0xFFFFFFFFFF000000000000000000000000000000000000000000000000000000 AND PUSH1 0x20 DUP8 ADD MSTORE PUSH1 0xE8 SWAP4 SWAP1 SWAP4 SHL PUSH32 0xFFFFFF0000000000000000000000000000000000000000000000000000000000 AND PUSH1 0x25 DUP7 ADD MSTORE PUSH1 0xF8 SWAP2 DUP3 SHL PUSH32 0xFF00000000000000000000000000000000000000000000000000000000000000 SWAP1 DUP2 AND PUSH1 0x28 DUP8 ADD MSTORE SWAP1 DUP3 SHL DUP2 AND PUSH1 0x29 DUP7 ADD MSTORE SWAP2 DUP2 SHL SWAP1 SWAP2 AND PUSH1 0x2A DUP5 ADD MSTORE PUSH1 0x0 SWAP2 SWAP1 SWAP2 SIGNEXTEND SWAP1 SHL PUSH1 0x2B DUP3 ADD MSTORE PUSH1 0x2C ADD SWAP1 JUMP JUMPDEST PUSH1 0x0 DUP11 DUP3 MSTORE PUSH32 0xFFFFFFFFFF000000000000000000000000000000000000000000000000000000 DUP11 PUSH1 0xD8 SHL AND PUSH1 0x20 DUP4 ADD MSTORE PUSH32 0xFFFFFF0000000000000000000000000000000000000000000000000000000000 DUP10 PUSH1 0xE8 SHL AND PUSH1 0x25 DUP4 ADD MSTORE PUSH32 0xFF00000000000000000000000000000000000000000000000000000000000000 DUP1 DUP10 PUSH1 0xF8 SHL AND PUSH1 0x28 DUP5 ADD MSTORE DUP1 DUP9 PUSH1 0xF8 SHL AND PUSH1 0x29 DUP5 ADD MSTORE DUP1 DUP8 PUSH1 0xF8 SHL AND PUSH1 0x2A DUP5 ADD MSTORE DUP6 DUP3 SIGNEXTEND PUSH1 0xF8 SHL PUSH1 0x2B DUP5 ADD MSTORE DUP1 DUP6 PUSH1 0xF8 SHL AND PUSH1 0x2C DUP5 ADD MSTORE POP PUSH2 0xA60 PUSH1 0x2D DUP4 ADD DUP5 PUSH2 0x85A JUMP JUMPDEST POP PUSH1 0x41 ADD SWAP10 SWAP9 POP POP POP POP POP POP POP POP POP JUMP JUMPDEST PUSH1 0x0 DUP13 DUP3 MSTORE PUSH32 0xFFFFFFFFFF000000000000000000000000000000000000000000000000000000 DUP13 PUSH1 0xD8 SHL AND PUSH1 0x20 DUP4 ADD MSTORE PUSH32 0xFFFFFF0000000000000000000000000000000000000000000000000000000000 DUP12 PUSH1 0xE8 SHL AND PUSH1 0x25 DUP4 ADD MSTORE PUSH32 0xFF00000000000000000000000000000000000000000000000000000000000000 DUP1 DUP12 PUSH1 0xF8 SHL AND PUSH1 0x28 DUP5 ADD MSTORE DUP1 DUP11 PUSH1 0xF8 SHL AND PUSH1 0x29 DUP5 ADD MSTORE POP PUSH2 0xB11 PUSH1 0x2A DUP4 ADD DUP10 PUSH2 0x8C3 JUMP JUMPDEST PUSH2 0xB1E PUSH1 0x2B DUP4 ADD DUP9 PUSH2 0x8B9 JUMP JUMPDEST PUSH2 0xB2B PUSH1 0x2C DUP4 ADD DUP8 PUSH2 0x8C3 JUMP JUMPDEST PUSH2 0xB38 PUSH1 0x2D DUP4 ADD DUP7 PUSH2 0x85A JUMP JUMPDEST PUSH2 0xB45 PUSH1 0x41 DUP4 ADD DUP6 PUSH2 0x85A JUMP JUMPDEST PUSH2 0xB52 PUSH1 0x55 DUP4 ADD DUP5 PUSH2 0x85A JUMP JUMPDEST POP PUSH1 0x69 ADD SWAP12 SWAP11 POP POP POP POP POP POP POP POP POP POP POP JUMP JUMPDEST PUSH1 0x0 DUP4 MLOAD PUSH2 0xB77 DUP2 DUP5 PUSH1 0x20 DUP9 ADD PUSH2 0xCF1 JUMP JUMPDEST PUSH2 0xB83 DUP2 DUP5 ADD DUP6 PUSH2 0x883 JUMP JUMPDEST SWAP6 SWAP5 POP POP POP POP POP JUMP JUMPDEST PUSH1 0x0 DUP7 MLOAD PUSH2 0xB9E DUP2 DUP5 PUSH1 0x20 DUP12 ADD PUSH2 0xCF1 JUMP JUMPDEST DUP1 DUP4 ADD PUSH32 0xFF00000000000000000000000000000000000000000000000000000000000000 SWAP2 POP DUP2 DUP9 PUSH1 0xF8 SHL AND DUP2 MSTORE DUP2 DUP8 PUSH1 0xF8 SHL AND PUSH1 0x1 DUP3 ADD MSTORE DUP2 DUP7 PUSH1 0xF8 SHL AND PUSH1 0x2 DUP3 ADD MSTORE PUSH2 0xBEF PUSH1 0x3 DUP3 ADD DUP7 PUSH2 0x883 JUMP JUMPDEST SWAP10 SWAP9 POP POP POP POP POP POP POP POP POP JUMP JUMPDEST PUSH1 0x0 DUP3 MLOAD PUSH2 0xC0E DUP2 DUP5 PUSH1 0x20 DUP8 ADD PUSH2 0xCF1 JUMP JUMPDEST SWAP2 SWAP1 SWAP2 ADD SWAP3 SWAP2 POP POP JUMP JUMPDEST SWAP1 DUP2 MSTORE PUSH1 0x20 ADD SWAP1 JUMP JUMPDEST PUSH1 0x0 PUSH1 0x20 DUP3 MSTORE DUP3 MLOAD DUP1 PUSH1 0x20 DUP5 ADD MSTORE PUSH2 0xC40 DUP2 PUSH1 0x40 DUP6 ADD PUSH1 0x20 DUP8 ADD PUSH2 0xCF1 JUMP JUMPDEST PUSH1 0x1F ADD PUSH32 0xFFFFFFFFFFFFFFFFFFFFFFFFFFFFFFFFFFFFFFFFFFFFFFFFFFFFFFFFFFFFFFE0 AND SWAP2 SWAP1 SWAP2 ADD PUSH1 0x40 ADD SWAP3 SWAP2 POP POP JUMP JUMPDEST PUSH1 0x20 DUP1 DUP3 MSTORE PUSH1 0x15 SWAP1 DUP3 ADD MSTORE PUSH32 0x746F6F2066617220696E20746865206675747572650000000000000000000000 PUSH1 0x40 DUP3 ADD MSTORE PUSH1 0x60 ADD SWAP1 JUMP JUMPDEST PUSH6 0xFFFFFFFFFFFF SWAP2 SWAP1 SWAP2 AND DUP2 MSTORE PUSH1 0x20 ADD SWAP1 JUMP JUMPDEST PUSH1 0xFF SWAP2 SWAP1 SWAP2 AND DUP2 MSTORE PUSH1 0x20 ADD SWAP1 JUMP JUMPDEST PUSH1 0x40 MLOAD DUP2 DUP2 ADD PUSH8 0xFFFFFFFFFFFFFFFF DUP2 GT DUP3 DUP3 LT OR ISZERO PUSH2 0xCE9 JUMPI PUSH1 0x0 DUP1 REVERT JUMPDEST PUSH1 0x40 MSTORE SWAP2 SWAP1 POP JUMP JUMPDEST PUSH1 0x0 JUMPDEST DUP4 DUP2 LT ISZERO PUSH2 0xD0C JUMPI DUP2 DUP2 ADD MLOAD DUP4 DUP3 ADD MSTORE PUSH1 0x20 ADD PUSH2 0xCF4 JUMP JUMPDEST DUP4 DUP2 GT ISZERO PUSH2 0xD1B JUMPI PUSH1 0x0 DUP5 DUP5 ADD MSTORE JUMPDEST POP POP POP POP JUMP INVALID STOP STOP STOP STOP STOP STOP STOP STOP STOP STATICCALL PUSH30 0x3B53800000000A8C0000000001FA40000000001C200000000000 STOP LOG2 PUSH5 0x6970667358 0x22 SLT KECCAK256 REVERT SDIV MSIZE 0xD8 0xC3 SGT SWAP15 0x4E 0x29 SWAP16 RETURN CALLCODE NOT 0xD4 PUSH7 0x32D915DE2E18B9 SWAP16 0xB3 0xD3 0xC4 0xC5 GASLIMIT PUSH3 0x8C035B PUSH5 0x736F6C6343 STOP MOD DIV STOP CALLER "
			}
		}
	},
	"sourceTreeHashHex": "0xf5ae85acab8665e7e549af0175754e477d7fd9079d5ec74b11401510673f1c96",
	"compiler": {
		"name": "solc",
		"version": "soljson-v0.6.4+commit.1dca32f3.js",
		"settings": {
			"optimizer": {
				"enabled": true,
				"runs": 20000,
				"details": {
					"yul": true,
					"deduplicate": true,
					"cse": true,
					"constantOptimizer": true
				}
			},
			"outputSelection": {
				"*": {
					"*": [
						"abi",
						"evm.bytecode.object",
						"evm.bytecode.sourceMap",
						"evm.deployedBytecode.object",
						"evm.deployedBytecode.sourceMap"
					]
				}
			},
			"remappings": [
				"factsigner=/home/ulf/github/digioptions-contracts.js/node_modules/factsigner"
			]
		}
	},
	"chains": {}
}