{
	"schemaVersion": "2.0.0",
	"contractName": "DigiOptionsMarkets",
	"compilerOutput": {
		"abi": [
			{
				"inputs": [],
				"stateMutability": "nonpayable",
				"type": "constructor"
			},
			{
				"anonymous": false,
				"inputs": [
					{
						"indexed": true,
						"internalType": "address",
						"name": "addr",
						"type": "address"
					},
					{
						"indexed": false,
						"internalType": "uint256",
						"name": "datetime",
						"type": "uint256"
					},
					{
						"indexed": false,
						"internalType": "int256",
						"name": "amount",
						"type": "int256"
					}
				],
				"name": "LiquidityAddWithdraw",
				"type": "event"
			},
			{
				"anonymous": false,
				"inputs": [
					{
						"indexed": false,
						"internalType": "bytes32",
						"name": "marketKey",
						"type": "bytes32"
					},
					{
						"indexed": true,
						"internalType": "uint48",
						"name": "expirationDatetimeFilter",
						"type": "uint48"
					},
					{
						"indexed": false,
						"internalType": "uint40",
						"name": "expirationDatetime",
						"type": "uint40"
					},
					{
						"indexed": true,
						"internalType": "uint8",
						"name": "marketInterval",
						"type": "uint8"
					},
					{
						"indexed": true,
						"internalType": "uint8",
						"name": "marketCategory",
						"type": "uint8"
					},
					{
						"indexed": false,
						"internalType": "string",
						"name": "underlyingString",
						"type": "string"
					}
				],
				"name": "MarketCreate",
				"type": "event"
			},
			{
				"anonymous": false,
				"inputs": [
					{
						"indexed": false,
						"internalType": "bytes32",
						"name": "marketHash",
						"type": "bytes32"
					}
				],
				"name": "MarketSettlement",
				"type": "event"
			},
			{
				"anonymous": false,
				"inputs": [
					{
						"indexed": true,
						"internalType": "uint256",
						"name": "buyer",
						"type": "uint256"
					},
					{
						"indexed": true,
						"internalType": "uint256",
						"name": "seller",
						"type": "uint256"
					},
					{
						"indexed": true,
						"internalType": "bytes32",
						"name": "marketHash",
						"type": "bytes32"
					},
					{
						"indexed": false,
						"internalType": "uint256",
						"name": "datetime",
						"type": "uint256"
					},
					{
						"indexed": false,
						"internalType": "uint16",
						"name": "optionID",
						"type": "uint16"
					},
					{
						"indexed": false,
						"internalType": "uint256",
						"name": "pricePerOption",
						"type": "uint256"
					},
					{
						"indexed": false,
						"internalType": "uint256",
						"name": "size",
						"type": "uint256"
					},
					{
						"indexed": false,
						"internalType": "bytes32",
						"name": "offerHash",
						"type": "bytes32"
					}
				],
				"name": "PositionChange",
				"type": "event"
			},
			{
				"inputs": [
					{
						"internalType": "uint40",
						"name": "expirationDatetime",
						"type": "uint40"
					}
				],
				"name": "calcMarketInterval",
				"outputs": [
					{
						"internalType": "uint8",
						"name": "interval",
						"type": "uint8"
					}
				],
				"stateMutability": "view",
				"type": "function"
			},
			{
				"inputs": [
					{
						"components": [
							{
								"internalType": "string",
								"name": "underlyingString",
								"type": "string"
							},
							{
								"internalType": "uint40",
								"name": "expirationDatetime",
								"type": "uint40"
							},
							{
								"internalType": "uint24",
								"name": "objectionPeriod",
								"type": "uint24"
							},
							{
								"internalType": "uint8",
								"name": "config",
								"type": "uint8"
							},
							{
								"internalType": "uint8",
								"name": "marketCategory",
								"type": "uint8"
							},
							{
								"internalType": "uint8",
								"name": "baseUnitExp",
								"type": "uint8"
							},
							{
								"internalType": "int8",
								"name": "ndigit",
								"type": "int8"
							},
							{
								"internalType": "address",
								"name": "signerAddr",
								"type": "address"
							},
							{
								"internalType": "uint8",
								"name": "marketInterval",
								"type": "uint8"
							},
							{
								"internalType": "uint8",
								"name": "transactionFee0",
								"type": "uint8"
							},
							{
								"internalType": "uint8",
								"name": "transactionFee1",
								"type": "uint8"
							},
							{
								"internalType": "uint8",
								"name": "transactionFeeSigner",
								"type": "uint8"
							},
							{
								"internalType": "address",
								"name": "feeTaker0",
								"type": "address"
							},
							{
								"internalType": "address",
								"name": "feeTaker1",
								"type": "address"
							},
							{
								"internalType": "int128[]",
								"name": "strikes",
								"type": "int128[]"
							}
						],
						"internalType": "struct DigiOptionsLib.MarketBaseData",
						"name": "marketBaseData",
						"type": "tuple"
					},
					{
						"internalType": "bool",
						"name": "testMarket",
						"type": "bool"
					},
					{
						"components": [
							{
								"internalType": "uint8",
								"name": "v",
								"type": "uint8"
							},
							{
								"internalType": "bytes32",
								"name": "r",
								"type": "bytes32"
							},
							{
								"internalType": "bytes32",
								"name": "s",
								"type": "bytes32"
							}
						],
						"internalType": "struct FactsignerVerify.Signature",
						"name": "signature",
						"type": "tuple"
					}
				],
				"name": "createMarket",
				"outputs": [
					{
						"internalType": "bytes32",
						"name": "marketHash",
						"type": "bytes32"
					}
				],
				"stateMutability": "nonpayable",
				"type": "function"
			},
			{
				"inputs": [
					{
						"internalType": "bytes32",
						"name": "marketHash",
						"type": "bytes32"
					},
					{
						"internalType": "address[]",
						"name": "users",
						"type": "address[]"
					},
					{
						"internalType": "bytes32[]",
						"name": "offerHash",
						"type": "bytes32[]"
					}
				],
				"name": "freeLiquidity",
				"outputs": [],
				"stateMutability": "nonpayable",
				"type": "function"
			},
			{
				"inputs": [],
				"name": "getContractInfo",
				"outputs": [
					{
						"internalType": "uint256[]",
						"name": "contractInfoValues",
						"type": "uint256[]"
					}
				],
				"stateMutability": "nonpayable",
				"type": "function"
			},
			{
				"inputs": [
					{
						"internalType": "bytes32",
						"name": "marketHash",
						"type": "bytes32"
					}
				],
				"name": "getLiquidityAndPositions",
				"outputs": [
					{
						"internalType": "uint256",
						"name": "liquidity",
						"type": "uint256"
					},
					{
						"components": [
							{
								"internalType": "int128",
								"name": "value",
								"type": "int128"
							},
							{
								"internalType": "uint8",
								"name": "rangeState",
								"type": "uint8"
							}
						],
						"internalType": "struct DigiOptionsMarkets.Position[]",
						"name": "positions",
						"type": "tuple[]"
					},
					{
						"internalType": "enum DigiOptionsLib.UserState",
						"name": "userState",
						"type": "uint8"
					}
				],
				"stateMutability": "view",
				"type": "function"
			},
			{
				"inputs": [
					{
						"internalType": "bytes32",
						"name": "marketHash",
						"type": "bytes32"
					}
				],
				"name": "getMarketBaseDataByMarketHash",
				"outputs": [
					{
						"components": [
							{
								"internalType": "string",
								"name": "underlyingString",
								"type": "string"
							},
							{
								"internalType": "uint40",
								"name": "expirationDatetime",
								"type": "uint40"
							},
							{
								"internalType": "uint24",
								"name": "objectionPeriod",
								"type": "uint24"
							},
							{
								"internalType": "uint8",
								"name": "config",
								"type": "uint8"
							},
							{
								"internalType": "uint8",
								"name": "marketCategory",
								"type": "uint8"
							},
							{
								"internalType": "uint8",
								"name": "baseUnitExp",
								"type": "uint8"
							},
							{
								"internalType": "int8",
								"name": "ndigit",
								"type": "int8"
							},
							{
								"internalType": "address",
								"name": "signerAddr",
								"type": "address"
							},
							{
								"internalType": "uint8",
								"name": "marketInterval",
								"type": "uint8"
							},
							{
								"internalType": "uint8",
								"name": "transactionFee0",
								"type": "uint8"
							},
							{
								"internalType": "uint8",
								"name": "transactionFee1",
								"type": "uint8"
							},
							{
								"internalType": "uint8",
								"name": "transactionFeeSigner",
								"type": "uint8"
							},
							{
								"internalType": "address",
								"name": "feeTaker0",
								"type": "address"
							},
							{
								"internalType": "address",
								"name": "feeTaker1",
								"type": "address"
							},
							{
								"internalType": "int128[]",
								"name": "strikes",
								"type": "int128[]"
							}
						],
						"internalType": "struct DigiOptionsLib.MarketBaseData",
						"name": "marketBaseData",
						"type": "tuple"
					}
				],
				"stateMutability": "view",
				"type": "function"
			},
			{
				"inputs": [
					{
						"internalType": "address",
						"name": "addr",
						"type": "address"
					},
					{
						"internalType": "bytes32",
						"name": "marketHash",
						"type": "bytes32"
					}
				],
				"name": "getMarketDataByMarketHash",
				"outputs": [
					{
						"components": [
							{
								"components": [
									{
										"internalType": "string",
										"name": "underlyingString",
										"type": "string"
									},
									{
										"internalType": "uint40",
										"name": "expirationDatetime",
										"type": "uint40"
									},
									{
										"internalType": "uint24",
										"name": "objectionPeriod",
										"type": "uint24"
									},
									{
										"internalType": "uint8",
										"name": "config",
										"type": "uint8"
									},
									{
										"internalType": "uint8",
										"name": "marketCategory",
										"type": "uint8"
									},
									{
										"internalType": "uint8",
										"name": "baseUnitExp",
										"type": "uint8"
									},
									{
										"internalType": "int8",
										"name": "ndigit",
										"type": "int8"
									},
									{
										"internalType": "address",
										"name": "signerAddr",
										"type": "address"
									},
									{
										"internalType": "uint8",
										"name": "marketInterval",
										"type": "uint8"
									},
									{
										"internalType": "uint8",
										"name": "transactionFee0",
										"type": "uint8"
									},
									{
										"internalType": "uint8",
										"name": "transactionFee1",
										"type": "uint8"
									},
									{
										"internalType": "uint8",
										"name": "transactionFeeSigner",
										"type": "uint8"
									},
									{
										"internalType": "address",
										"name": "feeTaker0",
										"type": "address"
									},
									{
										"internalType": "address",
										"name": "feeTaker1",
										"type": "address"
									},
									{
										"internalType": "int128[]",
										"name": "strikes",
										"type": "int128[]"
									}
								],
								"internalType": "struct DigiOptionsLib.MarketBaseData",
								"name": "marketBaseData",
								"type": "tuple"
							},
							{
								"components": [
									{
										"internalType": "uint128",
										"name": "fee",
										"type": "uint128"
									},
									{
										"internalType": "uint16",
										"name": "winningOptionID",
										"type": "uint16"
									},
									{
										"internalType": "bool",
										"name": "settled",
										"type": "bool"
									}
								],
								"internalType": "struct DigiOptionsLib.MarketState",
								"name": "marketState",
								"type": "tuple"
							},
							{
								"internalType": "bytes32",
								"name": "marketHash",
								"type": "bytes32"
							},
							{
								"internalType": "enum DigiOptionsLib.UserState",
								"name": "userState",
								"type": "uint8"
							},
							{
								"internalType": "bool",
								"name": "testMarket",
								"type": "bool"
							}
						],
						"internalType": "struct DigiOptionsLib.MarketData",
						"name": "marketData",
						"type": "tuple"
					}
				],
				"stateMutability": "view",
				"type": "function"
			},
			{
				"inputs": [
					{
						"internalType": "address",
						"name": "addr",
						"type": "address"
					},
					{
						"internalType": "bytes32[]",
						"name": "marketKeys",
						"type": "bytes32[]"
					}
				],
				"name": "getMarketDataListByMarketKeys",
				"outputs": [
					{
						"components": [
							{
								"components": [
									{
										"internalType": "string",
										"name": "underlyingString",
										"type": "string"
									},
									{
										"internalType": "uint40",
										"name": "expirationDatetime",
										"type": "uint40"
									},
									{
										"internalType": "uint24",
										"name": "objectionPeriod",
										"type": "uint24"
									},
									{
										"internalType": "uint8",
										"name": "config",
										"type": "uint8"
									},
									{
										"internalType": "uint8",
										"name": "marketCategory",
										"type": "uint8"
									},
									{
										"internalType": "uint8",
										"name": "baseUnitExp",
										"type": "uint8"
									},
									{
										"internalType": "int8",
										"name": "ndigit",
										"type": "int8"
									},
									{
										"internalType": "address",
										"name": "signerAddr",
										"type": "address"
									},
									{
										"internalType": "uint8",
										"name": "marketInterval",
										"type": "uint8"
									},
									{
										"internalType": "uint8",
										"name": "transactionFee0",
										"type": "uint8"
									},
									{
										"internalType": "uint8",
										"name": "transactionFee1",
										"type": "uint8"
									},
									{
										"internalType": "uint8",
										"name": "transactionFeeSigner",
										"type": "uint8"
									},
									{
										"internalType": "address",
										"name": "feeTaker0",
										"type": "address"
									},
									{
										"internalType": "address",
										"name": "feeTaker1",
										"type": "address"
									},
									{
										"internalType": "int128[]",
										"name": "strikes",
										"type": "int128[]"
									}
								],
								"internalType": "struct DigiOptionsLib.MarketBaseData",
								"name": "marketBaseData",
								"type": "tuple"
							},
							{
								"components": [
									{
										"internalType": "uint128",
										"name": "fee",
										"type": "uint128"
									},
									{
										"internalType": "uint16",
										"name": "winningOptionID",
										"type": "uint16"
									},
									{
										"internalType": "bool",
										"name": "settled",
										"type": "bool"
									}
								],
								"internalType": "struct DigiOptionsLib.MarketState",
								"name": "marketState",
								"type": "tuple"
							},
							{
								"internalType": "bytes32",
								"name": "marketHash",
								"type": "bytes32"
							},
							{
								"internalType": "enum DigiOptionsLib.UserState",
								"name": "userState",
								"type": "uint8"
							},
							{
								"internalType": "bool",
								"name": "testMarket",
								"type": "bool"
							}
						],
						"internalType": "struct DigiOptionsLib.MarketData[]",
						"name": "marketDataList",
						"type": "tuple[]"
					}
				],
				"stateMutability": "view",
				"type": "function"
			},
			{
				"inputs": [],
				"name": "liquidityAdd",
				"outputs": [],
				"stateMutability": "payable",
				"type": "function"
			},
			{
				"inputs": [
					{
						"internalType": "address",
						"name": "user",
						"type": "address"
					}
				],
				"name": "liquidityAddFor",
				"outputs": [],
				"stateMutability": "payable",
				"type": "function"
			},
			{
				"inputs": [],
				"name": "liquidityGet",
				"outputs": [
					{
						"internalType": "uint256",
						"name": "liquidity",
						"type": "uint256"
					}
				],
				"stateMutability": "view",
				"type": "function"
			},
			{
				"inputs": [
					{
						"internalType": "uint256",
						"name": "amount",
						"type": "uint256"
					}
				],
				"name": "liquidityWithdraw",
				"outputs": [],
				"stateMutability": "nonpayable",
				"type": "function"
			},
			{
				"inputs": [
					{
						"components": [
							{
								"components": [
									{
										"internalType": "bytes32",
										"name": "marketHash",
										"type": "bytes32"
									},
									{
										"internalType": "uint16",
										"name": "optionID",
										"type": "uint16"
									},
									{
										"internalType": "bool",
										"name": "buy",
										"type": "bool"
									},
									{
										"internalType": "uint256",
										"name": "pricePerOption",
										"type": "uint256"
									},
									{
										"internalType": "uint256",
										"name": "size",
										"type": "uint256"
									},
									{
										"internalType": "uint256",
										"name": "offerID",
										"type": "uint256"
									},
									{
										"internalType": "uint256",
										"name": "blockExpires",
										"type": "uint256"
									},
									{
										"internalType": "address",
										"name": "offerOwner",
										"type": "address"
									}
								],
								"internalType": "struct DigiOptionsMarkets.OrderOffer",
								"name": "orderOffer",
								"type": "tuple"
							},
							{
								"components": [
									{
										"internalType": "uint8",
										"name": "v",
										"type": "uint8"
									},
									{
										"internalType": "bytes32",
										"name": "r",
										"type": "bytes32"
									},
									{
										"internalType": "bytes32",
										"name": "s",
										"type": "bytes32"
									}
								],
								"internalType": "struct DigiOptionsLib.Signature",
								"name": "signature",
								"type": "tuple"
							}
						],
						"internalType": "struct DigiOptionsMarkets.OrderOfferSigned[]",
						"name": "orderOfferSignedList",
						"type": "tuple[]"
					},
					{
						"internalType": "uint256",
						"name": "sizeAcceptMax",
						"type": "uint256"
					}
				],
				"name": "orderExecute",
				"outputs": [],
				"stateMutability": "nonpayable",
				"type": "function"
			},
			{
				"inputs": [
					{
						"components": [
							{
								"components": [
									{
										"internalType": "bytes32",
										"name": "marketHash",
										"type": "bytes32"
									},
									{
										"internalType": "uint16",
										"name": "optionID",
										"type": "uint16"
									},
									{
										"internalType": "bool",
										"name": "buy",
										"type": "bool"
									},
									{
										"internalType": "uint256",
										"name": "pricePerOption",
										"type": "uint256"
									},
									{
										"internalType": "uint256",
										"name": "size",
										"type": "uint256"
									},
									{
										"internalType": "uint256",
										"name": "offerID",
										"type": "uint256"
									},
									{
										"internalType": "uint256",
										"name": "blockExpires",
										"type": "uint256"
									},
									{
										"internalType": "address",
										"name": "offerOwner",
										"type": "address"
									}
								],
								"internalType": "struct DigiOptionsMarkets.OrderOffer",
								"name": "orderOffer",
								"type": "tuple"
							},
							{
								"components": [
									{
										"internalType": "uint8",
										"name": "v",
										"type": "uint8"
									},
									{
										"internalType": "bytes32",
										"name": "r",
										"type": "bytes32"
									},
									{
										"internalType": "bytes32",
										"name": "s",
										"type": "bytes32"
									}
								],
								"internalType": "struct DigiOptionsLib.Signature",
								"name": "signature",
								"type": "tuple"
							}
						],
						"internalType": "struct DigiOptionsMarkets.OrderOfferSigned",
						"name": "orderOfferSigned",
						"type": "tuple"
					},
					{
						"internalType": "uint256",
						"name": "sizeAccept",
						"type": "uint256"
					}
				],
				"name": "orderExecuteTest",
				"outputs": [
					{
						"internalType": "uint256",
						"name": "sizeAcceptPossible",
						"type": "uint256"
					},
					{
						"internalType": "bytes32",
						"name": "offerHash",
						"type": "bytes32"
					},
					{
						"internalType": "int256",
						"name": "liquidityOfferOwner",
						"type": "int256"
					},
					{
						"internalType": "int256",
						"name": "liquidityOfferTaker",
						"type": "int256"
					},
					{
						"internalType": "uint256",
						"name": "transactionFeeAmount",
						"type": "uint256"
					}
				],
				"stateMutability": "view",
				"type": "function"
			},
			{
				"inputs": [
					{
						"internalType": "bytes32",
						"name": "marketHash",
						"type": "bytes32"
					},
					{
						"components": [
							{
								"internalType": "uint8",
								"name": "v",
								"type": "uint8"
							},
							{
								"internalType": "bytes32",
								"name": "r",
								"type": "bytes32"
							},
							{
								"internalType": "bytes32",
								"name": "s",
								"type": "bytes32"
							}
						],
						"internalType": "struct FactsignerVerify.Signature",
						"name": "signature",
						"type": "tuple"
					},
					{
						"internalType": "int256",
						"name": "value",
						"type": "int256"
					},
					{
						"internalType": "address[]",
						"name": "users",
						"type": "address[]"
					},
					{
						"internalType": "bytes32[]",
						"name": "offerHash",
						"type": "bytes32[]"
					}
				],
				"name": "settlement",
				"outputs": [],
				"stateMutability": "nonpayable",
				"type": "function"
			}
		],
		"evm": {
			"bytecode": {
				"linkReferences": {},
				"object": "0x608060405234801561001057600080fd5b504360015542600055614794806100286000396000f3fe6080604052600436106100e85760003560e01c80636f1dc3391161008a578063b145e5ee11610059578063b145e5ee1461027e578063c70be14614610291578063d245a559146102be578063ee1f69eb146102de576100e8565b80636f1dc3391461021f5780637cc1f86714610234578063997402f214610256578063a1aa12b21461025e576100e8565b806320185aa2116100c657806320185aa214610174578063248a2954146101945780632556d8d0146101c557806352d02688146101f2576100e8565b806305090e1a146100ed578063095200ce1461010f57806319018bdb14610145575b600080fd5b3480156100f957600080fd5b5061010d6101083660046138d6565b61030b565b005b34801561011b57600080fd5b5061012f61012a366004613b9b565b61062d565b60405161013c91906146a8565b60405180910390f35b34801561015157600080fd5b506101656101603660046138be565b610640565b60405161013c939291906145e1565b34801561018057600080fd5b5061010d61018f3660046138be565b61099e565b3480156101a057600080fd5b506101b46101af366004613b6f565b610a96565b60405161013c959493929190614650565b3480156101d157600080fd5b506101e56101e03660046139c6565b610cd9565b60405161013c91906142d4565b3480156101fe57600080fd5b5061021261020d366004613755565b611299565b60405161013c9190614212565b34801561022b57600080fd5b506101e561133d565b34801561024057600080fd5b50610249611350565b60405161013c9190614290565b61010d61146b565b34801561026a57600080fd5b5061010d610279366004613940565b6114dc565b61010d61028c36600461373a565b611bb9565b34801561029d57600080fd5b506102b16102ac3660046137ef565b611c4e565b60405161013c91906145ce565b3480156102ca57600080fd5b5061010d6102d9366004613819565b611f5b565b3480156102ea57600080fd5b506102fe6102f93660046138be565b611f9f565b60405161013c91906145bb565b60008381526004602052604090206103216130e9565b506040805160608101825282546fffffffffffffffffffffffffffffffff81168252700100000000000000000000000000000000810461ffff1660208301819052720100000000000000000000000000000000000090910460ff16151592820183905290916001146103c8576040517f08c379a00000000000000000000000000000000000000000000000000000000081526004016103bf90614334565b60405180910390fd5b6000805b86518210156106235760008783815181106103e357fe5b602002602001015190506002808111156103f957fe5b6104038288612206565b600281111561040e57fe5b146106175761041d868261232f565b73ffffffffffffffffffffffffffffffffffffffff82166000908152600688016020908152604080832061ffff89168452909152812054919350600f91820b90910b9061046a82856123c1565b73ffffffffffffffffffffffffffffffffffffffff8416600090815260068a016020908152604080832061ffff8b168452909152902080547fffffffffffffffffffffffffffffff00ffffffffffffffffffffffffffffffff1670020000000000000000000000000000000017905590506105206104f46104ef83633b9aca00612421565b6124fa565b73ffffffffffffffffffffffffffffffffffffffff85166000908152600360205260409020549061250a565b73ffffffffffffffffffffffffffffffffffffffff841660009081526003602052604081209190915582126105b2578a8373ffffffffffffffffffffffffffffffffffffffff1660007f7881338eb26bc3f4eb2d539721ba87c61744a77ccef589c34a5ad54af21fadf2428a6009600a0a8860006040516105a5959493929190614681565b60405180910390a4610614565b8a60008473ffffffffffffffffffffffffffffffffffffffff167f7881338eb26bc3f4eb2d539721ba87c61744a77ccef589c34a5ad54af21fadf2428a6009600a0a88600003600060405161060b959493929190614681565b60405180910390a45b50505b506001909101906103cc565b5050505050505050565b600061063882612549565b90505b919050565b6000818152600460205260408120606090829061065b613109565b81600101604051806101e0016040529081600082018054600181600116156101000203166002900480601f0160208091040260200160405190810160405280929190818152602001828054600181600116156101000203166002900480156107045780601f106106d957610100808354040283529160200191610704565b820191906000526020600020905b8154815290600101906020018083116106e757829003601f168201915b5050509183525050600182015464ffffffffff811660208084019190915262ffffff6501000000000083041660408085019190915260ff6801000000000000000084048116606086015269010000000000000000008404811660808601526a01000000000000000000008404811660a08601526b0100000000000000000000008404600090810b810b900b60c086015273ffffffffffffffffffffffffffffffffffffffff6c01000000000000000000000000909404841660e0860152600286015480821661010080880191909152810482166101208701526201000081048216610140870152630100000081049091166101608601526401000000009004831661018085015260038501549092166101a08401526004840180548351818402810184019094528084526101c090940193909183018282801561088c57602002820191906000526020600020906000905b82829054906101000a9004600f0b600f0b81526020019060100190602082600f010492830192600103820291508084116108555790505b5050505050815250509050806101c001515160010167ffffffffffffffff811180156108b757600080fd5b506040519080825280602002602001820160405280156108f157816020015b6108de613187565b8152602001906001900390816108d65790505b50935060005b816101c00151518111610971573360009081526006840160209081526040808320848452825291829020825180840190935254600f81810b810b900b8352700100000000000000000000000000000000900460ff1690820152855186908390811061095e57fe5b60209081029190910101526001016108f7565b503360008181526003602052604090205490859061098f9085612206565b94509450945050509193909250565b336000908152600360205260409020548111156109e7576040517f08c379a00000000000000000000000000000000000000000000000000000000081526004016103bf90614527565b33600090815260036020526040902054610a019082612604565b33600081815260036020526040808220939093559151909183156108fc02918491818181858888f19350505050158015610a3f573d6000803e3d6000fd5b503373ffffffffffffffffffffffffffffffffffffffff167f6e2eec282b5765f3a053054d83d425d0e03e1003bb2740d41c1fce6d4a0d74f74283600003604051610a8b929190614673565b60405180910390a250565b6000806000806000610aa661319e565b5086518051600090815260046020908152604091829020835182850151848601516060870151608088015160a089015160c08a015160e08b015199519799610af099309901613ec7565b6040516020818303038152906040528051906020012095508160e0015173ffffffffffffffffffffffffffffffffffffffff16610b31878b60200151612646565b73ffffffffffffffffffffffffffffffffffffffff1614610b555760009750610b9d565b60808201516000878152600783016020526040902054610b75908a61250a565b1115610b9d5760008681526007820160205260409020546080830151610b9a91612604565b97505b6000610bb683606001518a61272e90919063ffffffff16565b6003830154909150610c0290610bf09060ff63010000008204811691610bea9161010082048116916201000090041661250a565b9061250a565b610bfc83612710612782565b9061272e565b9350610c1a828460400151858660e001518d866127c4565b9550610c41610c2885612898565b610c3b8486604001511587338f886127c4565b906123c1565b6005830154602085015191965061ffff90911611801590610c6657508260c001514311155b8015610c80575060c0830151610c7d43600c61250a565b10155b8015610ca6575060e083015173ffffffffffffffffffffffffffffffffffffffff163314155b8015610cb3575060008612155b8015610cc0575060008512155b610cc957600098505b8897505050509295509295909350565b6000836020015164ffffffffff1660001415610cf157fe5b6000610cfc856128c3565b90508460e0015173ffffffffffffffffffffffffffffffffffffffff16610d23828561299a565b73ffffffffffffffffffffffffffffffffffffffff1614610d70576040517f08c379a00000000000000000000000000000000000000000000000000000000081526004016103bf9061436b565b610d79856129e5565b60008181526004602052604090206002015490925064ffffffffff16159050610da157611292565b8360a0015160ff16601214610db257fe5b6040846080015160ff1610610dc357fe5b606084015160009060011615610ec9576000856101c001515111610de357fe5b617ffd856101c001515110610df457fe5b5060015b846101c0015151811015610e5057846101c001518181518110610e1757fe5b6020026020010151600f0b856101c001516001830381518110610e3657fe5b6020026020010151600f0b12610e4857fe5b600101610df8565b8460c0015160000b8560a0015160ff1660010b1215610e6b57fe5b5060005b846101c0015151811015610ec4578460c0015160000b8560a0015160ff1603600a0a856101c001518281518110610ea257fe5b6020026020010151600f0b81610eb457fe5b0715610ebc57fe5b600101610e6f565b610eeb565b6001856101c001515111610ed957fe5b617ffd856101c00151511115610eeb57fe5b6020856080015160ff1610610efc57fe5b6000856080015160080260ff1686610100015160ff166001901b901b9050806002541660001415610f305760028054821790555b6000610f3f8760200151612549565b606088015190915060041615610f68578060ff1687610100015160ff1614610f6357fe5b610f78565b61010087015160ff1615610f7857fe5b6000848152600460209081526040909120885180518a93600190930192610fa39284929101906131e2565b5060208201518160010160006101000a81548164ffffffffff021916908364ffffffffff16021790555060408201518160010160056101000a81548162ffffff021916908362ffffff16021790555060608201518160010160086101000a81548160ff021916908360ff16021790555060808201518160010160096101000a81548160ff021916908360ff16021790555060a082015181600101600a6101000a81548160ff021916908360ff16021790555060c082015181600101600b6101000a81548160ff021916908360000b60ff16021790555060e082015181600101600c6101000a81548173ffffffffffffffffffffffffffffffffffffffff021916908373ffffffffffffffffffffffffffffffffffffffff1602179055506101008201518160020160006101000a81548160ff021916908360ff1602179055506101208201518160020160016101000a81548160ff021916908360ff1602179055506101408201518160020160026101000a81548160ff021916908360ff1602179055506101608201518160020160036101000a81548160ff021916908360ff1602179055506101808201518160020160046101000a81548173ffffffffffffffffffffffffffffffffffffffff021916908373ffffffffffffffffffffffffffffffffffffffff1602179055506101a08201518160030160006101000a81548173ffffffffffffffffffffffffffffffffffffffff021916908373ffffffffffffffffffffffffffffffffffffffff1602179055506101c08201518160040190805190602001906111f592919061325c565b50905050866080015160ff1687610100015160ff168260ff16600861121c8560ff16612abc565b65ffffffffffff168b6020015164ffffffffff168161123757fe5b0465ffffffffffff16901b0165ffffffffffff167f13d334f612c6e3d949b7da4336e52487cdf7e8b324884e285aaca45027505860878b602001518c60000151604051611286939291906142dd565b60405180910390a45050505b9392505050565b60608167ffffffffffffffff811180156112b257600080fd5b506040519080825280602002602001820160405280156112ec57816020015b6112d961332e565b8152602001906001900390816112d15790505b50905060005b82811015611335576113168585858481811061130a57fe5b90506020020135611c4e565b82828151811061132257fe5b60209081029190910101526001016112f2565b509392505050565b3360009081526003602052604090205490565b6040805160098082526101408201909252606091829190602082016101208036833701905050905060018160008151811061138757fe5b60209081029190910101526000816001815181106113a157fe5b602090810291909101015262350000816002815181106113bd57fe5b602090810291909101015230816003815181106113d657fe5b6020908102919091010152600154816004815181106113f157fe5b60209081029190910101526000548160058151811061140c57fe5b6020908102919091010152600c8160068151811061142657fe5b602090810291909101015260098160078151811061144057fe5b60209081029190910101526002548160088151811061145b57fe5b6020908102919091010152905090565b34156114da573360009081526003602052604090205461148b903461250a565b33600081815260036020526040908190209290925590517f6e2eec282b5765f3a053054d83d425d0e03e1003bb2740d41c1fce6d4a0d74f7906114d19042903490614673565b60405180910390a25b565b60008581526004602090815260409182902060028082015484516001808501805461010092811615929092027fffffffffffffffffffffffffffffffffffffffffffffffffffffffffffffffff0190911693909304601f810186900490950281016102009081019096526101e0810185815293956c0100000000000000000000000090920473ffffffffffffffffffffffffffffffffffffffff169461179e9461176d949293849284918401828280156115d75780601f106115ac576101008083540402835291602001916115d7565b820191906000526020600020905b8154815290600101906020018083116115ba57829003601f168201915b5050509183525050600182015464ffffffffff811660208084019190915262ffffff6501000000000083041660408085019190915260ff6801000000000000000084048116606086015269010000000000000000008404811660808601526a01000000000000000000008404811660a08601526b0100000000000000000000008404600090810b810b900b60c086015273ffffffffffffffffffffffffffffffffffffffff6c01000000000000000000000000909404841660e0860152600286015480821661010080880191909152810482166101208701526201000081048216610140870152630100000081049091166101608601526401000000009004831661018085015260038501549092166101a08401526004840180548351818402810184019094528084526101c090940193909183018282801561175f57602002820191906000526020600020906000905b82829054906101000a9004600f0b600f0b81526020019060100190602082600f010492830192600103820291508084116117285790505b5050505050815250506128c3565b86600060405160200161178293929190613f5b565b604051602081830303815290604052805190602001208761299a565b73ffffffffffffffffffffffffffffffffffffffff16146117eb576040517f08c379a00000000000000000000000000000000000000000000000000000000081526004016103bf9061436b565b80547201000000000000000000000000000000000000900460ff16156118115750611bb2565b600080600160028401546801000000000000000090041660ff1615611898575050600581015460005b6005830154811015611893576005830180548290811061185657fe5b90600052602060002090600291828204019190066010029054906101000a9004600f0b600f0b86121561188b57809150611893565b60010161183a565b6118f8565b5060009050805b60058301548110156118f857600583018054829081106118bb57fe5b90600052602060002090600291828204019190066010029054906101000a9004600f0b600f0b8614156118f0578091506118f8565b60010161189f565b825472010000000000000000000000000000000000007fffffffffffffffffffffffffffff0000ffffffffffffffffffffffffffffffff90911670010000000000000000000000000000000061ffff851602177fffffffffffffffffffffffffff00ffffffffffffffffffffffffffffffffffff1617835560038301546000906119a09060ff63010000008204811691610bea9161010082048116916201000090041661250a565b845490915060009082906fffffffffffffffffffffffffffffffff16816119c357fe5b60038701549190049150611a1e906119e4908390610100900460ff1661272e565b600387810154640100000000900473ffffffffffffffffffffffffffffffffffffffff16600090815260209190915260409020549061250a565b60038681018054640100000000900473ffffffffffffffffffffffffffffffffffffffff16600090815260209290925260409091209190915554611aa090611a7090839062010000900460ff1661272e565b600487015473ffffffffffffffffffffffffffffffffffffffff166000908152600360205260409020549061250a565b600486015473ffffffffffffffffffffffffffffffffffffffff16600090815260036020819052604090912091909155850154611b2c90611aec9083906301000000900460ff1661272e565b60028701546c01000000000000000000000000900473ffffffffffffffffffffffffffffffffffffffff166000908152600360205260409020549061250a565b60028601546c01000000000000000000000000900473ffffffffffffffffffffffffffffffffffffffff166000908152600360205260409081902091909155517fbc368577aa675ea916e9069e5c84c091ab02483dcc1a83cda5f0124b39b0f2e990611b99908c906142d4565b60405180910390a1611bac8a888861030b565b50505050505b5050505050565b3415611c4b5773ffffffffffffffffffffffffffffffffffffffff8116600090815260036020526040902054611bef903461250a565b73ffffffffffffffffffffffffffffffffffffffff8216600081815260036020526040908190209290925590517f6e2eec282b5765f3a053054d83d425d0e03e1003bb2740d41c1fce6d4a0d74f790610a8b9042903490614673565b50565b611c5661332e565b6000828152600460205260409020611c6c613109565b81600101604051806101e0016040529081600082018054600181600116156101000203166002900480601f016020809104026020016040519081016040528092919081815260200182805460018160011615610100020316600290048015611d155780601f10611cea57610100808354040283529160200191611d15565b820191906000526020600020905b815481529060010190602001808311611cf857829003601f168201915b5050509183525050600182015464ffffffffff811660208084019190915262ffffff6501000000000083041660408085019190915260ff6801000000000000000084048116606086015269010000000000000000008404811660808601526a01000000000000000000008404811660a08601526b0100000000000000000000008404600090810b810b900b60c086015273ffffffffffffffffffffffffffffffffffffffff6c01000000000000000000000000909404841660e0860152600286015480821661010080880191909152810482166101208701526201000081048216610140870152630100000081049091166101608601526401000000009004831661018085015260038501549092166101a08401526004840180548351818402810184019094528084526101c0909401939091830182828015611e9d57602002820191906000526020600020906000905b82829054906101000a9004600f0b600f0b81526020019060100190602082600f01049283019260010382029150808411611e665790505b5050505050815250509050611eb06130e9565b50604080516060808201835284546fffffffffffffffffffffffffffffffff81168352700100000000000000000000000000000000810461ffff16602080850191909152720100000000000000000000000000000000000090910460ff16151583850152835160a0810185528581529081018390529283018790529091908101611f3a8886612206565b6002811115611f4557fe5b8152600060209091015293505050505b92915050565b611f63613369565b60005b8351811015611f9957838181518110611f7b57fe5b60200260200101519150611f8f8284612aea565b9250600101611f66565b50505050565b611fa7613109565b600082815260046020908152604091829020825160018083018054600292811615610100027fffffffffffffffffffffffffffffffffffffffffffffffffffffffffffffffff011691909104601f810185900490940282016102009081019095526101e0820184815292949193909284929091849184018282801561206d5780601f106120425761010080835404028352916020019161206d565b820191906000526020600020905b81548152906001019060200180831161205057829003601f168201915b5050509183525050600182015464ffffffffff811660208084019190915262ffffff6501000000000083041660408085019190915260ff6801000000000000000084048116606086015269010000000000000000008404811660808601526a01000000000000000000008404811660a08601526b0100000000000000000000008404600090810b810b900b60c086015273ffffffffffffffffffffffffffffffffffffffff6c01000000000000000000000000909404841660e0860152600286015480821661010080880191909152810482166101208701526201000081048216610140870152630100000081049091166101608601526401000000009004831661018085015260038501549092166101a08401526004840180548351818402810184019094528084526101c09094019390918301828280156121f557602002820191906000526020600020906000905b82829054906101000a9004600f0b600f0b81526020019060100190602082600f010492830192600103820291508084116121be5790505b505050505081525050915050919050565b73ffffffffffffffffffffffffffffffffffffffff82166000908152600682016020526040812082547201000000000000000000000000000000000000900460ff16156122d857612255613187565b5082547001000000000000000000000000000000009081900461ffff1660009081526020838152604091829020825180840190935254600f81810b810b900b83529290920460ff1691810182905290600214806122c65750602081015160ff1660011480156122c657508051600f0b155b156122d657600292505050611f55565b505b60005b6005840154811161232457600081815260208390526040902054700100000000000000000000000000000000900460ff161561231c57600192505050611f55565b6001016122db565b506000949350505050565b600582015473ffffffffffffffffffffffffffffffffffffffff82166000908152600684016020526040812090917f7fffffffffffffffffffffffffffffffffffffffffffffffffffffffffffffff9183805b8381116123b557600081815260208490526040902054600f90810b900b9150848212156123ad578194505b600101612382565b50929695505050505050565b60008183038183128015906123d65750838113155b806123eb57506000831280156123eb57508381135b611292576040517f08c379a00000000000000000000000000000000000000000000000000000000081526004016103bf9061455e565b60008261243057506000611f55565b827fffffffffffffffffffffffffffffffffffffffffffffffffffffffffffffffff14801561247e57507f800000000000000000000000000000000000000000000000000000000000000082145b156124b5576040517f08c379a00000000000000000000000000000000000000000000000000000000081526004016103bf906144ca565b828202828482816124c257fe5b0514611292576040517f08c379a00000000000000000000000000000000000000000000000000000000081526004016103bf906144ca565b60008082121561250657fe5b5090565b600082820183811015611292576040517f08c379a00000000000000000000000000000000000000000000000000000000081526004016103bf906143d9565b6000808061255e64ffffffffff851642612604565b90506303c26700811061259d576040517f08c379a00000000000000000000000000000000000000000000000000000000081526004016103bf906143a2565b623b53808111156125b25760015b91506125fd565b620a8c008111156125c45760036125ab565b6201fa408111156125d65760046125ab565b611c208111156125e75760056125ab565b6103848111156125f85760066125ab565b600791505b5092915050565b600061129283836040518060400160405280601e81526020017f536166654d6174683a207375627472616374696f6e206f766572666c6f770000815250612f06565b6000806040518060400160405280601c81526020017f19457468657265756d205369676e6564204d6573736167653a0a33320000000081525084604051602001612691929190614164565b6040516020818303038152906040528051906020012090506000600182856000015186602001518760400151604051600081526020016040526040516126da9493929190614303565b6020604051602081039080840390855afa1580156126fc573d6000803e3d6000fd5b50506040517fffffffffffffffffffffffffffffffffffffffffffffffffffffffffffffffe001519695505050505050565b60008261273d57506000611f55565b8282028284828161274a57fe5b0414611292576040517f08c379a00000000000000000000000000000000000000000000000000000000081526004016103bf9061446d565b600061129283836040518060400160405280601a81526020017f536166654d6174683a206469766973696f6e206279207a65726f000000000000815250612f4c565b73ffffffffffffffffffffffffffffffffffffffff831660009081526003602052604081205481906127f590612898565b905060008761282e5761281161280a85612898565b8390612f9d565b915061282761281f86612898565b6000906123c1565b905061284f565b61284161283a85612898565b83906123c1565b915061284c85612898565b90505b6000806128628b898b6020015186612ffd565b9092509050612889612882633b9aca0061287c84866123c1565b90612421565b8590612f9d565b9b9a5050505050505050505050565b60007f8000000000000000000000000000000000000000000000000000000000000000821061250657fe5b6000606082600001516040516020016128dc91906141f6565b6040516020818303038152906040528051906020012083602001518460400151856060015186608001518760a001518860c001516040516020016129269796959493929190613f96565b604080518083037fffffffffffffffffffffffffffffffffffffffffffffffffffffffffffffffe0018152919052606084015190915060011661298c576101c083015160405161297a91839160200161413d565b60405160208183030381529060405290505b805160209091012092915050565b6000806040518060400160405280601e81526020017f19466163747369676e6572205369676e6564204d6573736167653a0a3332000081525084604051602001612691929190614164565b6000606082600001516040516020016129fe91906141f6565b6040516020818303038152906040528051906020012083602001518460400151856060015186608001518760a001518860c001518961010001518a61018001518b6101a001518c60e00151604051602001612a639b9a99989796959493929190614049565b604080517fffffffffffffffffffffffffffffffffffffffffffffffffffffffffffffffe0818403018152908290526101208501516101408601516101608701516101c088015193955061297a94869490602001614186565b600060606040518060600160405280602a8152602001614735602a9139600184016006020151915050919050565b6000612af461319e565b5082518051600090815260046020526040808220908301518291908290819015612b2557505060e084015133612b2f565b505060e084015133905b6000806000612b3e8c8c610a96565b929b509299509450909250905086612b61578a9950505050505050505050611f55565b612b6a836124fa565b60e08a015173ffffffffffffffffffffffffffffffffffffffff16600090815260036020526040902055612b9d826124fa565b336000908152600360205260409020558554612bd490612bcf906fffffffffffffffffffffffffffffffff168361250a565b6130be565b86547fffffffffffffffffffffffffffffffff00000000000000000000000000000000166fffffffffffffffffffffffffffffffff91909116178655612c18613187565b5073ffffffffffffffffffffffffffffffffffffffff8516600090815260068701602090815260408083208c83015161ffff16845280835292819020815180830190925254600f90810b810b810b808352600193830193909352909291612c8a91612c8591900b8b612f9d565b6130db565b600f90810b810b835260208c8101805161ffff9081166000908152948352604080862087518154988601517fffffffffffffffffffffffffffffffff000000000000000000000000000000009099166fffffffffffffffffffffffffffffffff91880b91909116177fffffffffffffffffffffffffffffff00ffffffffffffffffffffffffffffffff1670010000000000000000000000000000000060ff998a1681029190911790915573ffffffffffffffffffffffffffffffffffffffff8c16875260068e018552818720935190921686528284529485902085518087019096525480850b850b850b808752919004909516918401919091529192612d9691612c8591900b8b6123c1565b600f90810b810b8352600160208085019182528d81015161ffff166000908152938152604080852095518654935160ff16700100000000000000000000000000000000027fffffffffffffffffffffffffffffff00ffffffffffffffffffffffffffffffff9190950b6fffffffffffffffffffffffffffffffff167fffffffffffffffffffffffffffffffff000000000000000000000000000000009094169390931792909216929092179093558a82526007890190522054612e59908861250a565b8660070160008a81526020019081526020016000208190555088600001518473ffffffffffffffffffffffffffffffffffffffff168673ffffffffffffffffffffffffffffffffffffffff167f7881338eb26bc3f4eb2d539721ba87c61744a77ccef589c34a5ad54af21fadf2428d602001518e606001518d8f604051612ee4959493929190614681565b60405180910390a4612ef68b88612604565b9c9b505050505050505050505050565b60008184841115612f44576040517f08c379a00000000000000000000000000000000000000000000000000000000081526004016103bf9190614321565b505050900390565b60008183612f87576040517f08c379a00000000000000000000000000000000000000000000000000000000081526004016103bf9190614321565b506000838581612f9357fe5b0495945050505050565b6000828201818312801590612fb25750838112155b80612fc75750600083128015612fc757508381125b611292576040517f08c379a00000000000000000000000000000000000000000000000000000000081526004016103bf90614410565b600584015473ffffffffffffffffffffffffffffffffffffffff841660009081526006860160205260408120909182917f7fffffffffffffffffffffffffffffffffffffffffffffffffffffffffffffff91829184805b8381116130ac57600081815260208490526040902054600f90810b900b91508582121561307f578195505b8961ffff1681141561309857613095828a612f9d565b91505b848212156130a4578194505b600101613054565b50939a92995091975050505050505050565b600081826fffffffffffffffffffffffffffffffff161461250657fe5b60008182600f0b1461250657fe5b604080516060810182526000808252602082018190529181019190915290565b604080516101e08101825260608082526000602083018190529282018390528082018390526080820183905260a0820183905260c0820183905260e08201839052610100820183905261012082018390526101408201839052610160820183905261018082018390526101a08201929092526101c081019190915290565b604080518082019091526000808252602082015290565b6040805161010081018252600080825260208201819052918101829052606081018290526080810182905260a0810182905260c0810182905260e081019190915290565b828054600181600116156101000203166002900490600052602060002090601f016020900481019282601f1061322357805160ff1916838001178555613250565b82800160010185558215613250579182015b82811115613250578251825591602001919060010190613235565b5061250692915061338e565b828054828255906000526020600020906001016002900481019282156133225791602002820160005b838211156132e457835183826101000a8154816fffffffffffffffffffffffffffffffff0219169083600f0b6fffffffffffffffffffffffffffffffff1602179055509260200192601001602081600f01049283019260010302613285565b80156133205782816101000a8154906fffffffffffffffffffffffffffffffff0219169055601001602081600f010492830192600103026132e4565b505b506125069291506133a3565b6040518060a00160405280613341613109565b815260200161334e6130e9565b81526000602082018190526040820181905260609091015290565b604051806040016040528061337c61319e565b81526020016133896130e9565b905290565b5b80821115612506576000815560010161338f565b5b808211156125065780547fffffffffffffffffffffffffffffffff000000000000000000000000000000001681556001016133a4565b803573ffffffffffffffffffffffffffffffffffffffff81168114611f5557600080fd5b600082601f83011261340e578081fd5b813561342161341c826146dd565b6146b6565b81815291506020808301908481018184028601820187101561344257600080fd5b60005b848110156134695761345788836133da565b84529282019290820190600101613445565b505050505092915050565b600082601f830112613484578081fd5b813561349261341c826146dd565b8181529150602080830190848101818402860182018710156134b357600080fd5b60005b84811015613469578135845292820192908201906001016134b6565b600082601f8301126134e2578081fd5b81356134f061341c826146dd565b81815291506020808301908481018184028601820187101561351157600080fd5b6000805b8581101561353f57823580600f0b811461352d578283fd5b85529383019391830191600101613515565b50505050505092915050565b80358015158114611f5557600080fd5b8035600081900b8114611f5557600080fd5b600082601f83011261357d578081fd5b813567ffffffffffffffff811115613593578182fd5b6135c460207fffffffffffffffffffffffffffffffffffffffffffffffffffffffffffffffe0601f840116016146b6565b91508082528360208285010111156135db57600080fd5b8060208401602084013760009082016020015292915050565b6000818303610160811215613607578182fd5b61361160406146b6565b91506101008082121561362357600080fd5b61362c816146b6565b91508335825261363f85602086016136ef565b6020830152613651856040860161354b565b6040830152606084013560608301526080840135608083015260a084013560a083015260c084013560c083015261368b8560e086016133da565b60e083015281835261369f858286016136ac565b6020840152505092915050565b6000606082840312156136bd578081fd5b6136c760606146b6565b90506136d38383613729565b8152602082013560208201526040820135604082015292915050565b803561ffff81168114611f5557600080fd5b803562ffffff81168114611f5557600080fd5b803564ffffffffff81168114611f5557600080fd5b803560ff81168114611f5557600080fd5b60006020828403121561374b578081fd5b61129283836133da565b600080600060408486031215613769578182fd5b833573ffffffffffffffffffffffffffffffffffffffff8116811461378c578283fd5b9250602084013567ffffffffffffffff808211156137a8578384fd5b818601915086601f8301126137bb578384fd5b8135818111156137c9578485fd5b87602080830285010111156137dc578485fd5b6020830194508093505050509250925092565b60008060408385031215613801578182fd5b61380b84846133da565b946020939093013593505050565b6000806040838503121561382b578182fd5b823567ffffffffffffffff811115613841578283fd5b8301601f81018513613851578283fd5b803561385f61341c826146dd565b80828252602080830192508085016101608a838288028901011115613882578889fd5b8896505b858710156138ae576138988b836135f4565b8552600196909601959382019390810190613886565b5091999701359750505050505050565b6000602082840312156138cf578081fd5b5035919050565b6000806000606084860312156138ea578081fd5b83359250602084013567ffffffffffffffff80821115613908578283fd5b613914878388016133fe565b93506040860135915080821115613929578283fd5b5061393686828701613474565b9150509250925092565b600080600080600060e08688031215613957578283fd5b8535945061396887602088016136ac565b93506080860135925060a086013567ffffffffffffffff8082111561398b578283fd5b61399789838a016133fe565b935060c08801359150808211156139ac578283fd5b506139b988828901613474565b9150509295509295909350565b600080600060a084860312156139da578081fd5b833567ffffffffffffffff808211156139f1578283fd5b81860191506101e0808389031215613a07578384fd5b613a10816146b6565b9050823582811115613a20578485fd5b613a2c8982860161356d565b825250613a3c8860208501613714565b6020820152613a4e8860408501613701565b6040820152613a608860608501613729565b6060820152613a728860808501613729565b6080820152613a848860a08501613729565b60a0820152613a968860c0850161355b565b60c0820152613aa88860e085016133da565b60e0820152610100613abc89828601613729565b90820152610120613acf89858301613729565b90820152610140613ae289858301613729565b90820152610160613af589858301613729565b90820152610180613b08898583016133da565b908201526101a0613b1b898583016133da565b908201526101c08381013583811115613b32578586fd5b613b3e8a8287016134d2565b828401525050809550505050613b57856020860161354b565b9150613b6685604086016136ac565b90509250925092565b6000806101808385031215613b82578182fd5b613b8c84846135f4565b94610160939093013593505050565b600060208284031215613bac578081fd5b813564ffffffffff81168114611292578182fd5b73ffffffffffffffffffffffffffffffffffffffff169052565b60601b7fffffffffffffffffffffffffffffffffffffffff000000000000000000000000169052565b6000815180845260208085019450808401835b83811015613c35578151600f0b87529582019590820190600101613c16565b509495945050505050565b80516000906020808401838315613c35578151600f0b87529582019590820190600101613c16565b60000b9052565b60000b60f81b9052565b60008151808452613c91816020860160208601614708565b601f017fffffffffffffffffffffffffffffffffffffffffffffffffffffffffffffffe0169290920160200192915050565b60006101e08251818552613cd982860182613c79565b9150506020830151613cee6020860182613e8c565b506040830151613d016040860182613e83565b506060830151613d146060860182613e97565b506080830151613d276080860182613e97565b5060a0830151613d3a60a0860182613e97565b5060c0830151613d4d60c0860182613c68565b5060e0830151613d6060e0860182613bc0565b5061010080840151613d7482870182613e97565b505061012080840151613d8982870182613e97565b505061014080840151613d9e82870182613e97565b505061016080840151613db382870182613e97565b505061018080840151613dc882870182613bc0565b50506101a080840151613ddd82870182613bc0565b50506101c08084015185830382870152613df78382613c03565b9695505050505050565b6000815160e08452613e1660e0850182613cc3565b905060208301516fffffffffffffffffffffffffffffffff815116602086015261ffff60208201511660408601526040810151151560608601525060408301516080850152613e6860608401516146fd565b60a08501526080830151151560c08501528091505092915050565b62ffffff169052565b64ffffffffff169052565b60ff169052565b60f81b7fff00000000000000000000000000000000000000000000000000000000000000169052565b6060998a1b7fffffffffffffffffffffffffffffffffffffffff0000000000000000000000009081168252601482019990995260f09790971b7fffff00000000000000000000000000000000000000000000000000000000000016603488015294151560f81b6036870152603786019390935260578501919091526077840152609783015290921b1660b782015260cb0190565b928352602083019190915260f01b7fffff00000000000000000000000000000000000000000000000000000000000016604082015260420190565b96875260d89590951b7fffffffffff00000000000000000000000000000000000000000000000000000016602087015260e89390931b7fffffff000000000000000000000000000000000000000000000000000000000016602586015260f891821b7fff00000000000000000000000000000000000000000000000000000000000000908116602887015290821b8116602986015291811b909116602a84015260009190910b901b602b820152602c0190565b60008c82527fffffffffff0000000000000000000000000000000000000000000000000000008c60d81b1660208301527fffffff00000000000000000000000000000000000000000000000000000000008b60e81b1660258301527fff00000000000000000000000000000000000000000000000000000000000000808b60f81b166028840152808a60f81b166029840152506140e9602a830189613e9e565b6140f6602b830188613c6f565b614103602c830187613e9e565b614110602d830186613bda565b61411d6041830185613bda565b61412a6055830184613bda565b506069019b9a5050505050505050505050565b6000835161414f818460208801614708565b61415b81840185613c40565b95945050505050565b60008351614176818460208801614708565b9190910191825250602001919050565b60008651614198818460208b01614708565b80830190507fff00000000000000000000000000000000000000000000000000000000000000808860f81b168252808760f81b166001830152808660f81b166002830152506141ea6003820185613c40565b98975050505050505050565b60008251614208818460208701614708565b9190910192915050565b6000602080830181845280855180835260408601915060408482028701019250838701855b82811015614283577fffffffffffffffffffffffffffffffffffffffffffffffffffffffffffffffc0888603018452614271858351613e01565b94509285019290850190600101614237565b5092979650505050505050565b6020808252825182820181905260009190848201906040850190845b818110156142c8578351835292840192918401916001016142ac565b50909695505050505050565b90815260200190565b600084825264ffffffffff841660208301526060604083015261415b6060830184613c79565b93845260ff9290921660208401526040830152606082015260800190565b6000602082526112926020830184613c79565b60208082526017908201527f4d61726b6574206e6f742079657420736574746c65642e000000000000000000604082015260600190565b60208082526012908201527f5369676e617475726520696e76616c69642e0000000000000000000000000000604082015260600190565b60208082526015908201527f746f6f2066617220696e20746865206675747572650000000000000000000000604082015260600190565b6020808252601b908201527f536166654d6174683a206164646974696f6e206f766572666c6f770000000000604082015260600190565b60208082526021908201527f5369676e6564536166654d6174683a206164646974696f6e206f766572666c6f60408201527f7700000000000000000000000000000000000000000000000000000000000000606082015260800190565b60208082526021908201527f536166654d6174683a206d756c7469706c69636174696f6e206f766572666c6f60408201527f7700000000000000000000000000000000000000000000000000000000000000606082015260800190565b60208082526027908201527f5369676e6564536166654d6174683a206d756c7469706c69636174696f6e206f60408201527f766572666c6f7700000000000000000000000000000000000000000000000000606082015260800190565b60208082526015908201527f4e6f7420656e6f756768206c69717569646974792e0000000000000000000000604082015260600190565b60208082526024908201527f5369676e6564536166654d6174683a207375627472616374696f6e206f76657260408201527f666c6f7700000000000000000000000000000000000000000000000000000000606082015260800190565b6000602082526112926020830184613cc3565b6000602082526112926020830184613e01565b60006060820185835260206060818501528186518084526080860191508288019350845b818110156146325784518051600f0b845284015160ff168484015293830193604090920191600101614605565b5050809350505050614643836146fd565b6040830152949350505050565b948552602085019390935260408401919091526060830152608082015260a00190565b918252602082015260400190565b94855261ffff93909316602085015260408401919091526060830152608082015260a00190565b60ff91909116815260200190565b60405181810167ffffffffffffffff811182821017156146d557600080fd5b604052919050565b600067ffffffffffffffff8211156146f3578081fd5b5060209081020190565b806003811061063b57fe5b60005b8381101561472357818101518382015260200161470b565b83811115611f99575050600091015256fe000000000000000000fa7d000000003b53800000000a8c0000000001fa40000000001c20000000000000a264697066735822122014e6f31ac4dc79158764b07f0a68bf573cbd461370c3a2a9cf0c99325d0fff7264736f6c63430007000033",
				"opcodes": "PUSH1 0x80 PUSH1 0x40 MSTORE CALLVALUE DUP1 ISZERO PUSH2 0x10 JUMPI PUSH1 0x0 DUP1 REVERT JUMPDEST POP NUMBER PUSH1 0x1 SSTORE TIMESTAMP PUSH1 0x0 SSTORE PUSH2 0x4794 DUP1 PUSH2 0x28 PUSH1 0x0 CODECOPY PUSH1 0x0 RETURN INVALID PUSH1 0x80 PUSH1 0x40 MSTORE PUSH1 0x4 CALLDATASIZE LT PUSH2 0xE8 JUMPI PUSH1 0x0 CALLDATALOAD PUSH1 0xE0 SHR DUP1 PUSH4 0x6F1DC339 GT PUSH2 0x8A JUMPI DUP1 PUSH4 0xB145E5EE GT PUSH2 0x59 JUMPI DUP1 PUSH4 0xB145E5EE EQ PUSH2 0x27E JUMPI DUP1 PUSH4 0xC70BE146 EQ PUSH2 0x291 JUMPI DUP1 PUSH4 0xD245A559 EQ PUSH2 0x2BE JUMPI DUP1 PUSH4 0xEE1F69EB EQ PUSH2 0x2DE JUMPI PUSH2 0xE8 JUMP JUMPDEST DUP1 PUSH4 0x6F1DC339 EQ PUSH2 0x21F JUMPI DUP1 PUSH4 0x7CC1F867 EQ PUSH2 0x234 JUMPI DUP1 PUSH4 0x997402F2 EQ PUSH2 0x256 JUMPI DUP1 PUSH4 0xA1AA12B2 EQ PUSH2 0x25E JUMPI PUSH2 0xE8 JUMP JUMPDEST DUP1 PUSH4 0x20185AA2 GT PUSH2 0xC6 JUMPI DUP1 PUSH4 0x20185AA2 EQ PUSH2 0x174 JUMPI DUP1 PUSH4 0x248A2954 EQ PUSH2 0x194 JUMPI DUP1 PUSH4 0x2556D8D0 EQ PUSH2 0x1C5 JUMPI DUP1 PUSH4 0x52D02688 EQ PUSH2 0x1F2 JUMPI PUSH2 0xE8 JUMP JUMPDEST DUP1 PUSH4 0x5090E1A EQ PUSH2 0xED JUMPI DUP1 PUSH4 0x95200CE EQ PUSH2 0x10F JUMPI DUP1 PUSH4 0x19018BDB EQ PUSH2 0x145 JUMPI JUMPDEST PUSH1 0x0 DUP1 REVERT JUMPDEST CALLVALUE DUP1 ISZERO PUSH2 0xF9 JUMPI PUSH1 0x0 DUP1 REVERT JUMPDEST POP PUSH2 0x10D PUSH2 0x108 CALLDATASIZE PUSH1 0x4 PUSH2 0x38D6 JUMP JUMPDEST PUSH2 0x30B JUMP JUMPDEST STOP JUMPDEST CALLVALUE DUP1 ISZERO PUSH2 0x11B JUMPI PUSH1 0x0 DUP1 REVERT JUMPDEST POP PUSH2 0x12F PUSH2 0x12A CALLDATASIZE PUSH1 0x4 PUSH2 0x3B9B JUMP JUMPDEST PUSH2 0x62D JUMP JUMPDEST PUSH1 0x40 MLOAD PUSH2 0x13C SWAP2 SWAP1 PUSH2 0x46A8 JUMP JUMPDEST PUSH1 0x40 MLOAD DUP1 SWAP2 SUB SWAP1 RETURN JUMPDEST CALLVALUE DUP1 ISZERO PUSH2 0x151 JUMPI PUSH1 0x0 DUP1 REVERT JUMPDEST POP PUSH2 0x165 PUSH2 0x160 CALLDATASIZE PUSH1 0x4 PUSH2 0x38BE JUMP JUMPDEST PUSH2 0x640 JUMP JUMPDEST PUSH1 0x40 MLOAD PUSH2 0x13C SWAP4 SWAP3 SWAP2 SWAP1 PUSH2 0x45E1 JUMP JUMPDEST CALLVALUE DUP1 ISZERO PUSH2 0x180 JUMPI PUSH1 0x0 DUP1 REVERT JUMPDEST POP PUSH2 0x10D PUSH2 0x18F CALLDATASIZE PUSH1 0x4 PUSH2 0x38BE JUMP JUMPDEST PUSH2 0x99E JUMP JUMPDEST CALLVALUE DUP1 ISZERO PUSH2 0x1A0 JUMPI PUSH1 0x0 DUP1 REVERT JUMPDEST POP PUSH2 0x1B4 PUSH2 0x1AF CALLDATASIZE PUSH1 0x4 PUSH2 0x3B6F JUMP JUMPDEST PUSH2 0xA96 JUMP JUMPDEST PUSH1 0x40 MLOAD PUSH2 0x13C SWAP6 SWAP5 SWAP4 SWAP3 SWAP2 SWAP1 PUSH2 0x4650 JUMP JUMPDEST CALLVALUE DUP1 ISZERO PUSH2 0x1D1 JUMPI PUSH1 0x0 DUP1 REVERT JUMPDEST POP PUSH2 0x1E5 PUSH2 0x1E0 CALLDATASIZE PUSH1 0x4 PUSH2 0x39C6 JUMP JUMPDEST PUSH2 0xCD9 JUMP JUMPDEST PUSH1 0x40 MLOAD PUSH2 0x13C SWAP2 SWAP1 PUSH2 0x42D4 JUMP JUMPDEST CALLVALUE DUP1 ISZERO PUSH2 0x1FE JUMPI PUSH1 0x0 DUP1 REVERT JUMPDEST POP PUSH2 0x212 PUSH2 0x20D CALLDATASIZE PUSH1 0x4 PUSH2 0x3755 JUMP JUMPDEST PUSH2 0x1299 JUMP JUMPDEST PUSH1 0x40 MLOAD PUSH2 0x13C SWAP2 SWAP1 PUSH2 0x4212 JUMP JUMPDEST CALLVALUE DUP1 ISZERO PUSH2 0x22B JUMPI PUSH1 0x0 DUP1 REVERT JUMPDEST POP PUSH2 0x1E5 PUSH2 0x133D JUMP JUMPDEST CALLVALUE DUP1 ISZERO PUSH2 0x240 JUMPI PUSH1 0x0 DUP1 REVERT JUMPDEST POP PUSH2 0x249 PUSH2 0x1350 JUMP JUMPDEST PUSH1 0x40 MLOAD PUSH2 0x13C SWAP2 SWAP1 PUSH2 0x4290 JUMP JUMPDEST PUSH2 0x10D PUSH2 0x146B JUMP JUMPDEST CALLVALUE DUP1 ISZERO PUSH2 0x26A JUMPI PUSH1 0x0 DUP1 REVERT JUMPDEST POP PUSH2 0x10D PUSH2 0x279 CALLDATASIZE PUSH1 0x4 PUSH2 0x3940 JUMP JUMPDEST PUSH2 0x14DC JUMP JUMPDEST PUSH2 0x10D PUSH2 0x28C CALLDATASIZE PUSH1 0x4 PUSH2 0x373A JUMP JUMPDEST PUSH2 0x1BB9 JUMP JUMPDEST CALLVALUE DUP1 ISZERO PUSH2 0x29D JUMPI PUSH1 0x0 DUP1 REVERT JUMPDEST POP PUSH2 0x2B1 PUSH2 0x2AC CALLDATASIZE PUSH1 0x4 PUSH2 0x37EF JUMP JUMPDEST PUSH2 0x1C4E JUMP JUMPDEST PUSH1 0x40 MLOAD PUSH2 0x13C SWAP2 SWAP1 PUSH2 0x45CE JUMP JUMPDEST CALLVALUE DUP1 ISZERO PUSH2 0x2CA JUMPI PUSH1 0x0 DUP1 REVERT JUMPDEST POP PUSH2 0x10D PUSH2 0x2D9 CALLDATASIZE PUSH1 0x4 PUSH2 0x3819 JUMP JUMPDEST PUSH2 0x1F5B JUMP JUMPDEST CALLVALUE DUP1 ISZERO PUSH2 0x2EA JUMPI PUSH1 0x0 DUP1 REVERT JUMPDEST POP PUSH2 0x2FE PUSH2 0x2F9 CALLDATASIZE PUSH1 0x4 PUSH2 0x38BE JUMP JUMPDEST PUSH2 0x1F9F JUMP JUMPDEST PUSH1 0x40 MLOAD PUSH2 0x13C SWAP2 SWAP1 PUSH2 0x45BB JUMP JUMPDEST PUSH1 0x0 DUP4 DUP2 MSTORE PUSH1 0x4 PUSH1 0x20 MSTORE PUSH1 0x40 SWAP1 KECCAK256 PUSH2 0x321 PUSH2 0x30E9 JUMP JUMPDEST POP PUSH1 0x40 DUP1 MLOAD PUSH1 0x60 DUP2 ADD DUP3 MSTORE DUP3 SLOAD PUSH16 0xFFFFFFFFFFFFFFFFFFFFFFFFFFFFFFFF DUP2 AND DUP3 MSTORE PUSH17 0x100000000000000000000000000000000 DUP2 DIV PUSH2 0xFFFF AND PUSH1 0x20 DUP4 ADD DUP2 SWAP1 MSTORE PUSH19 0x1000000000000000000000000000000000000 SWAP1 SWAP2 DIV PUSH1 0xFF AND ISZERO ISZERO SWAP3 DUP3 ADD DUP4 SWAP1 MSTORE SWAP1 SWAP2 PUSH1 0x1 EQ PUSH2 0x3C8 JUMPI PUSH1 0x40 MLOAD PUSH32 0x8C379A000000000000000000000000000000000000000000000000000000000 DUP2 MSTORE PUSH1 0x4 ADD PUSH2 0x3BF SWAP1 PUSH2 0x4334 JUMP JUMPDEST PUSH1 0x40 MLOAD DUP1 SWAP2 SUB SWAP1 REVERT JUMPDEST PUSH1 0x0 DUP1 JUMPDEST DUP7 MLOAD DUP3 LT ISZERO PUSH2 0x623 JUMPI PUSH1 0x0 DUP8 DUP4 DUP2 MLOAD DUP2 LT PUSH2 0x3E3 JUMPI INVALID JUMPDEST PUSH1 0x20 MUL PUSH1 0x20 ADD ADD MLOAD SWAP1 POP PUSH1 0x2 DUP1 DUP2 GT ISZERO PUSH2 0x3F9 JUMPI INVALID JUMPDEST PUSH2 0x403 DUP3 DUP9 PUSH2 0x2206 JUMP JUMPDEST PUSH1 0x2 DUP2 GT ISZERO PUSH2 0x40E JUMPI INVALID JUMPDEST EQ PUSH2 0x617 JUMPI PUSH2 0x41D DUP7 DUP3 PUSH2 0x232F JUMP JUMPDEST PUSH20 0xFFFFFFFFFFFFFFFFFFFFFFFFFFFFFFFFFFFFFFFF DUP3 AND PUSH1 0x0 SWAP1 DUP2 MSTORE PUSH1 0x6 DUP9 ADD PUSH1 0x20 SWAP1 DUP2 MSTORE PUSH1 0x40 DUP1 DUP4 KECCAK256 PUSH2 0xFFFF DUP10 AND DUP5 MSTORE SWAP1 SWAP2 MSTORE DUP2 KECCAK256 SLOAD SWAP2 SWAP4 POP PUSH1 0xF SWAP2 DUP3 SIGNEXTEND SWAP1 SWAP2 SIGNEXTEND SWAP1 PUSH2 0x46A DUP3 DUP6 PUSH2 0x23C1 JUMP JUMPDEST PUSH20 0xFFFFFFFFFFFFFFFFFFFFFFFFFFFFFFFFFFFFFFFF DUP5 AND PUSH1 0x0 SWAP1 DUP2 MSTORE PUSH1 0x6 DUP11 ADD PUSH1 0x20 SWAP1 DUP2 MSTORE PUSH1 0x40 DUP1 DUP4 KECCAK256 PUSH2 0xFFFF DUP12 AND DUP5 MSTORE SWAP1 SWAP2 MSTORE SWAP1 KECCAK256 DUP1 SLOAD PUSH32 0xFFFFFFFFFFFFFFFFFFFFFFFFFFFFFF00FFFFFFFFFFFFFFFFFFFFFFFFFFFFFFFF AND PUSH17 0x200000000000000000000000000000000 OR SWAP1 SSTORE SWAP1 POP PUSH2 0x520 PUSH2 0x4F4 PUSH2 0x4EF DUP4 PUSH4 0x3B9ACA00 PUSH2 0x2421 JUMP JUMPDEST PUSH2 0x24FA JUMP JUMPDEST PUSH20 0xFFFFFFFFFFFFFFFFFFFFFFFFFFFFFFFFFFFFFFFF DUP6 AND PUSH1 0x0 SWAP1 DUP2 MSTORE PUSH1 0x3 PUSH1 0x20 MSTORE PUSH1 0x40 SWAP1 KECCAK256 SLOAD SWAP1 PUSH2 0x250A JUMP JUMPDEST PUSH20 0xFFFFFFFFFFFFFFFFFFFFFFFFFFFFFFFFFFFFFFFF DUP5 AND PUSH1 0x0 SWAP1 DUP2 MSTORE PUSH1 0x3 PUSH1 0x20 MSTORE PUSH1 0x40 DUP2 KECCAK256 SWAP2 SWAP1 SWAP2 SSTORE DUP3 SLT PUSH2 0x5B2 JUMPI DUP11 DUP4 PUSH20 0xFFFFFFFFFFFFFFFFFFFFFFFFFFFFFFFFFFFFFFFF AND PUSH1 0x0 PUSH32 0x7881338EB26BC3F4EB2D539721BA87C61744A77CCEF589C34A5AD54AF21FADF2 TIMESTAMP DUP11 PUSH1 0x9 PUSH1 0xA EXP DUP9 PUSH1 0x0 PUSH1 0x40 MLOAD PUSH2 0x5A5 SWAP6 SWAP5 SWAP4 SWAP3 SWAP2 SWAP1 PUSH2 0x4681 JUMP JUMPDEST PUSH1 0x40 MLOAD DUP1 SWAP2 SUB SWAP1 LOG4 PUSH2 0x614 JUMP JUMPDEST DUP11 PUSH1 0x0 DUP5 PUSH20 0xFFFFFFFFFFFFFFFFFFFFFFFFFFFFFFFFFFFFFFFF AND PUSH32 0x7881338EB26BC3F4EB2D539721BA87C61744A77CCEF589C34A5AD54AF21FADF2 TIMESTAMP DUP11 PUSH1 0x9 PUSH1 0xA EXP DUP9 PUSH1 0x0 SUB PUSH1 0x0 PUSH1 0x40 MLOAD PUSH2 0x60B SWAP6 SWAP5 SWAP4 SWAP3 SWAP2 SWAP1 PUSH2 0x4681 JUMP JUMPDEST PUSH1 0x40 MLOAD DUP1 SWAP2 SUB SWAP1 LOG4 JUMPDEST POP POP JUMPDEST POP PUSH1 0x1 SWAP1 SWAP2 ADD SWAP1 PUSH2 0x3CC JUMP JUMPDEST POP POP POP POP POP POP POP POP JUMP JUMPDEST PUSH1 0x0 PUSH2 0x638 DUP3 PUSH2 0x2549 JUMP JUMPDEST SWAP1 POP JUMPDEST SWAP2 SWAP1 POP JUMP JUMPDEST PUSH1 0x0 DUP2 DUP2 MSTORE PUSH1 0x4 PUSH1 0x20 MSTORE PUSH1 0x40 DUP2 KECCAK256 PUSH1 0x60 SWAP1 DUP3 SWAP1 PUSH2 0x65B PUSH2 0x3109 JUMP JUMPDEST DUP2 PUSH1 0x1 ADD PUSH1 0x40 MLOAD DUP1 PUSH2 0x1E0 ADD PUSH1 0x40 MSTORE SWAP1 DUP2 PUSH1 0x0 DUP3 ADD DUP1 SLOAD PUSH1 0x1 DUP2 PUSH1 0x1 AND ISZERO PUSH2 0x100 MUL SUB AND PUSH1 0x2 SWAP1 DIV DUP1 PUSH1 0x1F ADD PUSH1 0x20 DUP1 SWAP2 DIV MUL PUSH1 0x20 ADD PUSH1 0x40 MLOAD SWAP1 DUP2 ADD PUSH1 0x40 MSTORE DUP1 SWAP3 SWAP2 SWAP1 DUP2 DUP2 MSTORE PUSH1 0x20 ADD DUP3 DUP1 SLOAD PUSH1 0x1 DUP2 PUSH1 0x1 AND ISZERO PUSH2 0x100 MUL SUB AND PUSH1 0x2 SWAP1 DIV DUP1 ISZERO PUSH2 0x704 JUMPI DUP1 PUSH1 0x1F LT PUSH2 0x6D9 JUMPI PUSH2 0x100 DUP1 DUP4 SLOAD DIV MUL DUP4 MSTORE SWAP2 PUSH1 0x20 ADD SWAP2 PUSH2 0x704 JUMP JUMPDEST DUP3 ADD SWAP2 SWAP1 PUSH1 0x0 MSTORE PUSH1 0x20 PUSH1 0x0 KECCAK256 SWAP1 JUMPDEST DUP2 SLOAD DUP2 MSTORE SWAP1 PUSH1 0x1 ADD SWAP1 PUSH1 0x20 ADD DUP1 DUP4 GT PUSH2 0x6E7 JUMPI DUP3 SWAP1 SUB PUSH1 0x1F AND DUP3 ADD SWAP2 JUMPDEST POP POP POP SWAP2 DUP4 MSTORE POP POP PUSH1 0x1 DUP3 ADD SLOAD PUSH5 0xFFFFFFFFFF DUP2 AND PUSH1 0x20 DUP1 DUP5 ADD SWAP2 SWAP1 SWAP2 MSTORE PUSH3 0xFFFFFF PUSH6 0x10000000000 DUP4 DIV AND PUSH1 0x40 DUP1 DUP6 ADD SWAP2 SWAP1 SWAP2 MSTORE PUSH1 0xFF PUSH9 0x10000000000000000 DUP5 DIV DUP2 AND PUSH1 0x60 DUP7 ADD MSTORE PUSH10 0x1000000000000000000 DUP5 DIV DUP2 AND PUSH1 0x80 DUP7 ADD MSTORE PUSH11 0x100000000000000000000 DUP5 DIV DUP2 AND PUSH1 0xA0 DUP7 ADD MSTORE PUSH12 0x10000000000000000000000 DUP5 DIV PUSH1 0x0 SWAP1 DUP2 SIGNEXTEND DUP2 SIGNEXTEND SWAP1 SIGNEXTEND PUSH1 0xC0 DUP7 ADD MSTORE PUSH20 0xFFFFFFFFFFFFFFFFFFFFFFFFFFFFFFFFFFFFFFFF PUSH13 0x1000000000000000000000000 SWAP1 SWAP5 DIV DUP5 AND PUSH1 0xE0 DUP7 ADD MSTORE PUSH1 0x2 DUP7 ADD SLOAD DUP1 DUP3 AND PUSH2 0x100 DUP1 DUP9 ADD SWAP2 SWAP1 SWAP2 MSTORE DUP2 DIV DUP3 AND PUSH2 0x120 DUP8 ADD MSTORE PUSH3 0x10000 DUP2 DIV DUP3 AND PUSH2 0x140 DUP8 ADD MSTORE PUSH4 0x1000000 DUP2 DIV SWAP1 SWAP2 AND PUSH2 0x160 DUP7 ADD MSTORE PUSH5 0x100000000 SWAP1 DIV DUP4 AND PUSH2 0x180 DUP6 ADD MSTORE PUSH1 0x3 DUP6 ADD SLOAD SWAP1 SWAP3 AND PUSH2 0x1A0 DUP5 ADD MSTORE PUSH1 0x4 DUP5 ADD DUP1 SLOAD DUP4 MLOAD DUP2 DUP5 MUL DUP2 ADD DUP5 ADD SWAP1 SWAP5 MSTORE DUP1 DUP5 MSTORE PUSH2 0x1C0 SWAP1 SWAP5 ADD SWAP4 SWAP1 SWAP2 DUP4 ADD DUP3 DUP3 DUP1 ISZERO PUSH2 0x88C JUMPI PUSH1 0x20 MUL DUP3 ADD SWAP2 SWAP1 PUSH1 0x0 MSTORE PUSH1 0x20 PUSH1 0x0 KECCAK256 SWAP1 PUSH1 0x0 SWAP1 JUMPDEST DUP3 DUP3 SWAP1 SLOAD SWAP1 PUSH2 0x100 EXP SWAP1 DIV PUSH1 0xF SIGNEXTEND PUSH1 0xF SIGNEXTEND DUP2 MSTORE PUSH1 0x20 ADD SWAP1 PUSH1 0x10 ADD SWAP1 PUSH1 0x20 DUP3 PUSH1 0xF ADD DIV SWAP3 DUP4 ADD SWAP3 PUSH1 0x1 SUB DUP3 MUL SWAP2 POP DUP1 DUP5 GT PUSH2 0x855 JUMPI SWAP1 POP JUMPDEST POP POP POP POP POP DUP2 MSTORE POP POP SWAP1 POP DUP1 PUSH2 0x1C0 ADD MLOAD MLOAD PUSH1 0x1 ADD PUSH8 0xFFFFFFFFFFFFFFFF DUP2 GT DUP1 ISZERO PUSH2 0x8B7 JUMPI PUSH1 0x0 DUP1 REVERT JUMPDEST POP PUSH1 0x40 MLOAD SWAP1 DUP1 DUP3 MSTORE DUP1 PUSH1 0x20 MUL PUSH1 0x20 ADD DUP3 ADD PUSH1 0x40 MSTORE DUP1 ISZERO PUSH2 0x8F1 JUMPI DUP2 PUSH1 0x20 ADD JUMPDEST PUSH2 0x8DE PUSH2 0x3187 JUMP JUMPDEST DUP2 MSTORE PUSH1 0x20 ADD SWAP1 PUSH1 0x1 SWAP1 SUB SWAP1 DUP2 PUSH2 0x8D6 JUMPI SWAP1 POP JUMPDEST POP SWAP4 POP PUSH1 0x0 JUMPDEST DUP2 PUSH2 0x1C0 ADD MLOAD MLOAD DUP2 GT PUSH2 0x971 JUMPI CALLER PUSH1 0x0 SWAP1 DUP2 MSTORE PUSH1 0x6 DUP5 ADD PUSH1 0x20 SWAP1 DUP2 MSTORE PUSH1 0x40 DUP1 DUP4 KECCAK256 DUP5 DUP5 MSTORE DUP3 MSTORE SWAP2 DUP3 SWAP1 KECCAK256 DUP3 MLOAD DUP1 DUP5 ADD SWAP1 SWAP4 MSTORE SLOAD PUSH1 0xF DUP2 DUP2 SIGNEXTEND DUP2 SIGNEXTEND SWAP1 SIGNEXTEND DUP4 MSTORE PUSH17 0x100000000000000000000000000000000 SWAP1 DIV PUSH1 0xFF AND SWAP1 DUP3 ADD MSTORE DUP6 MLOAD DUP7 SWAP1 DUP4 SWAP1 DUP2 LT PUSH2 0x95E JUMPI INVALID JUMPDEST PUSH1 0x20 SWAP1 DUP2 MUL SWAP2 SWAP1 SWAP2 ADD ADD MSTORE PUSH1 0x1 ADD PUSH2 0x8F7 JUMP JUMPDEST POP CALLER PUSH1 0x0 DUP2 DUP2 MSTORE PUSH1 0x3 PUSH1 0x20 MSTORE PUSH1 0x40 SWAP1 KECCAK256 SLOAD SWAP1 DUP6 SWAP1 PUSH2 0x98F SWAP1 DUP6 PUSH2 0x2206 JUMP JUMPDEST SWAP5 POP SWAP5 POP SWAP5 POP POP POP SWAP2 SWAP4 SWAP1 SWAP3 POP JUMP JUMPDEST CALLER PUSH1 0x0 SWAP1 DUP2 MSTORE PUSH1 0x3 PUSH1 0x20 MSTORE PUSH1 0x40 SWAP1 KECCAK256 SLOAD DUP2 GT ISZERO PUSH2 0x9E7 JUMPI PUSH1 0x40 MLOAD PUSH32 0x8C379A000000000000000000000000000000000000000000000000000000000 DUP2 MSTORE PUSH1 0x4 ADD PUSH2 0x3BF SWAP1 PUSH2 0x4527 JUMP JUMPDEST CALLER PUSH1 0x0 SWAP1 DUP2 MSTORE PUSH1 0x3 PUSH1 0x20 MSTORE PUSH1 0x40 SWAP1 KECCAK256 SLOAD PUSH2 0xA01 SWAP1 DUP3 PUSH2 0x2604 JUMP JUMPDEST CALLER PUSH1 0x0 DUP2 DUP2 MSTORE PUSH1 0x3 PUSH1 0x20 MSTORE PUSH1 0x40 DUP1 DUP3 KECCAK256 SWAP4 SWAP1 SWAP4 SSTORE SWAP2 MLOAD SWAP1 SWAP2 DUP4 ISZERO PUSH2 0x8FC MUL SWAP2 DUP5 SWAP2 DUP2 DUP2 DUP2 DUP6 DUP9 DUP9 CALL SWAP4 POP POP POP POP ISZERO DUP1 ISZERO PUSH2 0xA3F JUMPI RETURNDATASIZE PUSH1 0x0 DUP1 RETURNDATACOPY RETURNDATASIZE PUSH1 0x0 REVERT JUMPDEST POP CALLER PUSH20 0xFFFFFFFFFFFFFFFFFFFFFFFFFFFFFFFFFFFFFFFF AND PUSH32 0x6E2EEC282B5765F3A053054D83D425D0E03E1003BB2740D41C1FCE6D4A0D74F7 TIMESTAMP DUP4 PUSH1 0x0 SUB PUSH1 0x40 MLOAD PUSH2 0xA8B SWAP3 SWAP2 SWAP1 PUSH2 0x4673 JUMP JUMPDEST PUSH1 0x40 MLOAD DUP1 SWAP2 SUB SWAP1 LOG2 POP JUMP JUMPDEST PUSH1 0x0 DUP1 PUSH1 0x0 DUP1 PUSH1 0x0 PUSH2 0xAA6 PUSH2 0x319E JUMP JUMPDEST POP DUP7 MLOAD DUP1 MLOAD PUSH1 0x0 SWAP1 DUP2 MSTORE PUSH1 0x4 PUSH1 0x20 SWAP1 DUP2 MSTORE PUSH1 0x40 SWAP2 DUP3 SWAP1 KECCAK256 DUP4 MLOAD DUP3 DUP6 ADD MLOAD DUP5 DUP7 ADD MLOAD PUSH1 0x60 DUP8 ADD MLOAD PUSH1 0x80 DUP9 ADD MLOAD PUSH1 0xA0 DUP10 ADD MLOAD PUSH1 0xC0 DUP11 ADD MLOAD PUSH1 0xE0 DUP12 ADD MLOAD SWAP10 MLOAD SWAP8 SWAP10 PUSH2 0xAF0 SWAP10 ADDRESS SWAP10 ADD PUSH2 0x3EC7 JUMP JUMPDEST PUSH1 0x40 MLOAD PUSH1 0x20 DUP2 DUP4 SUB SUB DUP2 MSTORE SWAP1 PUSH1 0x40 MSTORE DUP1 MLOAD SWAP1 PUSH1 0x20 ADD KECCAK256 SWAP6 POP DUP2 PUSH1 0xE0 ADD MLOAD PUSH20 0xFFFFFFFFFFFFFFFFFFFFFFFFFFFFFFFFFFFFFFFF AND PUSH2 0xB31 DUP8 DUP12 PUSH1 0x20 ADD MLOAD PUSH2 0x2646 JUMP JUMPDEST PUSH20 0xFFFFFFFFFFFFFFFFFFFFFFFFFFFFFFFFFFFFFFFF AND EQ PUSH2 0xB55 JUMPI PUSH1 0x0 SWAP8 POP PUSH2 0xB9D JUMP JUMPDEST PUSH1 0x80 DUP3 ADD MLOAD PUSH1 0x0 DUP8 DUP2 MSTORE PUSH1 0x7 DUP4 ADD PUSH1 0x20 MSTORE PUSH1 0x40 SWAP1 KECCAK256 SLOAD PUSH2 0xB75 SWAP1 DUP11 PUSH2 0x250A JUMP JUMPDEST GT ISZERO PUSH2 0xB9D JUMPI PUSH1 0x0 DUP7 DUP2 MSTORE PUSH1 0x7 DUP3 ADD PUSH1 0x20 MSTORE PUSH1 0x40 SWAP1 KECCAK256 SLOAD PUSH1 0x80 DUP4 ADD MLOAD PUSH2 0xB9A SWAP2 PUSH2 0x2604 JUMP JUMPDEST SWAP8 POP JUMPDEST PUSH1 0x0 PUSH2 0xBB6 DUP4 PUSH1 0x60 ADD MLOAD DUP11 PUSH2 0x272E SWAP1 SWAP2 SWAP1 PUSH4 0xFFFFFFFF AND JUMP JUMPDEST PUSH1 0x3 DUP4 ADD SLOAD SWAP1 SWAP2 POP PUSH2 0xC02 SWAP1 PUSH2 0xBF0 SWAP1 PUSH1 0xFF PUSH4 0x1000000 DUP3 DIV DUP2 AND SWAP2 PUSH2 0xBEA SWAP2 PUSH2 0x100 DUP3 DIV DUP2 AND SWAP2 PUSH3 0x10000 SWAP1 DIV AND PUSH2 0x250A JUMP JUMPDEST SWAP1 PUSH2 0x250A JUMP JUMPDEST PUSH2 0xBFC DUP4 PUSH2 0x2710 PUSH2 0x2782 JUMP JUMPDEST SWAP1 PUSH2 0x272E JUMP JUMPDEST SWAP4 POP PUSH2 0xC1A DUP3 DUP5 PUSH1 0x40 ADD MLOAD DUP6 DUP7 PUSH1 0xE0 ADD MLOAD DUP14 DUP7 PUSH2 0x27C4 JUMP JUMPDEST SWAP6 POP PUSH2 0xC41 PUSH2 0xC28 DUP6 PUSH2 0x2898 JUMP JUMPDEST PUSH2 0xC3B DUP5 DUP7 PUSH1 0x40 ADD MLOAD ISZERO DUP8 CALLER DUP16 DUP9 PUSH2 0x27C4 JUMP JUMPDEST SWAP1 PUSH2 0x23C1 JUMP JUMPDEST PUSH1 0x5 DUP4 ADD SLOAD PUSH1 0x20 DUP6 ADD MLOAD SWAP2 SWAP7 POP PUSH2 0xFFFF SWAP1 SWAP2 AND GT DUP1 ISZERO SWAP1 PUSH2 0xC66 JUMPI POP DUP3 PUSH1 0xC0 ADD MLOAD NUMBER GT ISZERO JUMPDEST DUP1 ISZERO PUSH2 0xC80 JUMPI POP PUSH1 0xC0 DUP4 ADD MLOAD PUSH2 0xC7D NUMBER PUSH1 0xC PUSH2 0x250A JUMP JUMPDEST LT ISZERO JUMPDEST DUP1 ISZERO PUSH2 0xCA6 JUMPI POP PUSH1 0xE0 DUP4 ADD MLOAD PUSH20 0xFFFFFFFFFFFFFFFFFFFFFFFFFFFFFFFFFFFFFFFF AND CALLER EQ ISZERO JUMPDEST DUP1 ISZERO PUSH2 0xCB3 JUMPI POP PUSH1 0x0 DUP7 SLT ISZERO JUMPDEST DUP1 ISZERO PUSH2 0xCC0 JUMPI POP PUSH1 0x0 DUP6 SLT ISZERO JUMPDEST PUSH2 0xCC9 JUMPI PUSH1 0x0 SWAP9 POP JUMPDEST DUP9 SWAP8 POP POP POP POP SWAP3 SWAP6 POP SWAP3 SWAP6 SWAP1 SWAP4 POP JUMP JUMPDEST PUSH1 0x0 DUP4 PUSH1 0x20 ADD MLOAD PUSH5 0xFFFFFFFFFF AND PUSH1 0x0 EQ ISZERO PUSH2 0xCF1 JUMPI INVALID JUMPDEST PUSH1 0x0 PUSH2 0xCFC DUP6 PUSH2 0x28C3 JUMP JUMPDEST SWAP1 POP DUP5 PUSH1 0xE0 ADD MLOAD PUSH20 0xFFFFFFFFFFFFFFFFFFFFFFFFFFFFFFFFFFFFFFFF AND PUSH2 0xD23 DUP3 DUP6 PUSH2 0x299A JUMP JUMPDEST PUSH20 0xFFFFFFFFFFFFFFFFFFFFFFFFFFFFFFFFFFFFFFFF AND EQ PUSH2 0xD70 JUMPI PUSH1 0x40 MLOAD PUSH32 0x8C379A000000000000000000000000000000000000000000000000000000000 DUP2 MSTORE PUSH1 0x4 ADD PUSH2 0x3BF SWAP1 PUSH2 0x436B JUMP JUMPDEST PUSH2 0xD79 DUP6 PUSH2 0x29E5 JUMP JUMPDEST PUSH1 0x0 DUP2 DUP2 MSTORE PUSH1 0x4 PUSH1 0x20 MSTORE PUSH1 0x40 SWAP1 KECCAK256 PUSH1 0x2 ADD SLOAD SWAP1 SWAP3 POP PUSH5 0xFFFFFFFFFF AND ISZERO SWAP1 POP PUSH2 0xDA1 JUMPI PUSH2 0x1292 JUMP JUMPDEST DUP4 PUSH1 0xA0 ADD MLOAD PUSH1 0xFF AND PUSH1 0x12 EQ PUSH2 0xDB2 JUMPI INVALID JUMPDEST PUSH1 0x40 DUP5 PUSH1 0x80 ADD MLOAD PUSH1 0xFF AND LT PUSH2 0xDC3 JUMPI INVALID JUMPDEST PUSH1 0x60 DUP5 ADD MLOAD PUSH1 0x0 SWAP1 PUSH1 0x1 AND ISZERO PUSH2 0xEC9 JUMPI PUSH1 0x0 DUP6 PUSH2 0x1C0 ADD MLOAD MLOAD GT PUSH2 0xDE3 JUMPI INVALID JUMPDEST PUSH2 0x7FFD DUP6 PUSH2 0x1C0 ADD MLOAD MLOAD LT PUSH2 0xDF4 JUMPI INVALID JUMPDEST POP PUSH1 0x1 JUMPDEST DUP5 PUSH2 0x1C0 ADD MLOAD MLOAD DUP2 LT ISZERO PUSH2 0xE50 JUMPI DUP5 PUSH2 0x1C0 ADD MLOAD DUP2 DUP2 MLOAD DUP2 LT PUSH2 0xE17 JUMPI INVALID JUMPDEST PUSH1 0x20 MUL PUSH1 0x20 ADD ADD MLOAD PUSH1 0xF SIGNEXTEND DUP6 PUSH2 0x1C0 ADD MLOAD PUSH1 0x1 DUP4 SUB DUP2 MLOAD DUP2 LT PUSH2 0xE36 JUMPI INVALID JUMPDEST PUSH1 0x20 MUL PUSH1 0x20 ADD ADD MLOAD PUSH1 0xF SIGNEXTEND SLT PUSH2 0xE48 JUMPI INVALID JUMPDEST PUSH1 0x1 ADD PUSH2 0xDF8 JUMP JUMPDEST DUP5 PUSH1 0xC0 ADD MLOAD PUSH1 0x0 SIGNEXTEND DUP6 PUSH1 0xA0 ADD MLOAD PUSH1 0xFF AND PUSH1 0x1 SIGNEXTEND SLT ISZERO PUSH2 0xE6B JUMPI INVALID JUMPDEST POP PUSH1 0x0 JUMPDEST DUP5 PUSH2 0x1C0 ADD MLOAD MLOAD DUP2 LT ISZERO PUSH2 0xEC4 JUMPI DUP5 PUSH1 0xC0 ADD MLOAD PUSH1 0x0 SIGNEXTEND DUP6 PUSH1 0xA0 ADD MLOAD PUSH1 0xFF AND SUB PUSH1 0xA EXP DUP6 PUSH2 0x1C0 ADD MLOAD DUP3 DUP2 MLOAD DUP2 LT PUSH2 0xEA2 JUMPI INVALID JUMPDEST PUSH1 0x20 MUL PUSH1 0x20 ADD ADD MLOAD PUSH1 0xF SIGNEXTEND DUP2 PUSH2 0xEB4 JUMPI INVALID JUMPDEST SMOD ISZERO PUSH2 0xEBC JUMPI INVALID JUMPDEST PUSH1 0x1 ADD PUSH2 0xE6F JUMP JUMPDEST PUSH2 0xEEB JUMP JUMPDEST PUSH1 0x1 DUP6 PUSH2 0x1C0 ADD MLOAD MLOAD GT PUSH2 0xED9 JUMPI INVALID JUMPDEST PUSH2 0x7FFD DUP6 PUSH2 0x1C0 ADD MLOAD MLOAD GT ISZERO PUSH2 0xEEB JUMPI INVALID JUMPDEST PUSH1 0x20 DUP6 PUSH1 0x80 ADD MLOAD PUSH1 0xFF AND LT PUSH2 0xEFC JUMPI INVALID JUMPDEST PUSH1 0x0 DUP6 PUSH1 0x80 ADD MLOAD PUSH1 0x8 MUL PUSH1 0xFF AND DUP7 PUSH2 0x100 ADD MLOAD PUSH1 0xFF AND PUSH1 0x1 SWAP1 SHL SWAP1 SHL SWAP1 POP DUP1 PUSH1 0x2 SLOAD AND PUSH1 0x0 EQ ISZERO PUSH2 0xF30 JUMPI PUSH1 0x2 DUP1 SLOAD DUP3 OR SWAP1 SSTORE JUMPDEST PUSH1 0x0 PUSH2 0xF3F DUP8 PUSH1 0x20 ADD MLOAD PUSH2 0x2549 JUMP JUMPDEST PUSH1 0x60 DUP9 ADD MLOAD SWAP1 SWAP2 POP PUSH1 0x4 AND ISZERO PUSH2 0xF68 JUMPI DUP1 PUSH1 0xFF AND DUP8 PUSH2 0x100 ADD MLOAD PUSH1 0xFF AND EQ PUSH2 0xF63 JUMPI INVALID JUMPDEST PUSH2 0xF78 JUMP JUMPDEST PUSH2 0x100 DUP8 ADD MLOAD PUSH1 0xFF AND ISZERO PUSH2 0xF78 JUMPI INVALID JUMPDEST PUSH1 0x0 DUP5 DUP2 MSTORE PUSH1 0x4 PUSH1 0x20 SWAP1 DUP2 MSTORE PUSH1 0x40 SWAP1 SWAP2 KECCAK256 DUP9 MLOAD DUP1 MLOAD DUP11 SWAP4 PUSH1 0x1 SWAP1 SWAP4 ADD SWAP3 PUSH2 0xFA3 SWAP3 DUP5 SWAP3 SWAP2 ADD SWAP1 PUSH2 0x31E2 JUMP JUMPDEST POP PUSH1 0x20 DUP3 ADD MLOAD DUP2 PUSH1 0x1 ADD PUSH1 0x0 PUSH2 0x100 EXP DUP2 SLOAD DUP2 PUSH5 0xFFFFFFFFFF MUL NOT AND SWAP1 DUP4 PUSH5 0xFFFFFFFFFF AND MUL OR SWAP1 SSTORE POP PUSH1 0x40 DUP3 ADD MLOAD DUP2 PUSH1 0x1 ADD PUSH1 0x5 PUSH2 0x100 EXP DUP2 SLOAD DUP2 PUSH3 0xFFFFFF MUL NOT AND SWAP1 DUP4 PUSH3 0xFFFFFF AND MUL OR SWAP1 SSTORE POP PUSH1 0x60 DUP3 ADD MLOAD DUP2 PUSH1 0x1 ADD PUSH1 0x8 PUSH2 0x100 EXP DUP2 SLOAD DUP2 PUSH1 0xFF MUL NOT AND SWAP1 DUP4 PUSH1 0xFF AND MUL OR SWAP1 SSTORE POP PUSH1 0x80 DUP3 ADD MLOAD DUP2 PUSH1 0x1 ADD PUSH1 0x9 PUSH2 0x100 EXP DUP2 SLOAD DUP2 PUSH1 0xFF MUL NOT AND SWAP1 DUP4 PUSH1 0xFF AND MUL OR SWAP1 SSTORE POP PUSH1 0xA0 DUP3 ADD MLOAD DUP2 PUSH1 0x1 ADD PUSH1 0xA PUSH2 0x100 EXP DUP2 SLOAD DUP2 PUSH1 0xFF MUL NOT AND SWAP1 DUP4 PUSH1 0xFF AND MUL OR SWAP1 SSTORE POP PUSH1 0xC0 DUP3 ADD MLOAD DUP2 PUSH1 0x1 ADD PUSH1 0xB PUSH2 0x100 EXP DUP2 SLOAD DUP2 PUSH1 0xFF MUL NOT AND SWAP1 DUP4 PUSH1 0x0 SIGNEXTEND PUSH1 0xFF AND MUL OR SWAP1 SSTORE POP PUSH1 0xE0 DUP3 ADD MLOAD DUP2 PUSH1 0x1 ADD PUSH1 0xC PUSH2 0x100 EXP DUP2 SLOAD DUP2 PUSH20 0xFFFFFFFFFFFFFFFFFFFFFFFFFFFFFFFFFFFFFFFF MUL NOT AND SWAP1 DUP4 PUSH20 0xFFFFFFFFFFFFFFFFFFFFFFFFFFFFFFFFFFFFFFFF AND MUL OR SWAP1 SSTORE POP PUSH2 0x100 DUP3 ADD MLOAD DUP2 PUSH1 0x2 ADD PUSH1 0x0 PUSH2 0x100 EXP DUP2 SLOAD DUP2 PUSH1 0xFF MUL NOT AND SWAP1 DUP4 PUSH1 0xFF AND MUL OR SWAP1 SSTORE POP PUSH2 0x120 DUP3 ADD MLOAD DUP2 PUSH1 0x2 ADD PUSH1 0x1 PUSH2 0x100 EXP DUP2 SLOAD DUP2 PUSH1 0xFF MUL NOT AND SWAP1 DUP4 PUSH1 0xFF AND MUL OR SWAP1 SSTORE POP PUSH2 0x140 DUP3 ADD MLOAD DUP2 PUSH1 0x2 ADD PUSH1 0x2 PUSH2 0x100 EXP DUP2 SLOAD DUP2 PUSH1 0xFF MUL NOT AND SWAP1 DUP4 PUSH1 0xFF AND MUL OR SWAP1 SSTORE POP PUSH2 0x160 DUP3 ADD MLOAD DUP2 PUSH1 0x2 ADD PUSH1 0x3 PUSH2 0x100 EXP DUP2 SLOAD DUP2 PUSH1 0xFF MUL NOT AND SWAP1 DUP4 PUSH1 0xFF AND MUL OR SWAP1 SSTORE POP PUSH2 0x180 DUP3 ADD MLOAD DUP2 PUSH1 0x2 ADD PUSH1 0x4 PUSH2 0x100 EXP DUP2 SLOAD DUP2 PUSH20 0xFFFFFFFFFFFFFFFFFFFFFFFFFFFFFFFFFFFFFFFF MUL NOT AND SWAP1 DUP4 PUSH20 0xFFFFFFFFFFFFFFFFFFFFFFFFFFFFFFFFFFFFFFFF AND MUL OR SWAP1 SSTORE POP PUSH2 0x1A0 DUP3 ADD MLOAD DUP2 PUSH1 0x3 ADD PUSH1 0x0 PUSH2 0x100 EXP DUP2 SLOAD DUP2 PUSH20 0xFFFFFFFFFFFFFFFFFFFFFFFFFFFFFFFFFFFFFFFF MUL NOT AND SWAP1 DUP4 PUSH20 0xFFFFFFFFFFFFFFFFFFFFFFFFFFFFFFFFFFFFFFFF AND MUL OR SWAP1 SSTORE POP PUSH2 0x1C0 DUP3 ADD MLOAD DUP2 PUSH1 0x4 ADD SWAP1 DUP1 MLOAD SWAP1 PUSH1 0x20 ADD SWAP1 PUSH2 0x11F5 SWAP3 SWAP2 SWAP1 PUSH2 0x325C JUMP JUMPDEST POP SWAP1 POP POP DUP7 PUSH1 0x80 ADD MLOAD PUSH1 0xFF AND DUP8 PUSH2 0x100 ADD MLOAD PUSH1 0xFF AND DUP3 PUSH1 0xFF AND PUSH1 0x8 PUSH2 0x121C DUP6 PUSH1 0xFF AND PUSH2 0x2ABC JUMP JUMPDEST PUSH6 0xFFFFFFFFFFFF AND DUP12 PUSH1 0x20 ADD MLOAD PUSH5 0xFFFFFFFFFF AND DUP2 PUSH2 0x1237 JUMPI INVALID JUMPDEST DIV PUSH6 0xFFFFFFFFFFFF AND SWAP1 SHL ADD PUSH6 0xFFFFFFFFFFFF AND PUSH32 0x13D334F612C6E3D949B7DA4336E52487CDF7E8B324884E285AACA45027505860 DUP8 DUP12 PUSH1 0x20 ADD MLOAD DUP13 PUSH1 0x0 ADD MLOAD PUSH1 0x40 MLOAD PUSH2 0x1286 SWAP4 SWAP3 SWAP2 SWAP1 PUSH2 0x42DD JUMP JUMPDEST PUSH1 0x40 MLOAD DUP1 SWAP2 SUB SWAP1 LOG4 POP POP POP JUMPDEST SWAP4 SWAP3 POP POP POP JUMP JUMPDEST PUSH1 0x60 DUP2 PUSH8 0xFFFFFFFFFFFFFFFF DUP2 GT DUP1 ISZERO PUSH2 0x12B2 JUMPI PUSH1 0x0 DUP1 REVERT JUMPDEST POP PUSH1 0x40 MLOAD SWAP1 DUP1 DUP3 MSTORE DUP1 PUSH1 0x20 MUL PUSH1 0x20 ADD DUP3 ADD PUSH1 0x40 MSTORE DUP1 ISZERO PUSH2 0x12EC JUMPI DUP2 PUSH1 0x20 ADD JUMPDEST PUSH2 0x12D9 PUSH2 0x332E JUMP JUMPDEST DUP2 MSTORE PUSH1 0x20 ADD SWAP1 PUSH1 0x1 SWAP1 SUB SWAP1 DUP2 PUSH2 0x12D1 JUMPI SWAP1 POP JUMPDEST POP SWAP1 POP PUSH1 0x0 JUMPDEST DUP3 DUP2 LT ISZERO PUSH2 0x1335 JUMPI PUSH2 0x1316 DUP6 DUP6 DUP6 DUP5 DUP2 DUP2 LT PUSH2 0x130A JUMPI INVALID JUMPDEST SWAP1 POP PUSH1 0x20 MUL ADD CALLDATALOAD PUSH2 0x1C4E JUMP JUMPDEST DUP3 DUP3 DUP2 MLOAD DUP2 LT PUSH2 0x1322 JUMPI INVALID JUMPDEST PUSH1 0x20 SWAP1 DUP2 MUL SWAP2 SWAP1 SWAP2 ADD ADD MSTORE PUSH1 0x1 ADD PUSH2 0x12F2 JUMP JUMPDEST POP SWAP4 SWAP3 POP POP POP JUMP JUMPDEST CALLER PUSH1 0x0 SWAP1 DUP2 MSTORE PUSH1 0x3 PUSH1 0x20 MSTORE PUSH1 0x40 SWAP1 KECCAK256 SLOAD SWAP1 JUMP JUMPDEST PUSH1 0x40 DUP1 MLOAD PUSH1 0x9 DUP1 DUP3 MSTORE PUSH2 0x140 DUP3 ADD SWAP1 SWAP3 MSTORE PUSH1 0x60 SWAP2 DUP3 SWAP2 SWAP1 PUSH1 0x20 DUP3 ADD PUSH2 0x120 DUP1 CALLDATASIZE DUP4 CALLDATACOPY ADD SWAP1 POP POP SWAP1 POP PUSH1 0x1 DUP2 PUSH1 0x0 DUP2 MLOAD DUP2 LT PUSH2 0x1387 JUMPI INVALID JUMPDEST PUSH1 0x20 SWAP1 DUP2 MUL SWAP2 SWAP1 SWAP2 ADD ADD MSTORE PUSH1 0x0 DUP2 PUSH1 0x1 DUP2 MLOAD DUP2 LT PUSH2 0x13A1 JUMPI INVALID JUMPDEST PUSH1 0x20 SWAP1 DUP2 MUL SWAP2 SWAP1 SWAP2 ADD ADD MSTORE PUSH3 0x350000 DUP2 PUSH1 0x2 DUP2 MLOAD DUP2 LT PUSH2 0x13BD JUMPI INVALID JUMPDEST PUSH1 0x20 SWAP1 DUP2 MUL SWAP2 SWAP1 SWAP2 ADD ADD MSTORE ADDRESS DUP2 PUSH1 0x3 DUP2 MLOAD DUP2 LT PUSH2 0x13D6 JUMPI INVALID JUMPDEST PUSH1 0x20 SWAP1 DUP2 MUL SWAP2 SWAP1 SWAP2 ADD ADD MSTORE PUSH1 0x1 SLOAD DUP2 PUSH1 0x4 DUP2 MLOAD DUP2 LT PUSH2 0x13F1 JUMPI INVALID JUMPDEST PUSH1 0x20 SWAP1 DUP2 MUL SWAP2 SWAP1 SWAP2 ADD ADD MSTORE PUSH1 0x0 SLOAD DUP2 PUSH1 0x5 DUP2 MLOAD DUP2 LT PUSH2 0x140C JUMPI INVALID JUMPDEST PUSH1 0x20 SWAP1 DUP2 MUL SWAP2 SWAP1 SWAP2 ADD ADD MSTORE PUSH1 0xC DUP2 PUSH1 0x6 DUP2 MLOAD DUP2 LT PUSH2 0x1426 JUMPI INVALID JUMPDEST PUSH1 0x20 SWAP1 DUP2 MUL SWAP2 SWAP1 SWAP2 ADD ADD MSTORE PUSH1 0x9 DUP2 PUSH1 0x7 DUP2 MLOAD DUP2 LT PUSH2 0x1440 JUMPI INVALID JUMPDEST PUSH1 0x20 SWAP1 DUP2 MUL SWAP2 SWAP1 SWAP2 ADD ADD MSTORE PUSH1 0x2 SLOAD DUP2 PUSH1 0x8 DUP2 MLOAD DUP2 LT PUSH2 0x145B JUMPI INVALID JUMPDEST PUSH1 0x20 SWAP1 DUP2 MUL SWAP2 SWAP1 SWAP2 ADD ADD MSTORE SWAP1 POP SWAP1 JUMP JUMPDEST CALLVALUE ISZERO PUSH2 0x14DA JUMPI CALLER PUSH1 0x0 SWAP1 DUP2 MSTORE PUSH1 0x3 PUSH1 0x20 MSTORE PUSH1 0x40 SWAP1 KECCAK256 SLOAD PUSH2 0x148B SWAP1 CALLVALUE PUSH2 0x250A JUMP JUMPDEST CALLER PUSH1 0x0 DUP2 DUP2 MSTORE PUSH1 0x3 PUSH1 0x20 MSTORE PUSH1 0x40 SWAP1 DUP2 SWAP1 KECCAK256 SWAP3 SWAP1 SWAP3 SSTORE SWAP1 MLOAD PUSH32 0x6E2EEC282B5765F3A053054D83D425D0E03E1003BB2740D41C1FCE6D4A0D74F7 SWAP1 PUSH2 0x14D1 SWAP1 TIMESTAMP SWAP1 CALLVALUE SWAP1 PUSH2 0x4673 JUMP JUMPDEST PUSH1 0x40 MLOAD DUP1 SWAP2 SUB SWAP1 LOG2 JUMPDEST JUMP JUMPDEST PUSH1 0x0 DUP6 DUP2 MSTORE PUSH1 0x4 PUSH1 0x20 SWAP1 DUP2 MSTORE PUSH1 0x40 SWAP2 DUP3 SWAP1 KECCAK256 PUSH1 0x2 DUP1 DUP3 ADD SLOAD DUP5 MLOAD PUSH1 0x1 DUP1 DUP6 ADD DUP1 SLOAD PUSH2 0x100 SWAP3 DUP2 AND ISZERO SWAP3 SWAP1 SWAP3 MUL PUSH32 0xFFFFFFFFFFFFFFFFFFFFFFFFFFFFFFFFFFFFFFFFFFFFFFFFFFFFFFFFFFFFFFFF ADD SWAP1 SWAP2 AND SWAP4 SWAP1 SWAP4 DIV PUSH1 0x1F DUP2 ADD DUP7 SWAP1 DIV SWAP1 SWAP6 MUL DUP2 ADD PUSH2 0x200 SWAP1 DUP2 ADD SWAP1 SWAP7 MSTORE PUSH2 0x1E0 DUP2 ADD DUP6 DUP2 MSTORE SWAP4 SWAP6 PUSH13 0x1000000000000000000000000 SWAP1 SWAP3 DIV PUSH20 0xFFFFFFFFFFFFFFFFFFFFFFFFFFFFFFFFFFFFFFFF AND SWAP5 PUSH2 0x179E SWAP5 PUSH2 0x176D SWAP5 SWAP3 SWAP4 DUP5 SWAP3 DUP5 SWAP2 DUP5 ADD DUP3 DUP3 DUP1 ISZERO PUSH2 0x15D7 JUMPI DUP1 PUSH1 0x1F LT PUSH2 0x15AC JUMPI PUSH2 0x100 DUP1 DUP4 SLOAD DIV MUL DUP4 MSTORE SWAP2 PUSH1 0x20 ADD SWAP2 PUSH2 0x15D7 JUMP JUMPDEST DUP3 ADD SWAP2 SWAP1 PUSH1 0x0 MSTORE PUSH1 0x20 PUSH1 0x0 KECCAK256 SWAP1 JUMPDEST DUP2 SLOAD DUP2 MSTORE SWAP1 PUSH1 0x1 ADD SWAP1 PUSH1 0x20 ADD DUP1 DUP4 GT PUSH2 0x15BA JUMPI DUP3 SWAP1 SUB PUSH1 0x1F AND DUP3 ADD SWAP2 JUMPDEST POP POP POP SWAP2 DUP4 MSTORE POP POP PUSH1 0x1 DUP3 ADD SLOAD PUSH5 0xFFFFFFFFFF DUP2 AND PUSH1 0x20 DUP1 DUP5 ADD SWAP2 SWAP1 SWAP2 MSTORE PUSH3 0xFFFFFF PUSH6 0x10000000000 DUP4 DIV AND PUSH1 0x40 DUP1 DUP6 ADD SWAP2 SWAP1 SWAP2 MSTORE PUSH1 0xFF PUSH9 0x10000000000000000 DUP5 DIV DUP2 AND PUSH1 0x60 DUP7 ADD MSTORE PUSH10 0x1000000000000000000 DUP5 DIV DUP2 AND PUSH1 0x80 DUP7 ADD MSTORE PUSH11 0x100000000000000000000 DUP5 DIV DUP2 AND PUSH1 0xA0 DUP7 ADD MSTORE PUSH12 0x10000000000000000000000 DUP5 DIV PUSH1 0x0 SWAP1 DUP2 SIGNEXTEND DUP2 SIGNEXTEND SWAP1 SIGNEXTEND PUSH1 0xC0 DUP7 ADD MSTORE PUSH20 0xFFFFFFFFFFFFFFFFFFFFFFFFFFFFFFFFFFFFFFFF PUSH13 0x1000000000000000000000000 SWAP1 SWAP5 DIV DUP5 AND PUSH1 0xE0 DUP7 ADD MSTORE PUSH1 0x2 DUP7 ADD SLOAD DUP1 DUP3 AND PUSH2 0x100 DUP1 DUP9 ADD SWAP2 SWAP1 SWAP2 MSTORE DUP2 DIV DUP3 AND PUSH2 0x120 DUP8 ADD MSTORE PUSH3 0x10000 DUP2 DIV DUP3 AND PUSH2 0x140 DUP8 ADD MSTORE PUSH4 0x1000000 DUP2 DIV SWAP1 SWAP2 AND PUSH2 0x160 DUP7 ADD MSTORE PUSH5 0x100000000 SWAP1 DIV DUP4 AND PUSH2 0x180 DUP6 ADD MSTORE PUSH1 0x3 DUP6 ADD SLOAD SWAP1 SWAP3 AND PUSH2 0x1A0 DUP5 ADD MSTORE PUSH1 0x4 DUP5 ADD DUP1 SLOAD DUP4 MLOAD DUP2 DUP5 MUL DUP2 ADD DUP5 ADD SWAP1 SWAP5 MSTORE DUP1 DUP5 MSTORE PUSH2 0x1C0 SWAP1 SWAP5 ADD SWAP4 SWAP1 SWAP2 DUP4 ADD DUP3 DUP3 DUP1 ISZERO PUSH2 0x175F JUMPI PUSH1 0x20 MUL DUP3 ADD SWAP2 SWAP1 PUSH1 0x0 MSTORE PUSH1 0x20 PUSH1 0x0 KECCAK256 SWAP1 PUSH1 0x0 SWAP1 JUMPDEST DUP3 DUP3 SWAP1 SLOAD SWAP1 PUSH2 0x100 EXP SWAP1 DIV PUSH1 0xF SIGNEXTEND PUSH1 0xF SIGNEXTEND DUP2 MSTORE PUSH1 0x20 ADD SWAP1 PUSH1 0x10 ADD SWAP1 PUSH1 0x20 DUP3 PUSH1 0xF ADD DIV SWAP3 DUP4 ADD SWAP3 PUSH1 0x1 SUB DUP3 MUL SWAP2 POP DUP1 DUP5 GT PUSH2 0x1728 JUMPI SWAP1 POP JUMPDEST POP POP POP POP POP DUP2 MSTORE POP POP PUSH2 0x28C3 JUMP JUMPDEST DUP7 PUSH1 0x0 PUSH1 0x40 MLOAD PUSH1 0x20 ADD PUSH2 0x1782 SWAP4 SWAP3 SWAP2 SWAP1 PUSH2 0x3F5B JUMP JUMPDEST PUSH1 0x40 MLOAD PUSH1 0x20 DUP2 DUP4 SUB SUB DUP2 MSTORE SWAP1 PUSH1 0x40 MSTORE DUP1 MLOAD SWAP1 PUSH1 0x20 ADD KECCAK256 DUP8 PUSH2 0x299A JUMP JUMPDEST PUSH20 0xFFFFFFFFFFFFFFFFFFFFFFFFFFFFFFFFFFFFFFFF AND EQ PUSH2 0x17EB JUMPI PUSH1 0x40 MLOAD PUSH32 0x8C379A000000000000000000000000000000000000000000000000000000000 DUP2 MSTORE PUSH1 0x4 ADD PUSH2 0x3BF SWAP1 PUSH2 0x436B JUMP JUMPDEST DUP1 SLOAD PUSH19 0x1000000000000000000000000000000000000 SWAP1 DIV PUSH1 0xFF AND ISZERO PUSH2 0x1811 JUMPI POP PUSH2 0x1BB2 JUMP JUMPDEST PUSH1 0x0 DUP1 PUSH1 0x1 PUSH1 0x2 DUP5 ADD SLOAD PUSH9 0x10000000000000000 SWAP1 DIV AND PUSH1 0xFF AND ISZERO PUSH2 0x1898 JUMPI POP POP PUSH1 0x5 DUP2 ADD SLOAD PUSH1 0x0 JUMPDEST PUSH1 0x5 DUP4 ADD SLOAD DUP2 LT ISZERO PUSH2 0x1893 JUMPI PUSH1 0x5 DUP4 ADD DUP1 SLOAD DUP3 SWAP1 DUP2 LT PUSH2 0x1856 JUMPI INVALID JUMPDEST SWAP1 PUSH1 0x0 MSTORE PUSH1 0x20 PUSH1 0x0 KECCAK256 SWAP1 PUSH1 0x2 SWAP2 DUP3 DUP3 DIV ADD SWAP2 SWAP1 MOD PUSH1 0x10 MUL SWAP1 SLOAD SWAP1 PUSH2 0x100 EXP SWAP1 DIV PUSH1 0xF SIGNEXTEND PUSH1 0xF SIGNEXTEND DUP7 SLT ISZERO PUSH2 0x188B JUMPI DUP1 SWAP2 POP PUSH2 0x1893 JUMP JUMPDEST PUSH1 0x1 ADD PUSH2 0x183A JUMP JUMPDEST PUSH2 0x18F8 JUMP JUMPDEST POP PUSH1 0x0 SWAP1 POP DUP1 JUMPDEST PUSH1 0x5 DUP4 ADD SLOAD DUP2 LT ISZERO PUSH2 0x18F8 JUMPI PUSH1 0x5 DUP4 ADD DUP1 SLOAD DUP3 SWAP1 DUP2 LT PUSH2 0x18BB JUMPI INVALID JUMPDEST SWAP1 PUSH1 0x0 MSTORE PUSH1 0x20 PUSH1 0x0 KECCAK256 SWAP1 PUSH1 0x2 SWAP2 DUP3 DUP3 DIV ADD SWAP2 SWAP1 MOD PUSH1 0x10 MUL SWAP1 SLOAD SWAP1 PUSH2 0x100 EXP SWAP1 DIV PUSH1 0xF SIGNEXTEND PUSH1 0xF SIGNEXTEND DUP7 EQ ISZERO PUSH2 0x18F0 JUMPI DUP1 SWAP2 POP PUSH2 0x18F8 JUMP JUMPDEST PUSH1 0x1 ADD PUSH2 0x189F JUMP JUMPDEST DUP3 SLOAD PUSH19 0x1000000000000000000000000000000000000 PUSH32 0xFFFFFFFFFFFFFFFFFFFFFFFFFFFF0000FFFFFFFFFFFFFFFFFFFFFFFFFFFFFFFF SWAP1 SWAP2 AND PUSH17 0x100000000000000000000000000000000 PUSH2 0xFFFF DUP6 AND MUL OR PUSH32 0xFFFFFFFFFFFFFFFFFFFFFFFFFF00FFFFFFFFFFFFFFFFFFFFFFFFFFFFFFFFFFFF AND OR DUP4 SSTORE PUSH1 0x3 DUP4 ADD SLOAD PUSH1 0x0 SWAP1 PUSH2 0x19A0 SWAP1 PUSH1 0xFF PUSH4 0x1000000 DUP3 DIV DUP2 AND SWAP2 PUSH2 0xBEA SWAP2 PUSH2 0x100 DUP3 DIV DUP2 AND SWAP2 PUSH3 0x10000 SWAP1 DIV AND PUSH2 0x250A JUMP JUMPDEST DUP5 SLOAD SWAP1 SWAP2 POP PUSH1 0x0 SWAP1 DUP3 SWAP1 PUSH16 0xFFFFFFFFFFFFFFFFFFFFFFFFFFFFFFFF AND DUP2 PUSH2 0x19C3 JUMPI INVALID JUMPDEST PUSH1 0x3 DUP8 ADD SLOAD SWAP2 SWAP1 DIV SWAP2 POP PUSH2 0x1A1E SWAP1 PUSH2 0x19E4 SWAP1 DUP4 SWAP1 PUSH2 0x100 SWAP1 DIV PUSH1 0xFF AND PUSH2 0x272E JUMP JUMPDEST PUSH1 0x3 DUP8 DUP2 ADD SLOAD PUSH5 0x100000000 SWAP1 DIV PUSH20 0xFFFFFFFFFFFFFFFFFFFFFFFFFFFFFFFFFFFFFFFF AND PUSH1 0x0 SWAP1 DUP2 MSTORE PUSH1 0x20 SWAP2 SWAP1 SWAP2 MSTORE PUSH1 0x40 SWAP1 KECCAK256 SLOAD SWAP1 PUSH2 0x250A JUMP JUMPDEST PUSH1 0x3 DUP7 DUP2 ADD DUP1 SLOAD PUSH5 0x100000000 SWAP1 DIV PUSH20 0xFFFFFFFFFFFFFFFFFFFFFFFFFFFFFFFFFFFFFFFF AND PUSH1 0x0 SWAP1 DUP2 MSTORE PUSH1 0x20 SWAP3 SWAP1 SWAP3 MSTORE PUSH1 0x40 SWAP1 SWAP2 KECCAK256 SWAP2 SWAP1 SWAP2 SSTORE SLOAD PUSH2 0x1AA0 SWAP1 PUSH2 0x1A70 SWAP1 DUP4 SWAP1 PUSH3 0x10000 SWAP1 DIV PUSH1 0xFF AND PUSH2 0x272E JUMP JUMPDEST PUSH1 0x4 DUP8 ADD SLOAD PUSH20 0xFFFFFFFFFFFFFFFFFFFFFFFFFFFFFFFFFFFFFFFF AND PUSH1 0x0 SWAP1 DUP2 MSTORE PUSH1 0x3 PUSH1 0x20 MSTORE PUSH1 0x40 SWAP1 KECCAK256 SLOAD SWAP1 PUSH2 0x250A JUMP JUMPDEST PUSH1 0x4 DUP7 ADD SLOAD PUSH20 0xFFFFFFFFFFFFFFFFFFFFFFFFFFFFFFFFFFFFFFFF AND PUSH1 0x0 SWAP1 DUP2 MSTORE PUSH1 0x3 PUSH1 0x20 DUP2 SWAP1 MSTORE PUSH1 0x40 SWAP1 SWAP2 KECCAK256 SWAP2 SWAP1 SWAP2 SSTORE DUP6 ADD SLOAD PUSH2 0x1B2C SWAP1 PUSH2 0x1AEC SWAP1 DUP4 SWAP1 PUSH4 0x1000000 SWAP1 DIV PUSH1 0xFF AND PUSH2 0x272E JUMP JUMPDEST PUSH1 0x2 DUP8 ADD SLOAD PUSH13 0x1000000000000000000000000 SWAP1 DIV PUSH20 0xFFFFFFFFFFFFFFFFFFFFFFFFFFFFFFFFFFFFFFFF AND PUSH1 0x0 SWAP1 DUP2 MSTORE PUSH1 0x3 PUSH1 0x20 MSTORE PUSH1 0x40 SWAP1 KECCAK256 SLOAD SWAP1 PUSH2 0x250A JUMP JUMPDEST PUSH1 0x2 DUP7 ADD SLOAD PUSH13 0x1000000000000000000000000 SWAP1 DIV PUSH20 0xFFFFFFFFFFFFFFFFFFFFFFFFFFFFFFFFFFFFFFFF AND PUSH1 0x0 SWAP1 DUP2 MSTORE PUSH1 0x3 PUSH1 0x20 MSTORE PUSH1 0x40 SWAP1 DUP2 SWAP1 KECCAK256 SWAP2 SWAP1 SWAP2 SSTORE MLOAD PUSH32 0xBC368577AA675EA916E9069E5C84C091AB02483DCC1A83CDA5F0124B39B0F2E9 SWAP1 PUSH2 0x1B99 SWAP1 DUP13 SWAP1 PUSH2 0x42D4 JUMP JUMPDEST PUSH1 0x40 MLOAD DUP1 SWAP2 SUB SWAP1 LOG1 PUSH2 0x1BAC DUP11 DUP9 DUP9 PUSH2 0x30B JUMP JUMPDEST POP POP POP POP POP JUMPDEST POP POP POP POP POP JUMP JUMPDEST CALLVALUE ISZERO PUSH2 0x1C4B JUMPI PUSH20 0xFFFFFFFFFFFFFFFFFFFFFFFFFFFFFFFFFFFFFFFF DUP2 AND PUSH1 0x0 SWAP1 DUP2 MSTORE PUSH1 0x3 PUSH1 0x20 MSTORE PUSH1 0x40 SWAP1 KECCAK256 SLOAD PUSH2 0x1BEF SWAP1 CALLVALUE PUSH2 0x250A JUMP JUMPDEST PUSH20 0xFFFFFFFFFFFFFFFFFFFFFFFFFFFFFFFFFFFFFFFF DUP3 AND PUSH1 0x0 DUP2 DUP2 MSTORE PUSH1 0x3 PUSH1 0x20 MSTORE PUSH1 0x40 SWAP1 DUP2 SWAP1 KECCAK256 SWAP3 SWAP1 SWAP3 SSTORE SWAP1 MLOAD PUSH32 0x6E2EEC282B5765F3A053054D83D425D0E03E1003BB2740D41C1FCE6D4A0D74F7 SWAP1 PUSH2 0xA8B SWAP1 TIMESTAMP SWAP1 CALLVALUE SWAP1 PUSH2 0x4673 JUMP JUMPDEST POP JUMP JUMPDEST PUSH2 0x1C56 PUSH2 0x332E JUMP JUMPDEST PUSH1 0x0 DUP3 DUP2 MSTORE PUSH1 0x4 PUSH1 0x20 MSTORE PUSH1 0x40 SWAP1 KECCAK256 PUSH2 0x1C6C PUSH2 0x3109 JUMP JUMPDEST DUP2 PUSH1 0x1 ADD PUSH1 0x40 MLOAD DUP1 PUSH2 0x1E0 ADD PUSH1 0x40 MSTORE SWAP1 DUP2 PUSH1 0x0 DUP3 ADD DUP1 SLOAD PUSH1 0x1 DUP2 PUSH1 0x1 AND ISZERO PUSH2 0x100 MUL SUB AND PUSH1 0x2 SWAP1 DIV DUP1 PUSH1 0x1F ADD PUSH1 0x20 DUP1 SWAP2 DIV MUL PUSH1 0x20 ADD PUSH1 0x40 MLOAD SWAP1 DUP2 ADD PUSH1 0x40 MSTORE DUP1 SWAP3 SWAP2 SWAP1 DUP2 DUP2 MSTORE PUSH1 0x20 ADD DUP3 DUP1 SLOAD PUSH1 0x1 DUP2 PUSH1 0x1 AND ISZERO PUSH2 0x100 MUL SUB AND PUSH1 0x2 SWAP1 DIV DUP1 ISZERO PUSH2 0x1D15 JUMPI DUP1 PUSH1 0x1F LT PUSH2 0x1CEA JUMPI PUSH2 0x100 DUP1 DUP4 SLOAD DIV MUL DUP4 MSTORE SWAP2 PUSH1 0x20 ADD SWAP2 PUSH2 0x1D15 JUMP JUMPDEST DUP3 ADD SWAP2 SWAP1 PUSH1 0x0 MSTORE PUSH1 0x20 PUSH1 0x0 KECCAK256 SWAP1 JUMPDEST DUP2 SLOAD DUP2 MSTORE SWAP1 PUSH1 0x1 ADD SWAP1 PUSH1 0x20 ADD DUP1 DUP4 GT PUSH2 0x1CF8 JUMPI DUP3 SWAP1 SUB PUSH1 0x1F AND DUP3 ADD SWAP2 JUMPDEST POP POP POP SWAP2 DUP4 MSTORE POP POP PUSH1 0x1 DUP3 ADD SLOAD PUSH5 0xFFFFFFFFFF DUP2 AND PUSH1 0x20 DUP1 DUP5 ADD SWAP2 SWAP1 SWAP2 MSTORE PUSH3 0xFFFFFF PUSH6 0x10000000000 DUP4 DIV AND PUSH1 0x40 DUP1 DUP6 ADD SWAP2 SWAP1 SWAP2 MSTORE PUSH1 0xFF PUSH9 0x10000000000000000 DUP5 DIV DUP2 AND PUSH1 0x60 DUP7 ADD MSTORE PUSH10 0x1000000000000000000 DUP5 DIV DUP2 AND PUSH1 0x80 DUP7 ADD MSTORE PUSH11 0x100000000000000000000 DUP5 DIV DUP2 AND PUSH1 0xA0 DUP7 ADD MSTORE PUSH12 0x10000000000000000000000 DUP5 DIV PUSH1 0x0 SWAP1 DUP2 SIGNEXTEND DUP2 SIGNEXTEND SWAP1 SIGNEXTEND PUSH1 0xC0 DUP7 ADD MSTORE PUSH20 0xFFFFFFFFFFFFFFFFFFFFFFFFFFFFFFFFFFFFFFFF PUSH13 0x1000000000000000000000000 SWAP1 SWAP5 DIV DUP5 AND PUSH1 0xE0 DUP7 ADD MSTORE PUSH1 0x2 DUP7 ADD SLOAD DUP1 DUP3 AND PUSH2 0x100 DUP1 DUP9 ADD SWAP2 SWAP1 SWAP2 MSTORE DUP2 DIV DUP3 AND PUSH2 0x120 DUP8 ADD MSTORE PUSH3 0x10000 DUP2 DIV DUP3 AND PUSH2 0x140 DUP8 ADD MSTORE PUSH4 0x1000000 DUP2 DIV SWAP1 SWAP2 AND PUSH2 0x160 DUP7 ADD MSTORE PUSH5 0x100000000 SWAP1 DIV DUP4 AND PUSH2 0x180 DUP6 ADD MSTORE PUSH1 0x3 DUP6 ADD SLOAD SWAP1 SWAP3 AND PUSH2 0x1A0 DUP5 ADD MSTORE PUSH1 0x4 DUP5 ADD DUP1 SLOAD DUP4 MLOAD DUP2 DUP5 MUL DUP2 ADD DUP5 ADD SWAP1 SWAP5 MSTORE DUP1 DUP5 MSTORE PUSH2 0x1C0 SWAP1 SWAP5 ADD SWAP4 SWAP1 SWAP2 DUP4 ADD DUP3 DUP3 DUP1 ISZERO PUSH2 0x1E9D JUMPI PUSH1 0x20 MUL DUP3 ADD SWAP2 SWAP1 PUSH1 0x0 MSTORE PUSH1 0x20 PUSH1 0x0 KECCAK256 SWAP1 PUSH1 0x0 SWAP1 JUMPDEST DUP3 DUP3 SWAP1 SLOAD SWAP1 PUSH2 0x100 EXP SWAP1 DIV PUSH1 0xF SIGNEXTEND PUSH1 0xF SIGNEXTEND DUP2 MSTORE PUSH1 0x20 ADD SWAP1 PUSH1 0x10 ADD SWAP1 PUSH1 0x20 DUP3 PUSH1 0xF ADD DIV SWAP3 DUP4 ADD SWAP3 PUSH1 0x1 SUB DUP3 MUL SWAP2 POP DUP1 DUP5 GT PUSH2 0x1E66 JUMPI SWAP1 POP JUMPDEST POP POP POP POP POP DUP2 MSTORE POP POP SWAP1 POP PUSH2 0x1EB0 PUSH2 0x30E9 JUMP JUMPDEST POP PUSH1 0x40 DUP1 MLOAD PUSH1 0x60 DUP1 DUP3 ADD DUP4 MSTORE DUP5 SLOAD PUSH16 0xFFFFFFFFFFFFFFFFFFFFFFFFFFFFFFFF DUP2 AND DUP4 MSTORE PUSH17 0x100000000000000000000000000000000 DUP2 DIV PUSH2 0xFFFF AND PUSH1 0x20 DUP1 DUP6 ADD SWAP2 SWAP1 SWAP2 MSTORE PUSH19 0x1000000000000000000000000000000000000 SWAP1 SWAP2 DIV PUSH1 0xFF AND ISZERO ISZERO DUP4 DUP6 ADD MSTORE DUP4 MLOAD PUSH1 0xA0 DUP2 ADD DUP6 MSTORE DUP6 DUP2 MSTORE SWAP1 DUP2 ADD DUP4 SWAP1 MSTORE SWAP3 DUP4 ADD DUP8 SWAP1 MSTORE SWAP1 SWAP2 SWAP1 DUP2 ADD PUSH2 0x1F3A DUP9 DUP7 PUSH2 0x2206 JUMP JUMPDEST PUSH1 0x2 DUP2 GT ISZERO PUSH2 0x1F45 JUMPI INVALID JUMPDEST DUP2 MSTORE PUSH1 0x0 PUSH1 0x20 SWAP1 SWAP2 ADD MSTORE SWAP4 POP POP POP POP JUMPDEST SWAP3 SWAP2 POP POP JUMP JUMPDEST PUSH2 0x1F63 PUSH2 0x3369 JUMP JUMPDEST PUSH1 0x0 JUMPDEST DUP4 MLOAD DUP2 LT ISZERO PUSH2 0x1F99 JUMPI DUP4 DUP2 DUP2 MLOAD DUP2 LT PUSH2 0x1F7B JUMPI INVALID JUMPDEST PUSH1 0x20 MUL PUSH1 0x20 ADD ADD MLOAD SWAP2 POP PUSH2 0x1F8F DUP3 DUP5 PUSH2 0x2AEA JUMP JUMPDEST SWAP3 POP PUSH1 0x1 ADD PUSH2 0x1F66 JUMP JUMPDEST POP POP POP POP JUMP JUMPDEST PUSH2 0x1FA7 PUSH2 0x3109 JUMP JUMPDEST PUSH1 0x0 DUP3 DUP2 MSTORE PUSH1 0x4 PUSH1 0x20 SWAP1 DUP2 MSTORE PUSH1 0x40 SWAP2 DUP3 SWAP1 KECCAK256 DUP3 MLOAD PUSH1 0x1 DUP1 DUP4 ADD DUP1 SLOAD PUSH1 0x2 SWAP3 DUP2 AND ISZERO PUSH2 0x100 MUL PUSH32 0xFFFFFFFFFFFFFFFFFFFFFFFFFFFFFFFFFFFFFFFFFFFFFFFFFFFFFFFFFFFFFFFF ADD AND SWAP2 SWAP1 SWAP2 DIV PUSH1 0x1F DUP2 ADD DUP6 SWAP1 DIV SWAP1 SWAP5 MUL DUP3 ADD PUSH2 0x200 SWAP1 DUP2 ADD SWAP1 SWAP6 MSTORE PUSH2 0x1E0 DUP3 ADD DUP5 DUP2 MSTORE SWAP3 SWAP5 SWAP2 SWAP4 SWAP1 SWAP3 DUP5 SWAP3 SWAP1 SWAP2 DUP5 SWAP2 DUP5 ADD DUP3 DUP3 DUP1 ISZERO PUSH2 0x206D JUMPI DUP1 PUSH1 0x1F LT PUSH2 0x2042 JUMPI PUSH2 0x100 DUP1 DUP4 SLOAD DIV MUL DUP4 MSTORE SWAP2 PUSH1 0x20 ADD SWAP2 PUSH2 0x206D JUMP JUMPDEST DUP3 ADD SWAP2 SWAP1 PUSH1 0x0 MSTORE PUSH1 0x20 PUSH1 0x0 KECCAK256 SWAP1 JUMPDEST DUP2 SLOAD DUP2 MSTORE SWAP1 PUSH1 0x1 ADD SWAP1 PUSH1 0x20 ADD DUP1 DUP4 GT PUSH2 0x2050 JUMPI DUP3 SWAP1 SUB PUSH1 0x1F AND DUP3 ADD SWAP2 JUMPDEST POP POP POP SWAP2 DUP4 MSTORE POP POP PUSH1 0x1 DUP3 ADD SLOAD PUSH5 0xFFFFFFFFFF DUP2 AND PUSH1 0x20 DUP1 DUP5 ADD SWAP2 SWAP1 SWAP2 MSTORE PUSH3 0xFFFFFF PUSH6 0x10000000000 DUP4 DIV AND PUSH1 0x40 DUP1 DUP6 ADD SWAP2 SWAP1 SWAP2 MSTORE PUSH1 0xFF PUSH9 0x10000000000000000 DUP5 DIV DUP2 AND PUSH1 0x60 DUP7 ADD MSTORE PUSH10 0x1000000000000000000 DUP5 DIV DUP2 AND PUSH1 0x80 DUP7 ADD MSTORE PUSH11 0x100000000000000000000 DUP5 DIV DUP2 AND PUSH1 0xA0 DUP7 ADD MSTORE PUSH12 0x10000000000000000000000 DUP5 DIV PUSH1 0x0 SWAP1 DUP2 SIGNEXTEND DUP2 SIGNEXTEND SWAP1 SIGNEXTEND PUSH1 0xC0 DUP7 ADD MSTORE PUSH20 0xFFFFFFFFFFFFFFFFFFFFFFFFFFFFFFFFFFFFFFFF PUSH13 0x1000000000000000000000000 SWAP1 SWAP5 DIV DUP5 AND PUSH1 0xE0 DUP7 ADD MSTORE PUSH1 0x2 DUP7 ADD SLOAD DUP1 DUP3 AND PUSH2 0x100 DUP1 DUP9 ADD SWAP2 SWAP1 SWAP2 MSTORE DUP2 DIV DUP3 AND PUSH2 0x120 DUP8 ADD MSTORE PUSH3 0x10000 DUP2 DIV DUP3 AND PUSH2 0x140 DUP8 ADD MSTORE PUSH4 0x1000000 DUP2 DIV SWAP1 SWAP2 AND PUSH2 0x160 DUP7 ADD MSTORE PUSH5 0x100000000 SWAP1 DIV DUP4 AND PUSH2 0x180 DUP6 ADD MSTORE PUSH1 0x3 DUP6 ADD SLOAD SWAP1 SWAP3 AND PUSH2 0x1A0 DUP5 ADD MSTORE PUSH1 0x4 DUP5 ADD DUP1 SLOAD DUP4 MLOAD DUP2 DUP5 MUL DUP2 ADD DUP5 ADD SWAP1 SWAP5 MSTORE DUP1 DUP5 MSTORE PUSH2 0x1C0 SWAP1 SWAP5 ADD SWAP4 SWAP1 SWAP2 DUP4 ADD DUP3 DUP3 DUP1 ISZERO PUSH2 0x21F5 JUMPI PUSH1 0x20 MUL DUP3 ADD SWAP2 SWAP1 PUSH1 0x0 MSTORE PUSH1 0x20 PUSH1 0x0 KECCAK256 SWAP1 PUSH1 0x0 SWAP1 JUMPDEST DUP3 DUP3 SWAP1 SLOAD SWAP1 PUSH2 0x100 EXP SWAP1 DIV PUSH1 0xF SIGNEXTEND PUSH1 0xF SIGNEXTEND DUP2 MSTORE PUSH1 0x20 ADD SWAP1 PUSH1 0x10 ADD SWAP1 PUSH1 0x20 DUP3 PUSH1 0xF ADD DIV SWAP3 DUP4 ADD SWAP3 PUSH1 0x1 SUB DUP3 MUL SWAP2 POP DUP1 DUP5 GT PUSH2 0x21BE JUMPI SWAP1 POP JUMPDEST POP POP POP POP POP DUP2 MSTORE POP POP SWAP2 POP POP SWAP2 SWAP1 POP JUMP JUMPDEST PUSH20 0xFFFFFFFFFFFFFFFFFFFFFFFFFFFFFFFFFFFFFFFF DUP3 AND PUSH1 0x0 SWAP1 DUP2 MSTORE PUSH1 0x6 DUP3 ADD PUSH1 0x20 MSTORE PUSH1 0x40 DUP2 KECCAK256 DUP3 SLOAD PUSH19 0x1000000000000000000000000000000000000 SWAP1 DIV PUSH1 0xFF AND ISZERO PUSH2 0x22D8 JUMPI PUSH2 0x2255 PUSH2 0x3187 JUMP JUMPDEST POP DUP3 SLOAD PUSH17 0x100000000000000000000000000000000 SWAP1 DUP2 SWAP1 DIV PUSH2 0xFFFF AND PUSH1 0x0 SWAP1 DUP2 MSTORE PUSH1 0x20 DUP4 DUP2 MSTORE PUSH1 0x40 SWAP2 DUP3 SWAP1 KECCAK256 DUP3 MLOAD DUP1 DUP5 ADD SWAP1 SWAP4 MSTORE SLOAD PUSH1 0xF DUP2 DUP2 SIGNEXTEND DUP2 SIGNEXTEND SWAP1 SIGNEXTEND DUP4 MSTORE SWAP3 SWAP1 SWAP3 DIV PUSH1 0xFF AND SWAP2 DUP2 ADD DUP3 SWAP1 MSTORE SWAP1 PUSH1 0x2 EQ DUP1 PUSH2 0x22C6 JUMPI POP PUSH1 0x20 DUP2 ADD MLOAD PUSH1 0xFF AND PUSH1 0x1 EQ DUP1 ISZERO PUSH2 0x22C6 JUMPI POP DUP1 MLOAD PUSH1 0xF SIGNEXTEND ISZERO JUMPDEST ISZERO PUSH2 0x22D6 JUMPI PUSH1 0x2 SWAP3 POP POP POP PUSH2 0x1F55 JUMP JUMPDEST POP JUMPDEST PUSH1 0x0 JUMPDEST PUSH1 0x5 DUP5 ADD SLOAD DUP2 GT PUSH2 0x2324 JUMPI PUSH1 0x0 DUP2 DUP2 MSTORE PUSH1 0x20 DUP4 SWAP1 MSTORE PUSH1 0x40 SWAP1 KECCAK256 SLOAD PUSH17 0x100000000000000000000000000000000 SWAP1 DIV PUSH1 0xFF AND ISZERO PUSH2 0x231C JUMPI PUSH1 0x1 SWAP3 POP POP POP PUSH2 0x1F55 JUMP JUMPDEST PUSH1 0x1 ADD PUSH2 0x22DB JUMP JUMPDEST POP PUSH1 0x0 SWAP5 SWAP4 POP POP POP POP JUMP JUMPDEST PUSH1 0x5 DUP3 ADD SLOAD PUSH20 0xFFFFFFFFFFFFFFFFFFFFFFFFFFFFFFFFFFFFFFFF DUP3 AND PUSH1 0x0 SWAP1 DUP2 MSTORE PUSH1 0x6 DUP5 ADD PUSH1 0x20 MSTORE PUSH1 0x40 DUP2 KECCAK256 SWAP1 SWAP2 PUSH32 0x7FFFFFFFFFFFFFFFFFFFFFFFFFFFFFFFFFFFFFFFFFFFFFFFFFFFFFFFFFFFFFFF SWAP2 DUP4 DUP1 JUMPDEST DUP4 DUP2 GT PUSH2 0x23B5 JUMPI PUSH1 0x0 DUP2 DUP2 MSTORE PUSH1 0x20 DUP5 SWAP1 MSTORE PUSH1 0x40 SWAP1 KECCAK256 SLOAD PUSH1 0xF SWAP1 DUP2 SIGNEXTEND SWAP1 SIGNEXTEND SWAP2 POP DUP5 DUP3 SLT ISZERO PUSH2 0x23AD JUMPI DUP2 SWAP5 POP JUMPDEST PUSH1 0x1 ADD PUSH2 0x2382 JUMP JUMPDEST POP SWAP3 SWAP7 SWAP6 POP POP POP POP POP POP JUMP JUMPDEST PUSH1 0x0 DUP2 DUP4 SUB DUP2 DUP4 SLT DUP1 ISZERO SWAP1 PUSH2 0x23D6 JUMPI POP DUP4 DUP2 SGT ISZERO JUMPDEST DUP1 PUSH2 0x23EB JUMPI POP PUSH1 0x0 DUP4 SLT DUP1 ISZERO PUSH2 0x23EB JUMPI POP DUP4 DUP2 SGT JUMPDEST PUSH2 0x1292 JUMPI PUSH1 0x40 MLOAD PUSH32 0x8C379A000000000000000000000000000000000000000000000000000000000 DUP2 MSTORE PUSH1 0x4 ADD PUSH2 0x3BF SWAP1 PUSH2 0x455E JUMP JUMPDEST PUSH1 0x0 DUP3 PUSH2 0x2430 JUMPI POP PUSH1 0x0 PUSH2 0x1F55 JUMP JUMPDEST DUP3 PUSH32 0xFFFFFFFFFFFFFFFFFFFFFFFFFFFFFFFFFFFFFFFFFFFFFFFFFFFFFFFFFFFFFFFF EQ DUP1 ISZERO PUSH2 0x247E JUMPI POP PUSH32 0x8000000000000000000000000000000000000000000000000000000000000000 DUP3 EQ JUMPDEST ISZERO PUSH2 0x24B5 JUMPI PUSH1 0x40 MLOAD PUSH32 0x8C379A000000000000000000000000000000000000000000000000000000000 DUP2 MSTORE PUSH1 0x4 ADD PUSH2 0x3BF SWAP1 PUSH2 0x44CA JUMP JUMPDEST DUP3 DUP3 MUL DUP3 DUP5 DUP3 DUP2 PUSH2 0x24C2 JUMPI INVALID JUMPDEST SDIV EQ PUSH2 0x1292 JUMPI PUSH1 0x40 MLOAD PUSH32 0x8C379A000000000000000000000000000000000000000000000000000000000 DUP2 MSTORE PUSH1 0x4 ADD PUSH2 0x3BF SWAP1 PUSH2 0x44CA JUMP JUMPDEST PUSH1 0x0 DUP1 DUP3 SLT ISZERO PUSH2 0x2506 JUMPI INVALID JUMPDEST POP SWAP1 JUMP JUMPDEST PUSH1 0x0 DUP3 DUP3 ADD DUP4 DUP2 LT ISZERO PUSH2 0x1292 JUMPI PUSH1 0x40 MLOAD PUSH32 0x8C379A000000000000000000000000000000000000000000000000000000000 DUP2 MSTORE PUSH1 0x4 ADD PUSH2 0x3BF SWAP1 PUSH2 0x43D9 JUMP JUMPDEST PUSH1 0x0 DUP1 DUP1 PUSH2 0x255E PUSH5 0xFFFFFFFFFF DUP6 AND TIMESTAMP PUSH2 0x2604 JUMP JUMPDEST SWAP1 POP PUSH4 0x3C26700 DUP2 LT PUSH2 0x259D JUMPI PUSH1 0x40 MLOAD PUSH32 0x8C379A000000000000000000000000000000000000000000000000000000000 DUP2 MSTORE PUSH1 0x4 ADD PUSH2 0x3BF SWAP1 PUSH2 0x43A2 JUMP JUMPDEST PUSH3 0x3B5380 DUP2 GT ISZERO PUSH2 0x25B2 JUMPI PUSH1 0x1 JUMPDEST SWAP2 POP PUSH2 0x25FD JUMP JUMPDEST PUSH3 0xA8C00 DUP2 GT ISZERO PUSH2 0x25C4 JUMPI PUSH1 0x3 PUSH2 0x25AB JUMP JUMPDEST PUSH3 0x1FA40 DUP2 GT ISZERO PUSH2 0x25D6 JUMPI PUSH1 0x4 PUSH2 0x25AB JUMP JUMPDEST PUSH2 0x1C20 DUP2 GT ISZERO PUSH2 0x25E7 JUMPI PUSH1 0x5 PUSH2 0x25AB JUMP JUMPDEST PUSH2 0x384 DUP2 GT ISZERO PUSH2 0x25F8 JUMPI PUSH1 0x6 PUSH2 0x25AB JUMP JUMPDEST PUSH1 0x7 SWAP2 POP JUMPDEST POP SWAP3 SWAP2 POP POP JUMP JUMPDEST PUSH1 0x0 PUSH2 0x1292 DUP4 DUP4 PUSH1 0x40 MLOAD DUP1 PUSH1 0x40 ADD PUSH1 0x40 MSTORE DUP1 PUSH1 0x1E DUP2 MSTORE PUSH1 0x20 ADD PUSH32 0x536166654D6174683A207375627472616374696F6E206F766572666C6F770000 DUP2 MSTORE POP PUSH2 0x2F06 JUMP JUMPDEST PUSH1 0x0 DUP1 PUSH1 0x40 MLOAD DUP1 PUSH1 0x40 ADD PUSH1 0x40 MSTORE DUP1 PUSH1 0x1C DUP2 MSTORE PUSH1 0x20 ADD PUSH32 0x19457468657265756D205369676E6564204D6573736167653A0A333200000000 DUP2 MSTORE POP DUP5 PUSH1 0x40 MLOAD PUSH1 0x20 ADD PUSH2 0x2691 SWAP3 SWAP2 SWAP1 PUSH2 0x4164 JUMP JUMPDEST PUSH1 0x40 MLOAD PUSH1 0x20 DUP2 DUP4 SUB SUB DUP2 MSTORE SWAP1 PUSH1 0x40 MSTORE DUP1 MLOAD SWAP1 PUSH1 0x20 ADD KECCAK256 SWAP1 POP PUSH1 0x0 PUSH1 0x1 DUP3 DUP6 PUSH1 0x0 ADD MLOAD DUP7 PUSH1 0x20 ADD MLOAD DUP8 PUSH1 0x40 ADD MLOAD PUSH1 0x40 MLOAD PUSH1 0x0 DUP2 MSTORE PUSH1 0x20 ADD PUSH1 0x40 MSTORE PUSH1 0x40 MLOAD PUSH2 0x26DA SWAP5 SWAP4 SWAP3 SWAP2 SWAP1 PUSH2 0x4303 JUMP JUMPDEST PUSH1 0x20 PUSH1 0x40 MLOAD PUSH1 0x20 DUP2 SUB SWAP1 DUP1 DUP5 SUB SWAP1 DUP6 GAS STATICCALL ISZERO DUP1 ISZERO PUSH2 0x26FC JUMPI RETURNDATASIZE PUSH1 0x0 DUP1 RETURNDATACOPY RETURNDATASIZE PUSH1 0x0 REVERT JUMPDEST POP POP PUSH1 0x40 MLOAD PUSH32 0xFFFFFFFFFFFFFFFFFFFFFFFFFFFFFFFFFFFFFFFFFFFFFFFFFFFFFFFFFFFFFFE0 ADD MLOAD SWAP7 SWAP6 POP POP POP POP POP POP JUMP JUMPDEST PUSH1 0x0 DUP3 PUSH2 0x273D JUMPI POP PUSH1 0x0 PUSH2 0x1F55 JUMP JUMPDEST DUP3 DUP3 MUL DUP3 DUP5 DUP3 DUP2 PUSH2 0x274A JUMPI INVALID JUMPDEST DIV EQ PUSH2 0x1292 JUMPI PUSH1 0x40 MLOAD PUSH32 0x8C379A000000000000000000000000000000000000000000000000000000000 DUP2 MSTORE PUSH1 0x4 ADD PUSH2 0x3BF SWAP1 PUSH2 0x446D JUMP JUMPDEST PUSH1 0x0 PUSH2 0x1292 DUP4 DUP4 PUSH1 0x40 MLOAD DUP1 PUSH1 0x40 ADD PUSH1 0x40 MSTORE DUP1 PUSH1 0x1A DUP2 MSTORE PUSH1 0x20 ADD PUSH32 0x536166654D6174683A206469766973696F6E206279207A65726F000000000000 DUP2 MSTORE POP PUSH2 0x2F4C JUMP JUMPDEST PUSH20 0xFFFFFFFFFFFFFFFFFFFFFFFFFFFFFFFFFFFFFFFF DUP4 AND PUSH1 0x0 SWAP1 DUP2 MSTORE PUSH1 0x3 PUSH1 0x20 MSTORE PUSH1 0x40 DUP2 KECCAK256 SLOAD DUP2 SWAP1 PUSH2 0x27F5 SWAP1 PUSH2 0x2898 JUMP JUMPDEST SWAP1 POP PUSH1 0x0 DUP8 PUSH2 0x282E JUMPI PUSH2 0x2811 PUSH2 0x280A DUP6 PUSH2 0x2898 JUMP JUMPDEST DUP4 SWAP1 PUSH2 0x2F9D JUMP JUMPDEST SWAP2 POP PUSH2 0x2827 PUSH2 0x281F DUP7 PUSH2 0x2898 JUMP JUMPDEST PUSH1 0x0 SWAP1 PUSH2 0x23C1 JUMP JUMPDEST SWAP1 POP PUSH2 0x284F JUMP JUMPDEST PUSH2 0x2841 PUSH2 0x283A DUP6 PUSH2 0x2898 JUMP JUMPDEST DUP4 SWAP1 PUSH2 0x23C1 JUMP JUMPDEST SWAP2 POP PUSH2 0x284C DUP6 PUSH2 0x2898 JUMP JUMPDEST SWAP1 POP JUMPDEST PUSH1 0x0 DUP1 PUSH2 0x2862 DUP12 DUP10 DUP12 PUSH1 0x20 ADD MLOAD DUP7 PUSH2 0x2FFD JUMP JUMPDEST SWAP1 SWAP3 POP SWAP1 POP PUSH2 0x2889 PUSH2 0x2882 PUSH4 0x3B9ACA00 PUSH2 0x287C DUP5 DUP7 PUSH2 0x23C1 JUMP JUMPDEST SWAP1 PUSH2 0x2421 JUMP JUMPDEST DUP6 SWAP1 PUSH2 0x2F9D JUMP JUMPDEST SWAP12 SWAP11 POP POP POP POP POP POP POP POP POP POP POP JUMP JUMPDEST PUSH1 0x0 PUSH32 0x8000000000000000000000000000000000000000000000000000000000000000 DUP3 LT PUSH2 0x2506 JUMPI INVALID JUMPDEST PUSH1 0x0 PUSH1 0x60 DUP3 PUSH1 0x0 ADD MLOAD PUSH1 0x40 MLOAD PUSH1 0x20 ADD PUSH2 0x28DC SWAP2 SWAP1 PUSH2 0x41F6 JUMP JUMPDEST PUSH1 0x40 MLOAD PUSH1 0x20 DUP2 DUP4 SUB SUB DUP2 MSTORE SWAP1 PUSH1 0x40 MSTORE DUP1 MLOAD SWAP1 PUSH1 0x20 ADD KECCAK256 DUP4 PUSH1 0x20 ADD MLOAD DUP5 PUSH1 0x40 ADD MLOAD DUP6 PUSH1 0x60 ADD MLOAD DUP7 PUSH1 0x80 ADD MLOAD DUP8 PUSH1 0xA0 ADD MLOAD DUP9 PUSH1 0xC0 ADD MLOAD PUSH1 0x40 MLOAD PUSH1 0x20 ADD PUSH2 0x2926 SWAP8 SWAP7 SWAP6 SWAP5 SWAP4 SWAP3 SWAP2 SWAP1 PUSH2 0x3F96 JUMP JUMPDEST PUSH1 0x40 DUP1 MLOAD DUP1 DUP4 SUB PUSH32 0xFFFFFFFFFFFFFFFFFFFFFFFFFFFFFFFFFFFFFFFFFFFFFFFFFFFFFFFFFFFFFFE0 ADD DUP2 MSTORE SWAP2 SWAP1 MSTORE PUSH1 0x60 DUP5 ADD MLOAD SWAP1 SWAP2 POP PUSH1 0x1 AND PUSH2 0x298C JUMPI PUSH2 0x1C0 DUP4 ADD MLOAD PUSH1 0x40 MLOAD PUSH2 0x297A SWAP2 DUP4 SWAP2 PUSH1 0x20 ADD PUSH2 0x413D JUMP JUMPDEST PUSH1 0x40 MLOAD PUSH1 0x20 DUP2 DUP4 SUB SUB DUP2 MSTORE SWAP1 PUSH1 0x40 MSTORE SWAP1 POP JUMPDEST DUP1 MLOAD PUSH1 0x20 SWAP1 SWAP2 ADD KECCAK256 SWAP3 SWAP2 POP POP JUMP JUMPDEST PUSH1 0x0 DUP1 PUSH1 0x40 MLOAD DUP1 PUSH1 0x40 ADD PUSH1 0x40 MSTORE DUP1 PUSH1 0x1E DUP2 MSTORE PUSH1 0x20 ADD PUSH32 0x19466163747369676E6572205369676E6564204D6573736167653A0A33320000 DUP2 MSTORE POP DUP5 PUSH1 0x40 MLOAD PUSH1 0x20 ADD PUSH2 0x2691 SWAP3 SWAP2 SWAP1 PUSH2 0x4164 JUMP JUMPDEST PUSH1 0x0 PUSH1 0x60 DUP3 PUSH1 0x0 ADD MLOAD PUSH1 0x40 MLOAD PUSH1 0x20 ADD PUSH2 0x29FE SWAP2 SWAP1 PUSH2 0x41F6 JUMP JUMPDEST PUSH1 0x40 MLOAD PUSH1 0x20 DUP2 DUP4 SUB SUB DUP2 MSTORE SWAP1 PUSH1 0x40 MSTORE DUP1 MLOAD SWAP1 PUSH1 0x20 ADD KECCAK256 DUP4 PUSH1 0x20 ADD MLOAD DUP5 PUSH1 0x40 ADD MLOAD DUP6 PUSH1 0x60 ADD MLOAD DUP7 PUSH1 0x80 ADD MLOAD DUP8 PUSH1 0xA0 ADD MLOAD DUP9 PUSH1 0xC0 ADD MLOAD DUP10 PUSH2 0x100 ADD MLOAD DUP11 PUSH2 0x180 ADD MLOAD DUP12 PUSH2 0x1A0 ADD MLOAD DUP13 PUSH1 0xE0 ADD MLOAD PUSH1 0x40 MLOAD PUSH1 0x20 ADD PUSH2 0x2A63 SWAP12 SWAP11 SWAP10 SWAP9 SWAP8 SWAP7 SWAP6 SWAP5 SWAP4 SWAP3 SWAP2 SWAP1 PUSH2 0x4049 JUMP JUMPDEST PUSH1 0x40 DUP1 MLOAD PUSH32 0xFFFFFFFFFFFFFFFFFFFFFFFFFFFFFFFFFFFFFFFFFFFFFFFFFFFFFFFFFFFFFFE0 DUP2 DUP5 SUB ADD DUP2 MSTORE SWAP1 DUP3 SWAP1 MSTORE PUSH2 0x120 DUP6 ADD MLOAD PUSH2 0x140 DUP7 ADD MLOAD PUSH2 0x160 DUP8 ADD MLOAD PUSH2 0x1C0 DUP9 ADD MLOAD SWAP4 SWAP6 POP PUSH2 0x297A SWAP5 DUP7 SWAP5 SWAP1 PUSH1 0x20 ADD PUSH2 0x4186 JUMP JUMPDEST PUSH1 0x0 PUSH1 0x60 PUSH1 0x40 MLOAD DUP1 PUSH1 0x60 ADD PUSH1 0x40 MSTORE DUP1 PUSH1 0x2A DUP2 MSTORE PUSH1 0x20 ADD PUSH2 0x4735 PUSH1 0x2A SWAP2 CODECOPY PUSH1 0x1 DUP5 ADD PUSH1 0x6 MUL ADD MLOAD SWAP2 POP POP SWAP2 SWAP1 POP JUMP JUMPDEST PUSH1 0x0 PUSH2 0x2AF4 PUSH2 0x319E JUMP JUMPDEST POP DUP3 MLOAD DUP1 MLOAD PUSH1 0x0 SWAP1 DUP2 MSTORE PUSH1 0x4 PUSH1 0x20 MSTORE PUSH1 0x40 DUP1 DUP3 KECCAK256 SWAP1 DUP4 ADD MLOAD DUP3 SWAP2 SWAP1 DUP3 SWAP1 DUP2 SWAP1 ISZERO PUSH2 0x2B25 JUMPI POP POP PUSH1 0xE0 DUP5 ADD MLOAD CALLER PUSH2 0x2B2F JUMP JUMPDEST POP POP PUSH1 0xE0 DUP5 ADD MLOAD CALLER SWAP1 JUMPDEST PUSH1 0x0 DUP1 PUSH1 0x0 PUSH2 0x2B3E DUP13 DUP13 PUSH2 0xA96 JUMP JUMPDEST SWAP3 SWAP12 POP SWAP3 SWAP10 POP SWAP5 POP SWAP1 SWAP3 POP SWAP1 POP DUP7 PUSH2 0x2B61 JUMPI DUP11 SWAP10 POP POP POP POP POP POP POP POP POP POP PUSH2 0x1F55 JUMP JUMPDEST PUSH2 0x2B6A DUP4 PUSH2 0x24FA JUMP JUMPDEST PUSH1 0xE0 DUP11 ADD MLOAD PUSH20 0xFFFFFFFFFFFFFFFFFFFFFFFFFFFFFFFFFFFFFFFF AND PUSH1 0x0 SWAP1 DUP2 MSTORE PUSH1 0x3 PUSH1 0x20 MSTORE PUSH1 0x40 SWAP1 KECCAK256 SSTORE PUSH2 0x2B9D DUP3 PUSH2 0x24FA JUMP JUMPDEST CALLER PUSH1 0x0 SWAP1 DUP2 MSTORE PUSH1 0x3 PUSH1 0x20 MSTORE PUSH1 0x40 SWAP1 KECCAK256 SSTORE DUP6 SLOAD PUSH2 0x2BD4 SWAP1 PUSH2 0x2BCF SWAP1 PUSH16 0xFFFFFFFFFFFFFFFFFFFFFFFFFFFFFFFF AND DUP4 PUSH2 0x250A JUMP JUMPDEST PUSH2 0x30BE JUMP JUMPDEST DUP7 SLOAD PUSH32 0xFFFFFFFFFFFFFFFFFFFFFFFFFFFFFFFF00000000000000000000000000000000 AND PUSH16 0xFFFFFFFFFFFFFFFFFFFFFFFFFFFFFFFF SWAP2 SWAP1 SWAP2 AND OR DUP7 SSTORE PUSH2 0x2C18 PUSH2 0x3187 JUMP JUMPDEST POP PUSH20 0xFFFFFFFFFFFFFFFFFFFFFFFFFFFFFFFFFFFFFFFF DUP6 AND PUSH1 0x0 SWAP1 DUP2 MSTORE PUSH1 0x6 DUP8 ADD PUSH1 0x20 SWAP1 DUP2 MSTORE PUSH1 0x40 DUP1 DUP4 KECCAK256 DUP13 DUP4 ADD MLOAD PUSH2 0xFFFF AND DUP5 MSTORE DUP1 DUP4 MSTORE SWAP3 DUP2 SWAP1 KECCAK256 DUP2 MLOAD DUP1 DUP4 ADD SWAP1 SWAP3 MSTORE SLOAD PUSH1 0xF SWAP1 DUP2 SIGNEXTEND DUP2 SIGNEXTEND DUP2 SIGNEXTEND DUP1 DUP4 MSTORE PUSH1 0x1 SWAP4 DUP4 ADD SWAP4 SWAP1 SWAP4 MSTORE SWAP1 SWAP3 SWAP2 PUSH2 0x2C8A SWAP2 PUSH2 0x2C85 SWAP2 SWAP1 SIGNEXTEND DUP12 PUSH2 0x2F9D JUMP JUMPDEST PUSH2 0x30DB JUMP JUMPDEST PUSH1 0xF SWAP1 DUP2 SIGNEXTEND DUP2 SIGNEXTEND DUP4 MSTORE PUSH1 0x20 DUP13 DUP2 ADD DUP1 MLOAD PUSH2 0xFFFF SWAP1 DUP2 AND PUSH1 0x0 SWAP1 DUP2 MSTORE SWAP5 DUP4 MSTORE PUSH1 0x40 DUP1 DUP7 KECCAK256 DUP8 MLOAD DUP2 SLOAD SWAP9 DUP7 ADD MLOAD PUSH32 0xFFFFFFFFFFFFFFFFFFFFFFFFFFFFFFFF00000000000000000000000000000000 SWAP1 SWAP10 AND PUSH16 0xFFFFFFFFFFFFFFFFFFFFFFFFFFFFFFFF SWAP2 DUP9 SIGNEXTEND SWAP2 SWAP1 SWAP2 AND OR PUSH32 0xFFFFFFFFFFFFFFFFFFFFFFFFFFFFFF00FFFFFFFFFFFFFFFFFFFFFFFFFFFFFFFF AND PUSH17 0x100000000000000000000000000000000 PUSH1 0xFF SWAP10 DUP11 AND DUP2 MUL SWAP2 SWAP1 SWAP2 OR SWAP1 SWAP2 SSTORE PUSH20 0xFFFFFFFFFFFFFFFFFFFFFFFFFFFFFFFFFFFFFFFF DUP13 AND DUP8 MSTORE PUSH1 0x6 DUP15 ADD DUP6 MSTORE DUP2 DUP8 KECCAK256 SWAP4 MLOAD SWAP1 SWAP3 AND DUP7 MSTORE DUP3 DUP5 MSTORE SWAP5 DUP6 SWAP1 KECCAK256 DUP6 MLOAD DUP1 DUP8 ADD SWAP1 SWAP7 MSTORE SLOAD DUP1 DUP6 SIGNEXTEND DUP6 SIGNEXTEND DUP6 SIGNEXTEND DUP1 DUP8 MSTORE SWAP2 SWAP1 DIV SWAP1 SWAP6 AND SWAP2 DUP5 ADD SWAP2 SWAP1 SWAP2 MSTORE SWAP2 SWAP3 PUSH2 0x2D96 SWAP2 PUSH2 0x2C85 SWAP2 SWAP1 SIGNEXTEND DUP12 PUSH2 0x23C1 JUMP JUMPDEST PUSH1 0xF SWAP1 DUP2 SIGNEXTEND DUP2 SIGNEXTEND DUP4 MSTORE PUSH1 0x1 PUSH1 0x20 DUP1 DUP6 ADD SWAP2 DUP3 MSTORE DUP14 DUP2 ADD MLOAD PUSH2 0xFFFF AND PUSH1 0x0 SWAP1 DUP2 MSTORE SWAP4 DUP2 MSTORE PUSH1 0x40 DUP1 DUP6 KECCAK256 SWAP6 MLOAD DUP7 SLOAD SWAP4 MLOAD PUSH1 0xFF AND PUSH17 0x100000000000000000000000000000000 MUL PUSH32 0xFFFFFFFFFFFFFFFFFFFFFFFFFFFFFF00FFFFFFFFFFFFFFFFFFFFFFFFFFFFFFFF SWAP2 SWAP1 SWAP6 SIGNEXTEND PUSH16 0xFFFFFFFFFFFFFFFFFFFFFFFFFFFFFFFF AND PUSH32 0xFFFFFFFFFFFFFFFFFFFFFFFFFFFFFFFF00000000000000000000000000000000 SWAP1 SWAP5 AND SWAP4 SWAP1 SWAP4 OR SWAP3 SWAP1 SWAP3 AND SWAP3 SWAP1 SWAP3 OR SWAP1 SWAP4 SSTORE DUP11 DUP3 MSTORE PUSH1 0x7 DUP10 ADD SWAP1 MSTORE KECCAK256 SLOAD PUSH2 0x2E59 SWAP1 DUP9 PUSH2 0x250A JUMP JUMPDEST DUP7 PUSH1 0x7 ADD PUSH1 0x0 DUP11 DUP2 MSTORE PUSH1 0x20 ADD SWAP1 DUP2 MSTORE PUSH1 0x20 ADD PUSH1 0x0 KECCAK256 DUP2 SWAP1 SSTORE POP DUP9 PUSH1 0x0 ADD MLOAD DUP5 PUSH20 0xFFFFFFFFFFFFFFFFFFFFFFFFFFFFFFFFFFFFFFFF AND DUP7 PUSH20 0xFFFFFFFFFFFFFFFFFFFFFFFFFFFFFFFFFFFFFFFF AND PUSH32 0x7881338EB26BC3F4EB2D539721BA87C61744A77CCEF589C34A5AD54AF21FADF2 TIMESTAMP DUP14 PUSH1 0x20 ADD MLOAD DUP15 PUSH1 0x60 ADD MLOAD DUP14 DUP16 PUSH1 0x40 MLOAD PUSH2 0x2EE4 SWAP6 SWAP5 SWAP4 SWAP3 SWAP2 SWAP1 PUSH2 0x4681 JUMP JUMPDEST PUSH1 0x40 MLOAD DUP1 SWAP2 SUB SWAP1 LOG4 PUSH2 0x2EF6 DUP12 DUP9 PUSH2 0x2604 JUMP JUMPDEST SWAP13 SWAP12 POP POP POP POP POP POP POP POP POP POP POP POP JUMP JUMPDEST PUSH1 0x0 DUP2 DUP5 DUP5 GT ISZERO PUSH2 0x2F44 JUMPI PUSH1 0x40 MLOAD PUSH32 0x8C379A000000000000000000000000000000000000000000000000000000000 DUP2 MSTORE PUSH1 0x4 ADD PUSH2 0x3BF SWAP2 SWAP1 PUSH2 0x4321 JUMP JUMPDEST POP POP POP SWAP1 SUB SWAP1 JUMP JUMPDEST PUSH1 0x0 DUP2 DUP4 PUSH2 0x2F87 JUMPI PUSH1 0x40 MLOAD PUSH32 0x8C379A000000000000000000000000000000000000000000000000000000000 DUP2 MSTORE PUSH1 0x4 ADD PUSH2 0x3BF SWAP2 SWAP1 PUSH2 0x4321 JUMP JUMPDEST POP PUSH1 0x0 DUP4 DUP6 DUP2 PUSH2 0x2F93 JUMPI INVALID JUMPDEST DIV SWAP6 SWAP5 POP POP POP POP POP JUMP JUMPDEST PUSH1 0x0 DUP3 DUP3 ADD DUP2 DUP4 SLT DUP1 ISZERO SWAP1 PUSH2 0x2FB2 JUMPI POP DUP4 DUP2 SLT ISZERO JUMPDEST DUP1 PUSH2 0x2FC7 JUMPI POP PUSH1 0x0 DUP4 SLT DUP1 ISZERO PUSH2 0x2FC7 JUMPI POP DUP4 DUP2 SLT JUMPDEST PUSH2 0x1292 JUMPI PUSH1 0x40 MLOAD PUSH32 0x8C379A000000000000000000000000000000000000000000000000000000000 DUP2 MSTORE PUSH1 0x4 ADD PUSH2 0x3BF SWAP1 PUSH2 0x4410 JUMP JUMPDEST PUSH1 0x5 DUP5 ADD SLOAD PUSH20 0xFFFFFFFFFFFFFFFFFFFFFFFFFFFFFFFFFFFFFFFF DUP5 AND PUSH1 0x0 SWAP1 DUP2 MSTORE PUSH1 0x6 DUP7 ADD PUSH1 0x20 MSTORE PUSH1 0x40 DUP2 KECCAK256 SWAP1 SWAP2 DUP3 SWAP2 PUSH32 0x7FFFFFFFFFFFFFFFFFFFFFFFFFFFFFFFFFFFFFFFFFFFFFFFFFFFFFFFFFFFFFFF SWAP2 DUP3 SWAP2 DUP5 DUP1 JUMPDEST DUP4 DUP2 GT PUSH2 0x30AC JUMPI PUSH1 0x0 DUP2 DUP2 MSTORE PUSH1 0x20 DUP5 SWAP1 MSTORE PUSH1 0x40 SWAP1 KECCAK256 SLOAD PUSH1 0xF SWAP1 DUP2 SIGNEXTEND SWAP1 SIGNEXTEND SWAP2 POP DUP6 DUP3 SLT ISZERO PUSH2 0x307F JUMPI DUP2 SWAP6 POP JUMPDEST DUP10 PUSH2 0xFFFF AND DUP2 EQ ISZERO PUSH2 0x3098 JUMPI PUSH2 0x3095 DUP3 DUP11 PUSH2 0x2F9D JUMP JUMPDEST SWAP2 POP JUMPDEST DUP5 DUP3 SLT ISZERO PUSH2 0x30A4 JUMPI DUP2 SWAP5 POP JUMPDEST PUSH1 0x1 ADD PUSH2 0x3054 JUMP JUMPDEST POP SWAP4 SWAP11 SWAP3 SWAP10 POP SWAP2 SWAP8 POP POP POP POP POP POP POP POP JUMP JUMPDEST PUSH1 0x0 DUP2 DUP3 PUSH16 0xFFFFFFFFFFFFFFFFFFFFFFFFFFFFFFFF AND EQ PUSH2 0x2506 JUMPI INVALID JUMPDEST PUSH1 0x0 DUP2 DUP3 PUSH1 0xF SIGNEXTEND EQ PUSH2 0x2506 JUMPI INVALID JUMPDEST PUSH1 0x40 DUP1 MLOAD PUSH1 0x60 DUP2 ADD DUP3 MSTORE PUSH1 0x0 DUP1 DUP3 MSTORE PUSH1 0x20 DUP3 ADD DUP2 SWAP1 MSTORE SWAP2 DUP2 ADD SWAP2 SWAP1 SWAP2 MSTORE SWAP1 JUMP JUMPDEST PUSH1 0x40 DUP1 MLOAD PUSH2 0x1E0 DUP2 ADD DUP3 MSTORE PUSH1 0x60 DUP1 DUP3 MSTORE PUSH1 0x0 PUSH1 0x20 DUP4 ADD DUP2 SWAP1 MSTORE SWAP3 DUP3 ADD DUP4 SWAP1 MSTORE DUP1 DUP3 ADD DUP4 SWAP1 MSTORE PUSH1 0x80 DUP3 ADD DUP4 SWAP1 MSTORE PUSH1 0xA0 DUP3 ADD DUP4 SWAP1 MSTORE PUSH1 0xC0 DUP3 ADD DUP4 SWAP1 MSTORE PUSH1 0xE0 DUP3 ADD DUP4 SWAP1 MSTORE PUSH2 0x100 DUP3 ADD DUP4 SWAP1 MSTORE PUSH2 0x120 DUP3 ADD DUP4 SWAP1 MSTORE PUSH2 0x140 DUP3 ADD DUP4 SWAP1 MSTORE PUSH2 0x160 DUP3 ADD DUP4 SWAP1 MSTORE PUSH2 0x180 DUP3 ADD DUP4 SWAP1 MSTORE PUSH2 0x1A0 DUP3 ADD SWAP3 SWAP1 SWAP3 MSTORE PUSH2 0x1C0 DUP2 ADD SWAP2 SWAP1 SWAP2 MSTORE SWAP1 JUMP JUMPDEST PUSH1 0x40 DUP1 MLOAD DUP1 DUP3 ADD SWAP1 SWAP2 MSTORE PUSH1 0x0 DUP1 DUP3 MSTORE PUSH1 0x20 DUP3 ADD MSTORE SWAP1 JUMP JUMPDEST PUSH1 0x40 DUP1 MLOAD PUSH2 0x100 DUP2 ADD DUP3 MSTORE PUSH1 0x0 DUP1 DUP3 MSTORE PUSH1 0x20 DUP3 ADD DUP2 SWAP1 MSTORE SWAP2 DUP2 ADD DUP3 SWAP1 MSTORE PUSH1 0x60 DUP2 ADD DUP3 SWAP1 MSTORE PUSH1 0x80 DUP2 ADD DUP3 SWAP1 MSTORE PUSH1 0xA0 DUP2 ADD DUP3 SWAP1 MSTORE PUSH1 0xC0 DUP2 ADD DUP3 SWAP1 MSTORE PUSH1 0xE0 DUP2 ADD SWAP2 SWAP1 SWAP2 MSTORE SWAP1 JUMP JUMPDEST DUP3 DUP1 SLOAD PUSH1 0x1 DUP2 PUSH1 0x1 AND ISZERO PUSH2 0x100 MUL SUB AND PUSH1 0x2 SWAP1 DIV SWAP1 PUSH1 0x0 MSTORE PUSH1 0x20 PUSH1 0x0 KECCAK256 SWAP1 PUSH1 0x1F ADD PUSH1 0x20 SWAP1 DIV DUP2 ADD SWAP3 DUP3 PUSH1 0x1F LT PUSH2 0x3223 JUMPI DUP1 MLOAD PUSH1 0xFF NOT AND DUP4 DUP1 ADD OR DUP6 SSTORE PUSH2 0x3250 JUMP JUMPDEST DUP3 DUP1 ADD PUSH1 0x1 ADD DUP6 SSTORE DUP3 ISZERO PUSH2 0x3250 JUMPI SWAP2 DUP3 ADD JUMPDEST DUP3 DUP2 GT ISZERO PUSH2 0x3250 JUMPI DUP3 MLOAD DUP3 SSTORE SWAP2 PUSH1 0x20 ADD SWAP2 SWAP1 PUSH1 0x1 ADD SWAP1 PUSH2 0x3235 JUMP JUMPDEST POP PUSH2 0x2506 SWAP3 SWAP2 POP PUSH2 0x338E JUMP JUMPDEST DUP3 DUP1 SLOAD DUP3 DUP3 SSTORE SWAP1 PUSH1 0x0 MSTORE PUSH1 0x20 PUSH1 0x0 KECCAK256 SWAP1 PUSH1 0x1 ADD PUSH1 0x2 SWAP1 DIV DUP2 ADD SWAP3 DUP3 ISZERO PUSH2 0x3322 JUMPI SWAP2 PUSH1 0x20 MUL DUP3 ADD PUSH1 0x0 JUMPDEST DUP4 DUP3 GT ISZERO PUSH2 0x32E4 JUMPI DUP4 MLOAD DUP4 DUP3 PUSH2 0x100 EXP DUP2 SLOAD DUP2 PUSH16 0xFFFFFFFFFFFFFFFFFFFFFFFFFFFFFFFF MUL NOT AND SWAP1 DUP4 PUSH1 0xF SIGNEXTEND PUSH16 0xFFFFFFFFFFFFFFFFFFFFFFFFFFFFFFFF AND MUL OR SWAP1 SSTORE POP SWAP3 PUSH1 0x20 ADD SWAP3 PUSH1 0x10 ADD PUSH1 0x20 DUP2 PUSH1 0xF ADD DIV SWAP3 DUP4 ADD SWAP3 PUSH1 0x1 SUB MUL PUSH2 0x3285 JUMP JUMPDEST DUP1 ISZERO PUSH2 0x3320 JUMPI DUP3 DUP2 PUSH2 0x100 EXP DUP2 SLOAD SWAP1 PUSH16 0xFFFFFFFFFFFFFFFFFFFFFFFFFFFFFFFF MUL NOT AND SWAP1 SSTORE PUSH1 0x10 ADD PUSH1 0x20 DUP2 PUSH1 0xF ADD DIV SWAP3 DUP4 ADD SWAP3 PUSH1 0x1 SUB MUL PUSH2 0x32E4 JUMP JUMPDEST POP JUMPDEST POP PUSH2 0x2506 SWAP3 SWAP2 POP PUSH2 0x33A3 JUMP JUMPDEST PUSH1 0x40 MLOAD DUP1 PUSH1 0xA0 ADD PUSH1 0x40 MSTORE DUP1 PUSH2 0x3341 PUSH2 0x3109 JUMP JUMPDEST DUP2 MSTORE PUSH1 0x20 ADD PUSH2 0x334E PUSH2 0x30E9 JUMP JUMPDEST DUP2 MSTORE PUSH1 0x0 PUSH1 0x20 DUP3 ADD DUP2 SWAP1 MSTORE PUSH1 0x40 DUP3 ADD DUP2 SWAP1 MSTORE PUSH1 0x60 SWAP1 SWAP2 ADD MSTORE SWAP1 JUMP JUMPDEST PUSH1 0x40 MLOAD DUP1 PUSH1 0x40 ADD PUSH1 0x40 MSTORE DUP1 PUSH2 0x337C PUSH2 0x319E JUMP JUMPDEST DUP2 MSTORE PUSH1 0x20 ADD PUSH2 0x3389 PUSH2 0x30E9 JUMP JUMPDEST SWAP1 MSTORE SWAP1 JUMP JUMPDEST JUMPDEST DUP1 DUP3 GT ISZERO PUSH2 0x2506 JUMPI PUSH1 0x0 DUP2 SSTORE PUSH1 0x1 ADD PUSH2 0x338F JUMP JUMPDEST JUMPDEST DUP1 DUP3 GT ISZERO PUSH2 0x2506 JUMPI DUP1 SLOAD PUSH32 0xFFFFFFFFFFFFFFFFFFFFFFFFFFFFFFFF00000000000000000000000000000000 AND DUP2 SSTORE PUSH1 0x1 ADD PUSH2 0x33A4 JUMP JUMPDEST DUP1 CALLDATALOAD PUSH20 0xFFFFFFFFFFFFFFFFFFFFFFFFFFFFFFFFFFFFFFFF DUP2 AND DUP2 EQ PUSH2 0x1F55 JUMPI PUSH1 0x0 DUP1 REVERT JUMPDEST PUSH1 0x0 DUP3 PUSH1 0x1F DUP4 ADD SLT PUSH2 0x340E JUMPI DUP1 DUP2 REVERT JUMPDEST DUP2 CALLDATALOAD PUSH2 0x3421 PUSH2 0x341C DUP3 PUSH2 0x46DD JUMP JUMPDEST PUSH2 0x46B6 JUMP JUMPDEST DUP2 DUP2 MSTORE SWAP2 POP PUSH1 0x20 DUP1 DUP4 ADD SWAP1 DUP5 DUP2 ADD DUP2 DUP5 MUL DUP7 ADD DUP3 ADD DUP8 LT ISZERO PUSH2 0x3442 JUMPI PUSH1 0x0 DUP1 REVERT JUMPDEST PUSH1 0x0 JUMPDEST DUP5 DUP2 LT ISZERO PUSH2 0x3469 JUMPI PUSH2 0x3457 DUP9 DUP4 PUSH2 0x33DA JUMP JUMPDEST DUP5 MSTORE SWAP3 DUP3 ADD SWAP3 SWAP1 DUP3 ADD SWAP1 PUSH1 0x1 ADD PUSH2 0x3445 JUMP JUMPDEST POP POP POP POP POP SWAP3 SWAP2 POP POP JUMP JUMPDEST PUSH1 0x0 DUP3 PUSH1 0x1F DUP4 ADD SLT PUSH2 0x3484 JUMPI DUP1 DUP2 REVERT JUMPDEST DUP2 CALLDATALOAD PUSH2 0x3492 PUSH2 0x341C DUP3 PUSH2 0x46DD JUMP JUMPDEST DUP2 DUP2 MSTORE SWAP2 POP PUSH1 0x20 DUP1 DUP4 ADD SWAP1 DUP5 DUP2 ADD DUP2 DUP5 MUL DUP7 ADD DUP3 ADD DUP8 LT ISZERO PUSH2 0x34B3 JUMPI PUSH1 0x0 DUP1 REVERT JUMPDEST PUSH1 0x0 JUMPDEST DUP5 DUP2 LT ISZERO PUSH2 0x3469 JUMPI DUP2 CALLDATALOAD DUP5 MSTORE SWAP3 DUP3 ADD SWAP3 SWAP1 DUP3 ADD SWAP1 PUSH1 0x1 ADD PUSH2 0x34B6 JUMP JUMPDEST PUSH1 0x0 DUP3 PUSH1 0x1F DUP4 ADD SLT PUSH2 0x34E2 JUMPI DUP1 DUP2 REVERT JUMPDEST DUP2 CALLDATALOAD PUSH2 0x34F0 PUSH2 0x341C DUP3 PUSH2 0x46DD JUMP JUMPDEST DUP2 DUP2 MSTORE SWAP2 POP PUSH1 0x20 DUP1 DUP4 ADD SWAP1 DUP5 DUP2 ADD DUP2 DUP5 MUL DUP7 ADD DUP3 ADD DUP8 LT ISZERO PUSH2 0x3511 JUMPI PUSH1 0x0 DUP1 REVERT JUMPDEST PUSH1 0x0 DUP1 JUMPDEST DUP6 DUP2 LT ISZERO PUSH2 0x353F JUMPI DUP3 CALLDATALOAD DUP1 PUSH1 0xF SIGNEXTEND DUP2 EQ PUSH2 0x352D JUMPI DUP3 DUP4 REVERT JUMPDEST DUP6 MSTORE SWAP4 DUP4 ADD SWAP4 SWAP2 DUP4 ADD SWAP2 PUSH1 0x1 ADD PUSH2 0x3515 JUMP JUMPDEST POP POP POP POP POP POP SWAP3 SWAP2 POP POP JUMP JUMPDEST DUP1 CALLDATALOAD DUP1 ISZERO ISZERO DUP2 EQ PUSH2 0x1F55 JUMPI PUSH1 0x0 DUP1 REVERT JUMPDEST DUP1 CALLDATALOAD PUSH1 0x0 DUP2 SWAP1 SIGNEXTEND DUP2 EQ PUSH2 0x1F55 JUMPI PUSH1 0x0 DUP1 REVERT JUMPDEST PUSH1 0x0 DUP3 PUSH1 0x1F DUP4 ADD SLT PUSH2 0x357D JUMPI DUP1 DUP2 REVERT JUMPDEST DUP2 CALLDATALOAD PUSH8 0xFFFFFFFFFFFFFFFF DUP2 GT ISZERO PUSH2 0x3593 JUMPI DUP2 DUP3 REVERT JUMPDEST PUSH2 0x35C4 PUSH1 0x20 PUSH32 0xFFFFFFFFFFFFFFFFFFFFFFFFFFFFFFFFFFFFFFFFFFFFFFFFFFFFFFFFFFFFFFE0 PUSH1 0x1F DUP5 ADD AND ADD PUSH2 0x46B6 JUMP JUMPDEST SWAP2 POP DUP1 DUP3 MSTORE DUP4 PUSH1 0x20 DUP3 DUP6 ADD ADD GT ISZERO PUSH2 0x35DB JUMPI PUSH1 0x0 DUP1 REVERT JUMPDEST DUP1 PUSH1 0x20 DUP5 ADD PUSH1 0x20 DUP5 ADD CALLDATACOPY PUSH1 0x0 SWAP1 DUP3 ADD PUSH1 0x20 ADD MSTORE SWAP3 SWAP2 POP POP JUMP JUMPDEST PUSH1 0x0 DUP2 DUP4 SUB PUSH2 0x160 DUP2 SLT ISZERO PUSH2 0x3607 JUMPI DUP2 DUP3 REVERT JUMPDEST PUSH2 0x3611 PUSH1 0x40 PUSH2 0x46B6 JUMP JUMPDEST SWAP2 POP PUSH2 0x100 DUP1 DUP3 SLT ISZERO PUSH2 0x3623 JUMPI PUSH1 0x0 DUP1 REVERT JUMPDEST PUSH2 0x362C DUP2 PUSH2 0x46B6 JUMP JUMPDEST SWAP2 POP DUP4 CALLDATALOAD DUP3 MSTORE PUSH2 0x363F DUP6 PUSH1 0x20 DUP7 ADD PUSH2 0x36EF JUMP JUMPDEST PUSH1 0x20 DUP4 ADD MSTORE PUSH2 0x3651 DUP6 PUSH1 0x40 DUP7 ADD PUSH2 0x354B JUMP JUMPDEST PUSH1 0x40 DUP4 ADD MSTORE PUSH1 0x60 DUP5 ADD CALLDATALOAD PUSH1 0x60 DUP4 ADD MSTORE PUSH1 0x80 DUP5 ADD CALLDATALOAD PUSH1 0x80 DUP4 ADD MSTORE PUSH1 0xA0 DUP5 ADD CALLDATALOAD PUSH1 0xA0 DUP4 ADD MSTORE PUSH1 0xC0 DUP5 ADD CALLDATALOAD PUSH1 0xC0 DUP4 ADD MSTORE PUSH2 0x368B DUP6 PUSH1 0xE0 DUP7 ADD PUSH2 0x33DA JUMP JUMPDEST PUSH1 0xE0 DUP4 ADD MSTORE DUP2 DUP4 MSTORE PUSH2 0x369F DUP6 DUP3 DUP7 ADD PUSH2 0x36AC JUMP JUMPDEST PUSH1 0x20 DUP5 ADD MSTORE POP POP SWAP3 SWAP2 POP POP JUMP JUMPDEST PUSH1 0x0 PUSH1 0x60 DUP3 DUP5 SUB SLT ISZERO PUSH2 0x36BD JUMPI DUP1 DUP2 REVERT JUMPDEST PUSH2 0x36C7 PUSH1 0x60 PUSH2 0x46B6 JUMP JUMPDEST SWAP1 POP PUSH2 0x36D3 DUP4 DUP4 PUSH2 0x3729 JUMP JUMPDEST DUP2 MSTORE PUSH1 0x20 DUP3 ADD CALLDATALOAD PUSH1 0x20 DUP3 ADD MSTORE PUSH1 0x40 DUP3 ADD CALLDATALOAD PUSH1 0x40 DUP3 ADD MSTORE SWAP3 SWAP2 POP POP JUMP JUMPDEST DUP1 CALLDATALOAD PUSH2 0xFFFF DUP2 AND DUP2 EQ PUSH2 0x1F55 JUMPI PUSH1 0x0 DUP1 REVERT JUMPDEST DUP1 CALLDATALOAD PUSH3 0xFFFFFF DUP2 AND DUP2 EQ PUSH2 0x1F55 JUMPI PUSH1 0x0 DUP1 REVERT JUMPDEST DUP1 CALLDATALOAD PUSH5 0xFFFFFFFFFF DUP2 AND DUP2 EQ PUSH2 0x1F55 JUMPI PUSH1 0x0 DUP1 REVERT JUMPDEST DUP1 CALLDATALOAD PUSH1 0xFF DUP2 AND DUP2 EQ PUSH2 0x1F55 JUMPI PUSH1 0x0 DUP1 REVERT JUMPDEST PUSH1 0x0 PUSH1 0x20 DUP3 DUP5 SUB SLT ISZERO PUSH2 0x374B JUMPI DUP1 DUP2 REVERT JUMPDEST PUSH2 0x1292 DUP4 DUP4 PUSH2 0x33DA JUMP JUMPDEST PUSH1 0x0 DUP1 PUSH1 0x0 PUSH1 0x40 DUP5 DUP7 SUB SLT ISZERO PUSH2 0x3769 JUMPI DUP2 DUP3 REVERT JUMPDEST DUP4 CALLDATALOAD PUSH20 0xFFFFFFFFFFFFFFFFFFFFFFFFFFFFFFFFFFFFFFFF DUP2 AND DUP2 EQ PUSH2 0x378C JUMPI DUP3 DUP4 REVERT JUMPDEST SWAP3 POP PUSH1 0x20 DUP5 ADD CALLDATALOAD PUSH8 0xFFFFFFFFFFFFFFFF DUP1 DUP3 GT ISZERO PUSH2 0x37A8 JUMPI DUP4 DUP5 REVERT JUMPDEST DUP2 DUP7 ADD SWAP2 POP DUP7 PUSH1 0x1F DUP4 ADD SLT PUSH2 0x37BB JUMPI DUP4 DUP5 REVERT JUMPDEST DUP2 CALLDATALOAD DUP2 DUP2 GT ISZERO PUSH2 0x37C9 JUMPI DUP5 DUP6 REVERT JUMPDEST DUP8 PUSH1 0x20 DUP1 DUP4 MUL DUP6 ADD ADD GT ISZERO PUSH2 0x37DC JUMPI DUP5 DUP6 REVERT JUMPDEST PUSH1 0x20 DUP4 ADD SWAP5 POP DUP1 SWAP4 POP POP POP POP SWAP3 POP SWAP3 POP SWAP3 JUMP JUMPDEST PUSH1 0x0 DUP1 PUSH1 0x40 DUP4 DUP6 SUB SLT ISZERO PUSH2 0x3801 JUMPI DUP2 DUP3 REVERT JUMPDEST PUSH2 0x380B DUP5 DUP5 PUSH2 0x33DA JUMP JUMPDEST SWAP5 PUSH1 0x20 SWAP4 SWAP1 SWAP4 ADD CALLDATALOAD SWAP4 POP POP POP JUMP JUMPDEST PUSH1 0x0 DUP1 PUSH1 0x40 DUP4 DUP6 SUB SLT ISZERO PUSH2 0x382B JUMPI DUP2 DUP3 REVERT JUMPDEST DUP3 CALLDATALOAD PUSH8 0xFFFFFFFFFFFFFFFF DUP2 GT ISZERO PUSH2 0x3841 JUMPI DUP3 DUP4 REVERT JUMPDEST DUP4 ADD PUSH1 0x1F DUP2 ADD DUP6 SGT PUSH2 0x3851 JUMPI DUP3 DUP4 REVERT JUMPDEST DUP1 CALLDATALOAD PUSH2 0x385F PUSH2 0x341C DUP3 PUSH2 0x46DD JUMP JUMPDEST DUP1 DUP3 DUP3 MSTORE PUSH1 0x20 DUP1 DUP4 ADD SWAP3 POP DUP1 DUP6 ADD PUSH2 0x160 DUP11 DUP4 DUP3 DUP9 MUL DUP10 ADD ADD GT ISZERO PUSH2 0x3882 JUMPI DUP9 DUP10 REVERT JUMPDEST DUP9 SWAP7 POP JUMPDEST DUP6 DUP8 LT ISZERO PUSH2 0x38AE JUMPI PUSH2 0x3898 DUP12 DUP4 PUSH2 0x35F4 JUMP JUMPDEST DUP6 MSTORE PUSH1 0x1 SWAP7 SWAP1 SWAP7 ADD SWAP6 SWAP4 DUP3 ADD SWAP4 SWAP1 DUP2 ADD SWAP1 PUSH2 0x3886 JUMP JUMPDEST POP SWAP2 SWAP10 SWAP8 ADD CALLDATALOAD SWAP8 POP POP POP POP POP POP POP JUMP JUMPDEST PUSH1 0x0 PUSH1 0x20 DUP3 DUP5 SUB SLT ISZERO PUSH2 0x38CF JUMPI DUP1 DUP2 REVERT JUMPDEST POP CALLDATALOAD SWAP2 SWAP1 POP JUMP JUMPDEST PUSH1 0x0 DUP1 PUSH1 0x0 PUSH1 0x60 DUP5 DUP7 SUB SLT ISZERO PUSH2 0x38EA JUMPI DUP1 DUP2 REVERT JUMPDEST DUP4 CALLDATALOAD SWAP3 POP PUSH1 0x20 DUP5 ADD CALLDATALOAD PUSH8 0xFFFFFFFFFFFFFFFF DUP1 DUP3 GT ISZERO PUSH2 0x3908 JUMPI DUP3 DUP4 REVERT JUMPDEST PUSH2 0x3914 DUP8 DUP4 DUP9 ADD PUSH2 0x33FE JUMP JUMPDEST SWAP4 POP PUSH1 0x40 DUP7 ADD CALLDATALOAD SWAP2 POP DUP1 DUP3 GT ISZERO PUSH2 0x3929 JUMPI DUP3 DUP4 REVERT JUMPDEST POP PUSH2 0x3936 DUP7 DUP3 DUP8 ADD PUSH2 0x3474 JUMP JUMPDEST SWAP2 POP POP SWAP3 POP SWAP3 POP SWAP3 JUMP JUMPDEST PUSH1 0x0 DUP1 PUSH1 0x0 DUP1 PUSH1 0x0 PUSH1 0xE0 DUP7 DUP9 SUB SLT ISZERO PUSH2 0x3957 JUMPI DUP3 DUP4 REVERT JUMPDEST DUP6 CALLDATALOAD SWAP5 POP PUSH2 0x3968 DUP8 PUSH1 0x20 DUP9 ADD PUSH2 0x36AC JUMP JUMPDEST SWAP4 POP PUSH1 0x80 DUP7 ADD CALLDATALOAD SWAP3 POP PUSH1 0xA0 DUP7 ADD CALLDATALOAD PUSH8 0xFFFFFFFFFFFFFFFF DUP1 DUP3 GT ISZERO PUSH2 0x398B JUMPI DUP3 DUP4 REVERT JUMPDEST PUSH2 0x3997 DUP10 DUP4 DUP11 ADD PUSH2 0x33FE JUMP JUMPDEST SWAP4 POP PUSH1 0xC0 DUP9 ADD CALLDATALOAD SWAP2 POP DUP1 DUP3 GT ISZERO PUSH2 0x39AC JUMPI DUP3 DUP4 REVERT JUMPDEST POP PUSH2 0x39B9 DUP9 DUP3 DUP10 ADD PUSH2 0x3474 JUMP JUMPDEST SWAP2 POP POP SWAP3 SWAP6 POP SWAP3 SWAP6 SWAP1 SWAP4 POP JUMP JUMPDEST PUSH1 0x0 DUP1 PUSH1 0x0 PUSH1 0xA0 DUP5 DUP7 SUB SLT ISZERO PUSH2 0x39DA JUMPI DUP1 DUP2 REVERT JUMPDEST DUP4 CALLDATALOAD PUSH8 0xFFFFFFFFFFFFFFFF DUP1 DUP3 GT ISZERO PUSH2 0x39F1 JUMPI DUP3 DUP4 REVERT JUMPDEST DUP2 DUP7 ADD SWAP2 POP PUSH2 0x1E0 DUP1 DUP4 DUP10 SUB SLT ISZERO PUSH2 0x3A07 JUMPI DUP4 DUP5 REVERT JUMPDEST PUSH2 0x3A10 DUP2 PUSH2 0x46B6 JUMP JUMPDEST SWAP1 POP DUP3 CALLDATALOAD DUP3 DUP2 GT ISZERO PUSH2 0x3A20 JUMPI DUP5 DUP6 REVERT JUMPDEST PUSH2 0x3A2C DUP10 DUP3 DUP7 ADD PUSH2 0x356D JUMP JUMPDEST DUP3 MSTORE POP PUSH2 0x3A3C DUP9 PUSH1 0x20 DUP6 ADD PUSH2 0x3714 JUMP JUMPDEST PUSH1 0x20 DUP3 ADD MSTORE PUSH2 0x3A4E DUP9 PUSH1 0x40 DUP6 ADD PUSH2 0x3701 JUMP JUMPDEST PUSH1 0x40 DUP3 ADD MSTORE PUSH2 0x3A60 DUP9 PUSH1 0x60 DUP6 ADD PUSH2 0x3729 JUMP JUMPDEST PUSH1 0x60 DUP3 ADD MSTORE PUSH2 0x3A72 DUP9 PUSH1 0x80 DUP6 ADD PUSH2 0x3729 JUMP JUMPDEST PUSH1 0x80 DUP3 ADD MSTORE PUSH2 0x3A84 DUP9 PUSH1 0xA0 DUP6 ADD PUSH2 0x3729 JUMP JUMPDEST PUSH1 0xA0 DUP3 ADD MSTORE PUSH2 0x3A96 DUP9 PUSH1 0xC0 DUP6 ADD PUSH2 0x355B JUMP JUMPDEST PUSH1 0xC0 DUP3 ADD MSTORE PUSH2 0x3AA8 DUP9 PUSH1 0xE0 DUP6 ADD PUSH2 0x33DA JUMP JUMPDEST PUSH1 0xE0 DUP3 ADD MSTORE PUSH2 0x100 PUSH2 0x3ABC DUP10 DUP3 DUP7 ADD PUSH2 0x3729 JUMP JUMPDEST SWAP1 DUP3 ADD MSTORE PUSH2 0x120 PUSH2 0x3ACF DUP10 DUP6 DUP4 ADD PUSH2 0x3729 JUMP JUMPDEST SWAP1 DUP3 ADD MSTORE PUSH2 0x140 PUSH2 0x3AE2 DUP10 DUP6 DUP4 ADD PUSH2 0x3729 JUMP JUMPDEST SWAP1 DUP3 ADD MSTORE PUSH2 0x160 PUSH2 0x3AF5 DUP10 DUP6 DUP4 ADD PUSH2 0x3729 JUMP JUMPDEST SWAP1 DUP3 ADD MSTORE PUSH2 0x180 PUSH2 0x3B08 DUP10 DUP6 DUP4 ADD PUSH2 0x33DA JUMP JUMPDEST SWAP1 DUP3 ADD MSTORE PUSH2 0x1A0 PUSH2 0x3B1B DUP10 DUP6 DUP4 ADD PUSH2 0x33DA JUMP JUMPDEST SWAP1 DUP3 ADD MSTORE PUSH2 0x1C0 DUP4 DUP2 ADD CALLDATALOAD DUP4 DUP2 GT ISZERO PUSH2 0x3B32 JUMPI DUP6 DUP7 REVERT JUMPDEST PUSH2 0x3B3E DUP11 DUP3 DUP8 ADD PUSH2 0x34D2 JUMP JUMPDEST DUP3 DUP5 ADD MSTORE POP POP DUP1 SWAP6 POP POP POP POP PUSH2 0x3B57 DUP6 PUSH1 0x20 DUP7 ADD PUSH2 0x354B JUMP JUMPDEST SWAP2 POP PUSH2 0x3B66 DUP6 PUSH1 0x40 DUP7 ADD PUSH2 0x36AC JUMP JUMPDEST SWAP1 POP SWAP3 POP SWAP3 POP SWAP3 JUMP JUMPDEST PUSH1 0x0 DUP1 PUSH2 0x180 DUP4 DUP6 SUB SLT ISZERO PUSH2 0x3B82 JUMPI DUP2 DUP3 REVERT JUMPDEST PUSH2 0x3B8C DUP5 DUP5 PUSH2 0x35F4 JUMP JUMPDEST SWAP5 PUSH2 0x160 SWAP4 SWAP1 SWAP4 ADD CALLDATALOAD SWAP4 POP POP POP JUMP JUMPDEST PUSH1 0x0 PUSH1 0x20 DUP3 DUP5 SUB SLT ISZERO PUSH2 0x3BAC JUMPI DUP1 DUP2 REVERT JUMPDEST DUP2 CALLDATALOAD PUSH5 0xFFFFFFFFFF DUP2 AND DUP2 EQ PUSH2 0x1292 JUMPI DUP2 DUP3 REVERT JUMPDEST PUSH20 0xFFFFFFFFFFFFFFFFFFFFFFFFFFFFFFFFFFFFFFFF AND SWAP1 MSTORE JUMP JUMPDEST PUSH1 0x60 SHL PUSH32 0xFFFFFFFFFFFFFFFFFFFFFFFFFFFFFFFFFFFFFFFF000000000000000000000000 AND SWAP1 MSTORE JUMP JUMPDEST PUSH1 0x0 DUP2 MLOAD DUP1 DUP5 MSTORE PUSH1 0x20 DUP1 DUP6 ADD SWAP5 POP DUP1 DUP5 ADD DUP4 JUMPDEST DUP4 DUP2 LT ISZERO PUSH2 0x3C35 JUMPI DUP2 MLOAD PUSH1 0xF SIGNEXTEND DUP8 MSTORE SWAP6 DUP3 ADD SWAP6 SWAP1 DUP3 ADD SWAP1 PUSH1 0x1 ADD PUSH2 0x3C16 JUMP JUMPDEST POP SWAP5 SWAP6 SWAP5 POP POP POP POP POP JUMP JUMPDEST DUP1 MLOAD PUSH1 0x0 SWAP1 PUSH1 0x20 DUP1 DUP5 ADD DUP4 DUP4 ISZERO PUSH2 0x3C35 JUMPI DUP2 MLOAD PUSH1 0xF SIGNEXTEND DUP8 MSTORE SWAP6 DUP3 ADD SWAP6 SWAP1 DUP3 ADD SWAP1 PUSH1 0x1 ADD PUSH2 0x3C16 JUMP JUMPDEST PUSH1 0x0 SIGNEXTEND SWAP1 MSTORE JUMP JUMPDEST PUSH1 0x0 SIGNEXTEND PUSH1 0xF8 SHL SWAP1 MSTORE JUMP JUMPDEST PUSH1 0x0 DUP2 MLOAD DUP1 DUP5 MSTORE PUSH2 0x3C91 DUP2 PUSH1 0x20 DUP7 ADD PUSH1 0x20 DUP7 ADD PUSH2 0x4708 JUMP JUMPDEST PUSH1 0x1F ADD PUSH32 0xFFFFFFFFFFFFFFFFFFFFFFFFFFFFFFFFFFFFFFFFFFFFFFFFFFFFFFFFFFFFFFE0 AND SWAP3 SWAP1 SWAP3 ADD PUSH1 0x20 ADD SWAP3 SWAP2 POP POP JUMP JUMPDEST PUSH1 0x0 PUSH2 0x1E0 DUP3 MLOAD DUP2 DUP6 MSTORE PUSH2 0x3CD9 DUP3 DUP7 ADD DUP3 PUSH2 0x3C79 JUMP JUMPDEST SWAP2 POP POP PUSH1 0x20 DUP4 ADD MLOAD PUSH2 0x3CEE PUSH1 0x20 DUP7 ADD DUP3 PUSH2 0x3E8C JUMP JUMPDEST POP PUSH1 0x40 DUP4 ADD MLOAD PUSH2 0x3D01 PUSH1 0x40 DUP7 ADD DUP3 PUSH2 0x3E83 JUMP JUMPDEST POP PUSH1 0x60 DUP4 ADD MLOAD PUSH2 0x3D14 PUSH1 0x60 DUP7 ADD DUP3 PUSH2 0x3E97 JUMP JUMPDEST POP PUSH1 0x80 DUP4 ADD MLOAD PUSH2 0x3D27 PUSH1 0x80 DUP7 ADD DUP3 PUSH2 0x3E97 JUMP JUMPDEST POP PUSH1 0xA0 DUP4 ADD MLOAD PUSH2 0x3D3A PUSH1 0xA0 DUP7 ADD DUP3 PUSH2 0x3E97 JUMP JUMPDEST POP PUSH1 0xC0 DUP4 ADD MLOAD PUSH2 0x3D4D PUSH1 0xC0 DUP7 ADD DUP3 PUSH2 0x3C68 JUMP JUMPDEST POP PUSH1 0xE0 DUP4 ADD MLOAD PUSH2 0x3D60 PUSH1 0xE0 DUP7 ADD DUP3 PUSH2 0x3BC0 JUMP JUMPDEST POP PUSH2 0x100 DUP1 DUP5 ADD MLOAD PUSH2 0x3D74 DUP3 DUP8 ADD DUP3 PUSH2 0x3E97 JUMP JUMPDEST POP POP PUSH2 0x120 DUP1 DUP5 ADD MLOAD PUSH2 0x3D89 DUP3 DUP8 ADD DUP3 PUSH2 0x3E97 JUMP JUMPDEST POP POP PUSH2 0x140 DUP1 DUP5 ADD MLOAD PUSH2 0x3D9E DUP3 DUP8 ADD DUP3 PUSH2 0x3E97 JUMP JUMPDEST POP POP PUSH2 0x160 DUP1 DUP5 ADD MLOAD PUSH2 0x3DB3 DUP3 DUP8 ADD DUP3 PUSH2 0x3E97 JUMP JUMPDEST POP POP PUSH2 0x180 DUP1 DUP5 ADD MLOAD PUSH2 0x3DC8 DUP3 DUP8 ADD DUP3 PUSH2 0x3BC0 JUMP JUMPDEST POP POP PUSH2 0x1A0 DUP1 DUP5 ADD MLOAD PUSH2 0x3DDD DUP3 DUP8 ADD DUP3 PUSH2 0x3BC0 JUMP JUMPDEST POP POP PUSH2 0x1C0 DUP1 DUP5 ADD MLOAD DUP6 DUP4 SUB DUP3 DUP8 ADD MSTORE PUSH2 0x3DF7 DUP4 DUP3 PUSH2 0x3C03 JUMP JUMPDEST SWAP7 SWAP6 POP POP POP POP POP POP JUMP JUMPDEST PUSH1 0x0 DUP2 MLOAD PUSH1 0xE0 DUP5 MSTORE PUSH2 0x3E16 PUSH1 0xE0 DUP6 ADD DUP3 PUSH2 0x3CC3 JUMP JUMPDEST SWAP1 POP PUSH1 0x20 DUP4 ADD MLOAD PUSH16 0xFFFFFFFFFFFFFFFFFFFFFFFFFFFFFFFF DUP2 MLOAD AND PUSH1 0x20 DUP7 ADD MSTORE PUSH2 0xFFFF PUSH1 0x20 DUP3 ADD MLOAD AND PUSH1 0x40 DUP7 ADD MSTORE PUSH1 0x40 DUP2 ADD MLOAD ISZERO ISZERO PUSH1 0x60 DUP7 ADD MSTORE POP PUSH1 0x40 DUP4 ADD MLOAD PUSH1 0x80 DUP6 ADD MSTORE PUSH2 0x3E68 PUSH1 0x60 DUP5 ADD MLOAD PUSH2 0x46FD JUMP JUMPDEST PUSH1 0xA0 DUP6 ADD MSTORE PUSH1 0x80 DUP4 ADD MLOAD ISZERO ISZERO PUSH1 0xC0 DUP6 ADD MSTORE DUP1 SWAP2 POP POP SWAP3 SWAP2 POP POP JUMP JUMPDEST PUSH3 0xFFFFFF AND SWAP1 MSTORE JUMP JUMPDEST PUSH5 0xFFFFFFFFFF AND SWAP1 MSTORE JUMP JUMPDEST PUSH1 0xFF AND SWAP1 MSTORE JUMP JUMPDEST PUSH1 0xF8 SHL PUSH32 0xFF00000000000000000000000000000000000000000000000000000000000000 AND SWAP1 MSTORE JUMP JUMPDEST PUSH1 0x60 SWAP10 DUP11 SHL PUSH32 0xFFFFFFFFFFFFFFFFFFFFFFFFFFFFFFFFFFFFFFFF000000000000000000000000 SWAP1 DUP2 AND DUP3 MSTORE PUSH1 0x14 DUP3 ADD SWAP10 SWAP1 SWAP10 MSTORE PUSH1 0xF0 SWAP8 SWAP1 SWAP8 SHL PUSH32 0xFFFF000000000000000000000000000000000000000000000000000000000000 AND PUSH1 0x34 DUP9 ADD MSTORE SWAP5 ISZERO ISZERO PUSH1 0xF8 SHL PUSH1 0x36 DUP8 ADD MSTORE PUSH1 0x37 DUP7 ADD SWAP4 SWAP1 SWAP4 MSTORE PUSH1 0x57 DUP6 ADD SWAP2 SWAP1 SWAP2 MSTORE PUSH1 0x77 DUP5 ADD MSTORE PUSH1 0x97 DUP4 ADD MSTORE SWAP1 SWAP3 SHL AND PUSH1 0xB7 DUP3 ADD MSTORE PUSH1 0xCB ADD SWAP1 JUMP JUMPDEST SWAP3 DUP4 MSTORE PUSH1 0x20 DUP4 ADD SWAP2 SWAP1 SWAP2 MSTORE PUSH1 0xF0 SHL PUSH32 0xFFFF000000000000000000000000000000000000000000000000000000000000 AND PUSH1 0x40 DUP3 ADD MSTORE PUSH1 0x42 ADD SWAP1 JUMP JUMPDEST SWAP7 DUP8 MSTORE PUSH1 0xD8 SWAP6 SWAP1 SWAP6 SHL PUSH32 0xFFFFFFFFFF000000000000000000000000000000000000000000000000000000 AND PUSH1 0x20 DUP8 ADD MSTORE PUSH1 0xE8 SWAP4 SWAP1 SWAP4 SHL PUSH32 0xFFFFFF0000000000000000000000000000000000000000000000000000000000 AND PUSH1 0x25 DUP7 ADD MSTORE PUSH1 0xF8 SWAP2 DUP3 SHL PUSH32 0xFF00000000000000000000000000000000000000000000000000000000000000 SWAP1 DUP2 AND PUSH1 0x28 DUP8 ADD MSTORE SWAP1 DUP3 SHL DUP2 AND PUSH1 0x29 DUP7 ADD MSTORE SWAP2 DUP2 SHL SWAP1 SWAP2 AND PUSH1 0x2A DUP5 ADD MSTORE PUSH1 0x0 SWAP2 SWAP1 SWAP2 SIGNEXTEND SWAP1 SHL PUSH1 0x2B DUP3 ADD MSTORE PUSH1 0x2C ADD SWAP1 JUMP JUMPDEST PUSH1 0x0 DUP13 DUP3 MSTORE PUSH32 0xFFFFFFFFFF000000000000000000000000000000000000000000000000000000 DUP13 PUSH1 0xD8 SHL AND PUSH1 0x20 DUP4 ADD MSTORE PUSH32 0xFFFFFF0000000000000000000000000000000000000000000000000000000000 DUP12 PUSH1 0xE8 SHL AND PUSH1 0x25 DUP4 ADD MSTORE PUSH32 0xFF00000000000000000000000000000000000000000000000000000000000000 DUP1 DUP12 PUSH1 0xF8 SHL AND PUSH1 0x28 DUP5 ADD MSTORE DUP1 DUP11 PUSH1 0xF8 SHL AND PUSH1 0x29 DUP5 ADD MSTORE POP PUSH2 0x40E9 PUSH1 0x2A DUP4 ADD DUP10 PUSH2 0x3E9E JUMP JUMPDEST PUSH2 0x40F6 PUSH1 0x2B DUP4 ADD DUP9 PUSH2 0x3C6F JUMP JUMPDEST PUSH2 0x4103 PUSH1 0x2C DUP4 ADD DUP8 PUSH2 0x3E9E JUMP JUMPDEST PUSH2 0x4110 PUSH1 0x2D DUP4 ADD DUP7 PUSH2 0x3BDA JUMP JUMPDEST PUSH2 0x411D PUSH1 0x41 DUP4 ADD DUP6 PUSH2 0x3BDA JUMP JUMPDEST PUSH2 0x412A PUSH1 0x55 DUP4 ADD DUP5 PUSH2 0x3BDA JUMP JUMPDEST POP PUSH1 0x69 ADD SWAP12 SWAP11 POP POP POP POP POP POP POP POP POP POP POP JUMP JUMPDEST PUSH1 0x0 DUP4 MLOAD PUSH2 0x414F DUP2 DUP5 PUSH1 0x20 DUP9 ADD PUSH2 0x4708 JUMP JUMPDEST PUSH2 0x415B DUP2 DUP5 ADD DUP6 PUSH2 0x3C40 JUMP JUMPDEST SWAP6 SWAP5 POP POP POP POP POP JUMP JUMPDEST PUSH1 0x0 DUP4 MLOAD PUSH2 0x4176 DUP2 DUP5 PUSH1 0x20 DUP9 ADD PUSH2 0x4708 JUMP JUMPDEST SWAP2 SWAP1 SWAP2 ADD SWAP2 DUP3 MSTORE POP PUSH1 0x20 ADD SWAP2 SWAP1 POP JUMP JUMPDEST PUSH1 0x0 DUP7 MLOAD PUSH2 0x4198 DUP2 DUP5 PUSH1 0x20 DUP12 ADD PUSH2 0x4708 JUMP JUMPDEST DUP1 DUP4 ADD SWAP1 POP PUSH32 0xFF00000000000000000000000000000000000000000000000000000000000000 DUP1 DUP9 PUSH1 0xF8 SHL AND DUP3 MSTORE DUP1 DUP8 PUSH1 0xF8 SHL AND PUSH1 0x1 DUP4 ADD MSTORE DUP1 DUP7 PUSH1 0xF8 SHL AND PUSH1 0x2 DUP4 ADD MSTORE POP PUSH2 0x41EA PUSH1 0x3 DUP3 ADD DUP6 PUSH2 0x3C40 JUMP JUMPDEST SWAP9 SWAP8 POP POP POP POP POP POP POP POP JUMP JUMPDEST PUSH1 0x0 DUP3 MLOAD PUSH2 0x4208 DUP2 DUP5 PUSH1 0x20 DUP8 ADD PUSH2 0x4708 JUMP JUMPDEST SWAP2 SWAP1 SWAP2 ADD SWAP3 SWAP2 POP POP JUMP JUMPDEST PUSH1 0x0 PUSH1 0x20 DUP1 DUP4 ADD DUP2 DUP5 MSTORE DUP1 DUP6 MLOAD DUP1 DUP4 MSTORE PUSH1 0x40 DUP7 ADD SWAP2 POP PUSH1 0x40 DUP5 DUP3 MUL DUP8 ADD ADD SWAP3 POP DUP4 DUP8 ADD DUP6 JUMPDEST DUP3 DUP2 LT ISZERO PUSH2 0x4283 JUMPI PUSH32 0xFFFFFFFFFFFFFFFFFFFFFFFFFFFFFFFFFFFFFFFFFFFFFFFFFFFFFFFFFFFFFFC0 DUP9 DUP7 SUB ADD DUP5 MSTORE PUSH2 0x4271 DUP6 DUP4 MLOAD PUSH2 0x3E01 JUMP JUMPDEST SWAP5 POP SWAP3 DUP6 ADD SWAP3 SWAP1 DUP6 ADD SWAP1 PUSH1 0x1 ADD PUSH2 0x4237 JUMP JUMPDEST POP SWAP3 SWAP8 SWAP7 POP POP POP POP POP POP POP JUMP JUMPDEST PUSH1 0x20 DUP1 DUP3 MSTORE DUP3 MLOAD DUP3 DUP3 ADD DUP2 SWAP1 MSTORE PUSH1 0x0 SWAP2 SWAP1 DUP5 DUP3 ADD SWAP1 PUSH1 0x40 DUP6 ADD SWAP1 DUP5 JUMPDEST DUP2 DUP2 LT ISZERO PUSH2 0x42C8 JUMPI DUP4 MLOAD DUP4 MSTORE SWAP3 DUP5 ADD SWAP3 SWAP2 DUP5 ADD SWAP2 PUSH1 0x1 ADD PUSH2 0x42AC JUMP JUMPDEST POP SWAP1 SWAP7 SWAP6 POP POP POP POP POP POP JUMP JUMPDEST SWAP1 DUP2 MSTORE PUSH1 0x20 ADD SWAP1 JUMP JUMPDEST PUSH1 0x0 DUP5 DUP3 MSTORE PUSH5 0xFFFFFFFFFF DUP5 AND PUSH1 0x20 DUP4 ADD MSTORE PUSH1 0x60 PUSH1 0x40 DUP4 ADD MSTORE PUSH2 0x415B PUSH1 0x60 DUP4 ADD DUP5 PUSH2 0x3C79 JUMP JUMPDEST SWAP4 DUP5 MSTORE PUSH1 0xFF SWAP3 SWAP1 SWAP3 AND PUSH1 0x20 DUP5 ADD MSTORE PUSH1 0x40 DUP4 ADD MSTORE PUSH1 0x60 DUP3 ADD MSTORE PUSH1 0x80 ADD SWAP1 JUMP JUMPDEST PUSH1 0x0 PUSH1 0x20 DUP3 MSTORE PUSH2 0x1292 PUSH1 0x20 DUP4 ADD DUP5 PUSH2 0x3C79 JUMP JUMPDEST PUSH1 0x20 DUP1 DUP3 MSTORE PUSH1 0x17 SWAP1 DUP3 ADD MSTORE PUSH32 0x4D61726B6574206E6F742079657420736574746C65642E000000000000000000 PUSH1 0x40 DUP3 ADD MSTORE PUSH1 0x60 ADD SWAP1 JUMP JUMPDEST PUSH1 0x20 DUP1 DUP3 MSTORE PUSH1 0x12 SWAP1 DUP3 ADD MSTORE PUSH32 0x5369676E617475726520696E76616C69642E0000000000000000000000000000 PUSH1 0x40 DUP3 ADD MSTORE PUSH1 0x60 ADD SWAP1 JUMP JUMPDEST PUSH1 0x20 DUP1 DUP3 MSTORE PUSH1 0x15 SWAP1 DUP3 ADD MSTORE PUSH32 0x746F6F2066617220696E20746865206675747572650000000000000000000000 PUSH1 0x40 DUP3 ADD MSTORE PUSH1 0x60 ADD SWAP1 JUMP JUMPDEST PUSH1 0x20 DUP1 DUP3 MSTORE PUSH1 0x1B SWAP1 DUP3 ADD MSTORE PUSH32 0x536166654D6174683A206164646974696F6E206F766572666C6F770000000000 PUSH1 0x40 DUP3 ADD MSTORE PUSH1 0x60 ADD SWAP1 JUMP JUMPDEST PUSH1 0x20 DUP1 DUP3 MSTORE PUSH1 0x21 SWAP1 DUP3 ADD MSTORE PUSH32 0x5369676E6564536166654D6174683A206164646974696F6E206F766572666C6F PUSH1 0x40 DUP3 ADD MSTORE PUSH32 0x7700000000000000000000000000000000000000000000000000000000000000 PUSH1 0x60 DUP3 ADD MSTORE PUSH1 0x80 ADD SWAP1 JUMP JUMPDEST PUSH1 0x20 DUP1 DUP3 MSTORE PUSH1 0x21 SWAP1 DUP3 ADD MSTORE PUSH32 0x536166654D6174683A206D756C7469706C69636174696F6E206F766572666C6F PUSH1 0x40 DUP3 ADD MSTORE PUSH32 0x7700000000000000000000000000000000000000000000000000000000000000 PUSH1 0x60 DUP3 ADD MSTORE PUSH1 0x80 ADD SWAP1 JUMP JUMPDEST PUSH1 0x20 DUP1 DUP3 MSTORE PUSH1 0x27 SWAP1 DUP3 ADD MSTORE PUSH32 0x5369676E6564536166654D6174683A206D756C7469706C69636174696F6E206F PUSH1 0x40 DUP3 ADD MSTORE PUSH32 0x766572666C6F7700000000000000000000000000000000000000000000000000 PUSH1 0x60 DUP3 ADD MSTORE PUSH1 0x80 ADD SWAP1 JUMP JUMPDEST PUSH1 0x20 DUP1 DUP3 MSTORE PUSH1 0x15 SWAP1 DUP3 ADD MSTORE PUSH32 0x4E6F7420656E6F756768206C69717569646974792E0000000000000000000000 PUSH1 0x40 DUP3 ADD MSTORE PUSH1 0x60 ADD SWAP1 JUMP JUMPDEST PUSH1 0x20 DUP1 DUP3 MSTORE PUSH1 0x24 SWAP1 DUP3 ADD MSTORE PUSH32 0x5369676E6564536166654D6174683A207375627472616374696F6E206F766572 PUSH1 0x40 DUP3 ADD MSTORE PUSH32 0x666C6F7700000000000000000000000000000000000000000000000000000000 PUSH1 0x60 DUP3 ADD MSTORE PUSH1 0x80 ADD SWAP1 JUMP JUMPDEST PUSH1 0x0 PUSH1 0x20 DUP3 MSTORE PUSH2 0x1292 PUSH1 0x20 DUP4 ADD DUP5 PUSH2 0x3CC3 JUMP JUMPDEST PUSH1 0x0 PUSH1 0x20 DUP3 MSTORE PUSH2 0x1292 PUSH1 0x20 DUP4 ADD DUP5 PUSH2 0x3E01 JUMP JUMPDEST PUSH1 0x0 PUSH1 0x60 DUP3 ADD DUP6 DUP4 MSTORE PUSH1 0x20 PUSH1 0x60 DUP2 DUP6 ADD MSTORE DUP2 DUP7 MLOAD DUP1 DUP5 MSTORE PUSH1 0x80 DUP7 ADD SWAP2 POP DUP3 DUP9 ADD SWAP4 POP DUP5 JUMPDEST DUP2 DUP2 LT ISZERO PUSH2 0x4632 JUMPI DUP5 MLOAD DUP1 MLOAD PUSH1 0xF SIGNEXTEND DUP5 MSTORE DUP5 ADD MLOAD PUSH1 0xFF AND DUP5 DUP5 ADD MSTORE SWAP4 DUP4 ADD SWAP4 PUSH1 0x40 SWAP1 SWAP3 ADD SWAP2 PUSH1 0x1 ADD PUSH2 0x4605 JUMP JUMPDEST POP POP DUP1 SWAP4 POP POP POP POP PUSH2 0x4643 DUP4 PUSH2 0x46FD JUMP JUMPDEST PUSH1 0x40 DUP4 ADD MSTORE SWAP5 SWAP4 POP POP POP POP JUMP JUMPDEST SWAP5 DUP6 MSTORE PUSH1 0x20 DUP6 ADD SWAP4 SWAP1 SWAP4 MSTORE PUSH1 0x40 DUP5 ADD SWAP2 SWAP1 SWAP2 MSTORE PUSH1 0x60 DUP4 ADD MSTORE PUSH1 0x80 DUP3 ADD MSTORE PUSH1 0xA0 ADD SWAP1 JUMP JUMPDEST SWAP2 DUP3 MSTORE PUSH1 0x20 DUP3 ADD MSTORE PUSH1 0x40 ADD SWAP1 JUMP JUMPDEST SWAP5 DUP6 MSTORE PUSH2 0xFFFF SWAP4 SWAP1 SWAP4 AND PUSH1 0x20 DUP6 ADD MSTORE PUSH1 0x40 DUP5 ADD SWAP2 SWAP1 SWAP2 MSTORE PUSH1 0x60 DUP4 ADD MSTORE PUSH1 0x80 DUP3 ADD MSTORE PUSH1 0xA0 ADD SWAP1 JUMP JUMPDEST PUSH1 0xFF SWAP2 SWAP1 SWAP2 AND DUP2 MSTORE PUSH1 0x20 ADD SWAP1 JUMP JUMPDEST PUSH1 0x40 MLOAD DUP2 DUP2 ADD PUSH8 0xFFFFFFFFFFFFFFFF DUP2 GT DUP3 DUP3 LT OR ISZERO PUSH2 0x46D5 JUMPI PUSH1 0x0 DUP1 REVERT JUMPDEST PUSH1 0x40 MSTORE SWAP2 SWAP1 POP JUMP JUMPDEST PUSH1 0x0 PUSH8 0xFFFFFFFFFFFFFFFF DUP3 GT ISZERO PUSH2 0x46F3 JUMPI DUP1 DUP2 REVERT JUMPDEST POP PUSH1 0x20 SWAP1 DUP2 MUL ADD SWAP1 JUMP JUMPDEST DUP1 PUSH1 0x3 DUP2 LT PUSH2 0x63B JUMPI INVALID JUMPDEST PUSH1 0x0 JUMPDEST DUP4 DUP2 LT ISZERO PUSH2 0x4723 JUMPI DUP2 DUP2 ADD MLOAD DUP4 DUP3 ADD MSTORE PUSH1 0x20 ADD PUSH2 0x470B JUMP JUMPDEST DUP4 DUP2 GT ISZERO PUSH2 0x1F99 JUMPI POP POP PUSH1 0x0 SWAP2 ADD MSTORE JUMP INVALID STOP STOP STOP STOP STOP STOP STOP STOP STOP STATICCALL PUSH30 0x3B53800000000A8C0000000001FA40000000001C200000000000 STOP LOG2 PUSH5 0x6970667358 0x22 SLT KECCAK256 EQ 0xE6 RETURN BYTE 0xC4 0xDC PUSH26 0x158764B07F0A68BF573CBD461370C3A2A9CF0C99325D0FFF7264 PUSH20 0x6F6C634300070000330000000000000000000000 "
			}
		}
	},
	"sourceTreeHashHex": "0xdfe029c8c867fd9eb90d4d1f22674a233eaf3e296c2e16cd2c72866becc3a88f",
	"compiler": {
		"name": "solc",
		"version": "0.7.0+commit.9e61f92b",
		"settings": {
			"remappings": [
				"factsigner=/home/ulf/digioptions/digioptions-contracts.js/node_modules/factsigner",
				"@openzeppelin/contracts=/home/ulf/digioptions/digioptions-contracts.js/node_modules/@openzeppelin/contracts"
			],
			"optimizer": {
				"enabled": true,
				"runs": 20000,
				"details": {
					"yul": true,
					"deduplicate": true,
					"cse": true,
					"constantOptimizer": true
				}
			},
			"outputSelection": {
				"*": {
					"*": [
						"abi",
						"evm.bytecode.object",
						"evm.bytecode.sourceMap",
						"evm.deployedBytecode.object",
						"evm.deployedBytecode.sourceMap"
					]
				}
			}
		}
	},
	"chains": {}
}