{
	"schemaVersion": "2.0.0",
	"contractName": "DigiOptionsMeta",
	"compilerOutput": {
		"abi": [
			{
				"inputs": [
					{
						"components": [
							{
								"internalType": "contract DigiOptionsMarkets",
								"name": "digiOptionsMarkets",
								"type": "address"
							},
							{
								"components": [
									{
										"internalType": "string",
										"name": "underlyingString",
										"type": "string"
									},
									{
										"internalType": "uint40",
										"name": "expirationDatetime",
										"type": "uint40"
									},
									{
										"internalType": "uint24",
										"name": "objectionPeriod",
										"type": "uint24"
									},
									{
										"internalType": "uint8",
										"name": "config",
										"type": "uint8"
									},
									{
										"internalType": "uint8",
										"name": "marketCategory",
										"type": "uint8"
									},
									{
										"internalType": "uint8",
										"name": "baseUnitExp",
										"type": "uint8"
									},
									{
										"internalType": "int8",
										"name": "ndigit",
										"type": "int8"
									},
									{
										"internalType": "address",
										"name": "signerAddr",
										"type": "address"
									},
									{
										"internalType": "uint8",
										"name": "marketInterval",
										"type": "uint8"
									},
									{
										"internalType": "uint8",
										"name": "transactionFee0",
										"type": "uint8"
									},
									{
										"internalType": "uint8",
										"name": "transactionFee1",
										"type": "uint8"
									},
									{
										"internalType": "uint8",
										"name": "transactionFeeSigner",
										"type": "uint8"
									},
									{
										"internalType": "address",
										"name": "feeTaker0",
										"type": "address"
									},
									{
										"internalType": "address",
										"name": "feeTaker1",
										"type": "address"
									},
									{
										"internalType": "int128[]",
										"name": "strikes",
										"type": "int128[]"
									}
								],
								"internalType": "struct DigiOptionsLib.MarketBaseData",
								"name": "marketBaseData",
								"type": "tuple"
							},
							{
								"internalType": "bool",
								"name": "testMarket",
								"type": "bool"
							},
							{
								"components": [
									{
										"internalType": "uint8",
										"name": "v",
										"type": "uint8"
									},
									{
										"internalType": "bytes32",
										"name": "r",
										"type": "bytes32"
									},
									{
										"internalType": "bytes32",
										"name": "s",
										"type": "bytes32"
									}
								],
								"internalType": "struct FactsignerVerify.Signature",
								"name": "signature",
								"type": "tuple"
							}
						],
						"internalType": "struct DigiOptionsMeta.CreateAndRegisterData[]",
						"name": "createAndRegisterDataList",
						"type": "tuple[]"
					},
					{
						"components": [
							{
								"internalType": "contract DigiOptionsMarkets",
								"name": "digiOptionsMarkets",
								"type": "address"
							},
							{
								"internalType": "bytes32",
								"name": "marketHash",
								"type": "bytes32"
							},
							{
								"components": [
									{
										"internalType": "uint8",
										"name": "v",
										"type": "uint8"
									},
									{
										"internalType": "bytes32",
										"name": "r",
										"type": "bytes32"
									},
									{
										"internalType": "bytes32",
										"name": "s",
										"type": "bytes32"
									}
								],
								"internalType": "struct FactsignerVerify.Signature",
								"name": "signature",
								"type": "tuple"
							},
							{
								"internalType": "int256",
								"name": "value",
								"type": "int256"
							},
							{
								"internalType": "address[]",
								"name": "users",
								"type": "address[]"
							},
							{
								"internalType": "bytes32[]",
								"name": "offerHash",
								"type": "bytes32[]"
							}
						],
						"internalType": "struct DigiOptionsMeta.SettlementData[]",
						"name": "settlementDataList",
						"type": "tuple[]"
					}
				],
				"name": "createRegisterAndSettlement",
				"outputs": [],
				"stateMutability": "nonpayable",
				"type": "function"
			}
		],
		"evm": {
			"bytecode": {
				"linkReferences": {},
				"object": "0x608060405234801561001057600080fd5b50610d55806100206000396000f3fe608060405234801561001057600080fd5b506004361061002b5760003560e01c8063da571e0414610030575b600080fd5b61004361003e366004610814565b610045565b005b60005b8251811015610118576100596101e0565b83828151811061006557fe5b60200260200101519050806000015173ffffffffffffffffffffffffffffffffffffffff16632556d8d08260200151836040015184606001516040518463ffffffff1660e01b81526004016100bc93929190610b25565b602060405180830381600087803b1580156100d657600080fd5b505af11580156100ea573d6000803e3d6000fd5b505050506040513d601f19601f8201168201806040525081019061010e919061095a565b5050600101610048565b5060005b81518110156101db5761012d610229565b82828151811061013957fe5b60200260200101519050806000015173ffffffffffffffffffffffffffffffffffffffff1663a1aa12b282602001518360400151846060015185608001518660a001516040518663ffffffff1660e01b815260040161019c959493929190610a76565b600060405180830381600087803b1580156101b657600080fd5b505af11580156101ca573d6000803e3d6000fd5b50506001909301925061011c915050565b505050565b6040518060800160405280600073ffffffffffffffffffffffffffffffffffffffff168152602001610210610263565b8152600060208201526040016102246102e1565b905290565b6040805160c081018252600080825260208201529081016102486102e1565b81526020016000815260200160608152602001606081525090565b604080516101e08101825260608082526000602083018190529282018390528082018390526080820183905260a0820183905260c0820183905260e08201839052610100820183905261012082018390526101408201839052610160820183905261018082018390526101a08201929092526101c081019190915290565b604080516060810182526000808252602082018190529181019190915290565b803561030c81610cfa565b919050565b600082601f830112610321578081fd5b813561033461032f82610cdc565b610cb8565b81815291506020808301908481018184028601820187101561035557600080fd5b60005b8481101561037d57813561036b81610cfa565b84529282019290820190600101610358565b505050505092915050565b600082601f830112610398578081fd5b81356103a661032f82610cdc565b8181529150602080830190848101818402860182018710156103c757600080fd5b60005b8481101561037d578135845292820192908201906001016103ca565b600082601f8301126103f6578081fd5b813561040461032f82610cdc565b81815291506020808301908481018184028601820187101561042557600080fd5b6000805b8581101561045357823580600f0b8114610441578283fd5b85529383019391830191600101610429565b50505050505092915050565b600082601f83011261046f578081fd5b813561047d61032f82610cdc565b818152915060208083019084810160005b8481101561037d5781358701610100807fffffffffffffffffffffffffffffffffffffffffffffffffffffffffffffffe0838c030112156104ce57600080fd5b60c06104d981610cb8565b6104e4878501610301565b81526040808501358883015260606104fe8e828801610781565b828401528386013581840152505060e0840135915067ffffffffffffffff8083111561052957600080fd5b6105378d8985880101610311565b608083015292840135928084111561054e57600080fd5b5061055d8c8885870101610388565b60a08201528752505050928201929082019060010161048e565b8035801515811461030c57600080fd5b8035600081900b811461030c57600080fd5b600082601f8301126105a9578081fd5b813567ffffffffffffffff8111156105bd57fe5b6105ee60207fffffffffffffffffffffffffffffffffffffffffffffffffffffffffffffffe0601f84011601610cb8565b915080825283602082850101111561060557600080fd5b8060208401602084013760009082016020015292915050565b60006101e0808385031215610631578182fd5b61063a81610cb8565b915050813567ffffffffffffffff8082111561065557600080fd5b61066185838601610599565b835261066f602085016107ee565b6020840152610680604085016107db565b604084015261069160608501610803565b60608401526106a260808501610803565b60808401526106b360a08501610803565b60a08401526106c460c08501610587565b60c08401526106d560e08501610301565b60e084015261010091506106ea828501610803565b8284015261012091506106fe828501610803565b828401526101409150610712828501610803565b828401526101609150610726828501610803565b82840152610180915061073a828501610301565b828401526101a0915061074e828501610301565b828401526101c09150818401358181111561076857600080fd5b610774868287016103e6565b8385015250505092915050565b600060608284031215610792578081fd5b6040516060810181811067ffffffffffffffff821117156107af57fe5b6040529050806107be83610803565b815260208301356020820152604083013560408201525092915050565b803562ffffff8116811461030c57600080fd5b803564ffffffffff8116811461030c57600080fd5b803560ff8116811461030c57600080fd5b60008060408385031215610826578182fd5b823567ffffffffffffffff8082111561083d578384fd5b818501915085601f830112610850578384fd5b813561085e61032f82610cdc565b81815260208082019190858101885b8581101561092b578135880160c07fffffffffffffffffffffffffffffffffffffffffffffffffffffffffffffffe0828f030112156108aa578a8bfd5b604051608081018181108a821117156108bf57fe5b604052818501356108cf81610cfa565b81526040820135898111156108e2578c8dfd5b6108f08f878386010161061e565b868301525061090160608301610577565b60408201526109138e60808401610781565b6060820152865250938201939082019060010161086d565b50919750880135945050505080821115610943578283fd5b506109508582860161045f565b9150509250929050565b60006020828403121561096b578081fd5b5051919050565b73ffffffffffffffffffffffffffffffffffffffff169052565b6000815180845260208085019450808401835b838110156109be578151600f0b8752958201959082019060010161099f565b509495945050505050565b15159052565b60000b9052565b60008151808452815b818110156109fb576020818501810151868301820152016109df565b81811115610a0c5782602083870101525b50601f017fffffffffffffffffffffffffffffffffffffffffffffffffffffffffffffffe0169290920160200192915050565b805160ff16825260208082015190830152604090810151910152565b62ffffff169052565b64ffffffffff169052565b60ff169052565b600060e082018783526020610a8d81850189610a3f565b6080840187905260e060a085015285519182905280860191610100850190845b81811015610adf57845173ffffffffffffffffffffffffffffffffffffffff1683529383019391830191600101610aad565b505084810360c08601528551808252908201925081860190845b81811015610b1557825185529383019391830191600101610af9565b50929a9950505050505050505050565b600060a0825284516101e08060a0850152610b446102808501836109d6565b91506020870151610b5860c0860182610a64565b506040870151610b6b60e0860182610a5b565b506060870151610100610b8081870183610a6f565b60808901519150610120610b9681880184610a6f565b60a08a01519250610140610bac81890185610a6f565b60c08b01519350610160610bc2818a01866109cf565b60e08c01519450610180610bd8818b0187610972565b938c015194506101a093610bee8a860187610a6f565b928c015194506101c092610c048a850187610a6f565b828d01519550610c16878b0187610a6f565b818d01519650610c2a6102008b0188610a6f565b8c01519550610c40915050610220880185610972565b818a01519350610c54610240880185610972565b808a015193505050507fffffffffffffffffffffffffffffffffffffffffffffffffffffffffffffff6084830301610260850152610c92828261098c565b92505050610ca360208301856109c9565b610cb06040830184610a3f565b949350505050565b60405181810167ffffffffffffffff81118282101715610cd457fe5b604052919050565b600067ffffffffffffffff821115610cf057fe5b5060209081020190565b73ffffffffffffffffffffffffffffffffffffffff81168114610d1c57600080fd5b5056fea264697066735822122033e951b24800c72fe4977b327fb83ac428fb2084d9384686e4cac0f01240776f64736f6c63430007040033",
				"opcodes": "PUSH1 0x80 PUSH1 0x40 MSTORE CALLVALUE DUP1 ISZERO PUSH2 0x10 JUMPI PUSH1 0x0 DUP1 REVERT JUMPDEST POP PUSH2 0xD55 DUP1 PUSH2 0x20 PUSH1 0x0 CODECOPY PUSH1 0x0 RETURN INVALID PUSH1 0x80 PUSH1 0x40 MSTORE CALLVALUE DUP1 ISZERO PUSH2 0x10 JUMPI PUSH1 0x0 DUP1 REVERT JUMPDEST POP PUSH1 0x4 CALLDATASIZE LT PUSH2 0x2B JUMPI PUSH1 0x0 CALLDATALOAD PUSH1 0xE0 SHR DUP1 PUSH4 0xDA571E04 EQ PUSH2 0x30 JUMPI JUMPDEST PUSH1 0x0 DUP1 REVERT JUMPDEST PUSH2 0x43 PUSH2 0x3E CALLDATASIZE PUSH1 0x4 PUSH2 0x814 JUMP JUMPDEST PUSH2 0x45 JUMP JUMPDEST STOP JUMPDEST PUSH1 0x0 JUMPDEST DUP3 MLOAD DUP2 LT ISZERO PUSH2 0x118 JUMPI PUSH2 0x59 PUSH2 0x1E0 JUMP JUMPDEST DUP4 DUP3 DUP2 MLOAD DUP2 LT PUSH2 0x65 JUMPI INVALID JUMPDEST PUSH1 0x20 MUL PUSH1 0x20 ADD ADD MLOAD SWAP1 POP DUP1 PUSH1 0x0 ADD MLOAD PUSH20 0xFFFFFFFFFFFFFFFFFFFFFFFFFFFFFFFFFFFFFFFF AND PUSH4 0x2556D8D0 DUP3 PUSH1 0x20 ADD MLOAD DUP4 PUSH1 0x40 ADD MLOAD DUP5 PUSH1 0x60 ADD MLOAD PUSH1 0x40 MLOAD DUP5 PUSH4 0xFFFFFFFF AND PUSH1 0xE0 SHL DUP2 MSTORE PUSH1 0x4 ADD PUSH2 0xBC SWAP4 SWAP3 SWAP2 SWAP1 PUSH2 0xB25 JUMP JUMPDEST PUSH1 0x20 PUSH1 0x40 MLOAD DUP1 DUP4 SUB DUP2 PUSH1 0x0 DUP8 DUP1 EXTCODESIZE ISZERO DUP1 ISZERO PUSH2 0xD6 JUMPI PUSH1 0x0 DUP1 REVERT JUMPDEST POP GAS CALL ISZERO DUP1 ISZERO PUSH2 0xEA JUMPI RETURNDATASIZE PUSH1 0x0 DUP1 RETURNDATACOPY RETURNDATASIZE PUSH1 0x0 REVERT JUMPDEST POP POP POP POP PUSH1 0x40 MLOAD RETURNDATASIZE PUSH1 0x1F NOT PUSH1 0x1F DUP3 ADD AND DUP3 ADD DUP1 PUSH1 0x40 MSTORE POP DUP2 ADD SWAP1 PUSH2 0x10E SWAP2 SWAP1 PUSH2 0x95A JUMP JUMPDEST POP POP PUSH1 0x1 ADD PUSH2 0x48 JUMP JUMPDEST POP PUSH1 0x0 JUMPDEST DUP2 MLOAD DUP2 LT ISZERO PUSH2 0x1DB JUMPI PUSH2 0x12D PUSH2 0x229 JUMP JUMPDEST DUP3 DUP3 DUP2 MLOAD DUP2 LT PUSH2 0x139 JUMPI INVALID JUMPDEST PUSH1 0x20 MUL PUSH1 0x20 ADD ADD MLOAD SWAP1 POP DUP1 PUSH1 0x0 ADD MLOAD PUSH20 0xFFFFFFFFFFFFFFFFFFFFFFFFFFFFFFFFFFFFFFFF AND PUSH4 0xA1AA12B2 DUP3 PUSH1 0x20 ADD MLOAD DUP4 PUSH1 0x40 ADD MLOAD DUP5 PUSH1 0x60 ADD MLOAD DUP6 PUSH1 0x80 ADD MLOAD DUP7 PUSH1 0xA0 ADD MLOAD PUSH1 0x40 MLOAD DUP7 PUSH4 0xFFFFFFFF AND PUSH1 0xE0 SHL DUP2 MSTORE PUSH1 0x4 ADD PUSH2 0x19C SWAP6 SWAP5 SWAP4 SWAP3 SWAP2 SWAP1 PUSH2 0xA76 JUMP JUMPDEST PUSH1 0x0 PUSH1 0x40 MLOAD DUP1 DUP4 SUB DUP2 PUSH1 0x0 DUP8 DUP1 EXTCODESIZE ISZERO DUP1 ISZERO PUSH2 0x1B6 JUMPI PUSH1 0x0 DUP1 REVERT JUMPDEST POP GAS CALL ISZERO DUP1 ISZERO PUSH2 0x1CA JUMPI RETURNDATASIZE PUSH1 0x0 DUP1 RETURNDATACOPY RETURNDATASIZE PUSH1 0x0 REVERT JUMPDEST POP POP PUSH1 0x1 SWAP1 SWAP4 ADD SWAP3 POP PUSH2 0x11C SWAP2 POP POP JUMP JUMPDEST POP POP POP JUMP JUMPDEST PUSH1 0x40 MLOAD DUP1 PUSH1 0x80 ADD PUSH1 0x40 MSTORE DUP1 PUSH1 0x0 PUSH20 0xFFFFFFFFFFFFFFFFFFFFFFFFFFFFFFFFFFFFFFFF AND DUP2 MSTORE PUSH1 0x20 ADD PUSH2 0x210 PUSH2 0x263 JUMP JUMPDEST DUP2 MSTORE PUSH1 0x0 PUSH1 0x20 DUP3 ADD MSTORE PUSH1 0x40 ADD PUSH2 0x224 PUSH2 0x2E1 JUMP JUMPDEST SWAP1 MSTORE SWAP1 JUMP JUMPDEST PUSH1 0x40 DUP1 MLOAD PUSH1 0xC0 DUP2 ADD DUP3 MSTORE PUSH1 0x0 DUP1 DUP3 MSTORE PUSH1 0x20 DUP3 ADD MSTORE SWAP1 DUP2 ADD PUSH2 0x248 PUSH2 0x2E1 JUMP JUMPDEST DUP2 MSTORE PUSH1 0x20 ADD PUSH1 0x0 DUP2 MSTORE PUSH1 0x20 ADD PUSH1 0x60 DUP2 MSTORE PUSH1 0x20 ADD PUSH1 0x60 DUP2 MSTORE POP SWAP1 JUMP JUMPDEST PUSH1 0x40 DUP1 MLOAD PUSH2 0x1E0 DUP2 ADD DUP3 MSTORE PUSH1 0x60 DUP1 DUP3 MSTORE PUSH1 0x0 PUSH1 0x20 DUP4 ADD DUP2 SWAP1 MSTORE SWAP3 DUP3 ADD DUP4 SWAP1 MSTORE DUP1 DUP3 ADD DUP4 SWAP1 MSTORE PUSH1 0x80 DUP3 ADD DUP4 SWAP1 MSTORE PUSH1 0xA0 DUP3 ADD DUP4 SWAP1 MSTORE PUSH1 0xC0 DUP3 ADD DUP4 SWAP1 MSTORE PUSH1 0xE0 DUP3 ADD DUP4 SWAP1 MSTORE PUSH2 0x100 DUP3 ADD DUP4 SWAP1 MSTORE PUSH2 0x120 DUP3 ADD DUP4 SWAP1 MSTORE PUSH2 0x140 DUP3 ADD DUP4 SWAP1 MSTORE PUSH2 0x160 DUP3 ADD DUP4 SWAP1 MSTORE PUSH2 0x180 DUP3 ADD DUP4 SWAP1 MSTORE PUSH2 0x1A0 DUP3 ADD SWAP3 SWAP1 SWAP3 MSTORE PUSH2 0x1C0 DUP2 ADD SWAP2 SWAP1 SWAP2 MSTORE SWAP1 JUMP JUMPDEST PUSH1 0x40 DUP1 MLOAD PUSH1 0x60 DUP2 ADD DUP3 MSTORE PUSH1 0x0 DUP1 DUP3 MSTORE PUSH1 0x20 DUP3 ADD DUP2 SWAP1 MSTORE SWAP2 DUP2 ADD SWAP2 SWAP1 SWAP2 MSTORE SWAP1 JUMP JUMPDEST DUP1 CALLDATALOAD PUSH2 0x30C DUP2 PUSH2 0xCFA JUMP JUMPDEST SWAP2 SWAP1 POP JUMP JUMPDEST PUSH1 0x0 DUP3 PUSH1 0x1F DUP4 ADD SLT PUSH2 0x321 JUMPI DUP1 DUP2 REVERT JUMPDEST DUP2 CALLDATALOAD PUSH2 0x334 PUSH2 0x32F DUP3 PUSH2 0xCDC JUMP JUMPDEST PUSH2 0xCB8 JUMP JUMPDEST DUP2 DUP2 MSTORE SWAP2 POP PUSH1 0x20 DUP1 DUP4 ADD SWAP1 DUP5 DUP2 ADD DUP2 DUP5 MUL DUP7 ADD DUP3 ADD DUP8 LT ISZERO PUSH2 0x355 JUMPI PUSH1 0x0 DUP1 REVERT JUMPDEST PUSH1 0x0 JUMPDEST DUP5 DUP2 LT ISZERO PUSH2 0x37D JUMPI DUP2 CALLDATALOAD PUSH2 0x36B DUP2 PUSH2 0xCFA JUMP JUMPDEST DUP5 MSTORE SWAP3 DUP3 ADD SWAP3 SWAP1 DUP3 ADD SWAP1 PUSH1 0x1 ADD PUSH2 0x358 JUMP JUMPDEST POP POP POP POP POP SWAP3 SWAP2 POP POP JUMP JUMPDEST PUSH1 0x0 DUP3 PUSH1 0x1F DUP4 ADD SLT PUSH2 0x398 JUMPI DUP1 DUP2 REVERT JUMPDEST DUP2 CALLDATALOAD PUSH2 0x3A6 PUSH2 0x32F DUP3 PUSH2 0xCDC JUMP JUMPDEST DUP2 DUP2 MSTORE SWAP2 POP PUSH1 0x20 DUP1 DUP4 ADD SWAP1 DUP5 DUP2 ADD DUP2 DUP5 MUL DUP7 ADD DUP3 ADD DUP8 LT ISZERO PUSH2 0x3C7 JUMPI PUSH1 0x0 DUP1 REVERT JUMPDEST PUSH1 0x0 JUMPDEST DUP5 DUP2 LT ISZERO PUSH2 0x37D JUMPI DUP2 CALLDATALOAD DUP5 MSTORE SWAP3 DUP3 ADD SWAP3 SWAP1 DUP3 ADD SWAP1 PUSH1 0x1 ADD PUSH2 0x3CA JUMP JUMPDEST PUSH1 0x0 DUP3 PUSH1 0x1F DUP4 ADD SLT PUSH2 0x3F6 JUMPI DUP1 DUP2 REVERT JUMPDEST DUP2 CALLDATALOAD PUSH2 0x404 PUSH2 0x32F DUP3 PUSH2 0xCDC JUMP JUMPDEST DUP2 DUP2 MSTORE SWAP2 POP PUSH1 0x20 DUP1 DUP4 ADD SWAP1 DUP5 DUP2 ADD DUP2 DUP5 MUL DUP7 ADD DUP3 ADD DUP8 LT ISZERO PUSH2 0x425 JUMPI PUSH1 0x0 DUP1 REVERT JUMPDEST PUSH1 0x0 DUP1 JUMPDEST DUP6 DUP2 LT ISZERO PUSH2 0x453 JUMPI DUP3 CALLDATALOAD DUP1 PUSH1 0xF SIGNEXTEND DUP2 EQ PUSH2 0x441 JUMPI DUP3 DUP4 REVERT JUMPDEST DUP6 MSTORE SWAP4 DUP4 ADD SWAP4 SWAP2 DUP4 ADD SWAP2 PUSH1 0x1 ADD PUSH2 0x429 JUMP JUMPDEST POP POP POP POP POP POP SWAP3 SWAP2 POP POP JUMP JUMPDEST PUSH1 0x0 DUP3 PUSH1 0x1F DUP4 ADD SLT PUSH2 0x46F JUMPI DUP1 DUP2 REVERT JUMPDEST DUP2 CALLDATALOAD PUSH2 0x47D PUSH2 0x32F DUP3 PUSH2 0xCDC JUMP JUMPDEST DUP2 DUP2 MSTORE SWAP2 POP PUSH1 0x20 DUP1 DUP4 ADD SWAP1 DUP5 DUP2 ADD PUSH1 0x0 JUMPDEST DUP5 DUP2 LT ISZERO PUSH2 0x37D JUMPI DUP2 CALLDATALOAD DUP8 ADD PUSH2 0x100 DUP1 PUSH32 0xFFFFFFFFFFFFFFFFFFFFFFFFFFFFFFFFFFFFFFFFFFFFFFFFFFFFFFFFFFFFFFE0 DUP4 DUP13 SUB ADD SLT ISZERO PUSH2 0x4CE JUMPI PUSH1 0x0 DUP1 REVERT JUMPDEST PUSH1 0xC0 PUSH2 0x4D9 DUP2 PUSH2 0xCB8 JUMP JUMPDEST PUSH2 0x4E4 DUP8 DUP6 ADD PUSH2 0x301 JUMP JUMPDEST DUP2 MSTORE PUSH1 0x40 DUP1 DUP6 ADD CALLDATALOAD DUP9 DUP4 ADD MSTORE PUSH1 0x60 PUSH2 0x4FE DUP15 DUP3 DUP9 ADD PUSH2 0x781 JUMP JUMPDEST DUP3 DUP5 ADD MSTORE DUP4 DUP7 ADD CALLDATALOAD DUP2 DUP5 ADD MSTORE POP POP PUSH1 0xE0 DUP5 ADD CALLDATALOAD SWAP2 POP PUSH8 0xFFFFFFFFFFFFFFFF DUP1 DUP4 GT ISZERO PUSH2 0x529 JUMPI PUSH1 0x0 DUP1 REVERT JUMPDEST PUSH2 0x537 DUP14 DUP10 DUP6 DUP9 ADD ADD PUSH2 0x311 JUMP JUMPDEST PUSH1 0x80 DUP4 ADD MSTORE SWAP3 DUP5 ADD CALLDATALOAD SWAP3 DUP1 DUP5 GT ISZERO PUSH2 0x54E JUMPI PUSH1 0x0 DUP1 REVERT JUMPDEST POP PUSH2 0x55D DUP13 DUP9 DUP6 DUP8 ADD ADD PUSH2 0x388 JUMP JUMPDEST PUSH1 0xA0 DUP3 ADD MSTORE DUP8 MSTORE POP POP POP SWAP3 DUP3 ADD SWAP3 SWAP1 DUP3 ADD SWAP1 PUSH1 0x1 ADD PUSH2 0x48E JUMP JUMPDEST DUP1 CALLDATALOAD DUP1 ISZERO ISZERO DUP2 EQ PUSH2 0x30C JUMPI PUSH1 0x0 DUP1 REVERT JUMPDEST DUP1 CALLDATALOAD PUSH1 0x0 DUP2 SWAP1 SIGNEXTEND DUP2 EQ PUSH2 0x30C JUMPI PUSH1 0x0 DUP1 REVERT JUMPDEST PUSH1 0x0 DUP3 PUSH1 0x1F DUP4 ADD SLT PUSH2 0x5A9 JUMPI DUP1 DUP2 REVERT JUMPDEST DUP2 CALLDATALOAD PUSH8 0xFFFFFFFFFFFFFFFF DUP2 GT ISZERO PUSH2 0x5BD JUMPI INVALID JUMPDEST PUSH2 0x5EE PUSH1 0x20 PUSH32 0xFFFFFFFFFFFFFFFFFFFFFFFFFFFFFFFFFFFFFFFFFFFFFFFFFFFFFFFFFFFFFFE0 PUSH1 0x1F DUP5 ADD AND ADD PUSH2 0xCB8 JUMP JUMPDEST SWAP2 POP DUP1 DUP3 MSTORE DUP4 PUSH1 0x20 DUP3 DUP6 ADD ADD GT ISZERO PUSH2 0x605 JUMPI PUSH1 0x0 DUP1 REVERT JUMPDEST DUP1 PUSH1 0x20 DUP5 ADD PUSH1 0x20 DUP5 ADD CALLDATACOPY PUSH1 0x0 SWAP1 DUP3 ADD PUSH1 0x20 ADD MSTORE SWAP3 SWAP2 POP POP JUMP JUMPDEST PUSH1 0x0 PUSH2 0x1E0 DUP1 DUP4 DUP6 SUB SLT ISZERO PUSH2 0x631 JUMPI DUP2 DUP3 REVERT JUMPDEST PUSH2 0x63A DUP2 PUSH2 0xCB8 JUMP JUMPDEST SWAP2 POP POP DUP2 CALLDATALOAD PUSH8 0xFFFFFFFFFFFFFFFF DUP1 DUP3 GT ISZERO PUSH2 0x655 JUMPI PUSH1 0x0 DUP1 REVERT JUMPDEST PUSH2 0x661 DUP6 DUP4 DUP7 ADD PUSH2 0x599 JUMP JUMPDEST DUP4 MSTORE PUSH2 0x66F PUSH1 0x20 DUP6 ADD PUSH2 0x7EE JUMP JUMPDEST PUSH1 0x20 DUP5 ADD MSTORE PUSH2 0x680 PUSH1 0x40 DUP6 ADD PUSH2 0x7DB JUMP JUMPDEST PUSH1 0x40 DUP5 ADD MSTORE PUSH2 0x691 PUSH1 0x60 DUP6 ADD PUSH2 0x803 JUMP JUMPDEST PUSH1 0x60 DUP5 ADD MSTORE PUSH2 0x6A2 PUSH1 0x80 DUP6 ADD PUSH2 0x803 JUMP JUMPDEST PUSH1 0x80 DUP5 ADD MSTORE PUSH2 0x6B3 PUSH1 0xA0 DUP6 ADD PUSH2 0x803 JUMP JUMPDEST PUSH1 0xA0 DUP5 ADD MSTORE PUSH2 0x6C4 PUSH1 0xC0 DUP6 ADD PUSH2 0x587 JUMP JUMPDEST PUSH1 0xC0 DUP5 ADD MSTORE PUSH2 0x6D5 PUSH1 0xE0 DUP6 ADD PUSH2 0x301 JUMP JUMPDEST PUSH1 0xE0 DUP5 ADD MSTORE PUSH2 0x100 SWAP2 POP PUSH2 0x6EA DUP3 DUP6 ADD PUSH2 0x803 JUMP JUMPDEST DUP3 DUP5 ADD MSTORE PUSH2 0x120 SWAP2 POP PUSH2 0x6FE DUP3 DUP6 ADD PUSH2 0x803 JUMP JUMPDEST DUP3 DUP5 ADD MSTORE PUSH2 0x140 SWAP2 POP PUSH2 0x712 DUP3 DUP6 ADD PUSH2 0x803 JUMP JUMPDEST DUP3 DUP5 ADD MSTORE PUSH2 0x160 SWAP2 POP PUSH2 0x726 DUP3 DUP6 ADD PUSH2 0x803 JUMP JUMPDEST DUP3 DUP5 ADD MSTORE PUSH2 0x180 SWAP2 POP PUSH2 0x73A DUP3 DUP6 ADD PUSH2 0x301 JUMP JUMPDEST DUP3 DUP5 ADD MSTORE PUSH2 0x1A0 SWAP2 POP PUSH2 0x74E DUP3 DUP6 ADD PUSH2 0x301 JUMP JUMPDEST DUP3 DUP5 ADD MSTORE PUSH2 0x1C0 SWAP2 POP DUP2 DUP5 ADD CALLDATALOAD DUP2 DUP2 GT ISZERO PUSH2 0x768 JUMPI PUSH1 0x0 DUP1 REVERT JUMPDEST PUSH2 0x774 DUP7 DUP3 DUP8 ADD PUSH2 0x3E6 JUMP JUMPDEST DUP4 DUP6 ADD MSTORE POP POP POP SWAP3 SWAP2 POP POP JUMP JUMPDEST PUSH1 0x0 PUSH1 0x60 DUP3 DUP5 SUB SLT ISZERO PUSH2 0x792 JUMPI DUP1 DUP2 REVERT JUMPDEST PUSH1 0x40 MLOAD PUSH1 0x60 DUP2 ADD DUP2 DUP2 LT PUSH8 0xFFFFFFFFFFFFFFFF DUP3 GT OR ISZERO PUSH2 0x7AF JUMPI INVALID JUMPDEST PUSH1 0x40 MSTORE SWAP1 POP DUP1 PUSH2 0x7BE DUP4 PUSH2 0x803 JUMP JUMPDEST DUP2 MSTORE PUSH1 0x20 DUP4 ADD CALLDATALOAD PUSH1 0x20 DUP3 ADD MSTORE PUSH1 0x40 DUP4 ADD CALLDATALOAD PUSH1 0x40 DUP3 ADD MSTORE POP SWAP3 SWAP2 POP POP JUMP JUMPDEST DUP1 CALLDATALOAD PUSH3 0xFFFFFF DUP2 AND DUP2 EQ PUSH2 0x30C JUMPI PUSH1 0x0 DUP1 REVERT JUMPDEST DUP1 CALLDATALOAD PUSH5 0xFFFFFFFFFF DUP2 AND DUP2 EQ PUSH2 0x30C JUMPI PUSH1 0x0 DUP1 REVERT JUMPDEST DUP1 CALLDATALOAD PUSH1 0xFF DUP2 AND DUP2 EQ PUSH2 0x30C JUMPI PUSH1 0x0 DUP1 REVERT JUMPDEST PUSH1 0x0 DUP1 PUSH1 0x40 DUP4 DUP6 SUB SLT ISZERO PUSH2 0x826 JUMPI DUP2 DUP3 REVERT JUMPDEST DUP3 CALLDATALOAD PUSH8 0xFFFFFFFFFFFFFFFF DUP1 DUP3 GT ISZERO PUSH2 0x83D JUMPI DUP4 DUP5 REVERT JUMPDEST DUP2 DUP6 ADD SWAP2 POP DUP6 PUSH1 0x1F DUP4 ADD SLT PUSH2 0x850 JUMPI DUP4 DUP5 REVERT JUMPDEST DUP2 CALLDATALOAD PUSH2 0x85E PUSH2 0x32F DUP3 PUSH2 0xCDC JUMP JUMPDEST DUP2 DUP2 MSTORE PUSH1 0x20 DUP1 DUP3 ADD SWAP2 SWAP1 DUP6 DUP2 ADD DUP9 JUMPDEST DUP6 DUP2 LT ISZERO PUSH2 0x92B JUMPI DUP2 CALLDATALOAD DUP9 ADD PUSH1 0xC0 PUSH32 0xFFFFFFFFFFFFFFFFFFFFFFFFFFFFFFFFFFFFFFFFFFFFFFFFFFFFFFFFFFFFFFE0 DUP3 DUP16 SUB ADD SLT ISZERO PUSH2 0x8AA JUMPI DUP11 DUP12 REVERT JUMPDEST PUSH1 0x40 MLOAD PUSH1 0x80 DUP2 ADD DUP2 DUP2 LT DUP11 DUP3 GT OR ISZERO PUSH2 0x8BF JUMPI INVALID JUMPDEST PUSH1 0x40 MSTORE DUP2 DUP6 ADD CALLDATALOAD PUSH2 0x8CF DUP2 PUSH2 0xCFA JUMP JUMPDEST DUP2 MSTORE PUSH1 0x40 DUP3 ADD CALLDATALOAD DUP10 DUP2 GT ISZERO PUSH2 0x8E2 JUMPI DUP13 DUP14 REVERT JUMPDEST PUSH2 0x8F0 DUP16 DUP8 DUP4 DUP7 ADD ADD PUSH2 0x61E JUMP JUMPDEST DUP7 DUP4 ADD MSTORE POP PUSH2 0x901 PUSH1 0x60 DUP4 ADD PUSH2 0x577 JUMP JUMPDEST PUSH1 0x40 DUP3 ADD MSTORE PUSH2 0x913 DUP15 PUSH1 0x80 DUP5 ADD PUSH2 0x781 JUMP JUMPDEST PUSH1 0x60 DUP3 ADD MSTORE DUP7 MSTORE POP SWAP4 DUP3 ADD SWAP4 SWAP1 DUP3 ADD SWAP1 PUSH1 0x1 ADD PUSH2 0x86D JUMP JUMPDEST POP SWAP2 SWAP8 POP DUP9 ADD CALLDATALOAD SWAP5 POP POP POP POP DUP1 DUP3 GT ISZERO PUSH2 0x943 JUMPI DUP3 DUP4 REVERT JUMPDEST POP PUSH2 0x950 DUP6 DUP3 DUP7 ADD PUSH2 0x45F JUMP JUMPDEST SWAP2 POP POP SWAP3 POP SWAP3 SWAP1 POP JUMP JUMPDEST PUSH1 0x0 PUSH1 0x20 DUP3 DUP5 SUB SLT ISZERO PUSH2 0x96B JUMPI DUP1 DUP2 REVERT JUMPDEST POP MLOAD SWAP2 SWAP1 POP JUMP JUMPDEST PUSH20 0xFFFFFFFFFFFFFFFFFFFFFFFFFFFFFFFFFFFFFFFF AND SWAP1 MSTORE JUMP JUMPDEST PUSH1 0x0 DUP2 MLOAD DUP1 DUP5 MSTORE PUSH1 0x20 DUP1 DUP6 ADD SWAP5 POP DUP1 DUP5 ADD DUP4 JUMPDEST DUP4 DUP2 LT ISZERO PUSH2 0x9BE JUMPI DUP2 MLOAD PUSH1 0xF SIGNEXTEND DUP8 MSTORE SWAP6 DUP3 ADD SWAP6 SWAP1 DUP3 ADD SWAP1 PUSH1 0x1 ADD PUSH2 0x99F JUMP JUMPDEST POP SWAP5 SWAP6 SWAP5 POP POP POP POP POP JUMP JUMPDEST ISZERO ISZERO SWAP1 MSTORE JUMP JUMPDEST PUSH1 0x0 SIGNEXTEND SWAP1 MSTORE JUMP JUMPDEST PUSH1 0x0 DUP2 MLOAD DUP1 DUP5 MSTORE DUP2 JUMPDEST DUP2 DUP2 LT ISZERO PUSH2 0x9FB JUMPI PUSH1 0x20 DUP2 DUP6 ADD DUP2 ADD MLOAD DUP7 DUP4 ADD DUP3 ADD MSTORE ADD PUSH2 0x9DF JUMP JUMPDEST DUP2 DUP2 GT ISZERO PUSH2 0xA0C JUMPI DUP3 PUSH1 0x20 DUP4 DUP8 ADD ADD MSTORE JUMPDEST POP PUSH1 0x1F ADD PUSH32 0xFFFFFFFFFFFFFFFFFFFFFFFFFFFFFFFFFFFFFFFFFFFFFFFFFFFFFFFFFFFFFFE0 AND SWAP3 SWAP1 SWAP3 ADD PUSH1 0x20 ADD SWAP3 SWAP2 POP POP JUMP JUMPDEST DUP1 MLOAD PUSH1 0xFF AND DUP3 MSTORE PUSH1 0x20 DUP1 DUP3 ADD MLOAD SWAP1 DUP4 ADD MSTORE PUSH1 0x40 SWAP1 DUP2 ADD MLOAD SWAP2 ADD MSTORE JUMP JUMPDEST PUSH3 0xFFFFFF AND SWAP1 MSTORE JUMP JUMPDEST PUSH5 0xFFFFFFFFFF AND SWAP1 MSTORE JUMP JUMPDEST PUSH1 0xFF AND SWAP1 MSTORE JUMP JUMPDEST PUSH1 0x0 PUSH1 0xE0 DUP3 ADD DUP8 DUP4 MSTORE PUSH1 0x20 PUSH2 0xA8D DUP2 DUP6 ADD DUP10 PUSH2 0xA3F JUMP JUMPDEST PUSH1 0x80 DUP5 ADD DUP8 SWAP1 MSTORE PUSH1 0xE0 PUSH1 0xA0 DUP6 ADD MSTORE DUP6 MLOAD SWAP2 DUP3 SWAP1 MSTORE DUP1 DUP7 ADD SWAP2 PUSH2 0x100 DUP6 ADD SWAP1 DUP5 JUMPDEST DUP2 DUP2 LT ISZERO PUSH2 0xADF JUMPI DUP5 MLOAD PUSH20 0xFFFFFFFFFFFFFFFFFFFFFFFFFFFFFFFFFFFFFFFF AND DUP4 MSTORE SWAP4 DUP4 ADD SWAP4 SWAP2 DUP4 ADD SWAP2 PUSH1 0x1 ADD PUSH2 0xAAD JUMP JUMPDEST POP POP DUP5 DUP2 SUB PUSH1 0xC0 DUP7 ADD MSTORE DUP6 MLOAD DUP1 DUP3 MSTORE SWAP1 DUP3 ADD SWAP3 POP DUP2 DUP7 ADD SWAP1 DUP5 JUMPDEST DUP2 DUP2 LT ISZERO PUSH2 0xB15 JUMPI DUP3 MLOAD DUP6 MSTORE SWAP4 DUP4 ADD SWAP4 SWAP2 DUP4 ADD SWAP2 PUSH1 0x1 ADD PUSH2 0xAF9 JUMP JUMPDEST POP SWAP3 SWAP11 SWAP10 POP POP POP POP POP POP POP POP POP POP JUMP JUMPDEST PUSH1 0x0 PUSH1 0xA0 DUP3 MSTORE DUP5 MLOAD PUSH2 0x1E0 DUP1 PUSH1 0xA0 DUP6 ADD MSTORE PUSH2 0xB44 PUSH2 0x280 DUP6 ADD DUP4 PUSH2 0x9D6 JUMP JUMPDEST SWAP2 POP PUSH1 0x20 DUP8 ADD MLOAD PUSH2 0xB58 PUSH1 0xC0 DUP7 ADD DUP3 PUSH2 0xA64 JUMP JUMPDEST POP PUSH1 0x40 DUP8 ADD MLOAD PUSH2 0xB6B PUSH1 0xE0 DUP7 ADD DUP3 PUSH2 0xA5B JUMP JUMPDEST POP PUSH1 0x60 DUP8 ADD MLOAD PUSH2 0x100 PUSH2 0xB80 DUP2 DUP8 ADD DUP4 PUSH2 0xA6F JUMP JUMPDEST PUSH1 0x80 DUP10 ADD MLOAD SWAP2 POP PUSH2 0x120 PUSH2 0xB96 DUP2 DUP9 ADD DUP5 PUSH2 0xA6F JUMP JUMPDEST PUSH1 0xA0 DUP11 ADD MLOAD SWAP3 POP PUSH2 0x140 PUSH2 0xBAC DUP2 DUP10 ADD DUP6 PUSH2 0xA6F JUMP JUMPDEST PUSH1 0xC0 DUP12 ADD MLOAD SWAP4 POP PUSH2 0x160 PUSH2 0xBC2 DUP2 DUP11 ADD DUP7 PUSH2 0x9CF JUMP JUMPDEST PUSH1 0xE0 DUP13 ADD MLOAD SWAP5 POP PUSH2 0x180 PUSH2 0xBD8 DUP2 DUP12 ADD DUP8 PUSH2 0x972 JUMP JUMPDEST SWAP4 DUP13 ADD MLOAD SWAP5 POP PUSH2 0x1A0 SWAP4 PUSH2 0xBEE DUP11 DUP7 ADD DUP8 PUSH2 0xA6F JUMP JUMPDEST SWAP3 DUP13 ADD MLOAD SWAP5 POP PUSH2 0x1C0 SWAP3 PUSH2 0xC04 DUP11 DUP6 ADD DUP8 PUSH2 0xA6F JUMP JUMPDEST DUP3 DUP14 ADD MLOAD SWAP6 POP PUSH2 0xC16 DUP8 DUP12 ADD DUP8 PUSH2 0xA6F JUMP JUMPDEST DUP2 DUP14 ADD MLOAD SWAP7 POP PUSH2 0xC2A PUSH2 0x200 DUP12 ADD DUP9 PUSH2 0xA6F JUMP JUMPDEST DUP13 ADD MLOAD SWAP6 POP PUSH2 0xC40 SWAP2 POP POP PUSH2 0x220 DUP9 ADD DUP6 PUSH2 0x972 JUMP JUMPDEST DUP2 DUP11 ADD MLOAD SWAP4 POP PUSH2 0xC54 PUSH2 0x240 DUP9 ADD DUP6 PUSH2 0x972 JUMP JUMPDEST DUP1 DUP11 ADD MLOAD SWAP4 POP POP POP POP PUSH32 0xFFFFFFFFFFFFFFFFFFFFFFFFFFFFFFFFFFFFFFFFFFFFFFFFFFFFFFFFFFFFFF60 DUP5 DUP4 SUB ADD PUSH2 0x260 DUP6 ADD MSTORE PUSH2 0xC92 DUP3 DUP3 PUSH2 0x98C JUMP JUMPDEST SWAP3 POP POP POP PUSH2 0xCA3 PUSH1 0x20 DUP4 ADD DUP6 PUSH2 0x9C9 JUMP JUMPDEST PUSH2 0xCB0 PUSH1 0x40 DUP4 ADD DUP5 PUSH2 0xA3F JUMP JUMPDEST SWAP5 SWAP4 POP POP POP POP JUMP JUMPDEST PUSH1 0x40 MLOAD DUP2 DUP2 ADD PUSH8 0xFFFFFFFFFFFFFFFF DUP2 GT DUP3 DUP3 LT OR ISZERO PUSH2 0xCD4 JUMPI INVALID JUMPDEST PUSH1 0x40 MSTORE SWAP2 SWAP1 POP JUMP JUMPDEST PUSH1 0x0 PUSH8 0xFFFFFFFFFFFFFFFF DUP3 GT ISZERO PUSH2 0xCF0 JUMPI INVALID JUMPDEST POP PUSH1 0x20 SWAP1 DUP2 MUL ADD SWAP1 JUMP JUMPDEST PUSH20 0xFFFFFFFFFFFFFFFFFFFFFFFFFFFFFFFFFFFFFFFF DUP2 AND DUP2 EQ PUSH2 0xD1C JUMPI PUSH1 0x0 DUP1 REVERT JUMPDEST POP JUMP INVALID LOG2 PUSH5 0x6970667358 0x22 SLT KECCAK256 CALLER 0xE9 MLOAD 0xB2 0x48 STOP 0xC7 0x2F 0xE4 SWAP8 PUSH28 0x327FB83AC428FB2084D9384686E4CAC0F01240776F64736F6C634300 SMOD DIV STOP CALLER "
			}
		}
	},
	"sourceTreeHashHex": "0xb877cd968cc7262d811f16cd67dd7d87b71bbf076c5ee07cb72374c65fc4fa84",
	"compiler": {
		"name": "solc",
		"version": "0.7.4+commit.3f05b770",
		"settings": {
			"remappings": [
				"factsigner=/home/ulf/digioptions/digioptions-contracts.js/node_modules/factsigner",
				"@openzeppelin/contracts=/home/ulf/digioptions/digioptions-contracts.js/node_modules/@openzeppelin/contracts"
			],
			"optimizer": {
				"enabled": true,
				"runs": 20000,
				"details": {
					"yul": true,
					"deduplicate": true,
					"cse": true,
					"constantOptimizer": true
				}
			},
			"outputSelection": {
				"*": {
					"*": [
						"abi",
						"evm.bytecode.object",
						"evm.bytecode.sourceMap",
						"evm.deployedBytecode.object",
						"evm.deployedBytecode.sourceMap"
					]
				}
			}
		}
	},
	"chains": {}
}